{
  "contractName": "BuySideContractFactory",
  "abi": [
    {
      "inputs": [
        {
          "internalType": "address",
          "name": "_a",
          "type": "address"
        }
      ],
      "stateMutability": "nonpayable",
      "type": "constructor"
    },
    {
      "inputs": [
        {
          "internalType": "address",
          "name": "_a",
          "type": "address"
        }
      ],
      "name": "updateAccessControl",
      "outputs": [],
      "stateMutability": "nonpayable",
      "type": "function"
    },
    {
      "inputs": [
        {
          "internalType": "uint256",
          "name": "_itemID",
          "type": "uint256"
        },
        {
          "internalType": "uint256",
          "name": "_price",
          "type": "uint256"
        },
        {
          "internalType": "uint256",
          "name": "_feesprecentage",
          "type": "uint256"
        },
        {
          "internalType": "string",
          "name": "_currency",
          "type": "string"
        },
        {
          "internalType": "uint256",
          "name": "_createdatetime",
          "type": "uint256"
        },
        {
          "internalType": "address",
          "name": "_seller",
          "type": "address"
        },
        {
          "internalType": "address",
          "name": "_access",
          "type": "address"
        },
        {
          "internalType": "address",
          "name": "_baseaddr",
          "type": "address"
        }
      ],
      "name": "createNewBuySideContract",
      "outputs": [
        {
          "internalType": "address",
          "name": "_i",
          "type": "address"
        }
      ],
      "stateMutability": "nonpayable",
      "type": "function"
    }
  ],
  "bytecode": "0x608060405234801561001057600080fd5b5060405161534d38038061534d8339818101604052602081101561003357600080fd5b8101908080519060200190929190505050806000806101000a81548173ffffffffffffffffffffffffffffffffffffffff021916908373ffffffffffffffffffffffffffffffffffffffff1602179055506100933361010b60201b60201c565b610105576040517f08c379a00000000000000000000000000000000000000000000000000000000081526004018080602001828103825260028152602001807f463100000000000000000000000000000000000000000000000000000000000081525060200191505060405180910390fd5b50610296565b60008060009054906101000a900473ffffffffffffffffffffffffffffffffffffffff1673ffffffffffffffffffffffffffffffffffffffff166391d148546000809054906101000a900473ffffffffffffffffffffffffffffffffffffffff1673ffffffffffffffffffffffffffffffffffffffff166375b238fc6040518163ffffffff1660e01b815260040160206040518083038186803b1580156101b157600080fd5b505afa1580156101c5573d6000803e3d6000fd5b505050506040513d60208110156101db57600080fd5b8101908080519060200190929190505050846040518363ffffffff1660e01b8152600401808381526020018273ffffffffffffffffffffffffffffffffffffffff1673ffffffffffffffffffffffffffffffffffffffff1681526020019250505060206040518083038186803b15801561025457600080fd5b505afa158015610268573d6000803e3d6000fd5b505050506040513d602081101561027e57600080fd5b81019080805190602001909291905050509050919050565b6150a8806102a56000396000f3fe60806040523480156200001157600080fd5b50600436106200003a5760003560e01c8063d1abb694146200003f578063f89488db14620001c9575b600080fd5b6200018760048036036101008110156200005857600080fd5b81019080803590602001909291908035906020019092919080359060200190929190803590602001906401000000008111156200009457600080fd5b820183602082011115620000a757600080fd5b80359060200191846001830284011164010000000083111715620000ca57600080fd5b91908080601f016020809104026020016040519081016040528093929190818152602001838380828437600081840152601f19601f82011690508083019250505050505050919291929080359060200190929190803573ffffffffffffffffffffffffffffffffffffffff169060200190929190803573ffffffffffffffffffffffffffffffffffffffff169060200190929190803573ffffffffffffffffffffffffffffffffffffffff16906020019092919050505062000210565b604051808273ffffffffffffffffffffffffffffffffffffffff1673ffffffffffffffffffffffffffffffffffffffff16815260200191505060405180910390f35b6200020e60048036036020811015620001e157600080fd5b81019080803573ffffffffffffffffffffffffffffffffffffffff16906020019092919050505062000446565b005b60006200021d3362000507565b806200023057506200022f3362000698565b5b620002a3576040517f08c379a00000000000000000000000000000000000000000000000000000000081526004018080602001828103825260028152602001807f463300000000000000000000000000000000000000000000000000000000000081525060200191505060405180910390fd5b600089838a8a8a8a898b33604051620002bc90620009ba565b808a81526020018973ffffffffffffffffffffffffffffffffffffffff1673ffffffffffffffffffffffffffffffffffffffff168152602001888152602001878152602001806020018681526020018573ffffffffffffffffffffffffffffffffffffffff1673ffffffffffffffffffffffffffffffffffffffff1681526020018473ffffffffffffffffffffffffffffffffffffffff1673ffffffffffffffffffffffffffffffffffffffff1681526020018373ffffffffffffffffffffffffffffffffffffffff1673ffffffffffffffffffffffffffffffffffffffff168152602001828103825287818151815260200191508051906020019080838360005b83811015620003db578082015181840152602081019050620003be565b50505050905090810190601f168015620004095780820380516001836020036101000a031916815260200191505b509a5050505050505050505050604051809103906000f08015801562000433573d6000803e3d6000fd5b5090508091505098975050505050505050565b620004513362000829565b620004c4576040517f08c379a00000000000000000000000000000000000000000000000000000000081526004018080602001828103825260028152602001807f463200000000000000000000000000000000000000000000000000000000000081525060200191505060405180910390fd5b806000806101000a81548173ffffffffffffffffffffffffffffffffffffffff021916908373ffffffffffffffffffffffffffffffffffffffff16021790555050565b60008060009054906101000a900473ffffffffffffffffffffffffffffffffffffffff1673ffffffffffffffffffffffffffffffffffffffff166391d148546000809054906101000a900473ffffffffffffffffffffffffffffffffffffffff1673ffffffffffffffffffffffffffffffffffffffff166375b238fc6040518163ffffffff1660e01b815260040160206040518083038186803b158015620005ae57600080fd5b505afa158015620005c3573d6000803e3d6000fd5b505050506040513d6020811015620005da57600080fd5b8101908080519060200190929190505050846040518363ffffffff1660e01b8152600401808381526020018273ffffffffffffffffffffffffffffffffffffffff1673ffffffffffffffffffffffffffffffffffffffff1681526020019250505060206040518083038186803b1580156200065457600080fd5b505afa15801562000669573d6000803e3d6000fd5b505050506040513d60208110156200068057600080fd5b81019080805190602001909291905050509050919050565b60008060009054906101000a900473ffffffffffffffffffffffffffffffffffffffff1673ffffffffffffffffffffffffffffffffffffffff166391d148546000809054906101000a900473ffffffffffffffffffffffffffffffffffffffff1673ffffffffffffffffffffffffffffffffffffffff166384138b9b6040518163ffffffff1660e01b815260040160206040518083038186803b1580156200073f57600080fd5b505afa15801562000754573d6000803e3d6000fd5b505050506040513d60208110156200076b57600080fd5b8101908080519060200190929190505050846040518363ffffffff1660e01b8152600401808381526020018273ffffffffffffffffffffffffffffffffffffffff1673ffffffffffffffffffffffffffffffffffffffff1681526020019250505060206040518083038186803b158015620007e557600080fd5b505afa158015620007fa573d6000803e3d6000fd5b505050506040513d60208110156200081157600080fd5b81019080805190602001909291905050509050919050565b60008060009054906101000a900473ffffffffffffffffffffffffffffffffffffffff1673ffffffffffffffffffffffffffffffffffffffff166391d148546000809054906101000a900473ffffffffffffffffffffffffffffffffffffffff1673ffffffffffffffffffffffffffffffffffffffff166348f029896040518163ffffffff1660e01b815260040160206040518083038186803b158015620008d057600080fd5b505afa158015620008e5573d6000803e3d6000fd5b505050506040513d6020811015620008fc57600080fd5b8101908080519060200190929190505050846040518363ffffffff1660e01b8152600401808381526020018273ffffffffffffffffffffffffffffffffffffffff1673ffffffffffffffffffffffffffffffffffffffff1681526020019250505060206040518083038186803b1580156200097657600080fd5b505afa1580156200098b573d6000803e3d6000fd5b505050506040513d6020811015620009a257600080fd5b81019080805190602001909291905050509050919050565b6146aa80620009c98339019056fe60806040523480156200001157600080fd5b50604051620046aa380380620046aa83398181016040526101208110156200003857600080fd5b8101908080519060200190929190805190602001909291908051906020019092919080519060200190929190805160405193929190846401000000008211156200008157600080fd5b838201915060208201858111156200009857600080fd5b8251866001820283011164010000000082111715620000b657600080fd5b8083526020830192505050908051906020019080838360005b83811015620000ec578082015181840152602081019050620000cf565b50505050905090810190601f1680156200011a5780820380516001836020036101000a031916815260200191505b5060405260200180519060200190929190805190602001909291908051906020019092919080519060200190929190505050888888878787806000806101000a81548173ffffffffffffffffffffffffffffffffffffffff021916908373ffffffffffffffffffffffffffffffffffffffff160217905550620001a333620004d160201b60201c565b80620001bc5750620001bb336200066260201b60201c565b5b80620001d55750620001d433620007f360201b60201c565b5b80620001ee5750620001ed336200098460201b60201c565b5b80620002075750620002063362000b1560201b60201c565b5b6200027a576040517f08c379a00000000000000000000000000000000000000000000000000000000081526004018080602001828103825260028152602001807f473100000000000000000000000000000000000000000000000000000000000081525060200191505060405180910390fd5b8585600a6000600c60008491906101000a81548173ffffffffffffffffffffffffffffffffffffffff021916908373ffffffffffffffffffffffffffffffffffffffff1602179055508391905055505060006006819055508260089080519060200190620002ea92919062000cbc565b506040518060400160405280600481526020017f4f50454e00000000000000000000000000000000000000000000000000000000815250600590805190602001906200033892919062000cbc565b5081600d60405180807f4f50454e000000000000000000000000000000000000000000000000000000008152506004019050908152602001604051809103902081905550600060098190555083600b81905550620003a2600162000ca660201b62002f1b1760201c565b50505050505080600260006101000a81548173ffffffffffffffffffffffffffffffffffffffff021916908373ffffffffffffffffffffffffffffffffffffffff16021790555081600360006101000a81548173ffffffffffffffffffffffffffffffffffffffff021916908373ffffffffffffffffffffffffffffffffffffffff160217905550856006819055506040518060400160405280600281526020017f4f49000000000000000000000000000000000000000000000000000000000000815250600590805190602001906200047e92919062000cbc565b5083600d60405180807f4f49000000000000000000000000000000000000000000000000000000000000815250600201905090815260200160405180910390208190555050505050505050505062000d6b565b60008060009054906101000a900473ffffffffffffffffffffffffffffffffffffffff1673ffffffffffffffffffffffffffffffffffffffff166391d148546000809054906101000a900473ffffffffffffffffffffffffffffffffffffffff1673ffffffffffffffffffffffffffffffffffffffff166375b238fc6040518163ffffffff1660e01b815260040160206040518083038186803b1580156200057857600080fd5b505afa1580156200058d573d6000803e3d6000fd5b505050506040513d6020811015620005a457600080fd5b8101908080519060200190929190505050846040518363ffffffff1660e01b8152600401808381526020018273ffffffffffffffffffffffffffffffffffffffff1673ffffffffffffffffffffffffffffffffffffffff1681526020019250505060206040518083038186803b1580156200061e57600080fd5b505afa15801562000633573d6000803e3d6000fd5b505050506040513d60208110156200064a57600080fd5b81019080805190602001909291905050509050919050565b60008060009054906101000a900473ffffffffffffffffffffffffffffffffffffffff1673ffffffffffffffffffffffffffffffffffffffff166391d148546000809054906101000a900473ffffffffffffffffffffffffffffffffffffffff1673ffffffffffffffffffffffffffffffffffffffff16634db08aea6040518163ffffffff1660e01b815260040160206040518083038186803b1580156200070957600080fd5b505afa1580156200071e573d6000803e3d6000fd5b505050506040513d60208110156200073557600080fd5b8101908080519060200190929190505050846040518363ffffffff1660e01b8152600401808381526020018273ffffffffffffffffffffffffffffffffffffffff1673ffffffffffffffffffffffffffffffffffffffff1681526020019250505060206040518083038186803b158015620007af57600080fd5b505afa158015620007c4573d6000803e3d6000fd5b505050506040513d6020811015620007db57600080fd5b81019080805190602001909291905050509050919050565b60008060009054906101000a900473ffffffffffffffffffffffffffffffffffffffff1673ffffffffffffffffffffffffffffffffffffffff166391d148546000809054906101000a900473ffffffffffffffffffffffffffffffffffffffff1673ffffffffffffffffffffffffffffffffffffffff166384138b9b6040518163ffffffff1660e01b815260040160206040518083038186803b1580156200089a57600080fd5b505afa158015620008af573d6000803e3d6000fd5b505050506040513d6020811015620008c657600080fd5b8101908080519060200190929190505050846040518363ffffffff1660e01b8152600401808381526020018273ffffffffffffffffffffffffffffffffffffffff1673ffffffffffffffffffffffffffffffffffffffff1681526020019250505060206040518083038186803b1580156200094057600080fd5b505afa15801562000955573d6000803e3d6000fd5b505050506040513d60208110156200096c57600080fd5b81019080805190602001909291905050509050919050565b60008060009054906101000a900473ffffffffffffffffffffffffffffffffffffffff1673ffffffffffffffffffffffffffffffffffffffff166391d148546000809054906101000a900473ffffffffffffffffffffffffffffffffffffffff1673ffffffffffffffffffffffffffffffffffffffff1663e926eb966040518163ffffffff1660e01b815260040160206040518083038186803b15801562000a2b57600080fd5b505afa15801562000a40573d6000803e3d6000fd5b505050506040513d602081101562000a5757600080fd5b8101908080519060200190929190505050846040518363ffffffff1660e01b8152600401808381526020018273ffffffffffffffffffffffffffffffffffffffff1673ffffffffffffffffffffffffffffffffffffffff1681526020019250505060206040518083038186803b15801562000ad157600080fd5b505afa15801562000ae6573d6000803e3d6000fd5b505050506040513d602081101562000afd57600080fd5b81019080805190602001909291905050509050919050565b60008060009054906101000a900473ffffffffffffffffffffffffffffffffffffffff1673ffffffffffffffffffffffffffffffffffffffff166391d148546000809054906101000a900473ffffffffffffffffffffffffffffffffffffffff1673ffffffffffffffffffffffffffffffffffffffff16634d5e07fb6040518163ffffffff1660e01b815260040160206040518083038186803b15801562000bbc57600080fd5b505afa15801562000bd1573d6000803e3d6000fd5b505050506040513d602081101562000be857600080fd5b8101908080519060200190929190505050846040518363ffffffff1660e01b8152600401808381526020018273ffffffffffffffffffffffffffffffffffffffff1673ffffffffffffffffffffffffffffffffffffffff1681526020019250505060206040518083038186803b15801562000c6257600080fd5b505afa15801562000c77573d6000803e3d6000fd5b505050506040513d602081101562000c8e57600080fd5b81019080805190602001909291905050509050919050565b6001816000016000828254019250508190555050565b828054600181600116156101000203166002900490600052602060002090601f016020900481019282601f1062000cff57805160ff191683800117855562000d30565b8280016001018555821562000d30579182015b8281111562000d2f57825182559160200191906001019062000d12565b5b50905062000d3f919062000d43565b5090565b62000d6891905b8082111562000d6457600081600090555060010162000d4a565b5090565b90565b61392f8062000d7b6000396000f3fe608060405234801561001057600080fd5b50600436106101da5760003560e01c80637ce3489b11610104578063c3c61f91116100a2578063e9f748d411610071578063e9f748d414610c56578063ea6d0d8614610c74578063f008695614610d25578063f89d1ec014610d5d576101da565b8063c3c61f9114610b59578063c412eaba14610b77578063dbd0e1b614610bc8578063e99d286614610c12576101da565b80639ad09310116100de5780639ad0931014610a6b578063a8bc4ffa14610ad9578063be74264d14610b1d578063bf5c982214610b3b576101da565b80637ce3489b146109245780637e78fdb91461095257806389ace75e1461099c576101da565b8063390cacdf1161017c5780635f34e4341161014b5780635f34e434146107db57806366a9613d146107f9578063677ab32d146108275780636b392680146108f6576101da565b8063390cacdf146104ed5780633c9782ff1461050b5780634f2f1291146105f15780635b76fd3d146107a3576101da565b80631b77f68d116101b85780631b77f68d1461038c578063292d1fb9146103b857806329596fa21461047d5780633270bb5b146104cb576101da565b806307d27fab146101df578063080f8b9d146102bb5780631865c57d14610309575b600080fd5b6102b9600480360360808110156101f557600080fd5b81019080803590602001909291908035906020019064010000000081111561021c57600080fd5b82018360208201111561022e57600080fd5b8035906020019184600183028401116401000000008311171561025057600080fd5b91908080601f016020809104026020016040519081016040528093929190818152602001838380828437600081840152601f19601f82011690508083019250505050505050919291929080359060200190929190803560ff169060200190929190505050610da7565b005b610307600480360360808110156102d157600080fd5b81019080803590602001909291908035906020019092919080359060200190929190803515159060200190929190505050610f0b565b005b610311611066565b6040518080602001828103825283818151815260200191508051906020019080838360005b83811015610351578082015181840152602081019050610336565b50505050905090810190601f16801561037e5780820380516001836020036101000a031916815260200191505b509250505060405180910390f35b610394611183565b60405180848152602001838152602001828152602001935050505060405180910390f35b61047b600480360360408110156103ce57600080fd5b81019080803590602001906401000000008111156103eb57600080fd5b8201836020820111156103fd57600080fd5b8035906020019184600183028401116401000000008311171561041f57600080fd5b91908080601f016020809104026020016040519081016040528093929190818152602001838380828437600081840152601f19601f820116905080830192505050505050509192919290803590602001909291905050506113a8565b005b6104c96004803603604081101561049357600080fd5b8101908080359060200190929190803573ffffffffffffffffffffffffffffffffffffffff1690602001909291905050506114ac565b005b6104d3611766565b604051808215151515815260200191505060405180910390f35b6104f561189a565b6040518082815260200191505060405180910390f35b6105376004803603602081101561052157600080fd5b810190808035906020019092919050505061191f565b604051808981526020018881526020018781526020018660ff1660ff168152602001851515151581526020018415151515815260200183815260200180602001828103825283818151815260200191508051906020019080838360005b838110156105af578082015181840152602081019050610594565b50505050905090810190601f1680156105dc5780820380516001836020036101000a031916815260200191505b50995050505050505050505060405180910390f35b6105f9611b34565b604051808c81526020018b81526020018a73ffffffffffffffffffffffffffffffffffffffff1673ffffffffffffffffffffffffffffffffffffffff168152602001898152602001888152602001806020018781526020018673ffffffffffffffffffffffffffffffffffffffff1673ffffffffffffffffffffffffffffffffffffffff1681526020018573ffffffffffffffffffffffffffffffffffffffff1673ffffffffffffffffffffffffffffffffffffffff16815260200180602001848152602001838103835289818151815260200191508051906020019080838360005b838110156106f75780820151818401526020810190506106dc565b50505050905090810190601f1680156107245780820380516001836020036101000a031916815260200191505b50838103825285818151815260200191508051906020019080838360005b8381101561075d578082015181840152602081019050610742565b50505050905090810190601f16801561078a5780820380516001836020036101000a031916815260200191505b509d505050505050505050505050505060405180910390f35b6107d9600480360360408110156107b957600080fd5b810190808035906020019092919080359060200190929190505050611dc0565b005b6107e3611ea7565b6040518082815260200191505060405180910390f35b6108256004803603602081101561080f57600080fd5b8101908080359060200190929190505050611f36565b005b6108f46004803603604081101561083d57600080fd5b81019080803567ffffffffffffffff1690602001909291908035906020019064010000000081111561086e57600080fd5b82018360208201111561088057600080fd5b803590602001918460018302840111640100000000831117156108a257600080fd5b91908080601f016020809104026020016040519081016040528093929190818152602001838380828437600081840152601f19601f820116905080830192505050505050509192919290505050611fcb565b005b6109226004803603602081101561090c57600080fd5b81019080803590602001909291905050506120b6565b005b6109506004803603602081101561093a57600080fd5b810190808035906020019092919050505061214b565b005b61095a6121e0565b604051808273ffffffffffffffffffffffffffffffffffffffff1673ffffffffffffffffffffffffffffffffffffffff16815260200191505060405180910390f35b610a55600480360360208110156109b257600080fd5b81019080803590602001906401000000008111156109cf57600080fd5b8201836020820111156109e157600080fd5b80359060200191846001830284011164010000000083111715610a0357600080fd5b91908080601f016020809104026020016040519081016040528093929190818152602001838380828437600081840152601f19601f820116905080830192505050505050509192919290505050612285565b6040518082815260200191505060405180910390f35b610ad760048036036060811015610a8157600080fd5b81019080803573ffffffffffffffffffffffffffffffffffffffff16906020019092919080359060200190929190803573ffffffffffffffffffffffffffffffffffffffff169060200190929190505050612373565b005b610b1b60048036036020811015610aef57600080fd5b81019080803573ffffffffffffffffffffffffffffffffffffffff1690602001909291905050506124bc565b005b610b2561257b565b6040518082815260200191505060405180910390f35b610b43612600565b6040518082815260200191505060405180910390f35b610b61612685565b6040518082815260200191505060405180910390f35b610b7f61270a565b604051808381526020018273ffffffffffffffffffffffffffffffffffffffff1673ffffffffffffffffffffffffffffffffffffffff1681526020019250505060405180910390f35b610bd06127b6565b604051808273ffffffffffffffffffffffffffffffffffffffff1673ffffffffffffffffffffffffffffffffffffffff16815260200191505060405180910390f35b610c5460048036036020811015610c2857600080fd5b81019080803573ffffffffffffffffffffffffffffffffffffffff16906020019092919050505061285b565b005b610c5e61291a565b6040518082815260200191505060405180910390f35b610caa60048036036020811015610c8a57600080fd5b81019080803567ffffffffffffffff169060200190929190505050612941565b6040518080602001828103825283818151815260200191508051906020019080838360005b83811015610cea578082015181840152602081019050610ccf565b50505050905090810190601f168015610d175780820380516001836020036101000a031916815260200191505b509250505060405180910390f35b610d5b60048036036040811015610d3b57600080fd5b810190808035906020019092919080359060200190929190505050612a85565b005b610d65612cb9565b604051808273ffffffffffffffffffffffffffffffffffffffff1673ffffffffffffffffffffffffffffffffffffffff16815260200191505060405180910390f35b610db033612d5e565b80610dc05750610dbf33612d90565b5b610e32576040517f08c379a00000000000000000000000000000000000000000000000000000000081526004018080602001828103825260038152602001807f473234000000000000000000000000000000000000000000000000000000000081525060200191505060405180910390fd5b6001600e600086815260200190815260200160002060030160026101000a81548160ff0219169083151502179055506000600e600086815260200190815260200160002060030160016101000a81548160ff02191690831515021790555082600e60008681526020019081526020016000206005019080519060200190610eba929190613808565b5080600e600086815260200190815260200160002060030160006101000a81548160ff021916908360ff16021790555081600e60008681526020019081526020016000206004018190555050505050565b610f1433612d5e565b80610f245750610f2333612d90565b5b610f96576040517f08c379a00000000000000000000000000000000000000000000000000000000081526004018080602001828103825260038152602001807f473230000000000000000000000000000000000000000000000000000000000081525060200191505060405180910390fd5b610fa06001612f1b565b60006001610fae6001612f31565b03905084600e60008381526020019081526020016000206001018190555083600e60008381526020019081526020016000206000018190555082600e60008381526020019081526020016000206002018190555081600e600083815260200190815260200160002060030160016101000a81548160ff0219169083151502179055506000600e600083815260200190815260200160002060030160026101000a81548160ff0219169083151502179055505050505050565b606061107133612f3f565b6110e3576040517f08c379a00000000000000000000000000000000000000000000000000000000081526004018080602001828103825260038152602001807f473233000000000000000000000000000000000000000000000000000000000081525060200191505060405180910390fd5b60058054600181600116156101000203166002900480601f0160208091040260200160405190810160405280929190818152602001828054600181600116156101000203166002900480156111795780601f1061114e57610100808354040283529160200191611179565b820191906000526020600020905b81548152906001019060200180831161115c57829003601f168201915b5050505050905090565b600080600061119133613051565b806111a157506111a033612f3f565b5b611213576040517f08c379a00000000000000000000000000000000000000000000000000000000081526004018080602001828103825260028152602001807f473800000000000000000000000000000000000000000000000000000000000081525060200191505060405180910390fd5b60008090506000806001905060008090505b61122f6001612f31565b8110156113805760011515600e600083815260200190815260200160002060030160019054906101000a900460ff161515148015611294575060001515600e600083815260200190815260200160002060030160029054906101000a900460ff161515145b80156112a4575060011515821515145b156112ce57809350600e600085815260200190815260200160002060000154925060009150611373565b60011515600e600083815260200190815260200160002060030160019054906101000a900460ff16151514801561132c575060001515600e600083815260200190815260200160002060030160029054906101000a900460ff161515145b156113725782600e600083815260200190815260200160002060000154106113545783611356565b805b9350600e60008581526020019081526020016000206000015492505b5b8080600101915050611225565b508282600e600086815260200190815260200160002060010154955095509550505050909192565b6113b133612d5e565b611423576040517f08c379a00000000000000000000000000000000000000000000000000000000081526004018080602001828103825260038152602001807f473131000000000000000000000000000000000000000000000000000000000081525060200191505060405180910390fd5b8160059080519060200190611439929190613808565b5080600d836040518082805190602001908083835b60208310611471578051825260208201915060208101905060208303925061144e565b6001836020036101000a0380198251168184511680821785525050505050509050019150509081526020016040518091039020819055505050565b6114b533612d5e565b611527576040517f08c379a00000000000000000000000000000000000000000000000000000000081526004018080602001828103825260038152602001807f473138000000000000000000000000000000000000000000000000000000000081525060200191505060405180910390fd5b6000600c60009054906101000a900473ffffffffffffffffffffffffffffffffffffffff1690506000831461155c5782611560565b600a545b92503073ffffffffffffffffffffffffffffffffffffffff168173ffffffffffffffffffffffffffffffffffffffff16636352211e856040518263ffffffff1660e01b81526004018082815260200191505060206040518083038186803b1580156115ca57600080fd5b505afa1580156115de573d6000803e3d6000fd5b505050506040513d60208110156115f457600080fd5b810190808051906020019092919050505073ffffffffffffffffffffffffffffffffffffffff161461168e576040517f08c379a00000000000000000000000000000000000000000000000000000000081526004018080602001828103825260038152602001807f473235000000000000000000000000000000000000000000000000000000000081525060200191505060405180910390fd5b8073ffffffffffffffffffffffffffffffffffffffff166323b872dd3084866040518463ffffffff1660e01b8152600401808473ffffffffffffffffffffffffffffffffffffffff1673ffffffffffffffffffffffffffffffffffffffff1681526020018373ffffffffffffffffffffffffffffffffffffffff1673ffffffffffffffffffffffffffffffffffffffff1681526020018281526020019350505050600060405180830381600087803b15801561174957600080fd5b505af115801561175d573d6000803e3d6000fd5b50505050505050565b600061177133612f3f565b806117815750611780336131dc565b5b80611791575061179033613051565b5b611803576040517f08c379a00000000000000000000000000000000000000000000000000000000081526004018080602001828103825260038152602001807f473235000000000000000000000000000000000000000000000000000000000081525060200191505060405180910390fd5b60006001905060008090505b6118196001612f31565b811015611892578180156118795750600e600082815260200190815260200160002060030160019054906101000a900460ff1680156118785750600e600082815260200190815260200160002060030160029054906101000a900460ff165b5b91508161188557611892565b808060010191505061180f565b508091505090565b60006118a533612f3f565b611917576040517f08c379a00000000000000000000000000000000000000000000000000000000081526004018080602001828103825260038152602001807f473237000000000000000000000000000000000000000000000000000000000081525060200191505060405180910390fd5b600954905090565b6000806000806000806000606061193533612f3f565b6119a7576040517f08c379a00000000000000000000000000000000000000000000000000000000081526004018080602001828103825260038152602001807f473239000000000000000000000000000000000000000000000000000000000081525060200191505060405180910390fd5b6119af613888565b600e60008b8152602001908152602001600020604051806101000160405290816000820154815260200160018201548152602001600282015481526020016003820160009054906101000a900460ff1660ff1660ff1681526020016003820160019054906101000a900460ff161515151581526020016003820160029054906101000a900460ff1615151515815260200160048201548152602001600582018054600181600116156101000203166002900480601f016020809104026020016040519081016040528092919081815260200182805460018160011615610100020316600290048015611ae25780601f10611ab757610100808354040283529160200191611ae2565b820191906000526020600020905b815481529060010190602001808311611ac557829003601f168201915b5050505050815250509050806000015181602001518260400151836060015184608001518560a001518660c001518760e001518090509850985098509850985098509850985050919395975091939597565b60008060008060006060600080600060606000611b5033612f3f565b611bc2576040517f08c379a00000000000000000000000000000000000000000000000000000000081526004018080602001828103825260058152602001807f425343303100000000000000000000000000000000000000000000000000000081525060200191505060405180910390fd5b60116000611bd06010612f31565b815260200190815260200160002060000154600a54600c60009054906101000a900473ffffffffffffffffffffffffffffffffffffffff16600b546006546008600954600360009054906101000a900473ffffffffffffffffffffffffffffffffffffffff16600260009054906101000a900473ffffffffffffffffffffffffffffffffffffffff166005611c656001612f31565b858054600181600116156101000203166002900480601f016020809104026020016040519081016040528092919081815260200182805460018160011615610100020316600290048015611cfa5780601f10611ccf57610100808354040283529160200191611cfa565b820191906000526020600020905b815481529060010190602001808311611cdd57829003601f168201915b50505050509550818054600181600116156101000203166002900480601f016020809104026020016040519081016040528092919081815260200182805460018160011615610100020316600290048015611d965780601f10611d6b57610100808354040283529160200191611d96565b820191906000526020600020905b815481529060010190602001808311611d7957829003601f168201915b505050505091509a509a509a509a509a509a509a509a509a509a509a50909192939495969798999a565b611dc933613367565b80611dd95750611dd8336131dc565b5b611e4b576040517f08c379a00000000000000000000000000000000000000000000000000000000081526004018080602001828103825260058152602001807f425343303200000000000000000000000000000000000000000000000000000081525060200191505060405180910390fd5b81601160006001611e5c6010612f31565b0381526020019081526020016000206000018190555080601160006001611e836010612f31565b03815260200190815260200160002060010181905550611ea36010612f1b565b5050565b6000611eb233612f3f565b611f24576040517f08c379a00000000000000000000000000000000000000000000000000000000081526004018080602001828103825260038152602001807f473234000000000000000000000000000000000000000000000000000000000081525060200191505060405180910390fd5b6001611f306001612f31565b03905090565b611f3f33612d5e565b80611f4f5750611f4e336134f2565b5b611fc1576040517f08c379a00000000000000000000000000000000000000000000000000000000081526004018080602001828103825260038152602001807f473136000000000000000000000000000000000000000000000000000000000081525060200191505060405180910390fd5b8060098190555050565b611fd433612d5e565b80611fe45750611fe3336134f2565b5b80611ff45750611ff33361367d565b5b80612004575061200333612d90565b5b612076576040517f08c379a00000000000000000000000000000000000000000000000000000000081526004018080602001828103825260038152602001807f473137000000000000000000000000000000000000000000000000000000000081525060200191505060405180910390fd5b80600f60008467ffffffffffffffff1667ffffffffffffffff16815260200190815260200160002090805190602001906120b1929190613808565b505050565b6120bf33612d5e565b806120cf57506120ce336134f2565b5b612141576040517f08c379a00000000000000000000000000000000000000000000000000000000081526004018080602001828103825260038152602001807f473133000000000000000000000000000000000000000000000000000000000081525060200191505060405180910390fd5b8060078190555050565b61215433612d5e565b806121645750612163336134f2565b5b6121d6576040517f08c379a00000000000000000000000000000000000000000000000000000000081526004018080602001828103825260038152602001807f473132000000000000000000000000000000000000000000000000000000000081525060200191505060405180910390fd5b8060068190555050565b60006121eb33612f3f565b61225d576040517f08c379a00000000000000000000000000000000000000000000000000000000081526004018080602001828103825260028152602001807f473500000000000000000000000000000000000000000000000000000000000081525060200191505060405180910390fd5b600260009054906101000a900473ffffffffffffffffffffffffffffffffffffffff16905090565b600061229033612f3f565b612302576040517f08c379a00000000000000000000000000000000000000000000000000000000081526004018080602001828103825260038152602001807f473238000000000000000000000000000000000000000000000000000000000081525060200191505060405180910390fd5b600d826040518082805190602001908083835b602083106123385780518252602082019150602081019050602083039250612315565b6001836020036101000a0380198251168184511680821785525050505050509050019150509081526020016040518091039020549050919050565b61237c33612d5e565b6123ee576040517f08c379a00000000000000000000000000000000000000000000000000000000081526004018080602001828103825260038152602001807f473139000000000000000000000000000000000000000000000000000000000081525060200191505060405180910390fd5b60008390508073ffffffffffffffffffffffffffffffffffffffff1663a9059cbb83856040518363ffffffff1660e01b8152600401808373ffffffffffffffffffffffffffffffffffffffff1673ffffffffffffffffffffffffffffffffffffffff16815260200182815260200192505050602060405180830381600087803b15801561247a57600080fd5b505af115801561248e573d6000803e3d6000fd5b505050506040513d60208110156124a457600080fd5b81019080805190602001909291905050505050505050565b6124c533612d5e565b612537576040517f08c379a00000000000000000000000000000000000000000000000000000000081526004018080602001828103825260038152602001807f473134000000000000000000000000000000000000000000000000000000000081525060200191505060405180910390fd5b80600260006101000a81548173ffffffffffffffffffffffffffffffffffffffff021916908373ffffffffffffffffffffffffffffffffffffffff16021790555050565b600061258633612f3f565b6125f8576040517f08c379a00000000000000000000000000000000000000000000000000000000081526004018080602001828103825260038152602001807f473235000000000000000000000000000000000000000000000000000000000081525060200191505060405180910390fd5b600654905090565b600061260b33612f3f565b61267d576040517f08c379a00000000000000000000000000000000000000000000000000000000081526004018080602001828103825260038152602001807f473236000000000000000000000000000000000000000000000000000000000081525060200191505060405180910390fd5b600754905090565b600061269033612f3f565b612702576040517f08c379a00000000000000000000000000000000000000000000000000000000081526004018080602001828103825260028152602001807f473300000000000000000000000000000000000000000000000000000000000081525060200191505060405180910390fd5b600b54905090565b60008061271633612f3f565b612788576040517f08c379a00000000000000000000000000000000000000000000000000000000081526004018080602001828103825260028152602001807f473200000000000000000000000000000000000000000000000000000000000081525060200191505060405180910390fd5b600a54600c60009054906101000a900473ffffffffffffffffffffffffffffffffffffffff16915091509091565b60006127c133612f3f565b612833576040517f08c379a00000000000000000000000000000000000000000000000000000000081526004018080602001828103825260028152602001807f473600000000000000000000000000000000000000000000000000000000000081525060200191505060405180910390fd5b600460009054906101000a900473ffffffffffffffffffffffffffffffffffffffff16905090565b61286433612d5e565b6128d6576040517f08c379a00000000000000000000000000000000000000000000000000000000081526004018080602001828103825260038152602001807f473135000000000000000000000000000000000000000000000000000000000081525060200191505060405180910390fd5b80600460006101000a81548173ffffffffffffffffffffffffffffffffffffffff021916908373ffffffffffffffffffffffffffffffffffffffff16021790555050565b60006011600061292a6010612f31565b815260200190815260200160002060000154905090565b606061294c33612f3f565b6129be576040517f08c379a00000000000000000000000000000000000000000000000000000000081526004018080602001828103825260028152602001807f473700000000000000000000000000000000000000000000000000000000000081525060200191505060405180910390fd5b600f60008367ffffffffffffffff1667ffffffffffffffff1681526020019081526020016000208054600181600116156101000203166002900480601f016020809104026020016040519081016040528092919081815260200182805460018160011615610100020316600290048015612a795780601f10612a4e57610100808354040283529160200191612a79565b820191906000526020600020905b815481529060010190602001808311612a5c57829003601f168201915b50505050509050919050565b612a8e33612d5e565b80612a9e5750612a9d33612d90565b5b612b10576040517f08c379a00000000000000000000000000000000000000000000000000000000081526004018080602001828103825260038152602001807f473231000000000000000000000000000000000000000000000000000000000081525060200191505060405180910390fd5b60008210158015612b295750612b266001612f31565b82105b612b9b576040517f08c379a00000000000000000000000000000000000000000000000000000000081526004018080602001828103825260038152602001807f473232000000000000000000000000000000000000000000000000000000000081525060200191505060405180910390fd5b60001515600e600084815260200190815260200160002060030160029054906101000a900460ff161515148015612bf9575060011515600e600084815260200190815260200160002060030160019054906101000a900460ff161515145b612c6b576040517f08c379a00000000000000000000000000000000000000000000000000000000081526004018080602001828103825260038152602001807f473233000000000000000000000000000000000000000000000000000000000081525060200191505060405180910390fd5b6000600e600084815260200190815260200160002060030160016101000a81548160ff02191690831515021790555080600e6000848152602001908152602001600020600401819055505050565b6000612cc433612f3f565b612d36576040517f08c379a00000000000000000000000000000000000000000000000000000000081526004018080602001828103825260028152602001807f473400000000000000000000000000000000000000000000000000000000000081525060200191505060405180910390fd5b600360009054906101000a900473ffffffffffffffffffffffffffffffffffffffff16905090565b6000612d6982613367565b80612d795750612d7882613051565b5b80612d895750612d88826131dc565b5b9050919050565b60008060009054906101000a900473ffffffffffffffffffffffffffffffffffffffff1673ffffffffffffffffffffffffffffffffffffffff166391d148546000809054906101000a900473ffffffffffffffffffffffffffffffffffffffff1673ffffffffffffffffffffffffffffffffffffffff1663ef0fe2456040518163ffffffff1660e01b815260040160206040518083038186803b158015612e3657600080fd5b505afa158015612e4a573d6000803e3d6000fd5b505050506040513d6020811015612e6057600080fd5b8101908080519060200190929190505050846040518363ffffffff1660e01b8152600401808381526020018273ffffffffffffffffffffffffffffffffffffffff1673ffffffffffffffffffffffffffffffffffffffff1681526020019250505060206040518083038186803b158015612ed957600080fd5b505afa158015612eed573d6000803e3d6000fd5b505050506040513d6020811015612f0357600080fd5b81019080805190602001909291905050509050919050565b6001816000016000828254019250508190555050565b600081600001549050919050565b6000600360009054906101000a900473ffffffffffffffffffffffffffffffffffffffff1673ffffffffffffffffffffffffffffffffffffffff168273ffffffffffffffffffffffffffffffffffffffff161480612fea5750600260009054906101000a900473ffffffffffffffffffffffffffffffffffffffff1673ffffffffffffffffffffffffffffffffffffffff168273ffffffffffffffffffffffffffffffffffffffff16145b80612ffa5750612ff982613367565b5b8061300a5750613009826134f2565b5b8061301a575061301982612d90565b5b8061302a57506130298261367d565b5b8061303a5750613039826131dc565b5b8061304a575061304982613051565b5b9050919050565b60008060009054906101000a900473ffffffffffffffffffffffffffffffffffffffff1673ffffffffffffffffffffffffffffffffffffffff166391d148546000809054906101000a900473ffffffffffffffffffffffffffffffffffffffff1673ffffffffffffffffffffffffffffffffffffffff16634d5e07fb6040518163ffffffff1660e01b815260040160206040518083038186803b1580156130f757600080fd5b505afa15801561310b573d6000803e3d6000fd5b505050506040513d602081101561312157600080fd5b8101908080519060200190929190505050846040518363ffffffff1660e01b8152600401808381526020018273ffffffffffffffffffffffffffffffffffffffff1673ffffffffffffffffffffffffffffffffffffffff1681526020019250505060206040518083038186803b15801561319a57600080fd5b505afa1580156131ae573d6000803e3d6000fd5b505050506040513d60208110156131c457600080fd5b81019080805190602001909291905050509050919050565b60008060009054906101000a900473ffffffffffffffffffffffffffffffffffffffff1673ffffffffffffffffffffffffffffffffffffffff166391d148546000809054906101000a900473ffffffffffffffffffffffffffffffffffffffff1673ffffffffffffffffffffffffffffffffffffffff166384138b9b6040518163ffffffff1660e01b815260040160206040518083038186803b15801561328257600080fd5b505afa158015613296573d6000803e3d6000fd5b505050506040513d60208110156132ac57600080fd5b8101908080519060200190929190505050846040518363ffffffff1660e01b8152600401808381526020018273ffffffffffffffffffffffffffffffffffffffff1673ffffffffffffffffffffffffffffffffffffffff1681526020019250505060206040518083038186803b15801561332557600080fd5b505afa158015613339573d6000803e3d6000fd5b505050506040513d602081101561334f57600080fd5b81019080805190602001909291905050509050919050565b60008060009054906101000a900473ffffffffffffffffffffffffffffffffffffffff1673ffffffffffffffffffffffffffffffffffffffff166391d148546000809054906101000a900473ffffffffffffffffffffffffffffffffffffffff1673ffffffffffffffffffffffffffffffffffffffff166375b238fc6040518163ffffffff1660e01b815260040160206040518083038186803b15801561340d57600080fd5b505afa158015613421573d6000803e3d6000fd5b505050506040513d602081101561343757600080fd5b8101908080519060200190929190505050846040518363ffffffff1660e01b8152600401808381526020018273ffffffffffffffffffffffffffffffffffffffff1673ffffffffffffffffffffffffffffffffffffffff1681526020019250505060206040518083038186803b1580156134b057600080fd5b505afa1580156134c4573d6000803e3d6000fd5b505050506040513d60208110156134da57600080fd5b81019080805190602001909291905050509050919050565b60008060009054906101000a900473ffffffffffffffffffffffffffffffffffffffff1673ffffffffffffffffffffffffffffffffffffffff166391d148546000809054906101000a900473ffffffffffffffffffffffffffffffffffffffff1673ffffffffffffffffffffffffffffffffffffffff16634db08aea6040518163ffffffff1660e01b815260040160206040518083038186803b15801561359857600080fd5b505afa1580156135ac573d6000803e3d6000fd5b505050506040513d60208110156135c257600080fd5b8101908080519060200190929190505050846040518363ffffffff1660e01b8152600401808381526020018273ffffffffffffffffffffffffffffffffffffffff1673ffffffffffffffffffffffffffffffffffffffff1681526020019250505060206040518083038186803b15801561363b57600080fd5b505afa15801561364f573d6000803e3d6000fd5b505050506040513d602081101561366557600080fd5b81019080805190602001909291905050509050919050565b60008060009054906101000a900473ffffffffffffffffffffffffffffffffffffffff1673ffffffffffffffffffffffffffffffffffffffff166391d148546000809054906101000a900473ffffffffffffffffffffffffffffffffffffffff1673ffffffffffffffffffffffffffffffffffffffff1663e90524f26040518163ffffffff1660e01b815260040160206040518083038186803b15801561372357600080fd5b505afa158015613737573d6000803e3d6000fd5b505050506040513d602081101561374d57600080fd5b8101908080519060200190929190505050846040518363ffffffff1660e01b8152600401808381526020018273ffffffffffffffffffffffffffffffffffffffff1673ffffffffffffffffffffffffffffffffffffffff1681526020019250505060206040518083038186803b1580156137c657600080fd5b505afa1580156137da573d6000803e3d6000fd5b505050506040513d60208110156137f057600080fd5b81019080805190602001909291905050509050919050565b828054600181600116156101000203166002900490600052602060002090601f016020900481019282601f1061384957805160ff1916838001178555613877565b82800160010185558215613877579182015b8281111561387657825182559160200191906001019061385b565b5b50905061388491906138d4565b5090565b604051806101000160405280600081526020016000815260200160008152602001600060ff16815260200160001515815260200160001515815260200160008152602001606081525090565b6138f691905b808211156138f25760008160009055506001016138da565b5090565b9056fea2646970667358221220f1bd0342aa1f4f153c0d0b9586f6bcc161b004bb80d2487740add4ba6672e22664736f6c63430006020033a26469706673582212206a8ff3904f4150057e4cc05f6f6964502e5983a647b76b8e9cbd25ce550ac66764736f6c63430006020033",
  "source": "pragma solidity ^0.6.0;\n\nimport \"./BuySideContract.sol\";\nimport \"../utils/access.sol\";\ncontract BuySideContractFactory is Access {\n    \n    \n    constructor(address _a) public {\n        access = PermissionControl(_a);\n        require(_isAdmin(msg.sender),\"F1\");\n    \n    }\n    \n    function updateAccessControl(address _a) public {\n        require(_isCR(msg.sender),\"F2\");\n        access = PermissionControl(_a);\n        \n    }\n    \n    function createNewBuySideContract(uint256 _itemID, uint256 _price, uint256 _feesprecentage, string memory _currency,\n                                        uint256 _createdatetime,address _seller,address _access,address _baseaddr) public\n    returns(address _i)\n    {\n        \n        require(_isAdmin(msg.sender) || _isExpense(msg.sender),\"F3\");\n        BuySideContract i = new BuySideContract(_itemID,_baseaddr, _price,_feesprecentage,_currency,_createdatetime,_access,_seller,msg.sender);\n        return(address(i));\n        \n    }\n    \n    \n    \n    \n}",
  "sourcePath": "/home/dickchan/ERC721Marketplace/contracts/BuySellContract/BuySideContractFactory.sol",
  "compiler": {
    "name": "solc",
    "version": "0.6.2+commit.bacdbe57.Emscripten.clang"
  },
  "schemaVersion": "3.2.3",
  "updatedAt": "2020-11-19T07:51:27.237Z",
  "devdoc": {
    "methods": {}
  },
  "userdoc": {
    "methods": {}
  }
}