{
  "contractName": "CashOutBook",
  "abi": [
    {
      "inputs": [
        {
          "internalType": "address",
          "name": "_bookkeepingtoken",
          "type": "address"
        },
        {
          "internalType": "address",
          "name": "_expensebook",
          "type": "address"
        },
        {
          "internalType": "address",
          "name": "_admin",
          "type": "address"
        }
      ],
      "stateMutability": "nonpayable",
      "type": "constructor"
    },
    {
      "anonymous": false,
      "inputs": [
        {
          "indexed": false,
          "internalType": "uint256",
          "name": "ad",
          "type": "uint256"
        },
        {
          "indexed": false,
          "internalType": "string",
          "name": "status",
          "type": "string"
        },
        {
          "indexed": false,
          "internalType": "uint256",
          "name": "s",
          "type": "uint256"
        }
      ],
      "name": "CashOutStatusChange",
      "type": "event"
    },
    {
      "anonymous": false,
      "inputs": [
        {
          "indexed": false,
          "internalType": "address",
          "name": "b",
          "type": "address"
        },
        {
          "indexed": false,
          "internalType": "uint256",
          "name": "a",
          "type": "uint256"
        },
        {
          "indexed": false,
          "internalType": "uint256",
          "name": "s",
          "type": "uint256"
        },
        {
          "indexed": false,
          "internalType": "uint256",
          "name": "cid",
          "type": "uint256"
        },
        {
          "indexed": false,
          "internalType": "uint8",
          "name": "ptype",
          "type": "uint8"
        }
      ],
      "name": "NewCashOut",
      "type": "event"
    },
    {
      "anonymous": false,
      "inputs": [
        {
          "indexed": true,
          "internalType": "address",
          "name": "previousOwner",
          "type": "address"
        },
        {
          "indexed": true,
          "internalType": "address",
          "name": "newOwner",
          "type": "address"
        }
      ],
      "name": "OwnershipTransferred",
      "type": "event"
    },
    {
      "inputs": [],
      "name": "owner",
      "outputs": [
        {
          "internalType": "address",
          "name": "",
          "type": "address"
        }
      ],
      "stateMutability": "view",
      "type": "function"
    },
    {
      "inputs": [],
      "name": "renounceOwnership",
      "outputs": [],
      "stateMutability": "nonpayable",
      "type": "function"
    },
    {
      "inputs": [
        {
          "internalType": "address",
          "name": "newOwner",
          "type": "address"
        }
      ],
      "name": "transferOwnership",
      "outputs": [],
      "stateMutability": "nonpayable",
      "type": "function"
    },
    {
      "inputs": [
        {
          "internalType": "uint256",
          "name": "_salesID",
          "type": "uint256"
        },
        {
          "internalType": "uint256",
          "name": "_amount",
          "type": "uint256"
        },
        {
          "internalType": "address",
          "name": "_beneficiary",
          "type": "address"
        },
        {
          "internalType": "uint8",
          "name": "_paymenttype",
          "type": "uint8"
        }
      ],
      "name": "addpayment",
      "outputs": [
        {
          "internalType": "uint256",
          "name": "",
          "type": "uint256"
        }
      ],
      "stateMutability": "nonpayable",
      "type": "function"
    },
    {
      "inputs": [
        {
          "internalType": "uint256",
          "name": "_paymentid",
          "type": "uint256"
        },
        {
          "internalType": "string",
          "name": "_bankrectx",
          "type": "string"
        },
        {
          "internalType": "uint256",
          "name": "_settledate",
          "type": "uint256"
        }
      ],
      "name": "bankrec",
      "outputs": [
        {
          "internalType": "uint256",
          "name": "",
          "type": "uint256"
        }
      ],
      "stateMutability": "nonpayable",
      "type": "function"
    }
  ],
  "bytecode": "0x608060405234801561001057600080fd5b506040516114523803806114528339818101604052606081101561003357600080fd5b8101908080519060200190929190805190602001909291908051906020019092919050505060006100686101e560201b60201c565b9050806000806101000a81548173ffffffffffffffffffffffffffffffffffffffff021916908373ffffffffffffffffffffffffffffffffffffffff1602179055508073ffffffffffffffffffffffffffffffffffffffff16600073ffffffffffffffffffffffffffffffffffffffff167f8be0079c531659141344cd1fd0a4f28419497f9722a3daafe3b4186f6b6457e060405160405180910390a35082600160006101000a81548173ffffffffffffffffffffffffffffffffffffffff021916908373ffffffffffffffffffffffffffffffffffffffff16021790555081600260006101000a81548173ffffffffffffffffffffffffffffffffffffffff021916908373ffffffffffffffffffffffffffffffffffffffff16021790555080600360006101000a81548173ffffffffffffffffffffffffffffffffffffffff021916908373ffffffffffffffffffffffffffffffffffffffff1602179055506101dd60046101ed60201b61109b1760201c565b505050610203565b600033905090565b6001816000016000828254019250508190555050565b611240806102126000396000f3fe608060405234801561001057600080fd5b50600436106100575760003560e01c8063495e927d1461005c578063715018a61461013f5780638da5cb5b14610149578063e073ee9c14610193578063f2fde38b1461020c575b600080fd5b6101296004803603606081101561007257600080fd5b81019080803590602001909291908035906020019064010000000081111561009957600080fd5b8201836020820111156100ab57600080fd5b803590602001918460018302840111640100000000831117156100cd57600080fd5b91908080601f016020809104026020016040519081016040528093929190818152602001838380828437600081840152601f19601f82011690508083019250505050505050919291929080359060200190929190505050610250565b6040518082815260200191505060405180910390f35b6101476108d4565b005b610151610a5c565b604051808273ffffffffffffffffffffffffffffffffffffffff1673ffffffffffffffffffffffffffffffffffffffff16815260200191505060405180910390f35b6101f6600480360360808110156101a957600080fd5b810190808035906020019092919080359060200190929190803573ffffffffffffffffffffffffffffffffffffffff169060200190929190803560ff169060200190929190505050610a85565b6040518082815260200191505060405180910390f35b61024e6004803603602081101561022257600080fd5b81019080803573ffffffffffffffffffffffffffffffffffffffff169060200190929190505050610e86565b005b6000600260009054906101000a900473ffffffffffffffffffffffffffffffffffffffff1673ffffffffffffffffffffffffffffffffffffffff16610293611093565b73ffffffffffffffffffffffffffffffffffffffff1614806103095750600360009054906101000a900473ffffffffffffffffffffffffffffffffffffffff1673ffffffffffffffffffffffffffffffffffffffff166102f1611093565b73ffffffffffffffffffffffffffffffffffffffff16145b61037b576040517f08c379a00000000000000000000000000000000000000000000000000000000081526004018080602001828103825260028152602001807f433400000000000000000000000000000000000000000000000000000000000081525060200191505060405180910390fd5b6005600085815260200190815260200160002060010154600160009054906101000a900473ffffffffffffffffffffffffffffffffffffffff1673ffffffffffffffffffffffffffffffffffffffff166370a08231600260009054906101000a900473ffffffffffffffffffffffffffffffffffffffff166040518263ffffffff1660e01b8152600401808273ffffffffffffffffffffffffffffffffffffffff1673ffffffffffffffffffffffffffffffffffffffff16815260200191505060206040518083038186803b15801561045357600080fd5b505afa158015610467573d6000803e3d6000fd5b505050506040513d602081101561047d57600080fd5b81019080805190602001909291905050501015610502576040517f08c379a00000000000000000000000000000000000000000000000000000000081526004018080602001828103825260028152602001807f433500000000000000000000000000000000000000000000000000000000000081525060200191505060405180910390fd5b8260056000868152602001908152602001600020600401908051906020019061052c9291906110bf565b50816005600086815260200190815260200160002060050181905550606060056000868152602001908152602001600020600201548360405160240180838152602001828152602001925050506040516020818303038152906040527f64c56ed1000000000000000000000000000000000000000000000000000000007bffffffffffffffffffffffffffffffffffffffffffffffffffffffff19166020820180517bffffffffffffffffffffffffffffffffffffffffffffffffffffffff83818316178352505050509050600260009054906101000a900473ffffffffffffffffffffffffffffffffffffffff1673ffffffffffffffffffffffffffffffffffffffff16816040518082805190602001908083835b602083106106655780518252602082019150602081019050602083039250610642565b6001836020036101000a0380198251168184511680821785525050505050509050019150506000604051808303816000865af19150503d80600081146106c7576040519150601f19603f3d011682016040523d82523d6000602084013e6106cc565b606091505b505050600160009054906101000a900473ffffffffffffffffffffffffffffffffffffffff1673ffffffffffffffffffffffffffffffffffffffff166323b872dd600260009054906101000a900473ffffffffffffffffffffffffffffffffffffffff1630600560008a8152602001908152602001600020600101546040518463ffffffff1660e01b8152600401808473ffffffffffffffffffffffffffffffffffffffff1673ffffffffffffffffffffffffffffffffffffffff1681526020018373ffffffffffffffffffffffffffffffffffffffff1673ffffffffffffffffffffffffffffffffffffffff1681526020018281526020019350505050602060405180830381600087803b1580156107e457600080fd5b505af11580156107f8573d6000803e3d6000fd5b505050506040513d602081101561080e57600080fd5b8101908080519060200190929190505050507fde207418a30a978bb60418205752faee39d30a42b5b15622831828b74e4af9d98585856040518084815260200180602001838152602001828103825284818151815260200191508051906020019080838360005b83811015610890578082015181840152602081019050610875565b50505050905090810190601f1680156108bd5780820380516001836020036101000a031916815260200191505b5094505050505060405180910390a1509392505050565b6108dc611093565b73ffffffffffffffffffffffffffffffffffffffff166000809054906101000a900473ffffffffffffffffffffffffffffffffffffffff1673ffffffffffffffffffffffffffffffffffffffff161461099d576040517f08c379a00000000000000000000000000000000000000000000000000000000081526004018080602001828103825260208152602001807f4f776e61626c653a2063616c6c6572206973206e6f7420746865206f776e657281525060200191505060405180910390fd5b600073ffffffffffffffffffffffffffffffffffffffff166000809054906101000a900473ffffffffffffffffffffffffffffffffffffffff1673ffffffffffffffffffffffffffffffffffffffff167f8be0079c531659141344cd1fd0a4f28419497f9722a3daafe3b4186f6b6457e060405160405180910390a360008060006101000a81548173ffffffffffffffffffffffffffffffffffffffff021916908373ffffffffffffffffffffffffffffffffffffffff160217905550565b60008060009054906101000a900473ffffffffffffffffffffffffffffffffffffffff16905090565b6000600260009054906101000a900473ffffffffffffffffffffffffffffffffffffffff1673ffffffffffffffffffffffffffffffffffffffff16610ac8611093565b73ffffffffffffffffffffffffffffffffffffffff161480610b3e5750600360009054906101000a900473ffffffffffffffffffffffffffffffffffffffff1673ffffffffffffffffffffffffffffffffffffffff16610b26611093565b73ffffffffffffffffffffffffffffffffffffffff16145b610bb0576040517f08c379a00000000000000000000000000000000000000000000000000000000081526004018080602001828103825260028152602001807f433100000000000000000000000000000000000000000000000000000000000081525060200191505060405180910390fd5b6000600660008781526020019081526020016000205411610c39576040517f08c379a00000000000000000000000000000000000000000000000000000000081526004018080602001828103825260028152602001807f433200000000000000000000000000000000000000000000000000000000000081525060200191505060405180910390fd5b60008411610caf576040517f08c379a00000000000000000000000000000000000000000000000000000000081526004018080602001828103825260028152602001807f433300000000000000000000000000000000000000000000000000000000000081525060200191505060405180910390fd5b610cb9600461109b565b60006001610cc760046110b1565b0390508060066000888152602001908152602001600020819055506040518060c001604052808573ffffffffffffffffffffffffffffffffffffffff1681526020018681526020018781526020018460ff16815260200160405180602001604052806000815250815260200160008152506005600083815260200190815260200160002060008201518160000160006101000a81548173ffffffffffffffffffffffffffffffffffffffff021916908373ffffffffffffffffffffffffffffffffffffffff160217905550602082015181600101556040820151816002015560608201518160030160006101000a81548160ff021916908360ff1602179055506080820151816004019080519060200190610de392919061113f565b5060a082015181600501559050507fbc76c723250ae9bb8a92882c29cb7772ac1998aca1ae832ae7ffcf9579cb00108486888487604051808673ffffffffffffffffffffffffffffffffffffffff1673ffffffffffffffffffffffffffffffffffffffff1681526020018581526020018481526020018381526020018260ff1660ff1681526020019550505050505060405180910390a180915050949350505050565b610e8e611093565b73ffffffffffffffffffffffffffffffffffffffff166000809054906101000a900473ffffffffffffffffffffffffffffffffffffffff1673ffffffffffffffffffffffffffffffffffffffff1614610f4f576040517f08c379a00000000000000000000000000000000000000000000000000000000081526004018080602001828103825260208152602001807f4f776e61626c653a2063616c6c6572206973206e6f7420746865206f776e657281525060200191505060405180910390fd5b600073ffffffffffffffffffffffffffffffffffffffff168173ffffffffffffffffffffffffffffffffffffffff161415610fd5576040517f08c379a00000000000000000000000000000000000000000000000000000000081526004018080602001828103825260268152602001806111e56026913960400191505060405180910390fd5b8073ffffffffffffffffffffffffffffffffffffffff166000809054906101000a900473ffffffffffffffffffffffffffffffffffffffff1673ffffffffffffffffffffffffffffffffffffffff167f8be0079c531659141344cd1fd0a4f28419497f9722a3daafe3b4186f6b6457e060405160405180910390a3806000806101000a81548173ffffffffffffffffffffffffffffffffffffffff021916908373ffffffffffffffffffffffffffffffffffffffff16021790555050565b600033905090565b6001816000016000828254019250508190555050565b600081600001549050919050565b828054600181600116156101000203166002900490600052602060002090601f016020900481019282601f1061110057805160ff191683800117855561112e565b8280016001018555821561112e579182015b8281111561112d578251825591602001919060010190611112565b5b50905061113b91906111bf565b5090565b828054600181600116156101000203166002900490600052602060002090601f016020900481019282601f1061118057805160ff19168380011785556111ae565b828001600101855582156111ae579182015b828111156111ad578251825591602001919060010190611192565b5b5090506111bb91906111bf565b5090565b6111e191905b808211156111dd5760008160009055506001016111c5565b5090565b9056fe4f776e61626c653a206e6577206f776e657220697320746865207a65726f2061646472657373a26469706673582212208ef9606c5ece16f1b7a08b0c4381eff997587401c9364c6d76dc884fd3dddda264736f6c63430006020033",
  "source": "pragma solidity ^0.6.0;\n\n//import \"openzeppelin-solidity/contracts/presets/ERC20PresetMinterPauser.sol\";\nimport \"openzeppelin-solidity/contracts/utils/Counters.sol\";\nimport \"openzeppelin-solidity/contracts/math/SafeMath.sol\";\nimport \"openzeppelin-solidity/contracts/access/Ownable.sol\";\nimport \"openzeppelin-solidity/contracts/token/ERC20/ERC20.sol\";\n\n\n\ncontract CashOutBook is Ownable {\n    using Counters for Counters.Counter;\n    using SafeMath for uint256;\n    event CashOutStatusChange(uint256 ad, string status,uint256 s);\n    event NewCashOut(address b,uint256 a,uint256 s,uint256 cid,uint8 ptype);\n    \n    struct Payment{\n        address beneficiary;\n        uint256 amount;\n        uint256 salesID;\n        uint8 paymenttype;\n        string bankrectx;\n        uint256 settledate;\n    }\n    \n    ERC20 bookkeep;\n    address expensebook;\n    address admin;\n    Counters.Counter private _paymentID;\n    mapping(uint256 => Payment) private payments;\n    mapping(uint256 => uint256) private payment2sales;\n    \n    \n     constructor(address _bookkeepingtoken ,address _expensebook, address _admin) public {\n        bookkeep = ERC20(_bookkeepingtoken);\n        expensebook = _expensebook;\n        admin = _admin;\n        _paymentID.increment();\n    }\n    \n    function addpayment(uint256 _salesID,uint256 _amount,address _beneficiary,uint8 _paymenttype) public \n    returns(uint256)    \n    {\n        require(_msgSender()==expensebook || _msgSender()==admin,\"C1\");\n        require(payment2sales[_salesID]>0,\"C2\");\n        require(_amount>0,\"C3\");\n        _paymentID.increment();\n        uint256 currentid = _paymentID.current()-1;\n        payment2sales[_salesID]=currentid;\n        payments[currentid] = Payment({\n           beneficiary : _beneficiary,\n           amount : _amount,\n           salesID : _salesID,\n           paymenttype : _paymenttype,\n           bankrectx : \"\",\n           settledate : 0\n           \n        });\n        emit NewCashOut(_beneficiary,_amount,_salesID,currentid,_paymenttype);\n        return currentid;\n    }\n    \n    function bankrec(uint256 _paymentid, string memory _bankrectx, uint256 _settledate) public \n    returns(uint256)\n    {\n        \n        require(_msgSender()==expensebook || _msgSender()==admin,\"C4\");\n        require(bookkeep.balanceOf(expensebook)>=payments[_paymentid].amount,\"C5\");\n        payments[_paymentid].bankrectx=_bankrectx;\n        payments[_paymentid].settledate=_settledate;\n        bytes memory payload = abi.encodeWithSignature(\"updateINV_confirm(uint256,uint256)\",payments[_paymentid].salesID,_settledate);\n        expensebook.call(payload);\n        bookkeep.transferFrom(expensebook,address(this),payments[_paymentid].amount);\n        emit CashOutStatusChange(_paymentid,_bankrectx,_settledate); \n        \n    }\n    \n  \n}\n\n\n",
  "sourcePath": "/home/dickchan/ERC721Marketplace/contracts/cashoutbook.sol",
  "compiler": {
    "name": "solc",
    "version": "0.6.2+commit.bacdbe57.Emscripten.clang"
  },
  "schemaVersion": "3.2.3",
  "updatedAt": "2020-10-28T06:06:48.670Z",
  "devdoc": {
    "methods": {
      "owner()": {
        "details": "Returns the address of the current owner."
      },
      "renounceOwnership()": {
        "details": "Leaves the contract without owner. It will not be possible to call `onlyOwner` functions anymore. Can only be called by the current owner.     * NOTE: Renouncing ownership will leave the contract without an owner, thereby removing any functionality that is only available to the owner."
      },
      "transferOwnership(address)": {
        "details": "Transfers ownership of the contract to a new account (`newOwner`). Can only be called by the current owner."
      }
    }
  },
  "userdoc": {
    "methods": {}
  }
}