{
  "contractName": "CompanyRegistry",
  "abi": [
    {
      "inputs": [
        {
          "internalType": "address",
          "name": "_access",
          "type": "address"
        },
        {
          "internalType": "address",
          "name": "_b",
          "type": "address"
        },
        {
          "internalType": "address",
          "name": "_p",
          "type": "address"
        },
        {
          "internalType": "address",
          "name": "_f",
          "type": "address"
        },
        {
          "internalType": "address",
          "name": "_a",
          "type": "address"
        },
        {
          "internalType": "address",
          "name": "_e",
          "type": "address"
        },
        {
          "internalType": "address",
          "name": "_bcf",
          "type": "address"
        },
        {
          "internalType": "address",
          "name": "_scf",
          "type": "address"
        }
      ],
      "stateMutability": "nonpayable",
      "type": "constructor"
    },
    {
      "inputs": [],
      "name": "getImpCount",
      "outputs": [
        {
          "internalType": "uint256",
          "name": "",
          "type": "uint256"
        },
        {
          "internalType": "uint256",
          "name": "",
          "type": "uint256"
        }
      ],
      "stateMutability": "view",
      "type": "function"
    },
    {
      "inputs": [
        {
          "internalType": "uint256",
          "name": "_i",
          "type": "uint256"
        }
      ],
      "name": "getOrdImp",
      "outputs": [
        {
          "internalType": "address",
          "name": "",
          "type": "address"
        }
      ],
      "stateMutability": "view",
      "type": "function"
    },
    {
      "inputs": [
        {
          "internalType": "uint256",
          "name": "_i",
          "type": "uint256"
        }
      ],
      "name": "getExpImp",
      "outputs": [
        {
          "internalType": "address",
          "name": "",
          "type": "address"
        }
      ],
      "stateMutability": "view",
      "type": "function"
    },
    {
      "inputs": [
        {
          "internalType": "address",
          "name": "_a",
          "type": "address"
        }
      ],
      "name": "setbookkeepingtoken",
      "outputs": [],
      "stateMutability": "nonpayable",
      "type": "function"
    },
    {
      "inputs": [
        {
          "internalType": "address",
          "name": "_a",
          "type": "address"
        }
      ],
      "name": "setplatform",
      "outputs": [],
      "stateMutability": "nonpayable",
      "type": "function"
    },
    {
      "inputs": [
        {
          "internalType": "address",
          "name": "_a",
          "type": "address"
        }
      ],
      "name": "setAccountReceivable",
      "outputs": [],
      "stateMutability": "nonpayable",
      "type": "function"
    },
    {
      "inputs": [
        {
          "internalType": "address",
          "name": "_a",
          "type": "address"
        }
      ],
      "name": "setfees",
      "outputs": [],
      "stateMutability": "nonpayable",
      "type": "function"
    },
    {
      "inputs": [
        {
          "internalType": "address",
          "name": "_a",
          "type": "address"
        }
      ],
      "name": "setOrderbookproxy",
      "outputs": [],
      "stateMutability": "nonpayable",
      "type": "function"
    },
    {
      "inputs": [
        {
          "internalType": "address",
          "name": "_a",
          "type": "address"
        }
      ],
      "name": "setExpensebookProxy",
      "outputs": [],
      "stateMutability": "nonpayable",
      "type": "function"
    },
    {
      "inputs": [
        {
          "internalType": "address",
          "name": "_a",
          "type": "address"
        }
      ],
      "name": "setAccess",
      "outputs": [],
      "stateMutability": "nonpayable",
      "type": "function"
    },
    {
      "inputs": [
        {
          "internalType": "address",
          "name": "_s",
          "type": "address"
        },
        {
          "internalType": "address",
          "name": "_b",
          "type": "address"
        }
      ],
      "name": "setContractFactory",
      "outputs": [],
      "stateMutability": "nonpayable",
      "type": "function"
    },
    {
      "inputs": [
        {
          "internalType": "address",
          "name": "_a",
          "type": "address"
        }
      ],
      "name": "setERC721Lookup",
      "outputs": [],
      "stateMutability": "nonpayable",
      "type": "function"
    },
    {
      "inputs": [
        {
          "internalType": "address",
          "name": "_a",
          "type": "address"
        }
      ],
      "name": "setOrderbookImp",
      "outputs": [],
      "stateMutability": "nonpayable",
      "type": "function"
    },
    {
      "inputs": [
        {
          "internalType": "address",
          "name": "_a",
          "type": "address"
        }
      ],
      "name": "setExpensebookImp",
      "outputs": [],
      "stateMutability": "nonpayable",
      "type": "function"
    },
    {
      "inputs": [],
      "name": "updateAddress2OrderProxy",
      "outputs": [],
      "stateMutability": "nonpayable",
      "type": "function"
    },
    {
      "inputs": [],
      "name": "updateAddress2ExpenseProxy",
      "outputs": [],
      "stateMutability": "nonpayable",
      "type": "function"
    },
    {
      "inputs": [],
      "name": "updateAddress2BothProxy",
      "outputs": [],
      "stateMutability": "nonpayable",
      "type": "function"
    }
  ],
  "bytecode": "0x60806040523480156200001157600080fd5b5060405162003cd438038062003cd483398181016040526101008110156200003857600080fd5b810190808051906020019092919080519060200190929190805190602001909291908051906020019092919080519060200190929190805190602001909291908051906020019092919080519060200190929190505050876000806101000a81548173ffffffffffffffffffffffffffffffffffffffff021916908373ffffffffffffffffffffffffffffffffffffffff160217905550620000e0336200033860201b60201c565b62000153576040517f08c379a00000000000000000000000000000000000000000000000000000000081526004018080602001828103825260048152602001807f435230310000000000000000000000000000000000000000000000000000000081525060200191505060405180910390fd5b86600160006101000a81548173ffffffffffffffffffffffffffffffffffffffff021916908373ffffffffffffffffffffffffffffffffffffffff16021790555085600260006101000a81548173ffffffffffffffffffffffffffffffffffffffff021916908373ffffffffffffffffffffffffffffffffffffffff16021790555084600360006101000a81548173ffffffffffffffffffffffffffffffffffffffff021916908373ffffffffffffffffffffffffffffffffffffffff16021790555083600460006101000a81548173ffffffffffffffffffffffffffffffffffffffff021916908373ffffffffffffffffffffffffffffffffffffffff16021790555082600860006101000a81548173ffffffffffffffffffffffffffffffffffffffff021916908373ffffffffffffffffffffffffffffffffffffffff16021790555081600a60006101000a81548173ffffffffffffffffffffffffffffffffffffffff021916908373ffffffffffffffffffffffffffffffffffffffff16021790555080600960006101000a81548173ffffffffffffffffffffffffffffffffffffffff021916908373ffffffffffffffffffffffffffffffffffffffff1602179055506000600b819055506000600c819055505050505050505050620004c9565b60008060009054906101000a900473ffffffffffffffffffffffffffffffffffffffff1673ffffffffffffffffffffffffffffffffffffffff166391d148546000809054906101000a900473ffffffffffffffffffffffffffffffffffffffff1673ffffffffffffffffffffffffffffffffffffffff166375b238fc6040518163ffffffff1660e01b815260040160206040518083038186803b158015620003df57600080fd5b505afa158015620003f4573d6000803e3d6000fd5b505050506040513d60208110156200040b57600080fd5b8101908080519060200190929190505050846040518363ffffffff1660e01b8152600401808381526020018273ffffffffffffffffffffffffffffffffffffffff1673ffffffffffffffffffffffffffffffffffffffff1681526020019250505060206040518083038186803b1580156200048557600080fd5b505afa1580156200049a573d6000803e3d6000fd5b505050506040513d6020811015620004b157600080fd5b81019080805190602001909291905050509050919050565b6137fb80620004d96000396000f3fe608060405234801561001057600080fd5b506004361061010b5760003560e01c80637b40f032116100a257806395f04b341161007157806395f04b3414610421578063b41b96ac14610465578063d1bcfe79146104a9578063ec255ccb146104ed578063fec14625146105315761010b565b80637b40f0321461034b5780637d713ac214610355578063917473f91461039957806395c804cf146103dd5761010b565b80635198a7a8116100de5780635198a7a81461024b578063554d0231146102b957806357af9314146102c35780636a8d708a146103075761010b565b806312b0842b146101105780632728a7fe146101545780633f75fdaa1461017957806350bf0c44146101dd575b600080fd5b6101526004803603602081101561012657600080fd5b81019080803573ffffffffffffffffffffffffffffffffffffffff16906020019092919050505061053b565b005b61015c6105fa565b604051808381526020018281526020019250505060405180910390f35b6101db6004803603604081101561018f57600080fd5b81019080803573ffffffffffffffffffffffffffffffffffffffff169060200190929190803573ffffffffffffffffffffffffffffffffffffffff169060200190929190505050610686565b005b610209600480360360208110156101f357600080fd5b8101908080359060200190929190505050610787565b604051808273ffffffffffffffffffffffffffffffffffffffff1673ffffffffffffffffffffffffffffffffffffffff16815260200191505060405180910390f35b6102776004803603602081101561026157600080fd5b810190808035906020019092919050505061083f565b604051808273ffffffffffffffffffffffffffffffffffffffff1673ffffffffffffffffffffffffffffffffffffffff16815260200191505060405180910390f35b6102c161087c565b005b610305600480360360208110156102d957600080fd5b81019080803573ffffffffffffffffffffffffffffffffffffffff169060200190929190505050611919565b005b6103496004803603602081101561031d57600080fd5b81019080803573ffffffffffffffffffffffffffffffffffffffff1690602001909291905050506119fc565b005b610353611adf565b005b6103976004803603602081101561036b57600080fd5b81019080803573ffffffffffffffffffffffffffffffffffffffff169060200190929190505050612380565b005b6103db600480360360208110156103af57600080fd5b81019080803573ffffffffffffffffffffffffffffffffffffffff16906020019092919050505061243e565b005b61041f600480360360208110156103f357600080fd5b81019080803573ffffffffffffffffffffffffffffffffffffffff1690602001909291905050506124fd565b005b6104636004803603602081101561043757600080fd5b81019080803573ffffffffffffffffffffffffffffffffffffffff1690602001909291905050506125bc565b005b6104a76004803603602081101561047b57600080fd5b81019080803573ffffffffffffffffffffffffffffffffffffffff16906020019092919050505061267b565b005b6104eb600480360360208110156104bf57600080fd5b81019080803573ffffffffffffffffffffffffffffffffffffffff16906020019092919050505061273a565b005b61052f6004803603602081101561050357600080fd5b81019080803573ffffffffffffffffffffffffffffffffffffffff1690602001909291905050506127f9565b005b6105396128b8565b005b6105443361363a565b6105b6576040517f08c379a00000000000000000000000000000000000000000000000000000000081526004018080602001828103825260048152602001807f435230390000000000000000000000000000000000000000000000000000000081525060200191505060405180910390fd5b80600860006101000a81548173ffffffffffffffffffffffffffffffffffffffff021916908373ffffffffffffffffffffffffffffffffffffffff16021790555050565b6000806106063361363a565b610678576040517f08c379a00000000000000000000000000000000000000000000000000000000081526004018080602001828103825260048152602001807f435233360000000000000000000000000000000000000000000000000000000081525060200191505060405180910390fd5b600b54600c54915091509091565b61068f3361363a565b610701576040517f08c379a00000000000000000000000000000000000000000000000000000000081526004018080602001828103825260048152602001807f435232390000000000000000000000000000000000000000000000000000000081525060200191505060405180910390fd5b81600960006101000a81548173ffffffffffffffffffffffffffffffffffffffff021916908373ffffffffffffffffffffffffffffffffffffffff16021790555080600a60006101000a81548173ffffffffffffffffffffffffffffffffffffffff021916908373ffffffffffffffffffffffffffffffffffffffff1602179055505050565b60006107923361363a565b610804576040517f08c379a00000000000000000000000000000000000000000000000000000000081526004018080602001828103825260048152602001807f435233370000000000000000000000000000000000000000000000000000000081525060200191505060405180910390fd5b600d600083815260200190815260200160002060009054906101000a900473ffffffffffffffffffffffffffffffffffffffff169050919050565b6000600e600083815260200190815260200160002060009054906101000a900473ffffffffffffffffffffffffffffffffffffffff169050919050565b6108853361363a565b6108f7576040517f08c379a00000000000000000000000000000000000000000000000000000000081526004018080602001828103825260048152602001807f435231300000000000000000000000000000000000000000000000000000000081525060200191505060405180910390fd5b600073ffffffffffffffffffffffffffffffffffffffff16600560009054906101000a900473ffffffffffffffffffffffffffffffffffffffff1673ffffffffffffffffffffffffffffffffffffffff16141580156109a55750600073ffffffffffffffffffffffffffffffffffffffff16600660009054906101000a900473ffffffffffffffffffffffffffffffffffffffff1673ffffffffffffffffffffffffffffffffffffffff1614155b610a17576040517f08c379a00000000000000000000000000000000000000000000000000000000081526004018080602001828103825260048152602001807f435231310000000000000000000000000000000000000000000000000000000081525060200191505060405180910390fd5b600073ffffffffffffffffffffffffffffffffffffffff16600260009054906101000a900473ffffffffffffffffffffffffffffffffffffffff1673ffffffffffffffffffffffffffffffffffffffff1614158015610ac55750600073ffffffffffffffffffffffffffffffffffffffff16600460009054906101000a900473ffffffffffffffffffffffffffffffffffffffff1673ffffffffffffffffffffffffffffffffffffffff1614155b8015610b205750600073ffffffffffffffffffffffffffffffffffffffff16600360009054906101000a900473ffffffffffffffffffffffffffffffffffffffff1673ffffffffffffffffffffffffffffffffffffffff1614155b8015610b7b5750600073ffffffffffffffffffffffffffffffffffffffff16600960009054906101000a900473ffffffffffffffffffffffffffffffffffffffff1673ffffffffffffffffffffffffffffffffffffffff1614155b8015610b8957506000600b54115b610bfb576040517f08c379a00000000000000000000000000000000000000000000000000000000081526004018080602001828103825260048152602001807f435231320000000000000000000000000000000000000000000000000000000081525060200191505060405180910390fd5b6060600260009054906101000a900473ffffffffffffffffffffffffffffffffffffffff16604051602401808273ffffffffffffffffffffffffffffffffffffffff1673ffffffffffffffffffffffffffffffffffffffff1681526020019150506040516020818303038152906040527fd1bcfe79000000000000000000000000000000000000000000000000000000007bffffffffffffffffffffffffffffffffffffffffffffffffffffffff19166020820180517bffffffffffffffffffffffffffffffffffffffffffffffffffffffff838183161783525050505090506000600560009054906101000a900473ffffffffffffffffffffffffffffffffffffffff1673ffffffffffffffffffffffffffffffffffffffff16826040518082805190602001908083835b60208310610d4a5780518252602082019150602081019050602083039250610d27565b6001836020036101000a0380198251168184511680821785525050505050509050019150506000604051808303816000865af19150503d8060008114610dac576040519150601f19603f3d011682016040523d82523d6000602084013e610db1565b606091505b5050905080610e28576040517f08c379a00000000000000000000000000000000000000000000000000000000081526004018080602001828103825260048152602001807f435231330000000000000000000000000000000000000000000000000000000081525060200191505060405180910390fd5b600460009054906101000a900473ffffffffffffffffffffffffffffffffffffffff16604051602401808273ffffffffffffffffffffffffffffffffffffffff1673ffffffffffffffffffffffffffffffffffffffff1681526020019150506040516020818303038152906040527f917473f9000000000000000000000000000000000000000000000000000000007bffffffffffffffffffffffffffffffffffffffffffffffffffffffff19166020820180517bffffffffffffffffffffffffffffffffffffffffffffffffffffffff83818316178352505050509150600560009054906101000a900473ffffffffffffffffffffffffffffffffffffffff1673ffffffffffffffffffffffffffffffffffffffff16826040518082805190602001908083835b60208310610f735780518252602082019150602081019050602083039250610f50565b6001836020036101000a0380198251168184511680821785525050505050509050019150506000604051808303816000865af19150503d8060008114610fd5576040519150601f19603f3d011682016040523d82523d6000602084013e610fda565b606091505b50508091505080611053576040517f08c379a00000000000000000000000000000000000000000000000000000000081526004018080602001828103825260048152602001807f435231340000000000000000000000000000000000000000000000000000000081525060200191505060405180910390fd5b600360009054906101000a900473ffffffffffffffffffffffffffffffffffffffff16604051602401808273ffffffffffffffffffffffffffffffffffffffff1673ffffffffffffffffffffffffffffffffffffffff1681526020019150506040516020818303038152906040527f79822ede000000000000000000000000000000000000000000000000000000007bffffffffffffffffffffffffffffffffffffffffffffffffffffffff19166020820180517bffffffffffffffffffffffffffffffffffffffffffffffffffffffff83818316178352505050509150600560009054906101000a900473ffffffffffffffffffffffffffffffffffffffff1673ffffffffffffffffffffffffffffffffffffffff16826040518082805190602001908083835b6020831061119e578051825260208201915060208101905060208303925061117b565b6001836020036101000a0380198251168184511680821785525050505050509050019150506000604051808303816000865af19150503d8060008114611200576040519150601f19603f3d011682016040523d82523d6000602084013e611205565b606091505b5050809150508061127e576040517f08c379a00000000000000000000000000000000000000000000000000000000081526004018080602001828103825260048152602001807f435231350000000000000000000000000000000000000000000000000000000081525060200191505060405180910390fd5b600660009054906101000a900473ffffffffffffffffffffffffffffffffffffffff16604051602401808273ffffffffffffffffffffffffffffffffffffffff1673ffffffffffffffffffffffffffffffffffffffff1681526020019150506040516020818303038152906040527ff61bc33b000000000000000000000000000000000000000000000000000000007bffffffffffffffffffffffffffffffffffffffffffffffffffffffff19166020820180517bffffffffffffffffffffffffffffffffffffffffffffffffffffffff83818316178352505050509150600560009054906101000a900473ffffffffffffffffffffffffffffffffffffffff1673ffffffffffffffffffffffffffffffffffffffff16826040518082805190602001908083835b602083106113c957805182526020820191506020810190506020830392506113a6565b6001836020036101000a0380198251168184511680821785525050505050509050019150506000604051808303816000865af19150503d806000811461142b576040519150601f19603f3d011682016040523d82523d6000602084013e611430565b606091505b505080915050806114a9576040517f08c379a00000000000000000000000000000000000000000000000000000000081526004018080602001828103825260048152602001807f435231360000000000000000000000000000000000000000000000000000000081525060200191505060405180910390fd5b600960009054906101000a900473ffffffffffffffffffffffffffffffffffffffff16604051602401808273ffffffffffffffffffffffffffffffffffffffff1673ffffffffffffffffffffffffffffffffffffffff1681526020019150506040516020818303038152906040527fbd94f431000000000000000000000000000000000000000000000000000000007bffffffffffffffffffffffffffffffffffffffffffffffffffffffff19166020820180517bffffffffffffffffffffffffffffffffffffffffffffffffffffffff83818316178352505050509150600560009054906101000a900473ffffffffffffffffffffffffffffffffffffffff1673ffffffffffffffffffffffffffffffffffffffff16826040518082805190602001908083835b602083106115f457805182526020820191506020810190506020830392506115d1565b6001836020036101000a0380198251168184511680821785525050505050509050019150506000604051808303816000865af19150503d8060008114611656576040519150601f19603f3d011682016040523d82523d6000602084013e61165b565b606091505b505080915050806116d4576040517f08c379a00000000000000000000000000000000000000000000000000000000081526004018080602001828103825260048152602001807f435233300000000000000000000000000000000000000000000000000000000081525060200191505060405180910390fd5b600d60006001600b5403815260200190815260200160002060009054906101000a900473ffffffffffffffffffffffffffffffffffffffff16604051602401808273ffffffffffffffffffffffffffffffffffffffff1673ffffffffffffffffffffffffffffffffffffffff1681526020019150506040516020818303038152906040527f3659cfe6000000000000000000000000000000000000000000000000000000007bffffffffffffffffffffffffffffffffffffffffffffffffffffffff19166020820180517bffffffffffffffffffffffffffffffffffffffffffffffffffffffff83818316178352505050509150600560009054906101000a900473ffffffffffffffffffffffffffffffffffffffff1673ffffffffffffffffffffffffffffffffffffffff16826040518082805190602001908083835b602083106118355780518252602082019150602081019050602083039250611812565b6001836020036101000a0380198251168184511680821785525050505050509050019150506000604051808303816000865af19150503d8060008114611897576040519150601f19603f3d011682016040523d82523d6000602084013e61189c565b606091505b50508091505080611915576040517f08c379a00000000000000000000000000000000000000000000000000000000081526004018080602001828103825260048152602001807f435233340000000000000000000000000000000000000000000000000000000081525060200191505060405180910390fd5b5050565b6119223361363a565b611994576040517f08c379a00000000000000000000000000000000000000000000000000000000081526004018080602001828103825260048152602001807f435233320000000000000000000000000000000000000000000000000000000081525060200191505060405180910390fd5b80600d6000600b54815260200190815260200160002060006101000a81548173ffffffffffffffffffffffffffffffffffffffff021916908373ffffffffffffffffffffffffffffffffffffffff1602179055506001600b6000828254019250508190555050565b611a053361363a565b611a77576040517f08c379a00000000000000000000000000000000000000000000000000000000081526004018080602001828103825260048152602001807f435233330000000000000000000000000000000000000000000000000000000081525060200191505060405180910390fd5b80600e6000600c54815260200190815260200160002060006101000a81548173ffffffffffffffffffffffffffffffffffffffff021916908373ffffffffffffffffffffffffffffffffffffffff1602179055506001600c6000828254019250508190555050565b611ae83361363a565b611b5a576040517f08c379a00000000000000000000000000000000000000000000000000000000081526004018080602001828103825260048152602001807f435231370000000000000000000000000000000000000000000000000000000081525060200191505060405180910390fd5b600073ffffffffffffffffffffffffffffffffffffffff16600560009054906101000a900473ffffffffffffffffffffffffffffffffffffffff1673ffffffffffffffffffffffffffffffffffffffff1614158015611c085750600073ffffffffffffffffffffffffffffffffffffffff16600660009054906101000a900473ffffffffffffffffffffffffffffffffffffffff1673ffffffffffffffffffffffffffffffffffffffff1614155b8015611c635750600073ffffffffffffffffffffffffffffffffffffffff16600a60009054906101000a900473ffffffffffffffffffffffffffffffffffffffff1673ffffffffffffffffffffffffffffffffffffffff1614155b8015611c7157506000600c54115b611ce3576040517f08c379a00000000000000000000000000000000000000000000000000000000081526004018080602001828103825260048152602001807f435231380000000000000000000000000000000000000000000000000000000081525060200191505060405180910390fd5b6060600560009054906101000a900473ffffffffffffffffffffffffffffffffffffffff16604051602401808273ffffffffffffffffffffffffffffffffffffffff1673ffffffffffffffffffffffffffffffffffffffff1681526020019150506040516020818303038152906040527f11abcb09000000000000000000000000000000000000000000000000000000007bffffffffffffffffffffffffffffffffffffffffffffffffffffffff19166020820180517bffffffffffffffffffffffffffffffffffffffffffffffffffffffff838183161783525050505090506000600660009054906101000a900473ffffffffffffffffffffffffffffffffffffffff1673ffffffffffffffffffffffffffffffffffffffff16826040518082805190602001908083835b60208310611e325780518252602082019150602081019050602083039250611e0f565b6001836020036101000a0380198251168184511680821785525050505050509050019150506000604051808303816000865af19150503d8060008114611e94576040519150601f19603f3d011682016040523d82523d6000602084013e611e99565b606091505b5050905080611f10576040517f08c379a00000000000000000000000000000000000000000000000000000000081526004018080602001828103825260048152602001807f435231390000000000000000000000000000000000000000000000000000000081525060200191505060405180910390fd5b600a60009054906101000a900473ffffffffffffffffffffffffffffffffffffffff16604051602401808273ffffffffffffffffffffffffffffffffffffffff1673ffffffffffffffffffffffffffffffffffffffff1681526020019150506040516020818303038152906040527fbd94f431000000000000000000000000000000000000000000000000000000007bffffffffffffffffffffffffffffffffffffffffffffffffffffffff19166020820180517bffffffffffffffffffffffffffffffffffffffffffffffffffffffff83818316178352505050509150600660009054906101000a900473ffffffffffffffffffffffffffffffffffffffff1673ffffffffffffffffffffffffffffffffffffffff16826040518082805190602001908083835b6020831061205b5780518252602082019150602081019050602083039250612038565b6001836020036101000a0380198251168184511680821785525050505050509050019150506000604051808303816000865af19150503d80600081146120bd576040519150601f19603f3d011682016040523d82523d6000602084013e6120c2565b606091505b5050809150508061213b576040517f08c379a00000000000000000000000000000000000000000000000000000000081526004018080602001828103825260048152602001807f435233310000000000000000000000000000000000000000000000000000000081525060200191505060405180910390fd5b600e60006001600c5403815260200190815260200160002060009054906101000a900473ffffffffffffffffffffffffffffffffffffffff16604051602401808273ffffffffffffffffffffffffffffffffffffffff1673ffffffffffffffffffffffffffffffffffffffff1681526020019150506040516020818303038152906040527f3659cfe6000000000000000000000000000000000000000000000000000000007bffffffffffffffffffffffffffffffffffffffffffffffffffffffff19166020820180517bffffffffffffffffffffffffffffffffffffffffffffffffffffffff83818316178352505050509150600560009054906101000a900473ffffffffffffffffffffffffffffffffffffffff1673ffffffffffffffffffffffffffffffffffffffff16826040518082805190602001908083835b6020831061229c5780518252602082019150602081019050602083039250612279565b6001836020036101000a0380198251168184511680821785525050505050509050019150506000604051808303816000865af19150503d80600081146122fe576040519150601f19603f3d011682016040523d82523d6000602084013e612303565b606091505b5050809150508061237c576040517f08c379a00000000000000000000000000000000000000000000000000000000081526004018080602001828103825260048152602001807f435233350000000000000000000000000000000000000000000000000000000081525060200191505060405180910390fd5b5050565b6123893361363a565b6123fb576040517f08c379a00000000000000000000000000000000000000000000000000000000081526004018080602001828103825260048152602001807f435230380000000000000000000000000000000000000000000000000000000081525060200191505060405180910390fd5b806000806101000a81548173ffffffffffffffffffffffffffffffffffffffff021916908373ffffffffffffffffffffffffffffffffffffffff16021790555050565b6124473361363a565b6124b9576040517f08c379a00000000000000000000000000000000000000000000000000000000081526004018080602001828103825260048152602001807f435230340000000000000000000000000000000000000000000000000000000081525060200191505060405180910390fd5b80600460006101000a81548173ffffffffffffffffffffffffffffffffffffffff021916908373ffffffffffffffffffffffffffffffffffffffff16021790555050565b6125063361363a565b612578576040517f08c379a00000000000000000000000000000000000000000000000000000000081526004018080602001828103825260048152602001807f435230360000000000000000000000000000000000000000000000000000000081525060200191505060405180910390fd5b80600560006101000a81548173ffffffffffffffffffffffffffffffffffffffff021916908373ffffffffffffffffffffffffffffffffffffffff16021790555050565b6125c53361363a565b612637576040517f08c379a00000000000000000000000000000000000000000000000000000000081526004018080602001828103825260048152602001807f435230350000000000000000000000000000000000000000000000000000000081525060200191505060405180910390fd5b80600360006101000a81548173ffffffffffffffffffffffffffffffffffffffff021916908373ffffffffffffffffffffffffffffffffffffffff16021790555050565b6126843361363a565b6126f6576040517f08c379a00000000000000000000000000000000000000000000000000000000081526004018080602001828103825260048152602001807f435230370000000000000000000000000000000000000000000000000000000081525060200191505060405180910390fd5b80600660006101000a81548173ffffffffffffffffffffffffffffffffffffffff021916908373ffffffffffffffffffffffffffffffffffffffff16021790555050565b6127433361363a565b6127b5576040517f08c379a00000000000000000000000000000000000000000000000000000000081526004018080602001828103825260048152602001807f435230330000000000000000000000000000000000000000000000000000000081525060200191505060405180910390fd5b80600260006101000a81548173ffffffffffffffffffffffffffffffffffffffff021916908373ffffffffffffffffffffffffffffffffffffffff16021790555050565b6128023361363a565b612874576040517f08c379a00000000000000000000000000000000000000000000000000000000081526004018080602001828103825260048152602001807f435230320000000000000000000000000000000000000000000000000000000081525060200191505060405180910390fd5b80600160006101000a81548173ffffffffffffffffffffffffffffffffffffffff021916908373ffffffffffffffffffffffffffffffffffffffff16021790555050565b6128c13361363a565b612933576040517f08c379a00000000000000000000000000000000000000000000000000000000081526004018080602001828103825260048152602001807f435232300000000000000000000000000000000000000000000000000000000081525060200191505060405180910390fd5b600073ffffffffffffffffffffffffffffffffffffffff16600560009054906101000a900473ffffffffffffffffffffffffffffffffffffffff1673ffffffffffffffffffffffffffffffffffffffff16141580156129e15750600073ffffffffffffffffffffffffffffffffffffffff16600660009054906101000a900473ffffffffffffffffffffffffffffffffffffffff1673ffffffffffffffffffffffffffffffffffffffff1614155b612a53576040517f08c379a00000000000000000000000000000000000000000000000000000000081526004018080602001828103825260048152602001807f435232310000000000000000000000000000000000000000000000000000000081525060200191505060405180910390fd5b600073ffffffffffffffffffffffffffffffffffffffff166000809054906101000a900473ffffffffffffffffffffffffffffffffffffffff1673ffffffffffffffffffffffffffffffffffffffff1614158015612b005750600073ffffffffffffffffffffffffffffffffffffffff16600860009054906101000a900473ffffffffffffffffffffffffffffffffffffffff1673ffffffffffffffffffffffffffffffffffffffff1614155b8015612b5b5750600073ffffffffffffffffffffffffffffffffffffffff16600160009054906101000a900473ffffffffffffffffffffffffffffffffffffffff1673ffffffffffffffffffffffffffffffffffffffff1614155b612bcd576040517f08c379a00000000000000000000000000000000000000000000000000000000081526004018080602001828103825260048152602001807f435232320000000000000000000000000000000000000000000000000000000081525060200191505060405180910390fd5b60606000809054906101000a900473ffffffffffffffffffffffffffffffffffffffff16604051602401808273ffffffffffffffffffffffffffffffffffffffff1673ffffffffffffffffffffffffffffffffffffffff1681526020019150506040516020818303038152906040527faf3aedee000000000000000000000000000000000000000000000000000000007bffffffffffffffffffffffffffffffffffffffffffffffffffffffff19166020820180517bffffffffffffffffffffffffffffffffffffffffffffffffffffffff838183161783525050505090506000600560009054906101000a900473ffffffffffffffffffffffffffffffffffffffff1673ffffffffffffffffffffffffffffffffffffffff16826040518082805190602001908083835b60208310612d1b5780518252602082019150602081019050602083039250612cf8565b6001836020036101000a0380198251168184511680821785525050505050509050019150506000604051808303816000865af19150503d8060008114612d7d576040519150601f19603f3d011682016040523d82523d6000602084013e612d82565b606091505b5050905080612df9576040517f08c379a00000000000000000000000000000000000000000000000000000000081526004018080602001828103825260048152602001807f435232330000000000000000000000000000000000000000000000000000000081525060200191505060405180910390fd5b600660009054906101000a900473ffffffffffffffffffffffffffffffffffffffff1673ffffffffffffffffffffffffffffffffffffffff16826040518082805190602001908083835b60208310612e665780518252602082019150602081019050602083039250612e43565b6001836020036101000a0380198251168184511680821785525050505050509050019150506000604051808303816000865af19150503d8060008114612ec8576040519150601f19603f3d011682016040523d82523d6000602084013e612ecd565b606091505b50508091505080612f46576040517f08c379a00000000000000000000000000000000000000000000000000000000081526004018080602001828103825260048152602001807f435232340000000000000000000000000000000000000000000000000000000081525060200191505060405180910390fd5b600860009054906101000a900473ffffffffffffffffffffffffffffffffffffffff16604051602401808273ffffffffffffffffffffffffffffffffffffffff1673ffffffffffffffffffffffffffffffffffffffff1681526020019150506040516020818303038152906040527f12b0842b000000000000000000000000000000000000000000000000000000007bffffffffffffffffffffffffffffffffffffffffffffffffffffffff19166020820180517bffffffffffffffffffffffffffffffffffffffffffffffffffffffff83818316178352505050509150600560009054906101000a900473ffffffffffffffffffffffffffffffffffffffff1673ffffffffffffffffffffffffffffffffffffffff16826040518082805190602001908083835b60208310613091578051825260208201915060208101905060208303925061306e565b6001836020036101000a0380198251168184511680821785525050505050509050019150506000604051808303816000865af19150503d80600081146130f3576040519150601f19603f3d011682016040523d82523d6000602084013e6130f8565b606091505b50508091505080613171576040517f08c379a00000000000000000000000000000000000000000000000000000000081526004018080602001828103825260048152602001807f435232350000000000000000000000000000000000000000000000000000000081525060200191505060405180910390fd5b600660009054906101000a900473ffffffffffffffffffffffffffffffffffffffff1673ffffffffffffffffffffffffffffffffffffffff16826040518082805190602001908083835b602083106131de57805182526020820191506020810190506020830392506131bb565b6001836020036101000a0380198251168184511680821785525050505050509050019150506000604051808303816000865af19150503d8060008114613240576040519150601f19603f3d011682016040523d82523d6000602084013e613245565b606091505b505080915050806132be576040517f08c379a00000000000000000000000000000000000000000000000000000000081526004018080602001828103825260048152602001807f435232360000000000000000000000000000000000000000000000000000000081525060200191505060405180910390fd5b600160009054906101000a900473ffffffffffffffffffffffffffffffffffffffff16604051602401808273ffffffffffffffffffffffffffffffffffffffff1673ffffffffffffffffffffffffffffffffffffffff1681526020019150506040516020818303038152906040527f532e725b000000000000000000000000000000000000000000000000000000007bffffffffffffffffffffffffffffffffffffffffffffffffffffffff19166020820180517bffffffffffffffffffffffffffffffffffffffffffffffffffffffff83818316178352505050509150600560009054906101000a900473ffffffffffffffffffffffffffffffffffffffff1673ffffffffffffffffffffffffffffffffffffffff16826040518082805190602001908083835b6020831061340957805182526020820191506020810190506020830392506133e6565b6001836020036101000a0380198251168184511680821785525050505050509050019150506000604051808303816000865af19150503d806000811461346b576040519150601f19603f3d011682016040523d82523d6000602084013e613470565b606091505b505080915050806134e9576040517f08c379a00000000000000000000000000000000000000000000000000000000081526004018080602001828103825260048152602001807f435232370000000000000000000000000000000000000000000000000000000081525060200191505060405180910390fd5b600660009054906101000a900473ffffffffffffffffffffffffffffffffffffffff1673ffffffffffffffffffffffffffffffffffffffff16826040518082805190602001908083835b602083106135565780518252602082019150602081019050602083039250613533565b6001836020036101000a0380198251168184511680821785525050505050509050019150506000604051808303816000865af19150503d80600081146135b8576040519150601f19603f3d011682016040523d82523d6000602084013e6135bd565b606091505b50508091505080613636576040517f08c379a00000000000000000000000000000000000000000000000000000000081526004018080602001828103825260048152602001807f435232380000000000000000000000000000000000000000000000000000000081525060200191505060405180910390fd5b5050565b60008060009054906101000a900473ffffffffffffffffffffffffffffffffffffffff1673ffffffffffffffffffffffffffffffffffffffff166391d148546000809054906101000a900473ffffffffffffffffffffffffffffffffffffffff1673ffffffffffffffffffffffffffffffffffffffff166375b238fc6040518163ffffffff1660e01b815260040160206040518083038186803b1580156136e057600080fd5b505afa1580156136f4573d6000803e3d6000fd5b505050506040513d602081101561370a57600080fd5b8101908080519060200190929190505050846040518363ffffffff1660e01b8152600401808381526020018273ffffffffffffffffffffffffffffffffffffffff1673ffffffffffffffffffffffffffffffffffffffff1681526020019250505060206040518083038186803b15801561378357600080fd5b505afa158015613797573d6000803e3d6000fd5b505050506040513d60208110156137ad57600080fd5b8101908080519060200190929190505050905091905056fea2646970667358221220360a02c6a73368ff5225d6655b5a5dc90d51bc93c369c71a68a267eb0652a1db64736f6c63430006020033",
  "source": "pragma solidity ^0.6.0;\nimport \"./access.sol\";\n\n\n\ncontract CompanyRegistry is Access {\n    \n    address bookkeepingtoken;\n    address platform;\n    address fees;\n    address account_receivable;\n    address orderbookproxy;\n    address expensebookproxy;\n    address access_address;\n    address erc721DirectoryLookup;\n    address SellSideContractFactory;\n    address BuySideContractFactory;\n    \n    uint256 ocount;\n    uint256 expensecount;\n    mapping(uint256=>address) orderbookImp;\n    mapping(uint256=>address) expensebookImp;\n     \n    constructor(address _access,address _b, address _p, address _f,address _a,address _e,address _bcf, address _scf) public \n    {\n        access = PermissionControl(_access);\n        require(_isAdmin(msg.sender),\"CR01\");\n        bookkeepingtoken=_b;\n        platform = _p;\n        fees = _f;\n        account_receivable=_a;\n        erc721DirectoryLookup = _e;\n        BuySideContractFactory = _bcf;\n        SellSideContractFactory = _scf;\n        ocount=0;expensecount=0;\n    }\n    \n    function getImpCount() public view\n    returns(uint256,uint256)\n    {\n        require(_isAdmin(msg.sender),\"CR36\");\n        return (ocount,expensecount);\n    }\n    \n    function getOrdImp(uint256 _i) public view\n    returns(address)\n    {\n        require(_isAdmin(msg.sender),\"CR37\");\n        return orderbookImp[_i];\n    }\n    \n    function getExpImp(uint256 _i) public view\n    returns(address)\n    {\n        return expensebookImp[_i];\n    }\n    \n   function setbookkeepingtoken(address _a) public {\n        require(_isAdmin(msg.sender),\"CR02\");\n        bookkeepingtoken=_a;\n        \n    }\n    \n    function setplatform(address _a) public {\n        require(_isAdmin(msg.sender),\"CR03\");\n        platform=_a;\n       \n    }\n    \n     function setAccountReceivable(address _a) public {\n        require(_isAdmin(msg.sender),\"CR04\");\n        account_receivable=_a;\n       \n    }\n    \n    function setfees(address _a) public {\n        require(_isAdmin(msg.sender),\"CR05\");\n        fees=_a;\n       \n            \n    }\n    \n    function setOrderbookproxy(address _a) public {\n        require(_isAdmin(msg.sender),\"CR06\");\n        orderbookproxy=_a;\n       \n    }\n    \n    function setExpensebookProxy(address _a) public {\n        require(_isAdmin(msg.sender),\"CR07\");\n        expensebookproxy=_a;\n        \n    }\n    \n\n    \n    \n    function setAccess(address _a) public {\n        require(_isAdmin(msg.sender),\"CR08\");\n        access = PermissionControl(_a);\n       \n    }\n    \n    function setContractFactory(address _s,address _b) public {\n        require(_isAdmin(msg.sender),\"CR29\");\n        SellSideContractFactory=_s;\n        BuySideContractFactory = _b;\n        \n    }\n    \n    function setERC721Lookup(address _a) public {\n        require(_isAdmin(msg.sender),\"CR09\");\n        erc721DirectoryLookup = _a;\n      \n    }\n    \n    function setOrderbookImp(address _a)public {\n        require(_isAdmin(msg.sender),\"CR32\");\n        orderbookImp[ocount]=_a;\n        ocount+=1;\n    }\n    \n    function setExpensebookImp(address _a)public {\n        require(_isAdmin(msg.sender),\"CR33\");\n        expensebookImp[expensecount]=_a;\n        expensecount+=1;\n    }\n \n    function updateAddress2OrderProxy() public {\n        \n        require(_isAdmin(msg.sender),\"CR10\");\n        require(orderbookproxy!=address(0) && expensebookproxy!=address(0),\"CR11\");\n        require(platform!=address(0) && account_receivable!=address(0)&&fees!=address(0) && SellSideContractFactory!=address(0) && ocount>0,\"CR12\");\n        bytes memory payload = abi.encodeWithSignature(\"setplatform(address)\",platform);\n        (bool success,) = orderbookproxy.call(payload);\n        require(success,\"CR13\");\n            \n        payload = abi.encodeWithSignature(\"setAccountReceivable(address)\",account_receivable);\n        (success,) = orderbookproxy.call(payload);\n        require(success,\"CR14\");\n            \n        payload = abi.encodeWithSignature(\"setplatformfees(address)\",fees);\n        (success,) = orderbookproxy.call(payload);\n        require(success,\"CR15\");\n            \n        payload = abi.encodeWithSignature(\"setexpenseProxy(address)\",expensebookproxy);\n        (success,) = orderbookproxy.call(payload);\n        require(success,\"CR16\");  \n        \n        payload = abi.encodeWithSignature(\"setContractFactory(address)\",SellSideContractFactory);\n        (success,) = orderbookproxy.call(payload);\n        require(success,\"CR30\");\n        \n        \n        payload = abi.encodeWithSignature(\"upgradeTo(address)\",orderbookImp[ocount-1]);\n        (success,) = orderbookproxy.call(payload);\n        require(success,\"CR34\");\n    \n    }\n    \n    function updateAddress2ExpenseProxy() public {\n         \n        require(_isAdmin(msg.sender),\"CR17\");\n        require(orderbookproxy!=address(0) && expensebookproxy!=address(0) && BuySideContractFactory!=address(0) && expensecount>0,\"CR18\");\n        bytes memory payload = abi.encodeWithSignature(\"setOrdBook(address)\",orderbookproxy);\n        (bool success,) = expensebookproxy.call(payload);\n        require(success,\"CR19\");\n        \n        payload = abi.encodeWithSignature(\"setContractFactory(address)\",BuySideContractFactory);\n        (success,) = expensebookproxy.call(payload);\n        require(success,\"CR31\");\n        \n        payload = abi.encodeWithSignature(\"upgradeTo(address)\",expensebookImp[expensecount-1]);\n        (success,) = orderbookproxy.call(payload);\n        require(success,\"CR35\");\n    }\n\n    \n    function updateAddress2BothProxy() public {\n        require(_isAdmin(msg.sender),\"CR20\");\n        require(orderbookproxy!=address(0) && expensebookproxy!=address(0),\"CR21\");\n        require(address(access)!=address(0) && erc721DirectoryLookup!=address(0)&&bookkeepingtoken!=address(0),\"CR22\");\n         \n        bytes memory payload = abi.encodeWithSignature(\"setPermissionControl(address)\",access);\n        (bool success,) = orderbookproxy.call(payload);\n        require(success,\"CR23\");\n        (success,) = expensebookproxy.call(payload);\n        require(success,\"CR24\");\n        \n        payload = abi.encodeWithSignature(\"setERC721Lookup(address)\",erc721DirectoryLookup);\n        (success,) = orderbookproxy.call(payload);\n        require(success,\"CR25\");\n            \n        (success,) = expensebookproxy.call(payload);\n        require(success,\"CR26\");\n        \n        payload = abi.encodeWithSignature(\"setbookkeep(address)\",bookkeepingtoken);\n        (success,) = orderbookproxy.call(payload);\n        require(success,\"CR27\");\n        \n        (success,) = expensebookproxy.call(payload);\n        require(success,\"CR28\");\n        \n    }\n    \n}",
  "sourcePath": "/home/dickchan/ERC721Marketplace/contracts/utils/companyRegistry.sol",
  "compiler": {
    "name": "solc",
    "version": "0.6.2+commit.bacdbe57.Emscripten.clang"
  },
  "schemaVersion": "3.2.3",
  "updatedAt": "2020-11-19T07:51:27.294Z",
  "devdoc": {
    "methods": {}
  },
  "userdoc": {
    "methods": {}
  }
}