{
  "contractName": "contractFactory",
  "abi": [
    {
      "inputs": [
        {
          "internalType": "address",
          "name": "_a",
          "type": "address"
        }
      ],
      "stateMutability": "nonpayable",
      "type": "constructor"
    },
    {
      "inputs": [
        {
          "internalType": "address",
          "name": "_a",
          "type": "address"
        }
      ],
      "name": "updateAccessControl",
      "outputs": [],
      "stateMutability": "nonpayable",
      "type": "function"
    },
    {
      "inputs": [
        {
          "internalType": "uint256",
          "name": "_itemID",
          "type": "uint256"
        },
        {
          "internalType": "uint256",
          "name": "_price",
          "type": "uint256"
        },
        {
          "internalType": "uint256",
          "name": "_feesprecentage",
          "type": "uint256"
        },
        {
          "internalType": "string",
          "name": "_currency",
          "type": "string"
        },
        {
          "internalType": "uint256",
          "name": "_createdatetime",
          "type": "uint256"
        },
        {
          "internalType": "address",
          "name": "_seller",
          "type": "address"
        },
        {
          "internalType": "address",
          "name": "_access",
          "type": "address"
        },
        {
          "internalType": "address",
          "name": "_baseaddr",
          "type": "address"
        }
      ],
      "name": "createNewBuySideContract",
      "outputs": [
        {
          "internalType": "address",
          "name": "_i",
          "type": "address"
        }
      ],
      "stateMutability": "nonpayable",
      "type": "function"
    },
    {
      "inputs": [
        {
          "internalType": "uint256",
          "name": "_itemID",
          "type": "uint256"
        },
        {
          "internalType": "address",
          "name": "_base",
          "type": "address"
        },
        {
          "internalType": "uint256",
          "name": "_price",
          "type": "uint256"
        },
        {
          "internalType": "address",
          "name": "_sellsideorder",
          "type": "address"
        },
        {
          "internalType": "uint256",
          "name": "_datetime",
          "type": "uint256"
        },
        {
          "internalType": "string",
          "name": "_currency",
          "type": "string"
        },
        {
          "internalType": "address",
          "name": "_access",
          "type": "address"
        },
        {
          "internalType": "address",
          "name": "_seller",
          "type": "address"
        },
        {
          "internalType": "uint256",
          "name": "currentID",
          "type": "uint256"
        }
      ],
      "name": "createNewSellSideContract",
      "outputs": [
        {
          "internalType": "address",
          "name": "_i",
          "type": "address"
        }
      ],
      "stateMutability": "nonpayable",
      "type": "function"
    }
  ],
  "bytecode": "0x608060405234801561001057600080fd5b5060405162009cfe38038062009cfe8339818101604052602081101561003557600080fd5b8101908080519060200190929190505050806000806101000a81548173ffffffffffffffffffffffffffffffffffffffff021916908373ffffffffffffffffffffffffffffffffffffffff1602179055506100953361010d60201b60201c565b610107576040517f08c379a00000000000000000000000000000000000000000000000000000000081526004018080602001828103825260028152602001807f463100000000000000000000000000000000000000000000000000000000000081525060200191505060405180910390fd5b50610298565b60008060009054906101000a900473ffffffffffffffffffffffffffffffffffffffff1673ffffffffffffffffffffffffffffffffffffffff166391d148546000809054906101000a900473ffffffffffffffffffffffffffffffffffffffff1673ffffffffffffffffffffffffffffffffffffffff166375b238fc6040518163ffffffff1660e01b815260040160206040518083038186803b1580156101b357600080fd5b505afa1580156101c7573d6000803e3d6000fd5b505050506040513d60208110156101dd57600080fd5b8101908080519060200190929190505050846040518363ffffffff1660e01b8152600401808381526020018273ffffffffffffffffffffffffffffffffffffffff1673ffffffffffffffffffffffffffffffffffffffff1681526020019250505060206040518083038186803b15801561025657600080fd5b505afa15801561026a573d6000803e3d6000fd5b505050506040513d602081101561028057600080fd5b81019080805190602001909291905050509050919050565b619a5680620002a86000396000f3fe60806040523480156200001157600080fd5b5060043610620000465760003560e01c80637e71d95b146200004b578063d1abb69414620001f5578063f89488db146200037f575b600080fd5b620001b360048036036101208110156200006457600080fd5b8101908080359060200190929190803573ffffffffffffffffffffffffffffffffffffffff16906020019092919080359060200190929190803573ffffffffffffffffffffffffffffffffffffffff1690602001909291908035906020019092919080359060200190640100000000811115620000e057600080fd5b820183602082011115620000f357600080fd5b803590602001918460018302840111640100000000831117156200011657600080fd5b91908080601f016020809104026020016040519081016040528093929190818152602001838380828437600081840152601f19601f820116905080830192505050505050509192919290803573ffffffffffffffffffffffffffffffffffffffff169060200190929190803573ffffffffffffffffffffffffffffffffffffffff16906020019092919080359060200190929190505050620003c6565b604051808273ffffffffffffffffffffffffffffffffffffffff1673ffffffffffffffffffffffffffffffffffffffff16815260200191505060405180910390f35b6200033d60048036036101008110156200020e57600080fd5b81019080803590602001909291908035906020019092919080359060200190929190803590602001906401000000008111156200024a57600080fd5b8201836020820111156200025d57600080fd5b803590602001918460018302840111640100000000831117156200028057600080fd5b91908080601f016020809104026020016040519081016040528093929190818152602001838380828437600081840152601f19601f82011690508083019250505050505050919291929080359060200190929190803573ffffffffffffffffffffffffffffffffffffffff169060200190929190803573ffffffffffffffffffffffffffffffffffffffff169060200190929190803573ffffffffffffffffffffffffffffffffffffffff169060200190929190505050620005fd565b604051808273ffffffffffffffffffffffffffffffffffffffff1673ffffffffffffffffffffffffffffffffffffffff16815260200191505060405180910390f35b620003c4600480360360208110156200039757600080fd5b81019080803573ffffffffffffffffffffffffffffffffffffffff16906020019092919050505062000833565b005b6000620003d333620008f4565b80620003e65750620003e53362000a85565b5b62000459576040517f08c379a00000000000000000000000000000000000000000000000000000000081526004018080602001828103825260028152602001807f463300000000000000000000000000000000000000000000000000000000000081525060200191505060405180910390fd5b60008a8a8a888a8989898f604051620004729062000f38565b808a81526020018973ffffffffffffffffffffffffffffffffffffffff1673ffffffffffffffffffffffffffffffffffffffff168152602001888152602001806020018781526020018673ffffffffffffffffffffffffffffffffffffffff1673ffffffffffffffffffffffffffffffffffffffff1681526020018573ffffffffffffffffffffffffffffffffffffffff1673ffffffffffffffffffffffffffffffffffffffff1681526020018481526020018373ffffffffffffffffffffffffffffffffffffffff1673ffffffffffffffffffffffffffffffffffffffff168152602001828103825288818151815260200191508051906020019080838360005b838110156200059157808201518184015260208101905062000574565b50505050905090810190601f168015620005bf5780820380516001836020036101000a031916815260200191505b509a5050505050505050505050604051809103906000f080158015620005e9573d6000803e3d6000fd5b509050809150509998505050505050505050565b60006200060a33620008f4565b806200061d57506200061c3362000c16565b5b62000690576040517f08c379a00000000000000000000000000000000000000000000000000000000081526004018080602001828103825260028152602001807f463300000000000000000000000000000000000000000000000000000000000081525060200191505060405180910390fd5b600089838a8a8a8a898b33604051620006a99062000f46565b808a81526020018973ffffffffffffffffffffffffffffffffffffffff1673ffffffffffffffffffffffffffffffffffffffff168152602001888152602001878152602001806020018681526020018573ffffffffffffffffffffffffffffffffffffffff1673ffffffffffffffffffffffffffffffffffffffff1681526020018473ffffffffffffffffffffffffffffffffffffffff1673ffffffffffffffffffffffffffffffffffffffff1681526020018373ffffffffffffffffffffffffffffffffffffffff1673ffffffffffffffffffffffffffffffffffffffff168152602001828103825287818151815260200191508051906020019080838360005b83811015620007c8578082015181840152602081019050620007ab565b50505050905090810190601f168015620007f65780820380516001836020036101000a031916815260200191505b509a5050505050505050505050604051809103906000f08015801562000820573d6000803e3d6000fd5b5090508091505098975050505050505050565b6200083e3362000da7565b620008b1576040517f08c379a00000000000000000000000000000000000000000000000000000000081526004018080602001828103825260028152602001807f463200000000000000000000000000000000000000000000000000000000000081525060200191505060405180910390fd5b806000806101000a81548173ffffffffffffffffffffffffffffffffffffffff021916908373ffffffffffffffffffffffffffffffffffffffff16021790555050565b60008060009054906101000a900473ffffffffffffffffffffffffffffffffffffffff1673ffffffffffffffffffffffffffffffffffffffff166391d148546000809054906101000a900473ffffffffffffffffffffffffffffffffffffffff1673ffffffffffffffffffffffffffffffffffffffff166375b238fc6040518163ffffffff1660e01b815260040160206040518083038186803b1580156200099b57600080fd5b505afa158015620009b0573d6000803e3d6000fd5b505050506040513d6020811015620009c757600080fd5b8101908080519060200190929190505050846040518363ffffffff1660e01b8152600401808381526020018273ffffffffffffffffffffffffffffffffffffffff1673ffffffffffffffffffffffffffffffffffffffff1681526020019250505060206040518083038186803b15801562000a4157600080fd5b505afa15801562000a56573d6000803e3d6000fd5b505050506040513d602081101562000a6d57600080fd5b81019080805190602001909291905050509050919050565b60008060009054906101000a900473ffffffffffffffffffffffffffffffffffffffff1673ffffffffffffffffffffffffffffffffffffffff166391d148546000809054906101000a900473ffffffffffffffffffffffffffffffffffffffff1673ffffffffffffffffffffffffffffffffffffffff16634d5e07fb6040518163ffffffff1660e01b815260040160206040518083038186803b15801562000b2c57600080fd5b505afa15801562000b41573d6000803e3d6000fd5b505050506040513d602081101562000b5857600080fd5b8101908080519060200190929190505050846040518363ffffffff1660e01b8152600401808381526020018273ffffffffffffffffffffffffffffffffffffffff1673ffffffffffffffffffffffffffffffffffffffff1681526020019250505060206040518083038186803b15801562000bd257600080fd5b505afa15801562000be7573d6000803e3d6000fd5b505050506040513d602081101562000bfe57600080fd5b81019080805190602001909291905050509050919050565b60008060009054906101000a900473ffffffffffffffffffffffffffffffffffffffff1673ffffffffffffffffffffffffffffffffffffffff166391d148546000809054906101000a900473ffffffffffffffffffffffffffffffffffffffff1673ffffffffffffffffffffffffffffffffffffffff166384138b9b6040518163ffffffff1660e01b815260040160206040518083038186803b15801562000cbd57600080fd5b505afa15801562000cd2573d6000803e3d6000fd5b505050506040513d602081101562000ce957600080fd5b8101908080519060200190929190505050846040518363ffffffff1660e01b8152600401808381526020018273ffffffffffffffffffffffffffffffffffffffff1673ffffffffffffffffffffffffffffffffffffffff1681526020019250505060206040518083038186803b15801562000d6357600080fd5b505afa15801562000d78573d6000803e3d6000fd5b505050506040513d602081101562000d8f57600080fd5b81019080805190602001909291905050509050919050565b60008060009054906101000a900473ffffffffffffffffffffffffffffffffffffffff1673ffffffffffffffffffffffffffffffffffffffff166391d148546000809054906101000a900473ffffffffffffffffffffffffffffffffffffffff1673ffffffffffffffffffffffffffffffffffffffff166348f029896040518163ffffffff1660e01b815260040160206040518083038186803b15801562000e4e57600080fd5b505afa15801562000e63573d6000803e3d6000fd5b505050506040513d602081101562000e7a57600080fd5b8101908080519060200190929190505050846040518363ffffffff1660e01b8152600401808381526020018273ffffffffffffffffffffffffffffffffffffffff1673ffffffffffffffffffffffffffffffffffffffff1681526020019250505060206040518083038186803b15801562000ef457600080fd5b505afa15801562000f09573d6000803e3d6000fd5b505050506040513d602081101562000f2057600080fd5b81019080805190602001909291905050509050919050565b6145cb8062000f5583390190565b61450180620055208339019056fe60806040523480156200001157600080fd5b50604051620045cb380380620045cb83398181016040526101208110156200003857600080fd5b81019080805190602001909291908051906020019092919080519060200190929190805160405193929190846401000000008211156200007757600080fd5b838201915060208201858111156200008e57600080fd5b8251866001820283011164010000000082111715620000ac57600080fd5b8083526020830192505050908051906020019080838360005b83811015620000e2578082015181840152602081019050620000c5565b50505050905090810190601f168015620001105780820380516001836020036101000a031916815260200191505b506040526020018051906020019092919080519060200190929190805190602001909291908051906020019092919080519060200190929190505050888888888888806000806101000a81548173ffffffffffffffffffffffffffffffffffffffff021916908373ffffffffffffffffffffffffffffffffffffffff160217905550620001a3336200050760201b60201c565b80620001bc5750620001bb336200069860201b60201c565b5b80620001d55750620001d4336200082960201b60201c565b5b80620001ee5750620001ed33620009ba60201b60201c565b5b62000261576040517f08c379a00000000000000000000000000000000000000000000000000000000081526004018080602001828103825260028152602001807f473100000000000000000000000000000000000000000000000000000000000081525060200191505060405180910390fd5b8585600a6000600c60008491906101000a81548173ffffffffffffffffffffffffffffffffffffffff021916908373ffffffffffffffffffffffffffffffffffffffff1602179055508391905055505060006006819055508260089080519060200190620002d192919062000b4b565b506040518060400160405280600481526020017f4f50454e00000000000000000000000000000000000000000000000000000000815250600590805190602001906200031f92919062000b4b565b5081600d60405180807f4f50454e000000000000000000000000000000000000000000000000000000008152506004019050908152602001604051809103902081905550600060098190555083600b8190555050505050505062000389336200050760201b60201c565b80620003a25750620003a1336200069860201b60201c565b5b80620003bb5750620003ba336200082960201b60201c565b5b6200042e576040517f08c379a00000000000000000000000000000000000000000000000000000000081526004018080602001828103825260028152602001807f453000000000000000000000000000000000000000000000000000000000000081525060200191505060405180910390fd5b33600360006101000a81548173ffffffffffffffffffffffffffffffffffffffff021916908373ffffffffffffffffffffffffffffffffffffffff16021790555082600460006101000a81548173ffffffffffffffffffffffffffffffffffffffff021916908373ffffffffffffffffffffffffffffffffffffffff16021790555080601060006101000a81548173ffffffffffffffffffffffffffffffffffffffff021916908373ffffffffffffffffffffffffffffffffffffffff1602179055508160118190555050505050505050505062000bfa565b60008060009054906101000a900473ffffffffffffffffffffffffffffffffffffffff1673ffffffffffffffffffffffffffffffffffffffff166391d148546000809054906101000a900473ffffffffffffffffffffffffffffffffffffffff1673ffffffffffffffffffffffffffffffffffffffff166375b238fc6040518163ffffffff1660e01b815260040160206040518083038186803b158015620005ae57600080fd5b505afa158015620005c3573d6000803e3d6000fd5b505050506040513d6020811015620005da57600080fd5b8101908080519060200190929190505050846040518363ffffffff1660e01b8152600401808381526020018273ffffffffffffffffffffffffffffffffffffffff1673ffffffffffffffffffffffffffffffffffffffff1681526020019250505060206040518083038186803b1580156200065457600080fd5b505afa15801562000669573d6000803e3d6000fd5b505050506040513d60208110156200068057600080fd5b81019080805190602001909291905050509050919050565b60008060009054906101000a900473ffffffffffffffffffffffffffffffffffffffff1673ffffffffffffffffffffffffffffffffffffffff166391d148546000809054906101000a900473ffffffffffffffffffffffffffffffffffffffff1673ffffffffffffffffffffffffffffffffffffffff16634db08aea6040518163ffffffff1660e01b815260040160206040518083038186803b1580156200073f57600080fd5b505afa15801562000754573d6000803e3d6000fd5b505050506040513d60208110156200076b57600080fd5b8101908080519060200190929190505050846040518363ffffffff1660e01b8152600401808381526020018273ffffffffffffffffffffffffffffffffffffffff1673ffffffffffffffffffffffffffffffffffffffff1681526020019250505060206040518083038186803b158015620007e557600080fd5b505afa158015620007fa573d6000803e3d6000fd5b505050506040513d60208110156200081157600080fd5b81019080805190602001909291905050509050919050565b60008060009054906101000a900473ffffffffffffffffffffffffffffffffffffffff1673ffffffffffffffffffffffffffffffffffffffff166391d148546000809054906101000a900473ffffffffffffffffffffffffffffffffffffffff1673ffffffffffffffffffffffffffffffffffffffff166384138b9b6040518163ffffffff1660e01b815260040160206040518083038186803b158015620008d057600080fd5b505afa158015620008e5573d6000803e3d6000fd5b505050506040513d6020811015620008fc57600080fd5b8101908080519060200190929190505050846040518363ffffffff1660e01b8152600401808381526020018273ffffffffffffffffffffffffffffffffffffffff1673ffffffffffffffffffffffffffffffffffffffff1681526020019250505060206040518083038186803b1580156200097657600080fd5b505afa1580156200098b573d6000803e3d6000fd5b505050506040513d6020811015620009a257600080fd5b81019080805190602001909291905050509050919050565b60008060009054906101000a900473ffffffffffffffffffffffffffffffffffffffff1673ffffffffffffffffffffffffffffffffffffffff166391d148546000809054906101000a900473ffffffffffffffffffffffffffffffffffffffff1673ffffffffffffffffffffffffffffffffffffffff1663e926eb966040518163ffffffff1660e01b815260040160206040518083038186803b15801562000a6157600080fd5b505afa15801562000a76573d6000803e3d6000fd5b505050506040513d602081101562000a8d57600080fd5b8101908080519060200190929190505050846040518363ffffffff1660e01b8152600401808381526020018273ffffffffffffffffffffffffffffffffffffffff1673ffffffffffffffffffffffffffffffffffffffff1681526020019250505060206040518083038186803b15801562000b0757600080fd5b505afa15801562000b1c573d6000803e3d6000fd5b505050506040513d602081101562000b3357600080fd5b81019080805190602001909291905050509050919050565b828054600181600116156101000203166002900490600052602060002090601f016020900481019282601f1062000b8e57805160ff191683800117855562000bbf565b8280016001018555821562000bbf579182015b8281111562000bbe57825182559160200191906001019062000ba1565b5b50905062000bce919062000bd2565b5090565b62000bf791905b8082111562000bf357600081600090555060010162000bd9565b5090565b90565b6139c18062000c0a6000396000f3fe608060405234801561001057600080fd5b50600436106101e55760003560e01c80636b3926801161010f578063c3c61f91116100a2578063e9f748d411610071578063e9f748d414610ca1578063ea6d0d8614610cbf578063f008695614610d70578063f89d1ec014610da8576101e5565b8063c3c61f9114610ba4578063c412eaba14610bc2578063dbd0e1b614610c13578063e99d286614610c5d576101e5565b80639ad09310116100de5780639ad0931014610ab6578063a8bc4ffa14610b24578063be74264d14610b68578063bf5c982214610b86576101e5565b80636b392680146109415780637ce3489b1461096f5780637e78fdb91461099d57806389ace75e146109e7576101e5565b80633270bb5b116101875780635f34e434116101565780635f34e434146107f8578063605df8001461081657806366a9613d14610844578063677ab32d14610872576101e5565b80633270bb5b14610520578063390cacdf146105425780633c9782ff146105605780634f2f129114610646576101e5565b80631865c57d116101c35780631865c57d1461035e5780631b77f68d146103e1578063292d1fb91461040d57806329596fa2146104d2576101e5565b806307d27fab146101ea578063080f8b9d146102c6578063175106a214610314575b600080fd5b6102c46004803603608081101561020057600080fd5b81019080803590602001909291908035906020019064010000000081111561022757600080fd5b82018360208201111561023957600080fd5b8035906020019184600183028401116401000000008311171561025b57600080fd5b91908080601f016020809104026020016040519081016040528093929190818152602001838380828437600081840152601f19601f82011690508083019250505050505050919291929080359060200190929190803560ff169060200190929190505050610df2565b005b610312600480360360808110156102dc57600080fd5b81019080803590602001909291908035906020019092919080359060200190929190803515159060200190929190505050610f66565b005b61031c6110d1565b604051808273ffffffffffffffffffffffffffffffffffffffff1673ffffffffffffffffffffffffffffffffffffffff16815260200191505060405180910390f35b610366611176565b6040518080602001828103825283818151815260200191508051906020019080838360005b838110156103a657808201518184015260208101905061038b565b50505050905090810190601f1680156103d35780820380516001836020036101000a031916815260200191505b509250505060405180910390f35b6103e9611293565b60405180848152602001838152602001828152602001935050505060405180910390f35b6104d06004803603604081101561042357600080fd5b810190808035906020019064010000000081111561044057600080fd5b82018360208201111561045257600080fd5b8035906020019184600183028401116401000000008311171561047457600080fd5b91908080601f016020809104026020016040519081016040528093929190818152602001838380828437600081840152601f19601f820116905080830192505050505050509192919290803590602001909291905050506114b8565b005b61051e600480360360408110156104e857600080fd5b8101908080359060200190929190803573ffffffffffffffffffffffffffffffffffffffff1690602001909291905050506115cc565b005b6105286118a6565b604051808215151515815260200191505060405180910390f35b61054a6119da565b6040518082815260200191505060405180910390f35b61058c6004803603602081101561057657600080fd5b8101908080359060200190929190505050611a5f565b604051808981526020018881526020018781526020018660ff1660ff168152602001851515151581526020018415151515815260200183815260200180602001828103825283818151815260200191508051906020019080838360005b838110156106045780820151818401526020810190506105e9565b50505050905090810190601f1680156106315780820380516001836020036101000a031916815260200191505b50995050505050505050505060405180910390f35b61064e611c74565b604051808c81526020018b81526020018a73ffffffffffffffffffffffffffffffffffffffff1673ffffffffffffffffffffffffffffffffffffffff168152602001898152602001888152602001806020018781526020018673ffffffffffffffffffffffffffffffffffffffff1673ffffffffffffffffffffffffffffffffffffffff1681526020018573ffffffffffffffffffffffffffffffffffffffff1673ffffffffffffffffffffffffffffffffffffffff16815260200180602001848152602001838103835289818151815260200191508051906020019080838360005b8381101561074c578082015181840152602081019050610731565b50505050905090810190601f1680156107795780820380516001836020036101000a031916815260200191505b50838103825285818151815260200191508051906020019080838360005b838110156107b2578082015181840152602081019050610797565b50505050905090810190601f1680156107df5780820380516001836020036101000a031916815260200191505b509d505050505050505050505050505060405180910390f35b610800611ee3565b6040518082815260200191505060405180910390f35b6108426004803603602081101561082c57600080fd5b8101908080359060200190929190505050611f72565b005b6108706004803603602081101561085a57600080fd5b8101908080359060200190929190505050612007565b005b61093f6004803603604081101561088857600080fd5b81019080803567ffffffffffffffff169060200190929190803590602001906401000000008111156108b957600080fd5b8201836020820111156108cb57600080fd5b803590602001918460018302840111640100000000831117156108ed57600080fd5b91908080601f016020809104026020016040519081016040528093929190818152602001838380828437600081840152601f19601f82011690508083019250505050505050919291929050505061209c565b005b61096d6004803603602081101561095757600080fd5b8101908080359060200190929190505050612167565b005b61099b6004803603602081101561098557600080fd5b81019080803590602001909291905050506121fc565b005b6109a5612291565b604051808273ffffffffffffffffffffffffffffffffffffffff1673ffffffffffffffffffffffffffffffffffffffff16815260200191505060405180910390f35b610aa0600480360360208110156109fd57600080fd5b8101908080359060200190640100000000811115610a1a57600080fd5b820183602082011115610a2c57600080fd5b80359060200191846001830284011164010000000083111715610a4e57600080fd5b91908080601f016020809104026020016040519081016040528093929190818152602001838380828437600081840152601f19601f820116905080830192505050505050509192919290505050612336565b6040518082815260200191505060405180910390f35b610b2260048036036060811015610acc57600080fd5b81019080803573ffffffffffffffffffffffffffffffffffffffff16906020019092919080359060200190929190803573ffffffffffffffffffffffffffffffffffffffff169060200190929190505050612424565b005b610b6660048036036020811015610b3a57600080fd5b81019080803573ffffffffffffffffffffffffffffffffffffffff16906020019092919050505061258d565b005b610b7061265c565b6040518082815260200191505060405180910390f35b610b8e6126e1565b6040518082815260200191505060405180910390f35b610bac612766565b6040518082815260200191505060405180910390f35b610bca6127eb565b604051808381526020018273ffffffffffffffffffffffffffffffffffffffff1673ffffffffffffffffffffffffffffffffffffffff1681526020019250505060405180910390f35b610c1b612897565b604051808273ffffffffffffffffffffffffffffffffffffffff1673ffffffffffffffffffffffffffffffffffffffff16815260200191505060405180910390f35b610c9f60048036036020811015610c7357600080fd5b81019080803573ffffffffffffffffffffffffffffffffffffffff16906020019092919050505061293c565b005b610ca9612a0b565b6040518082815260200191505060405180910390f35b610cf560048036036020811015610cd557600080fd5b81019080803567ffffffffffffffff169060200190929190505050612a15565b6040518080602001828103825283818151815260200191508051906020019080838360005b83811015610d35578082015181840152602081019050610d1a565b50505050905090810190601f168015610d625780820380516001836020036101000a031916815260200191505b509250505060405180910390f35b610da660048036036040811015610d8657600080fd5b810190808035906020019092919080359060200190929190505050612b59565b005b610db0612d9d565b604051808273ffffffffffffffffffffffffffffffffffffffff1673ffffffffffffffffffffffffffffffffffffffff16815260200191505060405180910390f35b610dfb33612e42565b80610e0b5750610e0a33612fcd565b5b80610e1b5750610e1a33613158565b5b610e8d576040517f08c379a00000000000000000000000000000000000000000000000000000000081526004018080602001828103825260038152602001807f473234000000000000000000000000000000000000000000000000000000000081525060200191505060405180910390fd5b6001600e600086815260200190815260200160002060030160026101000a81548160ff0219169083151502179055506000600e600086815260200190815260200160002060030160016101000a81548160ff02191690831515021790555082600e60008681526020019081526020016000206005019080519060200190610f1592919061389a565b5080600e600086815260200190815260200160002060030160006101000a81548160ff021916908360ff16021790555081600e60008681526020019081526020016000206004018190555050505050565b610f6f33612e42565b80610f7f5750610f7e33612fcd565b5b80610f8f5750610f8e33613158565b5b611001576040517f08c379a00000000000000000000000000000000000000000000000000000000081526004018080602001828103825260038152602001807f473230000000000000000000000000000000000000000000000000000000000081525060200191505060405180910390fd5b61100b60016132e3565b6000600161101960016132f9565b03905084600e60008381526020019081526020016000206001018190555083600e60008381526020019081526020016000206000018190555082600e60008381526020019081526020016000206002018190555081600e600083815260200190815260200160002060030160016101000a81548160ff0219169083151502179055506000600e600083815260200190815260200160002060030160026101000a81548160ff0219169083151502179055505050505050565b60006110dc33613307565b61114e576040517f08c379a00000000000000000000000000000000000000000000000000000000081526004018080602001828103825260028152602001807f453000000000000000000000000000000000000000000000000000000000000081525060200191505060405180910390fd5b601060009054906101000a900473ffffffffffffffffffffffffffffffffffffffff16905090565b606061118133613307565b6111f3576040517f08c379a00000000000000000000000000000000000000000000000000000000081526004018080602001828103825260038152602001807f473233000000000000000000000000000000000000000000000000000000000081525060200191505060405180910390fd5b60058054600181600116156101000203166002900480601f0160208091040260200160405190810160405280929190818152602001828054600181600116156101000203166002900480156112895780601f1061125e57610100808354040283529160200191611289565b820191906000526020600020905b81548152906001019060200180831161126c57829003601f168201915b5050505050905090565b60008060006112a133613158565b806112b157506112b033613307565b5b611323576040517f08c379a00000000000000000000000000000000000000000000000000000000081526004018080602001828103825260028152602001807f473800000000000000000000000000000000000000000000000000000000000081525060200191505060405180910390fd5b60008090506000806001905060008090505b61133f60016132f9565b8110156114905760011515600e600083815260200190815260200160002060030160019054906101000a900460ff1615151480156113a4575060001515600e600083815260200190815260200160002060030160029054906101000a900460ff161515145b80156113b4575060011515821515145b156113de57809350600e600085815260200190815260200160002060000154925060009150611483565b60011515600e600083815260200190815260200160002060030160019054906101000a900460ff16151514801561143c575060001515600e600083815260200190815260200160002060030160029054906101000a900460ff161515145b156114825782600e600083815260200190815260200160002060000154106114645783611466565b805b9350600e60008581526020019081526020016000206000015492505b5b8080600101915050611335565b508282600e600086815260200190815260200160002060010154955095509550505050909192565b6114c133612e42565b806114d157506114d033613158565b5b611543576040517f08c379a00000000000000000000000000000000000000000000000000000000081526004018080602001828103825260038152602001807f473131000000000000000000000000000000000000000000000000000000000081525060200191505060405180910390fd5b816005908051906020019061155992919061389a565b5080600d836040518082805190602001908083835b60208310611591578051825260208201915060208101905060208303925061156e565b6001836020036101000a0380198251168184511680821785525050505050509050019150509081526020016040518091039020819055505050565b6115d533612e42565b806115e557506115e4336133f9565b5b806115f557506115f433613158565b5b611667576040517f08c379a00000000000000000000000000000000000000000000000000000000081526004018080602001828103825260038152602001807f473138000000000000000000000000000000000000000000000000000000000081525060200191505060405180910390fd5b6000600c60009054906101000a900473ffffffffffffffffffffffffffffffffffffffff1690506000831461169c57826116a0565b600a545b92503073ffffffffffffffffffffffffffffffffffffffff168173ffffffffffffffffffffffffffffffffffffffff16636352211e856040518263ffffffff1660e01b81526004018082815260200191505060206040518083038186803b15801561170a57600080fd5b505afa15801561171e573d6000803e3d6000fd5b505050506040513d602081101561173457600080fd5b810190808051906020019092919050505073ffffffffffffffffffffffffffffffffffffffff16146117ce576040517f08c379a00000000000000000000000000000000000000000000000000000000081526004018080602001828103825260038152602001807f473235000000000000000000000000000000000000000000000000000000000081525060200191505060405180910390fd5b8073ffffffffffffffffffffffffffffffffffffffff166323b872dd3084866040518463ffffffff1660e01b8152600401808473ffffffffffffffffffffffffffffffffffffffff1673ffffffffffffffffffffffffffffffffffffffff1681526020018373ffffffffffffffffffffffffffffffffffffffff1673ffffffffffffffffffffffffffffffffffffffff1681526020018281526020019350505050600060405180830381600087803b15801561188957600080fd5b505af115801561189d573d6000803e3d6000fd5b50505050505050565b60006118b133613307565b806118c157506118c0336133f9565b5b806118d157506118d033613158565b5b611943576040517f08c379a00000000000000000000000000000000000000000000000000000000081526004018080602001828103825260038152602001807f473235000000000000000000000000000000000000000000000000000000000081525060200191505060405180910390fd5b60006001905060008090505b61195960016132f9565b8110156119d2578180156119b95750600e600082815260200190815260200160002060030160019054906101000a900460ff1680156119b85750600e600082815260200190815260200160002060030160029054906101000a900460ff165b5b9150816119c5576119d2565b808060010191505061194f565b508091505090565b60006119e533613307565b611a57576040517f08c379a00000000000000000000000000000000000000000000000000000000081526004018080602001828103825260038152602001807f473237000000000000000000000000000000000000000000000000000000000081525060200191505060405180910390fd5b600954905090565b60008060008060008060006060611a7533613307565b611ae7576040517f08c379a00000000000000000000000000000000000000000000000000000000081526004018080602001828103825260038152602001807f473239000000000000000000000000000000000000000000000000000000000081525060200191505060405180910390fd5b611aef61391a565b600e60008b8152602001908152602001600020604051806101000160405290816000820154815260200160018201548152602001600282015481526020016003820160009054906101000a900460ff1660ff1660ff1681526020016003820160019054906101000a900460ff161515151581526020016003820160029054906101000a900460ff1615151515815260200160048201548152602001600582018054600181600116156101000203166002900480601f016020809104026020016040519081016040528092919081815260200182805460018160011615610100020316600290048015611c225780601f10611bf757610100808354040283529160200191611c22565b820191906000526020600020905b815481529060010190602001808311611c0557829003601f168201915b5050505050815250509050806000015181602001518260400151836060015184608001518560a001518660c001518760e001518090509850985098509850985098509850985050919395975091939597565b60008060008060006060600080600060606000611c9033613307565b611d02576040517f08c379a00000000000000000000000000000000000000000000000000000000081526004018080602001828103825260028152602001807f453000000000000000000000000000000000000000000000000000000000000081525060200191505060405180910390fd5b601154600a54600c60009054906101000a900473ffffffffffffffffffffffffffffffffffffffff16600b546006546008600954600360009054906101000a900473ffffffffffffffffffffffffffffffffffffffff16600260009054906101000a900473ffffffffffffffffffffffffffffffffffffffff166005611d8860016132f9565b858054600181600116156101000203166002900480601f016020809104026020016040519081016040528092919081815260200182805460018160011615610100020316600290048015611e1d5780601f10611df257610100808354040283529160200191611e1d565b820191906000526020600020905b815481529060010190602001808311611e0057829003601f168201915b50505050509550818054600181600116156101000203166002900480601f016020809104026020016040519081016040528092919081815260200182805460018160011615610100020316600290048015611eb95780601f10611e8e57610100808354040283529160200191611eb9565b820191906000526020600020905b815481529060010190602001808311611e9c57829003601f168201915b505050505091509a509a509a509a509a509a509a509a509a509a509a50909192939495969798999a565b6000611eee33613307565b611f60576040517f08c379a00000000000000000000000000000000000000000000000000000000081526004018080602001828103825260038152602001807f473234000000000000000000000000000000000000000000000000000000000081525060200191505060405180910390fd5b6001611f6c60016132f9565b03905090565b611f7b33612e42565b80611f8b5750611f8a33613158565b5b611ffd576040517f08c379a00000000000000000000000000000000000000000000000000000000081526004018080602001828103825260028152602001807f453000000000000000000000000000000000000000000000000000000000000081525060200191505060405180910390fd5b8060118190555050565b61201033612e42565b80612020575061201f33613158565b5b612092576040517f08c379a00000000000000000000000000000000000000000000000000000000081526004018080602001828103825260038152602001807f473136000000000000000000000000000000000000000000000000000000000081525060200191505060405180910390fd5b8060098190555050565b6120a533612e42565b806120b557506120b433613158565b5b612127576040517f08c379a00000000000000000000000000000000000000000000000000000000081526004018080602001828103825260038152602001807f473137000000000000000000000000000000000000000000000000000000000081525060200191505060405180910390fd5b80600f60008467ffffffffffffffff1667ffffffffffffffff168152602001908152602001600020908051906020019061216292919061389a565b505050565b61217033612e42565b80612180575061217f33613158565b5b6121f2576040517f08c379a00000000000000000000000000000000000000000000000000000000081526004018080602001828103825260038152602001807f473133000000000000000000000000000000000000000000000000000000000081525060200191505060405180910390fd5b8060078190555050565b61220533612e42565b80612215575061221433613158565b5b612287576040517f08c379a00000000000000000000000000000000000000000000000000000000081526004018080602001828103825260038152602001807f473132000000000000000000000000000000000000000000000000000000000081525060200191505060405180910390fd5b8060068190555050565b600061229c33613307565b61230e576040517f08c379a00000000000000000000000000000000000000000000000000000000081526004018080602001828103825260028152602001807f473500000000000000000000000000000000000000000000000000000000000081525060200191505060405180910390fd5b600260009054906101000a900473ffffffffffffffffffffffffffffffffffffffff16905090565b600061234133613307565b6123b3576040517f08c379a00000000000000000000000000000000000000000000000000000000081526004018080602001828103825260038152602001807f473238000000000000000000000000000000000000000000000000000000000081525060200191505060405180910390fd5b600d826040518082805190602001908083835b602083106123e957805182526020820191506020810190506020830392506123c6565b6001836020036101000a0380198251168184511680821785525050505050509050019150509081526020016040518091039020549050919050565b61242d33612e42565b8061243d575061243c336133f9565b5b8061244d575061244c33613158565b5b6124bf576040517f08c379a00000000000000000000000000000000000000000000000000000000081526004018080602001828103825260038152602001807f473139000000000000000000000000000000000000000000000000000000000081525060200191505060405180910390fd5b60008390508073ffffffffffffffffffffffffffffffffffffffff1663a9059cbb83856040518363ffffffff1660e01b8152600401808373ffffffffffffffffffffffffffffffffffffffff1673ffffffffffffffffffffffffffffffffffffffff16815260200182815260200192505050602060405180830381600087803b15801561254b57600080fd5b505af115801561255f573d6000803e3d6000fd5b505050506040513d602081101561257557600080fd5b81019080805190602001909291905050505050505050565b61259633612e42565b806125a657506125a533613158565b5b612618576040517f08c379a00000000000000000000000000000000000000000000000000000000081526004018080602001828103825260038152602001807f473134000000000000000000000000000000000000000000000000000000000081525060200191505060405180910390fd5b80600260006101000a81548173ffffffffffffffffffffffffffffffffffffffff021916908373ffffffffffffffffffffffffffffffffffffffff16021790555050565b600061266733613307565b6126d9576040517f08c379a00000000000000000000000000000000000000000000000000000000081526004018080602001828103825260038152602001807f473235000000000000000000000000000000000000000000000000000000000081525060200191505060405180910390fd5b600654905090565b60006126ec33613307565b61275e576040517f08c379a00000000000000000000000000000000000000000000000000000000081526004018080602001828103825260038152602001807f473236000000000000000000000000000000000000000000000000000000000081525060200191505060405180910390fd5b600754905090565b600061277133613307565b6127e3576040517f08c379a00000000000000000000000000000000000000000000000000000000081526004018080602001828103825260028152602001807f473300000000000000000000000000000000000000000000000000000000000081525060200191505060405180910390fd5b600b54905090565b6000806127f733613307565b612869576040517f08c379a00000000000000000000000000000000000000000000000000000000081526004018080602001828103825260028152602001807f473200000000000000000000000000000000000000000000000000000000000081525060200191505060405180910390fd5b600a54600c60009054906101000a900473ffffffffffffffffffffffffffffffffffffffff16915091509091565b60006128a233613307565b612914576040517f08c379a00000000000000000000000000000000000000000000000000000000081526004018080602001828103825260028152602001807f473600000000000000000000000000000000000000000000000000000000000081525060200191505060405180910390fd5b600460009054906101000a900473ffffffffffffffffffffffffffffffffffffffff16905090565b61294533612e42565b80612955575061295433613158565b5b6129c7576040517f08c379a00000000000000000000000000000000000000000000000000000000081526004018080602001828103825260038152602001807f473135000000000000000000000000000000000000000000000000000000000081525060200191505060405180910390fd5b80600460006101000a81548173ffffffffffffffffffffffffffffffffffffffff021916908373ffffffffffffffffffffffffffffffffffffffff16021790555050565b6000601154905090565b6060612a2033613307565b612a92576040517f08c379a00000000000000000000000000000000000000000000000000000000081526004018080602001828103825260028152602001807f473700000000000000000000000000000000000000000000000000000000000081525060200191505060405180910390fd5b600f60008367ffffffffffffffff1667ffffffffffffffff1681526020019081526020016000208054600181600116156101000203166002900480601f016020809104026020016040519081016040528092919081815260200182805460018160011615610100020316600290048015612b4d5780601f10612b2257610100808354040283529160200191612b4d565b820191906000526020600020905b815481529060010190602001808311612b3057829003601f168201915b50505050509050919050565b612b6233612e42565b80612b725750612b7133612fcd565b5b80612b825750612b8133613158565b5b612bf4576040517f08c379a00000000000000000000000000000000000000000000000000000000081526004018080602001828103825260038152602001807f473231000000000000000000000000000000000000000000000000000000000081525060200191505060405180910390fd5b60008210158015612c0d5750612c0a60016132f9565b82105b612c7f576040517f08c379a00000000000000000000000000000000000000000000000000000000081526004018080602001828103825260038152602001807f473232000000000000000000000000000000000000000000000000000000000081525060200191505060405180910390fd5b60001515600e600084815260200190815260200160002060030160029054906101000a900460ff161515148015612cdd575060011515600e600084815260200190815260200160002060030160019054906101000a900460ff161515145b612d4f576040517f08c379a00000000000000000000000000000000000000000000000000000000081526004018080602001828103825260038152602001807f473233000000000000000000000000000000000000000000000000000000000081525060200191505060405180910390fd5b6000600e600084815260200190815260200160002060030160016101000a81548160ff02191690831515021790555080600e6000848152602001908152602001600020600401819055505050565b6000612da833613307565b612e1a576040517f08c379a00000000000000000000000000000000000000000000000000000000081526004018080602001828103825260028152602001807f473400000000000000000000000000000000000000000000000000000000000081525060200191505060405180910390fd5b600360009054906101000a900473ffffffffffffffffffffffffffffffffffffffff16905090565b60008060009054906101000a900473ffffffffffffffffffffffffffffffffffffffff1673ffffffffffffffffffffffffffffffffffffffff166391d148546000809054906101000a900473ffffffffffffffffffffffffffffffffffffffff1673ffffffffffffffffffffffffffffffffffffffff166375b238fc6040518163ffffffff1660e01b815260040160206040518083038186803b158015612ee857600080fd5b505afa158015612efc573d6000803e3d6000fd5b505050506040513d6020811015612f1257600080fd5b8101908080519060200190929190505050846040518363ffffffff1660e01b8152600401808381526020018273ffffffffffffffffffffffffffffffffffffffff1673ffffffffffffffffffffffffffffffffffffffff1681526020019250505060206040518083038186803b158015612f8b57600080fd5b505afa158015612f9f573d6000803e3d6000fd5b505050506040513d6020811015612fb557600080fd5b81019080805190602001909291905050509050919050565b60008060009054906101000a900473ffffffffffffffffffffffffffffffffffffffff1673ffffffffffffffffffffffffffffffffffffffff166391d148546000809054906101000a900473ffffffffffffffffffffffffffffffffffffffff1673ffffffffffffffffffffffffffffffffffffffff1663ef0fe2456040518163ffffffff1660e01b815260040160206040518083038186803b15801561307357600080fd5b505afa158015613087573d6000803e3d6000fd5b505050506040513d602081101561309d57600080fd5b8101908080519060200190929190505050846040518363ffffffff1660e01b8152600401808381526020018273ffffffffffffffffffffffffffffffffffffffff1673ffffffffffffffffffffffffffffffffffffffff1681526020019250505060206040518083038186803b15801561311657600080fd5b505afa15801561312a573d6000803e3d6000fd5b505050506040513d602081101561314057600080fd5b81019080805190602001909291905050509050919050565b60008060009054906101000a900473ffffffffffffffffffffffffffffffffffffffff1673ffffffffffffffffffffffffffffffffffffffff166391d148546000809054906101000a900473ffffffffffffffffffffffffffffffffffffffff1673ffffffffffffffffffffffffffffffffffffffff16634d5e07fb6040518163ffffffff1660e01b815260040160206040518083038186803b1580156131fe57600080fd5b505afa158015613212573d6000803e3d6000fd5b505050506040513d602081101561322857600080fd5b8101908080519060200190929190505050846040518363ffffffff1660e01b8152600401808381526020018273ffffffffffffffffffffffffffffffffffffffff1673ffffffffffffffffffffffffffffffffffffffff1681526020019250505060206040518083038186803b1580156132a157600080fd5b505afa1580156132b5573d6000803e3d6000fd5b505050506040513d60208110156132cb57600080fd5b81019080805190602001909291905050509050919050565b6001816000016000828254019250508190555050565b600081600001549050919050565b6000600360009054906101000a900473ffffffffffffffffffffffffffffffffffffffff1673ffffffffffffffffffffffffffffffffffffffff168273ffffffffffffffffffffffffffffffffffffffff1614806133b25750600260009054906101000a900473ffffffffffffffffffffffffffffffffffffffff1673ffffffffffffffffffffffffffffffffffffffff168273ffffffffffffffffffffffffffffffffffffffff16145b806133c257506133c182612e42565b5b806133d257506133d182613584565b5b806133e257506133e182612fcd565b5b806133f257506133f18261370f565b5b9050919050565b60008060009054906101000a900473ffffffffffffffffffffffffffffffffffffffff1673ffffffffffffffffffffffffffffffffffffffff166391d148546000809054906101000a900473ffffffffffffffffffffffffffffffffffffffff1673ffffffffffffffffffffffffffffffffffffffff166384138b9b6040518163ffffffff1660e01b815260040160206040518083038186803b15801561349f57600080fd5b505afa1580156134b3573d6000803e3d6000fd5b505050506040513d60208110156134c957600080fd5b8101908080519060200190929190505050846040518363ffffffff1660e01b8152600401808381526020018273ffffffffffffffffffffffffffffffffffffffff1673ffffffffffffffffffffffffffffffffffffffff1681526020019250505060206040518083038186803b15801561354257600080fd5b505afa158015613556573d6000803e3d6000fd5b505050506040513d602081101561356c57600080fd5b81019080805190602001909291905050509050919050565b60008060009054906101000a900473ffffffffffffffffffffffffffffffffffffffff1673ffffffffffffffffffffffffffffffffffffffff166391d148546000809054906101000a900473ffffffffffffffffffffffffffffffffffffffff1673ffffffffffffffffffffffffffffffffffffffff16634db08aea6040518163ffffffff1660e01b815260040160206040518083038186803b15801561362a57600080fd5b505afa15801561363e573d6000803e3d6000fd5b505050506040513d602081101561365457600080fd5b8101908080519060200190929190505050846040518363ffffffff1660e01b8152600401808381526020018273ffffffffffffffffffffffffffffffffffffffff1673ffffffffffffffffffffffffffffffffffffffff1681526020019250505060206040518083038186803b1580156136cd57600080fd5b505afa1580156136e1573d6000803e3d6000fd5b505050506040513d60208110156136f757600080fd5b81019080805190602001909291905050509050919050565b60008060009054906101000a900473ffffffffffffffffffffffffffffffffffffffff1673ffffffffffffffffffffffffffffffffffffffff166391d148546000809054906101000a900473ffffffffffffffffffffffffffffffffffffffff1673ffffffffffffffffffffffffffffffffffffffff1663e90524f26040518163ffffffff1660e01b815260040160206040518083038186803b1580156137b557600080fd5b505afa1580156137c9573d6000803e3d6000fd5b505050506040513d60208110156137df57600080fd5b8101908080519060200190929190505050846040518363ffffffff1660e01b8152600401808381526020018273ffffffffffffffffffffffffffffffffffffffff1673ffffffffffffffffffffffffffffffffffffffff1681526020019250505060206040518083038186803b15801561385857600080fd5b505afa15801561386c573d6000803e3d6000fd5b505050506040513d602081101561388257600080fd5b81019080805190602001909291905050509050919050565b828054600181600116156101000203166002900490600052602060002090601f016020900481019282601f106138db57805160ff1916838001178555613909565b82800160010185558215613909579182015b828111156139085782518255916020019190600101906138ed565b5b5090506139169190613966565b5090565b604051806101000160405280600081526020016000815260200160008152602001600060ff16815260200160001515815260200160001515815260200160008152602001606081525090565b61398891905b8082111561398457600081600090555060010161396c565b5090565b9056fea2646970667358221220927f4fd980eef8e054bdfb911e04ce1ac03ff213d7c50b7be03e2d05aea9964f64736f6c6343000602003360806040523480156200001157600080fd5b50604051620045013803806200450183398181016040526101208110156200003857600080fd5b8101908080519060200190929190805190602001909291908051906020019092919080519060200190929190805160405193929190846401000000008211156200008157600080fd5b838201915060208201858111156200009857600080fd5b8251866001820283011164010000000082111715620000b657600080fd5b8083526020830192505050908051906020019080838360005b83811015620000ec578082015181840152602081019050620000cf565b50505050905090810190601f1680156200011a5780820380516001836020036101000a031916815260200191505b5060405260200180519060200190929190805190602001909291908051906020019092919080519060200190929190505050888888878787806000806101000a81548173ffffffffffffffffffffffffffffffffffffffff021916908373ffffffffffffffffffffffffffffffffffffffff160217905550620001a333620004a160201b60201c565b80620001bc5750620001bb336200063260201b60201c565b5b80620001d55750620001d433620007c360201b60201c565b5b80620001ee5750620001ed336200095460201b60201c565b5b62000261576040517f08c379a00000000000000000000000000000000000000000000000000000000081526004018080602001828103825260028152602001807f473100000000000000000000000000000000000000000000000000000000000081525060200191505060405180910390fd5b8585600a6000600c60008491906101000a81548173ffffffffffffffffffffffffffffffffffffffff021916908373ffffffffffffffffffffffffffffffffffffffff1602179055508391905055505060006006819055508260089080519060200190620002d192919062000ae5565b506040518060400160405280600481526020017f4f50454e00000000000000000000000000000000000000000000000000000000815250600590805190602001906200031f92919062000ae5565b5081600d60405180807f4f50454e000000000000000000000000000000000000000000000000000000008152506004019050908152602001604051809103902081905550600060098190555083600b8190555050505050505080600260006101000a81548173ffffffffffffffffffffffffffffffffffffffff021916908373ffffffffffffffffffffffffffffffffffffffff16021790555081600360006101000a81548173ffffffffffffffffffffffffffffffffffffffff021916908373ffffffffffffffffffffffffffffffffffffffff160217905550856006819055506040518060400160405280600281526020017f4f49000000000000000000000000000000000000000000000000000000000000815250600590805190602001906200044e92919062000ae5565b5083600d60405180807f4f49000000000000000000000000000000000000000000000000000000000000815250600201905090815260200160405180910390208190555050505050505050505062000b94565b60008060009054906101000a900473ffffffffffffffffffffffffffffffffffffffff1673ffffffffffffffffffffffffffffffffffffffff166391d148546000809054906101000a900473ffffffffffffffffffffffffffffffffffffffff1673ffffffffffffffffffffffffffffffffffffffff166375b238fc6040518163ffffffff1660e01b815260040160206040518083038186803b1580156200054857600080fd5b505afa1580156200055d573d6000803e3d6000fd5b505050506040513d60208110156200057457600080fd5b8101908080519060200190929190505050846040518363ffffffff1660e01b8152600401808381526020018273ffffffffffffffffffffffffffffffffffffffff1673ffffffffffffffffffffffffffffffffffffffff1681526020019250505060206040518083038186803b158015620005ee57600080fd5b505afa15801562000603573d6000803e3d6000fd5b505050506040513d60208110156200061a57600080fd5b81019080805190602001909291905050509050919050565b60008060009054906101000a900473ffffffffffffffffffffffffffffffffffffffff1673ffffffffffffffffffffffffffffffffffffffff166391d148546000809054906101000a900473ffffffffffffffffffffffffffffffffffffffff1673ffffffffffffffffffffffffffffffffffffffff16634db08aea6040518163ffffffff1660e01b815260040160206040518083038186803b158015620006d957600080fd5b505afa158015620006ee573d6000803e3d6000fd5b505050506040513d60208110156200070557600080fd5b8101908080519060200190929190505050846040518363ffffffff1660e01b8152600401808381526020018273ffffffffffffffffffffffffffffffffffffffff1673ffffffffffffffffffffffffffffffffffffffff1681526020019250505060206040518083038186803b1580156200077f57600080fd5b505afa15801562000794573d6000803e3d6000fd5b505050506040513d6020811015620007ab57600080fd5b81019080805190602001909291905050509050919050565b60008060009054906101000a900473ffffffffffffffffffffffffffffffffffffffff1673ffffffffffffffffffffffffffffffffffffffff166391d148546000809054906101000a900473ffffffffffffffffffffffffffffffffffffffff1673ffffffffffffffffffffffffffffffffffffffff166384138b9b6040518163ffffffff1660e01b815260040160206040518083038186803b1580156200086a57600080fd5b505afa1580156200087f573d6000803e3d6000fd5b505050506040513d60208110156200089657600080fd5b8101908080519060200190929190505050846040518363ffffffff1660e01b8152600401808381526020018273ffffffffffffffffffffffffffffffffffffffff1673ffffffffffffffffffffffffffffffffffffffff1681526020019250505060206040518083038186803b1580156200091057600080fd5b505afa15801562000925573d6000803e3d6000fd5b505050506040513d60208110156200093c57600080fd5b81019080805190602001909291905050509050919050565b60008060009054906101000a900473ffffffffffffffffffffffffffffffffffffffff1673ffffffffffffffffffffffffffffffffffffffff166391d148546000809054906101000a900473ffffffffffffffffffffffffffffffffffffffff1673ffffffffffffffffffffffffffffffffffffffff1663e926eb966040518163ffffffff1660e01b815260040160206040518083038186803b158015620009fb57600080fd5b505afa15801562000a10573d6000803e3d6000fd5b505050506040513d602081101562000a2757600080fd5b8101908080519060200190929190505050846040518363ffffffff1660e01b8152600401808381526020018273ffffffffffffffffffffffffffffffffffffffff1673ffffffffffffffffffffffffffffffffffffffff1681526020019250505060206040518083038186803b15801562000aa157600080fd5b505afa15801562000ab6573d6000803e3d6000fd5b505050506040513d602081101562000acd57600080fd5b81019080805190602001909291905050509050919050565b828054600181600116156101000203166002900490600052602060002090601f016020900481019282601f1062000b2857805160ff191683800117855562000b59565b8280016001018555821562000b59579182015b8281111562000b5857825182559160200191906001019062000b3b565b5b50905062000b68919062000b6c565b5090565b62000b9191905b8082111562000b8d57600081600090555060010162000b73565b5090565b90565b61395d8062000ba46000396000f3fe608060405234801561001057600080fd5b50600436106101da5760003560e01c80637ce3489b11610104578063c3c61f91116100a2578063e9f748d411610071578063e9f748d414610c56578063ea6d0d8614610c74578063f008695614610d25578063f89d1ec014610d5d576101da565b8063c3c61f9114610b59578063c412eaba14610b77578063dbd0e1b614610bc8578063e99d286614610c12576101da565b80639ad09310116100de5780639ad0931014610a6b578063a8bc4ffa14610ad9578063be74264d14610b1d578063bf5c982214610b3b576101da565b80637ce3489b146109245780637e78fdb91461095257806389ace75e1461099c576101da565b8063390cacdf1161017c5780635f34e4341161014b5780635f34e434146107db57806366a9613d146107f9578063677ab32d146108275780636b392680146108f6576101da565b8063390cacdf146104ed5780633c9782ff1461050b5780634f2f1291146105f15780635b76fd3d146107a3576101da565b80631b77f68d116101b85780631b77f68d1461038c578063292d1fb9146103b857806329596fa21461047d5780633270bb5b146104cb576101da565b806307d27fab146101df578063080f8b9d146102bb5780631865c57d14610309575b600080fd5b6102b9600480360360808110156101f557600080fd5b81019080803590602001909291908035906020019064010000000081111561021c57600080fd5b82018360208201111561022e57600080fd5b8035906020019184600183028401116401000000008311171561025057600080fd5b91908080601f016020809104026020016040519081016040528093929190818152602001838380828437600081840152601f19601f82011690508083019250505050505050919291929080359060200190929190803560ff169060200190929190505050610da7565b005b610307600480360360808110156102d157600080fd5b81019080803590602001909291908035906020019092919080359060200190929190803515159060200190929190505050610f1b565b005b610311611086565b6040518080602001828103825283818151815260200191508051906020019080838360005b83811015610351578082015181840152602081019050610336565b50505050905090810190601f16801561037e5780820380516001836020036101000a031916815260200191505b509250505060405180910390f35b6103946111a3565b60405180848152602001838152602001828152602001935050505060405180910390f35b61047b600480360360408110156103ce57600080fd5b81019080803590602001906401000000008111156103eb57600080fd5b8201836020820111156103fd57600080fd5b8035906020019184600183028401116401000000008311171561041f57600080fd5b91908080601f016020809104026020016040519081016040528093929190818152602001838380828437600081840152601f19601f820116905080830192505050505050509192919290803590602001909291905050506113c8565b005b6104c96004803603604081101561049357600080fd5b8101908080359060200190929190803573ffffffffffffffffffffffffffffffffffffffff1690602001909291905050506114dc565b005b6104d36117b6565b604051808215151515815260200191505060405180910390f35b6104f56118ea565b6040518082815260200191505060405180910390f35b6105376004803603602081101561052157600080fd5b810190808035906020019092919050505061196f565b604051808981526020018881526020018781526020018660ff1660ff168152602001851515151581526020018415151515815260200183815260200180602001828103825283818151815260200191508051906020019080838360005b838110156105af578082015181840152602081019050610594565b50505050905090810190601f1680156105dc5780820380516001836020036101000a031916815260200191505b50995050505050505050505060405180910390f35b6105f9611b84565b604051808c81526020018b81526020018a73ffffffffffffffffffffffffffffffffffffffff1673ffffffffffffffffffffffffffffffffffffffff168152602001898152602001888152602001806020018781526020018673ffffffffffffffffffffffffffffffffffffffff1673ffffffffffffffffffffffffffffffffffffffff1681526020018573ffffffffffffffffffffffffffffffffffffffff1673ffffffffffffffffffffffffffffffffffffffff16815260200180602001848152602001838103835289818151815260200191508051906020019080838360005b838110156106f75780820151818401526020810190506106dc565b50505050905090810190601f1680156107245780820380516001836020036101000a031916815260200191505b50838103825285818151815260200191508051906020019080838360005b8381101561075d578082015181840152602081019050610742565b50505050905090810190601f16801561078a5780820380516001836020036101000a031916815260200191505b509d505050505050505050505050505060405180910390f35b6107d9600480360360408110156107b957600080fd5b810190808035906020019092919080359060200190929190505050611e10565b005b6107e3611ef7565b6040518082815260200191505060405180910390f35b6108256004803603602081101561080f57600080fd5b8101908080359060200190929190505050611f86565b005b6108f46004803603604081101561083d57600080fd5b81019080803567ffffffffffffffff1690602001909291908035906020019064010000000081111561086e57600080fd5b82018360208201111561088057600080fd5b803590602001918460018302840111640100000000831117156108a257600080fd5b91908080601f016020809104026020016040519081016040528093929190818152602001838380828437600081840152601f19601f82011690508083019250505050505050919291929050505061201b565b005b6109226004803603602081101561090c57600080fd5b81019080803590602001909291905050506120e6565b005b6109506004803603602081101561093a57600080fd5b810190808035906020019092919050505061217b565b005b61095a612210565b604051808273ffffffffffffffffffffffffffffffffffffffff1673ffffffffffffffffffffffffffffffffffffffff16815260200191505060405180910390f35b610a55600480360360208110156109b257600080fd5b81019080803590602001906401000000008111156109cf57600080fd5b8201836020820111156109e157600080fd5b80359060200191846001830284011164010000000083111715610a0357600080fd5b91908080601f016020809104026020016040519081016040528093929190818152602001838380828437600081840152601f19601f8201169050808301925050505050505091929192905050506122b5565b6040518082815260200191505060405180910390f35b610ad760048036036060811015610a8157600080fd5b81019080803573ffffffffffffffffffffffffffffffffffffffff16906020019092919080359060200190929190803573ffffffffffffffffffffffffffffffffffffffff1690602001909291905050506123a3565b005b610b1b60048036036020811015610aef57600080fd5b81019080803573ffffffffffffffffffffffffffffffffffffffff16906020019092919050505061250c565b005b610b256125db565b6040518082815260200191505060405180910390f35b610b43612660565b6040518082815260200191505060405180910390f35b610b616126e5565b6040518082815260200191505060405180910390f35b610b7f61276a565b604051808381526020018273ffffffffffffffffffffffffffffffffffffffff1673ffffffffffffffffffffffffffffffffffffffff1681526020019250505060405180910390f35b610bd0612816565b604051808273ffffffffffffffffffffffffffffffffffffffff1673ffffffffffffffffffffffffffffffffffffffff16815260200191505060405180910390f35b610c5460048036036020811015610c2857600080fd5b81019080803573ffffffffffffffffffffffffffffffffffffffff1690602001909291905050506128bb565b005b610c5e61298a565b6040518082815260200191505060405180910390f35b610caa60048036036020811015610c8a57600080fd5b81019080803567ffffffffffffffff1690602001909291905050506129b1565b6040518080602001828103825283818151815260200191508051906020019080838360005b83811015610cea578082015181840152602081019050610ccf565b50505050905090810190601f168015610d175780820380516001836020036101000a031916815260200191505b509250505060405180910390f35b610d5b60048036036040811015610d3b57600080fd5b810190808035906020019092919080359060200190929190505050612af5565b005b610d65612d39565b604051808273ffffffffffffffffffffffffffffffffffffffff1673ffffffffffffffffffffffffffffffffffffffff16815260200191505060405180910390f35b610db033612dde565b80610dc05750610dbf33612f69565b5b80610dd05750610dcf336130f4565b5b610e42576040517f08c379a00000000000000000000000000000000000000000000000000000000081526004018080602001828103825260038152602001807f473234000000000000000000000000000000000000000000000000000000000081525060200191505060405180910390fd5b6001600e600086815260200190815260200160002060030160026101000a81548160ff0219169083151502179055506000600e600086815260200190815260200160002060030160016101000a81548160ff02191690831515021790555082600e60008681526020019081526020016000206005019080519060200190610eca929190613836565b5080600e600086815260200190815260200160002060030160006101000a81548160ff021916908360ff16021790555081600e60008681526020019081526020016000206004018190555050505050565b610f2433612dde565b80610f345750610f3333612f69565b5b80610f445750610f43336130f4565b5b610fb6576040517f08c379a00000000000000000000000000000000000000000000000000000000081526004018080602001828103825260038152602001807f473230000000000000000000000000000000000000000000000000000000000081525060200191505060405180910390fd5b610fc0600161327f565b60006001610fce6001613295565b03905084600e60008381526020019081526020016000206001018190555083600e60008381526020019081526020016000206000018190555082600e60008381526020019081526020016000206002018190555081600e600083815260200190815260200160002060030160016101000a81548160ff0219169083151502179055506000600e600083815260200190815260200160002060030160026101000a81548160ff0219169083151502179055505050505050565b6060611091336132a3565b611103576040517f08c379a00000000000000000000000000000000000000000000000000000000081526004018080602001828103825260038152602001807f473233000000000000000000000000000000000000000000000000000000000081525060200191505060405180910390fd5b60058054600181600116156101000203166002900480601f0160208091040260200160405190810160405280929190818152602001828054600181600116156101000203166002900480156111995780601f1061116e57610100808354040283529160200191611199565b820191906000526020600020905b81548152906001019060200180831161117c57829003601f168201915b5050505050905090565b60008060006111b1336130f4565b806111c157506111c0336132a3565b5b611233576040517f08c379a00000000000000000000000000000000000000000000000000000000081526004018080602001828103825260028152602001807f473800000000000000000000000000000000000000000000000000000000000081525060200191505060405180910390fd5b60008090506000806001905060008090505b61124f6001613295565b8110156113a05760011515600e600083815260200190815260200160002060030160019054906101000a900460ff1615151480156112b4575060001515600e600083815260200190815260200160002060030160029054906101000a900460ff161515145b80156112c4575060011515821515145b156112ee57809350600e600085815260200190815260200160002060000154925060009150611393565b60011515600e600083815260200190815260200160002060030160019054906101000a900460ff16151514801561134c575060001515600e600083815260200190815260200160002060030160029054906101000a900460ff161515145b156113925782600e600083815260200190815260200160002060000154106113745783611376565b805b9350600e60008581526020019081526020016000206000015492505b5b8080600101915050611245565b508282600e600086815260200190815260200160002060010154955095509550505050909192565b6113d133612dde565b806113e157506113e0336130f4565b5b611453576040517f08c379a00000000000000000000000000000000000000000000000000000000081526004018080602001828103825260038152602001807f473131000000000000000000000000000000000000000000000000000000000081525060200191505060405180910390fd5b8160059080519060200190611469929190613836565b5080600d836040518082805190602001908083835b602083106114a1578051825260208201915060208101905060208303925061147e565b6001836020036101000a0380198251168184511680821785525050505050509050019150509081526020016040518091039020819055505050565b6114e533612dde565b806114f557506114f433613395565b5b806115055750611504336130f4565b5b611577576040517f08c379a00000000000000000000000000000000000000000000000000000000081526004018080602001828103825260038152602001807f473138000000000000000000000000000000000000000000000000000000000081525060200191505060405180910390fd5b6000600c60009054906101000a900473ffffffffffffffffffffffffffffffffffffffff169050600083146115ac57826115b0565b600a545b92503073ffffffffffffffffffffffffffffffffffffffff168173ffffffffffffffffffffffffffffffffffffffff16636352211e856040518263ffffffff1660e01b81526004018082815260200191505060206040518083038186803b15801561161a57600080fd5b505afa15801561162e573d6000803e3d6000fd5b505050506040513d602081101561164457600080fd5b810190808051906020019092919050505073ffffffffffffffffffffffffffffffffffffffff16146116de576040517f08c379a00000000000000000000000000000000000000000000000000000000081526004018080602001828103825260038152602001807f473235000000000000000000000000000000000000000000000000000000000081525060200191505060405180910390fd5b8073ffffffffffffffffffffffffffffffffffffffff166323b872dd3084866040518463ffffffff1660e01b8152600401808473ffffffffffffffffffffffffffffffffffffffff1673ffffffffffffffffffffffffffffffffffffffff1681526020018373ffffffffffffffffffffffffffffffffffffffff1673ffffffffffffffffffffffffffffffffffffffff1681526020018281526020019350505050600060405180830381600087803b15801561179957600080fd5b505af11580156117ad573d6000803e3d6000fd5b50505050505050565b60006117c1336132a3565b806117d157506117d033613395565b5b806117e157506117e0336130f4565b5b611853576040517f08c379a00000000000000000000000000000000000000000000000000000000081526004018080602001828103825260038152602001807f473235000000000000000000000000000000000000000000000000000000000081525060200191505060405180910390fd5b60006001905060008090505b6118696001613295565b8110156118e2578180156118c95750600e600082815260200190815260200160002060030160019054906101000a900460ff1680156118c85750600e600082815260200190815260200160002060030160029054906101000a900460ff165b5b9150816118d5576118e2565b808060010191505061185f565b508091505090565b60006118f5336132a3565b611967576040517f08c379a00000000000000000000000000000000000000000000000000000000081526004018080602001828103825260038152602001807f473237000000000000000000000000000000000000000000000000000000000081525060200191505060405180910390fd5b600954905090565b60008060008060008060006060611985336132a3565b6119f7576040517f08c379a00000000000000000000000000000000000000000000000000000000081526004018080602001828103825260038152602001807f473239000000000000000000000000000000000000000000000000000000000081525060200191505060405180910390fd5b6119ff6138b6565b600e60008b8152602001908152602001600020604051806101000160405290816000820154815260200160018201548152602001600282015481526020016003820160009054906101000a900460ff1660ff1660ff1681526020016003820160019054906101000a900460ff161515151581526020016003820160029054906101000a900460ff1615151515815260200160048201548152602001600582018054600181600116156101000203166002900480601f016020809104026020016040519081016040528092919081815260200182805460018160011615610100020316600290048015611b325780601f10611b0757610100808354040283529160200191611b32565b820191906000526020600020905b815481529060010190602001808311611b1557829003601f168201915b5050505050815250509050806000015181602001518260400151836060015184608001518560a001518660c001518760e001518090509850985098509850985098509850985050919395975091939597565b60008060008060006060600080600060606000611ba0336132a3565b611c12576040517f08c379a00000000000000000000000000000000000000000000000000000000081526004018080602001828103825260058152602001807f425343303100000000000000000000000000000000000000000000000000000081525060200191505060405180910390fd5b60116000611c206010613295565b815260200190815260200160002060000154600a54600c60009054906101000a900473ffffffffffffffffffffffffffffffffffffffff16600b546006546008600954600360009054906101000a900473ffffffffffffffffffffffffffffffffffffffff16600260009054906101000a900473ffffffffffffffffffffffffffffffffffffffff166005611cb56001613295565b858054600181600116156101000203166002900480601f016020809104026020016040519081016040528092919081815260200182805460018160011615610100020316600290048015611d4a5780601f10611d1f57610100808354040283529160200191611d4a565b820191906000526020600020905b815481529060010190602001808311611d2d57829003601f168201915b50505050509550818054600181600116156101000203166002900480601f016020809104026020016040519081016040528092919081815260200182805460018160011615610100020316600290048015611de65780601f10611dbb57610100808354040283529160200191611de6565b820191906000526020600020905b815481529060010190602001808311611dc957829003601f168201915b505050505091509a509a509a509a509a509a509a509a509a509a509a50909192939495969798999a565b611e1933612dde565b80611e295750611e2833613395565b5b611e9b576040517f08c379a00000000000000000000000000000000000000000000000000000000081526004018080602001828103825260058152602001807f425343303200000000000000000000000000000000000000000000000000000081525060200191505060405180910390fd5b81601160006001611eac6010613295565b0381526020019081526020016000206000018190555080601160006001611ed36010613295565b03815260200190815260200160002060010181905550611ef3601061327f565b5050565b6000611f02336132a3565b611f74576040517f08c379a00000000000000000000000000000000000000000000000000000000081526004018080602001828103825260038152602001807f473234000000000000000000000000000000000000000000000000000000000081525060200191505060405180910390fd5b6001611f806001613295565b03905090565b611f8f33612dde565b80611f9f5750611f9e336130f4565b5b612011576040517f08c379a00000000000000000000000000000000000000000000000000000000081526004018080602001828103825260038152602001807f473136000000000000000000000000000000000000000000000000000000000081525060200191505060405180910390fd5b8060098190555050565b61202433612dde565b806120345750612033336130f4565b5b6120a6576040517f08c379a00000000000000000000000000000000000000000000000000000000081526004018080602001828103825260038152602001807f473137000000000000000000000000000000000000000000000000000000000081525060200191505060405180910390fd5b80600f60008467ffffffffffffffff1667ffffffffffffffff16815260200190815260200160002090805190602001906120e1929190613836565b505050565b6120ef33612dde565b806120ff57506120fe336130f4565b5b612171576040517f08c379a00000000000000000000000000000000000000000000000000000000081526004018080602001828103825260038152602001807f473133000000000000000000000000000000000000000000000000000000000081525060200191505060405180910390fd5b8060078190555050565b61218433612dde565b806121945750612193336130f4565b5b612206576040517f08c379a00000000000000000000000000000000000000000000000000000000081526004018080602001828103825260038152602001807f473132000000000000000000000000000000000000000000000000000000000081525060200191505060405180910390fd5b8060068190555050565b600061221b336132a3565b61228d576040517f08c379a00000000000000000000000000000000000000000000000000000000081526004018080602001828103825260028152602001807f473500000000000000000000000000000000000000000000000000000000000081525060200191505060405180910390fd5b600260009054906101000a900473ffffffffffffffffffffffffffffffffffffffff16905090565b60006122c0336132a3565b612332576040517f08c379a00000000000000000000000000000000000000000000000000000000081526004018080602001828103825260038152602001807f473238000000000000000000000000000000000000000000000000000000000081525060200191505060405180910390fd5b600d826040518082805190602001908083835b602083106123685780518252602082019150602081019050602083039250612345565b6001836020036101000a0380198251168184511680821785525050505050509050019150509081526020016040518091039020549050919050565b6123ac33612dde565b806123bc57506123bb33613395565b5b806123cc57506123cb336130f4565b5b61243e576040517f08c379a00000000000000000000000000000000000000000000000000000000081526004018080602001828103825260038152602001807f473139000000000000000000000000000000000000000000000000000000000081525060200191505060405180910390fd5b60008390508073ffffffffffffffffffffffffffffffffffffffff1663a9059cbb83856040518363ffffffff1660e01b8152600401808373ffffffffffffffffffffffffffffffffffffffff1673ffffffffffffffffffffffffffffffffffffffff16815260200182815260200192505050602060405180830381600087803b1580156124ca57600080fd5b505af11580156124de573d6000803e3d6000fd5b505050506040513d60208110156124f457600080fd5b81019080805190602001909291905050505050505050565b61251533612dde565b806125255750612524336130f4565b5b612597576040517f08c379a00000000000000000000000000000000000000000000000000000000081526004018080602001828103825260038152602001807f473134000000000000000000000000000000000000000000000000000000000081525060200191505060405180910390fd5b80600260006101000a81548173ffffffffffffffffffffffffffffffffffffffff021916908373ffffffffffffffffffffffffffffffffffffffff16021790555050565b60006125e6336132a3565b612658576040517f08c379a00000000000000000000000000000000000000000000000000000000081526004018080602001828103825260038152602001807f473235000000000000000000000000000000000000000000000000000000000081525060200191505060405180910390fd5b600654905090565b600061266b336132a3565b6126dd576040517f08c379a00000000000000000000000000000000000000000000000000000000081526004018080602001828103825260038152602001807f473236000000000000000000000000000000000000000000000000000000000081525060200191505060405180910390fd5b600754905090565b60006126f0336132a3565b612762576040517f08c379a00000000000000000000000000000000000000000000000000000000081526004018080602001828103825260028152602001807f473300000000000000000000000000000000000000000000000000000000000081525060200191505060405180910390fd5b600b54905090565b600080612776336132a3565b6127e8576040517f08c379a00000000000000000000000000000000000000000000000000000000081526004018080602001828103825260028152602001807f473200000000000000000000000000000000000000000000000000000000000081525060200191505060405180910390fd5b600a54600c60009054906101000a900473ffffffffffffffffffffffffffffffffffffffff16915091509091565b6000612821336132a3565b612893576040517f08c379a00000000000000000000000000000000000000000000000000000000081526004018080602001828103825260028152602001807f473600000000000000000000000000000000000000000000000000000000000081525060200191505060405180910390fd5b600460009054906101000a900473ffffffffffffffffffffffffffffffffffffffff16905090565b6128c433612dde565b806128d457506128d3336130f4565b5b612946576040517f08c379a00000000000000000000000000000000000000000000000000000000081526004018080602001828103825260038152602001807f473135000000000000000000000000000000000000000000000000000000000081525060200191505060405180910390fd5b80600460006101000a81548173ffffffffffffffffffffffffffffffffffffffff021916908373ffffffffffffffffffffffffffffffffffffffff16021790555050565b60006011600061299a6010613295565b815260200190815260200160002060000154905090565b60606129bc336132a3565b612a2e576040517f08c379a00000000000000000000000000000000000000000000000000000000081526004018080602001828103825260028152602001807f473700000000000000000000000000000000000000000000000000000000000081525060200191505060405180910390fd5b600f60008367ffffffffffffffff1667ffffffffffffffff1681526020019081526020016000208054600181600116156101000203166002900480601f016020809104026020016040519081016040528092919081815260200182805460018160011615610100020316600290048015612ae95780601f10612abe57610100808354040283529160200191612ae9565b820191906000526020600020905b815481529060010190602001808311612acc57829003601f168201915b50505050509050919050565b612afe33612dde565b80612b0e5750612b0d33612f69565b5b80612b1e5750612b1d336130f4565b5b612b90576040517f08c379a00000000000000000000000000000000000000000000000000000000081526004018080602001828103825260038152602001807f473231000000000000000000000000000000000000000000000000000000000081525060200191505060405180910390fd5b60008210158015612ba95750612ba66001613295565b82105b612c1b576040517f08c379a00000000000000000000000000000000000000000000000000000000081526004018080602001828103825260038152602001807f473232000000000000000000000000000000000000000000000000000000000081525060200191505060405180910390fd5b60001515600e600084815260200190815260200160002060030160029054906101000a900460ff161515148015612c79575060011515600e600084815260200190815260200160002060030160019054906101000a900460ff161515145b612ceb576040517f08c379a00000000000000000000000000000000000000000000000000000000081526004018080602001828103825260038152602001807f473233000000000000000000000000000000000000000000000000000000000081525060200191505060405180910390fd5b6000600e600084815260200190815260200160002060030160016101000a81548160ff02191690831515021790555080600e6000848152602001908152602001600020600401819055505050565b6000612d44336132a3565b612db6576040517f08c379a00000000000000000000000000000000000000000000000000000000081526004018080602001828103825260028152602001807f473400000000000000000000000000000000000000000000000000000000000081525060200191505060405180910390fd5b600360009054906101000a900473ffffffffffffffffffffffffffffffffffffffff16905090565b60008060009054906101000a900473ffffffffffffffffffffffffffffffffffffffff1673ffffffffffffffffffffffffffffffffffffffff166391d148546000809054906101000a900473ffffffffffffffffffffffffffffffffffffffff1673ffffffffffffffffffffffffffffffffffffffff166375b238fc6040518163ffffffff1660e01b815260040160206040518083038186803b158015612e8457600080fd5b505afa158015612e98573d6000803e3d6000fd5b505050506040513d6020811015612eae57600080fd5b8101908080519060200190929190505050846040518363ffffffff1660e01b8152600401808381526020018273ffffffffffffffffffffffffffffffffffffffff1673ffffffffffffffffffffffffffffffffffffffff1681526020019250505060206040518083038186803b158015612f2757600080fd5b505afa158015612f3b573d6000803e3d6000fd5b505050506040513d6020811015612f5157600080fd5b81019080805190602001909291905050509050919050565b60008060009054906101000a900473ffffffffffffffffffffffffffffffffffffffff1673ffffffffffffffffffffffffffffffffffffffff166391d148546000809054906101000a900473ffffffffffffffffffffffffffffffffffffffff1673ffffffffffffffffffffffffffffffffffffffff1663ef0fe2456040518163ffffffff1660e01b815260040160206040518083038186803b15801561300f57600080fd5b505afa158015613023573d6000803e3d6000fd5b505050506040513d602081101561303957600080fd5b8101908080519060200190929190505050846040518363ffffffff1660e01b8152600401808381526020018273ffffffffffffffffffffffffffffffffffffffff1673ffffffffffffffffffffffffffffffffffffffff1681526020019250505060206040518083038186803b1580156130b257600080fd5b505afa1580156130c6573d6000803e3d6000fd5b505050506040513d60208110156130dc57600080fd5b81019080805190602001909291905050509050919050565b60008060009054906101000a900473ffffffffffffffffffffffffffffffffffffffff1673ffffffffffffffffffffffffffffffffffffffff166391d148546000809054906101000a900473ffffffffffffffffffffffffffffffffffffffff1673ffffffffffffffffffffffffffffffffffffffff16634d5e07fb6040518163ffffffff1660e01b815260040160206040518083038186803b15801561319a57600080fd5b505afa1580156131ae573d6000803e3d6000fd5b505050506040513d60208110156131c457600080fd5b8101908080519060200190929190505050846040518363ffffffff1660e01b8152600401808381526020018273ffffffffffffffffffffffffffffffffffffffff1673ffffffffffffffffffffffffffffffffffffffff1681526020019250505060206040518083038186803b15801561323d57600080fd5b505afa158015613251573d6000803e3d6000fd5b505050506040513d602081101561326757600080fd5b81019080805190602001909291905050509050919050565b6001816000016000828254019250508190555050565b600081600001549050919050565b6000600360009054906101000a900473ffffffffffffffffffffffffffffffffffffffff1673ffffffffffffffffffffffffffffffffffffffff168273ffffffffffffffffffffffffffffffffffffffff16148061334e5750600260009054906101000a900473ffffffffffffffffffffffffffffffffffffffff1673ffffffffffffffffffffffffffffffffffffffff168273ffffffffffffffffffffffffffffffffffffffff16145b8061335e575061335d82612dde565b5b8061336e575061336d82613520565b5b8061337e575061337d82612f69565b5b8061338e575061338d826136ab565b5b9050919050565b60008060009054906101000a900473ffffffffffffffffffffffffffffffffffffffff1673ffffffffffffffffffffffffffffffffffffffff166391d148546000809054906101000a900473ffffffffffffffffffffffffffffffffffffffff1673ffffffffffffffffffffffffffffffffffffffff166384138b9b6040518163ffffffff1660e01b815260040160206040518083038186803b15801561343b57600080fd5b505afa15801561344f573d6000803e3d6000fd5b505050506040513d602081101561346557600080fd5b8101908080519060200190929190505050846040518363ffffffff1660e01b8152600401808381526020018273ffffffffffffffffffffffffffffffffffffffff1673ffffffffffffffffffffffffffffffffffffffff1681526020019250505060206040518083038186803b1580156134de57600080fd5b505afa1580156134f2573d6000803e3d6000fd5b505050506040513d602081101561350857600080fd5b81019080805190602001909291905050509050919050565b60008060009054906101000a900473ffffffffffffffffffffffffffffffffffffffff1673ffffffffffffffffffffffffffffffffffffffff166391d148546000809054906101000a900473ffffffffffffffffffffffffffffffffffffffff1673ffffffffffffffffffffffffffffffffffffffff16634db08aea6040518163ffffffff1660e01b815260040160206040518083038186803b1580156135c657600080fd5b505afa1580156135da573d6000803e3d6000fd5b505050506040513d60208110156135f057600080fd5b8101908080519060200190929190505050846040518363ffffffff1660e01b8152600401808381526020018273ffffffffffffffffffffffffffffffffffffffff1673ffffffffffffffffffffffffffffffffffffffff1681526020019250505060206040518083038186803b15801561366957600080fd5b505afa15801561367d573d6000803e3d6000fd5b505050506040513d602081101561369357600080fd5b81019080805190602001909291905050509050919050565b60008060009054906101000a900473ffffffffffffffffffffffffffffffffffffffff1673ffffffffffffffffffffffffffffffffffffffff166391d148546000809054906101000a900473ffffffffffffffffffffffffffffffffffffffff1673ffffffffffffffffffffffffffffffffffffffff1663e90524f26040518163ffffffff1660e01b815260040160206040518083038186803b15801561375157600080fd5b505afa158015613765573d6000803e3d6000fd5b505050506040513d602081101561377b57600080fd5b8101908080519060200190929190505050846040518363ffffffff1660e01b8152600401808381526020018273ffffffffffffffffffffffffffffffffffffffff1673ffffffffffffffffffffffffffffffffffffffff1681526020019250505060206040518083038186803b1580156137f457600080fd5b505afa158015613808573d6000803e3d6000fd5b505050506040513d602081101561381e57600080fd5b81019080805190602001909291905050509050919050565b828054600181600116156101000203166002900490600052602060002090601f016020900481019282601f1061387757805160ff19168380011785556138a5565b828001600101855582156138a5579182015b828111156138a4578251825591602001919060010190613889565b5b5090506138b29190613902565b5090565b604051806101000160405280600081526020016000815260200160008152602001600060ff16815260200160001515815260200160001515815260200160008152602001606081525090565b61392491905b80821115613920576000816000905550600101613908565b5090565b9056fea2646970667358221220ed1aa595f4ad25df8e8206b10d4a81fe6c18214432a79e114f36293a4d83872364736f6c63430006020033a2646970667358221220029016cd4b22fae302e95f6997c1a0e60c2e7b4373bc7d0f4a1c244039df836d64736f6c63430006020033",
  "source": "pragma solidity ^0.6.0;\n\nimport \"./BuySideContract.sol\";\nimport \"./SellSideContract.sol\";\nimport \"../utils/access.sol\";\ncontract contractFactory is Access {\n    \n    \n    constructor(address _a) public {\n        access = PermissionControl(_a);\n        require(_isAdmin(msg.sender),\"F1\");\n    \n    }\n    \n    function updateAccessControl(address _a) public {\n        require(_isCR(msg.sender),\"F2\");\n        access = PermissionControl(_a);\n        \n    }\n    \n    function createNewBuySideContract(uint256 _itemID, uint256 _price, uint256 _feesprecentage, string memory _currency,\n                                        uint256 _createdatetime,address _seller,address _access,address _baseaddr) public\n    returns(address _i)\n    {\n        \n        require(_isAdmin(msg.sender) || _isExpense(msg.sender),\"F3\");\n        BuySideContract i = new BuySideContract(_itemID,_baseaddr, _price,_feesprecentage,_currency,_createdatetime,_access,_seller,msg.sender);\n        return(address(i));\n        \n    }\n    \n    function createNewSellSideContract(uint256 _itemID,address _base,uint256 _price,address _sellsideorder, uint256 _datetime,\n                                        string memory _currency,address _access,address _seller,uint256 currentID) public \n    returns(address _i)\n    {\n         require(_isAdmin(msg.sender) || _isOrder(msg.sender),\"F3\");\n         SellSideContract b = new SellSideContract(_itemID,_base,_price,_currency,_datetime,_access,_seller,currentID,_sellsideorder);\n         return(address(b));\n    }\n    \n    \n    \n    \n}",
  "sourcePath": "/home/dickchan/ERC721Marketplace/contracts/BuySellContract/ContractFactory.sol",
  "compiler": {
    "name": "solc",
    "version": "0.6.2+commit.bacdbe57.Emscripten.clang"
  },
  "schemaVersion": "3.2.3",
  "updatedAt": "2020-11-19T03:19:31.360Z",
  "devdoc": {
    "methods": {}
  },
  "userdoc": {
    "methods": {}
  }
}