{
  "contractName": "erc721DirectoryService",
  "abi": [
    {
      "inputs": [
        {
          "internalType": "address",
          "name": "_access",
          "type": "address"
        }
      ],
      "stateMutability": "nonpayable",
      "type": "constructor"
    },
    {
      "inputs": [
        {
          "internalType": "uint256",
          "name": "_id",
          "type": "uint256"
        }
      ],
      "name": "getBaseAddress",
      "outputs": [
        {
          "internalType": "address",
          "name": "_a",
          "type": "address"
        }
      ],
      "stateMutability": "view",
      "type": "function"
    },
    {
      "inputs": [
        {
          "internalType": "uint256",
          "name": "_id",
          "type": "uint256"
        },
        {
          "internalType": "address",
          "name": "_base",
          "type": "address"
        }
      ],
      "name": "setBaseAddress",
      "outputs": [],
      "stateMutability": "nonpayable",
      "type": "function"
    },
    {
      "inputs": [],
      "name": "getCount",
      "outputs": [
        {
          "internalType": "uint256",
          "name": "_c",
          "type": "uint256"
        }
      ],
      "stateMutability": "view",
      "type": "function"
    }
  ],
  "bytecode": "0x608060405234801561001057600080fd5b50604051610c34380380610c348339818101604052602081101561003357600080fd5b8101908080519060200190929190505050806000806101000a81548173ffffffffffffffffffffffffffffffffffffffff021916908373ffffffffffffffffffffffffffffffffffffffff1602179055506100933361011360201b60201c565b610105576040517f08c379a00000000000000000000000000000000000000000000000000000000081526004018080602001828103825260048152602001807f445330310000000000000000000000000000000000000000000000000000000081525060200191505060405180910390fd5b60006001819055505061029e565b60008060009054906101000a900473ffffffffffffffffffffffffffffffffffffffff1673ffffffffffffffffffffffffffffffffffffffff166391d148546000809054906101000a900473ffffffffffffffffffffffffffffffffffffffff1673ffffffffffffffffffffffffffffffffffffffff166375b238fc6040518163ffffffff1660e01b815260040160206040518083038186803b1580156101b957600080fd5b505afa1580156101cd573d6000803e3d6000fd5b505050506040513d60208110156101e357600080fd5b8101908080519060200190929190505050846040518363ffffffff1660e01b8152600401808381526020018273ffffffffffffffffffffffffffffffffffffffff1673ffffffffffffffffffffffffffffffffffffffff1681526020019250505060206040518083038186803b15801561025c57600080fd5b505afa158015610270573d6000803e3d6000fd5b505050506040513d602081101561028657600080fd5b81019080805190602001909291905050509050919050565b610987806102ad6000396000f3fe608060405234801561001057600080fd5b50600436106100415760003560e01c80633607a2aa14610046578063a87d942c146100b4578063aba47540146100d2575b600080fd5b6100726004803603602081101561005c57600080fd5b8101908080359060200190929190505050610120565b604051808273ffffffffffffffffffffffffffffffffffffffff1673ffffffffffffffffffffffffffffffffffffffff16815260200191505060405180910390f35b6100bc610427565b6040518082815260200191505060405180910390f35b61011e600480360360408110156100e857600080fd5b8101908080359060200190929190803573ffffffffffffffffffffffffffffffffffffffff1690602001909291905050506104ac565b005b60008060009054906101000a900473ffffffffffffffffffffffffffffffffffffffff1673ffffffffffffffffffffffffffffffffffffffff166391d148546000809054906101000a900473ffffffffffffffffffffffffffffffffffffffff1673ffffffffffffffffffffffffffffffffffffffff16631c681a426040518163ffffffff1660e01b815260040160206040518083038186803b1580156101c657600080fd5b505afa1580156101da573d6000803e3d6000fd5b505050506040513d60208110156101f057600080fd5b8101908080519060200190929190505050336040518363ffffffff1660e01b8152600401808381526020018273ffffffffffffffffffffffffffffffffffffffff1673ffffffffffffffffffffffffffffffffffffffff1681526020019250505060206040518083038186803b15801561026957600080fd5b505afa15801561027d573d6000803e3d6000fd5b505050506040513d602081101561029357600080fd5b8101908080519060200190929190505050610316576040517f08c379a00000000000000000000000000000000000000000000000000000000081526004018080602001828103825260048152602001807f445330320000000000000000000000000000000000000000000000000000000081525060200191505060405180910390fd5b600073ffffffffffffffffffffffffffffffffffffffff166002600084815260200190815260200160002060009054906101000a900473ffffffffffffffffffffffffffffffffffffffff1673ffffffffffffffffffffffffffffffffffffffff1614156103ec576040517f08c379a00000000000000000000000000000000000000000000000000000000081526004018080602001828103825260028152602001807f443100000000000000000000000000000000000000000000000000000000000081525060200191505060405180910390fd5b6002600083815260200190815260200160002060009054906101000a900473ffffffffffffffffffffffffffffffffffffffff169050919050565b6000610432336107c6565b6104a4576040517f08c379a00000000000000000000000000000000000000000000000000000000081526004018080602001828103825260048152602001807f445330340000000000000000000000000000000000000000000000000000000081525060200191505060405180910390fd5b600154905090565b6000809054906101000a900473ffffffffffffffffffffffffffffffffffffffff1673ffffffffffffffffffffffffffffffffffffffff166391d148546000809054906101000a900473ffffffffffffffffffffffffffffffffffffffff1673ffffffffffffffffffffffffffffffffffffffff16631e4bccd36040518163ffffffff1660e01b815260040160206040518083038186803b15801561055057600080fd5b505afa158015610564573d6000803e3d6000fd5b505050506040513d602081101561057a57600080fd5b8101908080519060200190929190505050336040518363ffffffff1660e01b8152600401808381526020018273ffffffffffffffffffffffffffffffffffffffff1673ffffffffffffffffffffffffffffffffffffffff1681526020019250505060206040518083038186803b1580156105f357600080fd5b505afa158015610607573d6000803e3d6000fd5b505050506040513d602081101561061d57600080fd5b81019080805190602001909291905050508061063e575061063d336107c6565b5b6106b0576040517f08c379a00000000000000000000000000000000000000000000000000000000081526004018080602001828103825260048152602001807f445330330000000000000000000000000000000000000000000000000000000081525060200191505060405180910390fd5b600082141580156106ee5750600073ffffffffffffffffffffffffffffffffffffffff168173ffffffffffffffffffffffffffffffffffffffff1614155b610760576040517f08c379a00000000000000000000000000000000000000000000000000000000081526004018080602001828103825260028152602001807f443300000000000000000000000000000000000000000000000000000000000081525060200191505060405180910390fd5b806002600084815260200190815260200160002060006101000a81548173ffffffffffffffffffffffffffffffffffffffff021916908373ffffffffffffffffffffffffffffffffffffffff160217905550600180600082825401925050819055505050565b60008060009054906101000a900473ffffffffffffffffffffffffffffffffffffffff1673ffffffffffffffffffffffffffffffffffffffff166391d148546000809054906101000a900473ffffffffffffffffffffffffffffffffffffffff1673ffffffffffffffffffffffffffffffffffffffff166375b238fc6040518163ffffffff1660e01b815260040160206040518083038186803b15801561086c57600080fd5b505afa158015610880573d6000803e3d6000fd5b505050506040513d602081101561089657600080fd5b8101908080519060200190929190505050846040518363ffffffff1660e01b8152600401808381526020018273ffffffffffffffffffffffffffffffffffffffff1673ffffffffffffffffffffffffffffffffffffffff1681526020019250505060206040518083038186803b15801561090f57600080fd5b505afa158015610923573d6000803e3d6000fd5b505050506040513d602081101561093957600080fd5b8101908080519060200190929190505050905091905056fea2646970667358221220f5c87fad13ee16f70471c4d08efed0d62762e09b877d6b64ee346e93153ab41464736f6c63430006020033",
  "source": "pragma solidity ^0.6.0;\nimport \"./access.sol\";\nimport \"openzeppelin-solidity/contracts/utils/Address.sol\";\ncontract erc721DirectoryService is Access {\n    \n    using Address for address;\n    \n    uint256 count;\n    \n    mapping(uint256 => address) private baseAddressLooup;\n\n    constructor(address _access) public \n    {\n        access = PermissionControl(_access);\n        require(_isAdmin(msg.sender),\"DS01\");\n        count=0;\n    }\n    \n    function getBaseAddress(uint256 _id) public view\n    returns(address _a)\n    {\n        require(access.hasRole(access.MEMBER(),msg.sender),\"DS02\");\n        require(baseAddressLooup[_id]!=address(0),\"D1\");\n        return(baseAddressLooup[_id]);\n        \n    }\n    \n    function setBaseAddress(uint256 _id,address _base) public\n    {\n        require(access.hasRole(access.ERC721TOKEN(),msg.sender) || _isAdmin(msg.sender),\"DS03\");\n        require(_id!=0 && _base!=address(0),\"D3\");\n        baseAddressLooup[_id]=_base;\n        count+=1;\n    }\n    \n    function getCount() public view\n    returns(uint256 _c)\n    {\n        require( _isAdmin(msg.sender),\"DS04\");\n        return count;\n    }\n    \n}",
  "sourcePath": "/home/dickchan/ERC721Marketplace/contracts/utils/erc721DirectoryLookup.sol",
  "compiler": {
    "name": "solc",
    "version": "0.6.2+commit.bacdbe57.Emscripten.clang"
  },
  "schemaVersion": "3.2.3",
  "updatedAt": "2020-11-19T07:51:27.306Z",
  "devdoc": {
    "methods": {}
  },
  "userdoc": {
    "methods": {}
  }
}