{
  "contractName": "expenseBookLibrary",
  "abi": [
    {
      "anonymous": false,
      "inputs": [
        {
          "indexed": false,
          "internalType": "uint256",
          "name": "ad",
          "type": "uint256"
        },
        {
          "indexed": false,
          "internalType": "address",
          "name": "seller",
          "type": "address"
        },
        {
          "indexed": false,
          "internalType": "uint256",
          "name": "itemID",
          "type": "uint256"
        },
        {
          "indexed": false,
          "internalType": "uint256",
          "name": "p",
          "type": "uint256"
        },
        {
          "indexed": false,
          "internalType": "uint256",
          "name": "f",
          "type": "uint256"
        },
        {
          "indexed": false,
          "internalType": "string",
          "name": "c",
          "type": "string"
        },
        {
          "indexed": false,
          "internalType": "uint256",
          "name": "d",
          "type": "uint256"
        }
      ],
      "name": "NewOrderRequest",
      "type": "event"
    },
    {
      "anonymous": false,
      "inputs": [
        {
          "indexed": false,
          "internalType": "uint256",
          "name": "ad",
          "type": "uint256"
        },
        {
          "indexed": false,
          "internalType": "string",
          "name": "status",
          "type": "string"
        },
        {
          "indexed": false,
          "internalType": "string",
          "name": "action",
          "type": "string"
        },
        {
          "indexed": false,
          "internalType": "uint256",
          "name": "_datetime",
          "type": "uint256"
        }
      ],
      "name": "OrderStatusChange",
      "type": "event"
    },
    {
      "inputs": [
        {
          "internalType": "string",
          "name": "",
          "type": "string"
        }
      ],
      "name": "currencydecimal",
      "outputs": [
        {
          "internalType": "uint8",
          "name": "",
          "type": "uint8"
        }
      ],
      "stateMutability": "view",
      "type": "function"
    },
    {
      "inputs": [
        {
          "internalType": "uint256",
          "name": "",
          "type": "uint256"
        }
      ],
      "name": "token",
      "outputs": [
        {
          "internalType": "bool",
          "name": "",
          "type": "bool"
        }
      ],
      "stateMutability": "view",
      "type": "function"
    },
    {
      "inputs": [
        {
          "internalType": "uint256",
          "name": "_itemID",
          "type": "uint256"
        },
        {
          "internalType": "uint256",
          "name": "_price",
          "type": "uint256"
        },
        {
          "internalType": "uint256",
          "name": "_feesprecentage",
          "type": "uint256"
        },
        {
          "internalType": "string",
          "name": "_currency",
          "type": "string"
        },
        {
          "internalType": "uint256",
          "name": "_createdatetime",
          "type": "uint256"
        },
        {
          "internalType": "address",
          "name": "_seller",
          "type": "address"
        }
      ],
      "name": "createOrderRequest",
      "outputs": [],
      "stateMutability": "nonpayable",
      "type": "function"
    },
    {
      "inputs": [
        {
          "internalType": "uint256",
          "name": "_orderid",
          "type": "uint256"
        },
        {
          "internalType": "uint256",
          "name": "_datetime",
          "type": "uint256"
        },
        {
          "internalType": "string",
          "name": "_msg",
          "type": "string"
        }
      ],
      "name": "rejectRequest",
      "outputs": [],
      "stateMutability": "nonpayable",
      "type": "function"
    },
    {
      "inputs": [
        {
          "internalType": "uint256",
          "name": "_orderid",
          "type": "uint256"
        },
        {
          "internalType": "uint256",
          "name": "_datetime",
          "type": "uint256"
        }
      ],
      "name": "cancelRequest",
      "outputs": [],
      "stateMutability": "nonpayable",
      "type": "function"
    },
    {
      "inputs": [
        {
          "internalType": "uint256",
          "name": "_orderid",
          "type": "uint256"
        },
        {
          "internalType": "uint256",
          "name": "_price",
          "type": "uint256"
        },
        {
          "internalType": "bool",
          "name": "_createtrade",
          "type": "bool"
        },
        {
          "internalType": "uint256",
          "name": "_datetime",
          "type": "uint256"
        },
        {
          "internalType": "string",
          "name": "_currency",
          "type": "string"
        }
      ],
      "name": "acceptRequest",
      "outputs": [],
      "stateMutability": "nonpayable",
      "type": "function"
    },
    {
      "inputs": [
        {
          "internalType": "uint256",
          "name": "_orderid",
          "type": "uint256"
        },
        {
          "internalType": "uint256",
          "name": "_datetime",
          "type": "uint256"
        }
      ],
      "name": "cancelOrder",
      "outputs": [],
      "stateMutability": "nonpayable",
      "type": "function"
    },
    {
      "inputs": [
        {
          "internalType": "uint256",
          "name": "_orderid",
          "type": "uint256"
        },
        {
          "internalType": "uint256",
          "name": "_price",
          "type": "uint256"
        },
        {
          "internalType": "uint256",
          "name": "_datetime",
          "type": "uint256"
        },
        {
          "internalType": "string",
          "name": "_currency",
          "type": "string"
        }
      ],
      "name": "addTrade",
      "outputs": [],
      "stateMutability": "nonpayable",
      "type": "function"
    },
    {
      "inputs": [
        {
          "internalType": "uint256",
          "name": "_orderid",
          "type": "uint256"
        },
        {
          "internalType": "uint256",
          "name": "_datetime",
          "type": "uint256"
        }
      ],
      "name": "cancelTrade",
      "outputs": [],
      "stateMutability": "nonpayable",
      "type": "function"
    },
    {
      "inputs": [
        {
          "internalType": "address",
          "name": "_contract",
          "type": "address"
        },
        {
          "internalType": "uint256",
          "name": "_datetime",
          "type": "uint256"
        }
      ],
      "name": "fullFillTrade",
      "outputs": [],
      "stateMutability": "nonpayable",
      "type": "function"
    },
    {
      "inputs": [
        {
          "internalType": "uint256",
          "name": "_orderid",
          "type": "uint256"
        },
        {
          "internalType": "uint256",
          "name": "_settledate",
          "type": "uint256"
        },
        {
          "internalType": "uint256",
          "name": "_settleamount",
          "type": "uint256"
        },
        {
          "internalType": "uint256",
          "name": "_datetime",
          "type": "uint256"
        }
      ],
      "name": "addSettlementPlan",
      "outputs": [],
      "stateMutability": "nonpayable",
      "type": "function"
    },
    {
      "inputs": [
        {
          "internalType": "uint256",
          "name": "_orderid",
          "type": "uint256"
        },
        {
          "internalType": "string",
          "name": "_banktx",
          "type": "string"
        },
        {
          "internalType": "uint256",
          "name": "_paymentdate",
          "type": "uint256"
        },
        {
          "internalType": "uint8",
          "name": "_paymenttype",
          "type": "uint8"
        },
        {
          "internalType": "uint256",
          "name": "_datetime",
          "type": "uint256"
        }
      ],
      "name": "settleOrder",
      "outputs": [],
      "stateMutability": "nonpayable",
      "type": "function"
    }
  ],
  "bytecode": "0x608060405234801561001057600080fd5b50615e2f80620000216000396000f3fe608060405234801561001057600080fd5b50600436106100b45760003560e01c80636b431774116100715780636b4317741461040e5780638947149414610511578063b6ed0632146105f7578063bed313731461062f578063d586d2e414610708578063d630700714610740576100b4565b8063044215c6146100b95780632f0467c7146100ff57806361b5fe131461014d57806364339dbf1461021c57806366127a5b146102545780636857567314610329575b600080fd5b6100e5600480360360208110156100cf57600080fd5b810190808035906020019092919050505061078c565b604051808215151515815260200191505060405180910390f35b61014b6004803603604081101561011557600080fd5b81019080803573ffffffffffffffffffffffffffffffffffffffff169060200190929190803590602001909291905050506107ac565b005b61021a6004803603606081101561016357600080fd5b8101908080359060200190929190803590602001909291908035906020019064010000000081111561019457600080fd5b8201836020820111156101a657600080fd5b803590602001918460018302840111640100000000831117156101c857600080fd5b91908080601f016020809104026020016040519081016040528093929190818152602001838380828437600081840152601f19601f820116905080830192505050505050509192919290505050610b01565b005b6102526004803603604081101561023257600080fd5b810190808035906020019092919080359060200190929190505050610dea565b005b61030d6004803603602081101561026a57600080fd5b810190808035906020019064010000000081111561028757600080fd5b82018360208201111561029957600080fd5b803590602001918460018302840111640100000000831117156102bb57600080fd5b91908080601f016020809104026020016040519081016040528093929190818152602001838380828437600081840152601f19601f820116905080830192505050505050509192919290505050611110565b604051808260ff1660ff16815260200191505060405180910390f35b61040c600480360360a081101561033f57600080fd5b810190808035906020019092919080359060200190929190803515159060200190929190803590602001909291908035906020019064010000000081111561038657600080fd5b82018360208201111561039857600080fd5b803590602001918460018302840111640100000000831117156103ba57600080fd5b91908080601f016020809104026020016040519081016040528093929190818152602001838380828437600081840152601f19601f820116905080830192505050505050509192919290505050611146565b005b61050f600480360360c081101561042457600080fd5b810190808035906020019092919080359060200190929190803590602001909291908035906020019064010000000081111561045f57600080fd5b82018360208201111561047157600080fd5b8035906020019184600183028401116401000000008311171561049357600080fd5b91908080601f016020809104026020016040519081016040528093929190818152602001838380828437600081840152601f19601f82011690508083019250505050505050919291929080359060200190929190803573ffffffffffffffffffffffffffffffffffffffff169060200190929190505050611797565b005b6105f5600480360360a081101561052757600080fd5b81019080803590602001909291908035906020019064010000000081111561054e57600080fd5b82018360208201111561056057600080fd5b8035906020019184600183028401116401000000008311171561058257600080fd5b91908080601f016020809104026020016040519081016040528093929190818152602001838380828437600081840152601f19601f82011690508083019250505050505050919291929080359060200190929190803560ff16906020019092919080359060200190929190505050612167565b005b61062d6004803603604081101561060d57600080fd5b81019080803590602001909291908035906020019092919050505061278d565b005b6107066004803603608081101561064557600080fd5b810190808035906020019092919080359060200190929190803590602001909291908035906020019064010000000081111561068057600080fd5b82018360208201111561069257600080fd5b803590602001918460018302840111640100000000831117156106b457600080fd5b91908080601f016020809104026020016040519081016040528093929190818152602001838380828437600081840152601f19601f820116905080830192505050505050509192919290505050612bf8565b005b61073e6004803603604081101561071e57600080fd5b8101908080359060200190929190803590602001909291905050506131d2565b005b61078a6004803603608081101561075657600080fd5b81019080803590602001909291908035906020019092919080359060200190929190803590602001909291905050506134df565b005b600b6020528060005260406000206000915054906101000a900460ff1681565b600073ffffffffffffffffffffffffffffffffffffffff168273ffffffffffffffffffffffffffffffffffffffff16141561084f576040517f08c379a00000000000000000000000000000000000000000000000000000000081526004018080602001828103825260038152602001807f453139000000000000000000000000000000000000000000000000000000000081525060200191505060405180910390fd5b6000600960008473ffffffffffffffffffffffffffffffffffffffff1673ffffffffffffffffffffffffffffffffffffffff16815260200190815260200160002054905061089c33613760565b61090e576040517f08c379a00000000000000000000000000000000000000000000000000000000081526004018080602001828103825260038152602001807f453230000000000000000000000000000000000000000000000000000000000081525060200191505060405180910390fd5b6000606061095961091e866138eb565b6040518060400160405280600d81526020017f66756c6c46696c6c547261646500000000000000000000000000000000000000815250613b7b565b91509150816109d0576040517f08c379a00000000000000000000000000000000000000000000000000000000081526004018080602001828103825260038152602001807f453231000000000000000000000000000000000000000000000000000000000081525060200191505060405180910390fd5b6109db858286613d80565b7f18e6968414f33702467961559c1912d6c91683d964cc4a3aa8944716773ed787838286604051808481526020018060200180602001848152602001838103835285818151815260200191508051906020019080838360005b83811015610a4f578082015181840152602081019050610a34565b50505050905090810190601f168015610a7c5780820380516001836020036101000a031916815260200191505b508381038252600d8152602001807f66756c6c46696c6c5472616465000000000000000000000000000000000000008152506020019550505050505060405180910390a1610ac985613fb1565b50809350506000600b600085815260200190815260200160002060006101000a81548160ff0219169083151502179055505050505050565b610b0a336141a8565b80610b1a5750610b1933614333565b5b610b8c576040517f08c379a00000000000000000000000000000000000000000000000000000000081526004018080602001828103825260028152602001807f453600000000000000000000000000000000000000000000000000000000000081525060200191505060405180910390fd5b60006060610c0a610bcf6008600088815260200190815260200160002060009054906101000a900473ffffffffffffffffffffffffffffffffffffffff166138eb565b6040518060400160405280600d81526020017f72656a6563745265717565737400000000000000000000000000000000000000815250613b7b565b9150915081610c81576040517f08c379a00000000000000000000000000000000000000000000000000000000081526004018080602001828103825260028152602001807f453500000000000000000000000000000000000000000000000000000000000081525060200191505060405180910390fd5b610cc06008600087815260200190815260200160002060009054906101000a900473ffffffffffffffffffffffffffffffffffffffff166000856144be565b610cfe6008600087815260200190815260200160002060009054906101000a900473ffffffffffffffffffffffffffffffffffffffff168286613d80565b7f18e6968414f33702467961559c1912d6c91683d964cc4a3aa8944716773ed787858286604051808481526020018060200180602001848152602001838103835285818151815260200191508051906020019080838360005b83811015610d72578082015181840152602081019050610d57565b50505050905090810190601f168015610d9f5780820380516001836020036101000a031916815260200191505b508381038252600d8152602001807f72656a65637452657175657374000000000000000000000000000000000000008152506020019550505050505060405180910390a15050505050565b60006008600084815260200190815260200160002060009054906101000a900473ffffffffffffffffffffffffffffffffffffffff169050610e2b33614333565b80610e3b5750610e3a336141a8565b5b610ead576040517f08c379a00000000000000000000000000000000000000000000000000000000081526004018080602001828103825260038152602001807f453137000000000000000000000000000000000000000000000000000000000081525060200191505060405180910390fd5b60006060610ef8610ebd846138eb565b6040518060400160405280600b81526020017f63616e63656c5472616465000000000000000000000000000000000000000000815250613b7b565b9150915081610f6f576040517f08c379a00000000000000000000000000000000000000000000000000000000081526004018080602001828103825260038152602001807f453138000000000000000000000000000000000000000000000000000000000081525060200191505060405180910390fd5b600360009054906101000a900473ffffffffffffffffffffffffffffffffffffffff1673ffffffffffffffffffffffffffffffffffffffff16630b8b1caf610fb685614703565b8660006040518463ffffffff1660e01b815260040180848152602001838152602001821515151581526020019350505050600060405180830381600087803b15801561100157600080fd5b505af1158015611015573d6000803e3d6000fd5b50505050611024838286613d80565b7f18e6968414f33702467961559c1912d6c91683d964cc4a3aa8944716773ed787858286604051808481526020018060200180602001848152602001838103835285818151815260200191508051906020019080838360005b8381101561109857808201518184015260208101905061107d565b50505050905090810190601f1680156110c55780820380516001836020036101000a031916815260200191505b508381038252600b8152602001807f63616e63656c54726164650000000000000000000000000000000000000000008152506020019550505050505060405180910390a15050505050565b600a818051602081018201805184825260208301602085012081835280955050505050506000915054906101000a900460ff1681565b60006008600087815260200190815260200160002060009054906101000a900473ffffffffffffffffffffffffffffffffffffffff16905061118733614333565b806111975750611196336141a8565b5b611209576040517f08c379a00000000000000000000000000000000000000000000000000000000081526004018080602001828103825260028152602001807f453800000000000000000000000000000000000000000000000000000000000081525060200191505060405180910390fd5b611212816148ea565b851015611287576040517f08c379a00000000000000000000000000000000000000000000000000000000081526004018080602001828103825260028152602001807f453900000000000000000000000000000000000000000000000000000000000081525060200191505060405180910390fd5b600060606112d2611297846138eb565b6040518060400160405280600d81526020017f6163636570745265717565737400000000000000000000000000000000000000815250613b7b565b9150915081611349576040517f08c379a00000000000000000000000000000000000000000000000000000000081526004018080602001828103825260038152602001807f453130000000000000000000000000000000000000000000000000000000000081525060200191505060405180910390fd5b611354838287613d80565b7f18e6968414f33702467961559c1912d6c91683d964cc4a3aa8944716773ed787888287604051808481526020018060200180602001848152602001838103835285818151815260200191508051906020019080838360005b838110156113c85780820151818401526020810190506113ad565b50505050905090810190601f1680156113f55780820380516001836020036101000a031916815260200191505b508381038252600d8152602001807f61636365707452657175657374000000000000000000000000000000000000008152506020019550505050505060405180910390a1851561178d5760008061144b85613fb1565b91509150600360009054906101000a900473ffffffffffffffffffffffffffffffffffffffff1673ffffffffffffffffffffffffffffffffffffffff1663f1b61a6c83838c898c8c6040518763ffffffff1660e01b8152600401808781526020018673ffffffffffffffffffffffffffffffffffffffff1673ffffffffffffffffffffffffffffffffffffffff1681526020018581526020018473ffffffffffffffffffffffffffffffffffffffff1673ffffffffffffffffffffffffffffffffffffffff16815260200183815260200180602001828103825283818151815260200191508051906020019080838360005b8381101561155857808201518184015260208101905061153d565b50505050905090810190601f1680156115855780820380516001836020036101000a031916815260200191505b50975050505050505050602060405180830381600087803b1580156115a957600080fd5b505af11580156115bd573d6000803e3d6000fd5b505050506040513d60208110156115d357600080fd5b8101908080519060200190929190505050506000600360009054906101000a900473ffffffffffffffffffffffffffffffffffffffff1673ffffffffffffffffffffffffffffffffffffffff1663f1b61a6c84848d8a8d8d6040518763ffffffff1660e01b8152600401808781526020018673ffffffffffffffffffffffffffffffffffffffff1673ffffffffffffffffffffffffffffffffffffffff1681526020018581526020018473ffffffffffffffffffffffffffffffffffffffff1673ffffffffffffffffffffffffffffffffffffffff16815260200183815260200180602001828103825283818151815260200191508051906020019080838360005b838110156116f05780820151818401526020810190506116d5565b50505050905090810190601f16801561171d5780820380516001836020036101000a031916815260200191505b50975050505050505050602060405180830381600087803b15801561174157600080fd5b505af1158015611755573d6000803e3d6000fd5b505050506040513d602081101561176b57600080fd5b8101908080519060200190929190505050905061178986828a614ad1565b5050505b5050505050505050565b6000600560009054906101000a900473ffffffffffffffffffffffffffffffffffffffff1673ffffffffffffffffffffffffffffffffffffffff16633607a2aa886040518263ffffffff1660e01b81526004018082815260200191505060206040518083038186803b15801561180c57600080fd5b505afa158015611820573d6000803e3d6000fd5b505050506040513d602081101561183657600080fd5b8101908080519060200190929190505050905060001515600360009054906101000a900473ffffffffffffffffffffffffffffffffffffffff1673ffffffffffffffffffffffffffffffffffffffff1663c70acf7a896040518263ffffffff1660e01b81526004018082815260200191505060206040518083038186803b1580156118c057600080fd5b505afa1580156118d4573d6000803e3d6000fd5b505050506040513d60208110156118ea57600080fd5b8101908080519060200190929190505050151514611970576040517f08c379a00000000000000000000000000000000000000000000000000000000081526004018080602001828103825260028152602001807f453000000000000000000000000000000000000000000000000000000000000081525060200191505060405180910390fd5b60001515600b600089815260200190815260200160002060009054906101000a900460ff16151514611a0a576040517f08c379a00000000000000000000000000000000000000000000000000000000081526004018080602001828103825260028152602001807f453100000000000000000000000000000000000000000000000000000000000081525060200191505060405180910390fd5b611a1333614c9d565b80611a235750611a2233614333565b5b80611a335750611a32336141a8565b5b611aa5576040517f08c379a00000000000000000000000000000000000000000000000000000000081526004018080602001828103825260028152602001807f453200000000000000000000000000000000000000000000000000000000000081525060200191505060405180910390fd5b6000611ab033614333565b80611ac05750611abf336141a8565b5b611acb576001611ace565b60005b905060008290508115611c3f573373ffffffffffffffffffffffffffffffffffffffff168173ffffffffffffffffffffffffffffffffffffffff16636352211e8b6040518263ffffffff1660e01b81526004018082815260200191505060206040518083038186803b158015611b4357600080fd5b505afa158015611b57573d6000803e3d6000fd5b505050506040513d6020811015611b6d57600080fd5b810190808051906020019092919050505073ffffffffffffffffffffffffffffffffffffffff16148015611bcc57503373ffffffffffffffffffffffffffffffffffffffff168473ffffffffffffffffffffffffffffffffffffffff16145b611c3e576040517f08c379a00000000000000000000000000000000000000000000000000000000081526004018080602001828103825260028152602001807f453300000000000000000000000000000000000000000000000000000000000081525060200191505060405180910390fd5b5b6000881015611cb6576040517f08c379a00000000000000000000000000000000000000000000000000000000081526004018080602001828103825260028152602001807f453400000000000000000000000000000000000000000000000000000000000081525060200191505060405180910390fd5b611cc06007614e28565b60006001611cce6007614e3e565b0390506000600260009054906101000a900473ffffffffffffffffffffffffffffffffffffffff16905060008173ffffffffffffffffffffffffffffffffffffffff1663d1abb6948d8d8d8d8d8d6000809054906101000a900473ffffffffffffffffffffffffffffffffffffffff168e6040518963ffffffff1660e01b815260040180898152602001888152602001878152602001806020018681526020018573ffffffffffffffffffffffffffffffffffffffff1673ffffffffffffffffffffffffffffffffffffffff1681526020018473ffffffffffffffffffffffffffffffffffffffff1673ffffffffffffffffffffffffffffffffffffffff1681526020018373ffffffffffffffffffffffffffffffffffffffff1673ffffffffffffffffffffffffffffffffffffffff168152602001828103825287818151815260200191508051906020019080838360005b83811015611e3c578082015181840152602081019050611e21565b50505050905090810190601f168015611e695780820380516001836020036101000a031916815260200191505b509950505050505050505050602060405180830381600087803b158015611e8f57600080fd5b505af1158015611ea3573d6000803e3d6000fd5b505050506040513d6020811015611eb957600080fd5b810190808051906020019092919050505090508373ffffffffffffffffffffffffffffffffffffffff166323b872dd88838f6040518463ffffffff1660e01b8152600401808473ffffffffffffffffffffffffffffffffffffffff1673ffffffffffffffffffffffffffffffffffffffff1681526020018373ffffffffffffffffffffffffffffffffffffffff1673ffffffffffffffffffffffffffffffffffffffff1681526020018281526020019350505050600060405180830381600087803b158015611f8757600080fd5b505af1158015611f9b573d6000803e3d6000fd5b50505050806008600085815260200190815260200160002060006101000a81548173ffffffffffffffffffffffffffffffffffffffff021916908373ffffffffffffffffffffffffffffffffffffffff16021790555082600960008373ffffffffffffffffffffffffffffffffffffffff1673ffffffffffffffffffffffffffffffffffffffff168152602001908152602001600020819055506001600b60008e815260200190815260200160002060006101000a81548160ff0219169083151502179055507ff161a89745de8bd4161321799da425acede4ff0bace4fb10108b5da17b89700583888e8e8e8e8e604051808881526020018773ffffffffffffffffffffffffffffffffffffffff1673ffffffffffffffffffffffffffffffffffffffff16815260200186815260200185815260200184815260200180602001838152602001828103825284818151815260200191508051906020019080838360005b838110156121195780820151818401526020810190506120fe565b50505050905090810190601f1680156121465780820380516001836020036101000a031916815260200191505b509850505050505050505060405180910390a1505050505050505050505050565b60006008600087815260200190815260200160002060009054906101000a900473ffffffffffffffffffffffffffffffffffffffff1690506121a833614e4c565b806121b857506121b7336141a8565b5b61222a576040517f08c379a00000000000000000000000000000000000000000000000000000000081526004018080602001828103825260038152602001807f453236000000000000000000000000000000000000000000000000000000000081525060200191505060405180910390fd5b6000606061227561223a846138eb565b6040518060400160405280600b81526020017f736574746c654f72646572000000000000000000000000000000000000000000815250613b7b565b91509150816122ec576040517f08c379a00000000000000000000000000000000000000000000000000000000081526004018080602001828103825260038152602001807f453237000000000000000000000000000000000000000000000000000000000081525060200191505060405180910390fd5b6000600160009054906101000a900473ffffffffffffffffffffffffffffffffffffffff16905060008173ffffffffffffffffffffffffffffffffffffffff166370a08231866040518263ffffffff1660e01b8152600401808273ffffffffffffffffffffffffffffffffffffffff1673ffffffffffffffffffffffffffffffffffffffff16815260200191505060206040518083038186803b15801561239257600080fd5b505afa1580156123a6573d6000803e3d6000fd5b505050506040513d60208110156123bc57600080fd5b8101908080519060200190929190505050905060008060006123dd88614fd7565b92509250925060006123ee896151db565b90505b8185101580156124015750600083115b1561245b5761241389858f8f8f6153c2565b61244189600160009054906101000a900473ffffffffffffffffffffffffffffffffffffffff16848461560b565b61244a89614fd7565b8094508195508296505050506123f1565b61246489615838565b1561268c5760008673ffffffffffffffffffffffffffffffffffffffff166370a082318b6040518263ffffffff1660e01b8152600401808273ffffffffffffffffffffffffffffffffffffffff1673ffffffffffffffffffffffffffffffffffffffff16815260200191505060206040518083038186803b1580156124e857600080fd5b505afa1580156124fc573d6000803e3d6000fd5b505050506040513d602081101561251257600080fd5b810190808051906020019092919050505014612596576040517f08c379a00000000000000000000000000000000000000000000000000000000081526004018080602001828103825260038152602001807f453330000000000000000000000000000000000000000000000000000000000081525060200191505060405180910390fd5b6125d6896040518060400160405280600681526020017f534554544c4500000000000000000000000000000000000000000000000000008152508c613d80565b7f18e6968414f33702467961559c1912d6c91683d964cc4a3aa8944716773ed7878e8b604051808381526020018060200180602001848152602001838103835260068152602001807f534554544c4500000000000000000000000000000000000000000000000000008152506020018381038252600b8152602001807f736574746c654f7264657200000000000000000000000000000000000000000081525060200194505050505060405180910390a161277d565b61269789888c613d80565b7f18e6968414f33702467961559c1912d6c91683d964cc4a3aa8944716773ed7878e888c604051808481526020018060200180602001848152602001838103835285818151815260200191508051906020019080838360005b8381101561270b5780820151818401526020810190506126f0565b50505050905090810190601f1680156127385780820380516001836020036101000a031916815260200191505b508381038252600b8152602001807f736574746c654f726465720000000000000000000000000000000000000000008152506020019550505050505060405180910390a15b5050505050505050505050505050565b60006008600084815260200190815260200160002060009054906101000a900473ffffffffffffffffffffffffffffffffffffffff1690506127ce33614333565b806127de57506127dd336141a8565b5b8061281c57503373ffffffffffffffffffffffffffffffffffffffff16612804826151db565b73ffffffffffffffffffffffffffffffffffffffff16145b61288e576040517f08c379a00000000000000000000000000000000000000000000000000000000081526004018080602001828103825260038152602001807f453131000000000000000000000000000000000000000000000000000000000081525060200191505060405180910390fd5b600060606128d961289e846138eb565b6040518060400160405280600b81526020017f63616e63656c4f72646572000000000000000000000000000000000000000000815250613b7b565b9150915081612950576040517f08c379a00000000000000000000000000000000000000000000000000000000081526004018080602001828103825260038152602001807f453132000000000000000000000000000000000000000000000000000000000081525060200191505060405180910390fd5b600061295b84613fb1565b509050600360009054906101000a900473ffffffffffffffffffffffffffffffffffffffff1673ffffffffffffffffffffffffffffffffffffffff1663c70acf7a826040518263ffffffff1660e01b81526004018082815260200191505060206040518083038186803b1580156129d157600080fd5b505afa1580156129e5573d6000803e3d6000fd5b505050506040513d60208110156129fb57600080fd5b810190808051906020019092919050505015612ac057600360009054906101000a900473ffffffffffffffffffffffffffffffffffffffff1673ffffffffffffffffffffffffffffffffffffffff16630b8b1caf612a5886614703565b8760016040518463ffffffff1660e01b815260040180848152602001838152602001821515151581526020019350505050600060405180830381600087803b158015612aa357600080fd5b505af1158015612ab7573d6000803e3d6000fd5b50505050612ad4565b612ad38482612ace876151db565b615a1f565b5b6000600b600083815260200190815260200160002060006101000a81548160ff021916908315150217905550612b0b848387613d80565b7f18e6968414f33702467961559c1912d6c91683d964cc4a3aa8944716773ed787868387604051808481526020018060200180602001848152602001838103835285818151815260200191508051906020019080838360005b83811015612b7f578082015181840152602081019050612b64565b50505050905090810190601f168015612bac5780820380516001836020036101000a031916815260200191505b508381038252600b8152602001807f63616e63656c4f726465720000000000000000000000000000000000000000008152506020019550505050505060405180910390a1505050505050565b60006008600086815260200190815260200160002060009054906101000a900473ffffffffffffffffffffffffffffffffffffffff169050612c3933614333565b80612c495750612c48336141a8565b5b612cbb576040517f08c379a00000000000000000000000000000000000000000000000000000000081526004018080602001828103825260038152602001807f453133000000000000000000000000000000000000000000000000000000000081525060200191505060405180910390fd5b612cc4816148ea565b841015612d39576040517f08c379a00000000000000000000000000000000000000000000000000000000081526004018080602001828103825260038152602001807f453134000000000000000000000000000000000000000000000000000000000081525060200191505060405180910390fd5b60006060612d84612d49846138eb565b6040518060400160405280600881526020017f6164645472616465000000000000000000000000000000000000000000000000815250613b7b565b9150915081612dfb576040517f08c379a00000000000000000000000000000000000000000000000000000000081526004018080602001828103825260038152602001807f453135000000000000000000000000000000000000000000000000000000000081525060200191505060405180910390fd5b600080612e0785613fb1565b9150915060001515600360009054906101000a900473ffffffffffffffffffffffffffffffffffffffff1673ffffffffffffffffffffffffffffffffffffffff1663c70acf7a846040518263ffffffff1660e01b81526004018082815260200191505060206040518083038186803b158015612e8257600080fd5b505afa158015612e96573d6000803e3d6000fd5b505050506040513d6020811015612eac57600080fd5b8101908080519060200190929190505050151514612f32576040517f08c379a00000000000000000000000000000000000000000000000000000000081526004018080602001828103825260038152602001807f453136000000000000000000000000000000000000000000000000000000000081525060200191505060405180910390fd5b6000600360009054906101000a900473ffffffffffffffffffffffffffffffffffffffff1673ffffffffffffffffffffffffffffffffffffffff1663f1b61a6c84848c8a8d8d6040518763ffffffff1660e01b8152600401808781526020018673ffffffffffffffffffffffffffffffffffffffff1673ffffffffffffffffffffffffffffffffffffffff1681526020018581526020018473ffffffffffffffffffffffffffffffffffffffff1673ffffffffffffffffffffffffffffffffffffffff16815260200183815260200180602001828103825283818151815260200191508051906020019080838360005b8381101561303d578082015181840152602081019050613022565b50505050905090810190601f16801561306a5780820380516001836020036101000a031916815260200191505b50975050505050505050602060405180830381600087803b15801561308e57600080fd5b505af11580156130a2573d6000803e3d6000fd5b505050506040513d60208110156130b857600080fd5b810190808051906020019092919050505090506130d686828a614ad1565b6130e186858a613d80565b7f18e6968414f33702467961559c1912d6c91683d964cc4a3aa8944716773ed7878a858a604051808481526020018060200180602001848152602001838103835285818151815260200191508051906020019080838360005b8381101561315557808201518184015260208101905061313a565b50505050905090810190601f1680156131825780820380516001836020036101000a031916815260200191505b50838103825260088152602001807f61646454726164650000000000000000000000000000000000000000000000008152506020019550505050505060405180910390a150505050505050505050565b60006008600084815260200190815260200160002060009054906101000a900473ffffffffffffffffffffffffffffffffffffffff16905061321333614333565b806132235750613222336141a8565b5b806132615750613232816151db565b73ffffffffffffffffffffffffffffffffffffffff163373ffffffffffffffffffffffffffffffffffffffff16145b6132d3576040517f08c379a00000000000000000000000000000000000000000000000000000000081526004018080602001828103825260028152602001807f453600000000000000000000000000000000000000000000000000000000000081525060200191505060405180910390fd5b6000606061331e6132e3846138eb565b6040518060400160405280600d81526020017f63616e63656c5265717565737400000000000000000000000000000000000000815250613b7b565b9150915081613395576040517f08c379a00000000000000000000000000000000000000000000000000000000081526004018080602001828103825260028152602001807f453700000000000000000000000000000000000000000000000000000000000081525060200191505060405180910390fd5b6133a0838286613d80565b6133a983613fb1565b508095505060006133b9846151db565b90506133c6848783615a1f565b6000600b600088815260200190815260200160002060006101000a81548160ff0219169083151502179055507f18e6968414f33702467961559c1912d6c91683d964cc4a3aa8944716773ed787868387604051808481526020018060200180602001848152602001838103835285818151815260200191508051906020019080838360005b8381101561346657808201518184015260208101905061344b565b50505050905090810190601f1680156134935780820380516001836020036101000a031916815260200191505b508381038252600d8152602001807f63616e63656c52657175657374000000000000000000000000000000000000008152506020019550505050505060405180910390a1505050505050565b60006008600086815260200190815260200160002060009054906101000a900473ffffffffffffffffffffffffffffffffffffffff16905061352033614e4c565b80613530575061352f336141a8565b5b6135a2576040517f08c379a00000000000000000000000000000000000000000000000000000000081526004018080602001828103825260038152602001807f453232000000000000000000000000000000000000000000000000000000000081525060200191505060405180910390fd5b600060606135ed6135b2846138eb565b6040518060400160405280601181526020017f616464536574746c656d656e74506c616e000000000000000000000000000000815250613b7b565b9150915081613664576040517f08c379a00000000000000000000000000000000000000000000000000000000081526004018080602001828103825260038152602001807f453234000000000000000000000000000000000000000000000000000000000081525060200191505060405180910390fd5b613672838688876001615c17565b7f18e6968414f33702467961559c1912d6c91683d964cc4a3aa8944716773ed787878286604051808481526020018060200180602001848152602001838103835285818151815260200191508051906020019080838360005b838110156136e65780820151818401526020810190506136cb565b50505050905090810190601f1680156137135780820380516001836020036101000a031916815260200191505b50838103825260118152602001807f616464536574746c656d656e74506c616e0000000000000000000000000000008152506020019550505050505060405180910390a150505050505050565b60008060009054906101000a900473ffffffffffffffffffffffffffffffffffffffff1673ffffffffffffffffffffffffffffffffffffffff166391d148546000809054906101000a900473ffffffffffffffffffffffffffffffffffffffff1673ffffffffffffffffffffffffffffffffffffffff16634d5e07fb6040518163ffffffff1660e01b815260040160206040518083038186803b15801561380657600080fd5b505afa15801561381a573d6000803e3d6000fd5b505050506040513d602081101561383057600080fd5b8101908080519060200190929190505050846040518363ffffffff1660e01b8152600401808381526020018273ffffffffffffffffffffffffffffffffffffffff1673ffffffffffffffffffffffffffffffffffffffff1681526020019250505060206040518083038186803b1580156138a957600080fd5b505afa1580156138bd573d6000803e3d6000fd5b505050506040513d60208110156138d357600080fd5b81019080805190602001909291905050509050919050565b6060806040516024016040516020818303038152906040527f1865c57d000000000000000000000000000000000000000000000000000000007bffffffffffffffffffffffffffffffffffffffffffffffffffffffff19166020820180517bffffffffffffffffffffffffffffffffffffffffffffffffffffffff83818316178352505050509050600060608473ffffffffffffffffffffffffffffffffffffffff16836040518082805190602001908083835b602083106139c2578051825260208201915060208101905060208303925061399f565b6001836020036101000a0380198251168184511680821785525050505050509050019150506000604051808303816000865af19150503d8060008114613a24576040519150601f19603f3d011682016040523d82523d6000602084013e613a29565b606091505b509150915081613aa1576040517f08c379a00000000000000000000000000000000000000000000000000000000081526004018080602001828103825260028152602001807f423100000000000000000000000000000000000000000000000000000000000081525060200191505060405180910390fd5b808060200190516020811015613ab657600080fd5b8101908080516040519392919084640100000000821115613ad657600080fd5b83820191506020820185811115613aec57600080fd5b8251866001820283011164010000000082111715613b0957600080fd5b8083526020830192505050908051906020019080838360005b83811015613b3d578082015181840152602081019050613b22565b50505050905090810190601f168015613b6a5780820380516001836020036101000a031916815260200191505b506040525050509350505050919050565b6000606060006060600460009054906101000a900473ffffffffffffffffffffffffffffffffffffffff1673ffffffffffffffffffffffffffffffffffffffff1663708442498787805190602001206040518363ffffffff1660e01b81526004018080602001838152602001828103825284818151815260200191508051906020019080838360005b83811015613c1f578082015181840152602081019050613c04565b50505050905090810190601f168015613c4c5780820380516001836020036101000a031916815260200191505b50935050505060006040518083038186803b158015613c6a57600080fd5b505afa158015613c7e573d6000803e3d6000fd5b505050506040513d6000823e3d601f19601f820116820180604052506040811015613ca857600080fd5b810190808051906020019092919080516040519392919084640100000000821115613cd257600080fd5b83820191506020820185811115613ce857600080fd5b8251866001820283011164010000000082111715613d0557600080fd5b8083526020830192505050908051906020019080838360005b83811015613d39578082015181840152602081019050613d1e565b50505050905090810190601f168015613d665780820380516001836020036101000a031916815260200191505b506040525050509150915081819350935050509250929050565b606082826040516024018080602001838152602001828103825284818151815260200191508051906020019080838360005b83811015613dcd578082015181840152602081019050613db2565b50505050905090810190601f168015613dfa5780820380516001836020036101000a031916815260200191505b5093505050506040516020818303038152906040527f292d1fb9000000000000000000000000000000000000000000000000000000007bffffffffffffffffffffffffffffffffffffffffffffffffffffffff19166020820180517bffffffffffffffffffffffffffffffffffffffffffffffffffffffff8381831617835250505050905060008473ffffffffffffffffffffffffffffffffffffffff16826040518082805190602001908083835b60208310613ecc5780518252602082019150602081019050602083039250613ea9565b6001836020036101000a0380198251168184511680821785525050505050509050019150506000604051808303816000865af19150503d8060008114613f2e576040519150601f19603f3d011682016040523d82523d6000602084013e613f33565b606091505b5050905080613faa576040517f08c379a00000000000000000000000000000000000000000000000000000000081526004018080602001828103825260038152602001807f423136000000000000000000000000000000000000000000000000000000000081525060200191505060405180910390fd5b5050505050565b60008060606040516024016040516020818303038152906040527fc412eaba000000000000000000000000000000000000000000000000000000007bffffffffffffffffffffffffffffffffffffffffffffffffffffffff19166020820180517bffffffffffffffffffffffffffffffffffffffffffffffffffffffff83818316178352505050509050600060608573ffffffffffffffffffffffffffffffffffffffff16836040518082805190602001908083835b6020831061408a5780518252602082019150602081019050602083039250614067565b6001836020036101000a0380198251168184511680821785525050505050509050019150506000604051808303816000865af19150503d80600081146140ec576040519150601f19603f3d011682016040523d82523d6000602084013e6140f1565b606091505b509150915081614169576040517f08c379a00000000000000000000000000000000000000000000000000000000081526004018080602001828103825260028152602001807f423700000000000000000000000000000000000000000000000000000000000081525060200191505060405180910390fd5b80806020019051604081101561417e57600080fd5b81019080805190602001909291908051906020019092919050505080905094509450505050915091565b60008060009054906101000a900473ffffffffffffffffffffffffffffffffffffffff1673ffffffffffffffffffffffffffffffffffffffff166391d148546000809054906101000a900473ffffffffffffffffffffffffffffffffffffffff1673ffffffffffffffffffffffffffffffffffffffff166375b238fc6040518163ffffffff1660e01b815260040160206040518083038186803b15801561424e57600080fd5b505afa158015614262573d6000803e3d6000fd5b505050506040513d602081101561427857600080fd5b8101908080519060200190929190505050846040518363ffffffff1660e01b8152600401808381526020018273ffffffffffffffffffffffffffffffffffffffff1673ffffffffffffffffffffffffffffffffffffffff1681526020019250505060206040518083038186803b1580156142f157600080fd5b505afa158015614305573d6000803e3d6000fd5b505050506040513d602081101561431b57600080fd5b81019080805190602001909291905050509050919050565b60008060009054906101000a900473ffffffffffffffffffffffffffffffffffffffff1673ffffffffffffffffffffffffffffffffffffffff166391d148546000809054906101000a900473ffffffffffffffffffffffffffffffffffffffff1673ffffffffffffffffffffffffffffffffffffffff16634db08aea6040518163ffffffff1660e01b815260040160206040518083038186803b1580156143d957600080fd5b505afa1580156143ed573d6000803e3d6000fd5b505050506040513d602081101561440357600080fd5b8101908080519060200190929190505050846040518363ffffffff1660e01b8152600401808381526020018273ffffffffffffffffffffffffffffffffffffffff1673ffffffffffffffffffffffffffffffffffffffff1681526020019250505060206040518083038186803b15801561447c57600080fd5b505afa158015614490573d6000803e3d6000fd5b505050506040513d60208110156144a657600080fd5b81019080805190602001909291905050509050919050565b60608282604051602401808367ffffffffffffffff1667ffffffffffffffff16815260200180602001828103825283818151815260200191508051906020019080838360005b8381101561451f578082015181840152602081019050614504565b50505050905090810190601f16801561454c5780820380516001836020036101000a031916815260200191505b5093505050506040516020818303038152906040527f677ab32d000000000000000000000000000000000000000000000000000000007bffffffffffffffffffffffffffffffffffffffffffffffffffffffff19166020820180517bffffffffffffffffffffffffffffffffffffffffffffffffffffffff8381831617835250505050905060008473ffffffffffffffffffffffffffffffffffffffff16826040518082805190602001908083835b6020831061461e57805182526020820191506020810190506020830392506145fb565b6001836020036101000a0380198251168184511680821785525050505050509050019150506000604051808303816000865af19150503d8060008114614680576040519150601f19603f3d011682016040523d82523d6000602084013e614685565b606091505b50509050806146fc576040517f08c379a00000000000000000000000000000000000000000000000000000000081526004018080602001828103825260038152602001807f423231000000000000000000000000000000000000000000000000000000000081525060200191505060405180910390fd5b5050505050565b600060606040516024016040516020818303038152906040527fe9f748d4000000000000000000000000000000000000000000000000000000007bffffffffffffffffffffffffffffffffffffffffffffffffffffffff19166020820180517bffffffffffffffffffffffffffffffffffffffffffffffffffffffff83818316178352505050509050600060608473ffffffffffffffffffffffffffffffffffffffff16836040518082805190602001908083835b602083106147db57805182526020820191506020810190506020830392506147b8565b6001836020036101000a0380198251168184511680821785525050505050509050019150506000604051808303816000865af19150503d806000811461483d576040519150601f19603f3d011682016040523d82523d6000602084013e614842565b606091505b5091509150816148ba576040517f08c379a00000000000000000000000000000000000000000000000000000000081526004018080602001828103825260038152602001807f453239000000000000000000000000000000000000000000000000000000000081525060200191505060405180910390fd5b8080602001905160208110156148cf57600080fd5b81019080805190602001909291905050509350505050919050565b600060606040516024016040516020818303038152906040527fc3c61f91000000000000000000000000000000000000000000000000000000007bffffffffffffffffffffffffffffffffffffffffffffffffffffffff19166020820180517bffffffffffffffffffffffffffffffffffffffffffffffffffffffff83818316178352505050509050600060608473ffffffffffffffffffffffffffffffffffffffff16836040518082805190602001908083835b602083106149c2578051825260208201915060208101905060208303925061499f565b6001836020036101000a0380198251168184511680821785525050505050509050019150506000604051808303816000865af19150503d8060008114614a24576040519150601f19603f3d011682016040523d82523d6000602084013e614a29565b606091505b509150915081614aa1576040517f08c379a00000000000000000000000000000000000000000000000000000000081526004018080602001828103825260028152602001807f423600000000000000000000000000000000000000000000000000000000000081525060200191505060405180910390fd5b808060200190516020811015614ab657600080fd5b81019080805190602001909291905050509350505050919050565b6060828260405160240180838152602001828152602001925050506040516020818303038152906040527f5b76fd3d000000000000000000000000000000000000000000000000000000007bffffffffffffffffffffffffffffffffffffffffffffffffffffffff19166020820180517bffffffffffffffffffffffffffffffffffffffffffffffffffffffff8381831617835250505050905060008473ffffffffffffffffffffffffffffffffffffffff16826040518082805190602001908083835b60208310614bb85780518252602082019150602081019050602083039250614b95565b6001836020036101000a0380198251168184511680821785525050505050509050019150506000604051808303816000865af19150503d8060008114614c1a576040519150601f19603f3d011682016040523d82523d6000602084013e614c1f565b606091505b5050905080614c96576040517f08c379a00000000000000000000000000000000000000000000000000000000081526004018080602001828103825260038152602001807f453238000000000000000000000000000000000000000000000000000000000081525060200191505060405180910390fd5b5050505050565b60008060009054906101000a900473ffffffffffffffffffffffffffffffffffffffff1673ffffffffffffffffffffffffffffffffffffffff166391d148546000809054906101000a900473ffffffffffffffffffffffffffffffffffffffff1673ffffffffffffffffffffffffffffffffffffffff1663e926eb966040518163ffffffff1660e01b815260040160206040518083038186803b158015614d4357600080fd5b505afa158015614d57573d6000803e3d6000fd5b505050506040513d6020811015614d6d57600080fd5b8101908080519060200190929190505050846040518363ffffffff1660e01b8152600401808381526020018273ffffffffffffffffffffffffffffffffffffffff1673ffffffffffffffffffffffffffffffffffffffff1681526020019250505060206040518083038186803b158015614de657600080fd5b505afa158015614dfa573d6000803e3d6000fd5b505050506040513d6020811015614e1057600080fd5b81019080805190602001909291905050509050919050565b6001816000016000828254019250508190555050565b600081600001549050919050565b60008060009054906101000a900473ffffffffffffffffffffffffffffffffffffffff1673ffffffffffffffffffffffffffffffffffffffff166391d148546000809054906101000a900473ffffffffffffffffffffffffffffffffffffffff1673ffffffffffffffffffffffffffffffffffffffff1663ef0fe2456040518163ffffffff1660e01b815260040160206040518083038186803b158015614ef257600080fd5b505afa158015614f06573d6000803e3d6000fd5b505050506040513d6020811015614f1c57600080fd5b8101908080519060200190929190505050846040518363ffffffff1660e01b8152600401808381526020018273ffffffffffffffffffffffffffffffffffffffff1673ffffffffffffffffffffffffffffffffffffffff1681526020019250505060206040518083038186803b158015614f9557600080fd5b505afa158015614fa9573d6000803e3d6000fd5b505050506040513d6020811015614fbf57600080fd5b81019080805190602001909291905050509050919050565b600080600060606040516024016040516020818303038152906040527f1b77f68d000000000000000000000000000000000000000000000000000000007bffffffffffffffffffffffffffffffffffffffffffffffffffffffff19166020820180517bffffffffffffffffffffffffffffffffffffffffffffffffffffffff83818316178352505050509050600060608673ffffffffffffffffffffffffffffffffffffffff16836040518082805190602001908083835b602083106150b2578051825260208201915060208101905060208303925061508f565b6001836020036101000a0380198251168184511680821785525050505050509050019150506000604051808303816000865af19150503d8060008114615114576040519150601f19603f3d011682016040523d82523d6000602084013e615119565b606091505b509150915081615191576040517f08c379a00000000000000000000000000000000000000000000000000000000081526004018080602001828103825260038152602001807f423131000000000000000000000000000000000000000000000000000000000081525060200191505060405180910390fd5b8080602001905160608110156151a657600080fd5b810190808051906020019092919080519060200190929190805190602001909291905050509550955095505050509193909250565b600060606040516024016040516020818303038152906040527ff89d1ec0000000000000000000000000000000000000000000000000000000007bffffffffffffffffffffffffffffffffffffffffffffffffffffffff19166020820180517bffffffffffffffffffffffffffffffffffffffffffffffffffffffff83818316178352505050509050600060608473ffffffffffffffffffffffffffffffffffffffff16836040518082805190602001908083835b602083106152b35780518252602082019150602081019050602083039250615290565b6001836020036101000a0380198251168184511680821785525050505050509050019150506000604051808303816000865af19150503d8060008114615315576040519150601f19603f3d011682016040523d82523d6000602084013e61531a565b606091505b509150915081615392576040517f08c379a00000000000000000000000000000000000000000000000000000000081526004018080602001828103825260028152602001807f423800000000000000000000000000000000000000000000000000000000000081525060200191505060405180910390fd5b8080602001905160208110156153a757600080fd5b81019080805190602001909291905050509350505050919050565b60608484848460405160240180858152602001806020018481526020018360ff1660ff168152602001828103825285818151815260200191508051906020019080838360005b83811015615423578082015181840152602081019050615408565b50505050905090810190601f1680156154505780820380516001836020036101000a031916815260200191505b50955050505050506040516020818303038152906040527fd924eb19000000000000000000000000000000000000000000000000000000007bffffffffffffffffffffffffffffffffffffffffffffffffffffffff19166020820180517bffffffffffffffffffffffffffffffffffffffffffffffffffffffff8381831617835250505050905060008673ffffffffffffffffffffffffffffffffffffffff16826040518082805190602001908083835b602083106155245780518252602082019150602081019050602083039250615501565b6001836020036101000a0380198251168184511680821785525050505050509050019150506000604051808303816000865af19150503d8060008114615586576040519150601f19603f3d011682016040523d82523d6000602084013e61558b565b606091505b5050905080615602576040517f08c379a00000000000000000000000000000000000000000000000000000000081526004018080602001828103825260038152602001807f423235000000000000000000000000000000000000000000000000000000000081525060200191505060405180910390fd5b50505050505050565b6060838383604051602401808473ffffffffffffffffffffffffffffffffffffffff1673ffffffffffffffffffffffffffffffffffffffff1681526020018381526020018273ffffffffffffffffffffffffffffffffffffffff1673ffffffffffffffffffffffffffffffffffffffff16815260200193505050506040516020818303038152906040527f9ad09310000000000000000000000000000000000000000000000000000000007bffffffffffffffffffffffffffffffffffffffffffffffffffffffff19166020820180517bffffffffffffffffffffffffffffffffffffffffffffffffffffffff8381831617835250505050905060008573ffffffffffffffffffffffffffffffffffffffff16826040518082805190602001908083835b60208310615752578051825260208201915060208101905060208303925061572f565b6001836020036101000a0380198251168184511680821785525050505050509050019150506000604051808303816000865af19150503d80600081146157b4576040519150601f19603f3d011682016040523d82523d6000602084013e6157b9565b606091505b5050905080615830576040517f08c379a00000000000000000000000000000000000000000000000000000000081526004018080602001828103825260038152602001807f423233000000000000000000000000000000000000000000000000000000000081525060200191505060405180910390fd5b505050505050565b600060606040516024016040516020818303038152906040527f3270bb5b000000000000000000000000000000000000000000000000000000007bffffffffffffffffffffffffffffffffffffffffffffffffffffffff19166020820180517bffffffffffffffffffffffffffffffffffffffffffffffffffffffff83818316178352505050509050600060608473ffffffffffffffffffffffffffffffffffffffff16836040518082805190602001908083835b6020831061591057805182526020820191506020810190506020830392506158ed565b6001836020036101000a0380198251168184511680821785525050505050509050019150506000604051808303816000865af19150503d8060008114615972576040519150601f19603f3d011682016040523d82523d6000602084013e615977565b606091505b5091509150816159ef576040517f08c379a00000000000000000000000000000000000000000000000000000000081526004018080602001828103825260038152602001807f423237000000000000000000000000000000000000000000000000000000000081525060200191505060405180910390fd5b808060200190516020811015615a0457600080fd5b81019080805190602001909291905050509350505050919050565b60608282604051602401808381526020018273ffffffffffffffffffffffffffffffffffffffff1673ffffffffffffffffffffffffffffffffffffffff168152602001925050506040516020818303038152906040527f29596fa2000000000000000000000000000000000000000000000000000000007bffffffffffffffffffffffffffffffffffffffffffffffffffffffff19166020820180517bffffffffffffffffffffffffffffffffffffffffffffffffffffffff8381831617835250505050905060008473ffffffffffffffffffffffffffffffffffffffff16826040518082805190602001908083835b60208310615b325780518252602082019150602081019050602083039250615b0f565b6001836020036101000a0380198251168184511680821785525050505050509050019150506000604051808303816000865af19150503d8060008114615b94576040519150601f19603f3d011682016040523d82523d6000602084013e615b99565b606091505b5050905080615c10576040517f08c379a00000000000000000000000000000000000000000000000000000000081526004018080602001828103825260038152602001807f423232000000000000000000000000000000000000000000000000000000000081525060200191505060405180910390fd5b5050505050565b60608484848460405160240180858152602001848152602001838152602001821515151581526020019450505050506040516020818303038152906040527f080f8b9d000000000000000000000000000000000000000000000000000000007bffffffffffffffffffffffffffffffffffffffffffffffffffffffff19166020820180517bffffffffffffffffffffffffffffffffffffffffffffffffffffffff8381831617835250505050905060008673ffffffffffffffffffffffffffffffffffffffff16826040518082805190602001908083835b60208310615d125780518252602082019150602081019050602083039250615cef565b6001836020036101000a0380198251168184511680821785525050505050509050019150506000604051808303816000865af19150503d8060008114615d74576040519150601f19603f3d011682016040523d82523d6000602084013e615d79565b606091505b5050905080615df0576040517f08c379a00000000000000000000000000000000000000000000000000000000081526004018080602001828103825260038152602001807f423234000000000000000000000000000000000000000000000000000000000081525060200191505060405180910390fd5b5050505050505056fea264697066735822122025c3d317d0bb1e37b456ca0a6f7f838f3f1a6631f22619b073176496cec97e8c64736f6c63430006020033",
  "source": "pragma solidity ^0.6.0;\n\nimport \"../BuySellContract/BuySideContractFactory.sol\";\nimport \"../BuySellContract/baseContractAccesser.sol\";\nimport \"./expenseBookDS.sol\";\n\ncontract expenseBookLibrary is expenseBookDS,baseContractAccessor {       \n    \n    event OrderStatusChange(uint256 ad, string status, string action,uint256 _datetime);\n    event NewOrderRequest(uint256 ad, address seller, uint256 itemID,uint256 p,uint256 f,string c,uint256 d);\n    \n    function createOrderRequest(uint256 _itemID, uint256 _price, uint256 _feesprecentage, string memory _currency, uint256 _createdatetime,address _seller) public {\n        address _baseaddr = lookup.getBaseAddress(_itemID);\n        require(orderbook.isopen(_itemID)==false, \"E0\");\n        require(token[_itemID]==false, \"E1\");\n        require(_isSupplier(msg.sender) || _isSales(msg.sender) || _isAdmin(msg.sender),\"E2\");\n        bool ownershipcheck = (_isSales(msg.sender) || _isAdmin(msg.sender))?false:true;\n        ERC721 erc721token = ERC721(_baseaddr);\n        if(ownershipcheck){\n            require((erc721token.ownerOf(_itemID)==msg.sender && _seller==msg.sender), \"E3\" );\n        }\n        require( _price >= 0 , \"E4\");\n        _orderID.increment();\n        uint256 id = _orderID.current()-1;\n        BuySideContractFactory c = BuySideContractFactory(contractfactory);\n        address i = c.createNewBuySideContract(_itemID,_price, _feesprecentage, _currency,_createdatetime, _seller,address(access),_baseaddr); \n        erc721token.transferFrom(_seller,i,_itemID);\n        orders[id] = i;\n        address2orders[i]=id;\n        token[_itemID]=true;\n        emit NewOrderRequest(id,_seller,_itemID,_price,_feesprecentage,_currency,_createdatetime);\n        \n    } \n    \n    function rejectRequest(uint256 _orderid,uint256 _datetime,string memory _msg)public {\n        require( _isAdmin(msg.sender) || _isSales(msg.sender), \"E6\");\n        (bool exist, string memory nextstate)=_transitionExists(_getState(orders[_orderid]),\"rejectRequest\");\n        require(exist , \"E5\");\n        _setMeta(orders[_orderid],0,_msg);\n        _setState(orders[_orderid],nextstate,_datetime);\n        emit OrderStatusChange(_orderid, nextstate,\"rejectRequest\",_datetime);\n        \n    }\n    \n\n\n    function cancelRequest(uint256 _orderid,uint256 _datetime) public {\n        address i = orders[_orderid];\n        require(_isSales(msg.sender) ||  _isAdmin(msg.sender) || (msg.sender == _getCreditor(i)) , \"E6\");\n        (bool exist, string memory nextstate)=_transitionExists(_getState(i),\"cancelRequest\");\n        require(exist , \"E7\");\n        _setState(i,nextstate,_datetime);\n        (_orderid,)=_getItem(i);\n         address c = _getCreditor(i);\n        _WithdrawERC721Token(i,_orderid,c);\n        token[_orderid]=false;\n        emit OrderStatusChange(_orderid, nextstate,\"cancelRequest\",_datetime);\n        \n    }\n    \n    function acceptRequest(uint256 _orderid, uint256 _price,bool _createtrade,uint256 _datetime,string memory _currency) public {\n        address i = orders[_orderid];\n        require( _isSales(msg.sender) ||  _isAdmin(msg.sender) , \"E8\");\n        require(_price>=_getTotalAmount(i),\"E9\");\n        (bool exist, string memory nextstate)=_transitionExists(_getState(i),\"acceptRequest\");\n        require(exist , \"E10\");\n        _setState(i,nextstate,_datetime);\n        emit OrderStatusChange(_orderid, nextstate,\"acceptRequest\",_datetime);\n        if(_createtrade){\n            \n            (uint256 _itemID,address _base) = _getItem(i);\n            orderbook.openTrade(_itemID,_base,_price,i,_datetime,_currency);\n            uint256 tradeid = orderbook.openTrade(_itemID,_base,_price,i,_datetime,_currency);\n            _setbuySideAddTrade(i,tradeid,_datetime);\n        }\n               \n    }  \n\n    function cancelOrder(uint256 _orderid, uint256 _datetime) public {\n        address i = orders[_orderid];\n        require( _isSales(msg.sender) ||  _isAdmin(msg.sender) || _getCreditor(i)==msg.sender, \"E11\");\n        (bool exist, string memory nextstate)=_transitionExists(_getState(i),\"cancelOrder\");\n        require(exist , \"E12\");\n        (uint256 itemid,) = _getItem(i);\n        if(orderbook.isopen(itemid)){ //check if there exists open trade in orderbook\n            //got open trade in orderbook\n            orderbook.cancelTrade(_getSellSideCurrentTradeID(i),_datetime,true);\n        }else {\n            //cancel trade should call before, expenseBook is the item owner ,return back the item to seller\n            _WithdrawERC721Token(i,itemid,_getCreditor(i));\n        }\n        token[itemid]=false;\n        _setState(i,nextstate,_datetime);\n        emit OrderStatusChange(_orderid, nextstate,\"cancelOrder\",_datetime);\n         \n    }\n    \n     function addTrade(uint256 _orderid, uint256 _price, uint256 _datetime,string memory _currency) public {\n        address i = orders[_orderid];\n        require( _isSales(msg.sender) ||  _isAdmin(msg.sender), \"E13\");\n        require(_price>=_getTotalAmount(i),\"E14\");\n        (bool exist, string memory nextstate)=_transitionExists(_getState(i),\"addTrade\");\n        require(exist , \"E15\");\n        (uint256 itemid,address base) = _getItem(i);\n        require(orderbook.isopen(itemid)==false,\"E16\");\n\n        uint256 tradeid = orderbook.openTrade(itemid,base,_price,i,_datetime,_currency);\n        _setbuySideAddTrade(i,tradeid,_datetime);\n        _setState(i,nextstate,_datetime);\n        emit OrderStatusChange(_orderid, nextstate,\"addTrade\",_datetime);\n               \n    }\n    \n    function cancelTrade(uint256 _orderid, uint256 _datetime) public {\n        address i = orders[_orderid];\n        require( _isSales(msg.sender) ||  _isAdmin(msg.sender), \"E17\");\n        (bool exist, string memory nextstate)=_transitionExists(_getState(i),\"cancelTrade\");\n        require(exist , \"E18\");\n        orderbook.cancelTrade(_getSellSideCurrentTradeID(i),_datetime,false);\n        _setState(i,nextstate,_datetime);\n        emit OrderStatusChange(_orderid, nextstate,\"cancelTrade\",_datetime);\n               \n    }\n    \n    function fullFillTrade(address _contract, uint256 _datetime) public {\n        require(_contract!=address(0),\"E19\");\n        uint256 i = address2orders[_contract];\n        require( _isOrder(msg.sender) , \"E20\");\n        (bool exist, string memory nextstate)=_transitionExists(_getState(_contract),\"fullFillTrade\");\n        require(exist , \"E21\");\n        _setState(_contract,nextstate,_datetime);\n        emit OrderStatusChange(i, nextstate,\"fullFillTrade\",_datetime);\n        (i,)=_getItem(_contract);\n        token[i]=false;\n               \n    }\n    \n    \n    function addSettlementPlan(uint256 _orderid, uint256 _settledate ,uint256 _settleamount, uint256 _datetime) public {\n        address i = orders[_orderid];\n        require( _isSettlement(msg.sender) ||  _isAdmin(msg.sender), \"E22\");\n        (bool exist, string memory nextstate)=_transitionExists(_getState(i),\"addSettlementPlan\");\n        require(exist , \"E24\");\n        _addSettlementPlan(i, _settleamount,_settledate,_datetime,true);\n        emit OrderStatusChange(_orderid, nextstate,\"addSettlementPlan\",_datetime);\n        \n    }\n   \n    function settleOrder(uint256 _orderid,string memory _banktx ,uint256 _paymentdate,uint8 _paymenttype,uint256 _datetime) public {\n        address i = orders[_orderid];\n        require( _isSettlement(msg.sender) ||  _isAdmin(msg.sender), \"E26\");\n        (bool exist, string memory nextstate)=_transitionExists(_getState(i),\"settleOrder\");\n        require(exist , \"E27\");\n        ERC20PresetMinterPauser token = ERC20PresetMinterPauser(bookkeepingtoken);\n        uint256 _amount = token.balanceOf(i);\n        (uint256 _index,uint256 _d,uint256 _a)=_getActiveSettlementPlan(i);\n        address creditor = _getCreditor(i);\n        while(_amount>=_a && _d >0 ){\n            _completePayment(i,_index,_banktx,_paymentdate,_paymenttype);\n            _WithdrawERC20Token(i,bookkeepingtoken,_a,creditor);\n            (_index,_d,_a)=_getActiveSettlementPlan(i);\n        }\n        if(_isSettled(i)){\n            require(token.balanceOf(i)==0,\"E30\");\n             _setState(i,\"SETTLE\",_datetime);\n            emit OrderStatusChange(_orderid, \"SETTLE\",\"settleOrder\",_datetime);\n        }else{\n            _setState(i,nextstate,_datetime);\n            emit OrderStatusChange(_orderid, nextstate,\"settleOrder\",_datetime);\n        }\n    }\n    \n    \n    function _transitionExists(string memory state,string memory funname) internal view\n    returns(bool e,string memory s)\n    {\n        (bool exist, string memory ns) = statemachine.transitionExists(state, keccak256(bytes(funname)));\n        return (exist,ns);\n    }\n    \n    \n    function _setbuySideAddTrade(address _a,uint256 _id,uint256 _d) internal\n    {\n        \n        bytes memory payload = abi.encodeWithSignature(\"setTradeID(uint256,uint256)\",_id,_d);\n        (bool success,) = _a.call(payload);\n        require(success,\"E28\");\n    }\n  \n    function _getSellSideCurrentTradeID(address _a) internal\n    returns(uint256 _c)\n    {\n         bytes memory payload = abi.encodeWithSignature(\"getTradeID()\");\n        (bool success, bytes memory result) = _a.call(payload);\n        require(success,\"E29\");\n        return abi.decode(result, (uint256));\n    }\n    \n    \n}",
  "sourcePath": "/home/dickchan/ERC721Marketplace/contracts/BookContract/expenseBookLibrary.sol",
  "compiler": {
    "name": "solc",
    "version": "0.6.2+commit.bacdbe57.Emscripten.clang"
  },
  "schemaVersion": "3.2.3",
  "updatedAt": "2020-11-19T07:51:27.159Z",
  "devdoc": {
    "methods": {}
  },
  "userdoc": {
    "methods": {}
  }
}