{
  "contractName": "expenseBookDS",
  "abi": [
    {
      "inputs": [
        {
          "internalType": "string",
          "name": "",
          "type": "string"
        }
      ],
      "name": "currencydecimal",
      "outputs": [
        {
          "internalType": "uint8",
          "name": "",
          "type": "uint8"
        }
      ],
      "stateMutability": "view",
      "type": "function"
    },
    {
      "inputs": [
        {
          "internalType": "uint256",
          "name": "",
          "type": "uint256"
        }
      ],
      "name": "token",
      "outputs": [
        {
          "internalType": "bool",
          "name": "",
          "type": "bool"
        }
      ],
      "stateMutability": "view",
      "type": "function"
    }
  ],
  "bytecode": "0x608060405234801561001057600080fd5b506101e2806100206000396000f3fe608060405234801561001057600080fd5b50600436106100365760003560e01c8063044215c61461003b57806366127a5b14610081575b600080fd5b6100676004803603602081101561005157600080fd5b8101908080359060200190929190505050610156565b604051808215151515815260200191505060405180910390f35b61013a6004803603602081101561009757600080fd5b81019080803590602001906401000000008111156100b457600080fd5b8201836020820111156100c657600080fd5b803590602001918460018302840111640100000000831117156100e857600080fd5b91908080601f016020809104026020016040519081016040528093929190818152602001838380828437600081840152601f19601f820116905080830192505050505050509192919290505050610176565b604051808260ff1660ff16815260200191505060405180910390f35b600b6020528060005260406000206000915054906101000a900460ff1681565b600a818051602081018201805184825260208301602085012081835280955050505050506000915054906101000a900460ff168156fea264697066735822122047caa7a1cad74a21166573020d065105c8043e45301d02d1cfc6deb03879aeca64736f6c63430006020033",
  "source": "pragma solidity ^0.6.0;\n\nimport \"openzeppelin-solidity/contracts/math/SafeMath.sol\";\nimport \"openzeppelin-solidity/contracts/utils/Address.sol\";\nimport \"./stateMachine.sol\";\nimport \"./paymentBook.sol\";\nimport \"openzeppelin-solidity/contracts/access/RBAC.sol\";\nimport \"./Invoice.sol\";\n\n//contract expenseBook is  AccessControl, GSNRecipient {\n\ncontract expenseBookDS {   \n    using Counters for Counters.Counter;\n    using SafeMath for uint256;\n    using Address for address;\n\n    Orderbook orderbook;\n    ERC721 diamondtoken;\n    PaymentBook bookkeepingtoken;\n    StateMachine statemachine;\n    PermissionControl access;\n    uint256 feesprecentage_decimal;\n    address cashout;\n    address owner;\n    Counters.Counter _orderID;\n    mapping(uint256 => address) orders;\n    mapping(string => uint8 ) public currencydecimal;\n    mapping(uint256 => bool ) public token; // check if there is open order in expensebook\n    \n    \n    function _isSettlement(address _a) internal view \n    returns(bool a)\n    {\n        return access.hasRole(access.SETTLEMENT(),_a);\n    }\n    \n    function _isSales(address _a) internal view \n    returns(bool a)\n    {\n        return access.hasRole(access.SALE(),_a);\n    }\n    \n    function _isAdmin(address _a) internal view \n    returns(bool a)\n    {\n        return access.hasRole(access.ADMIN_ROLE(),_a);\n    }\n    \n    function _isAccount(address _a) internal view \n    returns(bool a)\n    {\n        return access.hasRole(access.ACCOUNT(),_a);\n    }\n    \n    function _isSupplier(address _a) internal view \n    returns(bool a)\n    {\n        return access.hasRole(access.SUPPLIER(),_a);\n    }\n    \n}\n",
  "sourcePath": "/home/dickchan/ERC721Marketplace/contracts/expenseBool.sol",
  "compiler": {
    "name": "solc",
    "version": "0.6.2+commit.bacdbe57.Emscripten.clang"
  },
  "schemaVersion": "3.2.3",
  "updatedAt": "2020-10-29T04:58:23.032Z",
  "devdoc": {
    "methods": {}
  },
  "userdoc": {
    "methods": {}
  }
}