{
  "contractName": "expenseBookProxy",
  "abi": [
    {
      "inputs": [
        {
          "internalType": "address",
          "name": "_statemachine",
          "type": "address"
        },
        {
          "internalType": "address",
          "name": "_access",
          "type": "address"
        }
      ],
      "stateMutability": "nonpayable",
      "type": "constructor"
    },
    {
      "anonymous": false,
      "inputs": [
        {
          "indexed": false,
          "internalType": "uint256",
          "name": "ad",
          "type": "uint256"
        },
        {
          "indexed": false,
          "internalType": "address",
          "name": "seller",
          "type": "address"
        },
        {
          "indexed": false,
          "internalType": "uint256",
          "name": "itemID",
          "type": "uint256"
        },
        {
          "indexed": false,
          "internalType": "uint256",
          "name": "p",
          "type": "uint256"
        },
        {
          "indexed": false,
          "internalType": "uint256",
          "name": "f",
          "type": "uint256"
        },
        {
          "indexed": false,
          "internalType": "string",
          "name": "c",
          "type": "string"
        },
        {
          "indexed": false,
          "internalType": "uint256",
          "name": "d",
          "type": "uint256"
        }
      ],
      "name": "NewOrderRequest",
      "type": "event"
    },
    {
      "anonymous": false,
      "inputs": [
        {
          "indexed": false,
          "internalType": "uint256",
          "name": "ad",
          "type": "uint256"
        },
        {
          "indexed": false,
          "internalType": "string",
          "name": "status",
          "type": "string"
        },
        {
          "indexed": false,
          "internalType": "string",
          "name": "action",
          "type": "string"
        },
        {
          "indexed": false,
          "internalType": "uint256",
          "name": "_datetime",
          "type": "uint256"
        }
      ],
      "name": "OrderStatusChange",
      "type": "event"
    },
    {
      "stateMutability": "payable",
      "type": "fallback"
    },
    {
      "inputs": [
        {
          "internalType": "string",
          "name": "",
          "type": "string"
        }
      ],
      "name": "currencydecimal",
      "outputs": [
        {
          "internalType": "uint8",
          "name": "",
          "type": "uint8"
        }
      ],
      "stateMutability": "view",
      "type": "function"
    },
    {
      "inputs": [],
      "name": "implementation",
      "outputs": [
        {
          "internalType": "address",
          "name": "",
          "type": "address"
        }
      ],
      "stateMutability": "view",
      "type": "function"
    },
    {
      "inputs": [
        {
          "internalType": "uint256",
          "name": "",
          "type": "uint256"
        }
      ],
      "name": "token",
      "outputs": [
        {
          "internalType": "bool",
          "name": "",
          "type": "bool"
        }
      ],
      "stateMutability": "view",
      "type": "function"
    },
    {
      "inputs": [
        {
          "internalType": "address",
          "name": "_address",
          "type": "address"
        }
      ],
      "name": "upgradeTo",
      "outputs": [],
      "stateMutability": "nonpayable",
      "type": "function"
    },
    {
      "inputs": [
        {
          "internalType": "address",
          "name": "_orderbook",
          "type": "address"
        }
      ],
      "name": "setOrdBook",
      "outputs": [],
      "stateMutability": "nonpayable",
      "type": "function"
    },
    {
      "inputs": [
        {
          "internalType": "address",
          "name": "_bookkeep",
          "type": "address"
        }
      ],
      "name": "setbookkeep",
      "outputs": [],
      "stateMutability": "nonpayable",
      "type": "function"
    },
    {
      "inputs": [
        {
          "internalType": "address",
          "name": "_a",
          "type": "address"
        }
      ],
      "name": "setPermissionControl",
      "outputs": [],
      "stateMutability": "nonpayable",
      "type": "function"
    },
    {
      "inputs": [
        {
          "internalType": "address",
          "name": "_a",
          "type": "address"
        }
      ],
      "name": "setERC721Lookup",
      "outputs": [],
      "stateMutability": "nonpayable",
      "type": "function"
    },
    {
      "inputs": [
        {
          "internalType": "address",
          "name": "_machine",
          "type": "address"
        }
      ],
      "name": "setStateMachine",
      "outputs": [],
      "stateMutability": "nonpayable",
      "type": "function"
    },
    {
      "inputs": [
        {
          "internalType": "address",
          "name": "_a",
          "type": "address"
        }
      ],
      "name": "setContractFactory",
      "outputs": [],
      "stateMutability": "nonpayable",
      "type": "function"
    },
    {
      "inputs": [],
      "name": "getAllContract",
      "outputs": [
        {
          "internalType": "address",
          "name": "",
          "type": "address"
        },
        {
          "internalType": "address",
          "name": "",
          "type": "address"
        },
        {
          "internalType": "address",
          "name": "",
          "type": "address"
        },
        {
          "internalType": "address",
          "name": "",
          "type": "address"
        },
        {
          "internalType": "address",
          "name": "",
          "type": "address"
        }
      ],
      "stateMutability": "view",
      "type": "function"
    },
    {
      "inputs": [],
      "name": "getOrderCount",
      "outputs": [
        {
          "internalType": "uint256",
          "name": "_c",
          "type": "uint256"
        }
      ],
      "stateMutability": "view",
      "type": "function"
    },
    {
      "inputs": [
        {
          "internalType": "uint256",
          "name": "_i",
          "type": "uint256"
        }
      ],
      "name": "getBuySideContractAddress",
      "outputs": [
        {
          "internalType": "address",
          "name": "_a",
          "type": "address"
        }
      ],
      "stateMutability": "view",
      "type": "function"
    },
    {
      "inputs": [
        {
          "internalType": "uint256",
          "name": "d",
          "type": "uint256"
        }
      ],
      "name": "setfeesprecentage_decimal",
      "outputs": [],
      "stateMutability": "nonpayable",
      "type": "function"
    },
    {
      "inputs": [],
      "name": "getfeesprecentage_decimal",
      "outputs": [
        {
          "internalType": "uint256",
          "name": "",
          "type": "uint256"
        }
      ],
      "stateMutability": "view",
      "type": "function"
    }
  ],
  "bytecode": "0x608060405234801561001057600080fd5b50604051611c8d380380611c8d8339818101604052604081101561003357600080fd5b810190808051906020019092919080519060200190929190505050806000806101000a81548173ffffffffffffffffffffffffffffffffffffffff021916908373ffffffffffffffffffffffffffffffffffffffff16021790555081600460006101000a81548173ffffffffffffffffffffffffffffffffffffffff021916908373ffffffffffffffffffffffffffffffffffffffff1602179055506002600a60405180807f484b4400000000000000000000000000000000000000000000000000000000008152506003019050908152602001604051809103902060006101000a81548160ff021916908360ff1602179055506002600a60405180807f55534400000000000000000000000000000000000000000000000000000000008152506003019050908152602001604051809103902060006101000a81548160ff021916908360ff160217905550600260068190555061019b60076101a260201b611a7a1760201c565b50506101b8565b6001816000016000828254019250508190555050565b611ac6806101c76000396000f3fe6080604052600436106100ec5760003560e01c80635c60da1b1161008a5780638d0a5fbb116100595780638d0a5fbb146106c7578063af3aedee146106f2578063bd94f43114610743578063f810d5be14610794576100ed565b80635c60da1b1461041a57806366127a5b146104715780637186775b14610553578063811fd2cb146105a4576100ed565b806312b0842b116100c657806312b0842b146102fc5780633659cfe61461034d578063435f08eb1461039e578063532e725b146103c9576100ed565b806301c92210146101dd578063044215c61461025857806311abcb09146102ab576100ed565b5b6000600c60009054906101000a900473ffffffffffffffffffffffffffffffffffffffff169050600073ffffffffffffffffffffffffffffffffffffffff168173ffffffffffffffffffffffffffffffffffffffff1614156101b7576040517f08c379a00000000000000000000000000000000000000000000000000000000081526004018080602001828103825260048152602001807f455031310000000000000000000000000000000000000000000000000000000081525060200191505060405180910390fd5b3660008037600080366000845af43d6000803e80600081146101d8573d6000f35b3d6000fd5b3480156101e957600080fd5b506102166004803603602081101561020057600080fd5b81019080803590602001909291905050506107cf565b604051808273ffffffffffffffffffffffffffffffffffffffff1673ffffffffffffffffffffffffffffffffffffffff16815260200191505060405180910390f35b34801561026457600080fd5b506102916004803603602081101561027b57600080fd5b81019080803590602001909291905050506108b7565b604051808215151515815260200191505060405180910390f35b3480156102b757600080fd5b506102fa600480360360208110156102ce57600080fd5b81019080803573ffffffffffffffffffffffffffffffffffffffff1690602001909291905050506108d7565b005b34801561030857600080fd5b5061034b6004803603602081101561031f57600080fd5b81019080803573ffffffffffffffffffffffffffffffffffffffff169060200190929190505050610996565b005b34801561035957600080fd5b5061039c6004803603602081101561037057600080fd5b81019080803573ffffffffffffffffffffffffffffffffffffffff169060200190929190505050610a55565b005b3480156103aa57600080fd5b506103b3610b24565b6040518082815260200191505060405180910390f35b3480156103d557600080fd5b50610418600480360360208110156103ec57600080fd5b81019080803573ffffffffffffffffffffffffffffffffffffffff169060200190929190505050610b2e565b005b34801561042657600080fd5b5061042f610bed565b604051808273ffffffffffffffffffffffffffffffffffffffff1673ffffffffffffffffffffffffffffffffffffffff16815260200191505060405180910390f35b34801561047d57600080fd5b506105376004803603602081101561049457600080fd5b81019080803590602001906401000000008111156104b157600080fd5b8201836020820111156104c357600080fd5b803590602001918460018302840111640100000000831117156104e557600080fd5b91908080601f016020809104026020016040519081016040528093929190818152602001838380828437600081840152601f19601f820116905080830192505050505050509192919290505050610c13565b604051808260ff1660ff16815260200191505060405180910390f35b34801561055f57600080fd5b506105a26004803603602081101561057657600080fd5b81019080803573ffffffffffffffffffffffffffffffffffffffff169060200190929190505050610c49565b005b3480156105b057600080fd5b506105b9610d08565b604051808673ffffffffffffffffffffffffffffffffffffffff1673ffffffffffffffffffffffffffffffffffffffff1681526020018573ffffffffffffffffffffffffffffffffffffffff1673ffffffffffffffffffffffffffffffffffffffff1681526020018473ffffffffffffffffffffffffffffffffffffffff1673ffffffffffffffffffffffffffffffffffffffff1681526020018373ffffffffffffffffffffffffffffffffffffffff1673ffffffffffffffffffffffffffffffffffffffff1681526020018273ffffffffffffffffffffffffffffffffffffffff1673ffffffffffffffffffffffffffffffffffffffff1681526020019550505050505060405180910390f35b3480156106d357600080fd5b506106dc610e7b565b6040518082815260200191505060405180910390f35b3480156106fe57600080fd5b506107416004803603602081101561071557600080fd5b81019080803573ffffffffffffffffffffffffffffffffffffffff169060200190929190505050610f3a565b005b34801561074f57600080fd5b506107926004803603602081101561076657600080fd5b81019080803573ffffffffffffffffffffffffffffffffffffffff169060200190929190505050610ff8565b005b3480156107a057600080fd5b506107cd600480360360208110156107b757600080fd5b81019080803590602001909291905050506110b7565b005b60006107da336112b5565b806107ea57506107e933611440565b5b806107fa57506107f9336115cb565b5b8061080a575061080933611756565b5b61087c576040517f08c379a00000000000000000000000000000000000000000000000000000000081526004018080602001828103825260048152602001807f455030390000000000000000000000000000000000000000000000000000000081525060200191505060405180910390fd5b6008600083815260200190815260200160002060009054906101000a900473ffffffffffffffffffffffffffffffffffffffff169050919050565b600b6020528060005260406000206000915054906101000a900460ff1681565b6108e0336118e1565b610952576040517f08c379a00000000000000000000000000000000000000000000000000000000081526004018080602001828103825260048152602001807f455030320000000000000000000000000000000000000000000000000000000081525060200191505060405180910390fd5b80600360006101000a81548173ffffffffffffffffffffffffffffffffffffffff021916908373ffffffffffffffffffffffffffffffffffffffff16021790555050565b61099f336118e1565b610a11576040517f08c379a00000000000000000000000000000000000000000000000000000000081526004018080602001828103825260048152602001807f455030350000000000000000000000000000000000000000000000000000000081525060200191505060405180910390fd5b80600560006101000a81548173ffffffffffffffffffffffffffffffffffffffff021916908373ffffffffffffffffffffffffffffffffffffffff16021790555050565b610a5e336112b5565b80610a6e5750610a6d336118e1565b5b610ae0576040517f08c379a00000000000000000000000000000000000000000000000000000000081526004018080602001828103825260048152602001807f455030310000000000000000000000000000000000000000000000000000000081525060200191505060405180910390fd5b80600c60006101000a81548173ffffffffffffffffffffffffffffffffffffffff021916908373ffffffffffffffffffffffffffffffffffffffff16021790555050565b6000600654905090565b610b37336118e1565b610ba9576040517f08c379a00000000000000000000000000000000000000000000000000000000081526004018080602001828103825260048152602001807f455030330000000000000000000000000000000000000000000000000000000081525060200191505060405180910390fd5b80600160006101000a81548173ffffffffffffffffffffffffffffffffffffffff021916908373ffffffffffffffffffffffffffffffffffffffff16021790555050565b600c60009054906101000a900473ffffffffffffffffffffffffffffffffffffffff1681565b600a818051602081018201805184825260208301602085012081835280955050505050506000915054906101000a900460ff1681565b610c52336112b5565b610cc4576040517f08c379a00000000000000000000000000000000000000000000000000000000081526004018080602001828103825260048152602001807f455030360000000000000000000000000000000000000000000000000000000081525060200191505060405180910390fd5b80600460006101000a81548173ffffffffffffffffffffffffffffffffffffffff021916908373ffffffffffffffffffffffffffffffffffffffff16021790555050565b6000806000806000610d19336112b5565b80610d295750610d2833611440565b5b80610d395750610d38336115cb565b5b80610d495750610d4833611756565b5b610dbb576040517f08c379a00000000000000000000000000000000000000000000000000000000081526004018080602001828103825260048152602001807f4f5031340000000000000000000000000000000000000000000000000000000081525060200191505060405180910390fd5b600360009054906101000a900473ffffffffffffffffffffffffffffffffffffffff16600160009054906101000a900473ffffffffffffffffffffffffffffffffffffffff16600460009054906101000a900473ffffffffffffffffffffffffffffffffffffffff16600260009054906101000a900473ffffffffffffffffffffffffffffffffffffffff16600c60009054906101000a900473ffffffffffffffffffffffffffffffffffffffff16945094509450945094509091929394565b6000610e86336112b5565b80610e965750610e9533611440565b5b80610ea65750610ea5336115cb565b5b80610eb65750610eb533611756565b5b610f28576040517f08c379a00000000000000000000000000000000000000000000000000000000081526004018080602001828103825260048152602001807f455030380000000000000000000000000000000000000000000000000000000081525060200191505060405180910390fd5b6001610f346007611a6c565b03905090565b610f43336118e1565b610fb5576040517f08c379a00000000000000000000000000000000000000000000000000000000081526004018080602001828103825260048152602001807f455030340000000000000000000000000000000000000000000000000000000081525060200191505060405180910390fd5b806000806101000a81548173ffffffffffffffffffffffffffffffffffffffff021916908373ffffffffffffffffffffffffffffffffffffffff16021790555050565b611001336118e1565b611073576040517f08c379a00000000000000000000000000000000000000000000000000000000081526004018080602001828103825260048152602001807f455031300000000000000000000000000000000000000000000000000000000081525060200191505060405180910390fd5b80600260006101000a81548173ffffffffffffffffffffffffffffffffffffffff021916908373ffffffffffffffffffffffffffffffffffffffff16021790555050565b6000809054906101000a900473ffffffffffffffffffffffffffffffffffffffff1673ffffffffffffffffffffffffffffffffffffffff166391d148546000809054906101000a900473ffffffffffffffffffffffffffffffffffffffff1673ffffffffffffffffffffffffffffffffffffffff166375b238fc6040518163ffffffff1660e01b815260040160206040518083038186803b15801561115b57600080fd5b505afa15801561116f573d6000803e3d6000fd5b505050506040513d602081101561118557600080fd5b8101908080519060200190929190505050336040518363ffffffff1660e01b8152600401808381526020018273ffffffffffffffffffffffffffffffffffffffff1673ffffffffffffffffffffffffffffffffffffffff1681526020019250505060206040518083038186803b1580156111fe57600080fd5b505afa158015611212573d6000803e3d6000fd5b505050506040513d602081101561122857600080fd5b81019080805190602001909291905050506112ab576040517f08c379a00000000000000000000000000000000000000000000000000000000081526004018080602001828103825260048152602001807f455030370000000000000000000000000000000000000000000000000000000081525060200191505060405180910390fd5b8060068190555050565b60008060009054906101000a900473ffffffffffffffffffffffffffffffffffffffff1673ffffffffffffffffffffffffffffffffffffffff166391d148546000809054906101000a900473ffffffffffffffffffffffffffffffffffffffff1673ffffffffffffffffffffffffffffffffffffffff166375b238fc6040518163ffffffff1660e01b815260040160206040518083038186803b15801561135b57600080fd5b505afa15801561136f573d6000803e3d6000fd5b505050506040513d602081101561138557600080fd5b8101908080519060200190929190505050846040518363ffffffff1660e01b8152600401808381526020018273ffffffffffffffffffffffffffffffffffffffff1673ffffffffffffffffffffffffffffffffffffffff1681526020019250505060206040518083038186803b1580156113fe57600080fd5b505afa158015611412573d6000803e3d6000fd5b505050506040513d602081101561142857600080fd5b81019080805190602001909291905050509050919050565b60008060009054906101000a900473ffffffffffffffffffffffffffffffffffffffff1673ffffffffffffffffffffffffffffffffffffffff166391d148546000809054906101000a900473ffffffffffffffffffffffffffffffffffffffff1673ffffffffffffffffffffffffffffffffffffffff16634db08aea6040518163ffffffff1660e01b815260040160206040518083038186803b1580156114e657600080fd5b505afa1580156114fa573d6000803e3d6000fd5b505050506040513d602081101561151057600080fd5b8101908080519060200190929190505050846040518363ffffffff1660e01b8152600401808381526020018273ffffffffffffffffffffffffffffffffffffffff1673ffffffffffffffffffffffffffffffffffffffff1681526020019250505060206040518083038186803b15801561158957600080fd5b505afa15801561159d573d6000803e3d6000fd5b505050506040513d60208110156115b357600080fd5b81019080805190602001909291905050509050919050565b60008060009054906101000a900473ffffffffffffffffffffffffffffffffffffffff1673ffffffffffffffffffffffffffffffffffffffff166391d148546000809054906101000a900473ffffffffffffffffffffffffffffffffffffffff1673ffffffffffffffffffffffffffffffffffffffff1663e90524f26040518163ffffffff1660e01b815260040160206040518083038186803b15801561167157600080fd5b505afa158015611685573d6000803e3d6000fd5b505050506040513d602081101561169b57600080fd5b8101908080519060200190929190505050846040518363ffffffff1660e01b8152600401808381526020018273ffffffffffffffffffffffffffffffffffffffff1673ffffffffffffffffffffffffffffffffffffffff1681526020019250505060206040518083038186803b15801561171457600080fd5b505afa158015611728573d6000803e3d6000fd5b505050506040513d602081101561173e57600080fd5b81019080805190602001909291905050509050919050565b60008060009054906101000a900473ffffffffffffffffffffffffffffffffffffffff1673ffffffffffffffffffffffffffffffffffffffff166391d148546000809054906101000a900473ffffffffffffffffffffffffffffffffffffffff1673ffffffffffffffffffffffffffffffffffffffff1663ef0fe2456040518163ffffffff1660e01b815260040160206040518083038186803b1580156117fc57600080fd5b505afa158015611810573d6000803e3d6000fd5b505050506040513d602081101561182657600080fd5b8101908080519060200190929190505050846040518363ffffffff1660e01b8152600401808381526020018273ffffffffffffffffffffffffffffffffffffffff1673ffffffffffffffffffffffffffffffffffffffff1681526020019250505060206040518083038186803b15801561189f57600080fd5b505afa1580156118b3573d6000803e3d6000fd5b505050506040513d60208110156118c957600080fd5b81019080805190602001909291905050509050919050565b60008060009054906101000a900473ffffffffffffffffffffffffffffffffffffffff1673ffffffffffffffffffffffffffffffffffffffff166391d148546000809054906101000a900473ffffffffffffffffffffffffffffffffffffffff1673ffffffffffffffffffffffffffffffffffffffff166348f029896040518163ffffffff1660e01b815260040160206040518083038186803b15801561198757600080fd5b505afa15801561199b573d6000803e3d6000fd5b505050506040513d60208110156119b157600080fd5b8101908080519060200190929190505050846040518363ffffffff1660e01b8152600401808381526020018273ffffffffffffffffffffffffffffffffffffffff1673ffffffffffffffffffffffffffffffffffffffff1681526020019250505060206040518083038186803b158015611a2a57600080fd5b505afa158015611a3e573d6000803e3d6000fd5b505050506040513d6020811015611a5457600080fd5b81019080805190602001909291905050509050919050565b600081600001549050919050565b600181600001600082825401925050819055505056fea2646970667358221220cc135c1dae65a237b9855b7b9a0499ad0bfb2dafc7fa3df74df47b10a9eef99164736f6c63430006020033",
  "source": "pragma solidity ^0.6.0;\n\nimport \"./expenseBookDS.sol\";\n\ncontract expenseBookProxy is expenseBookDS {\n    \n    event OrderStatusChange(uint256 ad, string status, string action,uint256 _datetime);\n    event NewOrderRequest(uint256 ad, address seller, uint256 itemID,uint256 p,uint256 f,string c,uint256 d);\n    address public implementation;\n\n\n    constructor (address _statemachine,address _access) public virtual\n    {\n        access = PermissionControl(_access);\n        statemachine = StateMachine(_statemachine);\n        //_setupRole(DEFAULT_ADMIN_ROLE, msg.sender);\n        currencydecimal[\"HKD\"]=2;\n        currencydecimal[\"USD\"]=2;\n        feesprecentage_decimal = 2;\n        _orderID.increment();\n        \n    }\n    \n\n    function upgradeTo(address _address) public {\n        require( _isAdmin(msg.sender) || _isCR(msg.sender)  , \"EP01\");\n        implementation = _address;\n    }\n    \n    function setOrdBook(address _orderbook) public {\n        require( _isCR(msg.sender) , \"EP02\");\n        orderbook=orderbookLibrary(_orderbook);\n    }\n    \n    function setbookkeep(address _bookkeep) public {\n        require( _isCR(msg.sender) , \"EP03\");\n        bookkeepingtoken=_bookkeep;\n    }\n    \n    function setPermissionControl(address _a)public {\n        require(_isCR(msg.sender),\"EP04\");\n        access = PermissionControl(_a);\n    }\n    \n    function setERC721Lookup(address _a)public {\n        require(_isCR(msg.sender),\"EP05\");\n        lookup = erc721DirectoryService(_a);\n    }\n    \n    function setStateMachine(address _machine) public  {\n        require( _isAdmin(msg.sender) , \"EP06\");\n        statemachine=StateMachine(_machine);\n    }\n    \n    function setContractFactory(address _a) public {\n        \n        require( _isCR(msg.sender) , \"EP10\");\n        contractfactory=_a;\n    }\n    \n    function getAllContract() public view\n    returns(address,address,address,address,address)\n    {\n         require( _isAdmin(msg.sender) || _isSales(msg.sender) || _isAccount(msg.sender) || _isSettlement(msg.sender) , \"OP14\");\n        return(address(orderbook),address(bookkeepingtoken),address(statemachine),contractfactory,implementation);\n    }\n    \n   function getOrderCount() public view\n   returns(uint256 _c)\n   {\n       require( _isAdmin(msg.sender) || _isSales(msg.sender) || _isAccount(msg.sender) || _isSettlement(msg.sender) , \"EP08\");\n       return _orderID.current()-1;\n   }\n\n   function getBuySideContractAddress(uint256 _i) public view\n   returns(address _a)\n   {\n       require( _isAdmin(msg.sender) || _isSales(msg.sender) || _isAccount(msg.sender) || _isSettlement(msg.sender) , \"EP09\");\n       return(orders[_i]);\n   }\n    function setfeesprecentage_decimal(uint256 d) public {\n        require( (access.hasRole(access.ADMIN_ROLE(),msg.sender)) , \"EP07\");\n        feesprecentage_decimal=d;\n    }\n    \n    function getfeesprecentage_decimal() public view\n    returns(uint256)\n    {\n        return feesprecentage_decimal;\n    }\n    \n  \n\n/**\n* @dev Fallback function allowing to perform a delegatecall to the given implementation.\n* This function will return whatever the implementation call returns\n*/\n    fallback() external payable  {\n        address _impl = implementation;\n        require(_impl != address(0),\"EP11\");\n        \n       assembly {\n                calldatacopy(0, 0, calldatasize())\n                let result := delegatecall(gas(), _impl, 0, calldatasize(), 0, 0)\n                returndatacopy(0, 0, returndatasize())\n                switch result\n                case 0 { revert(0, returndatasize()) }\n                default { return(0, returndatasize()) }\n            }\n    }\n\n} ",
  "sourcePath": "/home/dickchan/ERC721Marketplace/contracts/BookContract/expenseBookProxy.sol",
  "compiler": {
    "name": "solc",
    "version": "0.6.2+commit.bacdbe57.Emscripten.clang"
  },
  "schemaVersion": "3.2.3",
  "updatedAt": "2020-11-19T07:51:27.184Z",
  "devdoc": {
    "methods": {}
  },
  "userdoc": {
    "methods": {}
  }
}