{
  "contractName": "expenseBookProxy",
  "abi": [
    {
      "inputs": [
        {
          "internalType": "address",
          "name": "_orderbook",
          "type": "address"
        },
        {
          "internalType": "address",
          "name": "_diamondtoken",
          "type": "address"
        },
        {
          "internalType": "address",
          "name": "_statemachine",
          "type": "address"
        },
        {
          "internalType": "address",
          "name": "_bookeep",
          "type": "address"
        },
        {
          "internalType": "address",
          "name": "_access",
          "type": "address"
        }
      ],
      "stateMutability": "nonpayable",
      "type": "constructor"
    },
    {
      "stateMutability": "payable",
      "type": "fallback"
    },
    {
      "inputs": [
        {
          "internalType": "string",
          "name": "",
          "type": "string"
        }
      ],
      "name": "currencydecimal",
      "outputs": [
        {
          "internalType": "uint8",
          "name": "",
          "type": "uint8"
        }
      ],
      "stateMutability": "view",
      "type": "function"
    },
    {
      "inputs": [],
      "name": "implementation",
      "outputs": [
        {
          "internalType": "address",
          "name": "",
          "type": "address"
        }
      ],
      "stateMutability": "view",
      "type": "function"
    },
    {
      "inputs": [
        {
          "internalType": "uint256",
          "name": "",
          "type": "uint256"
        }
      ],
      "name": "token",
      "outputs": [
        {
          "internalType": "bool",
          "name": "",
          "type": "bool"
        }
      ],
      "stateMutability": "view",
      "type": "function"
    },
    {
      "inputs": [
        {
          "internalType": "address",
          "name": "_address",
          "type": "address"
        }
      ],
      "name": "upgradeTo",
      "outputs": [],
      "stateMutability": "nonpayable",
      "type": "function"
    },
    {
      "inputs": [
        {
          "internalType": "address",
          "name": "_orderbook",
          "type": "address"
        }
      ],
      "name": "setOrdBook",
      "outputs": [],
      "stateMutability": "nonpayable",
      "type": "function"
    },
    {
      "inputs": [
        {
          "internalType": "address",
          "name": "_bookkeep",
          "type": "address"
        }
      ],
      "name": "setbookkeep",
      "outputs": [],
      "stateMutability": "nonpayable",
      "type": "function"
    },
    {
      "inputs": [
        {
          "internalType": "address",
          "name": "_machine",
          "type": "address"
        }
      ],
      "name": "setStateMachine",
      "outputs": [],
      "stateMutability": "nonpayable",
      "type": "function"
    },
    {
      "inputs": [],
      "name": "getAllContract",
      "outputs": [
        {
          "internalType": "address",
          "name": "",
          "type": "address"
        },
        {
          "internalType": "address",
          "name": "",
          "type": "address"
        },
        {
          "internalType": "address",
          "name": "",
          "type": "address"
        }
      ],
      "stateMutability": "view",
      "type": "function"
    },
    {
      "inputs": [
        {
          "internalType": "uint256",
          "name": "d",
          "type": "uint256"
        }
      ],
      "name": "setfeesprecentage_decimal",
      "outputs": [],
      "stateMutability": "nonpayable",
      "type": "function"
    },
    {
      "inputs": [],
      "name": "getfeesprecentage_decimal",
      "outputs": [
        {
          "internalType": "uint256",
          "name": "",
          "type": "uint256"
        }
      ],
      "stateMutability": "view",
      "type": "function"
    },
    {
      "inputs": [],
      "name": "getOrdercount",
      "outputs": [
        {
          "internalType": "uint256",
          "name": "",
          "type": "uint256"
        }
      ],
      "stateMutability": "view",
      "type": "function"
    }
  ],
  "bytecode": "0x608060405234801561001057600080fd5b50604051611355380380611355833981810160405260a081101561003357600080fd5b810190808051906020019092919080519060200190929190805190602001909291908051906020019092919080519060200190929190505050846000806101000a81548173ffffffffffffffffffffffffffffffffffffffff021916908373ffffffffffffffffffffffffffffffffffffffff16021790555083600160006101000a81548173ffffffffffffffffffffffffffffffffffffffff021916908373ffffffffffffffffffffffffffffffffffffffff16021790555081600260006101000a81548173ffffffffffffffffffffffffffffffffffffffff021916908373ffffffffffffffffffffffffffffffffffffffff16021790555082600360006101000a81548173ffffffffffffffffffffffffffffffffffffffff021916908373ffffffffffffffffffffffffffffffffffffffff16021790555080600460006101000a81548173ffffffffffffffffffffffffffffffffffffffff021916908373ffffffffffffffffffffffffffffffffffffffff1602179055506002600a60405180807f484b4400000000000000000000000000000000000000000000000000000000008152506003019050908152602001604051809103902060006101000a81548160ff021916908360ff1602179055506002600a60405180807f55534400000000000000000000000000000000000000000000000000000000008152506003019050908152602001604051809103902060006101000a81548160ff021916908360ff1602179055506002600581905550600160009054906101000a900473ffffffffffffffffffffffffffffffffffffffff1673ffffffffffffffffffffffffffffffffffffffff1663a22cb4658660016040518363ffffffff1660e01b8152600401808373ffffffffffffffffffffffffffffffffffffffff1673ffffffffffffffffffffffffffffffffffffffff1681526020018215151515815260200192505050600060405180830381600087803b15801561031657600080fd5b505af115801561032a573d6000803e3d6000fd5b5050505033600760006101000a81548173ffffffffffffffffffffffffffffffffffffffff021916908373ffffffffffffffffffffffffffffffffffffffff160217905550610383600861038d60201b610f571760201c565b50505050506103a3565b6001816000016000828254019250508190555050565b610fa3806103b26000396000f3fe6080604052600436106100a05760003560e01c80635c60da1b116100645780635c60da1b1461029957806366127a5b146102f05780637186775b146103d2578063811fd2cb14610423578063cf06b3ce146104e0578063f810d5be1461050b576100a1565b8063044215c61461012857806311abcb091461017b5780633659cfe6146101cc578063435f08eb1461021d578063532e725b14610248576100a1565b5b6000600c60009054906101000a900473ffffffffffffffffffffffffffffffffffffffff169050600073ffffffffffffffffffffffffffffffffffffffff168173ffffffffffffffffffffffffffffffffffffffff16141561010257600080fd5b3660008037600080366000845af43d6000803e8060008114610123573d6000f35b3d6000fd5b34801561013457600080fd5b506101616004803603602081101561014b57600080fd5b8101908080359060200190929190505050610546565b604051808215151515815260200191505060405180910390f35b34801561018757600080fd5b506101ca6004803603602081101561019e57600080fd5b81019080803573ffffffffffffffffffffffffffffffffffffffff169060200190929190505050610566565b005b3480156101d857600080fd5b5061021b600480360360208110156101ef57600080fd5b81019080803573ffffffffffffffffffffffffffffffffffffffff16906020019092919050505061079f565b005b34801561022957600080fd5b506102326107e3565b6040518082815260200191505060405180910390f35b34801561025457600080fd5b506102976004803603602081101561026b57600080fd5b81019080803573ffffffffffffffffffffffffffffffffffffffff1690602001909291905050506107ed565b005b3480156102a557600080fd5b506102ae610a27565b604051808273ffffffffffffffffffffffffffffffffffffffff1673ffffffffffffffffffffffffffffffffffffffff16815260200191505060405180910390f35b3480156102fc57600080fd5b506103b66004803603602081101561031357600080fd5b810190808035906020019064010000000081111561033057600080fd5b82018360208201111561034257600080fd5b8035906020019184600183028401116401000000008311171561036457600080fd5b91908080601f016020809104026020016040519081016040528093929190818152602001838380828437600081840152601f19601f820116905080830192505050505050509192919290505050610a4d565b604051808260ff1660ff16815260200191505060405180910390f35b3480156103de57600080fd5b50610421600480360360208110156103f557600080fd5b81019080803573ffffffffffffffffffffffffffffffffffffffff169060200190929190505050610a83565b005b34801561042f57600080fd5b50610438610cbd565b604051808473ffffffffffffffffffffffffffffffffffffffff1673ffffffffffffffffffffffffffffffffffffffff1681526020018373ffffffffffffffffffffffffffffffffffffffff1673ffffffffffffffffffffffffffffffffffffffff1681526020018273ffffffffffffffffffffffffffffffffffffffff1673ffffffffffffffffffffffffffffffffffffffff168152602001935050505060405180910390f35b3480156104ec57600080fd5b506104f5610d35565b6040518082815260200191505060405180910390f35b34801561051757600080fd5b506105446004803603602081101561052e57600080fd5b8101908080359060200190929190505050610d49565b005b600b6020528060005260406000206000915054906101000a900460ff1681565b600460009054906101000a900473ffffffffffffffffffffffffffffffffffffffff1673ffffffffffffffffffffffffffffffffffffffff166391d14854600460009054906101000a900473ffffffffffffffffffffffffffffffffffffffff1673ffffffffffffffffffffffffffffffffffffffff166375b238fc6040518163ffffffff1660e01b815260040160206040518083038186803b15801561060c57600080fd5b505afa158015610620573d6000803e3d6000fd5b505050506040513d602081101561063657600080fd5b8101908080519060200190929190505050336040518363ffffffff1660e01b8152600401808381526020018273ffffffffffffffffffffffffffffffffffffffff1673ffffffffffffffffffffffffffffffffffffffff1681526020019250505060206040518083038186803b1580156106af57600080fd5b505afa1580156106c3573d6000803e3d6000fd5b505050506040513d60208110156106d957600080fd5b810190808051906020019092919050505061075c576040517f08c379a00000000000000000000000000000000000000000000000000000000081526004018080602001828103825260028152602001807f453000000000000000000000000000000000000000000000000000000000000081525060200191505060405180910390fd5b806000806101000a81548173ffffffffffffffffffffffffffffffffffffffff021916908373ffffffffffffffffffffffffffffffffffffffff16021790555050565b80600c60006101000a81548173ffffffffffffffffffffffffffffffffffffffff021916908373ffffffffffffffffffffffffffffffffffffffff16021790555050565b6000600554905090565b600460009054906101000a900473ffffffffffffffffffffffffffffffffffffffff1673ffffffffffffffffffffffffffffffffffffffff166391d14854600460009054906101000a900473ffffffffffffffffffffffffffffffffffffffff1673ffffffffffffffffffffffffffffffffffffffff166375b238fc6040518163ffffffff1660e01b815260040160206040518083038186803b15801561089357600080fd5b505afa1580156108a7573d6000803e3d6000fd5b505050506040513d60208110156108bd57600080fd5b8101908080519060200190929190505050336040518363ffffffff1660e01b8152600401808381526020018273ffffffffffffffffffffffffffffffffffffffff1673ffffffffffffffffffffffffffffffffffffffff1681526020019250505060206040518083038186803b15801561093657600080fd5b505afa15801561094a573d6000803e3d6000fd5b505050506040513d602081101561096057600080fd5b81019080805190602001909291905050506109e3576040517f08c379a00000000000000000000000000000000000000000000000000000000081526004018080602001828103825260028152602001807f453000000000000000000000000000000000000000000000000000000000000081525060200191505060405180910390fd5b80600260006101000a81548173ffffffffffffffffffffffffffffffffffffffff021916908373ffffffffffffffffffffffffffffffffffffffff16021790555050565b600c60009054906101000a900473ffffffffffffffffffffffffffffffffffffffff1681565b600a818051602081018201805184825260208301602085012081835280955050505050506000915054906101000a900460ff1681565b600460009054906101000a900473ffffffffffffffffffffffffffffffffffffffff1673ffffffffffffffffffffffffffffffffffffffff166391d14854600460009054906101000a900473ffffffffffffffffffffffffffffffffffffffff1673ffffffffffffffffffffffffffffffffffffffff166375b238fc6040518163ffffffff1660e01b815260040160206040518083038186803b158015610b2957600080fd5b505afa158015610b3d573d6000803e3d6000fd5b505050506040513d6020811015610b5357600080fd5b8101908080519060200190929190505050336040518363ffffffff1660e01b8152600401808381526020018273ffffffffffffffffffffffffffffffffffffffff1673ffffffffffffffffffffffffffffffffffffffff1681526020019250505060206040518083038186803b158015610bcc57600080fd5b505afa158015610be0573d6000803e3d6000fd5b505050506040513d6020811015610bf657600080fd5b8101908080519060200190929190505050610c79576040517f08c379a00000000000000000000000000000000000000000000000000000000081526004018080602001828103825260028152602001807f453000000000000000000000000000000000000000000000000000000000000081525060200191505060405180910390fd5b80600360006101000a81548173ffffffffffffffffffffffffffffffffffffffff021916908373ffffffffffffffffffffffffffffffffffffffff16021790555050565b60008060008060009054906101000a900473ffffffffffffffffffffffffffffffffffffffff16600260009054906101000a900473ffffffffffffffffffffffffffffffffffffffff16600360009054906101000a900473ffffffffffffffffffffffffffffffffffffffff16925092509250909192565b60006001610d436008610f49565b03905090565b600460009054906101000a900473ffffffffffffffffffffffffffffffffffffffff1673ffffffffffffffffffffffffffffffffffffffff166391d14854600460009054906101000a900473ffffffffffffffffffffffffffffffffffffffff1673ffffffffffffffffffffffffffffffffffffffff166375b238fc6040518163ffffffff1660e01b815260040160206040518083038186803b158015610def57600080fd5b505afa158015610e03573d6000803e3d6000fd5b505050506040513d6020811015610e1957600080fd5b8101908080519060200190929190505050336040518363ffffffff1660e01b8152600401808381526020018273ffffffffffffffffffffffffffffffffffffffff1673ffffffffffffffffffffffffffffffffffffffff1681526020019250505060206040518083038186803b158015610e9257600080fd5b505afa158015610ea6573d6000803e3d6000fd5b505050506040513d6020811015610ebc57600080fd5b8101908080519060200190929190505050610f3f576040517f08c379a00000000000000000000000000000000000000000000000000000000081526004018080602001828103825260028152602001807f453000000000000000000000000000000000000000000000000000000000000081525060200191505060405180910390fd5b8060058190555050565b600081600001549050919050565b600181600001600082825401925050819055505056fea2646970667358221220c77965abf306781b0f2a5c0b26402f57fa92b9aae2b5b7fdd47dc9e8cc461b0364736f6c63430006020033",
  "source": "pragma solidity ^0.6.0;\n\nimport \"./expenseBool.sol\";\n\ncontract expenseBookProxy is expenseBookDS {\n    \n    address public implementation;\n\n\n    constructor (address _orderbook, address _diamondtoken, address _statemachine,address _bookeep,address _access ) public virtual\n    {\n        orderbook = Orderbook(_orderbook);\n        diamondtoken = ERC721(_diamondtoken);\n        bookkeepingtoken = PaymentBook(_bookeep);\n        statemachine = StateMachine(_statemachine);\n        access = PermissionControl(_access);\n        //_setupRole(DEFAULT_ADMIN_ROLE, msg.sender);\n        currencydecimal[\"HKD\"]=2;\n        currencydecimal[\"USD\"]=2;\n        feesprecentage_decimal = 2;\n        diamondtoken.setApprovalForAll(_orderbook,true);\n        owner = msg.sender;\n        _orderID.increment();\n        \n    }\n    \n\n    function upgradeTo(address _address) public {\n        implementation = _address;\n    }\n    \n    function setOrdBook(address _orderbook) public {\n        require( (access.hasRole(access.ADMIN_ROLE(),msg.sender)) , \"E0\");\n        orderbook=Orderbook(_orderbook);\n    }\n    \n    function setbookkeep(address _bookkeep) public {\n        require( (access.hasRole(access.ADMIN_ROLE(),msg.sender)) , \"E0\");\n        bookkeepingtoken=PaymentBook(_bookkeep);\n    }\n    \n    function setStateMachine(address _machine) public  {\n        require( (access.hasRole(access.ADMIN_ROLE(),msg.sender)) , \"E0\");\n        statemachine=StateMachine(_machine);\n    }\n    \n    function getAllContract() public view\n    returns(address,address,address)\n    {\n        return(address(orderbook),address(bookkeepingtoken),address(statemachine));\n    }\n    \n   \n    \n    function setfeesprecentage_decimal(uint256 d) public {\n        require( (access.hasRole(access.ADMIN_ROLE(),msg.sender)) , \"E0\");\n        feesprecentage_decimal=d;\n    }\n    \n    function getfeesprecentage_decimal() public view\n    returns(uint256)\n    {\n        return feesprecentage_decimal;\n    }\n    \n    function getOrdercount() public view \n    returns(uint256)\n    {\n        return(_orderID.current()-1);\n    }\n\n/**\n* @dev Fallback function allowing to perform a delegatecall to the given implementation.\n* This function will return whatever the implementation call returns\n*/\n    fallback() external payable  {\n        address _impl = implementation;\n        require(_impl != address(0));\n        \n       assembly {\n                calldatacopy(0, 0, calldatasize())\n                let result := delegatecall(gas(), _impl, 0, calldatasize(), 0, 0)\n                returndatacopy(0, 0, returndatasize())\n                switch result\n                case 0 { revert(0, returndatasize()) }\n                default { return(0, returndatasize()) }\n            }\n    }\n\n} ",
  "sourcePath": "/home/dickchan/ERC721Marketplace/contracts/expenseBookProxy.sol",
  "compiler": {
    "name": "solc",
    "version": "0.6.2+commit.bacdbe57.Emscripten.clang"
  },
  "schemaVersion": "3.2.3",
  "updatedAt": "2020-10-29T04:58:23.027Z",
  "devdoc": {
    "methods": {}
  },
  "userdoc": {
    "methods": {}
  }
}