{
  "contractName": "expenseBookDS",
  "abi": [
    {
      "inputs": [
        {
          "internalType": "string",
          "name": "",
          "type": "string"
        }
      ],
      "name": "currencydecimal",
      "outputs": [
        {
          "internalType": "uint8",
          "name": "",
          "type": "uint8"
        }
      ],
      "stateMutability": "view",
      "type": "function"
    },
    {
      "inputs": [
        {
          "internalType": "uint256",
          "name": "",
          "type": "uint256"
        }
      ],
      "name": "token",
      "outputs": [
        {
          "internalType": "bool",
          "name": "",
          "type": "bool"
        }
      ],
      "stateMutability": "view",
      "type": "function"
    }
  ],
  "bytecode": "0x608060405234801561001057600080fd5b506101e2806100206000396000f3fe608060405234801561001057600080fd5b50600436106100365760003560e01c8063044215c61461003b57806366127a5b14610081575b600080fd5b6100676004803603602081101561005157600080fd5b8101908080359060200190929190505050610156565b604051808215151515815260200191505060405180910390f35b61013a6004803603602081101561009757600080fd5b81019080803590602001906401000000008111156100b457600080fd5b8201836020820111156100c657600080fd5b803590602001918460018302840111640100000000831117156100e857600080fd5b91908080601f016020809104026020016040519081016040528093929190818152602001838380828437600081840152601f19601f820116905080830192505050505050509192919290505050610176565b604051808260ff1660ff16815260200191505060405180910390f35b600b6020528060005260406000206000915054906101000a900460ff1681565b600a818051602081018201805184825260208301602085012081835280955050505050506000915054906101000a900460ff168156fea26469706673582212209175d051719505f8960c4937a4cc1240b74ce6b13892a73b8db9df9f5a2faef064736f6c63430006020033",
  "source": "pragma solidity ^0.6.0;\n\nimport \"openzeppelin-solidity/contracts/math/SafeMath.sol\";\nimport \"openzeppelin-solidity/contracts/utils/Address.sol\";\nimport \"./stateMachine.sol\";\nimport \"openzeppelin-solidity/contracts/utils/Counters.sol\";\n\nimport \"./orderBookLibrary.sol\";\nimport \"../utils/erc721DirectoryLookup.sol\";\nimport \"../utils/access.sol\";\n\n//contract expenseBook is  AccessControl, GSNRecipient {\n\ncontract expenseBookDS is Access {   \n    using Counters for Counters.Counter;\n    using SafeMath for uint256;\n    using Address for address;\n\n    address bookkeepingtoken;\n    address contractfactory;\n    orderbookLibrary orderbook;\n    StateMachine statemachine;\n    erc721DirectoryService lookup;\n    uint256 feesprecentage_decimal;\n    Counters.Counter _orderID;\n    mapping(uint256 => address) orders;\n    mapping(address => uint256) address2orders;\n    mapping(string => uint8 ) public currencydecimal;\n    mapping(uint256 => bool ) public token; // check if there is open order in expensebook\n    \n    \n    \n}\n",
  "sourcePath": "/home/dickchan/ERC721Marketplace/contracts/BookContract/expenseBookDS.sol",
  "compiler": {
    "name": "solc",
    "version": "0.6.2+commit.bacdbe57.Emscripten.clang"
  },
  "schemaVersion": "3.2.3",
  "updatedAt": "2020-11-19T07:51:27.140Z",
  "devdoc": {
    "methods": {}
  },
  "userdoc": {
    "methods": {}
  }
}