{
  "contractName": "expenseBookLibrary",
  "abi": [
    {
      "anonymous": false,
      "inputs": [
        {
          "indexed": false,
          "internalType": "uint256",
          "name": "ad",
          "type": "uint256"
        },
        {
          "indexed": false,
          "internalType": "address",
          "name": "seller",
          "type": "address"
        },
        {
          "indexed": false,
          "internalType": "uint256",
          "name": "itemID",
          "type": "uint256"
        },
        {
          "indexed": false,
          "internalType": "uint256",
          "name": "p",
          "type": "uint256"
        },
        {
          "indexed": false,
          "internalType": "uint256",
          "name": "f",
          "type": "uint256"
        },
        {
          "indexed": false,
          "internalType": "string",
          "name": "c",
          "type": "string"
        },
        {
          "indexed": false,
          "internalType": "uint8",
          "name": "pt",
          "type": "uint8"
        },
        {
          "indexed": false,
          "internalType": "uint256",
          "name": "d",
          "type": "uint256"
        }
      ],
      "name": "NewOrderRequest",
      "type": "event"
    },
    {
      "anonymous": false,
      "inputs": [
        {
          "indexed": false,
          "internalType": "uint256",
          "name": "ad",
          "type": "uint256"
        },
        {
          "indexed": false,
          "internalType": "string",
          "name": "status",
          "type": "string"
        },
        {
          "indexed": false,
          "internalType": "string",
          "name": "action",
          "type": "string"
        },
        {
          "indexed": false,
          "internalType": "uint256",
          "name": "_datetime",
          "type": "uint256"
        }
      ],
      "name": "OrderStatusChange",
      "type": "event"
    },
    {
      "inputs": [
        {
          "internalType": "string",
          "name": "",
          "type": "string"
        }
      ],
      "name": "currencydecimal",
      "outputs": [
        {
          "internalType": "uint8",
          "name": "",
          "type": "uint8"
        }
      ],
      "stateMutability": "view",
      "type": "function"
    },
    {
      "inputs": [
        {
          "internalType": "uint256",
          "name": "",
          "type": "uint256"
        }
      ],
      "name": "token",
      "outputs": [
        {
          "internalType": "bool",
          "name": "",
          "type": "bool"
        }
      ],
      "stateMutability": "view",
      "type": "function"
    },
    {
      "inputs": [
        {
          "internalType": "uint256",
          "name": "_itemID",
          "type": "uint256"
        },
        {
          "internalType": "uint256",
          "name": "_price",
          "type": "uint256"
        },
        {
          "internalType": "uint256",
          "name": "_feesprecentage",
          "type": "uint256"
        },
        {
          "internalType": "string",
          "name": "_currency",
          "type": "string"
        },
        {
          "internalType": "uint8",
          "name": "_paymenttype",
          "type": "uint8"
        },
        {
          "internalType": "uint256",
          "name": "_createdatetime",
          "type": "uint256"
        },
        {
          "internalType": "address",
          "name": "_seller",
          "type": "address"
        }
      ],
      "name": "createOrderRequest",
      "outputs": [],
      "stateMutability": "nonpayable",
      "type": "function"
    },
    {
      "inputs": [
        {
          "internalType": "uint256",
          "name": "_orderid",
          "type": "uint256"
        },
        {
          "internalType": "uint256",
          "name": "_datetime",
          "type": "uint256"
        }
      ],
      "name": "rejectRequest",
      "outputs": [],
      "stateMutability": "nonpayable",
      "type": "function"
    },
    {
      "inputs": [
        {
          "internalType": "uint256",
          "name": "_orderid",
          "type": "uint256"
        },
        {
          "internalType": "uint256",
          "name": "_datetime",
          "type": "uint256"
        }
      ],
      "name": "cancelRequest",
      "outputs": [],
      "stateMutability": "nonpayable",
      "type": "function"
    },
    {
      "inputs": [
        {
          "internalType": "uint256",
          "name": "_orderid",
          "type": "uint256"
        },
        {
          "internalType": "uint256",
          "name": "_price",
          "type": "uint256"
        },
        {
          "internalType": "bool",
          "name": "_createtrade",
          "type": "bool"
        },
        {
          "internalType": "uint256",
          "name": "_datetime",
          "type": "uint256"
        }
      ],
      "name": "acceptRequest",
      "outputs": [],
      "stateMutability": "nonpayable",
      "type": "function"
    },
    {
      "inputs": [
        {
          "internalType": "uint256",
          "name": "_orderid",
          "type": "uint256"
        },
        {
          "internalType": "uint256",
          "name": "_datetime",
          "type": "uint256"
        }
      ],
      "name": "cancelOrder",
      "outputs": [],
      "stateMutability": "nonpayable",
      "type": "function"
    },
    {
      "inputs": [
        {
          "internalType": "uint256",
          "name": "_orderid",
          "type": "uint256"
        },
        {
          "internalType": "uint256",
          "name": "_price",
          "type": "uint256"
        },
        {
          "internalType": "uint256",
          "name": "_datetime",
          "type": "uint256"
        }
      ],
      "name": "addTrade",
      "outputs": [],
      "stateMutability": "nonpayable",
      "type": "function"
    },
    {
      "inputs": [
        {
          "internalType": "uint256",
          "name": "_orderid",
          "type": "uint256"
        },
        {
          "internalType": "uint256",
          "name": "_datetime",
          "type": "uint256"
        }
      ],
      "name": "cancelTrade",
      "outputs": [],
      "stateMutability": "nonpayable",
      "type": "function"
    },
    {
      "inputs": [
        {
          "internalType": "uint256",
          "name": "_orderid",
          "type": "uint256"
        },
        {
          "internalType": "uint256",
          "name": "_datetime",
          "type": "uint256"
        }
      ],
      "name": "fullFillTrade",
      "outputs": [],
      "stateMutability": "nonpayable",
      "type": "function"
    },
    {
      "inputs": [
        {
          "internalType": "uint256",
          "name": "_orderid",
          "type": "uint256"
        },
        {
          "internalType": "uint256",
          "name": "_settledate",
          "type": "uint256"
        },
        {
          "internalType": "uint256",
          "name": "_settleamount",
          "type": "uint256"
        },
        {
          "internalType": "uint256",
          "name": "_datetime",
          "type": "uint256"
        }
      ],
      "name": "updateINV_settledate",
      "outputs": [],
      "stateMutability": "nonpayable",
      "type": "function"
    },
    {
      "inputs": [
        {
          "internalType": "uint256",
          "name": "_orderid",
          "type": "uint256"
        },
        {
          "internalType": "string",
          "name": "_settleurl",
          "type": "string"
        },
        {
          "internalType": "uint256",
          "name": "_datetime",
          "type": "uint256"
        }
      ],
      "name": "updateINV_settleURL",
      "outputs": [],
      "stateMutability": "nonpayable",
      "type": "function"
    },
    {
      "inputs": [
        {
          "internalType": "uint256",
          "name": "_orderid",
          "type": "uint256"
        },
        {
          "internalType": "string",
          "name": "_paymenturl",
          "type": "string"
        },
        {
          "internalType": "uint256",
          "name": "_datetime",
          "type": "uint256"
        }
      ],
      "name": "updateINV_paymentURL",
      "outputs": [],
      "stateMutability": "nonpayable",
      "type": "function"
    },
    {
      "inputs": [
        {
          "internalType": "uint256",
          "name": "_orderid",
          "type": "uint256"
        },
        {
          "internalType": "uint64",
          "name": "key",
          "type": "uint64"
        },
        {
          "internalType": "string",
          "name": "value",
          "type": "string"
        }
      ],
      "name": "updateINV_updateMeta",
      "outputs": [],
      "stateMutability": "nonpayable",
      "type": "function"
    },
    {
      "inputs": [
        {
          "internalType": "uint256",
          "name": "_orderid",
          "type": "uint256"
        },
        {
          "internalType": "uint256",
          "name": "_datetime",
          "type": "uint256"
        }
      ],
      "name": "updateINV_confirm",
      "outputs": [],
      "stateMutability": "nonpayable",
      "type": "function"
    },
    {
      "inputs": [
        {
          "internalType": "uint256",
          "name": "_itemid",
          "type": "uint256"
        }
      ],
      "name": "withdrawalDiamond",
      "outputs": [],
      "stateMutability": "nonpayable",
      "type": "function"
    },
    {
      "inputs": [
        {
          "internalType": "uint256",
          "name": "_amount",
          "type": "uint256"
        }
      ],
      "name": "withdrawalbookeep",
      "outputs": [],
      "stateMutability": "nonpayable",
      "type": "function"
    }
  ],
  "bytecode": "0x608060405234801561001057600080fd5b5061877c80620000216000396000f3fe60806040523480156200001157600080fd5b5060043610620001245760003560e01c806366127a5b11620000b1578063b122821d116200007b578063b122821d14620006a0578063b6ed063214620006ef578063d586d2e4146200072a578063ec33c25f1462000765578063f9490d8414620007b65762000124565b806366127a5b14620003055780637ee11e7014620003e05780638536407614620004f657806389a40c6914620005cb5762000124565b80635516daea11620000f35780635516daea14620002195780635f764495146200025e57806364339dbf146200028f57806364c56ed114620002ca5762000124565b8063044215c614620001295780630cd1c18414620001725780633d1894af14620001a35780634388a9c014620001de575b600080fd5b62000158600480360360208110156200014157600080fd5b810190808035906020019092919050505062000895565b604051808215151515815260200191505060405180910390f35b620001a1600480360360208110156200018a57600080fd5b8101908080359060200190929190505050620008b5565b005b620001dc60048036036040811015620001bb57600080fd5b81019080803590602001909291908035906020019092919050505062000a78565b005b6200021760048036036040811015620001f657600080fd5b81019080803590602001909291908035906020019092919050505062000d31565b005b6200025c600480360360608110156200023157600080fd5b810190808035906020019092919080359060200190929190803590602001909291905050506200115f565b005b6200028d600480360360208110156200027657600080fd5b8101908080359060200190929190505050620016c1565b005b620002c860048036036040811015620002a757600080fd5b8101908080359060200190929190803590602001909291905050506200185f565b005b6200030360048036036040811015620002e257600080fd5b81019080803590602001909291908035906020019092919050505062001b98565b005b620003c4600480360360208110156200031d57600080fd5b81019080803590602001906401000000008111156200033b57600080fd5b8201836020820111156200034e57600080fd5b803590602001918460018302840111640100000000831117156200037157600080fd5b91908080601f016020809104026020016040519081016040528093929190818152602001838380828437600081840152601f19601f820116905080830192505050505050509192919290505050620020fe565b604051808260ff1660ff16815260200191505060405180910390f35b620004f4600480360360e0811015620003f857600080fd5b81019080803590602001909291908035906020019092919080359060200190929190803590602001906401000000008111156200043457600080fd5b8201836020820111156200044757600080fd5b803590602001918460018302840111640100000000831117156200046a57600080fd5b91908080601f016020809104026020016040519081016040528093929190818152602001838380828437600081840152601f19601f820116905080830192505050505050509192919290803560ff16906020019092919080359060200190929190803573ffffffffffffffffffffffffffffffffffffffff16906020019092919050505062002134565b005b620005c9600480360360608110156200050e57600080fd5b8101908080359060200190929190803590602001906401000000008111156200053657600080fd5b8201836020820111156200054957600080fd5b803590602001918460018302840111640100000000831117156200056c57600080fd5b91908080601f016020809104026020016040519081016040528093929190818152602001838380828437600081840152601f19601f82011690508083019250505050505050919291929080359060200190929190505050620028d2565b005b6200069e60048036036060811015620005e357600080fd5b8101908080359060200190929190803590602001906401000000008111156200060b57600080fd5b8201836020820111156200061e57600080fd5b803590602001918460018302840111640100000000831117156200064157600080fd5b91908080601f016020809104026020016040519081016040528093929190818152602001838380828437600081840152601f19601f8201169050808301925050505050505091929192908035906020019092919050505062002bac565b005b620006ed60048036036080811015620006b857600080fd5b81019080803590602001909291908035906020019092919080359060200190929190803590602001909291905050506200311b565b005b62000728600480360360408110156200070757600080fd5b81019080803590602001909291908035906020019092919050505062003513565b005b62000763600480360360408110156200074257600080fd5b81019080803590602001909291908035906020019092919050505062003a46565b005b620007b4600480360360808110156200077d57600080fd5b8101908080359060200190929190803590602001909291908035151590602001909291908035906020019092919050505062003d49565b005b6200089360048036036060811015620007ce57600080fd5b8101908080359060200190929190803567ffffffffffffffff169060200190929190803590602001906401000000008111156200080a57600080fd5b8201836020820111156200081d57600080fd5b803590602001918460018302840111640100000000831117156200084057600080fd5b91908080601f016020809104026020016040519081016040528093929190818152602001838380828437600081840152601f19601f82011690508083019250505050505050919291929050505062004184565b005b600b6020528060005260406000206000915054906101000a900460ff1681565b620008c03362004357565b80620008d35750620008d233620044ea565b5b80620008e65750620008e5336200467d565b5b62000959576040517f08c379a00000000000000000000000000000000000000000000000000000000081526004018080602001828103825260038152602001807f453239000000000000000000000000000000000000000000000000000000000081525060200191505060405180910390fd5b600260009054906101000a900473ffffffffffffffffffffffffffffffffffffffff1673ffffffffffffffffffffffffffffffffffffffff166323b872dd3033846040518463ffffffff1660e01b8152600401808473ffffffffffffffffffffffffffffffffffffffff1673ffffffffffffffffffffffffffffffffffffffff1681526020018373ffffffffffffffffffffffffffffffffffffffff1673ffffffffffffffffffffffffffffffffffffffff1681526020018281526020019350505050602060405180830381600087803b15801562000a3757600080fd5b505af115801562000a4c573d6000803e3d6000fd5b505050506040513d602081101562000a6357600080fd5b81019080805190602001909291905050505050565b62000a8333620044ea565b8062000a96575062000a953362004810565b5b62000b09576040517f08c379a00000000000000000000000000000000000000000000000000000000081526004018080602001828103825260028152602001807f453600000000000000000000000000000000000000000000000000000000000081525060200191505060405180910390fd5b6000606062000b8b62000b4f6009600087815260200190815260200160002060009054906101000a900473ffffffffffffffffffffffffffffffffffffffff16620049a3565b6040518060400160405280600d81526020017f72656a656374526571756573740000000000000000000000000000000000000081525062004c3f565b915091508162000c03576040517f08c379a00000000000000000000000000000000000000000000000000000000081526004018080602001828103825260028152602001807f453700000000000000000000000000000000000000000000000000000000000081525060200191505060405180910390fd5b62000c436009600086815260200190815260200160002060009054906101000a900473ffffffffffffffffffffffffffffffffffffffff16828562004e50565b7f18e6968414f33702467961559c1912d6c91683d964cc4a3aa8944716773ed787848285604051808481526020018060200180602001848152602001838103835285818151815260200191508051906020019080838360005b8381101562000cb957808201518184015260208101905062000c9c565b50505050905090810190601f16801562000ce75780820380516001836020036101000a031916815260200191505b508381038252600d8152602001807f72656a65637452657175657374000000000000000000000000000000000000008152506020019550505050505060405180910390a150505050565b60006009600084815260200190815260200160002060009054906101000a900473ffffffffffffffffffffffffffffffffffffffff169050600460009054906101000a900473ffffffffffffffffffffffffffffffffffffffff1673ffffffffffffffffffffffffffffffffffffffff166391d14854600460009054906101000a900473ffffffffffffffffffffffffffffffffffffffff1673ffffffffffffffffffffffffffffffffffffffff16634d5e07fb6040518163ffffffff1660e01b815260040160206040518083038186803b15801562000e1057600080fd5b505afa15801562000e25573d6000803e3d6000fd5b505050506040513d602081101562000e3c57600080fd5b8101908080519060200190929190505050336040518363ffffffff1660e01b8152600401808381526020018273ffffffffffffffffffffffffffffffffffffffff1673ffffffffffffffffffffffffffffffffffffffff1681526020019250505060206040518083038186803b15801562000eb657600080fd5b505afa15801562000ecb573d6000803e3d6000fd5b505050506040513d602081101562000ee257600080fd5b810190808051906020019092919050505062000f66576040517f08c379a00000000000000000000000000000000000000000000000000000000081526004018080602001828103825260038152602001807f453139000000000000000000000000000000000000000000000000000000000081525060200191505060405180910390fd5b6000606062000fb562000f7984620049a3565b6040518060400160405280600d81526020017f66756c6c46696c6c54726164650000000000000000000000000000000000000081525062004c3f565b91509150816200102d576040517f08c379a00000000000000000000000000000000000000000000000000000000081526004018080602001828103825260038152602001807f453230000000000000000000000000000000000000000000000000000000000081525060200191505060405180910390fd5b6200103a83828662004e50565b7f18e6968414f33702467961559c1912d6c91683d964cc4a3aa8944716773ed787858286604051808481526020018060200180602001848152602001838103835285818151815260200191508051906020019080838360005b83811015620010b057808201518184015260208101905062001093565b50505050905090810190601f168015620010de5780820380516001836020036101000a031916815260200191505b508381038252600d8152602001807f66756c6c46696c6c5472616465000000000000000000000000000000000000008152506020019550505050505060405180910390a16000600b6000620011338662005089565b815260200190815260200160002060006101000a81548160ff0219169083151502179055505050505050565b60006009600085815260200190815260200160002060009054906101000a900473ffffffffffffffffffffffffffffffffffffffff169050620011a23362004810565b80620011b55750620011b433620044ea565b5b62001228576040517f08c379a00000000000000000000000000000000000000000000000000000000081526004018080602001828103825260038152602001807f453134000000000000000000000000000000000000000000000000000000000081525060200191505060405180910390fd5b620012338162005276565b831015620012a9576040517f08c379a00000000000000000000000000000000000000000000000000000000081526004018080602001828103825260038152602001807f453330000000000000000000000000000000000000000000000000000000000081525060200191505060405180910390fd5b60006060620012f8620012bc84620049a3565b6040518060400160405280600881526020017f616464547261646500000000000000000000000000000000000000000000000081525062004c3f565b915091508162001370576040517f08c379a00000000000000000000000000000000000000000000000000000000081526004018080602001828103825260038152602001807f453135000000000000000000000000000000000000000000000000000000000081525060200191505060405180910390fd5b60006200137d8462005089565b9050600015156000809054906101000a900473ffffffffffffffffffffffffffffffffffffffff1673ffffffffffffffffffffffffffffffffffffffff1663c70acf7a836040518263ffffffff1660e01b81526004018082815260200191505060206040518083038186803b158015620013f657600080fd5b505afa1580156200140b573d6000803e3d6000fd5b505050506040513d60208110156200142257600080fd5b8101908080519060200190929190505050151514620014a9576040517f08c379a00000000000000000000000000000000000000000000000000000000081526004018080602001828103825260038152602001807f453136000000000000000000000000000000000000000000000000000000000081525060200191505060405180910390fd5b60008060009054906101000a900473ffffffffffffffffffffffffffffffffffffffff1673ffffffffffffffffffffffffffffffffffffffff166308bb4a9983620014f48862005463565b8a8c8b6040518663ffffffff1660e01b8152600401808681526020018573ffffffffffffffffffffffffffffffffffffffff1673ffffffffffffffffffffffffffffffffffffffff16815260200184815260200183815260200182815260200195505050505050602060405180830381600087803b1580156200157657600080fd5b505af11580156200158b573d6000803e3d6000fd5b505050506040513d6020811015620015a257600080fd5b81019080805190602001909291905050509050620015c285828862005650565b620015cf85848862004e50565b7f18e6968414f33702467961559c1912d6c91683d964cc4a3aa8944716773ed787888488604051808481526020018060200180602001848152602001838103835285818151815260200191508051906020019080838360005b838110156200164557808201518184015260208101905062001628565b50505050905090810190601f168015620016735780820380516001836020036101000a031916815260200191505b50838103825260088152602001807f61646454726164650000000000000000000000000000000000000000000000008152506020019550505050505060405180910390a15050505050505050565b620016cc3362004357565b80620016df5750620016de33620044ea565b5b80620016f25750620016f1336200467d565b5b62001765576040517f08c379a00000000000000000000000000000000000000000000000000000000081526004018080602001828103825260038152602001807f453239000000000000000000000000000000000000000000000000000000000081525060200191505060405180910390fd5b600160009054906101000a900473ffffffffffffffffffffffffffffffffffffffff1673ffffffffffffffffffffffffffffffffffffffff166323b872dd3033846040518463ffffffff1660e01b8152600401808473ffffffffffffffffffffffffffffffffffffffff1673ffffffffffffffffffffffffffffffffffffffff1681526020018373ffffffffffffffffffffffffffffffffffffffff1673ffffffffffffffffffffffffffffffffffffffff1681526020018281526020019350505050600060405180830381600087803b1580156200184357600080fd5b505af115801562001858573d6000803e3d6000fd5b5050505050565b60006009600084815260200190815260200160002060009054906101000a900473ffffffffffffffffffffffffffffffffffffffff169050620018a23362004810565b80620018b55750620018b433620044ea565b5b62001928576040517f08c379a00000000000000000000000000000000000000000000000000000000081526004018080602001828103825260038152602001807f453137000000000000000000000000000000000000000000000000000000000081525060200191505060405180910390fd5b60006060620019776200193b84620049a3565b6040518060400160405280600b81526020017f63616e63656c547261646500000000000000000000000000000000000000000081525062004c3f565b9150915081620019ef576040517f08c379a00000000000000000000000000000000000000000000000000000000081526004018080602001828103825260038152602001807f453138000000000000000000000000000000000000000000000000000000000081525060200191505060405180910390fd5b6000809054906101000a900473ffffffffffffffffffffffffffffffffffffffff1673ffffffffffffffffffffffffffffffffffffffff16630b8b1caf62001a378562005821565b8660006040518463ffffffff1660e01b815260040180848152602001838152602001821515151581526020019350505050600060405180830381600087803b15801562001a8357600080fd5b505af115801562001a98573d6000803e3d6000fd5b5050505062001aa983828662004e50565b7f18e6968414f33702467961559c1912d6c91683d964cc4a3aa8944716773ed787858286604051808481526020018060200180602001848152602001838103835285818151815260200191508051906020019080838360005b8381101562001b1f57808201518184015260208101905062001b02565b50505050905090810190601f16801562001b4d5780820380516001836020036101000a031916815260200191505b508381038252600b8152602001807f63616e63656c54726164650000000000000000000000000000000000000000008152506020019550505050505060405180910390a15050505050565b60006009600084815260200190815260200160002060009054906101000a900473ffffffffffffffffffffffffffffffffffffffff16905062001bdb3362004357565b8062001bee575062001bed33620044ea565b5b8062001c01575062001c00336200467d565b5b8062001cbb57508073ffffffffffffffffffffffffffffffffffffffff1663f89d1ec06040518163ffffffff1660e01b815260040160206040518083038186803b15801562001c4f57600080fd5b505afa15801562001c64573d6000803e3d6000fd5b505050506040513d602081101562001c7b57600080fd5b810190808051906020019092919050505073ffffffffffffffffffffffffffffffffffffffff163373ffffffffffffffffffffffffffffffffffffffff16145b62001d2e576040517f08c379a00000000000000000000000000000000000000000000000000000000081526004018080602001828103825260038152602001807f453238000000000000000000000000000000000000000000000000000000000081525060200191505060405180910390fd5b6000606062001eba8373ffffffffffffffffffffffffffffffffffffffff16631865c57d6040518163ffffffff1660e01b815260040160006040518083038186803b15801562001d7d57600080fd5b505afa15801562001d92573d6000803e3d6000fd5b505050506040513d6000823e3d601f19601f82011682018060405250602081101562001dbd57600080fd5b810190808051604051939291908464010000000082111562001dde57600080fd5b8382019150602082018581111562001df557600080fd5b825186600182028301116401000000008211171562001e1357600080fd5b8083526020830192505050908051906020019080838360005b8381101562001e4957808201518184015260208101905062001e2c565b50505050905090810190601f16801562001e775780820380516001836020036101000a031916815260200191505b506040525050506040518060400160405280601181526020017f757064617465494e565f636f6e6669726d00000000000000000000000000000081525062004c3f565b915091508162001f32576040517f08c379a00000000000000000000000000000000000000000000000000000000081526004018080602001828103825260038152602001807f453239000000000000000000000000000000000000000000000000000000000081525060200191505060405180910390fd5b8273ffffffffffffffffffffffffffffffffffffffff1663292d1fb982866040518363ffffffff1660e01b81526004018080602001838152602001828103825284818151815260200191508051906020019080838360005b8381101562001fa757808201518184015260208101905062001f8a565b50505050905090810190601f16801562001fd55780820380516001836020036101000a031916815260200191505b509350505050600060405180830381600087803b15801562001ff657600080fd5b505af11580156200200b573d6000803e3d6000fd5b505050507f18e6968414f33702467961559c1912d6c91683d964cc4a3aa8944716773ed787858286604051808481526020018060200180602001848152602001838103835285818151815260200191508051906020019080838360005b838110156200208557808201518184015260208101905062002068565b50505050905090810190601f168015620020b35780820380516001836020036101000a031916815260200191505b50838103825260118152602001807f757064617465494e565f636f6e6669726d0000000000000000000000000000008152506020019550505050505060405180910390a15050505050565b600a818051602081018201805184825260208301602085012081835280955050505050506000915054906101000a900460ff1681565b600015156000809054906101000a900473ffffffffffffffffffffffffffffffffffffffff1673ffffffffffffffffffffffffffffffffffffffff1663c70acf7a896040518263ffffffff1660e01b81526004018082815260200191505060206040518083038186803b158015620021ab57600080fd5b505afa158015620021c0573d6000803e3d6000fd5b505050506040513d6020811015620021d757600080fd5b81019080805190602001909291905050501515146200225e576040517f08c379a00000000000000000000000000000000000000000000000000000000081526004018080602001828103825260028152602001807f453100000000000000000000000000000000000000000000000000000000000081525060200191505060405180910390fd5b60001515600b600089815260200190815260200160002060009054906101000a900460ff16151514620022f9576040517f08c379a00000000000000000000000000000000000000000000000000000000081526004018080602001828103825260028152602001807f453200000000000000000000000000000000000000000000000000000000000081525060200191505060405180910390fd5b620023043362005a0e565b80620023175750620023163362004810565b5b806200232a57506200232933620044ea565b5b6200239d576040517f08c379a00000000000000000000000000000000000000000000000000000000081526004018080602001828103825260028152602001807f453000000000000000000000000000000000000000000000000000000000000081525060200191505060405180910390fd5b3373ffffffffffffffffffffffffffffffffffffffff16600160009054906101000a900473ffffffffffffffffffffffffffffffffffffffff1673ffffffffffffffffffffffffffffffffffffffff16636352211e896040518263ffffffff1660e01b81526004018082815260200191505060206040518083038186803b1580156200242857600080fd5b505afa1580156200243d573d6000803e3d6000fd5b505050506040513d60208110156200245457600080fd5b810190808051906020019092919050505073ffffffffffffffffffffffffffffffffffffffff1614620024ef576040517f08c379a00000000000000000000000000000000000000000000000000000000081526004018080602001828103825260028152602001807f453400000000000000000000000000000000000000000000000000000000000081525060200191505060405180910390fd5b600086101562002567576040517f08c379a00000000000000000000000000000000000000000000000000000000081526004018080602001828103825260028152602001807f453500000000000000000000000000000000000000000000000000000000000081525060200191505060405180910390fd5b62002573600862005ba1565b6000600162002583600862005bb7565b03905060008888600189898989600460009054906101000a900473ffffffffffffffffffffffffffffffffffffffff168a600760009054906101000a900473ffffffffffffffffffffffffffffffffffffffff16604051620025e59062005fc6565b808b81526020018a8152602001898152602001888152602001806020018760ff1660ff1681526020018681526020018573ffffffffffffffffffffffffffffffffffffffff1673ffffffffffffffffffffffffffffffffffffffff1681526020018473ffffffffffffffffffffffffffffffffffffffff1673ffffffffffffffffffffffffffffffffffffffff1681526020018373ffffffffffffffffffffffffffffffffffffffff1673ffffffffffffffffffffffffffffffffffffffff168152602001828103825288818151815260200191508051906020019080838360005b83811015620026e4578082015181840152602081019050620026c7565b50505050905090810190601f168015620027125780820380516001836020036101000a031916815260200191505b509b505050505050505050505050604051809103906000f0801580156200273d573d6000803e3d6000fd5b509050806009600084815260200190815260200160002060006101000a81548173ffffffffffffffffffffffffffffffffffffffff021916908373ffffffffffffffffffffffffffffffffffffffff1602179055506001600b60008b815260200190815260200160002060006101000a81548160ff0219169083151502179055507f40cb330bda5ab218abd314123e39f32e9c6c6e70ffbc6460c50e356b4b1da52b82848b8b8b8b8b8b604051808981526020018873ffffffffffffffffffffffffffffffffffffffff1673ffffffffffffffffffffffffffffffffffffffff168152602001878152602001868152602001858152602001806020018460ff1660ff168152602001838152602001828103825285818151815260200191508051906020019080838360005b838110156200288557808201518184015260208101905062002868565b50505050905090810190601f168015620028b35780820380516001836020036101000a031916815260200191505b50995050505050505050505060405180910390a1505050505050505050565b60006009600085815260200190815260200160002060009054906101000a900473ffffffffffffffffffffffffffffffffffffffff169050620029153362004357565b806200292857506200292733620044ea565b5b806200296957506200293a8162005463565b73ffffffffffffffffffffffffffffffffffffffff163373ffffffffffffffffffffffffffffffffffffffff16145b620029dc576040517f08c379a00000000000000000000000000000000000000000000000000000000081526004018080602001828103825260038152602001807f453233000000000000000000000000000000000000000000000000000000000081525060200191505060405180910390fd5b6000606062002a2b620029ef84620049a3565b6040518060400160405280601381526020017f757064617465494e565f736574746c6555524c0000000000000000000000000081525062004c3f565b915091508162002aa3576040517f08c379a00000000000000000000000000000000000000000000000000000000081526004018080602001828103825260038152602001807f453234000000000000000000000000000000000000000000000000000000000081525060200191505060405180910390fd5b62002aaf838662005bc5565b62002abc83828662004e50565b7f18e6968414f33702467961559c1912d6c91683d964cc4a3aa8944716773ed787868286604051808481526020018060200180602001848152602001838103835285818151815260200191508051906020019080838360005b8381101562002b3257808201518184015260208101905062002b15565b50505050905090810190601f16801562002b605780820380516001836020036101000a031916815260200191505b50838103825260138152602001807f757064617465494e565f736574746c6555524c000000000000000000000000008152506020019550505050505060405180910390a1505050505050565b60006009600085815260200190815260200160002060009054906101000a900473ffffffffffffffffffffffffffffffffffffffff16905062002bef3362004357565b8062002c02575062002c0133620044ea565b5b62002c75576040517f08c379a00000000000000000000000000000000000000000000000000000000081526004018080602001828103825260038152602001807f453235000000000000000000000000000000000000000000000000000000000081525060200191505060405180910390fd5b6000606062002e018373ffffffffffffffffffffffffffffffffffffffff16631865c57d6040518163ffffffff1660e01b815260040160006040518083038186803b15801562002cc457600080fd5b505afa15801562002cd9573d6000803e3d6000fd5b505050506040513d6000823e3d601f19601f82011682018060405250602081101562002d0457600080fd5b810190808051604051939291908464010000000082111562002d2557600080fd5b8382019150602082018581111562002d3c57600080fd5b825186600182028301116401000000008211171562002d5a57600080fd5b8083526020830192505050908051906020019080838360005b8381101562002d9057808201518184015260208101905062002d73565b50505050905090810190601f16801562002dbe5780820380516001836020036101000a031916815260200191505b506040525050506040518060400160405280601481526020017f757064617465494e565f7061796d656e7455524c00000000000000000000000081525062004c3f565b915091508162002e79576040517f08c379a00000000000000000000000000000000000000000000000000000000081526004018080602001828103825260038152602001807f453236000000000000000000000000000000000000000000000000000000000081525060200191505060405180910390fd5b8273ffffffffffffffffffffffffffffffffffffffff16636c2c825e866040518263ffffffff1660e01b81526004018080602001828103825283818151815260200191508051906020019080838360005b8381101562002ee757808201518184015260208101905062002eca565b50505050905090810190601f16801562002f155780820380516001836020036101000a031916815260200191505b5092505050600060405180830381600087803b15801562002f3557600080fd5b505af115801562002f4a573d6000803e3d6000fd5b505050508273ffffffffffffffffffffffffffffffffffffffff1663292d1fb982866040518363ffffffff1660e01b81526004018080602001838152602001828103825284818151815260200191508051906020019080838360005b8381101562002fc357808201518184015260208101905062002fa6565b50505050905090810190601f16801562002ff15780820380516001836020036101000a031916815260200191505b509350505050600060405180830381600087803b1580156200301257600080fd5b505af115801562003027573d6000803e3d6000fd5b505050507f18e6968414f33702467961559c1912d6c91683d964cc4a3aa8944716773ed787868286604051808481526020018060200180602001848152602001838103835285818151815260200191508051906020019080838360005b83811015620030a157808201518184015260208101905062003084565b50505050905090810190601f168015620030cf5780820380516001836020036101000a031916815260200191505b50838103825260138152602001807f757064617465494e565f736574746c6555524c000000000000000000000000008152506020019550505050505060405180910390a1505050505050565b60006009600086815260200190815260200160002060009054906101000a900473ffffffffffffffffffffffffffffffffffffffff1690506200315e3362004357565b806200317157506200317033620044ea565b5b620031e4576040517f08c379a00000000000000000000000000000000000000000000000000000000081526004018080602001828103825260038152602001807f453231000000000000000000000000000000000000000000000000000000000081525060200191505060405180910390fd5b620031ef8162005276565b600260009054906101000a900473ffffffffffffffffffffffffffffffffffffffff1673ffffffffffffffffffffffffffffffffffffffff166370a08231306040518263ffffffff1660e01b8152600401808273ffffffffffffffffffffffffffffffffffffffff1673ffffffffffffffffffffffffffffffffffffffff16815260200191505060206040518083038186803b1580156200328f57600080fd5b505afa158015620032a4573d6000803e3d6000fd5b505050506040513d6020811015620032bb57600080fd5b8101908080519060200190929190505050101562003341576040517f08c379a00000000000000000000000000000000000000000000000000000000081526004018080602001828103825260038152602001807f453331000000000000000000000000000000000000000000000000000000000081525060200191505060405180910390fd5b60006060620033906200335484620049a3565b6040518060400160405280601481526020017f757064617465494e565f736574746c656461746500000000000000000000000081525062004c3f565b915091508162003408576040517f08c379a00000000000000000000000000000000000000000000000000000000081526004018080602001828103825260038152602001807f453232000000000000000000000000000000000000000000000000000000000081525060200191505060405180910390fd5b6200341583868862005df5565b6200342283828662004e50565b7f18e6968414f33702467961559c1912d6c91683d964cc4a3aa8944716773ed787878286604051808481526020018060200180602001848152602001838103835285818151815260200191508051906020019080838360005b83811015620034985780820151818401526020810190506200347b565b50505050905090810190601f168015620034c65780820380516001836020036101000a031916815260200191505b50838103825260148152602001807f757064617465494e565f736574746c65646174650000000000000000000000008152506020019550505050505060405180910390a150505050505050565b60006009600084815260200190815260200160002060009054906101000a900473ffffffffffffffffffffffffffffffffffffffff169050620035563362004810565b806200356957506200356833620044ea565b5b620035dc576040517f08c379a00000000000000000000000000000000000000000000000000000000081526004018080602001828103825260038152602001807f453132000000000000000000000000000000000000000000000000000000000081525060200191505060405180910390fd5b600060606200362b620035ef84620049a3565b6040518060400160405280600b81526020017f63616e63656c4f7264657200000000000000000000000000000000000000000081525062004c3f565b9150915081620036a3576040517f08c379a00000000000000000000000000000000000000000000000000000000081526004018080602001828103825260038152602001807f453133000000000000000000000000000000000000000000000000000000000081525060200191505060405180910390fd5b6000620036b08462005089565b90506000809054906101000a900473ffffffffffffffffffffffffffffffffffffffff1673ffffffffffffffffffffffffffffffffffffffff1663c70acf7a826040518263ffffffff1660e01b81526004018082815260200191505060206040518083038186803b1580156200372557600080fd5b505afa1580156200373a573d6000803e3d6000fd5b505050506040513d60208110156200375157600080fd5b8101908080519060200190929190505050156200381b576000809054906101000a900473ffffffffffffffffffffffffffffffffffffffff1673ffffffffffffffffffffffffffffffffffffffff16630b8b1caf620037b08662005821565b8760016040518463ffffffff1660e01b815260040180848152602001838152602001821515151581526020019350505050600060405180830381600087803b158015620037fc57600080fd5b505af115801562003811573d6000803e3d6000fd5b505050506200391d565b600160009054906101000a900473ffffffffffffffffffffffffffffffffffffffff1673ffffffffffffffffffffffffffffffffffffffff166323b872dd30620038658762005463565b846040518463ffffffff1660e01b8152600401808473ffffffffffffffffffffffffffffffffffffffff1673ffffffffffffffffffffffffffffffffffffffff1681526020018373ffffffffffffffffffffffffffffffffffffffff1673ffffffffffffffffffffffffffffffffffffffff1681526020018281526020019350505050600060405180830381600087803b1580156200390357600080fd5b505af115801562003918573d6000803e3d6000fd5b505050505b6000600b600083815260200190815260200160002060006101000a81548160ff0219169083151502179055506200395684838762004e50565b7f18e6968414f33702467961559c1912d6c91683d964cc4a3aa8944716773ed787868387604051808481526020018060200180602001848152602001838103835285818151815260200191508051906020019080838360005b83811015620039cc578082015181840152602081019050620039af565b50505050905090810190601f168015620039fa5780820380516001836020036101000a031916815260200191505b508381038252600b8152602001807f63616e63656c4f726465720000000000000000000000000000000000000000008152506020019550505050505060405180910390a1505050505050565b60006009600084815260200190815260200160002060009054906101000a900473ffffffffffffffffffffffffffffffffffffffff16905062003a893362004810565b8062003a9c575062003a9b33620044ea565b5b8062003add575062003aae8162005463565b73ffffffffffffffffffffffffffffffffffffffff163373ffffffffffffffffffffffffffffffffffffffff16145b62003b50576040517f08c379a00000000000000000000000000000000000000000000000000000000081526004018080602001828103825260028152602001807f453800000000000000000000000000000000000000000000000000000000000081525060200191505060405180910390fd5b6000606062003b9f62003b6384620049a3565b6040518060400160405280600d81526020017f63616e63656c526571756573740000000000000000000000000000000000000081525062004c3f565b915091508162003c17576040517f08c379a00000000000000000000000000000000000000000000000000000000081526004018080602001828103825260028152602001807f453900000000000000000000000000000000000000000000000000000000000081525060200191505060405180910390fd5b62003c2483828662004e50565b6000600b600062003c358662005089565b815260200190815260200160002060006101000a81548160ff0219169083151502179055507f18e6968414f33702467961559c1912d6c91683d964cc4a3aa8944716773ed787858286604051808481526020018060200180602001848152602001838103835285818151815260200191508051906020019080838360005b8381101562003cd057808201518184015260208101905062003cb3565b50505050905090810190601f16801562003cfe5780820380516001836020036101000a031916815260200191505b508381038252600d8152602001807f63616e63656c52657175657374000000000000000000000000000000000000008152506020019550505050505060405180910390a15050505050565b60006009600086815260200190815260200160002060009054906101000a900473ffffffffffffffffffffffffffffffffffffffff16905062003d8c3362004810565b8062003d9f575062003d9e33620044ea565b5b62003e12576040517f08c379a00000000000000000000000000000000000000000000000000000000081526004018080602001828103825260038152602001807f453130000000000000000000000000000000000000000000000000000000000081525060200191505060405180910390fd5b62003e1d8162005276565b84101562003e93576040517f08c379a00000000000000000000000000000000000000000000000000000000081526004018080602001828103825260038152602001807f453330000000000000000000000000000000000000000000000000000000000081525060200191505060405180910390fd5b6000606062003ee262003ea684620049a3565b6040518060400160405280600d81526020017f616363657074526571756573740000000000000000000000000000000000000081525062004c3f565b915091508162003f5a576040517f08c379a00000000000000000000000000000000000000000000000000000000081526004018080602001828103825260038152602001807f453131000000000000000000000000000000000000000000000000000000000081525060200191505060405180910390fd5b62003f6783828662004e50565b7f18e6968414f33702467961559c1912d6c91683d964cc4a3aa8944716773ed787878286604051808481526020018060200180602001848152602001838103835285818151815260200191508051906020019080838360005b8381101562003fdd57808201518184015260208101905062003fc0565b50505050905090810190601f1680156200400b5780820380516001836020036101000a031916815260200191505b508381038252600d8152602001807f61636365707452657175657374000000000000000000000000000000000000008152506020019550505050505060405180910390a184156200417b5760008060009054906101000a900473ffffffffffffffffffffffffffffffffffffffff1673ffffffffffffffffffffffffffffffffffffffff166308bb4a99620040a08662005089565b620040ab8762005463565b8a8c8a6040518663ffffffff1660e01b8152600401808681526020018573ffffffffffffffffffffffffffffffffffffffff1673ffffffffffffffffffffffffffffffffffffffff16815260200184815260200183815260200182815260200195505050505050602060405180830381600087803b1580156200412d57600080fd5b505af115801562004142573d6000803e3d6000fd5b505050506040513d60208110156200415957600080fd5b810190808051906020019092919050505090506200417984828762005650565b505b50505050505050565b60006009600085815260200190815260200160002060009054906101000a900473ffffffffffffffffffffffffffffffffffffffff169050620041c73362004357565b80620041da5750620041d933620044ea565b5b80620041ed5750620041ec336200467d565b5b62004260576040517f08c379a00000000000000000000000000000000000000000000000000000000081526004018080602001828103825260038152602001807f453237000000000000000000000000000000000000000000000000000000000081525060200191505060405180910390fd5b8073ffffffffffffffffffffffffffffffffffffffff1663677ab32d84846040518363ffffffff1660e01b8152600401808367ffffffffffffffff1667ffffffffffffffff16815260200180602001828103825283818151815260200191508051906020019080838360005b83811015620042e9578082015181840152602081019050620042cc565b50505050905090810190601f168015620043175780820380516001836020036101000a031916815260200191505b509350505050600060405180830381600087803b1580156200433857600080fd5b505af11580156200434d573d6000803e3d6000fd5b5050505050505050565b6000600460009054906101000a900473ffffffffffffffffffffffffffffffffffffffff1673ffffffffffffffffffffffffffffffffffffffff166391d14854600460009054906101000a900473ffffffffffffffffffffffffffffffffffffffff1673ffffffffffffffffffffffffffffffffffffffff1663ef0fe2456040518163ffffffff1660e01b815260040160206040518083038186803b1580156200440057600080fd5b505afa15801562004415573d6000803e3d6000fd5b505050506040513d60208110156200442c57600080fd5b8101908080519060200190929190505050846040518363ffffffff1660e01b8152600401808381526020018273ffffffffffffffffffffffffffffffffffffffff1673ffffffffffffffffffffffffffffffffffffffff1681526020019250505060206040518083038186803b158015620044a657600080fd5b505afa158015620044bb573d6000803e3d6000fd5b505050506040513d6020811015620044d257600080fd5b81019080805190602001909291905050509050919050565b6000600460009054906101000a900473ffffffffffffffffffffffffffffffffffffffff1673ffffffffffffffffffffffffffffffffffffffff166391d14854600460009054906101000a900473ffffffffffffffffffffffffffffffffffffffff1673ffffffffffffffffffffffffffffffffffffffff166375b238fc6040518163ffffffff1660e01b815260040160206040518083038186803b1580156200459357600080fd5b505afa158015620045a8573d6000803e3d6000fd5b505050506040513d6020811015620045bf57600080fd5b8101908080519060200190929190505050846040518363ffffffff1660e01b8152600401808381526020018273ffffffffffffffffffffffffffffffffffffffff1673ffffffffffffffffffffffffffffffffffffffff1681526020019250505060206040518083038186803b1580156200463957600080fd5b505afa1580156200464e573d6000803e3d6000fd5b505050506040513d60208110156200466557600080fd5b81019080805190602001909291905050509050919050565b6000600460009054906101000a900473ffffffffffffffffffffffffffffffffffffffff1673ffffffffffffffffffffffffffffffffffffffff166391d14854600460009054906101000a900473ffffffffffffffffffffffffffffffffffffffff1673ffffffffffffffffffffffffffffffffffffffff1663e90524f26040518163ffffffff1660e01b815260040160206040518083038186803b1580156200472657600080fd5b505afa1580156200473b573d6000803e3d6000fd5b505050506040513d60208110156200475257600080fd5b8101908080519060200190929190505050846040518363ffffffff1660e01b8152600401808381526020018273ffffffffffffffffffffffffffffffffffffffff1673ffffffffffffffffffffffffffffffffffffffff1681526020019250505060206040518083038186803b158015620047cc57600080fd5b505afa158015620047e1573d6000803e3d6000fd5b505050506040513d6020811015620047f857600080fd5b81019080805190602001909291905050509050919050565b6000600460009054906101000a900473ffffffffffffffffffffffffffffffffffffffff1673ffffffffffffffffffffffffffffffffffffffff166391d14854600460009054906101000a900473ffffffffffffffffffffffffffffffffffffffff1673ffffffffffffffffffffffffffffffffffffffff16634db08aea6040518163ffffffff1660e01b815260040160206040518083038186803b158015620048b957600080fd5b505afa158015620048ce573d6000803e3d6000fd5b505050506040513d6020811015620048e557600080fd5b8101908080519060200190929190505050846040518363ffffffff1660e01b8152600401808381526020018273ffffffffffffffffffffffffffffffffffffffff1673ffffffffffffffffffffffffffffffffffffffff1681526020019250505060206040518083038186803b1580156200495f57600080fd5b505afa15801562004974573d6000803e3d6000fd5b505050506040513d60208110156200498b57600080fd5b81019080805190602001909291905050509050919050565b6060806040516024016040516020818303038152906040527f1865c57d000000000000000000000000000000000000000000000000000000007bffffffffffffffffffffffffffffffffffffffffffffffffffffffff19166020820180517bffffffffffffffffffffffffffffffffffffffffffffffffffffffff83818316178352505050509050600060608473ffffffffffffffffffffffffffffffffffffffff16836040518082805190602001908083835b6020831062004a7c578051825260208201915060208101905060208303925062004a57565b6001836020036101000a0380198251168184511680821785525050505050509050019150506000604051808303816000865af19150503d806000811462004ae0576040519150601f19603f3d011682016040523d82523d6000602084013e62004ae5565b606091505b50915091508162004b5e576040517f08c379a00000000000000000000000000000000000000000000000000000000081526004018080602001828103825260038152602001807f4f3233000000000000000000000000000000000000000000000000000000000081525060200191505060405180910390fd5b80806020019051602081101562004b7457600080fd5b810190808051604051939291908464010000000082111562004b9557600080fd5b8382019150602082018581111562004bac57600080fd5b825186600182028301116401000000008211171562004bca57600080fd5b8083526020830192505050908051906020019080838360005b8381101562004c0057808201518184015260208101905062004be3565b50505050905090810190601f16801562004c2e5780820380516001836020036101000a031916815260200191505b506040525050509350505050919050565b6000606060006060600360009054906101000a900473ffffffffffffffffffffffffffffffffffffffff1673ffffffffffffffffffffffffffffffffffffffff1663708442498787805190602001206040518363ffffffff1660e01b81526004018080602001838152602001828103825284818151815260200191508051906020019080838360005b8381101562004ce557808201518184015260208101905062004cc8565b50505050905090810190601f16801562004d135780820380516001836020036101000a031916815260200191505b50935050505060006040518083038186803b15801562004d3257600080fd5b505afa15801562004d47573d6000803e3d6000fd5b505050506040513d6000823e3d601f19601f82011682018060405250604081101562004d7257600080fd5b81019080805190602001909291908051604051939291908464010000000082111562004d9d57600080fd5b8382019150602082018581111562004db457600080fd5b825186600182028301116401000000008211171562004dd257600080fd5b8083526020830192505050908051906020019080838360005b8381101562004e0857808201518184015260208101905062004deb565b50505050905090810190601f16801562004e365780820380516001836020036101000a031916815260200191505b506040525050509150915081819350935050509250929050565b606082826040516024018080602001838152602001828103825284818151815260200191508051906020019080838360005b8381101562004e9f57808201518184015260208101905062004e82565b50505050905090810190601f16801562004ecd5780820380516001836020036101000a031916815260200191505b5093505050506040516020818303038152906040527f292d1fb9000000000000000000000000000000000000000000000000000000007bffffffffffffffffffffffffffffffffffffffffffffffffffffffff19166020820180517bffffffffffffffffffffffffffffffffffffffffffffffffffffffff8381831617835250505050905060008473ffffffffffffffffffffffffffffffffffffffff16826040518082805190602001908083835b6020831062004fa1578051825260208201915060208101905060208303925062004f7c565b6001836020036101000a0380198251168184511680821785525050505050509050019150506000604051808303816000865af19150503d806000811462005005576040519150601f19603f3d011682016040523d82523d6000602084013e6200500a565b606091505b505090508062005082576040517f08c379a00000000000000000000000000000000000000000000000000000000081526004018080602001828103825260038152602001807f4f3233000000000000000000000000000000000000000000000000000000000081525060200191505060405180910390fd5b5050505050565b600060606040516024016040516020818303038152906040527fc412eaba000000000000000000000000000000000000000000000000000000007bffffffffffffffffffffffffffffffffffffffffffffffffffffffff19166020820180517bffffffffffffffffffffffffffffffffffffffffffffffffffffffff83818316178352505050509050600060608473ffffffffffffffffffffffffffffffffffffffff16836040518082805190602001908083835b602083106200516357805182526020820191506020810190506020830392506200513e565b6001836020036101000a0380198251168184511680821785525050505050509050019150506000604051808303816000865af19150503d8060008114620051c7576040519150601f19603f3d011682016040523d82523d6000602084013e620051cc565b606091505b50915091508162005245576040517f08c379a00000000000000000000000000000000000000000000000000000000081526004018080602001828103825260038152602001807f4f3233000000000000000000000000000000000000000000000000000000000081525060200191505060405180910390fd5b8080602001905160208110156200525b57600080fd5b81019080805190602001909291905050509350505050919050565b600060606040516024016040516020818303038152906040527fc3c61f91000000000000000000000000000000000000000000000000000000007bffffffffffffffffffffffffffffffffffffffffffffffffffffffff19166020820180517bffffffffffffffffffffffffffffffffffffffffffffffffffffffff83818316178352505050509050600060608473ffffffffffffffffffffffffffffffffffffffff16836040518082805190602001908083835b602083106200535057805182526020820191506020810190506020830392506200532b565b6001836020036101000a0380198251168184511680821785525050505050509050019150506000604051808303816000865af19150503d8060008114620053b4576040519150601f19603f3d011682016040523d82523d6000602084013e620053b9565b606091505b50915091508162005432576040517f08c379a00000000000000000000000000000000000000000000000000000000081526004018080602001828103825260038152602001807f4f3233000000000000000000000000000000000000000000000000000000000081525060200191505060405180910390fd5b8080602001905160208110156200544857600080fd5b81019080805190602001909291905050509350505050919050565b600060606040516024016040516020818303038152906040527ff89d1ec0000000000000000000000000000000000000000000000000000000007bffffffffffffffffffffffffffffffffffffffffffffffffffffffff19166020820180517bffffffffffffffffffffffffffffffffffffffffffffffffffffffff83818316178352505050509050600060608473ffffffffffffffffffffffffffffffffffffffff16836040518082805190602001908083835b602083106200553d578051825260208201915060208101905060208303925062005518565b6001836020036101000a0380198251168184511680821785525050505050509050019150506000604051808303816000865af19150503d8060008114620055a1576040519150601f19603f3d011682016040523d82523d6000602084013e620055a6565b606091505b5091509150816200561f576040517f08c379a00000000000000000000000000000000000000000000000000000000081526004018080602001828103825260038152602001807f4f3233000000000000000000000000000000000000000000000000000000000081525060200191505060405180910390fd5b8080602001905160208110156200563557600080fd5b81019080805190602001909291905050509350505050919050565b6060828260405160240180838152602001828152602001925050506040516020818303038152906040527f5b76fd3d000000000000000000000000000000000000000000000000000000007bffffffffffffffffffffffffffffffffffffffffffffffffffffffff19166020820180517bffffffffffffffffffffffffffffffffffffffffffffffffffffffff8381831617835250505050905060008473ffffffffffffffffffffffffffffffffffffffff16826040518082805190602001908083835b6020831062005739578051825260208201915060208101905060208303925062005714565b6001836020036101000a0380198251168184511680821785525050505050509050019150506000604051808303816000865af19150503d80600081146200579d576040519150601f19603f3d011682016040523d82523d6000602084013e620057a2565b606091505b50509050806200581a576040517f08c379a00000000000000000000000000000000000000000000000000000000081526004018080602001828103825260038152602001807f4f3233000000000000000000000000000000000000000000000000000000000081525060200191505060405180910390fd5b5050505050565b600060606040516024016040516020818303038152906040527f358837ed000000000000000000000000000000000000000000000000000000007bffffffffffffffffffffffffffffffffffffffffffffffffffffffff19166020820180517bffffffffffffffffffffffffffffffffffffffffffffffffffffffff83818316178352505050509050600060608473ffffffffffffffffffffffffffffffffffffffff16836040518082805190602001908083835b60208310620058fb5780518252602082019150602081019050602083039250620058d6565b6001836020036101000a0380198251168184511680821785525050505050509050019150506000604051808303816000865af19150503d80600081146200595f576040519150601f19603f3d011682016040523d82523d6000602084013e62005964565b606091505b509150915081620059dd576040517f08c379a00000000000000000000000000000000000000000000000000000000081526004018080602001828103825260038152602001807f4f3233000000000000000000000000000000000000000000000000000000000081525060200191505060405180910390fd5b808060200190516020811015620059f357600080fd5b81019080805190602001909291905050509350505050919050565b6000600460009054906101000a900473ffffffffffffffffffffffffffffffffffffffff1673ffffffffffffffffffffffffffffffffffffffff166391d14854600460009054906101000a900473ffffffffffffffffffffffffffffffffffffffff1673ffffffffffffffffffffffffffffffffffffffff1663e926eb966040518163ffffffff1660e01b815260040160206040518083038186803b15801562005ab757600080fd5b505afa15801562005acc573d6000803e3d6000fd5b505050506040513d602081101562005ae357600080fd5b8101908080519060200190929190505050846040518363ffffffff1660e01b8152600401808381526020018273ffffffffffffffffffffffffffffffffffffffff1673ffffffffffffffffffffffffffffffffffffffff1681526020019250505060206040518083038186803b15801562005b5d57600080fd5b505afa15801562005b72573d6000803e3d6000fd5b505050506040513d602081101562005b8957600080fd5b81019080805190602001909291905050509050919050565b6001816000016000828254019250508190555050565b600081600001549050919050565b6060816040516024018080602001828103825283818151815260200191508051906020019080838360005b8381101562005c0d57808201518184015260208101905062005bf0565b50505050905090810190601f16801562005c3b5780820380516001836020036101000a031916815260200191505b50925050506040516020818303038152906040527f66822c44000000000000000000000000000000000000000000000000000000007bffffffffffffffffffffffffffffffffffffffffffffffffffffffff19166020820180517bffffffffffffffffffffffffffffffffffffffffffffffffffffffff8381831617835250505050905060008373ffffffffffffffffffffffffffffffffffffffff16826040518082805190602001908083835b6020831062005d0e578051825260208201915060208101905060208303925062005ce9565b6001836020036101000a0380198251168184511680821785525050505050509050019150506000604051808303816000865af19150503d806000811462005d72576040519150601f19603f3d011682016040523d82523d6000602084013e62005d77565b606091505b505090508062005def576040517f08c379a00000000000000000000000000000000000000000000000000000000081526004018080602001828103825260038152602001807f4f3233000000000000000000000000000000000000000000000000000000000081525060200191505060405180910390fd5b50505050565b6060828260405160240180838152602001828152602001925050506040516020818303038152906040527f626e4672000000000000000000000000000000000000000000000000000000007bffffffffffffffffffffffffffffffffffffffffffffffffffffffff19166020820180517bffffffffffffffffffffffffffffffffffffffffffffffffffffffff8381831617835250505050905060008473ffffffffffffffffffffffffffffffffffffffff16826040518082805190602001908083835b6020831062005ede578051825260208201915060208101905060208303925062005eb9565b6001836020036101000a0380198251168184511680821785525050505050509050019150506000604051808303816000865af19150503d806000811462005f42576040519150601f19603f3d011682016040523d82523d6000602084013e62005f47565b606091505b505090508062005fbf576040517f08c379a00000000000000000000000000000000000000000000000000000000081526004018080602001828103825260038152602001807f4f3233000000000000000000000000000000000000000000000000000000000081525060200191505060405180910390fd5b5050505050565b6127728062005fd58339019056fe60806040523480156200001157600080fd5b50604051620027723803806200277283398181016040526101408110156200003857600080fd5b8101908080519060200190929190805190602001909291908051906020019092919080519060200190929190805160405193929190846401000000008211156200008157600080fd5b838201915060208201858111156200009857600080fd5b8251866001820283011164010000000082111715620000b657600080fd5b8083526020830192505050908051906020019080838360005b83811015620000ec578082015181840152602081019050620000cf565b50505050905090810190601f1680156200011a5780820380516001836020036101000a031916815260200191505b50604052602001805190602001909291908051906020019092919080519060200190929190805190602001909291908051906020019092919050505082600e60006101000a81548173ffffffffffffffffffffffffffffffffffffffff021916908373ffffffffffffffffffffffffffffffffffffffff160217905550600e60009054906101000a900473ffffffffffffffffffffffffffffffffffffffff1673ffffffffffffffffffffffffffffffffffffffff166391d14854600e60009054906101000a900473ffffffffffffffffffffffffffffffffffffffff1673ffffffffffffffffffffffffffffffffffffffff166375b238fc6040518163ffffffff1660e01b815260040160206040518083038186803b1580156200023e57600080fd5b505afa15801562000253573d6000803e3d6000fd5b505050506040513d60208110156200026a57600080fd5b8101908080519060200190929190505050336040518363ffffffff1660e01b8152600401808381526020018273ffffffffffffffffffffffffffffffffffffffff1673ffffffffffffffffffffffffffffffffffffffff1681526020019250505060206040518083038186803b158015620002e457600080fd5b505afa158015620002f9573d6000803e3d6000fd5b505050506040513d60208110156200031057600080fd5b810190808051906020019092919050505080620004b35750600e60009054906101000a900473ffffffffffffffffffffffffffffffffffffffff1673ffffffffffffffffffffffffffffffffffffffff166391d14854600e60009054906101000a900473ffffffffffffffffffffffffffffffffffffffff1673ffffffffffffffffffffffffffffffffffffffff16634db08aea6040518163ffffffff1660e01b815260040160206040518083038186803b158015620003cf57600080fd5b505afa158015620003e4573d6000803e3d6000fd5b505050506040513d6020811015620003fb57600080fd5b8101908080519060200190929190505050336040518363ffffffff1660e01b8152600401808381526020018273ffffffffffffffffffffffffffffffffffffffff1673ffffffffffffffffffffffffffffffffffffffff1681526020019250505060206040518083038186803b1580156200047557600080fd5b505afa1580156200048a573d6000803e3d6000fd5b505050506040513d6020811015620004a157600080fd5b81019080805190602001909291905050505b62000526576040517f08c379a00000000000000000000000000000000000000000000000000000000081526004018080602001828103825260028152602001807f453000000000000000000000000000000000000000000000000000000000000081525060200191505060405180910390fd5b81600460006101000a81548173ffffffffffffffffffffffffffffffffffffffff021916908373ffffffffffffffffffffffffffffffffffffffff16021790555080600360006101000a81548173ffffffffffffffffffffffffffffffffffffffff021916908373ffffffffffffffffffffffffffffffffffffffff160217905550866006819055508560079080519060200190620005c79291906200088d565b5084600860006101000a81548160ff021916908360ff1602179055506040518060400160405280600281526020017f4f4900000000000000000000000000000000000000000000000000000000000081525060059080519060200190620006309291906200088d565b5083600c60405180807f4f49000000000000000000000000000000000000000000000000000000000000815250600201905090815260200160405180910390208190555060405180608001604052808b81526020018a81526020018981526020018781525060096000620006b060006200086960201b62001aa91760201c565b81526020019081526020016000206000820151816000015560208201518160010155604082015181600201556060820151816003019080519060200190620006fa92919062000914565b509050506200071560006200087760201b62001c441760201c565b6040518060400160405280600081526020016000815250600b60006200074760026200086960201b62001aa91760201c565b815260200190815260200160002060008201518160000155602082015181600101559050506200078360026200087760201b62001c441760201c565b6040518060800160405280600081526020016000815260200160405180602001604052806000815250815260200160405180602001604052806000815250815250600a6000620007df60016200086960201b62001aa91760201c565b8152602001908152602001600020600082015181600001556020820151816001015560408201518160020190805190602001906200081f92919062000914565b5060608201518160030190805190602001906200083e92919062000914565b509050506200085960016200087760201b62001c441760201c565b50505050505050505050620009c3565b600081600001549050919050565b6001816000016000828254019250508190555050565b828054600181600116156101000203166002900490600052602060002090601f016020900481019282601f10620008d057805160ff191683800117855562000901565b8280016001018555821562000901579182015b8281111562000900578251825591602001919060010190620008e3565b5b5090506200091091906200099b565b5090565b828054600181600116156101000203166002900490600052602060002090601f016020900481019282601f106200095757805160ff191683800117855562000988565b8280016001018555821562000988579182015b82811115620009875782518255916020019190600101906200096a565b5b5090506200099791906200099b565b5090565b620009c091905b80821115620009bc576000816000905550600101620009a2565b5090565b90565b611d9f80620009d36000396000f3fe608060405234801561001057600080fd5b50600436106100ea5760003560e01c8063677ab32d1161008c578063c3c61f9111610066578063c3c61f91146107d0578063c412eaba146107ee578063ea6d0d861461080c578063f89d1ec0146108bd576100ea565b8063677ab32d146105775780636c2c825e1461064657806389ace75e14610701576100ea565b80634f2f1291116100c85780634f2f1291146102555780635b76fd3d1461044c578063626e46721461048457806366822c44146104bc576100ea565b80631865c57d146100ef578063292d1fb914610172578063358837ed14610237575b600080fd5b6100f7610907565b6040518080602001828103825283818151815260200191508051906020019080838360005b8381101561013757808201518184015260208101905061011c565b50505050905090810190601f1680156101645780820380516001836020036101000a031916815260200191505b509250505060405180910390f35b6102356004803603604081101561018857600080fd5b81019080803590602001906401000000008111156101a557600080fd5b8201836020820111156101b757600080fd5b803590602001918460018302840111640100000000831117156101d957600080fd5b91908080601f016020809104026020016040519081016040528093929190818152602001838380828437600081840152601f19601f820116905080830192505050505050509192919290803590602001909291905050506109a9565b005b61023f610abd565b6040518082815260200191505060405180910390f35b61025d610ae7565b604051808b81526020018a8152602001898152602001888152602001806020018760ff1660ff16815260200186815260200180602001806020018060200185810385528b818151815260200191508051906020019080838360005b838110156102d35780820151818401526020810190506102b8565b50505050905090810190601f1680156103005780820380516001836020036101000a031916815260200191505b50858103845288818151815260200191508051906020019080838360005b8381101561033957808201518184015260208101905061031e565b50505050905090810190601f1680156103665780820380516001836020036101000a031916815260200191505b50858103835287818151815260200191508051906020019080838360005b8381101561039f578082015181840152602081019050610384565b50505050905090810190601f1680156103cc5780820380516001836020036101000a031916815260200191505b50858103825286818151815260200191508051906020019080838360005b838110156104055780820151818401526020810190506103ea565b50505050905090810190601f1680156104325780820380516001836020036101000a031916815260200191505b509e50505050505050505050505050505060405180910390f35b6104826004803603604081101561046257600080fd5b810190808035906020019092919080359060200190929190505050610fd0565b005b6104ba6004803603604081101561049a57600080fd5b8101908080359060200190929190803590602001909291905050506110b7565b005b610575600480360360208110156104d257600080fd5b81019080803590602001906401000000008111156104ef57600080fd5b82018360208201111561050157600080fd5b8035906020019184600183028401116401000000008311171561052357600080fd5b91908080601f016020809104026020016040519081016040528093929190818152602001838380828437600081840152601f19601f820116905080830192505050505050509192919290505050611194565b005b6106446004803603604081101561058d57600080fd5b81019080803567ffffffffffffffff169060200190929190803590602001906401000000008111156105be57600080fd5b8201836020820111156105d057600080fd5b803590602001918460018302840111640100000000831117156105f257600080fd5b91908080601f016020809104026020016040519081016040528093929190818152602001838380828437600081840152601f19601f820116905080830192505050505050509192919290505050611259565b005b6106ff6004803603602081101561065c57600080fd5b810190808035906020019064010000000081111561067957600080fd5b82018360208201111561068b57600080fd5b803590602001918460018302840111640100000000831117156106ad57600080fd5b91908080601f016020809104026020016040519081016040528093929190818152602001838380828437600081840152601f19601f820116905080830192505050505050509192919290505050611324565b005b6107ba6004803603602081101561071757600080fd5b810190808035906020019064010000000081111561073457600080fd5b82018360208201111561074657600080fd5b8035906020019184600183028401116401000000008311171561076857600080fd5b91908080601f016020809104026020016040519081016040528093929190818152602001838380828437600081840152601f19601f8201169050808301925050505050505091929192905050506113e9565b6040518082815260200191505060405180910390f35b6107d861145c565b6040518082815260200191505060405180910390f35b6107f6611501565b6040518082815260200191505060405180910390f35b6108426004803603602081101561082257600080fd5b81019080803567ffffffffffffffff1690602001909291905050506115a6565b6040518080602001828103825283818151815260200191508051906020019080838360005b83811015610882578082015181840152602081019050610867565b50505050905090810190601f1680156108af5780820380516001836020036101000a031916815260200191505b509250505060405180910390f35b6108c56116ea565b604051808273ffffffffffffffffffffffffffffffffffffffff1673ffffffffffffffffffffffffffffffffffffffff16815260200191505060405180910390f35b606060058054600181600116156101000203166002900480601f01602080910402602001604051908101604052809291908181526020018280546001816001161561010002031660029004801561099f5780601f106109745761010080835404028352916020019161099f565b820191906000526020600020905b81548152906001019060200180831161098257829003601f168201915b5050505050905090565b6109b23361178f565b806109c257506109c13361191c565b5b610a34576040517f08c379a00000000000000000000000000000000000000000000000000000000081526004018080602001828103825260028152602001807f453000000000000000000000000000000000000000000000000000000000000081525060200191505060405180910390fd5b8160059080519060200190610a4a929190611c5a565b5080600c836040518082805190602001908083835b60208310610a825780518252602082019150602081019050602083039250610a5f565b6001836020036101000a0380198251168184511680821785525050505050509050019150509081526020016040518091039020819055505050565b6000600b60006001610acf6002611aa9565b03815260200190815260200160002060000154905090565b60008060008060606000806060806060610b0033611ab7565b610b72576040517f08c379a00000000000000000000000000000000000000000000000000000000081526004018080602001828103825260028152602001807f453000000000000000000000000000000000000000000000000000000000000081525060200191505060405180910390fd5b610b7a611cda565b600b60006001610b8a6002611aa9565b038152602001908152602001600020604051806040016040529081600082015481526020016001820154815250509050610bc2611cf4565b600960006001610bd26000611aa9565b038152602001908152602001600020604051806080016040529081600082015481526020016001820154815260200160028201548152602001600382018054600181600116156101000203166002900480601f016020809104026020016040519081016040528092919081815260200182805460018160011615610100020316600290048015610ca35780601f10610c7857610100808354040283529160200191610ca3565b820191906000526020600020905b815481529060010190602001808311610c8657829003601f168201915b5050505050815250509050610cb6611d1c565b600a60006001610cc66001611aa9565b0381526020019081526020016000206040518060800160405290816000820154815260200160018201548152602001600282018054600181600116156101000203166002900480601f016020809104026020016040519081016040528092919081815260200182805460018160011615610100020316600290048015610d8d5780601f10610d6257610100808354040283529160200191610d8d565b820191906000526020600020905b815481529060010190602001808311610d7057829003601f168201915b50505050508152602001600382018054600181600116156101000203166002900480601f016020809104026020016040519081016040528092919081815260200182805460018160011615610100020316600290048015610e2f5780601f10610e0457610100808354040283529160200191610e2f565b820191906000526020600020905b815481529060010190602001808311610e1257829003601f168201915b50505050508152505090508260000151826000015183602001516006546007600860009054906101000a900460ff168660000151876040015188606001516005858054600181600116156101000203166002900480601f016020809104026020016040519081016040528092919081815260200182805460018160011615610100020316600290048015610f045780601f10610ed957610100808354040283529160200191610f04565b820191906000526020600020905b815481529060010190602001808311610ee757829003601f168201915b50505050509550829250819150808054600181600116156101000203166002900480601f016020809104026020016040519081016040528092919081815260200182805460018160011615610100020316600290048015610fa65780601f10610f7b57610100808354040283529160200191610fa6565b820191906000526020600020905b815481529060010190602001808311610f8957829003601f168201915b505050505090509c509c509c509c509c509c509c509c509c509c5050505090919293949596979899565b610fd93361178f565b80610fe95750610fe83361191c565b5b61105b576040517f08c379a00000000000000000000000000000000000000000000000000000000081526004018080602001828103825260028152602001807f453000000000000000000000000000000000000000000000000000000000000081525060200191505060405180910390fd5b81600b6000600161106c6002611aa9565b0381526020019081526020016000206000018190555080600b600060016110936002611aa9565b038152602001908152602001600020600101819055506110b36002611c44565b5050565b6110c03361178f565b806110d057506110cf3361191c565b5b611142576040517f08c379a00000000000000000000000000000000000000000000000000000000081526004018080602001828103825260028152602001807f453000000000000000000000000000000000000000000000000000000000000081525060200191505060405180910390fd5b81600a600060016111536001611aa9565b0381526020019081526020016000206001018190555080600a6000600161117a6001611aa9565b038152602001908152602001600020600001819055505050565b61119d3361178f565b806111ad57506111ac3361191c565b5b61121f576040517f08c379a00000000000000000000000000000000000000000000000000000000081526004018080602001828103825260028152602001807f453000000000000000000000000000000000000000000000000000000000000081525060200191505060405180910390fd5b80600a600060016112306001611aa9565b0381526020019081526020016000206002019080519060200190611255929190611c5a565b5050565b6112623361178f565b8061127257506112713361191c565b5b6112e4576040517f08c379a00000000000000000000000000000000000000000000000000000000081526004018080602001828103825260028152602001807f453000000000000000000000000000000000000000000000000000000000000081525060200191505060405180910390fd5b80600d60008467ffffffffffffffff1667ffffffffffffffff168152602001908152602001600020908051906020019061131f929190611c5a565b505050565b61132d3361178f565b8061133d575061133c3361191c565b5b6113af576040517f08c379a00000000000000000000000000000000000000000000000000000000081526004018080602001828103825260028152602001807f453000000000000000000000000000000000000000000000000000000000000081525060200191505060405180910390fd5b80600a600060016113c06001611aa9565b03815260200190815260200160002060030190805190602001906113e5929190611c5a565b5050565b6000600c826040518082805190602001908083835b6020831061142157805182526020820191506020810190506020830392506113fe565b6001836020036101000a0380198251168184511680821785525050505050509050019150509081526020016040518091039020549050919050565b600061146733611ab7565b6114d9576040517f08c379a00000000000000000000000000000000000000000000000000000000081526004018080602001828103825260028152602001807f453000000000000000000000000000000000000000000000000000000000000081525060200191505060405180910390fd5b6009600060016114e96000611aa9565b03815260200190815260200160002060010154905090565b600061150c33611ab7565b61157e576040517f08c379a00000000000000000000000000000000000000000000000000000000081526004018080602001828103825260028152602001807f453000000000000000000000000000000000000000000000000000000000000081525060200191505060405180910390fd5b60096000600161158e6000611aa9565b03815260200190815260200160002060000154905090565b60606115b133611ab7565b611623576040517f08c379a00000000000000000000000000000000000000000000000000000000081526004018080602001828103825260028152602001807f453000000000000000000000000000000000000000000000000000000000000081525060200191505060405180910390fd5b600d60008367ffffffffffffffff1667ffffffffffffffff1681526020019081526020016000208054600181600116156101000203166002900480601f0160208091040260200160405190810160405280929190818152602001828054600181600116156101000203166002900480156116de5780601f106116b3576101008083540402835291602001916116de565b820191906000526020600020905b8154815290600101906020018083116116c157829003601f168201915b50505050509050919050565b60006116f533611ab7565b611767576040517f08c379a00000000000000000000000000000000000000000000000000000000081526004018080602001828103825260028152602001807f453000000000000000000000000000000000000000000000000000000000000081525060200191505060405180910390fd5b600460009054906101000a900473ffffffffffffffffffffffffffffffffffffffff16905090565b6000600e60009054906101000a900473ffffffffffffffffffffffffffffffffffffffff1673ffffffffffffffffffffffffffffffffffffffff166391d14854600e60009054906101000a900473ffffffffffffffffffffffffffffffffffffffff1673ffffffffffffffffffffffffffffffffffffffff166375b238fc6040518163ffffffff1660e01b815260040160206040518083038186803b15801561183757600080fd5b505afa15801561184b573d6000803e3d6000fd5b505050506040513d602081101561186157600080fd5b8101908080519060200190929190505050846040518363ffffffff1660e01b8152600401808381526020018273ffffffffffffffffffffffffffffffffffffffff1673ffffffffffffffffffffffffffffffffffffffff1681526020019250505060206040518083038186803b1580156118da57600080fd5b505afa1580156118ee573d6000803e3d6000fd5b505050506040513d602081101561190457600080fd5b81019080805190602001909291905050509050919050565b6000600e60009054906101000a900473ffffffffffffffffffffffffffffffffffffffff1673ffffffffffffffffffffffffffffffffffffffff166391d14854600e60009054906101000a900473ffffffffffffffffffffffffffffffffffffffff1673ffffffffffffffffffffffffffffffffffffffff166384138b9b6040518163ffffffff1660e01b815260040160206040518083038186803b1580156119c457600080fd5b505afa1580156119d8573d6000803e3d6000fd5b505050506040513d60208110156119ee57600080fd5b8101908080519060200190929190505050846040518363ffffffff1660e01b8152600401808381526020018273ffffffffffffffffffffffffffffffffffffffff1673ffffffffffffffffffffffffffffffffffffffff1681526020019250505060206040518083038186803b158015611a6757600080fd5b505afa158015611a7b573d6000803e3d6000fd5b505050506040513d6020811015611a9157600080fd5b81019080805190602001909291905050509050919050565b600081600001549050919050565b6000600e60009054906101000a900473ffffffffffffffffffffffffffffffffffffffff1673ffffffffffffffffffffffffffffffffffffffff166391d14854600e60009054906101000a900473ffffffffffffffffffffffffffffffffffffffff1673ffffffffffffffffffffffffffffffffffffffff166325270f176040518163ffffffff1660e01b815260040160206040518083038186803b158015611b5f57600080fd5b505afa158015611b73573d6000803e3d6000fd5b505050506040513d6020811015611b8957600080fd5b8101908080519060200190929190505050846040518363ffffffff1660e01b8152600401808381526020018273ffffffffffffffffffffffffffffffffffffffff1673ffffffffffffffffffffffffffffffffffffffff1681526020019250505060206040518083038186803b158015611c0257600080fd5b505afa158015611c16573d6000803e3d6000fd5b505050506040513d6020811015611c2c57600080fd5b81019080805190602001909291905050509050919050565b6001816000016000828254019250508190555050565b828054600181600116156101000203166002900490600052602060002090601f016020900481019282601f10611c9b57805160ff1916838001178555611cc9565b82800160010185558215611cc9579182015b82811115611cc8578251825591602001919060010190611cad565b5b509050611cd69190611d44565b5090565b604051806040016040528060008152602001600081525090565b6040518060800160405280600081526020016000815260200160008152602001606081525090565b6040518060800160405280600081526020016000815260200160608152602001606081525090565b611d6691905b80821115611d62576000816000905550600101611d4a565b5090565b9056fea2646970667358221220c645173fd88215704a62900e2f80dfc3a6eaaa6d6df8bb93fab1f8ce089fb4e664736f6c63430006020033a264697066735822122057bca7acc9e455ae529f8dbbce93676499a581706271f311ecf8425072818e6464736f6c63430006020033",
  "source": "pragma solidity ^0.6.0;\n\nimport \"./expenseBool.sol\";\n//contract expenseBook is  AccessControl, GSNRecipient {\n    \n\ncontract expenseBookLibrary is expenseBookDS {       \n    \n    event OrderStatusChange(uint256 ad, string status, string action,uint256 _datetime);\n    event NewOrderRequest(uint256 ad, address seller, uint256 itemID,uint256 p,uint256 f,string c,uint8 pt,uint256 d);\n    \n    function createOrderRequest(uint256 _itemID, uint256 _price, uint256 _feesprecentage, string memory _currency,uint8 _paymenttype, uint256 _createdatetime,address _seller) public {\n        require(orderbook.isopen(_itemID)==false, \"E1\");\n        require(token[_itemID]==false, \"E2\");\n        require(_isSupplier(msg.sender) || _isSales(msg.sender) || _isAdmin(msg.sender),\"E0\");\n        require(diamondtoken.ownerOf(_itemID)==msg.sender, \"E4\" );\n        require( _price >= 0 , \"E5\");\n        _orderID.increment();\n        uint256 id = _orderID.current()-1;\n        Invoice i = new Invoice(_itemID, _price,1,_feesprecentage,_currency,_paymenttype,_createdatetime,address(access),_seller,owner);\n        orders[id] = address(i);\n        token[_itemID]=true;\n        emit NewOrderRequest(id,_seller,_itemID,_price,_feesprecentage,_currency,_paymenttype,_createdatetime);\n        \n    } \n    \n    function rejectRequest(uint256 _orderid,uint256 _datetime) public {\n        require( _isAdmin(msg.sender) || _isSales(msg.sender), \"E6\");\n        (bool exist, string memory nextstate)=_transitionExists(_getInvoiceState(orders[_orderid]),\"rejectRequest\");\n        require(exist , \"E7\");\n        _setInvoiceState(orders[_orderid],nextstate,_datetime);\n        emit OrderStatusChange(_orderid, nextstate,\"rejectRequest\",_datetime);\n        \n    }\n    \n    function cancelRequest(uint256 _orderid,uint256 _datetime) public {\n        address i = orders[_orderid];\n        require(_isSales(msg.sender) ||  _isAdmin(msg.sender) || (msg.sender == _getInvoiceCreditor(i)) , \"E8\");\n        (bool exist, string memory nextstate)=_transitionExists(_getInvoiceState(i),\"cancelRequest\");\n        require(exist , \"E9\");\n        _setInvoiceState(i,nextstate,_datetime);\n        token[_getInvoiceItem(i)]=false;\n        emit OrderStatusChange(_orderid, nextstate,\"cancelRequest\",_datetime);\n        \n    }\n    \n    function acceptRequest(uint256 _orderid, uint256 _price,bool _createtrade,uint256 _datetime) public {\n        address i = orders[_orderid];\n        require( _isSales(msg.sender) ||  _isAdmin(msg.sender) , \"E10\");\n        require(_price>=_getInvoiceTotalPrice(i),\"E30\");\n        (bool exist, string memory nextstate)=_transitionExists(_getInvoiceState(i),\"acceptRequest\");\n        require(exist , \"E11\");\n        _setInvoiceState(i,nextstate,_datetime);\n        emit OrderStatusChange(_orderid, nextstate,\"acceptRequest\",_datetime);\n        if(_createtrade){\n            uint256 tradeid = orderbook.openTrade(_getInvoiceItem(i),_getInvoiceCreditor(i),_price,_orderid,_datetime);\n            _setInvoiceAddTrade(i,tradeid,_datetime);\n        }\n               \n    }  \n\n    function cancelOrder(uint256 _orderid, uint256 _datetime) public {\n        address i = orders[_orderid];\n        require( _isSales(msg.sender) ||  _isAdmin(msg.sender) , \"E12\");\n        (bool exist, string memory nextstate)=_transitionExists(_getInvoiceState(i),\"cancelOrder\");\n        require(exist , \"E13\");\n        uint256 itemid = _getInvoiceItem(i);\n        if(orderbook.isopen(itemid)){ //check if there exists open trade in orderbook\n            //got open trade in orderbook\n            orderbook.cancelTrade(_getInvoiceCurrentTradeID(i),_datetime,true);\n        }else {\n            //cancel trade should call before, expenseBook is the item owner ,return back the item to seller\n            \n            diamondtoken.transferFrom(address(this),_getInvoiceCreditor(i),itemid);\n        }\n        token[itemid]=false;\n        _setInvoiceState(i,nextstate,_datetime);\n        emit OrderStatusChange(_orderid, nextstate,\"cancelOrder\",_datetime);\n         \n    }\n    \n     function addTrade(uint256 _orderid, uint256 _price, uint256 _datetime) public {\n        address i = orders[_orderid];\n        require( _isSales(msg.sender) ||  _isAdmin(msg.sender), \"E14\");\n        require(_price>=_getInvoiceTotalPrice(i),\"E30\");\n        (bool exist, string memory nextstate)=_transitionExists(_getInvoiceState(i),\"addTrade\");\n        require(exist , \"E15\");\n        uint256 itemid = _getInvoiceItem(i);\n        require(orderbook.isopen(itemid)==false,\"E16\");\n        uint256 tradeid = orderbook.openTrade(itemid,_getInvoiceCreditor(i),_price,_orderid,_datetime);\n        _setInvoiceAddTrade(i,tradeid,_datetime);\n        _setInvoiceState(i,nextstate,_datetime);\n        emit OrderStatusChange(_orderid, nextstate,\"addTrade\",_datetime);\n               \n    }\n    \n    function cancelTrade(uint256 _orderid, uint256 _datetime) public {\n        address i = orders[_orderid];\n        require( _isSales(msg.sender) ||  _isAdmin(msg.sender), \"E17\");\n        (bool exist, string memory nextstate)=_transitionExists(_getInvoiceState(i),\"cancelTrade\");\n        require(exist , \"E18\");\n        orderbook.cancelTrade(_getInvoiceCurrentTradeID(i),_datetime,false);\n        _setInvoiceState(i,nextstate,_datetime);\n        emit OrderStatusChange(_orderid, nextstate,\"cancelTrade\",_datetime);\n               \n    }\n    \n    function fullFillTrade(uint256 _orderid, uint256 _datetime) public {\n        address i = orders[_orderid];\n        require( access.hasRole(access.ORDER(),msg.sender) , \"E19\");\n        (bool exist, string memory nextstate)=_transitionExists(_getInvoiceState(i),\"fullFillTrade\");\n        require(exist , \"E20\");\n        _setInvoiceState(i,nextstate,_datetime);\n        emit OrderStatusChange(_orderid, nextstate,\"fullFillTrade\",_datetime);\n        token[_getInvoiceItem(i)]=false;\n               \n    }\n    \n    \n    function updateINV_settledate(uint256 _orderid, uint256 _settledate ,uint256 _settleamount, uint256 _datetime) public {\n        address i = orders[_orderid];\n        require( _isSettlement(msg.sender) ||  _isAdmin(msg.sender), \"E21\");\n        require(bookkeepingtoken.balanceOf(address(this))>=_getInvoiceTotalPrice(i),\"E31\");\n        (bool exist, string memory nextstate)=_transitionExists(_getInvoiceState(i),\"updateINV_settledate\");\n        require(exist , \"E22\");\n        _setInvoiceSettlementAmount(i,_settleamount,_settledate);\n        _setInvoiceState(i,nextstate,_datetime);\n        emit OrderStatusChange(_orderid, nextstate,\"updateINV_settledate\",_datetime);\n        \n    }\n    \n    \n    function updateINV_settleURL(uint256 _orderid, string memory _settleurl , uint256 _datetime) public {\n        address i = orders[_orderid];\n        require( _isSettlement(msg.sender) ||  _isAdmin(msg.sender) ||  (msg.sender == _getInvoiceCreditor(i)) , \"E23\");\n        (bool exist, string memory nextstate)=_transitionExists(_getInvoiceState(i),\"updateINV_settleURL\");\n        require(exist , \"E24\");\n        _setInvoiceSettlementURL(i,_settleurl);\n        _setInvoiceState(i,nextstate,_datetime);\n        emit OrderStatusChange(_orderid, nextstate,\"updateINV_settleURL\",_datetime);\n  \n    }\n    \n    function updateINV_paymentURL(uint256 _orderid, string memory _paymenturl , uint256 _datetime) public {\n        Invoice i = Invoice(orders[_orderid]);\n        require( _isSettlement(msg.sender) ||  _isAdmin(msg.sender), \"E25\");\n        (bool exist, string memory nextstate)=_transitionExists(i.getState(),\"updateINV_paymentURL\");\n        require(exist , \"E26\");\n        i.setpaymentURL(_paymenturl);\n        i.setState(nextstate,_datetime);\n        emit OrderStatusChange(_orderid, nextstate,\"updateINV_settleURL\",_datetime);\n        \n    }\n    \n    function updateINV_updateMeta(uint256 _orderid, uint64 key , string memory value) public {\n        Invoice i = Invoice(orders[_orderid]);\n        require( _isSettlement(msg.sender) ||  _isAdmin(msg.sender) || _isAccount(msg.sender), \"E27\");\n        i.setMeta(key,value);\n    }\n    \n    function updateINV_confirm(uint256 _orderid, uint256 _datetime) public {\n        Invoice i = Invoice(orders[_orderid]);\n        require( _isSettlement(msg.sender) ||  _isAdmin(msg.sender) || _isAccount(msg.sender) ||  (msg.sender == i.getCreditor()) , \"E28\");\n\n        (bool exist, string memory nextstate)=_transitionExists(i.getState(),\"updateINV_confirm\");\n        require(exist , \"E29\");\n        i.setState(nextstate,_datetime);\n        emit OrderStatusChange(_orderid, nextstate,\"updateINV_confirm\",_datetime);\n        \n    }\n    \n    function withdrawalDiamond(uint256 _itemid) public {\n        require( _isSettlement(msg.sender) ||  _isAdmin(msg.sender) || _isAccount(msg.sender) , \"E29\");\n        diamondtoken.transferFrom(address(this), msg.sender, _itemid);\n    }\n    \n    function withdrawalbookeep(uint256 _amount) public  {\n        require( _isSettlement(msg.sender) ||  _isAdmin(msg.sender) || _isAccount(msg.sender) , \"E29\");\n        bookkeepingtoken.transferFrom(address(this), msg.sender, _amount);\n    }\n    \n    function _transitionExists(string memory state,string memory funname) internal view\n    returns(bool e,string memory s)\n    {\n        (bool exist, string memory ns) = statemachine.transitionExists(state, keccak256(bytes(funname)));\n        return (exist,ns);\n    }\n    \n    function _getInvoiceState(address _a) internal\n    returns(string memory s){\n        bytes memory payload = abi.encodeWithSignature(\"getState()\");\n        (bool success, bytes memory result) = _a.call(payload);\n        require(success,\"O23\");\n        return abi.decode(result, (string));\n    }\n    \n    function _setInvoiceState(address _a,string memory _s,uint256 _d) internal\n    {\n        bytes memory payload = abi.encodeWithSignature(\"setState(string,uint256)\",_s,_d);\n        (bool success, ) = _a.call(payload);\n        require(success,\"O23\");\n     \n    }\n    \n    function _getInvoiceCreditor(address _a) internal\n    returns(address _c)\n    {\n        bytes memory payload = abi.encodeWithSignature(\"getCreditor()\");\n        (bool success, bytes memory result) = _a.call(payload);\n        require(success,\"O23\");\n        return abi.decode(result, (address));\n    }\n    \n    function _getInvoiceItem(address _a) internal\n    returns(uint256 _c)\n    {\n        bytes memory payload = abi.encodeWithSignature(\"getItem()\");\n        (bool success, bytes memory result) = _a.call(payload);\n        require(success,\"O23\");\n        return abi.decode(result, (uint256));\n    }\n    \n    function _getInvoiceTotalPrice(address _a) internal\n    returns(uint256 _c)\n    {\n        bytes memory payload = abi.encodeWithSignature(\"getOrderPrice()\");\n        (bool success, bytes memory result) = _a.call(payload);\n        require(success,\"O23\");\n        return abi.decode(result, (uint256));\n    }\n    \n    function _getInvoiceCurrentTradeID(address _a) internal\n    returns(uint256 _c)\n    {\n         bytes memory payload = abi.encodeWithSignature(\"getCurrentTradeID()\");\n        (bool success, bytes memory result) = _a.call(payload);\n        require(success,\"O23\");\n        return abi.decode(result, (uint256));\n    }\n    \n    function _setInvoiceAddTrade(address _a,uint256 _id,uint256 _d) internal\n    {\n        \n        bytes memory payload = abi.encodeWithSignature(\"setTradeID(uint256,uint256)\",_id,_d);\n        (bool success,) = _a.call(payload);\n        require(success,\"O23\");\n    }\n    \n    function _setInvoiceSettlementAmount(address _a,uint256 _s,uint256 _d) internal\n    {\n        \n        bytes memory payload = abi.encodeWithSignature(\"setSettlementAmount(uint256,uint256)\",_s,_d);\n        (bool success,) = _a.call(payload);\n        require(success,\"O23\");\n    }\n    \n    function _setInvoiceSettlementURL(address _a,string memory _s) internal\n    {\n        \n        bytes memory payload = abi.encodeWithSignature(\"setSettlementURL(string)\",_s);\n        (bool success,) = _a.call(payload);\n        require(success,\"O23\");\n    }\n  \n    \n}",
  "sourcePath": "/home/dickchan/ERC721Marketplace/contracts/expenseBookLibrary.sol",
  "compiler": {
    "name": "solc",
    "version": "0.6.2+commit.bacdbe57.Emscripten.clang"
  },
  "schemaVersion": "3.2.3",
  "updatedAt": "2020-10-29T04:58:23.003Z",
  "devdoc": {
    "methods": {}
  },
  "userdoc": {
    "methods": {}
  }
}