{
  "contractName": "expenseBook",
  "abi": [
    {
      "inputs": [
        {
          "internalType": "address",
          "name": "_orderbook",
          "type": "address"
        },
        {
          "internalType": "address",
          "name": "_compliance",
          "type": "address"
        },
        {
          "internalType": "address",
          "name": "_diamondtoken",
          "type": "address"
        },
        {
          "internalType": "address",
          "name": "_statemachine",
          "type": "address"
        },
        {
          "internalType": "address",
          "name": "_bookeep",
          "type": "address"
        },
        {
          "internalType": "address",
          "name": "_access",
          "type": "address"
        }
      ],
      "stateMutability": "nonpayable",
      "type": "constructor"
    },
    {
      "anonymous": false,
      "inputs": [
        {
          "indexed": false,
          "internalType": "uint256",
          "name": "ad",
          "type": "uint256"
        },
        {
          "indexed": false,
          "internalType": "address",
          "name": "seller",
          "type": "address"
        },
        {
          "indexed": false,
          "internalType": "uint256",
          "name": "itemID",
          "type": "uint256"
        },
        {
          "indexed": false,
          "internalType": "uint256",
          "name": "p",
          "type": "uint256"
        },
        {
          "indexed": false,
          "internalType": "uint256",
          "name": "f",
          "type": "uint256"
        },
        {
          "indexed": false,
          "internalType": "string",
          "name": "c",
          "type": "string"
        },
        {
          "indexed": false,
          "internalType": "uint8",
          "name": "pt",
          "type": "uint8"
        },
        {
          "indexed": false,
          "internalType": "uint256",
          "name": "d",
          "type": "uint256"
        }
      ],
      "name": "NewOrderRequest",
      "type": "event"
    },
    {
      "anonymous": false,
      "inputs": [
        {
          "indexed": false,
          "internalType": "uint256",
          "name": "ad",
          "type": "uint256"
        },
        {
          "indexed": false,
          "internalType": "string",
          "name": "status",
          "type": "string"
        },
        {
          "indexed": false,
          "internalType": "string",
          "name": "action",
          "type": "string"
        },
        {
          "indexed": false,
          "internalType": "uint256",
          "name": "_datetime",
          "type": "uint256"
        }
      ],
      "name": "OrderStatusChange",
      "type": "event"
    },
    {
      "inputs": [
        {
          "internalType": "string",
          "name": "",
          "type": "string"
        }
      ],
      "name": "currencydecimal",
      "outputs": [
        {
          "internalType": "uint8",
          "name": "",
          "type": "uint8"
        }
      ],
      "stateMutability": "view",
      "type": "function"
    },
    {
      "inputs": [
        {
          "internalType": "uint256",
          "name": "",
          "type": "uint256"
        }
      ],
      "name": "token",
      "outputs": [
        {
          "internalType": "bool",
          "name": "",
          "type": "bool"
        }
      ],
      "stateMutability": "view",
      "type": "function"
    },
    {
      "inputs": [
        {
          "internalType": "address",
          "name": "_orderbook",
          "type": "address"
        }
      ],
      "name": "setOrdBook",
      "outputs": [],
      "stateMutability": "nonpayable",
      "type": "function"
    },
    {
      "inputs": [
        {
          "internalType": "address",
          "name": "_compliance",
          "type": "address"
        }
      ],
      "name": "setCompliance",
      "outputs": [],
      "stateMutability": "nonpayable",
      "type": "function"
    },
    {
      "inputs": [
        {
          "internalType": "address",
          "name": "_bookkeep",
          "type": "address"
        }
      ],
      "name": "setbookkeep",
      "outputs": [],
      "stateMutability": "nonpayable",
      "type": "function"
    },
    {
      "inputs": [
        {
          "internalType": "address",
          "name": "_machine",
          "type": "address"
        }
      ],
      "name": "setStateMachine",
      "outputs": [],
      "stateMutability": "nonpayable",
      "type": "function"
    },
    {
      "inputs": [],
      "name": "getAllContract",
      "outputs": [
        {
          "internalType": "address",
          "name": "",
          "type": "address"
        },
        {
          "internalType": "address",
          "name": "",
          "type": "address"
        },
        {
          "internalType": "address",
          "name": "",
          "type": "address"
        },
        {
          "internalType": "address",
          "name": "",
          "type": "address"
        }
      ],
      "stateMutability": "view",
      "type": "function"
    },
    {
      "inputs": [
        {
          "internalType": "uint256",
          "name": "d",
          "type": "uint256"
        }
      ],
      "name": "setfeesprecentage_decimal",
      "outputs": [],
      "stateMutability": "nonpayable",
      "type": "function"
    },
    {
      "inputs": [],
      "name": "getfeesprecentage_decimal",
      "outputs": [
        {
          "internalType": "uint256",
          "name": "",
          "type": "uint256"
        }
      ],
      "stateMutability": "view",
      "type": "function"
    },
    {
      "inputs": [],
      "name": "getOrdercount",
      "outputs": [
        {
          "internalType": "uint256",
          "name": "",
          "type": "uint256"
        }
      ],
      "stateMutability": "view",
      "type": "function"
    },
    {
      "inputs": [
        {
          "internalType": "uint256",
          "name": "_order",
          "type": "uint256"
        }
      ],
      "name": "getOrder",
      "outputs": [
        {
          "internalType": "address",
          "name": "",
          "type": "address"
        },
        {
          "internalType": "uint256",
          "name": "",
          "type": "uint256"
        },
        {
          "internalType": "uint256",
          "name": "",
          "type": "uint256"
        },
        {
          "internalType": "uint256",
          "name": "",
          "type": "uint256"
        },
        {
          "internalType": "uint256",
          "name": "",
          "type": "uint256"
        },
        {
          "internalType": "string",
          "name": "",
          "type": "string"
        },
        {
          "internalType": "uint8",
          "name": "",
          "type": "uint8"
        },
        {
          "internalType": "uint256",
          "name": "",
          "type": "uint256"
        },
        {
          "internalType": "string",
          "name": "",
          "type": "string"
        },
        {
          "internalType": "string",
          "name": "",
          "type": "string"
        },
        {
          "internalType": "string",
          "name": "",
          "type": "string"
        }
      ],
      "stateMutability": "view",
      "type": "function"
    },
    {
      "inputs": [
        {
          "internalType": "uint256",
          "name": "_order",
          "type": "uint256"
        }
      ],
      "name": "getOrderAmount",
      "outputs": [
        {
          "internalType": "uint256",
          "name": "",
          "type": "uint256"
        }
      ],
      "stateMutability": "view",
      "type": "function"
    },
    {
      "inputs": [
        {
          "internalType": "uint256",
          "name": "_itemID",
          "type": "uint256"
        },
        {
          "internalType": "uint256",
          "name": "_price",
          "type": "uint256"
        },
        {
          "internalType": "uint256",
          "name": "_feesprecentage",
          "type": "uint256"
        },
        {
          "internalType": "string",
          "name": "_currency",
          "type": "string"
        },
        {
          "internalType": "uint8",
          "name": "_paymenttype",
          "type": "uint8"
        },
        {
          "internalType": "uint256",
          "name": "_createdatetime",
          "type": "uint256"
        }
      ],
      "name": "createOrderRequest",
      "outputs": [],
      "stateMutability": "nonpayable",
      "type": "function"
    },
    {
      "inputs": [
        {
          "internalType": "uint256",
          "name": "_orderid",
          "type": "uint256"
        },
        {
          "internalType": "string",
          "name": "rejectreason",
          "type": "string"
        },
        {
          "internalType": "uint256",
          "name": "_datetime",
          "type": "uint256"
        }
      ],
      "name": "rejectRequest",
      "outputs": [],
      "stateMutability": "nonpayable",
      "type": "function"
    },
    {
      "inputs": [
        {
          "internalType": "uint256",
          "name": "_orderid",
          "type": "uint256"
        },
        {
          "internalType": "uint256",
          "name": "_datetime",
          "type": "uint256"
        }
      ],
      "name": "cancelRequest",
      "outputs": [],
      "stateMutability": "nonpayable",
      "type": "function"
    },
    {
      "inputs": [
        {
          "internalType": "uint256",
          "name": "_orderid",
          "type": "uint256"
        },
        {
          "internalType": "uint256",
          "name": "_price",
          "type": "uint256"
        },
        {
          "internalType": "bool",
          "name": "_createtrade",
          "type": "bool"
        },
        {
          "internalType": "uint256",
          "name": "_datetime",
          "type": "uint256"
        }
      ],
      "name": "acceptRequest",
      "outputs": [],
      "stateMutability": "nonpayable",
      "type": "function"
    },
    {
      "inputs": [
        {
          "internalType": "uint256",
          "name": "_orderid",
          "type": "uint256"
        },
        {
          "internalType": "uint256",
          "name": "_datetime",
          "type": "uint256"
        }
      ],
      "name": "cancelOrder",
      "outputs": [],
      "stateMutability": "nonpayable",
      "type": "function"
    },
    {
      "inputs": [
        {
          "internalType": "uint256",
          "name": "_orderid",
          "type": "uint256"
        },
        {
          "internalType": "uint256",
          "name": "_price",
          "type": "uint256"
        },
        {
          "internalType": "uint256",
          "name": "_datetime",
          "type": "uint256"
        }
      ],
      "name": "addTrade",
      "outputs": [],
      "stateMutability": "nonpayable",
      "type": "function"
    },
    {
      "inputs": [
        {
          "internalType": "uint256",
          "name": "_orderid",
          "type": "uint256"
        },
        {
          "internalType": "uint256",
          "name": "_datetime",
          "type": "uint256"
        }
      ],
      "name": "cancelTrade",
      "outputs": [],
      "stateMutability": "nonpayable",
      "type": "function"
    },
    {
      "inputs": [
        {
          "internalType": "uint256",
          "name": "_orderid",
          "type": "uint256"
        },
        {
          "internalType": "uint256",
          "name": "_datetime",
          "type": "uint256"
        }
      ],
      "name": "fullFillTrade",
      "outputs": [],
      "stateMutability": "nonpayable",
      "type": "function"
    },
    {
      "inputs": [
        {
          "internalType": "uint256",
          "name": "_orderid",
          "type": "uint256"
        },
        {
          "internalType": "uint256",
          "name": "_settledate",
          "type": "uint256"
        },
        {
          "internalType": "uint256",
          "name": "_datetime",
          "type": "uint256"
        }
      ],
      "name": "updateINV_settledate",
      "outputs": [],
      "stateMutability": "nonpayable",
      "type": "function"
    },
    {
      "inputs": [
        {
          "internalType": "uint256",
          "name": "_orderid",
          "type": "uint256"
        },
        {
          "internalType": "string",
          "name": "_settleurl",
          "type": "string"
        },
        {
          "internalType": "uint256",
          "name": "_datetime",
          "type": "uint256"
        }
      ],
      "name": "updateINV_settleURL",
      "outputs": [],
      "stateMutability": "nonpayable",
      "type": "function"
    },
    {
      "inputs": [
        {
          "internalType": "uint256",
          "name": "_orderid",
          "type": "uint256"
        },
        {
          "internalType": "string",
          "name": "_paymenturl",
          "type": "string"
        },
        {
          "internalType": "uint256",
          "name": "_datetime",
          "type": "uint256"
        }
      ],
      "name": "updateINV_paymentURL",
      "outputs": [],
      "stateMutability": "nonpayable",
      "type": "function"
    },
    {
      "inputs": [
        {
          "internalType": "uint256",
          "name": "_orderid",
          "type": "uint256"
        },
        {
          "internalType": "uint64",
          "name": "key",
          "type": "uint64"
        },
        {
          "internalType": "string",
          "name": "value",
          "type": "string"
        }
      ],
      "name": "updateINV_updateMeta",
      "outputs": [],
      "stateMutability": "nonpayable",
      "type": "function"
    },
    {
      "inputs": [
        {
          "internalType": "uint256",
          "name": "_orderid",
          "type": "uint256"
        },
        {
          "internalType": "uint256",
          "name": "_datetime",
          "type": "uint256"
        }
      ],
      "name": "updateINV_confirm",
      "outputs": [],
      "stateMutability": "nonpayable",
      "type": "function"
    },
    {
      "inputs": [
        {
          "internalType": "uint256",
          "name": "_itemid",
          "type": "uint256"
        }
      ],
      "name": "withdrawalDiamond",
      "outputs": [],
      "stateMutability": "nonpayable",
      "type": "function"
    },
    {
      "inputs": [
        {
          "internalType": "uint256",
          "name": "_amount",
          "type": "uint256"
        }
      ],
      "name": "withdrawalbookeep",
      "outputs": [],
      "stateMutability": "nonpayable",
      "type": "function"
    }
  ],
  "bytecode": "0x60806040523480156200001157600080fd5b506040516200b6913803806200b691833981810160405260c08110156200003757600080fd5b81019080805190602001909291908051906020019092919080519060200190929190805190602001909291908051906020019092919080519060200190929190505050856000806101000a81548173ffffffffffffffffffffffffffffffffffffffff021916908373ffffffffffffffffffffffffffffffffffffffff16021790555084600160006101000a81548173ffffffffffffffffffffffffffffffffffffffff021916908373ffffffffffffffffffffffffffffffffffffffff16021790555083600260006101000a81548173ffffffffffffffffffffffffffffffffffffffff021916908373ffffffffffffffffffffffffffffffffffffffff16021790555081600360006101000a81548173ffffffffffffffffffffffffffffffffffffffff021916908373ffffffffffffffffffffffffffffffffffffffff16021790555082600460006101000a81548173ffffffffffffffffffffffffffffffffffffffff021916908373ffffffffffffffffffffffffffffffffffffffff16021790555080600560006101000a81548173ffffffffffffffffffffffffffffffffffffffff021916908373ffffffffffffffffffffffffffffffffffffffff1602179055506002600a60405180807f484b4400000000000000000000000000000000000000000000000000000000008152506003019050908152602001604051809103902060006101000a81548160ff021916908360ff1602179055506002600a60405180807f55534400000000000000000000000000000000000000000000000000000000008152506003019050908152602001604051809103902060006101000a81548160ff021916908360ff160217905550600a600681905550600260009054906101000a900473ffffffffffffffffffffffffffffffffffffffff1673ffffffffffffffffffffffffffffffffffffffff1663a22cb4658760016040518363ffffffff1660e01b8152600401808373ffffffffffffffffffffffffffffffffffffffff1673ffffffffffffffffffffffffffffffffffffffff1681526020018215151515815260200192505050600060405180830381600087803b1580156200036657600080fd5b505af11580156200037b573d6000803e3d6000fd5b50505050620003966008620003a260201b6200b0e51760201c565b505050505050620003b8565b6001816000016000828254019250508190555050565b61b2c980620003c86000396000f3fe608060405234801561001057600080fd5b50600436106101a95760003560e01c806367bb1fcf116100f9578063d09ef24111610097578063f33823b711610071578063f33823b714610ca5578063f810d5be14610ce7578063f898178914610d15578063f9490d8414610d59576101a9565b8063d09ef241146109d1578063d586d2e414610c1f578063ec33c25f14610c57576101a9565b806385364076116100d357806385364076146107dd57806389a40c69146108ac578063b6ed06321461097b578063cf06b3ce146109b3576101a9565b806367bb1fcf146106745780637186775b146106b6578063811fd2cb146106fa576101a9565b80634f1f0bc9116101665780635f764495116101405780635f7644951461050157806364339dbf1461052f57806364c56ed11461056757806366127a5b1461059f576101a9565b80634f1f0bc9146103ac578063532e725b1461047b5780635516daea146104bf576101a9565b8063044215c6146101ae5780630cd1c184146101f457806311abcb0914610222578063435f08eb146102665780634388a9c0146102845780634bb7c8ad146102bc575b600080fd5b6101da600480360360208110156101c457600080fd5b8101908080359060200190929190505050610e32565b604051808215151515815260200191505060405180910390f35b6102206004803603602081101561020a57600080fd5b8101908080359060200190929190505050610e52565b005b6102646004803603602081101561023857600080fd5b81019080803573ffffffffffffffffffffffffffffffffffffffff16906020019092919050505061147a565b005b61026e6116b3565b6040518082815260200191505060405180910390f35b6102ba6004803603604081101561029a57600080fd5b8101908080359060200190929190803590602001909291905050506116bd565b005b6103aa600480360360c08110156102d257600080fd5b810190808035906020019092919080359060200190929190803590602001909291908035906020019064010000000081111561030d57600080fd5b82018360208201111561031f57600080fd5b8035906020019184600183028401116401000000008311171561034157600080fd5b91908080601f016020809104026020016040519081016040528093929190818152602001838380828437600081840152601f19601f820116905080830192505050505050509192919290803560ff16906020019092919080359060200190929190505050611d58565b005b610479600480360360608110156103c257600080fd5b8101908080359060200190929190803590602001906401000000008111156103e957600080fd5b8201836020820111156103fb57600080fd5b8035906020019184600183028401116401000000008311171561041d57600080fd5b91908080601f016020809104026020016040519081016040528093929190818152602001838380828437600081840152601f19601f82011690508083019250505050505050919291929080359060200190929190505050612990565b005b6104bd6004803603602081101561049157600080fd5b81019080803573ffffffffffffffffffffffffffffffffffffffff1690602001909291905050506131bb565b005b6104ff600480360360608110156104d557600080fd5b810190808035906020019092919080359060200190929190803590602001909291905050506133f5565b005b61052d6004803603602081101561051757600080fd5b8101908080359060200190929190505050613f09565b005b6105656004803603604081101561054557600080fd5b81019080803590602001909291908035906020019092919050505061450d565b005b61059d6004803603604081101561057d57600080fd5b810190808035906020019092919080359060200190929190505050614da8565b005b610658600480360360208110156105b557600080fd5b81019080803590602001906401000000008111156105d257600080fd5b8201836020820111156105e457600080fd5b8035906020019184600183028401116401000000008311171561060657600080fd5b91908080601f016020809104026020016040519081016040528093929190818152602001838380828437600081840152601f19601f8201169050808301925050505050505091929192905050506158e8565b604051808260ff1660ff16815260200191505060405180910390f35b6106a06004803603602081101561068a57600080fd5b810190808035906020019092919050505061591e565b6040518082815260200191505060405180910390f35b6106f8600480360360208110156106cc57600080fd5b81019080803573ffffffffffffffffffffffffffffffffffffffff169060200190929190505050616004565b005b61070261623e565b604051808573ffffffffffffffffffffffffffffffffffffffff1673ffffffffffffffffffffffffffffffffffffffff1681526020018473ffffffffffffffffffffffffffffffffffffffff1673ffffffffffffffffffffffffffffffffffffffff1681526020018373ffffffffffffffffffffffffffffffffffffffff1673ffffffffffffffffffffffffffffffffffffffff1681526020018273ffffffffffffffffffffffffffffffffffffffff1673ffffffffffffffffffffffffffffffffffffffff16815260200194505050505060405180910390f35b6108aa600480360360608110156107f357600080fd5b81019080803590602001909291908035906020019064010000000081111561081a57600080fd5b82018360208201111561082c57600080fd5b8035906020019184600183028401116401000000008311171561084e57600080fd5b91908080601f016020809104026020016040519081016040528093929190818152602001838380828437600081840152601f19601f820116905080830192505050505050509192919290803590602001909291905050506162dd565b005b610979600480360360608110156108c257600080fd5b8101908080359060200190929190803590602001906401000000008111156108e957600080fd5b8201836020820111156108fb57600080fd5b8035906020019184600183028401116401000000008311171561091d57600080fd5b91908080601f016020809104026020016040519081016040528093929190818152602001838380828437600081840152601f19601f82011690508083019250505050505050919291929080359060200190929190505050616cbe565b005b6109b16004803603604081101561099157600080fd5b810190808035906020019092919080359060200190929190505050617633565b005b6109bb61810f565b6040518082815260200191505060405180910390f35b6109fd600480360360208110156109e757600080fd5b8101908080359060200190929190505050618123565b604051808c73ffffffffffffffffffffffffffffffffffffffff1673ffffffffffffffffffffffffffffffffffffffff1681526020018b81526020018a8152602001898152602001888152602001806020018760ff1660ff16815260200186815260200180602001806020018060200185810385528b818151815260200191508051906020019080838360005b83811015610aa5578082015181840152602081019050610a8a565b50505050905090810190601f168015610ad25780820380516001836020036101000a031916815260200191505b50858103845288818151815260200191508051906020019080838360005b83811015610b0b578082015181840152602081019050610af0565b50505050905090810190601f168015610b385780820380516001836020036101000a031916815260200191505b50858103835287818151815260200191508051906020019080838360005b83811015610b71578082015181840152602081019050610b56565b50505050905090810190601f168015610b9e5780820380516001836020036101000a031916815260200191505b50858103825286818151815260200191508051906020019080838360005b83811015610bd7578082015181840152602081019050610bbc565b50505050905090810190601f168015610c045780820380516001836020036101000a031916815260200191505b509f5050505050505050505050505050505060405180910390f35b610c5560048036036040811015610c3557600080fd5b8101908080359060200190929190803590602001909291905050506186ed565b005b610ca360048036036080811015610c6d57600080fd5b81019080803590602001909291908035906020019092919080351515906020019092919080359060200190929190505050618f7f565b005b610ce560048036036060811015610cbb57600080fd5b81019080803590602001909291908035906020019092919080359060200190929190505050619c72565b005b610d1360048036036020811015610cfd57600080fd5b810190808035906020019092919050505061a5d7565b005b610d5760048036036020811015610d2b57600080fd5b81019080803573ffffffffffffffffffffffffffffffffffffffff16906020019092919050505061a7d7565b005b610e3060048036036060811015610d6f57600080fd5b8101908080359060200190929190803567ffffffffffffffff16906020019092919080359060200190640100000000811115610daa57600080fd5b820183602082011115610dbc57600080fd5b80359060200191846001830284011164010000000083111715610dde57600080fd5b91908080601f016020809104026020016040519081016040528093929190818152602001838380828437600081840152601f19601f82011690508083019250505050505050919291929050505061aa11565b005b600b6020528060005260406000206000915054906101000a900460ff1681565b600560009054906101000a900473ffffffffffffffffffffffffffffffffffffffff1673ffffffffffffffffffffffffffffffffffffffff166391d14854600560009054906101000a900473ffffffffffffffffffffffffffffffffffffffff1673ffffffffffffffffffffffffffffffffffffffff1663ef0fe2456040518163ffffffff1660e01b815260040160206040518083038186803b158015610ef857600080fd5b505afa158015610f0c573d6000803e3d6000fd5b505050506040513d6020811015610f2257600080fd5b8101908080519060200190929190505050336040518363ffffffff1660e01b8152600401808381526020018273ffffffffffffffffffffffffffffffffffffffff1673ffffffffffffffffffffffffffffffffffffffff1681526020019250505060206040518083038186803b158015610f9b57600080fd5b505afa158015610faf573d6000803e3d6000fd5b505050506040513d6020811015610fc557600080fd5b8101908080519060200190929190505050806111615750600560009054906101000a900473ffffffffffffffffffffffffffffffffffffffff1673ffffffffffffffffffffffffffffffffffffffff166391d14854600560009054906101000a900473ffffffffffffffffffffffffffffffffffffffff1673ffffffffffffffffffffffffffffffffffffffff166375b238fc6040518163ffffffff1660e01b815260040160206040518083038186803b15801561108257600080fd5b505afa158015611096573d6000803e3d6000fd5b505050506040513d60208110156110ac57600080fd5b8101908080519060200190929190505050336040518363ffffffff1660e01b8152600401808381526020018273ffffffffffffffffffffffffffffffffffffffff1673ffffffffffffffffffffffffffffffffffffffff1681526020019250505060206040518083038186803b15801561112557600080fd5b505afa158015611139573d6000803e3d6000fd5b505050506040513d602081101561114f57600080fd5b81019080805190602001909291905050505b806112ec5750600560009054906101000a900473ffffffffffffffffffffffffffffffffffffffff1673ffffffffffffffffffffffffffffffffffffffff166391d14854600560009054906101000a900473ffffffffffffffffffffffffffffffffffffffff1673ffffffffffffffffffffffffffffffffffffffff1663e90524f26040518163ffffffff1660e01b815260040160206040518083038186803b15801561120d57600080fd5b505afa158015611221573d6000803e3d6000fd5b505050506040513d602081101561123757600080fd5b8101908080519060200190929190505050336040518363ffffffff1660e01b8152600401808381526020018273ffffffffffffffffffffffffffffffffffffffff1673ffffffffffffffffffffffffffffffffffffffff1681526020019250505060206040518083038186803b1580156112b057600080fd5b505afa1580156112c4573d6000803e3d6000fd5b505050506040513d60208110156112da57600080fd5b81019080805190602001909291905050505b61135e576040517f08c379a00000000000000000000000000000000000000000000000000000000081526004018080602001828103825260038152602001807f453239000000000000000000000000000000000000000000000000000000000081525060200191505060405180910390fd5b600360009054906101000a900473ffffffffffffffffffffffffffffffffffffffff1673ffffffffffffffffffffffffffffffffffffffff166323b872dd3033846040518463ffffffff1660e01b8152600401808473ffffffffffffffffffffffffffffffffffffffff1673ffffffffffffffffffffffffffffffffffffffff1681526020018373ffffffffffffffffffffffffffffffffffffffff1673ffffffffffffffffffffffffffffffffffffffff1681526020018281526020019350505050602060405180830381600087803b15801561143b57600080fd5b505af115801561144f573d6000803e3d6000fd5b505050506040513d602081101561146557600080fd5b81019080805190602001909291905050505050565b600560009054906101000a900473ffffffffffffffffffffffffffffffffffffffff1673ffffffffffffffffffffffffffffffffffffffff166391d14854600560009054906101000a900473ffffffffffffffffffffffffffffffffffffffff1673ffffffffffffffffffffffffffffffffffffffff166375b238fc6040518163ffffffff1660e01b815260040160206040518083038186803b15801561152057600080fd5b505afa158015611534573d6000803e3d6000fd5b505050506040513d602081101561154a57600080fd5b8101908080519060200190929190505050336040518363ffffffff1660e01b8152600401808381526020018273ffffffffffffffffffffffffffffffffffffffff1673ffffffffffffffffffffffffffffffffffffffff1681526020019250505060206040518083038186803b1580156115c357600080fd5b505afa1580156115d7573d6000803e3d6000fd5b505050506040513d60208110156115ed57600080fd5b8101908080519060200190929190505050611670576040517f08c379a00000000000000000000000000000000000000000000000000000000081526004018080602001828103825260028152602001807f453000000000000000000000000000000000000000000000000000000000000081525060200191505060405180910390fd5b806000806101000a81548173ffffffffffffffffffffffffffffffffffffffff021916908373ffffffffffffffffffffffffffffffffffffffff16021790555050565b6000600654905090565b600560009054906101000a900473ffffffffffffffffffffffffffffffffffffffff1673ffffffffffffffffffffffffffffffffffffffff166391d14854600560009054906101000a900473ffffffffffffffffffffffffffffffffffffffff1673ffffffffffffffffffffffffffffffffffffffff16634d5e07fb6040518163ffffffff1660e01b815260040160206040518083038186803b15801561176357600080fd5b505afa158015611777573d6000803e3d6000fd5b505050506040513d602081101561178d57600080fd5b8101908080519060200190929190505050336040518363ffffffff1660e01b8152600401808381526020018273ffffffffffffffffffffffffffffffffffffffff1673ffffffffffffffffffffffffffffffffffffffff1681526020019250505060206040518083038186803b15801561180657600080fd5b505afa15801561181a573d6000803e3d6000fd5b505050506040513d602081101561183057600080fd5b81019080805190602001909291905050506118b3576040517f08c379a00000000000000000000000000000000000000000000000000000000081526004018080602001828103825260038152602001807f453139000000000000000000000000000000000000000000000000000000000081525060200191505060405180910390fd5b600060405180807f66756c6c46696c6c547261646500000000000000000000000000000000000000815250600d0190506040518091039020905060006060600460009054906101000a900473ffffffffffffffffffffffffffffffffffffffff1673ffffffffffffffffffffffffffffffffffffffff16637084424960096000888152602001908152602001600020600a01856040518363ffffffff1660e01b815260040180806020018381526020018281038252848181546001816001161561010002031660029004815260200191508054600181600116156101000203166002900480156119e45780601f106119b9576101008083540402835291602001916119e4565b820191906000526020600020905b8154815290600101906020018083116119c757829003601f168201915b5050935050505060006040518083038186803b158015611a0357600080fd5b505afa158015611a17573d6000803e3d6000fd5b505050506040513d6000823e3d601f19601f820116820180604052506040811015611a4157600080fd5b810190808051906020019092919080516040519392919084640100000000821115611a6b57600080fd5b83820191506020820185811115611a8157600080fd5b8251866001820283011164010000000082111715611a9e57600080fd5b8083526020830192505050908051906020019080838360005b83811015611ad2578082015181840152602081019050611ab7565b50505050905090810190601f168015611aff5780820380516001836020036101000a031916815260200191505b506040525050509150915081611b7d576040517f08c379a00000000000000000000000000000000000000000000000000000000081526004018080602001828103825260038152602001807f453230000000000000000000000000000000000000000000000000000000000081525060200191505060405180910390fd5b8060096000878152602001908152602001600020600a019080519060200190611ba792919061b0fb565b508360096000878152602001908152602001600020600b01826040518082805190602001908083835b60208310611bf35780518252602082019150602081019050602083039250611bd0565b6001836020036101000a0380198251168184511680821785525050505050509050019150509081526020016040518091039020819055507f18e6968414f33702467961559c1912d6c91683d964cc4a3aa8944716773ed787858286604051808481526020018060200180602001848152602001838103835285818151815260200191508051906020019080838360005b83811015611c9e578082015181840152602081019050611c83565b50505050905090810190601f168015611ccb5780820380516001836020036101000a031916815260200191505b508381038252600d8152602001807f66756c6c46696c6c5472616465000000000000000000000000000000000000008152506020019550505050505060405180910390a16000600b60006009600089815260200190815260200160002060020154815260200190815260200160002060006101000a81548160ff0219169083151502179055505050505050565b600015156000809054906101000a900473ffffffffffffffffffffffffffffffffffffffff1673ffffffffffffffffffffffffffffffffffffffff1663c70acf7a886040518263ffffffff1660e01b81526004018082815260200191505060206040518083038186803b158015611dce57600080fd5b505afa158015611de2573d6000803e3d6000fd5b505050506040513d6020811015611df857600080fd5b8101908080519060200190929190505050151514611e7e576040517f08c379a00000000000000000000000000000000000000000000000000000000081526004018080602001828103825260028152602001807f453100000000000000000000000000000000000000000000000000000000000081525060200191505060405180910390fd5b60001515600b600088815260200190815260200160002060009054906101000a900460ff16151514611f18576040517f08c379a00000000000000000000000000000000000000000000000000000000081526004018080602001828103825260028152602001807f453200000000000000000000000000000000000000000000000000000000000081525060200191505060405180910390fd5b600160009054906101000a900473ffffffffffffffffffffffffffffffffffffffff1673ffffffffffffffffffffffffffffffffffffffff166376b07186336040518263ffffffff1660e01b8152600401808273ffffffffffffffffffffffffffffffffffffffff1673ffffffffffffffffffffffffffffffffffffffff16815260200191505060206040518083038186803b158015611fb757600080fd5b505afa158015611fcb573d6000803e3d6000fd5b505050506040513d6020811015611fe157600080fd5b8101908080519060200190929190505050612064576040517f08c379a00000000000000000000000000000000000000000000000000000000081526004018080602001828103825260028152602001807f453300000000000000000000000000000000000000000000000000000000000081525060200191505060405180910390fd5b600560009054906101000a900473ffffffffffffffffffffffffffffffffffffffff1673ffffffffffffffffffffffffffffffffffffffff166391d14854600560009054906101000a900473ffffffffffffffffffffffffffffffffffffffff1673ffffffffffffffffffffffffffffffffffffffff1663e926eb966040518163ffffffff1660e01b815260040160206040518083038186803b15801561210a57600080fd5b505afa15801561211e573d6000803e3d6000fd5b505050506040513d602081101561213457600080fd5b8101908080519060200190929190505050336040518363ffffffff1660e01b8152600401808381526020018273ffffffffffffffffffffffffffffffffffffffff1673ffffffffffffffffffffffffffffffffffffffff1681526020019250505060206040518083038186803b1580156121ad57600080fd5b505afa1580156121c1573d6000803e3d6000fd5b505050506040513d60208110156121d757600080fd5b8101908080519060200190929190505050806123735750600560009054906101000a900473ffffffffffffffffffffffffffffffffffffffff1673ffffffffffffffffffffffffffffffffffffffff166391d14854600560009054906101000a900473ffffffffffffffffffffffffffffffffffffffff1673ffffffffffffffffffffffffffffffffffffffff16634db08aea6040518163ffffffff1660e01b815260040160206040518083038186803b15801561229457600080fd5b505afa1580156122a8573d6000803e3d6000fd5b505050506040513d60208110156122be57600080fd5b8101908080519060200190929190505050336040518363ffffffff1660e01b8152600401808381526020018273ffffffffffffffffffffffffffffffffffffffff1673ffffffffffffffffffffffffffffffffffffffff1681526020019250505060206040518083038186803b15801561233757600080fd5b505afa15801561234b573d6000803e3d6000fd5b505050506040513d602081101561236157600080fd5b81019080805190602001909291905050505b6123e5576040517f08c379a00000000000000000000000000000000000000000000000000000000081526004018080602001828103825260028152602001807f453000000000000000000000000000000000000000000000000000000000000081525060200191505060405180910390fd5b3373ffffffffffffffffffffffffffffffffffffffff16600260009054906101000a900473ffffffffffffffffffffffffffffffffffffffff1673ffffffffffffffffffffffffffffffffffffffff16636352211e886040518263ffffffff1660e01b81526004018082815260200191505060206040518083038186803b15801561246f57600080fd5b505afa158015612483573d6000803e3d6000fd5b505050506040513d602081101561249957600080fd5b810190808051906020019092919050505073ffffffffffffffffffffffffffffffffffffffff1614612533576040517f08c379a00000000000000000000000000000000000000000000000000000000081526004018080602001828103825260028152602001807f453400000000000000000000000000000000000000000000000000000000000081525060200191505060405180910390fd5b60008510156125aa576040517f08c379a00000000000000000000000000000000000000000000000000000000081526004018080602001828103825260028152602001807f453500000000000000000000000000000000000000000000000000000000000081525060200191505060405180910390fd5b6040518061016001604052803373ffffffffffffffffffffffffffffffffffffffff168152602001600081526020018781526020018681526020018581526020018481526020018360ff168152602001600081526020016040518060400160405280600481526020017f4e554c4c0000000000000000000000000000000000000000000000000000000081525081526020016040518060400160405280600481526020017f4e554c4c0000000000000000000000000000000000000000000000000000000081525081526020016040518060400160405280600281526020017f4f49000000000000000000000000000000000000000000000000000000000000815250815250600960006126be600861b0d7565b815260200190815260200160002060008201518160000160006101000a81548173ffffffffffffffffffffffffffffffffffffffff021916908373ffffffffffffffffffffffffffffffffffffffff1602179055506020820151816001015560408201518160020155606082015181600301556080820151816004015560a082015181600501908051906020019061275792919061b17b565b5060c08201518160060160006101000a81548160ff021916908360ff16021790555060e082015181600701556101008201518160080190805190602001906127a092919061b17b565b506101208201518160090190805190602001906127be92919061b17b565b5061014082015181600a0190805190602001906127dc92919061b17b565b5090505080600960006127ef600861b0d7565b8152602001908152602001600020600b0160405180807f4f49000000000000000000000000000000000000000000000000000000000000815250600201905090815260200160405180910390208190555061284a600861b0e5565b6001600b600088815260200190815260200160002060006101000a81548160ff0219169083151502179055507f40cb330bda5ab218abd314123e39f32e9c6c6e70ffbc6460c50e356b4b1da52b60016128a3600861b0d7565b0333888888888888604051808981526020018873ffffffffffffffffffffffffffffffffffffffff1673ffffffffffffffffffffffffffffffffffffffff168152602001878152602001868152602001858152602001806020018460ff1660ff168152602001838152602001828103825285818151815260200191508051906020019080838360005b8381101561294757808201518184015260208101905061292c565b50505050905090810190601f1680156129745780820380516001836020036101000a031916815260200191505b50995050505050505050505060405180910390a1505050505050565b600560009054906101000a900473ffffffffffffffffffffffffffffffffffffffff1673ffffffffffffffffffffffffffffffffffffffff166391d14854600560009054906101000a900473ffffffffffffffffffffffffffffffffffffffff1673ffffffffffffffffffffffffffffffffffffffff166375b238fc6040518163ffffffff1660e01b815260040160206040518083038186803b158015612a3657600080fd5b505afa158015612a4a573d6000803e3d6000fd5b505050506040513d6020811015612a6057600080fd5b8101908080519060200190929190505050336040518363ffffffff1660e01b8152600401808381526020018273ffffffffffffffffffffffffffffffffffffffff1673ffffffffffffffffffffffffffffffffffffffff1681526020019250505060206040518083038186803b158015612ad957600080fd5b505afa158015612aed573d6000803e3d6000fd5b505050506040513d6020811015612b0357600080fd5b810190808051906020019092919050505080612c9f5750600560009054906101000a900473ffffffffffffffffffffffffffffffffffffffff1673ffffffffffffffffffffffffffffffffffffffff166391d14854600560009054906101000a900473ffffffffffffffffffffffffffffffffffffffff1673ffffffffffffffffffffffffffffffffffffffff16634db08aea6040518163ffffffff1660e01b815260040160206040518083038186803b158015612bc057600080fd5b505afa158015612bd4573d6000803e3d6000fd5b505050506040513d6020811015612bea57600080fd5b8101908080519060200190929190505050336040518363ffffffff1660e01b8152600401808381526020018273ffffffffffffffffffffffffffffffffffffffff1673ffffffffffffffffffffffffffffffffffffffff1681526020019250505060206040518083038186803b158015612c6357600080fd5b505afa158015612c77573d6000803e3d6000fd5b505050506040513d6020811015612c8d57600080fd5b81019080805190602001909291905050505b612d11576040517f08c379a00000000000000000000000000000000000000000000000000000000081526004018080602001828103825260028152602001807f453600000000000000000000000000000000000000000000000000000000000081525060200191505060405180910390fd5b600060405180807f72656a6563745265717565737400000000000000000000000000000000000000815250600d0190506040518091039020905060006060600460009054906101000a900473ffffffffffffffffffffffffffffffffffffffff1673ffffffffffffffffffffffffffffffffffffffff16637084424960096000898152602001908152602001600020600a01856040518363ffffffff1660e01b81526004018080602001838152602001828103825284818154600181600116156101000203166002900481526020019150805460018160011615610100020316600290048015612e425780601f10612e1757610100808354040283529160200191612e42565b820191906000526020600020905b815481529060010190602001808311612e2557829003601f168201915b5050935050505060006040518083038186803b158015612e6157600080fd5b505afa158015612e75573d6000803e3d6000fd5b505050506040513d6000823e3d601f19601f820116820180604052506040811015612e9f57600080fd5b810190808051906020019092919080516040519392919084640100000000821115612ec957600080fd5b83820191506020820185811115612edf57600080fd5b8251866001820283011164010000000082111715612efc57600080fd5b8083526020830192505050908051906020019080838360005b83811015612f30578082015181840152602081019050612f15565b50505050905090810190601f168015612f5d5780820380516001836020036101000a031916815260200191505b506040525050509150915081612fdb576040517f08c379a00000000000000000000000000000000000000000000000000000000081526004018080602001828103825260028152602001807f453700000000000000000000000000000000000000000000000000000000000081525060200191505060405180910390fd5b8060096000888152602001908152602001600020600a01908051906020019061300592919061b0fb565b508360096000888152602001908152602001600020600b01826040518082805190602001908083835b60208310613051578051825260208201915060208101905060208303925061302e565b6001836020036101000a0380198251168184511680821785525050505050509050019150509081526020016040518091039020819055508460096000888152602001908152602001600020600c0160008067ffffffffffffffff16815260200190815260200160002090805190602001906130cd92919061b0fb565b507f18e6968414f33702467961559c1912d6c91683d964cc4a3aa8944716773ed787868286604051808481526020018060200180602001848152602001838103835285818151815260200191508051906020019080838360005b83811015613142578082015181840152602081019050613127565b50505050905090810190601f16801561316f5780820380516001836020036101000a031916815260200191505b508381038252600d8152602001807f72656a65637452657175657374000000000000000000000000000000000000008152506020019550505050505060405180910390a1505050505050565b600560009054906101000a900473ffffffffffffffffffffffffffffffffffffffff1673ffffffffffffffffffffffffffffffffffffffff166391d14854600560009054906101000a900473ffffffffffffffffffffffffffffffffffffffff1673ffffffffffffffffffffffffffffffffffffffff166375b238fc6040518163ffffffff1660e01b815260040160206040518083038186803b15801561326157600080fd5b505afa158015613275573d6000803e3d6000fd5b505050506040513d602081101561328b57600080fd5b8101908080519060200190929190505050336040518363ffffffff1660e01b8152600401808381526020018273ffffffffffffffffffffffffffffffffffffffff1673ffffffffffffffffffffffffffffffffffffffff1681526020019250505060206040518083038186803b15801561330457600080fd5b505afa158015613318573d6000803e3d6000fd5b505050506040513d602081101561332e57600080fd5b81019080805190602001909291905050506133b1576040517f08c379a00000000000000000000000000000000000000000000000000000000081526004018080602001828103825260028152602001807f453000000000000000000000000000000000000000000000000000000000000081525060200191505060405180910390fd5b80600360006101000a81548173ffffffffffffffffffffffffffffffffffffffff021916908373ffffffffffffffffffffffffffffffffffffffff16021790555050565b600560009054906101000a900473ffffffffffffffffffffffffffffffffffffffff1673ffffffffffffffffffffffffffffffffffffffff166391d14854600560009054906101000a900473ffffffffffffffffffffffffffffffffffffffff1673ffffffffffffffffffffffffffffffffffffffff16634db08aea6040518163ffffffff1660e01b815260040160206040518083038186803b15801561349b57600080fd5b505afa1580156134af573d6000803e3d6000fd5b505050506040513d60208110156134c557600080fd5b8101908080519060200190929190505050336040518363ffffffff1660e01b8152600401808381526020018273ffffffffffffffffffffffffffffffffffffffff1673ffffffffffffffffffffffffffffffffffffffff1681526020019250505060206040518083038186803b15801561353e57600080fd5b505afa158015613552573d6000803e3d6000fd5b505050506040513d602081101561356857600080fd5b8101908080519060200190929190505050806137045750600560009054906101000a900473ffffffffffffffffffffffffffffffffffffffff1673ffffffffffffffffffffffffffffffffffffffff166391d14854600560009054906101000a900473ffffffffffffffffffffffffffffffffffffffff1673ffffffffffffffffffffffffffffffffffffffff166375b238fc6040518163ffffffff1660e01b815260040160206040518083038186803b15801561362557600080fd5b505afa158015613639573d6000803e3d6000fd5b505050506040513d602081101561364f57600080fd5b8101908080519060200190929190505050336040518363ffffffff1660e01b8152600401808381526020018273ffffffffffffffffffffffffffffffffffffffff1673ffffffffffffffffffffffffffffffffffffffff1681526020019250505060206040518083038186803b1580156136c857600080fd5b505afa1580156136dc573d6000803e3d6000fd5b505050506040513d60208110156136f257600080fd5b81019080805190602001909291905050505b613776576040517f08c379a00000000000000000000000000000000000000000000000000000000081526004018080602001828103825260038152602001807f453134000000000000000000000000000000000000000000000000000000000081525060200191505060405180910390fd5b6009600084815260200190815260200160002060030154821015613802576040517f08c379a00000000000000000000000000000000000000000000000000000000081526004018080602001828103825260038152602001807f453330000000000000000000000000000000000000000000000000000000000081525060200191505060405180910390fd5b600060405180807f616464547261646500000000000000000000000000000000000000000000000081525060080190506040518091039020905060006060600460009054906101000a900473ffffffffffffffffffffffffffffffffffffffff1673ffffffffffffffffffffffffffffffffffffffff16637084424960096000898152602001908152602001600020600a01856040518363ffffffff1660e01b815260040180806020018381526020018281038252848181546001816001161561010002031660029004815260200191508054600181600116156101000203166002900480156139335780601f1061390857610100808354040283529160200191613933565b820191906000526020600020905b81548152906001019060200180831161391657829003601f168201915b5050935050505060006040518083038186803b15801561395257600080fd5b505afa158015613966573d6000803e3d6000fd5b505050506040513d6000823e3d601f19601f82011682018060405250604081101561399057600080fd5b8101908080519060200190929190805160405193929190846401000000008211156139ba57600080fd5b838201915060208201858111156139d057600080fd5b82518660018202830111640100000000821117156139ed57600080fd5b8083526020830192505050908051906020019080838360005b83811015613a21578082015181840152602081019050613a06565b50505050905090810190601f168015613a4e5780820380516001836020036101000a031916815260200191505b506040525050509150915081613acc576040517f08c379a00000000000000000000000000000000000000000000000000000000081526004018080602001828103825260038152602001807f453135000000000000000000000000000000000000000000000000000000000081525060200191505060405180910390fd5b600015156000809054906101000a900473ffffffffffffffffffffffffffffffffffffffff1673ffffffffffffffffffffffffffffffffffffffff1663c70acf7a600960008a8152602001908152602001600020600201546040518263ffffffff1660e01b81526004018082815260200191505060206040518083038186803b158015613b5857600080fd5b505afa158015613b6c573d6000803e3d6000fd5b505050506040513d6020811015613b8257600080fd5b8101908080519060200190929190505050151514613c08576040517f08c379a00000000000000000000000000000000000000000000000000000000081526004018080602001828103825260038152602001807f453136000000000000000000000000000000000000000000000000000000000081525060200191505060405180910390fd5b60008060009054906101000a900473ffffffffffffffffffffffffffffffffffffffff1673ffffffffffffffffffffffffffffffffffffffff166308bb4a99600960008a815260200190815260200160002060020154600960008b815260200190815260200160002060000160009054906101000a900473ffffffffffffffffffffffffffffffffffffffff16898b8a6040518663ffffffff1660e01b8152600401808681526020018573ffffffffffffffffffffffffffffffffffffffff1673ffffffffffffffffffffffffffffffffffffffff16815260200184815260200183815260200182815260200195505050505050602060405180830381600087803b158015613d1657600080fd5b505af1158015613d2a573d6000803e3d6000fd5b505050506040513d6020811015613d4057600080fd5b810190808051906020019092919050505090508060096000898152602001908152602001600020600101819055508160096000898152602001908152602001600020600a019080519060200190613d9892919061b0fb565b508460096000898152602001908152602001600020600b01836040518082805190602001908083835b60208310613de45780518252602082019150602081019050602083039250613dc1565b6001836020036101000a0380198251168184511680821785525050505050509050019150509081526020016040518091039020819055507f18e6968414f33702467961559c1912d6c91683d964cc4a3aa8944716773ed787878387604051808481526020018060200180602001848152602001838103835285818151815260200191508051906020019080838360005b83811015613e8f578082015181840152602081019050613e74565b50505050905090810190601f168015613ebc5780820380516001836020036101000a031916815260200191505b50838103825260088152602001807f61646454726164650000000000000000000000000000000000000000000000008152506020019550505050505060405180910390a150505050505050565b600560009054906101000a900473ffffffffffffffffffffffffffffffffffffffff1673ffffffffffffffffffffffffffffffffffffffff166391d14854600560009054906101000a900473ffffffffffffffffffffffffffffffffffffffff1673ffffffffffffffffffffffffffffffffffffffff1663ef0fe2456040518163ffffffff1660e01b815260040160206040518083038186803b158015613faf57600080fd5b505afa158015613fc3573d6000803e3d6000fd5b505050506040513d6020811015613fd957600080fd5b8101908080519060200190929190505050336040518363ffffffff1660e01b8152600401808381526020018273ffffffffffffffffffffffffffffffffffffffff1673ffffffffffffffffffffffffffffffffffffffff1681526020019250505060206040518083038186803b15801561405257600080fd5b505afa158015614066573d6000803e3d6000fd5b505050506040513d602081101561407c57600080fd5b8101908080519060200190929190505050806142185750600560009054906101000a900473ffffffffffffffffffffffffffffffffffffffff1673ffffffffffffffffffffffffffffffffffffffff166391d14854600560009054906101000a900473ffffffffffffffffffffffffffffffffffffffff1673ffffffffffffffffffffffffffffffffffffffff166375b238fc6040518163ffffffff1660e01b815260040160206040518083038186803b15801561413957600080fd5b505afa15801561414d573d6000803e3d6000fd5b505050506040513d602081101561416357600080fd5b8101908080519060200190929190505050336040518363ffffffff1660e01b8152600401808381526020018273ffffffffffffffffffffffffffffffffffffffff1673ffffffffffffffffffffffffffffffffffffffff1681526020019250505060206040518083038186803b1580156141dc57600080fd5b505afa1580156141f0573d6000803e3d6000fd5b505050506040513d602081101561420657600080fd5b81019080805190602001909291905050505b806143a35750600560009054906101000a900473ffffffffffffffffffffffffffffffffffffffff1673ffffffffffffffffffffffffffffffffffffffff166391d14854600560009054906101000a900473ffffffffffffffffffffffffffffffffffffffff1673ffffffffffffffffffffffffffffffffffffffff1663e90524f26040518163ffffffff1660e01b815260040160206040518083038186803b1580156142c457600080fd5b505afa1580156142d8573d6000803e3d6000fd5b505050506040513d60208110156142ee57600080fd5b8101908080519060200190929190505050336040518363ffffffff1660e01b8152600401808381526020018273ffffffffffffffffffffffffffffffffffffffff1673ffffffffffffffffffffffffffffffffffffffff1681526020019250505060206040518083038186803b15801561436757600080fd5b505afa15801561437b573d6000803e3d6000fd5b505050506040513d602081101561439157600080fd5b81019080805190602001909291905050505b614415576040517f08c379a00000000000000000000000000000000000000000000000000000000081526004018080602001828103825260038152602001807f453239000000000000000000000000000000000000000000000000000000000081525060200191505060405180910390fd5b600260009054906101000a900473ffffffffffffffffffffffffffffffffffffffff1673ffffffffffffffffffffffffffffffffffffffff166323b872dd3033846040518463ffffffff1660e01b8152600401808473ffffffffffffffffffffffffffffffffffffffff1673ffffffffffffffffffffffffffffffffffffffff1681526020018373ffffffffffffffffffffffffffffffffffffffff1673ffffffffffffffffffffffffffffffffffffffff1681526020018281526020019350505050600060405180830381600087803b1580156144f257600080fd5b505af1158015614506573d6000803e3d6000fd5b5050505050565b600560009054906101000a900473ffffffffffffffffffffffffffffffffffffffff1673ffffffffffffffffffffffffffffffffffffffff166391d14854600560009054906101000a900473ffffffffffffffffffffffffffffffffffffffff1673ffffffffffffffffffffffffffffffffffffffff16634db08aea6040518163ffffffff1660e01b815260040160206040518083038186803b1580156145b357600080fd5b505afa1580156145c7573d6000803e3d6000fd5b505050506040513d60208110156145dd57600080fd5b8101908080519060200190929190505050336040518363ffffffff1660e01b8152600401808381526020018273ffffffffffffffffffffffffffffffffffffffff1673ffffffffffffffffffffffffffffffffffffffff1681526020019250505060206040518083038186803b15801561465657600080fd5b505afa15801561466a573d6000803e3d6000fd5b505050506040513d602081101561468057600080fd5b81019080805190602001909291905050508061481c5750600560009054906101000a900473ffffffffffffffffffffffffffffffffffffffff1673ffffffffffffffffffffffffffffffffffffffff166391d14854600560009054906101000a900473ffffffffffffffffffffffffffffffffffffffff1673ffffffffffffffffffffffffffffffffffffffff166375b238fc6040518163ffffffff1660e01b815260040160206040518083038186803b15801561473d57600080fd5b505afa158015614751573d6000803e3d6000fd5b505050506040513d602081101561476757600080fd5b8101908080519060200190929190505050336040518363ffffffff1660e01b8152600401808381526020018273ffffffffffffffffffffffffffffffffffffffff1673ffffffffffffffffffffffffffffffffffffffff1681526020019250505060206040518083038186803b1580156147e057600080fd5b505afa1580156147f4573d6000803e3d6000fd5b505050506040513d602081101561480a57600080fd5b81019080805190602001909291905050505b61488e576040517f08c379a00000000000000000000000000000000000000000000000000000000081526004018080602001828103825260038152602001807f453137000000000000000000000000000000000000000000000000000000000081525060200191505060405180910390fd5b600060405180807f63616e63656c5472616465000000000000000000000000000000000000000000815250600b0190506040518091039020905060006060600460009054906101000a900473ffffffffffffffffffffffffffffffffffffffff1673ffffffffffffffffffffffffffffffffffffffff16637084424960096000888152602001908152602001600020600a01856040518363ffffffff1660e01b815260040180806020018381526020018281038252848181546001816001161561010002031660029004815260200191508054600181600116156101000203166002900480156149bf5780601f10614994576101008083540402835291602001916149bf565b820191906000526020600020905b8154815290600101906020018083116149a257829003601f168201915b5050935050505060006040518083038186803b1580156149de57600080fd5b505afa1580156149f2573d6000803e3d6000fd5b505050506040513d6000823e3d601f19601f820116820180604052506040811015614a1c57600080fd5b810190808051906020019092919080516040519392919084640100000000821115614a4657600080fd5b83820191506020820185811115614a5c57600080fd5b8251866001820283011164010000000082111715614a7957600080fd5b8083526020830192505050908051906020019080838360005b83811015614aad578082015181840152602081019050614a92565b50505050905090810190601f168015614ada5780820380516001836020036101000a031916815260200191505b506040525050509150915081614b58576040517f08c379a00000000000000000000000000000000000000000000000000000000081526004018080602001828103825260038152602001807f453138000000000000000000000000000000000000000000000000000000000081525060200191505060405180910390fd5b6000809054906101000a900473ffffffffffffffffffffffffffffffffffffffff1673ffffffffffffffffffffffffffffffffffffffff16630b8b1caf60096000888152602001908152602001600020600101548660006040518463ffffffff1660e01b815260040180848152602001838152602001821515151581526020019350505050600060405180830381600087803b158015614bf757600080fd5b505af1158015614c0b573d6000803e3d6000fd5b505050508060096000878152602001908152602001600020600a019080519060200190614c3992919061b0fb565b508360096000878152602001908152602001600020600b01826040518082805190602001908083835b60208310614c855780518252602082019150602081019050602083039250614c62565b6001836020036101000a0380198251168184511680821785525050505050509050019150509081526020016040518091039020819055507f18e6968414f33702467961559c1912d6c91683d964cc4a3aa8944716773ed787858286604051808481526020018060200180602001848152602001838103835285818151815260200191508051906020019080838360005b83811015614d30578082015181840152602081019050614d15565b50505050905090810190601f168015614d5d5780820380516001836020036101000a031916815260200191505b508381038252600b8152602001807f63616e63656c54726164650000000000000000000000000000000000000000008152506020019550505050505060405180910390a15050505050565b600560009054906101000a900473ffffffffffffffffffffffffffffffffffffffff1673ffffffffffffffffffffffffffffffffffffffff166391d14854600560009054906101000a900473ffffffffffffffffffffffffffffffffffffffff1673ffffffffffffffffffffffffffffffffffffffff1663ef0fe2456040518163ffffffff1660e01b815260040160206040518083038186803b158015614e4e57600080fd5b505afa158015614e62573d6000803e3d6000fd5b505050506040513d6020811015614e7857600080fd5b8101908080519060200190929190505050336040518363ffffffff1660e01b8152600401808381526020018273ffffffffffffffffffffffffffffffffffffffff1673ffffffffffffffffffffffffffffffffffffffff1681526020019250505060206040518083038186803b158015614ef157600080fd5b505afa158015614f05573d6000803e3d6000fd5b505050506040513d6020811015614f1b57600080fd5b8101908080519060200190929190505050806150b75750600560009054906101000a900473ffffffffffffffffffffffffffffffffffffffff1673ffffffffffffffffffffffffffffffffffffffff166391d14854600560009054906101000a900473ffffffffffffffffffffffffffffffffffffffff1673ffffffffffffffffffffffffffffffffffffffff166375b238fc6040518163ffffffff1660e01b815260040160206040518083038186803b158015614fd857600080fd5b505afa158015614fec573d6000803e3d6000fd5b505050506040513d602081101561500257600080fd5b8101908080519060200190929190505050336040518363ffffffff1660e01b8152600401808381526020018273ffffffffffffffffffffffffffffffffffffffff1673ffffffffffffffffffffffffffffffffffffffff1681526020019250505060206040518083038186803b15801561507b57600080fd5b505afa15801561508f573d6000803e3d6000fd5b505050506040513d60208110156150a557600080fd5b81019080805190602001909291905050505b806152425750600560009054906101000a900473ffffffffffffffffffffffffffffffffffffffff1673ffffffffffffffffffffffffffffffffffffffff166391d14854600560009054906101000a900473ffffffffffffffffffffffffffffffffffffffff1673ffffffffffffffffffffffffffffffffffffffff1663e90524f26040518163ffffffff1660e01b815260040160206040518083038186803b15801561516357600080fd5b505afa158015615177573d6000803e3d6000fd5b505050506040513d602081101561518d57600080fd5b8101908080519060200190929190505050336040518363ffffffff1660e01b8152600401808381526020018273ffffffffffffffffffffffffffffffffffffffff1673ffffffffffffffffffffffffffffffffffffffff1681526020019250505060206040518083038186803b15801561520657600080fd5b505afa15801561521a573d6000803e3d6000fd5b505050506040513d602081101561523057600080fd5b81019080805190602001909291905050505b806152ae57506009600083815260200190815260200160002060000160009054906101000a900473ffffffffffffffffffffffffffffffffffffffff1673ffffffffffffffffffffffffffffffffffffffff163373ffffffffffffffffffffffffffffffffffffffff16145b615320576040517f08c379a00000000000000000000000000000000000000000000000000000000081526004018080602001828103825260038152602001807f453238000000000000000000000000000000000000000000000000000000000081525060200191505060405180910390fd5b6009600083815260200190815260200160002060030154600360009054906101000a900473ffffffffffffffffffffffffffffffffffffffff1673ffffffffffffffffffffffffffffffffffffffff166370a08231306040518263ffffffff1660e01b8152600401808273ffffffffffffffffffffffffffffffffffffffff1673ffffffffffffffffffffffffffffffffffffffff16815260200191505060206040518083038186803b1580156153d657600080fd5b505afa1580156153ea573d6000803e3d6000fd5b505050506040513d602081101561540057600080fd5b81019080805190602001909291905050501015615485576040517f08c379a00000000000000000000000000000000000000000000000000000000081526004018080602001828103825260038152602001807f453331000000000000000000000000000000000000000000000000000000000081525060200191505060405180910390fd5b600060405180807f757064617465494e565f636f6e6669726d00000000000000000000000000000081525060110190506040518091039020905060006060600460009054906101000a900473ffffffffffffffffffffffffffffffffffffffff1673ffffffffffffffffffffffffffffffffffffffff16637084424960096000888152602001908152602001600020600a01856040518363ffffffff1660e01b815260040180806020018381526020018281038252848181546001816001161561010002031660029004815260200191508054600181600116156101000203166002900480156155b65780601f1061558b576101008083540402835291602001916155b6565b820191906000526020600020905b81548152906001019060200180831161559957829003601f168201915b5050935050505060006040518083038186803b1580156155d557600080fd5b505afa1580156155e9573d6000803e3d6000fd5b505050506040513d6000823e3d601f19601f82011682018060405250604081101561561357600080fd5b81019080805190602001909291908051604051939291908464010000000082111561563d57600080fd5b8382019150602082018581111561565357600080fd5b825186600182028301116401000000008211171561567057600080fd5b8083526020830192505050908051906020019080838360005b838110156156a4578082015181840152602081019050615689565b50505050905090810190601f1680156156d15780820380516001836020036101000a031916815260200191505b50604052505050915091508161574f576040517f08c379a00000000000000000000000000000000000000000000000000000000081526004018080602001828103825260038152602001807f453239000000000000000000000000000000000000000000000000000000000081525060200191505060405180910390fd5b8060096000878152602001908152602001600020600a01908051906020019061577992919061b0fb565b508360096000878152602001908152602001600020600b01826040518082805190602001908083835b602083106157c557805182526020820191506020810190506020830392506157a2565b6001836020036101000a0380198251168184511680821785525050505050509050019150509081526020016040518091039020819055507f18e6968414f33702467961559c1912d6c91683d964cc4a3aa8944716773ed787858286604051808481526020018060200180602001848152602001838103835285818151815260200191508051906020019080838360005b83811015615870578082015181840152602081019050615855565b50505050905090810190601f16801561589d5780820380516001836020036101000a031916815260200191505b50838103825260118152602001807f757064617465494e565f636f6e6669726d0000000000000000000000000000008152506020019550505050505060405180910390a15050505050565b600a818051602081018201805184825260208301602085012081835280955050505050506000915054906101000a900460ff1681565b600061592861b1fb565b60096000848152602001908152602001600020604051806101600160405290816000820160009054906101000a900473ffffffffffffffffffffffffffffffffffffffff1673ffffffffffffffffffffffffffffffffffffffff1673ffffffffffffffffffffffffffffffffffffffff16815260200160018201548152602001600282015481526020016003820154815260200160048201548152602001600582018054600181600116156101000203166002900480601f016020809104026020016040519081016040528092919081815260200182805460018160011615610100020316600290048015615a5e5780601f10615a3357610100808354040283529160200191615a5e565b820191906000526020600020905b815481529060010190602001808311615a4157829003601f168201915b505050505081526020016006820160009054906101000a900460ff1660ff1660ff16815260200160078201548152602001600882018054600181600116156101000203166002900480601f016020809104026020016040519081016040528092919081815260200182805460018160011615610100020316600290048015615b275780601f10615afc57610100808354040283529160200191615b27565b820191906000526020600020905b815481529060010190602001808311615b0a57829003601f168201915b50505050508152602001600982018054600181600116156101000203166002900480601f016020809104026020016040519081016040528092919081815260200182805460018160011615610100020316600290048015615bc95780601f10615b9e57610100808354040283529160200191615bc9565b820191906000526020600020905b815481529060010190602001808311615bac57829003601f168201915b50505050508152602001600a82018054600181600116156101000203166002900480601f016020809104026020016040519081016040528092919081815260200182805460018160011615610100020316600290048015615c6b5780601f10615c4057610100808354040283529160200191615c6b565b820191906000526020600020905b815481529060010190602001808311615c4e57829003601f168201915b5050505050815250509050600560009054906101000a900473ffffffffffffffffffffffffffffffffffffffff1673ffffffffffffffffffffffffffffffffffffffff166391d14854600560009054906101000a900473ffffffffffffffffffffffffffffffffffffffff1673ffffffffffffffffffffffffffffffffffffffff166325270f176040518163ffffffff1660e01b815260040160206040518083038186803b158015615d1c57600080fd5b505afa158015615d30573d6000803e3d6000fd5b505050506040513d6020811015615d4657600080fd5b8101908080519060200190929190505050336040518363ffffffff1660e01b8152600401808381526020018273ffffffffffffffffffffffffffffffffffffffff1673ffffffffffffffffffffffffffffffffffffffff1681526020019250505060206040518083038186803b158015615dbf57600080fd5b505afa158015615dd3573d6000803e3d6000fd5b505050506040513d6020811015615de957600080fd5b810190808051906020019092919050505080615f855750600560009054906101000a900473ffffffffffffffffffffffffffffffffffffffff1673ffffffffffffffffffffffffffffffffffffffff166391d14854600560009054906101000a900473ffffffffffffffffffffffffffffffffffffffff1673ffffffffffffffffffffffffffffffffffffffff16634d5e07fb6040518163ffffffff1660e01b815260040160206040518083038186803b158015615ea657600080fd5b505afa158015615eba573d6000803e3d6000fd5b505050506040513d6020811015615ed057600080fd5b8101908080519060200190929190505050336040518363ffffffff1660e01b8152600401808381526020018273ffffffffffffffffffffffffffffffffffffffff1673ffffffffffffffffffffffffffffffffffffffff1681526020019250505060206040518083038186803b158015615f4957600080fd5b505afa158015615f5d573d6000803e3d6000fd5b505050506040513d6020811015615f7357600080fd5b81019080805190602001909291905050505b615ff7576040517f08c379a00000000000000000000000000000000000000000000000000000000081526004018080602001828103825260028152602001807f453000000000000000000000000000000000000000000000000000000000000081525060200191505060405180910390fd5b8060600151915050919050565b600560009054906101000a900473ffffffffffffffffffffffffffffffffffffffff1673ffffffffffffffffffffffffffffffffffffffff166391d14854600560009054906101000a900473ffffffffffffffffffffffffffffffffffffffff1673ffffffffffffffffffffffffffffffffffffffff166375b238fc6040518163ffffffff1660e01b815260040160206040518083038186803b1580156160aa57600080fd5b505afa1580156160be573d6000803e3d6000fd5b505050506040513d60208110156160d457600080fd5b8101908080519060200190929190505050336040518363ffffffff1660e01b8152600401808381526020018273ffffffffffffffffffffffffffffffffffffffff1673ffffffffffffffffffffffffffffffffffffffff1681526020019250505060206040518083038186803b15801561614d57600080fd5b505afa158015616161573d6000803e3d6000fd5b505050506040513d602081101561617757600080fd5b81019080805190602001909291905050506161fa576040517f08c379a00000000000000000000000000000000000000000000000000000000081526004018080602001828103825260028152602001807f453000000000000000000000000000000000000000000000000000000000000081525060200191505060405180910390fd5b80600460006101000a81548173ffffffffffffffffffffffffffffffffffffffff021916908373ffffffffffffffffffffffffffffffffffffffff16021790555050565b6000806000806000809054906101000a900473ffffffffffffffffffffffffffffffffffffffff16600160009054906101000a900473ffffffffffffffffffffffffffffffffffffffff16600360009054906101000a900473ffffffffffffffffffffffffffffffffffffffff16600460009054906101000a900473ffffffffffffffffffffffffffffffffffffffff16935093509350935090919293565b600560009054906101000a900473ffffffffffffffffffffffffffffffffffffffff1673ffffffffffffffffffffffffffffffffffffffff166391d14854600560009054906101000a900473ffffffffffffffffffffffffffffffffffffffff1673ffffffffffffffffffffffffffffffffffffffff1663ef0fe2456040518163ffffffff1660e01b815260040160206040518083038186803b15801561638357600080fd5b505afa158015616397573d6000803e3d6000fd5b505050506040513d60208110156163ad57600080fd5b8101908080519060200190929190505050336040518363ffffffff1660e01b8152600401808381526020018273ffffffffffffffffffffffffffffffffffffffff1673ffffffffffffffffffffffffffffffffffffffff1681526020019250505060206040518083038186803b15801561642657600080fd5b505afa15801561643a573d6000803e3d6000fd5b505050506040513d602081101561645057600080fd5b8101908080519060200190929190505050806165ec5750600560009054906101000a900473ffffffffffffffffffffffffffffffffffffffff1673ffffffffffffffffffffffffffffffffffffffff166391d14854600560009054906101000a900473ffffffffffffffffffffffffffffffffffffffff1673ffffffffffffffffffffffffffffffffffffffff166375b238fc6040518163ffffffff1660e01b815260040160206040518083038186803b15801561650d57600080fd5b505afa158015616521573d6000803e3d6000fd5b505050506040513d602081101561653757600080fd5b8101908080519060200190929190505050336040518363ffffffff1660e01b8152600401808381526020018273ffffffffffffffffffffffffffffffffffffffff1673ffffffffffffffffffffffffffffffffffffffff1681526020019250505060206040518083038186803b1580156165b057600080fd5b505afa1580156165c4573d6000803e3d6000fd5b505050506040513d60208110156165da57600080fd5b81019080805190602001909291905050505b8061665857506009600084815260200190815260200160002060000160009054906101000a900473ffffffffffffffffffffffffffffffffffffffff1673ffffffffffffffffffffffffffffffffffffffff163373ffffffffffffffffffffffffffffffffffffffff16145b6166ca576040517f08c379a00000000000000000000000000000000000000000000000000000000081526004018080602001828103825260038152602001807f453233000000000000000000000000000000000000000000000000000000000081525060200191505060405180910390fd5b6009600084815260200190815260200160002060030154600360009054906101000a900473ffffffffffffffffffffffffffffffffffffffff1673ffffffffffffffffffffffffffffffffffffffff166370a08231306040518263ffffffff1660e01b8152600401808273ffffffffffffffffffffffffffffffffffffffff1673ffffffffffffffffffffffffffffffffffffffff16815260200191505060206040518083038186803b15801561678057600080fd5b505afa158015616794573d6000803e3d6000fd5b505050506040513d60208110156167aa57600080fd5b8101908080519060200190929190505050101561682f576040517f08c379a00000000000000000000000000000000000000000000000000000000081526004018080602001828103825260038152602001807f453331000000000000000000000000000000000000000000000000000000000081525060200191505060405180910390fd5b600060405180807f757064617465494e565f736574746c6555524c0000000000000000000000000081525060130190506040518091039020905060006060600460009054906101000a900473ffffffffffffffffffffffffffffffffffffffff1673ffffffffffffffffffffffffffffffffffffffff16637084424960096000898152602001908152602001600020600a01856040518363ffffffff1660e01b815260040180806020018381526020018281038252848181546001816001161561010002031660029004815260200191508054600181600116156101000203166002900480156169605780601f1061693557610100808354040283529160200191616960565b820191906000526020600020905b81548152906001019060200180831161694357829003601f168201915b5050935050505060006040518083038186803b15801561697f57600080fd5b505afa158015616993573d6000803e3d6000fd5b505050506040513d6000823e3d601f19601f8201168201806040525060408110156169bd57600080fd5b8101908080519060200190929190805160405193929190846401000000008211156169e757600080fd5b838201915060208201858111156169fd57600080fd5b8251866001820283011164010000000082111715616a1a57600080fd5b8083526020830192505050908051906020019080838360005b83811015616a4e578082015181840152602081019050616a33565b50505050905090810190601f168015616a7b5780820380516001836020036101000a031916815260200191505b506040525050509150915081616af9576040517f08c379a00000000000000000000000000000000000000000000000000000000081526004018080602001828103825260038152602001807f453234000000000000000000000000000000000000000000000000000000000081525060200191505060405180910390fd5b84600960008881526020019081526020016000206008019080519060200190616b2392919061b0fb565b508060096000888152602001908152602001600020600a019080519060200190616b4e92919061b0fb565b508360096000888152602001908152602001600020600b01826040518082805190602001908083835b60208310616b9a5780518252602082019150602081019050602083039250616b77565b6001836020036101000a0380198251168184511680821785525050505050509050019150509081526020016040518091039020819055507f18e6968414f33702467961559c1912d6c91683d964cc4a3aa8944716773ed787868286604051808481526020018060200180602001848152602001838103835285818151815260200191508051906020019080838360005b83811015616c45578082015181840152602081019050616c2a565b50505050905090810190601f168015616c725780820380516001836020036101000a031916815260200191505b50838103825260138152602001807f757064617465494e565f736574746c6555524c000000000000000000000000008152506020019550505050505060405180910390a1505050505050565b600560009054906101000a900473ffffffffffffffffffffffffffffffffffffffff1673ffffffffffffffffffffffffffffffffffffffff166391d14854600560009054906101000a900473ffffffffffffffffffffffffffffffffffffffff1673ffffffffffffffffffffffffffffffffffffffff1663ef0fe2456040518163ffffffff1660e01b815260040160206040518083038186803b158015616d6457600080fd5b505afa158015616d78573d6000803e3d6000fd5b505050506040513d6020811015616d8e57600080fd5b8101908080519060200190929190505050336040518363ffffffff1660e01b8152600401808381526020018273ffffffffffffffffffffffffffffffffffffffff1673ffffffffffffffffffffffffffffffffffffffff1681526020019250505060206040518083038186803b158015616e0757600080fd5b505afa158015616e1b573d6000803e3d6000fd5b505050506040513d6020811015616e3157600080fd5b810190808051906020019092919050505080616fcd5750600560009054906101000a900473ffffffffffffffffffffffffffffffffffffffff1673ffffffffffffffffffffffffffffffffffffffff166391d14854600560009054906101000a900473ffffffffffffffffffffffffffffffffffffffff1673ffffffffffffffffffffffffffffffffffffffff166375b238fc6040518163ffffffff1660e01b815260040160206040518083038186803b158015616eee57600080fd5b505afa158015616f02573d6000803e3d6000fd5b505050506040513d6020811015616f1857600080fd5b8101908080519060200190929190505050336040518363ffffffff1660e01b8152600401808381526020018273ffffffffffffffffffffffffffffffffffffffff1673ffffffffffffffffffffffffffffffffffffffff1681526020019250505060206040518083038186803b158015616f9157600080fd5b505afa158015616fa5573d6000803e3d6000fd5b505050506040513d6020811015616fbb57600080fd5b81019080805190602001909291905050505b61703f576040517f08c379a00000000000000000000000000000000000000000000000000000000081526004018080602001828103825260038152602001807f453235000000000000000000000000000000000000000000000000000000000081525060200191505060405180910390fd5b6009600084815260200190815260200160002060030154600360009054906101000a900473ffffffffffffffffffffffffffffffffffffffff1673ffffffffffffffffffffffffffffffffffffffff166370a08231306040518263ffffffff1660e01b8152600401808273ffffffffffffffffffffffffffffffffffffffff1673ffffffffffffffffffffffffffffffffffffffff16815260200191505060206040518083038186803b1580156170f557600080fd5b505afa158015617109573d6000803e3d6000fd5b505050506040513d602081101561711f57600080fd5b810190808051906020019092919050505010156171a4576040517f08c379a00000000000000000000000000000000000000000000000000000000081526004018080602001828103825260038152602001807f453331000000000000000000000000000000000000000000000000000000000081525060200191505060405180910390fd5b600060405180807f757064617465494e565f7061796d656e7455524c00000000000000000000000081525060140190506040518091039020905060006060600460009054906101000a900473ffffffffffffffffffffffffffffffffffffffff1673ffffffffffffffffffffffffffffffffffffffff16637084424960096000898152602001908152602001600020600a01856040518363ffffffff1660e01b815260040180806020018381526020018281038252848181546001816001161561010002031660029004815260200191508054600181600116156101000203166002900480156172d55780601f106172aa576101008083540402835291602001916172d5565b820191906000526020600020905b8154815290600101906020018083116172b857829003601f168201915b5050935050505060006040518083038186803b1580156172f457600080fd5b505afa158015617308573d6000803e3d6000fd5b505050506040513d6000823e3d601f19601f82011682018060405250604081101561733257600080fd5b81019080805190602001909291908051604051939291908464010000000082111561735c57600080fd5b8382019150602082018581111561737257600080fd5b825186600182028301116401000000008211171561738f57600080fd5b8083526020830192505050908051906020019080838360005b838110156173c35780820151818401526020810190506173a8565b50505050905090810190601f1680156173f05780820380516001836020036101000a031916815260200191505b50604052505050915091508161746e576040517f08c379a00000000000000000000000000000000000000000000000000000000081526004018080602001828103825260038152602001807f453236000000000000000000000000000000000000000000000000000000000081525060200191505060405180910390fd5b8460096000888152602001908152602001600020600901908051906020019061749892919061b0fb565b508060096000888152602001908152602001600020600a0190805190602001906174c392919061b0fb565b508360096000888152602001908152602001600020600b01826040518082805190602001908083835b6020831061750f57805182526020820191506020810190506020830392506174ec565b6001836020036101000a0380198251168184511680821785525050505050509050019150509081526020016040518091039020819055507f18e6968414f33702467961559c1912d6c91683d964cc4a3aa8944716773ed787868286604051808481526020018060200180602001848152602001838103835285818151815260200191508051906020019080838360005b838110156175ba57808201518184015260208101905061759f565b50505050905090810190601f1680156175e75780820380516001836020036101000a031916815260200191505b50838103825260138152602001807f757064617465494e565f736574746c6555524c000000000000000000000000008152506020019550505050505060405180910390a1505050505050565b600560009054906101000a900473ffffffffffffffffffffffffffffffffffffffff1673ffffffffffffffffffffffffffffffffffffffff166391d14854600560009054906101000a900473ffffffffffffffffffffffffffffffffffffffff1673ffffffffffffffffffffffffffffffffffffffff16634db08aea6040518163ffffffff1660e01b815260040160206040518083038186803b1580156176d957600080fd5b505afa1580156176ed573d6000803e3d6000fd5b505050506040513d602081101561770357600080fd5b8101908080519060200190929190505050336040518363ffffffff1660e01b8152600401808381526020018273ffffffffffffffffffffffffffffffffffffffff1673ffffffffffffffffffffffffffffffffffffffff1681526020019250505060206040518083038186803b15801561777c57600080fd5b505afa158015617790573d6000803e3d6000fd5b505050506040513d60208110156177a657600080fd5b8101908080519060200190929190505050806179425750600560009054906101000a900473ffffffffffffffffffffffffffffffffffffffff1673ffffffffffffffffffffffffffffffffffffffff166391d14854600560009054906101000a900473ffffffffffffffffffffffffffffffffffffffff1673ffffffffffffffffffffffffffffffffffffffff166375b238fc6040518163ffffffff1660e01b815260040160206040518083038186803b15801561786357600080fd5b505afa158015617877573d6000803e3d6000fd5b505050506040513d602081101561788d57600080fd5b8101908080519060200190929190505050336040518363ffffffff1660e01b8152600401808381526020018273ffffffffffffffffffffffffffffffffffffffff1673ffffffffffffffffffffffffffffffffffffffff1681526020019250505060206040518083038186803b15801561790657600080fd5b505afa15801561791a573d6000803e3d6000fd5b505050506040513d602081101561793057600080fd5b81019080805190602001909291905050505b6179b4576040517f08c379a00000000000000000000000000000000000000000000000000000000081526004018080602001828103825260038152602001807f453132000000000000000000000000000000000000000000000000000000000081525060200191505060405180910390fd5b600060405180807f63616e63656c4f72646572000000000000000000000000000000000000000000815250600b0190506040518091039020905060006060600460009054906101000a900473ffffffffffffffffffffffffffffffffffffffff1673ffffffffffffffffffffffffffffffffffffffff16637084424960096000888152602001908152602001600020600a01856040518363ffffffff1660e01b81526004018080602001838152602001828103825284818154600181600116156101000203166002900481526020019150805460018160011615610100020316600290048015617ae55780601f10617aba57610100808354040283529160200191617ae5565b820191906000526020600020905b815481529060010190602001808311617ac857829003601f168201915b5050935050505060006040518083038186803b158015617b0457600080fd5b505afa158015617b18573d6000803e3d6000fd5b505050506040513d6000823e3d601f19601f820116820180604052506040811015617b4257600080fd5b810190808051906020019092919080516040519392919084640100000000821115617b6c57600080fd5b83820191506020820185811115617b8257600080fd5b8251866001820283011164010000000082111715617b9f57600080fd5b8083526020830192505050908051906020019080838360005b83811015617bd3578082015181840152602081019050617bb8565b50505050905090810190601f168015617c005780820380516001836020036101000a031916815260200191505b506040525050509150915081617c7e576040517f08c379a00000000000000000000000000000000000000000000000000000000081526004018080602001828103825260038152602001807f453133000000000000000000000000000000000000000000000000000000000081525060200191505060405180910390fd5b6000600960008781526020019081526020016000206002015490506000809054906101000a900473ffffffffffffffffffffffffffffffffffffffff1673ffffffffffffffffffffffffffffffffffffffff1663c70acf7a60096000898152602001908152602001600020600201546040518263ffffffff1660e01b81526004018082815260200191505060206040518083038186803b158015617d2157600080fd5b505afa158015617d35573d6000803e3d6000fd5b505050506040513d6020811015617d4b57600080fd5b810190808051906020019092919050505015617e1d576000809054906101000a900473ffffffffffffffffffffffffffffffffffffffff1673ffffffffffffffffffffffffffffffffffffffff16630b8b1caf60096000898152602001908152602001600020600101548760016040518463ffffffff1660e01b815260040180848152602001838152602001821515151581526020019350505050600060405180830381600087803b158015617e0057600080fd5b505af1158015617e14573d6000803e3d6000fd5b50505050617f49565b600260009054906101000a900473ffffffffffffffffffffffffffffffffffffffff1673ffffffffffffffffffffffffffffffffffffffff166323b872dd30600960008a815260200190815260200160002060000160009054906101000a900473ffffffffffffffffffffffffffffffffffffffff16846040518463ffffffff1660e01b8152600401808473ffffffffffffffffffffffffffffffffffffffff1673ffffffffffffffffffffffffffffffffffffffff1681526020018373ffffffffffffffffffffffffffffffffffffffff1673ffffffffffffffffffffffffffffffffffffffff1681526020018281526020019350505050600060405180830381600087803b158015617f3057600080fd5b505af1158015617f44573d6000803e3d6000fd5b505050505b6000600b600083815260200190815260200160002060006101000a81548160ff0219169083151502179055508160096000888152602001908152602001600020600a019080519060200190617f9f92919061b0fb565b508460096000888152602001908152602001600020600b01836040518082805190602001908083835b60208310617feb5780518252602082019150602081019050602083039250617fc8565b6001836020036101000a0380198251168184511680821785525050505050509050019150509081526020016040518091039020819055507f18e6968414f33702467961559c1912d6c91683d964cc4a3aa8944716773ed787868387604051808481526020018060200180602001848152602001838103835285818151815260200191508051906020019080838360005b8381101561809657808201518184015260208101905061807b565b50505050905090810190601f1680156180c35780820380516001836020036101000a031916815260200191505b508381038252600b8152602001807f63616e63656c4f726465720000000000000000000000000000000000000000008152506020019550505050505060405180910390a1505050505050565b6000600161811d600861b0d7565b03905090565b60008060008060006060600080606080606061813d61b1fb565b600960008e8152602001908152602001600020604051806101600160405290816000820160009054906101000a900473ffffffffffffffffffffffffffffffffffffffff1673ffffffffffffffffffffffffffffffffffffffff1673ffffffffffffffffffffffffffffffffffffffff16815260200160018201548152602001600282015481526020016003820154815260200160048201548152602001600582018054600181600116156101000203166002900480601f0160208091040260200160405190810160405280929190818152602001828054600181600116156101000203166002900480156182735780601f1061824857610100808354040283529160200191618273565b820191906000526020600020905b81548152906001019060200180831161825657829003601f168201915b505050505081526020016006820160009054906101000a900460ff1660ff1660ff16815260200160078201548152602001600882018054600181600116156101000203166002900480601f01602080910402602001604051908101604052809291908181526020018280546001816001161561010002031660029004801561833c5780601f106183115761010080835404028352916020019161833c565b820191906000526020600020905b81548152906001019060200180831161831f57829003601f168201915b50505050508152602001600982018054600181600116156101000203166002900480601f0160208091040260200160405190810160405280929190818152602001828054600181600116156101000203166002900480156183de5780601f106183b3576101008083540402835291602001916183de565b820191906000526020600020905b8154815290600101906020018083116183c157829003601f168201915b50505050508152602001600a82018054600181600116156101000203166002900480601f0160208091040260200160405190810160405280929190818152602001828054600181600116156101000203166002900480156184805780601f1061845557610100808354040283529160200191618480565b820191906000526020600020905b81548152906001019060200180831161846357829003601f168201915b5050505050815250509050600560009054906101000a900473ffffffffffffffffffffffffffffffffffffffff1673ffffffffffffffffffffffffffffffffffffffff166391d14854600560009054906101000a900473ffffffffffffffffffffffffffffffffffffffff1673ffffffffffffffffffffffffffffffffffffffff166325270f176040518163ffffffff1660e01b815260040160206040518083038186803b15801561853157600080fd5b505afa158015618545573d6000803e3d6000fd5b505050506040513d602081101561855b57600080fd5b8101908080519060200190929190505050336040518363ffffffff1660e01b8152600401808381526020018273ffffffffffffffffffffffffffffffffffffffff1673ffffffffffffffffffffffffffffffffffffffff1681526020019250505060206040518083038186803b1580156185d457600080fd5b505afa1580156185e8573d6000803e3d6000fd5b505050506040513d60208110156185fe57600080fd5b8101908080519060200190929190505050618681576040517f08c379a00000000000000000000000000000000000000000000000000000000081526004018080602001828103825260028152602001807f453000000000000000000000000000000000000000000000000000000000000081525060200191505060405180910390fd5b806000015181602001518260400151836060015184608001518560a001518660c001518760e001518861010001518961012001518a61014001518595508292508191508090509b509b509b509b509b509b509b509b509b509b509b505091939597999b90929496989a50565b600560009054906101000a900473ffffffffffffffffffffffffffffffffffffffff1673ffffffffffffffffffffffffffffffffffffffff166391d14854600560009054906101000a900473ffffffffffffffffffffffffffffffffffffffff1673ffffffffffffffffffffffffffffffffffffffff16634db08aea6040518163ffffffff1660e01b815260040160206040518083038186803b15801561879357600080fd5b505afa1580156187a7573d6000803e3d6000fd5b505050506040513d60208110156187bd57600080fd5b8101908080519060200190929190505050336040518363ffffffff1660e01b8152600401808381526020018273ffffffffffffffffffffffffffffffffffffffff1673ffffffffffffffffffffffffffffffffffffffff1681526020019250505060206040518083038186803b15801561883657600080fd5b505afa15801561884a573d6000803e3d6000fd5b505050506040513d602081101561886057600080fd5b8101908080519060200190929190505050806189fc5750600560009054906101000a900473ffffffffffffffffffffffffffffffffffffffff1673ffffffffffffffffffffffffffffffffffffffff166391d14854600560009054906101000a900473ffffffffffffffffffffffffffffffffffffffff1673ffffffffffffffffffffffffffffffffffffffff166375b238fc6040518163ffffffff1660e01b815260040160206040518083038186803b15801561891d57600080fd5b505afa158015618931573d6000803e3d6000fd5b505050506040513d602081101561894757600080fd5b8101908080519060200190929190505050336040518363ffffffff1660e01b8152600401808381526020018273ffffffffffffffffffffffffffffffffffffffff1673ffffffffffffffffffffffffffffffffffffffff1681526020019250505060206040518083038186803b1580156189c057600080fd5b505afa1580156189d4573d6000803e3d6000fd5b505050506040513d60208110156189ea57600080fd5b81019080805190602001909291905050505b80618a6857506009600083815260200190815260200160002060000160009054906101000a900473ffffffffffffffffffffffffffffffffffffffff1673ffffffffffffffffffffffffffffffffffffffff163373ffffffffffffffffffffffffffffffffffffffff16145b618ada576040517f08c379a00000000000000000000000000000000000000000000000000000000081526004018080602001828103825260028152602001807f453800000000000000000000000000000000000000000000000000000000000081525060200191505060405180910390fd5b600060405180807f63616e63656c5265717565737400000000000000000000000000000000000000815250600d0190506040518091039020905060006060600460009054906101000a900473ffffffffffffffffffffffffffffffffffffffff1673ffffffffffffffffffffffffffffffffffffffff16637084424960096000888152602001908152602001600020600a01856040518363ffffffff1660e01b81526004018080602001838152602001828103825284818154600181600116156101000203166002900481526020019150805460018160011615610100020316600290048015618c0b5780601f10618be057610100808354040283529160200191618c0b565b820191906000526020600020905b815481529060010190602001808311618bee57829003601f168201915b5050935050505060006040518083038186803b158015618c2a57600080fd5b505afa158015618c3e573d6000803e3d6000fd5b505050506040513d6000823e3d601f19601f820116820180604052506040811015618c6857600080fd5b810190808051906020019092919080516040519392919084640100000000821115618c9257600080fd5b83820191506020820185811115618ca857600080fd5b8251866001820283011164010000000082111715618cc557600080fd5b8083526020830192505050908051906020019080838360005b83811015618cf9578082015181840152602081019050618cde565b50505050905090810190601f168015618d265780820380516001836020036101000a031916815260200191505b506040525050509150915081618da4576040517f08c379a00000000000000000000000000000000000000000000000000000000081526004018080602001828103825260028152602001807f453900000000000000000000000000000000000000000000000000000000000081525060200191505060405180910390fd5b8060096000878152602001908152602001600020600a019080519060200190618dce92919061b0fb565b508360096000878152602001908152602001600020600b01826040518082805190602001908083835b60208310618e1a5780518252602082019150602081019050602083039250618df7565b6001836020036101000a0380198251168184511680821785525050505050509050019150509081526020016040518091039020819055506000600b60006009600089815260200190815260200160002060020154815260200190815260200160002060006101000a81548160ff0219169083151502179055507f18e6968414f33702467961559c1912d6c91683d964cc4a3aa8944716773ed787858286604051808481526020018060200180602001848152602001838103835285818151815260200191508051906020019080838360005b83811015618f07578082015181840152602081019050618eec565b50505050905090810190601f168015618f345780820380516001836020036101000a031916815260200191505b508381038252600d8152602001807f63616e63656c52657175657374000000000000000000000000000000000000008152506020019550505050505060405180910390a15050505050565b600560009054906101000a900473ffffffffffffffffffffffffffffffffffffffff1673ffffffffffffffffffffffffffffffffffffffff166391d14854600560009054906101000a900473ffffffffffffffffffffffffffffffffffffffff1673ffffffffffffffffffffffffffffffffffffffff16634db08aea6040518163ffffffff1660e01b815260040160206040518083038186803b15801561902557600080fd5b505afa158015619039573d6000803e3d6000fd5b505050506040513d602081101561904f57600080fd5b8101908080519060200190929190505050336040518363ffffffff1660e01b8152600401808381526020018273ffffffffffffffffffffffffffffffffffffffff1673ffffffffffffffffffffffffffffffffffffffff1681526020019250505060206040518083038186803b1580156190c857600080fd5b505afa1580156190dc573d6000803e3d6000fd5b505050506040513d60208110156190f257600080fd5b81019080805190602001909291905050508061928e5750600560009054906101000a900473ffffffffffffffffffffffffffffffffffffffff1673ffffffffffffffffffffffffffffffffffffffff166391d14854600560009054906101000a900473ffffffffffffffffffffffffffffffffffffffff1673ffffffffffffffffffffffffffffffffffffffff166375b238fc6040518163ffffffff1660e01b815260040160206040518083038186803b1580156191af57600080fd5b505afa1580156191c3573d6000803e3d6000fd5b505050506040513d60208110156191d957600080fd5b8101908080519060200190929190505050336040518363ffffffff1660e01b8152600401808381526020018273ffffffffffffffffffffffffffffffffffffffff1673ffffffffffffffffffffffffffffffffffffffff1681526020019250505060206040518083038186803b15801561925257600080fd5b505afa158015619266573d6000803e3d6000fd5b505050506040513d602081101561927c57600080fd5b81019080805190602001909291905050505b619300576040517f08c379a00000000000000000000000000000000000000000000000000000000081526004018080602001828103825260038152602001807f453130000000000000000000000000000000000000000000000000000000000081525060200191505060405180910390fd5b600960008581526020019081526020016000206003015483101561938c576040517f08c379a00000000000000000000000000000000000000000000000000000000081526004018080602001828103825260038152602001807f453330000000000000000000000000000000000000000000000000000000000081525060200191505060405180910390fd5b600060405180807f6163636570745265717565737400000000000000000000000000000000000000815250600d0190506040518091039020905060006060600460009054906101000a900473ffffffffffffffffffffffffffffffffffffffff1673ffffffffffffffffffffffffffffffffffffffff166370844249600960008a8152602001908152602001600020600a01856040518363ffffffff1660e01b815260040180806020018381526020018281038252848181546001816001161561010002031660029004815260200191508054600181600116156101000203166002900480156194bd5780601f10619492576101008083540402835291602001916194bd565b820191906000526020600020905b8154815290600101906020018083116194a057829003601f168201915b5050935050505060006040518083038186803b1580156194dc57600080fd5b505afa1580156194f0573d6000803e3d6000fd5b505050506040513d6000823e3d601f19601f82011682018060405250604081101561951a57600080fd5b81019080805190602001909291908051604051939291908464010000000082111561954457600080fd5b8382019150602082018581111561955a57600080fd5b825186600182028301116401000000008211171561957757600080fd5b8083526020830192505050908051906020019080838360005b838110156195ab578082015181840152602081019050619590565b50505050905090810190601f1680156195d85780820380516001836020036101000a031916815260200191505b506040525050509150915081619656576040517f08c379a00000000000000000000000000000000000000000000000000000000081526004018080602001828103825260038152602001807f453131000000000000000000000000000000000000000000000000000000000081525060200191505060405180910390fd5b61965e61b1fb565b60096000898152602001908152602001600020604051806101600160405290816000820160009054906101000a900473ffffffffffffffffffffffffffffffffffffffff1673ffffffffffffffffffffffffffffffffffffffff1673ffffffffffffffffffffffffffffffffffffffff16815260200160018201548152602001600282015481526020016003820154815260200160048201548152602001600582018054600181600116156101000203166002900480601f0160208091040260200160405190810160405280929190818152602001828054600181600116156101000203166002900480156197945780601f1061976957610100808354040283529160200191619794565b820191906000526020600020905b81548152906001019060200180831161977757829003601f168201915b505050505081526020016006820160009054906101000a900460ff1660ff1660ff16815260200160078201548152602001600882018054600181600116156101000203166002900480601f01602080910402602001604051908101604052809291908181526020018280546001816001161561010002031660029004801561985d5780601f106198325761010080835404028352916020019161985d565b820191906000526020600020905b81548152906001019060200180831161984057829003601f168201915b50505050508152602001600982018054600181600116156101000203166002900480601f0160208091040260200160405190810160405280929190818152602001828054600181600116156101000203166002900480156198ff5780601f106198d4576101008083540402835291602001916198ff565b820191906000526020600020905b8154815290600101906020018083116198e257829003601f168201915b50505050508152602001600a82018054600181600116156101000203166002900480601f0160208091040260200160405190810160405280929190818152602001828054600181600116156101000203166002900480156199a15780601f10619976576101008083540402835291602001916199a1565b820191906000526020600020905b81548152906001019060200180831161998457829003601f168201915b505050505081525050905081600960008a8152602001908152602001600020600a0190805190602001906199d692919061b0fb565b5084600960008a8152602001908152602001600020600b01836040518082805190602001908083835b60208310619a2257805182526020820191506020810190506020830392506199ff565b6001836020036101000a0380198251168184511680821785525050505050509050019150509081526020016040518091039020819055507f18e6968414f33702467961559c1912d6c91683d964cc4a3aa8944716773ed787888387604051808481526020018060200180602001848152602001838103835285818151815260200191508051906020019080838360005b83811015619acd578082015181840152602081019050619ab2565b50505050905090810190601f168015619afa5780820380516001836020036101000a031916815260200191505b508381038252600d8152602001807f61636365707452657175657374000000000000000000000000000000000000008152506020019550505050505060405180910390a18515619c685760008060009054906101000a900473ffffffffffffffffffffffffffffffffffffffff1673ffffffffffffffffffffffffffffffffffffffff166308bb4a99836040015184600001518b8d8b6040518663ffffffff1660e01b8152600401808681526020018573ffffffffffffffffffffffffffffffffffffffff1673ffffffffffffffffffffffffffffffffffffffff16815260200184815260200183815260200182815260200195505050505050602060405180830381600087803b158015619c0e57600080fd5b505af1158015619c22573d6000803e3d6000fd5b505050506040513d6020811015619c3857600080fd5b8101908080519060200190929190505050905080600960008b815260200190815260200160002060010181905550505b5050505050505050565b600560009054906101000a900473ffffffffffffffffffffffffffffffffffffffff1673ffffffffffffffffffffffffffffffffffffffff166391d14854600560009054906101000a900473ffffffffffffffffffffffffffffffffffffffff1673ffffffffffffffffffffffffffffffffffffffff1663ef0fe2456040518163ffffffff1660e01b815260040160206040518083038186803b158015619d1857600080fd5b505afa158015619d2c573d6000803e3d6000fd5b505050506040513d6020811015619d4257600080fd5b8101908080519060200190929190505050336040518363ffffffff1660e01b8152600401808381526020018273ffffffffffffffffffffffffffffffffffffffff1673ffffffffffffffffffffffffffffffffffffffff1681526020019250505060206040518083038186803b158015619dbb57600080fd5b505afa158015619dcf573d6000803e3d6000fd5b505050506040513d6020811015619de557600080fd5b810190808051906020019092919050505080619f815750600560009054906101000a900473ffffffffffffffffffffffffffffffffffffffff1673ffffffffffffffffffffffffffffffffffffffff166391d14854600560009054906101000a900473ffffffffffffffffffffffffffffffffffffffff1673ffffffffffffffffffffffffffffffffffffffff166375b238fc6040518163ffffffff1660e01b815260040160206040518083038186803b158015619ea257600080fd5b505afa158015619eb6573d6000803e3d6000fd5b505050506040513d6020811015619ecc57600080fd5b8101908080519060200190929190505050336040518363ffffffff1660e01b8152600401808381526020018273ffffffffffffffffffffffffffffffffffffffff1673ffffffffffffffffffffffffffffffffffffffff1681526020019250505060206040518083038186803b158015619f4557600080fd5b505afa158015619f59573d6000803e3d6000fd5b505050506040513d6020811015619f6f57600080fd5b81019080805190602001909291905050505b619ff3576040517f08c379a00000000000000000000000000000000000000000000000000000000081526004018080602001828103825260038152602001807f453231000000000000000000000000000000000000000000000000000000000081525060200191505060405180910390fd5b6009600084815260200190815260200160002060030154600360009054906101000a900473ffffffffffffffffffffffffffffffffffffffff1673ffffffffffffffffffffffffffffffffffffffff166370a08231306040518263ffffffff1660e01b8152600401808273ffffffffffffffffffffffffffffffffffffffff1673ffffffffffffffffffffffffffffffffffffffff16815260200191505060206040518083038186803b15801561a0a957600080fd5b505afa15801561a0bd573d6000803e3d6000fd5b505050506040513d602081101561a0d357600080fd5b8101908080519060200190929190505050101561a158576040517f08c379a00000000000000000000000000000000000000000000000000000000081526004018080602001828103825260038152602001807f453331000000000000000000000000000000000000000000000000000000000081525060200191505060405180910390fd5b600060405180807f757064617465494e565f736574746c656461746500000000000000000000000081525060140190506040518091039020905060006060600460009054906101000a900473ffffffffffffffffffffffffffffffffffffffff1673ffffffffffffffffffffffffffffffffffffffff16637084424960096000898152602001908152602001600020600a01856040518363ffffffff1660e01b8152600401808060200183815260200182810382528481815460018160011615610100020316600290048152602001915080546001816001161561010002031660029004801561a2895780601f1061a25e5761010080835404028352916020019161a289565b820191906000526020600020905b81548152906001019060200180831161a26c57829003601f168201915b5050935050505060006040518083038186803b15801561a2a857600080fd5b505afa15801561a2bc573d6000803e3d6000fd5b505050506040513d6000823e3d601f19601f82011682018060405250604081101561a2e657600080fd5b81019080805190602001909291908051604051939291908464010000000082111561a31057600080fd5b8382019150602082018581111561a32657600080fd5b825186600182028301116401000000008211171561a34357600080fd5b8083526020830192505050908051906020019080838360005b8381101561a37757808201518184015260208101905061a35c565b50505050905090810190601f16801561a3a45780820380516001836020036101000a031916815260200191505b50604052505050915091508161a422576040517f08c379a00000000000000000000000000000000000000000000000000000000081526004018080602001828103825260038152602001807f453232000000000000000000000000000000000000000000000000000000000081525060200191505060405180910390fd5b8460096000888152602001908152602001600020600701819055508060096000888152602001908152602001600020600a01908051906020019061a46792919061b0fb565b508360096000888152602001908152602001600020600b01826040518082805190602001908083835b6020831061a4b3578051825260208201915060208101905060208303925061a490565b6001836020036101000a0380198251168184511680821785525050505050509050019150509081526020016040518091039020819055507f18e6968414f33702467961559c1912d6c91683d964cc4a3aa8944716773ed787868286604051808481526020018060200180602001848152602001838103835285818151815260200191508051906020019080838360005b8381101561a55e57808201518184015260208101905061a543565b50505050905090810190601f16801561a58b5780820380516001836020036101000a031916815260200191505b50838103825260148152602001807f757064617465494e565f736574746c65646174650000000000000000000000008152506020019550505050505060405180910390a1505050505050565b600560009054906101000a900473ffffffffffffffffffffffffffffffffffffffff1673ffffffffffffffffffffffffffffffffffffffff166391d14854600560009054906101000a900473ffffffffffffffffffffffffffffffffffffffff1673ffffffffffffffffffffffffffffffffffffffff166375b238fc6040518163ffffffff1660e01b815260040160206040518083038186803b15801561a67d57600080fd5b505afa15801561a691573d6000803e3d6000fd5b505050506040513d602081101561a6a757600080fd5b8101908080519060200190929190505050336040518363ffffffff1660e01b8152600401808381526020018273ffffffffffffffffffffffffffffffffffffffff1673ffffffffffffffffffffffffffffffffffffffff1681526020019250505060206040518083038186803b15801561a72057600080fd5b505afa15801561a734573d6000803e3d6000fd5b505050506040513d602081101561a74a57600080fd5b810190808051906020019092919050505061a7cd576040517f08c379a00000000000000000000000000000000000000000000000000000000081526004018080602001828103825260028152602001807f453000000000000000000000000000000000000000000000000000000000000081525060200191505060405180910390fd5b8060068190555050565b600560009054906101000a900473ffffffffffffffffffffffffffffffffffffffff1673ffffffffffffffffffffffffffffffffffffffff166391d14854600560009054906101000a900473ffffffffffffffffffffffffffffffffffffffff1673ffffffffffffffffffffffffffffffffffffffff166375b238fc6040518163ffffffff1660e01b815260040160206040518083038186803b15801561a87d57600080fd5b505afa15801561a891573d6000803e3d6000fd5b505050506040513d602081101561a8a757600080fd5b8101908080519060200190929190505050336040518363ffffffff1660e01b8152600401808381526020018273ffffffffffffffffffffffffffffffffffffffff1673ffffffffffffffffffffffffffffffffffffffff1681526020019250505060206040518083038186803b15801561a92057600080fd5b505afa15801561a934573d6000803e3d6000fd5b505050506040513d602081101561a94a57600080fd5b810190808051906020019092919050505061a9cd576040517f08c379a00000000000000000000000000000000000000000000000000000000081526004018080602001828103825260028152602001807f453000000000000000000000000000000000000000000000000000000000000081525060200191505060405180910390fd5b80600160006101000a81548173ffffffffffffffffffffffffffffffffffffffff021916908373ffffffffffffffffffffffffffffffffffffffff16021790555050565b600560009054906101000a900473ffffffffffffffffffffffffffffffffffffffff1673ffffffffffffffffffffffffffffffffffffffff166391d14854600560009054906101000a900473ffffffffffffffffffffffffffffffffffffffff1673ffffffffffffffffffffffffffffffffffffffff1663ef0fe2456040518163ffffffff1660e01b815260040160206040518083038186803b15801561aab757600080fd5b505afa15801561aacb573d6000803e3d6000fd5b505050506040513d602081101561aae157600080fd5b8101908080519060200190929190505050336040518363ffffffff1660e01b8152600401808381526020018273ffffffffffffffffffffffffffffffffffffffff1673ffffffffffffffffffffffffffffffffffffffff1681526020019250505060206040518083038186803b15801561ab5a57600080fd5b505afa15801561ab6e573d6000803e3d6000fd5b505050506040513d602081101561ab8457600080fd5b81019080805190602001909291905050508061ad205750600560009054906101000a900473ffffffffffffffffffffffffffffffffffffffff1673ffffffffffffffffffffffffffffffffffffffff166391d14854600560009054906101000a900473ffffffffffffffffffffffffffffffffffffffff1673ffffffffffffffffffffffffffffffffffffffff166375b238fc6040518163ffffffff1660e01b815260040160206040518083038186803b15801561ac4157600080fd5b505afa15801561ac55573d6000803e3d6000fd5b505050506040513d602081101561ac6b57600080fd5b8101908080519060200190929190505050336040518363ffffffff1660e01b8152600401808381526020018273ffffffffffffffffffffffffffffffffffffffff1673ffffffffffffffffffffffffffffffffffffffff1681526020019250505060206040518083038186803b15801561ace457600080fd5b505afa15801561acf8573d6000803e3d6000fd5b505050506040513d602081101561ad0e57600080fd5b81019080805190602001909291905050505b8061aeab5750600560009054906101000a900473ffffffffffffffffffffffffffffffffffffffff1673ffffffffffffffffffffffffffffffffffffffff166391d14854600560009054906101000a900473ffffffffffffffffffffffffffffffffffffffff1673ffffffffffffffffffffffffffffffffffffffff1663e90524f26040518163ffffffff1660e01b815260040160206040518083038186803b15801561adcc57600080fd5b505afa15801561ade0573d6000803e3d6000fd5b505050506040513d602081101561adf657600080fd5b8101908080519060200190929190505050336040518363ffffffff1660e01b8152600401808381526020018273ffffffffffffffffffffffffffffffffffffffff1673ffffffffffffffffffffffffffffffffffffffff1681526020019250505060206040518083038186803b15801561ae6f57600080fd5b505afa15801561ae83573d6000803e3d6000fd5b505050506040513d602081101561ae9957600080fd5b81019080805190602001909291905050505b61af1d576040517f08c379a00000000000000000000000000000000000000000000000000000000081526004018080602001828103825260038152602001807f453237000000000000000000000000000000000000000000000000000000000081525060200191505060405180910390fd5b6009600084815260200190815260200160002060030154600360009054906101000a900473ffffffffffffffffffffffffffffffffffffffff1673ffffffffffffffffffffffffffffffffffffffff166370a08231306040518263ffffffff1660e01b8152600401808273ffffffffffffffffffffffffffffffffffffffff1673ffffffffffffffffffffffffffffffffffffffff16815260200191505060206040518083038186803b15801561afd357600080fd5b505afa15801561afe7573d6000803e3d6000fd5b505050506040513d602081101561affd57600080fd5b8101908080519060200190929190505050101561b082576040517f08c379a00000000000000000000000000000000000000000000000000000000081526004018080602001828103825260038152602001807f453331000000000000000000000000000000000000000000000000000000000081525060200191505060405180910390fd5b8060096000858152602001908152602001600020600c0160008467ffffffffffffffff1667ffffffffffffffff168152602001908152602001600020908051906020019061b0d192919061b0fb565b50505050565b600081600001549050919050565b6001816000016000828254019250508190555050565b828054600181600116156101000203166002900490600052602060002090601f016020900481019282601f1061b13c57805160ff191683800117855561b16a565b8280016001018555821561b16a579182015b8281111561b16957825182559160200191906001019061b14e565b5b50905061b177919061b26e565b5090565b828054600181600116156101000203166002900490600052602060002090601f016020900481019282601f1061b1bc57805160ff191683800117855561b1ea565b8280016001018555821561b1ea579182015b8281111561b1e957825182559160200191906001019061b1ce565b5b50905061b1f7919061b26e565b5090565b604051806101600160405280600073ffffffffffffffffffffffffffffffffffffffff1681526020016000815260200160008152602001600081526020016000815260200160608152602001600060ff168152602001600081526020016060815260200160608152602001606081525090565b61b29091905b8082111561b28c57600081600090555060010161b274565b5090565b9056fea2646970667358221220848e552722184e506746755946cafdc8481f1ae007a0f0888ad6b720212b4cc264736f6c63430006020033",
  "source": "pragma solidity ^0.6.0;\n\n//import \"openzeppelin-solidity/contracts/token/ERC721/ERC721Holder.sol\";\n//import \"openzeppelin-solidity/contracts/token/ERC721/ERC721.sol\";\n//import \"openzeppelin-solidity/contracts/utils/Counters.sol\";\n//import \"openzeppelin-solidity/contracts/access/AccessControl.sol\";\n//import \"openzeppelin-solidity/contracts/math/SafeMath.sol\";\n//import \"openzeppelin-solidity/contracts/utils/Address.sol\";\n\n\n\nimport \"./orderbook.sol\";\nimport \"./compliance.sol\";\nimport \"./stateMachine.sol\";\nimport \"./paymentBook.sol\";\nimport \"openzeppelin-solidity/contracts/access/RBAC.sol\";\n\n//contract expenseBook is  AccessControl, GSNRecipient {\n\ncontract expenseBook   {   \n    event OrderStatusChange(uint256 ad, string status, string action,uint256 _datetime);\n    event NewOrderRequest(uint256 ad, address seller, uint256 itemID,uint256 p,uint256 f,string c,uint8 pt,uint256 d);\n    using Counters for Counters.Counter;\n    using SafeMath for uint256;\n    using Address for address;\n\n    struct Order{\n        address seller;\n        uint256 tradeID;\n        uint256 diamondTokenID;\n        uint256 unit_price;\n        uint256 feesprecentage;\n        string currency;\n        uint8 paymenttype;\n        uint256 settlementdate;\n        string settlementReferenceURL;\n        string  paymentReferenceURL;\n        string state;\n        mapping(string => uint256) stateChange;\n        mapping(uint64 => string) meta;\n        //meta[0] = rejectresaon\n    }\n\n    Orderbook orderbook;\n    Compliance compliance;\n    ERC721 diamondtoken;\n    PaymentBook bookkeepingtoken;\n    StateMachine statemachine;\n    PermissionControl access;\n    uint256 feesprecentage_decimal;\n    address cashout;\n    Counters.Counter private _orderID;\n    \n    mapping(uint256 => Order) private orders;\n    mapping(string => uint8 ) public currencydecimal;\n    mapping(uint256 => bool ) public token; // check if there is open order in expensebook\n    \n    \n    function setOrdBook(address _orderbook) public {\n        require( (access.hasRole(access.ADMIN_ROLE(),msg.sender)) , \"E0\");\n        orderbook=Orderbook(_orderbook);\n    }\n    \n      \n    function setCompliance(address _compliance) public {\n        require( (access.hasRole(access.ADMIN_ROLE(),msg.sender)) , \"E0\");\n        compliance=Compliance(_compliance);\n    }\n    \n    function setbookkeep(address _bookkeep) public {\n        require( (access.hasRole(access.ADMIN_ROLE(),msg.sender)) , \"E0\");\n        bookkeepingtoken=PaymentBook(_bookkeep);\n    }\n    \n    function setStateMachine(address _machine) public  {\n        require( (access.hasRole(access.ADMIN_ROLE(),msg.sender)) , \"E0\");\n        statemachine=StateMachine(_machine);\n    }\n    \n    function getAllContract() public view\n    returns(address,address,address,address)\n    {\n        return(address(orderbook),address(compliance),address(bookkeepingtoken),address(statemachine));\n    }\n    \n    constructor (address _orderbook, address _compliance, address _diamondtoken, address _statemachine,address _bookeep,address _access ) public virtual\n    {\n        orderbook = Orderbook(_orderbook);\n        compliance = Compliance(_compliance);\n        diamondtoken = ERC721(_diamondtoken);\n        bookkeepingtoken = PaymentBook(_bookeep);\n        statemachine = StateMachine(_statemachine);\n        access = PermissionControl(_access);\n        //_setupRole(DEFAULT_ADMIN_ROLE, msg.sender);\n        currencydecimal[\"HKD\"]=2;\n        currencydecimal[\"USD\"]=2;\n        feesprecentage_decimal = 10;\n        diamondtoken.setApprovalForAll(_orderbook,true);\n        _orderID.increment();\n        \n        \n    }\n    \n    \n    function setfeesprecentage_decimal(uint256 d) public {\n        require( (access.hasRole(access.ADMIN_ROLE(),msg.sender)) , \"E0\");\n        feesprecentage_decimal=d;\n    }\n    \n    function getfeesprecentage_decimal() public view\n    returns(uint256)\n    {\n        return feesprecentage_decimal;\n    }\n    \n    function getOrdercount() public view \n    returns(uint256)\n    {\n        return(_orderID.current()-1);\n    }\n    \n    \n    function getOrder(uint256 _order) public view\n        returns(address, uint256, uint256, uint256 ,uint256, string memory , uint8, uint256, string memory, string memory, string memory)\n        \n    {\n        Order memory order = orders[_order];\n        require( access.hasRole(access.ORDER_VIEWER(),msg.sender), \"E0\");\n        return (order.seller, order.tradeID, order.diamondTokenID, order.unit_price, order.feesprecentage, order.currency, order.paymenttype , order.settlementdate,order.settlementReferenceURL,order.paymentReferenceURL,order.state);\n    }\n    \n    function getOrderAmount(uint256 _order) public view\n        returns (uint256)\n        \n    {\n        Order memory order = orders[_order];\n        require(access.hasRole(access.ORDER_VIEWER(),msg.sender) || access.hasRole(access.ORDER(),msg.sender) , \"E0\");\n        return order.unit_price;\n    }\n\n    function createOrderRequest(uint256 _itemID, uint256 _price, uint256 _feesprecentage, string memory _currency,uint8 _paymenttype, uint256 _createdatetime) public {\n        require(orderbook.isopen(_itemID)==false, \"E1\");\n        require(token[_itemID]==false, \"E2\");\n        require(compliance.isPass(msg.sender),\"E3\");\n        require(access.hasRole(access.SUPPLIER(),msg.sender) || access.hasRole(access.SALE(),msg.sender),\"E0\");\n        require(diamondtoken.ownerOf(_itemID)==msg.sender, \"E4\" );\n        require( _price >= 0 , \"E5\");\n        orders[_orderID.current()] = Order({\n            seller: msg.sender,\n            tradeID: 0,\n            diamondTokenID:_itemID,\n            unit_price: _price,\n            feesprecentage : _feesprecentage,\n            currency : _currency,\n            paymenttype: _paymenttype,\n            settlementdate : 0,\n            settlementReferenceURL : \"NULL\",\n            paymentReferenceURL : \"NULL\",\n            state : \"OI\"\n        });\n        orders[_orderID.current()].stateChange[\"OI\"]=_createdatetime;\n        _orderID.increment();\n        token[_itemID]=true;\n        emit NewOrderRequest(_orderID.current()-1,msg.sender,_itemID,_price,_feesprecentage,_currency,_paymenttype,_createdatetime);\n        \n    } \n    \n    function rejectRequest(uint256 _orderid,string memory rejectreason,uint256 _datetime) public {\n        require( access.hasRole(access.ADMIN_ROLE(),msg.sender) || access.hasRole(access.SALE(),msg.sender), \"E6\");\n        bytes32 functionhash = keccak256(\"rejectRequest\");\n        (bool exist, string memory nextstate) = statemachine.transitionExists(orders[_orderid].state, functionhash);\n        require(exist , \"E7\");\n        orders[_orderid].state=nextstate;\n        orders[_orderid].stateChange[nextstate]=_datetime;\n        orders[_orderid].meta[0]=rejectreason;\n        \n        emit OrderStatusChange(_orderid, nextstate,\"rejectRequest\",_datetime);\n        \n    }\n    \n    function cancelRequest(uint256 _orderid,uint256 _datetime) public {\n        \n        require(access.hasRole(access.SALE(),msg.sender) ||  access.hasRole(access.ADMIN_ROLE(),msg.sender) || (msg.sender == orders[_orderid].seller) , \"E8\");\n        bytes32 functionhash = keccak256(\"cancelRequest\");\n        (bool exist,string memory nextstate) = statemachine.transitionExists(orders[_orderid].state, functionhash);\n        require(exist , \"E9\");\n        orders[_orderid].state=nextstate;\n        orders[_orderid].stateChange[nextstate]=_datetime;\n        token[orders[_orderid].diamondTokenID]=false;\n        emit OrderStatusChange(_orderid, nextstate,\"cancelRequest\",_datetime);\n        \n    }\n    \n    function acceptRequest(uint256 _orderid, uint256 _price,bool _createtrade,uint256 _datetime) public {\n        require( access.hasRole(access.SALE(),msg.sender) ||  access.hasRole(access.ADMIN_ROLE(),msg.sender) , \"E10\");\n        require(_price>=orders[_orderid].unit_price,\"E30\");\n        bytes32 functionhash = keccak256(\"acceptRequest\");\n        (bool exist, string memory nextstate ) = statemachine.transitionExists(orders[_orderid].state, functionhash);\n        require(exist , \"E11\");\n        Order memory o = orders[_orderid];\n        orders[_orderid].state=nextstate;\n        orders[_orderid].stateChange[nextstate]=_datetime;\n        emit OrderStatusChange(_orderid, nextstate,\"acceptRequest\",_datetime);\n   \n        if(_createtrade){\n            uint256 tradeid = orderbook.openTrade(o.diamondTokenID,o.seller,_price,_orderid,_datetime);\n            orders[_orderid].tradeID=tradeid;\n        }\n               \n    }  \n\n    function cancelOrder(uint256 _orderid, uint256 _datetime) public {\n        require( access.hasRole(access.SALE(),msg.sender) ||  access.hasRole(access.ADMIN_ROLE(),msg.sender) , \"E12\");\n        bytes32 functionhash = keccak256(\"cancelOrder\");\n        (bool exist, string memory nextstate ) = statemachine.transitionExists(orders[_orderid].state, functionhash);\n        require(exist , \"E13\");\n        uint256 itemid = orders[_orderid].diamondTokenID;\n        if(orderbook.isopen(orders[_orderid].diamondTokenID)){ //check if there exists open trade in orderbook\n            //got open trade in orderbook\n            orderbook.cancelTrade(orders[_orderid].tradeID,_datetime,true);\n        }else {\n            //cancel trade should call before, expenseBook is the item owner ,return back the item to seller\n            diamondtoken.transferFrom(address(this),orders[_orderid].seller,itemid);\n        }\n        token[itemid]=false;\n        orders[_orderid].state=nextstate;\n        orders[_orderid].stateChange[nextstate]=_datetime;\n        emit OrderStatusChange(_orderid, nextstate,\"cancelOrder\",_datetime);\n         \n    }\n    \n     function addTrade(uint256 _orderid, uint256 _price, uint256 _datetime) public {\n        require( access.hasRole(access.SALE(),msg.sender) ||  access.hasRole(access.ADMIN_ROLE(),msg.sender), \"E14\");\n        require(_price>=orders[_orderid].unit_price,\"E30\");\n        bytes32 functionhash = keccak256(\"addTrade\");\n        (bool exist, string memory nextstate ) = statemachine.transitionExists(orders[_orderid].state, functionhash);\n        require(exist , \"E15\");\n        require(orderbook.isopen(orders[_orderid].diamondTokenID)==false,\"E16\");\n        uint256 tradeid = orderbook.openTrade(orders[_orderid].diamondTokenID,orders[_orderid].seller,_price,_orderid,_datetime);\n        orders[_orderid].tradeID= tradeid;\n        orders[_orderid].state=nextstate;\n        orders[_orderid].stateChange[nextstate]=_datetime;\n        emit OrderStatusChange(_orderid, nextstate,\"addTrade\",_datetime);\n               \n    }\n    \n    function cancelTrade(uint256 _orderid, uint256 _datetime) public {\n        require(access.hasRole(access.SALE(),msg.sender) ||  access.hasRole(access.ADMIN_ROLE(),msg.sender), \"E17\");\n        bytes32 functionhash = keccak256(\"cancelTrade\");\n        (bool exist, string memory nextstate ) = statemachine.transitionExists(orders[_orderid].state, functionhash);\n        require(exist , \"E18\");\n        orderbook.cancelTrade(orders[_orderid].tradeID,_datetime,false);\n        orders[_orderid].state=nextstate;\n        orders[_orderid].stateChange[nextstate]=_datetime;\n        emit OrderStatusChange(_orderid, nextstate,\"cancelTrade\",_datetime);\n               \n    }\n    \n    function fullFillTrade(uint256 _orderid, uint256 _datetime) public {\n        \n        require( access.hasRole(access.ORDER(),msg.sender) , \"E19\");\n        bytes32 functionhash = keccak256(\"fullFillTrade\");\n        (bool exist, string memory nextstate ) = statemachine.transitionExists(orders[_orderid].state, functionhash);\n        require(exist , \"E20\");\n        \n        orders[_orderid].state=nextstate;\n        orders[_orderid].stateChange[nextstate]=_datetime;\n        emit OrderStatusChange(_orderid, nextstate,\"fullFillTrade\",_datetime);\n        token[orders[_orderid].diamondTokenID]=false;\n               \n    }\n    \n    \n    function updateINV_settledate(uint256 _orderid, uint256 _settledate , uint256 _datetime) public {\n        require( access.hasRole(access.SETTLEMENT(),msg.sender) ||  access.hasRole(access.ADMIN_ROLE(),msg.sender), \"E21\");\n        require(bookkeepingtoken.balanceOf(address(this))>=orders[_orderid].unit_price,\"E31\");\n        bytes32 functionhash = keccak256(\"updateINV_settledate\");\n        (bool exist, string memory nextstate ) = statemachine.transitionExists(orders[_orderid].state, functionhash);\n        require(exist , \"E22\");\n        orders[_orderid].settlementdate = _settledate;\n        orders[_orderid].state=nextstate;\n        orders[_orderid].stateChange[nextstate]=_datetime;\n        emit OrderStatusChange(_orderid, nextstate,\"updateINV_settledate\",_datetime);\n        \n    }\n    \n    \n    function updateINV_settleURL(uint256 _orderid, string memory _settleurl , uint256 _datetime) public {\n        require( access.hasRole(access.SETTLEMENT(),msg.sender) ||  access.hasRole(access.ADMIN_ROLE(),msg.sender) ||  (msg.sender == orders[_orderid].seller) , \"E23\");\n        require(bookkeepingtoken.balanceOf(address(this))>=orders[_orderid].unit_price,\"E31\");\n        bytes32 functionhash = keccak256(\"updateINV_settleURL\");\n        (bool exist, string memory nextstate ) = statemachine.transitionExists(orders[_orderid].state, functionhash);\n        require(exist , \"E24\");\n        orders[_orderid].settlementReferenceURL = _settleurl;\n        orders[_orderid].state=nextstate;\n        orders[_orderid].stateChange[nextstate]=_datetime;\n        emit OrderStatusChange(_orderid, nextstate,\"updateINV_settleURL\",_datetime);\n        \n    }\n    \n    function updateINV_paymentURL(uint256 _orderid, string memory _paymenturl , uint256 _datetime) public {\n        require( access.hasRole(access.SETTLEMENT(),msg.sender) ||  access.hasRole(access.ADMIN_ROLE(),msg.sender), \"E25\");\n        require(bookkeepingtoken.balanceOf(address(this))>=orders[_orderid].unit_price,\"E31\");\n        bytes32 functionhash = keccak256(\"updateINV_paymentURL\");\n        (bool exist, string memory nextstate ) = statemachine.transitionExists(orders[_orderid].state, functionhash);\n        require(exist , \"E26\");\n        orders[_orderid].paymentReferenceURL = _paymenturl;\n        orders[_orderid].state=nextstate;\n        orders[_orderid].stateChange[nextstate]=_datetime;\n        emit OrderStatusChange(_orderid, nextstate,\"updateINV_settleURL\",_datetime);\n        \n    }\n    \n    function updateINV_updateMeta(uint256 _orderid, uint64 key , string memory value) public {\n        require( access.hasRole(access.SETTLEMENT(),msg.sender) ||  access.hasRole(access.ADMIN_ROLE(),msg.sender) || access.hasRole(access.ACCOUNT(),msg.sender), \"E27\");\n        require(bookkeepingtoken.balanceOf(address(this))>=orders[_orderid].unit_price,\"E31\");\n        orders[_orderid].meta[key]=value;\n        \n    }\n    \n    function updateINV_confirm(uint256 _orderid, uint256 _datetime) public {\n        require( access.hasRole(access.SETTLEMENT(),msg.sender) ||  access.hasRole(access.ADMIN_ROLE(),msg.sender) || access.hasRole(access.ACCOUNT(),msg.sender) ||  (msg.sender == orders[_orderid].seller) , \"E28\");\n        require(bookkeepingtoken.balanceOf(address(this))>=orders[_orderid].unit_price,\"E31\");\n        bytes32 functionhash = keccak256(\"updateINV_confirm\");\n        (bool exist, string memory nextstate ) = statemachine.transitionExists(orders[_orderid].state, functionhash);\n        require(exist , \"E29\");\n        orders[_orderid].state=nextstate;\n        orders[_orderid].stateChange[nextstate]=_datetime;\n        emit OrderStatusChange(_orderid, nextstate,\"updateINV_confirm\",_datetime);\n        \n    }\n    \n    function withdrawalDiamond(uint256 _itemid) public {\n        require( access.hasRole(access.SETTLEMENT(),msg.sender) ||  access.hasRole(access.ADMIN_ROLE(),msg.sender) || access.hasRole(access.ACCOUNT(),msg.sender) , \"E29\");\n        diamondtoken.transferFrom(address(this), msg.sender, _itemid);\n    }\n    \n    function withdrawalbookeep(uint256 _amount) public  {\n        require( access.hasRole(access.SETTLEMENT(),msg.sender) ||  access.hasRole(access.ADMIN_ROLE(),msg.sender) || access.hasRole(access.ACCOUNT(),msg.sender) , \"E29\");\n        bookkeepingtoken.transferFrom(address(this), msg.sender, _amount);\n    }\n    \n   \n  \n}\n",
  "sourcePath": "/home/dickchan/ERC721Marketplace/contracts/expenseBool.sol",
  "compiler": {
    "name": "solc",
    "version": "0.6.2+commit.bacdbe57.Emscripten.clang"
  },
  "schemaVersion": "3.2.3",
  "updatedAt": "2020-10-28T06:06:48.703Z",
  "devdoc": {
    "methods": {}
  },
  "userdoc": {
    "methods": {}
  }
}