{
  "contractName": "Invoice",
  "abi": [
    {
      "inputs": [
        {
          "internalType": "uint256",
          "name": "_item",
          "type": "uint256"
        },
        {
          "internalType": "uint256",
          "name": "_price",
          "type": "uint256"
        },
        {
          "internalType": "uint256",
          "name": "_qty",
          "type": "uint256"
        },
        {
          "internalType": "uint256",
          "name": "_feesprecentage",
          "type": "uint256"
        },
        {
          "internalType": "string",
          "name": "_currency",
          "type": "string"
        },
        {
          "internalType": "uint8",
          "name": "_paymenttype",
          "type": "uint8"
        },
        {
          "internalType": "uint256",
          "name": "_createdatetime",
          "type": "uint256"
        },
        {
          "internalType": "address",
          "name": "_access",
          "type": "address"
        },
        {
          "internalType": "address",
          "name": "_sellside",
          "type": "address"
        },
        {
          "internalType": "address",
          "name": "_buyside",
          "type": "address"
        }
      ],
      "stateMutability": "nonpayable",
      "type": "constructor"
    },
    {
      "inputs": [],
      "name": "getState",
      "outputs": [
        {
          "internalType": "string",
          "name": "s",
          "type": "string"
        }
      ],
      "stateMutability": "view",
      "type": "function"
    },
    {
      "inputs": [
        {
          "internalType": "string",
          "name": "_state",
          "type": "string"
        }
      ],
      "name": "getStateChange",
      "outputs": [
        {
          "internalType": "uint256",
          "name": "_d",
          "type": "uint256"
        }
      ],
      "stateMutability": "view",
      "type": "function"
    },
    {
      "inputs": [],
      "name": "getCurrentTradeID",
      "outputs": [
        {
          "internalType": "uint256",
          "name": "_d",
          "type": "uint256"
        }
      ],
      "stateMutability": "view",
      "type": "function"
    },
    {
      "inputs": [],
      "name": "getItem",
      "outputs": [
        {
          "internalType": "uint256",
          "name": "_d",
          "type": "uint256"
        }
      ],
      "stateMutability": "view",
      "type": "function"
    },
    {
      "inputs": [],
      "name": "getOrderPrice",
      "outputs": [
        {
          "internalType": "uint256",
          "name": "p",
          "type": "uint256"
        }
      ],
      "stateMutability": "view",
      "type": "function"
    },
    {
      "inputs": [],
      "name": "getCreditor",
      "outputs": [
        {
          "internalType": "address",
          "name": "a",
          "type": "address"
        }
      ],
      "stateMutability": "view",
      "type": "function"
    },
    {
      "inputs": [
        {
          "internalType": "uint64",
          "name": "_key",
          "type": "uint64"
        }
      ],
      "name": "getMeta",
      "outputs": [
        {
          "internalType": "string",
          "name": "s",
          "type": "string"
        }
      ],
      "stateMutability": "view",
      "type": "function"
    },
    {
      "inputs": [],
      "name": "getOrderDetail",
      "outputs": [
        {
          "internalType": "uint256",
          "name": "",
          "type": "uint256"
        },
        {
          "internalType": "uint256",
          "name": "",
          "type": "uint256"
        },
        {
          "internalType": "uint256",
          "name": "",
          "type": "uint256"
        },
        {
          "internalType": "uint256",
          "name": "",
          "type": "uint256"
        },
        {
          "internalType": "string",
          "name": "",
          "type": "string"
        },
        {
          "internalType": "uint8",
          "name": "",
          "type": "uint8"
        },
        {
          "internalType": "uint256",
          "name": "",
          "type": "uint256"
        },
        {
          "internalType": "string",
          "name": "",
          "type": "string"
        },
        {
          "internalType": "string",
          "name": "",
          "type": "string"
        },
        {
          "internalType": "string",
          "name": "",
          "type": "string"
        }
      ],
      "stateMutability": "view",
      "type": "function"
    },
    {
      "inputs": [
        {
          "internalType": "string",
          "name": "_s",
          "type": "string"
        },
        {
          "internalType": "uint256",
          "name": "_d",
          "type": "uint256"
        }
      ],
      "name": "setState",
      "outputs": [],
      "stateMutability": "nonpayable",
      "type": "function"
    },
    {
      "inputs": [
        {
          "internalType": "uint256",
          "name": "_id",
          "type": "uint256"
        },
        {
          "internalType": "uint256",
          "name": "_datetime",
          "type": "uint256"
        }
      ],
      "name": "setTradeID",
      "outputs": [],
      "stateMutability": "nonpayable",
      "type": "function"
    },
    {
      "inputs": [
        {
          "internalType": "uint256",
          "name": "_a",
          "type": "uint256"
        },
        {
          "internalType": "uint256",
          "name": "_d",
          "type": "uint256"
        }
      ],
      "name": "setSettlementAmount",
      "outputs": [],
      "stateMutability": "nonpayable",
      "type": "function"
    },
    {
      "inputs": [
        {
          "internalType": "string",
          "name": "_d",
          "type": "string"
        }
      ],
      "name": "setSettlementURL",
      "outputs": [],
      "stateMutability": "nonpayable",
      "type": "function"
    },
    {
      "inputs": [
        {
          "internalType": "string",
          "name": "_d",
          "type": "string"
        }
      ],
      "name": "setpaymentURL",
      "outputs": [],
      "stateMutability": "nonpayable",
      "type": "function"
    },
    {
      "inputs": [
        {
          "internalType": "uint64",
          "name": "_key",
          "type": "uint64"
        },
        {
          "internalType": "string",
          "name": "_d",
          "type": "string"
        }
      ],
      "name": "setMeta",
      "outputs": [],
      "stateMutability": "nonpayable",
      "type": "function"
    }
  ],
  "bytecode": "0x60806040523480156200001157600080fd5b50604051620027723803806200277283398181016040526101408110156200003857600080fd5b8101908080519060200190929190805190602001909291908051906020019092919080519060200190929190805160405193929190846401000000008211156200008157600080fd5b838201915060208201858111156200009857600080fd5b8251866001820283011164010000000082111715620000b657600080fd5b8083526020830192505050908051906020019080838360005b83811015620000ec578082015181840152602081019050620000cf565b50505050905090810190601f1680156200011a5780820380516001836020036101000a031916815260200191505b50604052602001805190602001909291908051906020019092919080519060200190929190805190602001909291908051906020019092919050505082600e60006101000a81548173ffffffffffffffffffffffffffffffffffffffff021916908373ffffffffffffffffffffffffffffffffffffffff160217905550600e60009054906101000a900473ffffffffffffffffffffffffffffffffffffffff1673ffffffffffffffffffffffffffffffffffffffff166391d14854600e60009054906101000a900473ffffffffffffffffffffffffffffffffffffffff1673ffffffffffffffffffffffffffffffffffffffff166375b238fc6040518163ffffffff1660e01b815260040160206040518083038186803b1580156200023e57600080fd5b505afa15801562000253573d6000803e3d6000fd5b505050506040513d60208110156200026a57600080fd5b8101908080519060200190929190505050336040518363ffffffff1660e01b8152600401808381526020018273ffffffffffffffffffffffffffffffffffffffff1673ffffffffffffffffffffffffffffffffffffffff1681526020019250505060206040518083038186803b158015620002e457600080fd5b505afa158015620002f9573d6000803e3d6000fd5b505050506040513d60208110156200031057600080fd5b810190808051906020019092919050505080620004b35750600e60009054906101000a900473ffffffffffffffffffffffffffffffffffffffff1673ffffffffffffffffffffffffffffffffffffffff166391d14854600e60009054906101000a900473ffffffffffffffffffffffffffffffffffffffff1673ffffffffffffffffffffffffffffffffffffffff16634db08aea6040518163ffffffff1660e01b815260040160206040518083038186803b158015620003cf57600080fd5b505afa158015620003e4573d6000803e3d6000fd5b505050506040513d6020811015620003fb57600080fd5b8101908080519060200190929190505050336040518363ffffffff1660e01b8152600401808381526020018273ffffffffffffffffffffffffffffffffffffffff1673ffffffffffffffffffffffffffffffffffffffff1681526020019250505060206040518083038186803b1580156200047557600080fd5b505afa1580156200048a573d6000803e3d6000fd5b505050506040513d6020811015620004a157600080fd5b81019080805190602001909291905050505b62000526576040517f08c379a00000000000000000000000000000000000000000000000000000000081526004018080602001828103825260028152602001807f453000000000000000000000000000000000000000000000000000000000000081525060200191505060405180910390fd5b81600460006101000a81548173ffffffffffffffffffffffffffffffffffffffff021916908373ffffffffffffffffffffffffffffffffffffffff16021790555080600360006101000a81548173ffffffffffffffffffffffffffffffffffffffff021916908373ffffffffffffffffffffffffffffffffffffffff160217905550866006819055508560079080519060200190620005c79291906200088d565b5084600860006101000a81548160ff021916908360ff1602179055506040518060400160405280600281526020017f4f4900000000000000000000000000000000000000000000000000000000000081525060059080519060200190620006309291906200088d565b5083600c60405180807f4f49000000000000000000000000000000000000000000000000000000000000815250600201905090815260200160405180910390208190555060405180608001604052808b81526020018a81526020018981526020018781525060096000620006b060006200086960201b62001aa91760201c565b81526020019081526020016000206000820151816000015560208201518160010155604082015181600201556060820151816003019080519060200190620006fa92919062000914565b509050506200071560006200087760201b62001c441760201c565b6040518060400160405280600081526020016000815250600b60006200074760026200086960201b62001aa91760201c565b815260200190815260200160002060008201518160000155602082015181600101559050506200078360026200087760201b62001c441760201c565b6040518060800160405280600081526020016000815260200160405180602001604052806000815250815260200160405180602001604052806000815250815250600a6000620007df60016200086960201b62001aa91760201c565b8152602001908152602001600020600082015181600001556020820151816001015560408201518160020190805190602001906200081f92919062000914565b5060608201518160030190805190602001906200083e92919062000914565b509050506200085960016200087760201b62001c441760201c565b50505050505050505050620009c3565b600081600001549050919050565b6001816000016000828254019250508190555050565b828054600181600116156101000203166002900490600052602060002090601f016020900481019282601f10620008d057805160ff191683800117855562000901565b8280016001018555821562000901579182015b8281111562000900578251825591602001919060010190620008e3565b5b5090506200091091906200099b565b5090565b828054600181600116156101000203166002900490600052602060002090601f016020900481019282601f106200095757805160ff191683800117855562000988565b8280016001018555821562000988579182015b82811115620009875782518255916020019190600101906200096a565b5b5090506200099791906200099b565b5090565b620009c091905b80821115620009bc576000816000905550600101620009a2565b5090565b90565b611d9f80620009d36000396000f3fe608060405234801561001057600080fd5b50600436106100ea5760003560e01c8063677ab32d1161008c578063c3c61f9111610066578063c3c61f91146107d0578063c412eaba146107ee578063ea6d0d861461080c578063f89d1ec0146108bd576100ea565b8063677ab32d146105775780636c2c825e1461064657806389ace75e14610701576100ea565b80634f2f1291116100c85780634f2f1291146102555780635b76fd3d1461044c578063626e46721461048457806366822c44146104bc576100ea565b80631865c57d146100ef578063292d1fb914610172578063358837ed14610237575b600080fd5b6100f7610907565b6040518080602001828103825283818151815260200191508051906020019080838360005b8381101561013757808201518184015260208101905061011c565b50505050905090810190601f1680156101645780820380516001836020036101000a031916815260200191505b509250505060405180910390f35b6102356004803603604081101561018857600080fd5b81019080803590602001906401000000008111156101a557600080fd5b8201836020820111156101b757600080fd5b803590602001918460018302840111640100000000831117156101d957600080fd5b91908080601f016020809104026020016040519081016040528093929190818152602001838380828437600081840152601f19601f820116905080830192505050505050509192919290803590602001909291905050506109a9565b005b61023f610abd565b6040518082815260200191505060405180910390f35b61025d610ae7565b604051808b81526020018a8152602001898152602001888152602001806020018760ff1660ff16815260200186815260200180602001806020018060200185810385528b818151815260200191508051906020019080838360005b838110156102d35780820151818401526020810190506102b8565b50505050905090810190601f1680156103005780820380516001836020036101000a031916815260200191505b50858103845288818151815260200191508051906020019080838360005b8381101561033957808201518184015260208101905061031e565b50505050905090810190601f1680156103665780820380516001836020036101000a031916815260200191505b50858103835287818151815260200191508051906020019080838360005b8381101561039f578082015181840152602081019050610384565b50505050905090810190601f1680156103cc5780820380516001836020036101000a031916815260200191505b50858103825286818151815260200191508051906020019080838360005b838110156104055780820151818401526020810190506103ea565b50505050905090810190601f1680156104325780820380516001836020036101000a031916815260200191505b509e50505050505050505050505050505060405180910390f35b6104826004803603604081101561046257600080fd5b810190808035906020019092919080359060200190929190505050610fd0565b005b6104ba6004803603604081101561049a57600080fd5b8101908080359060200190929190803590602001909291905050506110b7565b005b610575600480360360208110156104d257600080fd5b81019080803590602001906401000000008111156104ef57600080fd5b82018360208201111561050157600080fd5b8035906020019184600183028401116401000000008311171561052357600080fd5b91908080601f016020809104026020016040519081016040528093929190818152602001838380828437600081840152601f19601f820116905080830192505050505050509192919290505050611194565b005b6106446004803603604081101561058d57600080fd5b81019080803567ffffffffffffffff169060200190929190803590602001906401000000008111156105be57600080fd5b8201836020820111156105d057600080fd5b803590602001918460018302840111640100000000831117156105f257600080fd5b91908080601f016020809104026020016040519081016040528093929190818152602001838380828437600081840152601f19601f820116905080830192505050505050509192919290505050611259565b005b6106ff6004803603602081101561065c57600080fd5b810190808035906020019064010000000081111561067957600080fd5b82018360208201111561068b57600080fd5b803590602001918460018302840111640100000000831117156106ad57600080fd5b91908080601f016020809104026020016040519081016040528093929190818152602001838380828437600081840152601f19601f820116905080830192505050505050509192919290505050611324565b005b6107ba6004803603602081101561071757600080fd5b810190808035906020019064010000000081111561073457600080fd5b82018360208201111561074657600080fd5b8035906020019184600183028401116401000000008311171561076857600080fd5b91908080601f016020809104026020016040519081016040528093929190818152602001838380828437600081840152601f19601f8201169050808301925050505050505091929192905050506113e9565b6040518082815260200191505060405180910390f35b6107d861145c565b6040518082815260200191505060405180910390f35b6107f6611501565b6040518082815260200191505060405180910390f35b6108426004803603602081101561082257600080fd5b81019080803567ffffffffffffffff1690602001909291905050506115a6565b6040518080602001828103825283818151815260200191508051906020019080838360005b83811015610882578082015181840152602081019050610867565b50505050905090810190601f1680156108af5780820380516001836020036101000a031916815260200191505b509250505060405180910390f35b6108c56116ea565b604051808273ffffffffffffffffffffffffffffffffffffffff1673ffffffffffffffffffffffffffffffffffffffff16815260200191505060405180910390f35b606060058054600181600116156101000203166002900480601f01602080910402602001604051908101604052809291908181526020018280546001816001161561010002031660029004801561099f5780601f106109745761010080835404028352916020019161099f565b820191906000526020600020905b81548152906001019060200180831161098257829003601f168201915b5050505050905090565b6109b23361178f565b806109c257506109c13361191c565b5b610a34576040517f08c379a00000000000000000000000000000000000000000000000000000000081526004018080602001828103825260028152602001807f453000000000000000000000000000000000000000000000000000000000000081525060200191505060405180910390fd5b8160059080519060200190610a4a929190611c5a565b5080600c836040518082805190602001908083835b60208310610a825780518252602082019150602081019050602083039250610a5f565b6001836020036101000a0380198251168184511680821785525050505050509050019150509081526020016040518091039020819055505050565b6000600b60006001610acf6002611aa9565b03815260200190815260200160002060000154905090565b60008060008060606000806060806060610b0033611ab7565b610b72576040517f08c379a00000000000000000000000000000000000000000000000000000000081526004018080602001828103825260028152602001807f453000000000000000000000000000000000000000000000000000000000000081525060200191505060405180910390fd5b610b7a611cda565b600b60006001610b8a6002611aa9565b038152602001908152602001600020604051806040016040529081600082015481526020016001820154815250509050610bc2611cf4565b600960006001610bd26000611aa9565b038152602001908152602001600020604051806080016040529081600082015481526020016001820154815260200160028201548152602001600382018054600181600116156101000203166002900480601f016020809104026020016040519081016040528092919081815260200182805460018160011615610100020316600290048015610ca35780601f10610c7857610100808354040283529160200191610ca3565b820191906000526020600020905b815481529060010190602001808311610c8657829003601f168201915b5050505050815250509050610cb6611d1c565b600a60006001610cc66001611aa9565b0381526020019081526020016000206040518060800160405290816000820154815260200160018201548152602001600282018054600181600116156101000203166002900480601f016020809104026020016040519081016040528092919081815260200182805460018160011615610100020316600290048015610d8d5780601f10610d6257610100808354040283529160200191610d8d565b820191906000526020600020905b815481529060010190602001808311610d7057829003601f168201915b50505050508152602001600382018054600181600116156101000203166002900480601f016020809104026020016040519081016040528092919081815260200182805460018160011615610100020316600290048015610e2f5780601f10610e0457610100808354040283529160200191610e2f565b820191906000526020600020905b815481529060010190602001808311610e1257829003601f168201915b50505050508152505090508260000151826000015183602001516006546007600860009054906101000a900460ff168660000151876040015188606001516005858054600181600116156101000203166002900480601f016020809104026020016040519081016040528092919081815260200182805460018160011615610100020316600290048015610f045780601f10610ed957610100808354040283529160200191610f04565b820191906000526020600020905b815481529060010190602001808311610ee757829003601f168201915b50505050509550829250819150808054600181600116156101000203166002900480601f016020809104026020016040519081016040528092919081815260200182805460018160011615610100020316600290048015610fa65780601f10610f7b57610100808354040283529160200191610fa6565b820191906000526020600020905b815481529060010190602001808311610f8957829003601f168201915b505050505090509c509c509c509c509c509c509c509c509c509c5050505090919293949596979899565b610fd93361178f565b80610fe95750610fe83361191c565b5b61105b576040517f08c379a00000000000000000000000000000000000000000000000000000000081526004018080602001828103825260028152602001807f453000000000000000000000000000000000000000000000000000000000000081525060200191505060405180910390fd5b81600b6000600161106c6002611aa9565b0381526020019081526020016000206000018190555080600b600060016110936002611aa9565b038152602001908152602001600020600101819055506110b36002611c44565b5050565b6110c03361178f565b806110d057506110cf3361191c565b5b611142576040517f08c379a00000000000000000000000000000000000000000000000000000000081526004018080602001828103825260028152602001807f453000000000000000000000000000000000000000000000000000000000000081525060200191505060405180910390fd5b81600a600060016111536001611aa9565b0381526020019081526020016000206001018190555080600a6000600161117a6001611aa9565b038152602001908152602001600020600001819055505050565b61119d3361178f565b806111ad57506111ac3361191c565b5b61121f576040517f08c379a00000000000000000000000000000000000000000000000000000000081526004018080602001828103825260028152602001807f453000000000000000000000000000000000000000000000000000000000000081525060200191505060405180910390fd5b80600a600060016112306001611aa9565b0381526020019081526020016000206002019080519060200190611255929190611c5a565b5050565b6112623361178f565b8061127257506112713361191c565b5b6112e4576040517f08c379a00000000000000000000000000000000000000000000000000000000081526004018080602001828103825260028152602001807f453000000000000000000000000000000000000000000000000000000000000081525060200191505060405180910390fd5b80600d60008467ffffffffffffffff1667ffffffffffffffff168152602001908152602001600020908051906020019061131f929190611c5a565b505050565b61132d3361178f565b8061133d575061133c3361191c565b5b6113af576040517f08c379a00000000000000000000000000000000000000000000000000000000081526004018080602001828103825260028152602001807f453000000000000000000000000000000000000000000000000000000000000081525060200191505060405180910390fd5b80600a600060016113c06001611aa9565b03815260200190815260200160002060030190805190602001906113e5929190611c5a565b5050565b6000600c826040518082805190602001908083835b6020831061142157805182526020820191506020810190506020830392506113fe565b6001836020036101000a0380198251168184511680821785525050505050509050019150509081526020016040518091039020549050919050565b600061146733611ab7565b6114d9576040517f08c379a00000000000000000000000000000000000000000000000000000000081526004018080602001828103825260028152602001807f453000000000000000000000000000000000000000000000000000000000000081525060200191505060405180910390fd5b6009600060016114e96000611aa9565b03815260200190815260200160002060010154905090565b600061150c33611ab7565b61157e576040517f08c379a00000000000000000000000000000000000000000000000000000000081526004018080602001828103825260028152602001807f453000000000000000000000000000000000000000000000000000000000000081525060200191505060405180910390fd5b60096000600161158e6000611aa9565b03815260200190815260200160002060000154905090565b60606115b133611ab7565b611623576040517f08c379a00000000000000000000000000000000000000000000000000000000081526004018080602001828103825260028152602001807f453000000000000000000000000000000000000000000000000000000000000081525060200191505060405180910390fd5b600d60008367ffffffffffffffff1667ffffffffffffffff1681526020019081526020016000208054600181600116156101000203166002900480601f0160208091040260200160405190810160405280929190818152602001828054600181600116156101000203166002900480156116de5780601f106116b3576101008083540402835291602001916116de565b820191906000526020600020905b8154815290600101906020018083116116c157829003601f168201915b50505050509050919050565b60006116f533611ab7565b611767576040517f08c379a00000000000000000000000000000000000000000000000000000000081526004018080602001828103825260028152602001807f453000000000000000000000000000000000000000000000000000000000000081525060200191505060405180910390fd5b600460009054906101000a900473ffffffffffffffffffffffffffffffffffffffff16905090565b6000600e60009054906101000a900473ffffffffffffffffffffffffffffffffffffffff1673ffffffffffffffffffffffffffffffffffffffff166391d14854600e60009054906101000a900473ffffffffffffffffffffffffffffffffffffffff1673ffffffffffffffffffffffffffffffffffffffff166375b238fc6040518163ffffffff1660e01b815260040160206040518083038186803b15801561183757600080fd5b505afa15801561184b573d6000803e3d6000fd5b505050506040513d602081101561186157600080fd5b8101908080519060200190929190505050846040518363ffffffff1660e01b8152600401808381526020018273ffffffffffffffffffffffffffffffffffffffff1673ffffffffffffffffffffffffffffffffffffffff1681526020019250505060206040518083038186803b1580156118da57600080fd5b505afa1580156118ee573d6000803e3d6000fd5b505050506040513d602081101561190457600080fd5b81019080805190602001909291905050509050919050565b6000600e60009054906101000a900473ffffffffffffffffffffffffffffffffffffffff1673ffffffffffffffffffffffffffffffffffffffff166391d14854600e60009054906101000a900473ffffffffffffffffffffffffffffffffffffffff1673ffffffffffffffffffffffffffffffffffffffff166384138b9b6040518163ffffffff1660e01b815260040160206040518083038186803b1580156119c457600080fd5b505afa1580156119d8573d6000803e3d6000fd5b505050506040513d60208110156119ee57600080fd5b8101908080519060200190929190505050846040518363ffffffff1660e01b8152600401808381526020018273ffffffffffffffffffffffffffffffffffffffff1673ffffffffffffffffffffffffffffffffffffffff1681526020019250505060206040518083038186803b158015611a6757600080fd5b505afa158015611a7b573d6000803e3d6000fd5b505050506040513d6020811015611a9157600080fd5b81019080805190602001909291905050509050919050565b600081600001549050919050565b6000600e60009054906101000a900473ffffffffffffffffffffffffffffffffffffffff1673ffffffffffffffffffffffffffffffffffffffff166391d14854600e60009054906101000a900473ffffffffffffffffffffffffffffffffffffffff1673ffffffffffffffffffffffffffffffffffffffff166325270f176040518163ffffffff1660e01b815260040160206040518083038186803b158015611b5f57600080fd5b505afa158015611b73573d6000803e3d6000fd5b505050506040513d6020811015611b8957600080fd5b8101908080519060200190929190505050846040518363ffffffff1660e01b8152600401808381526020018273ffffffffffffffffffffffffffffffffffffffff1673ffffffffffffffffffffffffffffffffffffffff1681526020019250505060206040518083038186803b158015611c0257600080fd5b505afa158015611c16573d6000803e3d6000fd5b505050506040513d6020811015611c2c57600080fd5b81019080805190602001909291905050509050919050565b6001816000016000828254019250508190555050565b828054600181600116156101000203166002900490600052602060002090601f016020900481019282601f10611c9b57805160ff1916838001178555611cc9565b82800160010185558215611cc9579182015b82811115611cc8578251825591602001919060010190611cad565b5b509050611cd69190611d44565b5090565b604051806040016040528060008152602001600081525090565b6040518060800160405280600081526020016000815260200160008152602001606081525090565b6040518060800160405280600081526020016000815260200160608152602001606081525090565b611d6691905b80821115611d62576000816000905550600101611d4a565b5090565b9056fea2646970667358221220c645173fd88215704a62900e2f80dfc3a6eaaa6d6df8bb93fab1f8ce089fb4e664736f6c63430006020033",
  "source": "pragma solidity ^0.6.0;\n\nimport \"openzeppelin-solidity/contracts/access/RBAC.sol\";\nimport \"openzeppelin-solidity/contracts/token/ERC721/ERC721Holder.sol\";\nimport \"openzeppelin-solidity/contracts/utils/Counters.sol\";\nimport \"openzeppelin-solidity/contracts/math/SafeMath.sol\";\n\ncontract Invoice {\n    using Counters for Counters.Counter;\n    using SafeMath for uint256;\n    using Address for address;\n    \n    Counters.Counter private _itemcount;\n    Counters.Counter private _settlementcount;\n    Counters.Counter private _tradecount;\n    \n    address debtor;\n    address creditor;\n    string state;\n    uint256 feesprecentage;\n    string currency;\n    uint8 paymenttype;\n    \n    \n    struct item{\n        uint256 ERC721ID;\n        uint256 unit_price;\n        uint256 qty;\n        string currency;\n     }\n     \n     \n    struct trade{\n        uint256 tradeID;\n        uint256 datetime;\n    } \n    struct settlementplan{\n        uint256 settlementdate;\n        uint256 settlementamount;\n        string  settlementReferenceURL;\n        string  paymentReferenceURL;\n     }\n     \n     mapping(uint256 => item) items; \n     mapping(uint256 => settlementplan) settlement;\n     mapping(uint256 => trade) trades;\n     mapping(string => uint256) stateChange;\n     mapping(uint64 => string) meta;\n     PermissionControl access;\n     \n     constructor (uint256  _item,uint256  _price, uint256 _qty, uint256 _feesprecentage, string memory _currency,\n                    uint8 _paymenttype, uint256 _createdatetime,address _access, address _sellside, address _buyside) public {\n        access = PermissionControl(_access);\n        require(access.hasRole(access.ADMIN_ROLE(),msg.sender) || access.hasRole(access.SALE(),msg.sender),\"E0\");\n        \n        creditor = _sellside;\n        debtor = _buyside;\n        feesprecentage = _feesprecentage;\n        currency = _currency;\n        paymenttype = _paymenttype;\n        state = \"OI\";\n        stateChange[\"OI\"]=_createdatetime;\n        \n        items[_itemcount.current()]=item({\n            ERC721ID :_item,\n            unit_price:_price,\n            qty:_qty,\n            currency:_currency\n        });\n        _itemcount.increment();\n\n        trades[_tradecount.current()]= trade({\n            tradeID:0,datetime:0\n        });\n        _tradecount.increment();\n        \n        settlement[_settlementcount.current()]= settlementplan({\n            settlementdate:0,\n            settlementamount:0,\n            settlementReferenceURL:\"\",\n            paymentReferenceURL:\"\"\n        });\n        _settlementcount.increment();\n        \n        \n    } \n    \n\n    function getState() public view\n    returns(string memory s){\n        return state;\n    }\n    \n    function getStateChange(string memory _state) public view\n    returns(uint256 _d)\n    {\n        return stateChange[_state];\n    }\n    \n    function getCurrentTradeID() public view\n    returns(uint256 _d)\n    {\n        return trades[_tradecount.current()-1].tradeID;\n    }\n    \n    function getItem() public view\n    returns(uint256 _d)\n    {\n        require( _isOrderViewer(msg.sender), \"E0\");\n        return items[_itemcount.current()-1].ERC721ID;\n    }\n    \n    function getOrderPrice() public view \n    returns(uint256 p)\n    {\n        require( _isOrderViewer(msg.sender), \"E0\");\n        return items[_itemcount.current()-1].unit_price;\n    }\n    \n    function getCreditor() public view \n    returns(address a)\n    {\n        require( _isOrderViewer(msg.sender), \"E0\");\n        return creditor;\n    }\n    \n    function getMeta(uint64 _key) public view\n    returns(string memory s)\n    {\n        require( _isOrderViewer(msg.sender), \"E0\");\n        return meta[_key];\n    }\n    \n    \n    function getOrderDetail() public view\n        returns(uint256, uint256, uint256 ,uint256, string memory , uint8, uint256, string memory, string memory, string memory)\n        \n    {\n        require( _isOrderViewer(msg.sender), \"E0\");\n        trade memory t = trades[_tradecount.current()-1];\n        item memory i = items[_itemcount.current()-1];\n        settlementplan memory s = settlement[_settlementcount.current()-1];\n        \n        return (t.tradeID,i.ERC721ID, i.unit_price,feesprecentage,currency,paymenttype,s.settlementdate,s.settlementReferenceURL,s.paymentReferenceURL,state);\n    }\n    \n  \n    function setState(string memory _s,uint256 _d) public \n    {\n         require( _isAdmin(msg.sender) || _isExpense(msg.sender), \"E0\");\n         state=_s;\n         stateChange[_s]=_d;\n    }\n    \n    function setTradeID(uint256 _id,uint256 _datetime) public \n    {\n         require( _isAdmin(msg.sender) || _isExpense(msg.sender), \"E0\");\n        \n         trades[_tradecount.current()-1].tradeID=_id;\n         trades[_tradecount.current()-1].datetime=_datetime;\n         _tradecount.increment();\n         \n\n    }\n    \n    function setSettlementAmount(uint256 _a,uint256 _d)public\n    {\n        require( _isAdmin(msg.sender) || _isExpense(msg.sender), \"E0\");\n        settlement[_settlementcount.current()-1].settlementamount=_a;\n        settlement[_settlementcount.current()-1].settlementdate=_d;\n    }\n    \n    function setSettlementURL(string memory _d)public\n    {\n        require( _isAdmin(msg.sender) || _isExpense(msg.sender), \"E0\");\n        settlement[_settlementcount.current()-1].settlementReferenceURL=_d;\n    }\n    \n    function setpaymentURL(string memory _d) public\n    {\n        require( _isAdmin(msg.sender) || _isExpense(msg.sender), \"E0\");\n        settlement[_settlementcount.current()-1].paymentReferenceURL=_d;\n    }\n    \n    function setMeta(uint64 _key,string memory _d) public\n    {\n        require( _isAdmin(msg.sender) || _isExpense(msg.sender), \"E0\");\n        meta[_key]=_d;\n\n    }\n    \n    function _isAdmin(address _a) internal view\n    returns(bool t)\n    {\n        return access.hasRole(access.ADMIN_ROLE(),_a);\n    }\n    \n    function _isExpense(address _a) internal view\n    returns(bool t)\n    {\n        return access.hasRole(access.EXPENSE(),_a);\n    }\n      \n    function _isOrderViewer(address _a) internal view\n    returns(bool t)\n    {\n        return access.hasRole(access.ORDER_VIEWER(),_a);\n    }\n  \n}",
  "sourcePath": "/home/dickchan/ERC721Marketplace/contracts/Invoice.sol",
  "compiler": {
    "name": "solc",
    "version": "0.6.2+commit.bacdbe57.Emscripten.clang"
  },
  "schemaVersion": "3.2.3",
  "updatedAt": "2020-10-29T04:58:22.972Z",
  "devdoc": {
    "methods": {}
  },
  "userdoc": {
    "methods": {}
  }
}