{
  "contractName": "Orderbook",
  "abi": [
    {
      "inputs": [
        {
          "internalType": "address",
          "name": "_paymentbook",
          "type": "address"
        },
        {
          "internalType": "address",
          "name": "_itemTokenAddress",
          "type": "address"
        },
        {
          "internalType": "address",
          "name": "_compliance",
          "type": "address"
        },
        {
          "internalType": "address",
          "name": "_statemachine",
          "type": "address"
        },
        {
          "internalType": "address",
          "name": "_platform",
          "type": "address"
        }
      ],
      "stateMutability": "nonpayable",
      "type": "constructor"
    },
    {
      "anonymous": false,
      "inputs": [
        {
          "indexed": false,
          "internalType": "uint256",
          "name": "t",
          "type": "uint256"
        },
        {
          "indexed": false,
          "internalType": "address",
          "name": "seller",
          "type": "address"
        },
        {
          "indexed": false,
          "internalType": "uint256",
          "name": "itemID",
          "type": "uint256"
        },
        {
          "indexed": false,
          "internalType": "uint256",
          "name": "p",
          "type": "uint256"
        },
        {
          "indexed": false,
          "internalType": "uint256",
          "name": "o",
          "type": "uint256"
        },
        {
          "indexed": false,
          "internalType": "uint256",
          "name": "m",
          "type": "uint256"
        },
        {
          "indexed": false,
          "internalType": "uint256",
          "name": "_datetime",
          "type": "uint256"
        }
      ],
      "name": "NewTrade",
      "type": "event"
    },
    {
      "anonymous": false,
      "inputs": [
        {
          "indexed": true,
          "internalType": "address",
          "name": "previousOwner",
          "type": "address"
        },
        {
          "indexed": true,
          "internalType": "address",
          "name": "newOwner",
          "type": "address"
        }
      ],
      "name": "OwnershipTransferred",
      "type": "event"
    },
    {
      "anonymous": false,
      "inputs": [
        {
          "indexed": false,
          "internalType": "uint256",
          "name": "ad",
          "type": "uint256"
        },
        {
          "indexed": false,
          "internalType": "string",
          "name": "action",
          "type": "string"
        },
        {
          "indexed": false,
          "internalType": "string",
          "name": "status",
          "type": "string"
        },
        {
          "indexed": false,
          "internalType": "address",
          "name": "b",
          "type": "address"
        },
        {
          "indexed": false,
          "internalType": "uint256",
          "name": "p",
          "type": "uint256"
        },
        {
          "indexed": false,
          "internalType": "uint256",
          "name": "d",
          "type": "uint256"
        }
      ],
      "name": "TradeStatusChange",
      "type": "event"
    },
    {
      "inputs": [
        {
          "internalType": "uint256",
          "name": "",
          "type": "uint256"
        }
      ],
      "name": "isopen",
      "outputs": [
        {
          "internalType": "bool",
          "name": "",
          "type": "bool"
        }
      ],
      "stateMutability": "view",
      "type": "function"
    },
    {
      "inputs": [],
      "name": "owner",
      "outputs": [
        {
          "internalType": "address",
          "name": "",
          "type": "address"
        }
      ],
      "stateMutability": "view",
      "type": "function"
    },
    {
      "inputs": [],
      "name": "renounceOwnership",
      "outputs": [],
      "stateMutability": "nonpayable",
      "type": "function"
    },
    {
      "inputs": [
        {
          "internalType": "address",
          "name": "newOwner",
          "type": "address"
        }
      ],
      "name": "transferOwnership",
      "outputs": [],
      "stateMutability": "nonpayable",
      "type": "function"
    },
    {
      "inputs": [
        {
          "internalType": "address",
          "name": "_add",
          "type": "address"
        }
      ],
      "name": "setexpensebook",
      "outputs": [],
      "stateMutability": "nonpayable",
      "type": "function"
    },
    {
      "inputs": [
        {
          "internalType": "uint256",
          "name": "_amount",
          "type": "uint256"
        }
      ],
      "name": "setfixdeposit",
      "outputs": [],
      "stateMutability": "nonpayable",
      "type": "function"
    },
    {
      "inputs": [
        {
          "internalType": "address",
          "name": "_add",
          "type": "address"
        }
      ],
      "name": "setpaymentbook",
      "outputs": [],
      "stateMutability": "nonpayable",
      "type": "function"
    },
    {
      "inputs": [
        {
          "internalType": "address",
          "name": "_add",
          "type": "address"
        }
      ],
      "name": "setdiamondtoken",
      "outputs": [],
      "stateMutability": "nonpayable",
      "type": "function"
    },
    {
      "inputs": [
        {
          "internalType": "address",
          "name": "_add",
          "type": "address"
        }
      ],
      "name": "setcompliance",
      "outputs": [],
      "stateMutability": "nonpayable",
      "type": "function"
    },
    {
      "inputs": [
        {
          "internalType": "address",
          "name": "_add",
          "type": "address"
        }
      ],
      "name": "setstatemachine",
      "outputs": [],
      "stateMutability": "nonpayable",
      "type": "function"
    },
    {
      "inputs": [],
      "name": "getAllContractInfo",
      "outputs": [
        {
          "internalType": "address",
          "name": "",
          "type": "address"
        },
        {
          "internalType": "address",
          "name": "",
          "type": "address"
        },
        {
          "internalType": "address",
          "name": "",
          "type": "address"
        },
        {
          "internalType": "address",
          "name": "",
          "type": "address"
        },
        {
          "internalType": "address",
          "name": "",
          "type": "address"
        }
      ],
      "stateMutability": "view",
      "type": "function"
    },
    {
      "inputs": [],
      "name": "getTradeCount",
      "outputs": [
        {
          "internalType": "uint256",
          "name": "c",
          "type": "uint256"
        }
      ],
      "stateMutability": "view",
      "type": "function"
    },
    {
      "inputs": [
        {
          "internalType": "uint256",
          "name": "_trade",
          "type": "uint256"
        }
      ],
      "name": "getTrade",
      "outputs": [
        {
          "internalType": "address",
          "name": "",
          "type": "address"
        },
        {
          "internalType": "address",
          "name": "",
          "type": "address"
        },
        {
          "internalType": "uint256",
          "name": "",
          "type": "uint256"
        },
        {
          "internalType": "uint256",
          "name": "",
          "type": "uint256"
        },
        {
          "internalType": "string",
          "name": "",
          "type": "string"
        },
        {
          "internalType": "uint256",
          "name": "",
          "type": "uint256"
        },
        {
          "internalType": "uint256",
          "name": "",
          "type": "uint256"
        }
      ],
      "stateMutability": "view",
      "type": "function"
    },
    {
      "inputs": [
        {
          "internalType": "uint256",
          "name": "u",
          "type": "uint256"
        }
      ],
      "name": "setfeespercentage_decimal",
      "outputs": [],
      "stateMutability": "nonpayable",
      "type": "function"
    },
    {
      "inputs": [],
      "name": "getfeespercentage_decimal",
      "outputs": [
        {
          "internalType": "uint256",
          "name": "",
          "type": "uint256"
        }
      ],
      "stateMutability": "view",
      "type": "function"
    },
    {
      "inputs": [
        {
          "internalType": "uint256",
          "name": "_tradeid",
          "type": "uint256"
        },
        {
          "internalType": "uint256",
          "name": "_deposit",
          "type": "uint256"
        }
      ],
      "name": "setindividualDeposit",
      "outputs": [],
      "stateMutability": "nonpayable",
      "type": "function"
    },
    {
      "inputs": [],
      "name": "getdepositpercentage",
      "outputs": [
        {
          "internalType": "uint256",
          "name": "",
          "type": "uint256"
        }
      ],
      "stateMutability": "view",
      "type": "function"
    },
    {
      "inputs": [
        {
          "internalType": "uint256",
          "name": "u",
          "type": "uint256"
        }
      ],
      "name": "setdepositpercentage",
      "outputs": [],
      "stateMutability": "nonpayable",
      "type": "function"
    },
    {
      "inputs": [
        {
          "internalType": "uint256",
          "name": "_itemID",
          "type": "uint256"
        },
        {
          "internalType": "address",
          "name": "_owner",
          "type": "address"
        },
        {
          "internalType": "uint256",
          "name": "_price",
          "type": "uint256"
        },
        {
          "internalType": "uint256",
          "name": "_orderid",
          "type": "uint256"
        },
        {
          "internalType": "uint256",
          "name": "_datetime",
          "type": "uint256"
        }
      ],
      "name": "openTrade",
      "outputs": [
        {
          "internalType": "uint256",
          "name": "tradeid",
          "type": "uint256"
        }
      ],
      "stateMutability": "nonpayable",
      "type": "function"
    },
    {
      "inputs": [
        {
          "internalType": "uint256",
          "name": "_trade",
          "type": "uint256"
        },
        {
          "internalType": "uint256",
          "name": "_feespercentage",
          "type": "uint256"
        },
        {
          "internalType": "uint256",
          "name": "_datetime",
          "type": "uint256"
        },
        {
          "internalType": "bool",
          "name": "_fullpay",
          "type": "bool"
        },
        {
          "internalType": "uint8",
          "name": "_paymenttype",
          "type": "uint8"
        }
      ],
      "name": "markTrade",
      "outputs": [
        {
          "internalType": "uint256",
          "name": "paymnentid",
          "type": "uint256"
        },
        {
          "internalType": "uint256",
          "name": "amount",
          "type": "uint256"
        }
      ],
      "stateMutability": "nonpayable",
      "type": "function"
    },
    {
      "inputs": [
        {
          "internalType": "uint256",
          "name": "_trade",
          "type": "uint256"
        },
        {
          "internalType": "uint256",
          "name": "_payment",
          "type": "uint256"
        },
        {
          "internalType": "uint256",
          "name": "_datetime",
          "type": "uint256"
        }
      ],
      "name": "executeTrade",
      "outputs": [
        {
          "internalType": "uint256",
          "name": "",
          "type": "uint256"
        }
      ],
      "stateMutability": "nonpayable",
      "type": "function"
    },
    {
      "inputs": [
        {
          "internalType": "uint256",
          "name": "_amount",
          "type": "uint256"
        }
      ],
      "name": "setAllowanceOwner",
      "outputs": [],
      "stateMutability": "nonpayable",
      "type": "function"
    },
    {
      "inputs": [
        {
          "internalType": "uint256",
          "name": "_trade",
          "type": "uint256"
        },
        {
          "internalType": "uint256",
          "name": "_datetime",
          "type": "uint256"
        }
      ],
      "name": "executeExpensebook",
      "outputs": [],
      "stateMutability": "nonpayable",
      "type": "function"
    },
    {
      "inputs": [
        {
          "internalType": "uint256",
          "name": "_trade",
          "type": "uint256"
        },
        {
          "internalType": "uint256",
          "name": "_datetime",
          "type": "uint256"
        },
        {
          "internalType": "bool",
          "name": "return2owner",
          "type": "bool"
        }
      ],
      "name": "cancelTrade",
      "outputs": [],
      "stateMutability": "nonpayable",
      "type": "function"
    },
    {
      "inputs": [
        {
          "internalType": "uint256",
          "name": "_trade",
          "type": "uint256"
        },
        {
          "internalType": "uint256",
          "name": "_datetime",
          "type": "uint256"
        }
      ],
      "name": "expireTrade",
      "outputs": [],
      "stateMutability": "nonpayable",
      "type": "function"
    },
    {
      "inputs": [
        {
          "internalType": "uint256",
          "name": "_itemid",
          "type": "uint256"
        }
      ],
      "name": "withdrawDiamonToken",
      "outputs": [],
      "stateMutability": "nonpayable",
      "type": "function"
    }
  ],
  "bytecode": "0x608060405260006009556064600a556003600b556003600c553480156200002557600080fd5b5060405162006ba638038062006ba6833981810160405260a08110156200004b57600080fd5b8101908080519060200190929190805190602001909291908051906020019092919080519060200190929190805190602001909291905050506000620000966200032a60201b60201c565b9050806000806101000a81548173ffffffffffffffffffffffffffffffffffffffff021916908373ffffffffffffffffffffffffffffffffffffffff1602179055508073ffffffffffffffffffffffffffffffffffffffff16600073ffffffffffffffffffffffffffffffffffffffff167f8be0079c531659141344cd1fd0a4f28419497f9722a3daafe3b4186f6b6457e060405160405180910390a35084600160006101000a81548173ffffffffffffffffffffffffffffffffffffffff021916908373ffffffffffffffffffffffffffffffffffffffff16021790555083600260006101000a81548173ffffffffffffffffffffffffffffffffffffffff021916908373ffffffffffffffffffffffffffffffffffffffff16021790555082600460006101000a81548173ffffffffffffffffffffffffffffffffffffffff021916908373ffffffffffffffffffffffffffffffffffffffff16021790555081600360006101000a81548173ffffffffffffffffffffffffffffffffffffffff021916908373ffffffffffffffffffffffffffffffffffffffff1602179055506200024f60076200033260201b620062cb1760201c565b80600660006101000a81548173ffffffffffffffffffffffffffffffffffffffff021916908373ffffffffffffffffffffffffffffffffffffffff160217905550620002a760086200033260201b620062cb1760201c565b600073ffffffffffffffffffffffffffffffffffffffff168173ffffffffffffffffffffffffffffffffffffffff1614156200031f5730600660006101000a81548173ffffffffffffffffffffffffffffffffffffffff021916908373ffffffffffffffffffffffffffffffffffffffff1602179055505b505050505062000348565b600033905090565b6001816000016000828254019250508190555050565b61684e80620003586000396000f3fe608060405234801561001057600080fd5b506004361061018e5760003560e01c8063634c21d2116100de5780638da5cb5b11610097578063b23f818d11610071578063b23f818d146107ae578063bb039c05146108c4578063c70acf7a146108f2578063f2fde38b146109385761018e565b80638da5cb5b146107185780639941f60114610762578063a3031b77146107905761018e565b8063634c21d21461060c578063715018a61461062a578063760b5e6c14610634578063783fea94146106625780637cf46d50146106a65780637dd00aea146106ea5761018e565b806328ea77bd1161014b5780633a5e81f8116101255780633a5e81f8146105385780634e5a122414610566578063521ff1b914610584578063560f102e146105c85761018e565b806328ea77bd146103815780632db25e05146103b957806335cd4a21146104e25761018e565b806308bb4a99146101935780630b8b1caf146102135780631148ba3e146102575780631e29a9ac1461028f5780631e8867b714610305578063243f758714610349575b600080fd5b6101fd600480360360a08110156101a957600080fd5b8101908080359060200190929190803573ffffffffffffffffffffffffffffffffffffffff16906020019092919080359060200190929190803590602001909291908035906020019092919050505061097c565b6040518082815260200191505060405180910390f35b6102556004803603606081101561022957600080fd5b810190808035906020019092919080359060200190929190803515159060200190929190505050611134565b005b61028d6004803603604081101561026d57600080fd5b8101908080359060200190929190803590602001909291905050506119e2565b005b6102e8600480360360a08110156102a557600080fd5b81019080803590602001909291908035906020019092919080359060200190929190803515159060200190929190803560ff169060200190929190505050611b77565b604051808381526020018281526020019250505060405180910390f35b6103476004803603602081101561031b57600080fd5b81019080803573ffffffffffffffffffffffffffffffffffffffff16906020019092919050505061293c565b005b61037f6004803603604081101561035f57600080fd5b810190808035906020019092919080359060200190929190505050612b0f565b005b6103b76004803603604081101561039757600080fd5b810190808035906020019092919080359060200190929190505050613984565b005b6103e5600480360360208110156103cf57600080fd5b810190808035906020019092919050505061418f565b604051808873ffffffffffffffffffffffffffffffffffffffff1673ffffffffffffffffffffffffffffffffffffffff1681526020018773ffffffffffffffffffffffffffffffffffffffff1673ffffffffffffffffffffffffffffffffffffffff16815260200186815260200185815260200180602001848152602001838152602001828103825285818151815260200191508051906020019080838360005b838110156104a1578082015181840152602081019050610486565b50505050905090810190601f1680156104ce5780820380516001836020036101000a031916815260200191505b509850505050505050505060405180910390f35b610522600480360360608110156104f857600080fd5b81019080803590602001909291908035906020019092919080359060200190929190505050614537565b6040518082815260200191505060405180910390f35b6105646004803603602081101561054e57600080fd5b81019080803590602001909291905050506150c4565b005b61056e615197565b6040518082815260200191505060405180910390f35b6105c66004803603602081101561059a57600080fd5b81019080803573ffffffffffffffffffffffffffffffffffffffff1690602001909291905050506151a1565b005b61060a600480360360208110156105de57600080fd5b81019080803573ffffffffffffffffffffffffffffffffffffffff1690602001909291905050506152ae565b005b6106146153bb565b6040518082815260200191505060405180910390f35b6106326153c5565b005b6106606004803603602081101561064a57600080fd5b810190808035906020019092919050505061554d565b005b6106a46004803603602081101561067857600080fd5b81019080803573ffffffffffffffffffffffffffffffffffffffff1690602001909291905050506157f2565b005b6106e8600480360360208110156106bc57600080fd5b81019080803573ffffffffffffffffffffffffffffffffffffffff1690602001909291905050506158ff565b005b6107166004803603602081101561070057600080fd5b8101908080359060200190929190505050615a0c565b005b610720615adf565b604051808273ffffffffffffffffffffffffffffffffffffffff1673ffffffffffffffffffffffffffffffffffffffff16815260200191505060405180910390f35b61078e6004803603602081101561077857600080fd5b8101908080359060200190929190505050615b08565b005b610798615e1e565b6040518082815260200191505060405180910390f35b6107b6615e32565b604051808673ffffffffffffffffffffffffffffffffffffffff1673ffffffffffffffffffffffffffffffffffffffff1681526020018573ffffffffffffffffffffffffffffffffffffffff1673ffffffffffffffffffffffffffffffffffffffff1681526020018473ffffffffffffffffffffffffffffffffffffffff1673ffffffffffffffffffffffffffffffffffffffff1681526020018373ffffffffffffffffffffffffffffffffffffffff1673ffffffffffffffffffffffffffffffffffffffff1681526020018273ffffffffffffffffffffffffffffffffffffffff1673ffffffffffffffffffffffffffffffffffffffff1681526020019550505050505060405180910390f35b6108f0600480360360208110156108da57600080fd5b8101908080359060200190929190505050615fc3565b005b61091e6004803603602081101561090857600080fd5b8101908080359060200190929190505050616096565b604051808215151515815260200191505060405180910390f35b61097a6004803603602081101561094e57600080fd5b81019080803573ffffffffffffffffffffffffffffffffffffffff1690602001909291905050506160b6565b005b6000600560009054906101000a900473ffffffffffffffffffffffffffffffffffffffff1673ffffffffffffffffffffffffffffffffffffffff166109bf6162c3565b73ffffffffffffffffffffffffffffffffffffffff161480610a1a57506109e4615adf565b73ffffffffffffffffffffffffffffffffffffffff16610a026162c3565b73ffffffffffffffffffffffffffffffffffffffff16145b610a8c576040517f08c379a00000000000000000000000000000000000000000000000000000000081526004018080602001828103825260028152602001807f4f3200000000000000000000000000000000000000000000000000000000000081525060200191505060405180910390fd5b60008411610b02576040517f08c379a00000000000000000000000000000000000000000000000000000000081526004018080602001828103825260038152602001807f4f3134000000000000000000000000000000000000000000000000000000000081525060200191505060405180910390fd5b6000600260009054906101000a900473ffffffffffffffffffffffffffffffffffffffff1673ffffffffffffffffffffffffffffffffffffffff16636352211e886040518263ffffffff1660e01b81526004018082815260200191505060206040518083038186803b158015610b7757600080fd5b505afa158015610b8b573d6000803e3d6000fd5b505050506040513d6020811015610ba157600080fd5b81019080805190602001909291905050509050600560009054906101000a900473ffffffffffffffffffffffffffffffffffffffff1673ffffffffffffffffffffffffffffffffffffffff168173ffffffffffffffffffffffffffffffffffffffff161480610c3b57508573ffffffffffffffffffffffffffffffffffffffff168173ffffffffffffffffffffffffffffffffffffffff16145b610cad576040517f08c379a00000000000000000000000000000000000000000000000000000000081526004018080602001828103825260038152602001807f4f3138000000000000000000000000000000000000000000000000000000000081525060200191505060405180910390fd5b6001600e600089815260200190815260200160002060006101000a81548160ff021916908315150217905550610ce360076162cb565b60006001610cf160076162e1565b039050600260009054906101000a900473ffffffffffffffffffffffffffffffffffffffff1673ffffffffffffffffffffffffffffffffffffffff166323b872dd83308b6040518463ffffffff1660e01b8152600401808473ffffffffffffffffffffffffffffffffffffffff1673ffffffffffffffffffffffffffffffffffffffff1681526020018373ffffffffffffffffffffffffffffffffffffffff1673ffffffffffffffffffffffffffffffffffffffff1681526020018281526020019350505050600060405180830381600087803b158015610dd157600080fd5b505af1158015610de5573d6000803e3d6000fd5b5050505060008060095411610e2157610e1c6064610e0e600b548a6162ef90919063ffffffff16565b61637590919063ffffffff16565b610e25565b6009545b9050604051806101400160405280610e3b6162c3565b73ffffffffffffffffffffffffffffffffffffffff1681526020018973ffffffffffffffffffffffffffffffffffffffff1681526020018a81526020018881526020016040518060400160405280600481526020017f4f50454e000000000000000000000000000000000000000000000000000000008152508152602001878152602001600073ffffffffffffffffffffffffffffffffffffffff168152602001600081526020018281526020016000815250600d600084815260200190815260200160002060008201518160000160006101000a81548173ffffffffffffffffffffffffffffffffffffffff021916908373ffffffffffffffffffffffffffffffffffffffff16021790555060208201518160010160006101000a81548173ffffffffffffffffffffffffffffffffffffffff021916908373ffffffffffffffffffffffffffffffffffffffff16021790555060408201518160020155606082015181600301556080820151816004019080519060200190610fbf929190616617565b5060a0820151816005015560c08201518160060160006101000a81548173ffffffffffffffffffffffffffffffffffffffff021916908373ffffffffffffffffffffffffffffffffffffffff16021790555060e082015181600701556101008201518160080155610120820151816009015590505084600d6000848152602001908152602001600020600b0160405180807f4f50454e0000000000000000000000000000000000000000000000000000000081525060040190509081526020016040518091039020819055507f41d7f52773753000e5b420ad5cbce5826fc7970fd9c04de1b84b3e96a69b28ca826110b56162c3565b8b8a8a868b604051808881526020018773ffffffffffffffffffffffffffffffffffffffff1673ffffffffffffffffffffffffffffffffffffffff16815260200186815260200185815260200184815260200183815260200182815260200197505050505050505060405180910390a181935050505095945050505050565b61113c616697565b600d6000858152602001908152602001600020604051806101400160405290816000820160009054906101000a900473ffffffffffffffffffffffffffffffffffffffff1673ffffffffffffffffffffffffffffffffffffffff1673ffffffffffffffffffffffffffffffffffffffff1681526020016001820160009054906101000a900473ffffffffffffffffffffffffffffffffffffffff1673ffffffffffffffffffffffffffffffffffffffff1673ffffffffffffffffffffffffffffffffffffffff1681526020016002820154815260200160038201548152602001600482018054600181600116156101000203166002900480601f0160208091040260200160405190810160405280929190818152602001828054600181600116156101000203166002900480156112b45780601f10611289576101008083540402835291602001916112b4565b820191906000526020600020905b81548152906001019060200180831161129757829003601f168201915b50505050508152602001600582015481526020016006820160009054906101000a900473ffffffffffffffffffffffffffffffffffffffff1673ffffffffffffffffffffffffffffffffffffffff1673ffffffffffffffffffffffffffffffffffffffff16815260200160078201548152602001600882015481526020016009820154815250509050806000015173ffffffffffffffffffffffffffffffffffffffff166113606162c3565b73ffffffffffffffffffffffffffffffffffffffff1614806113b857508060c0015173ffffffffffffffffffffffffffffffffffffffff166113a06162c3565b73ffffffffffffffffffffffffffffffffffffffff16145b61142a576040517f08c379a00000000000000000000000000000000000000000000000000000000081526004018080602001828103825260038152602001807f4f3130000000000000000000000000000000000000000000000000000000000081525060200191505060405180910390fd5b60006060600360009054906101000a900473ffffffffffffffffffffffffffffffffffffffff1673ffffffffffffffffffffffffffffffffffffffff166370844249846080015160405180807f63616e63656c5472616465000000000000000000000000000000000000000000815250600b01905060405180910390206040518363ffffffff1660e01b81526004018080602001838152602001828103825284818151815260200191508051906020019080838360005b838110156114fc5780820151818401526020810190506114e1565b50505050905090810190601f1680156115295780820380516001836020036101000a031916815260200191505b50935050505060006040518083038186803b15801561154757600080fd5b505afa15801561155b573d6000803e3d6000fd5b505050506040513d6000823e3d601f19601f82011682018060405250604081101561158557600080fd5b8101908080519060200190929190805160405193929190846401000000008211156115af57600080fd5b838201915060208201858111156115c557600080fd5b82518660018202830111640100000000821117156115e257600080fd5b8083526020830192505050908051906020019080838360005b838110156116165780820151818401526020810190506115fb565b50505050905090810190601f1680156116435780820380516001836020036101000a031916815260200191505b5060405250505091509150816116c1576040517f08c379a00000000000000000000000000000000000000000000000000000000081526004018080602001828103825260038152602001807f4f3131000000000000000000000000000000000000000000000000000000000081525060200191505060405180910390fd5b6000846116d25783600001516116d8565b83602001515b9050600260009054906101000a900473ffffffffffffffffffffffffffffffffffffffff1673ffffffffffffffffffffffffffffffffffffffff166323b872dd308387604001516040518463ffffffff1660e01b8152600401808473ffffffffffffffffffffffffffffffffffffffff1673ffffffffffffffffffffffffffffffffffffffff1681526020018373ffffffffffffffffffffffffffffffffffffffff1673ffffffffffffffffffffffffffffffffffffffff1681526020018281526020019350505050600060405180830381600087803b1580156117bb57600080fd5b505af11580156117cf573d6000803e3d6000fd5b5050505081600d600089815260200190815260200160002060040190805190602001906117fd92919061672c565b5085600d6000898152602001908152602001600020600b01836040518082805190602001908083835b602083106118495780518252602082019150602081019050602083039250611826565b6001836020036101000a0380198251168184511680821785525050505050509050019150509081526020016040518091039020819055506000600e60008660400151815260200190815260200160002060006101000a81548160ff0219169083151502179055507f1cffbf78721f1394874a2ca49635a3941549d1f17edb7aee215cb4f4d2daa4a887836118db6162c3565b60008a6040518086815260200180602001806020018673ffffffffffffffffffffffffffffffffffffffff1673ffffffffffffffffffffffffffffffffffffffff1681526020018581526020018481526020018381038352600b8152602001807f63616e63656c5472616465000000000000000000000000000000000000000000815250602001838103825287818151815260200191508051906020019080838360005b8381101561199a57808201518184015260208101905061197f565b50505050905090810190601f1680156119c75780820380516001836020036101000a031916815260200191505b5097505050505050505060405180910390a150505050505050565b600560009054906101000a900473ffffffffffffffffffffffffffffffffffffffff1673ffffffffffffffffffffffffffffffffffffffff16611a236162c3565b73ffffffffffffffffffffffffffffffffffffffff1614611aac576040517f08c379a00000000000000000000000000000000000000000000000000000000081526004018080602001828103825260038152602001807f4f3132000000000000000000000000000000000000000000000000000000000081525060200191505060405180910390fd5b600d60008381526020019081526020016000206008015481118015611ae65750600d60008381526020019081526020016000206003015481105b611b58576040517f08c379a00000000000000000000000000000000000000000000000000000000081526004018080602001828103825260038152602001807f4f3133000000000000000000000000000000000000000000000000000000000081525060200191505060405180910390fd5b80600d6000848152602001908152602001600020600801819055505050565b600080611b82616697565b600d6000898152602001908152602001600020604051806101400160405290816000820160009054906101000a900473ffffffffffffffffffffffffffffffffffffffff1673ffffffffffffffffffffffffffffffffffffffff1673ffffffffffffffffffffffffffffffffffffffff1681526020016001820160009054906101000a900473ffffffffffffffffffffffffffffffffffffffff1673ffffffffffffffffffffffffffffffffffffffff1673ffffffffffffffffffffffffffffffffffffffff1681526020016002820154815260200160038201548152602001600482018054600181600116156101000203166002900480601f016020809104026020016040519081016040528092919081815260200182805460018160011615610100020316600290048015611cfa5780601f10611ccf57610100808354040283529160200191611cfa565b820191906000526020600020905b815481529060010190602001808311611cdd57829003601f168201915b50505050508152602001600582015481526020016006820160009054906101000a900473ffffffffffffffffffffffffffffffffffffffff1673ffffffffffffffffffffffffffffffffffffffff1673ffffffffffffffffffffffffffffffffffffffff1681526020016007820154815260200160088201548152602001600982015481525050905060006060600360009054906101000a900473ffffffffffffffffffffffffffffffffffffffff1673ffffffffffffffffffffffffffffffffffffffff166370844249846080015160405180807f6d61726b54726164650000000000000000000000000000000000000000000000815250600901905060405180910390206040518363ffffffff1660e01b81526004018080602001838152602001828103825284818151815260200191508051906020019080838360005b83811015611e55578082015181840152602081019050611e3a565b50505050905090810190601f168015611e825780820380516001836020036101000a031916815260200191505b50935050505060006040518083038186803b158015611ea057600080fd5b505afa158015611eb4573d6000803e3d6000fd5b505050506040513d6000823e3d601f19601f820116820180604052506040811015611ede57600080fd5b810190808051906020019092919080516040519392919084640100000000821115611f0857600080fd5b83820191506020820185811115611f1e57600080fd5b8251866001820283011164010000000082111715611f3b57600080fd5b8083526020830192505050908051906020019080838360005b83811015611f6f578082015181840152602081019050611f54565b50505050905090810190601f168015611f9c5780820380516001836020036101000a031916815260200191505b50604052505050915091508161201a576040517f08c379a00000000000000000000000000000000000000000000000000000000081526004018080602001828103825260028152602001807f4f3300000000000000000000000000000000000000000000000000000000000081525060200191505060405180910390fd5b600460009054906101000a900473ffffffffffffffffffffffffffffffffffffffff1673ffffffffffffffffffffffffffffffffffffffff166376b071866120606162c3565b6040518263ffffffff1660e01b8152600401808273ffffffffffffffffffffffffffffffffffffffff1673ffffffffffffffffffffffffffffffffffffffff16815260200191505060206040518083038186803b1580156120c057600080fd5b505afa1580156120d4573d6000803e3d6000fd5b505050506040513d60208110156120ea57600080fd5b810190808051906020019092919050505061216d576040517f08c379a00000000000000000000000000000000000000000000000000000000081526004018080602001828103825260028152602001807f4f3400000000000000000000000000000000000000000000000000000000000081525060200191505060405180910390fd5b6121756162c3565b73ffffffffffffffffffffffffffffffffffffffff16836020015173ffffffffffffffffffffffffffffffffffffffff16141561221a576040517f08c379a00000000000000000000000000000000000000000000000000000000081526004018080602001828103825260038152602001807f4f3137000000000000000000000000000000000000000000000000000000000081525060200191505060405180910390fd5b80600d60008c8152602001908152602001600020600401908051906020019061224492919061672c565b5088600d60008c81526020019081526020016000206009018190555087600d60008c8152602001908152602001600020600b01826040518082805190602001908083835b602083106122ab5780518252602082019150602081019050602083039250612288565b6001836020036101000a0380198251168184511680821785525050505050509050019150509081526020016040518091039020819055506122ea6162c3565b600d60008c815260200190815260200160002060060160006101000a81548173ffffffffffffffffffffffffffffffffffffffff021916908373ffffffffffffffffffffffffffffffffffffffff160217905550600061236e600a546064026123608c87606001516162ef90919063ffffffff16565b61637590919063ffffffff16565b90507f1cffbf78721f1394874a2ca49635a3941549d1f17edb7aee215cb4f4d2daa4a88b8361239b6162c3565b60008d6040518086815260200180602001806020018673ffffffffffffffffffffffffffffffffffffffff1673ffffffffffffffffffffffffffffffffffffffff168152602001858152602001848152602001838103835260098152602001807f6d61726b54726164650000000000000000000000000000000000000000000000815250602001838103825287818151815260200191508051906020019080838360005b8381101561245a57808201518184015260208101905061243f565b50505050905090810190601f1680156124875780820380516001836020036101000a031916815260200191505b5097505050505050505060405180910390a1871561263e57600160009054906101000a900473ffffffffffffffffffffffffffffffffffffffff1673ffffffffffffffffffffffffffffffffffffffff1663f9300bc48c6124f58760600151856163bf90919063ffffffff16565b6124fd6162c3565b8b60008f6040518763ffffffff1660e01b8152600401808781526020018681526020018573ffffffffffffffffffffffffffffffffffffffff1673ffffffffffffffffffffffffffffffffffffffff1681526020018460ff1660ff1681526020018381526020018281526020019650505050505050602060405180830381600087803b15801561258c57600080fd5b505af11580156125a0573d6000803e3d6000fd5b505050506040513d60208110156125b657600080fd5b8101908080519060200190929190505050600d60008d8152602001908152602001600020600a01600080815260200190815260200160002081905550600d60008c8152602001908152602001600020600a016000808152602001908152602001600020546126318560600151836163bf90919063ffffffff16565b9550955050505050612932565b600160009054906101000a900473ffffffffffffffffffffffffffffffffffffffff1673ffffffffffffffffffffffffffffffffffffffff1663f9300bc48c612695876101000151856163bf90919063ffffffff16565b61269d6162c3565b8b60008f6040518763ffffffff1660e01b8152600401808781526020018681526020018573ffffffffffffffffffffffffffffffffffffffff1673ffffffffffffffffffffffffffffffffffffffff1681526020018460ff1660ff1681526020018381526020018281526020019650505050505050602060405180830381600087803b15801561272c57600080fd5b505af1158015612740573d6000803e3d6000fd5b505050506040513d602081101561275657600080fd5b8101908080519060200190929190505050600d60008d8152602001908152602001600020600a01600080815260200190815260200160002081905550600160009054906101000a900473ffffffffffffffffffffffffffffffffffffffff1673ffffffffffffffffffffffffffffffffffffffff1663f9300bc48c6127ed876101000151886060015161644790919063ffffffff16565b6127f56162c3565b600060018f6040518763ffffffff1660e01b8152600401808781526020018681526020018573ffffffffffffffffffffffffffffffffffffffff1673ffffffffffffffffffffffffffffffffffffffff1681526020018460ff1681526020018381526020018281526020019650505050505050602060405180830381600087803b15801561288257600080fd5b505af1158015612896573d6000803e3d6000fd5b505050506040513d60208110156128ac57600080fd5b8101908080519060200190929190505050600d60008d8152602001908152602001600020600a0160006001815260200190815260200160002081905550600d60008c8152602001908152602001600020600a01600080815260200190815260200160002054612929856101000151836163bf90919063ffffffff16565b95509550505050505b9550959350505050565b6129446162c3565b73ffffffffffffffffffffffffffffffffffffffff166000809054906101000a900473ffffffffffffffffffffffffffffffffffffffff1673ffffffffffffffffffffffffffffffffffffffff1614612a05576040517f08c379a00000000000000000000000000000000000000000000000000000000081526004018080602001828103825260208152602001807f4f776e61626c653a2063616c6c6572206973206e6f7420746865206f776e657281525060200191505060405180910390fd5b80600560006101000a81548173ffffffffffffffffffffffffffffffffffffffff021916908373ffffffffffffffffffffffffffffffffffffffff160217905550600260009054906101000a900473ffffffffffffffffffffffffffffffffffffffff1673ffffffffffffffffffffffffffffffffffffffff1663a22cb4658260016040518363ffffffff1660e01b8152600401808373ffffffffffffffffffffffffffffffffffffffff1673ffffffffffffffffffffffffffffffffffffffff1681526020018215151515815260200192505050600060405180830381600087803b158015612af457600080fd5b505af1158015612b08573d6000803e3d6000fd5b5050505050565b612b176162c3565b73ffffffffffffffffffffffffffffffffffffffff166000809054906101000a900473ffffffffffffffffffffffffffffffffffffffff1673ffffffffffffffffffffffffffffffffffffffff1614612bd8576040517f08c379a00000000000000000000000000000000000000000000000000000000081526004018080602001828103825260208152602001807f4f776e61626c653a2063616c6c6572206973206e6f7420746865206f776e657281525060200191505060405180910390fd5b612be0616697565b600d6000848152602001908152602001600020604051806101400160405290816000820160009054906101000a900473ffffffffffffffffffffffffffffffffffffffff1673ffffffffffffffffffffffffffffffffffffffff1673ffffffffffffffffffffffffffffffffffffffff1681526020016001820160009054906101000a900473ffffffffffffffffffffffffffffffffffffffff1673ffffffffffffffffffffffffffffffffffffffff1673ffffffffffffffffffffffffffffffffffffffff1681526020016002820154815260200160038201548152602001600482018054600181600116156101000203166002900480601f016020809104026020016040519081016040528092919081815260200182805460018160011615610100020316600290048015612d585780601f10612d2d57610100808354040283529160200191612d58565b820191906000526020600020905b815481529060010190602001808311612d3b57829003601f168201915b50505050508152602001600582015481526020016006820160009054906101000a900473ffffffffffffffffffffffffffffffffffffffff1673ffffffffffffffffffffffffffffffffffffffff1673ffffffffffffffffffffffffffffffffffffffff1681526020016007820154815260200160088201548152602001600982015481525050905060006060600360009054906101000a900473ffffffffffffffffffffffffffffffffffffffff1673ffffffffffffffffffffffffffffffffffffffff166370844249846080015160405180807f65786563757465457870656e7365626f6f6b0000000000000000000000000000815250601201905060405180910390206040518363ffffffff1660e01b81526004018080602001838152602001828103825284818151815260200191508051906020019080838360005b83811015612eb3578082015181840152602081019050612e98565b50505050905090810190601f168015612ee05780820380516001836020036101000a031916815260200191505b50935050505060006040518083038186803b158015612efe57600080fd5b505afa158015612f12573d6000803e3d6000fd5b505050506040513d6000823e3d601f19601f820116820180604052506040811015612f3c57600080fd5b810190808051906020019092919080516040519392919084640100000000821115612f6657600080fd5b83820191506020820185811115612f7c57600080fd5b8251866001820283011164010000000082111715612f9957600080fd5b8083526020830192505050908051906020019080838360005b83811015612fcd578082015181840152602081019050612fb2565b50505050905090810190601f168015612ffa5780820380516001836020036101000a031916815260200191505b50604052505050915091506060600d600087815260200190815260200160002060050154604051602401808281526020019150506040516020818303038152906040527f67bb1fcf000000000000000000000000000000000000000000000000000000007bffffffffffffffffffffffffffffffffffffffffffffffffffffffff19166020820180517bffffffffffffffffffffffffffffffffffffffffffffffffffffffff8381831617835250505050905060006060600560009054906101000a900473ffffffffffffffffffffffffffffffffffffffff1673ffffffffffffffffffffffffffffffffffffffff16836040518082805190602001908083835b6020831061311e57805182526020820191506020810190506020830392506130fb565b6001836020036101000a0380198251168184511680821785525050505050509050019150506000604051808303816000865af19150503d8060008114613180576040519150601f19603f3d011682016040523d82523d6000602084013e613185565b606091505b5091509150816131fd576040517f08c379a00000000000000000000000000000000000000000000000000000000081526004018080602001828103825260038152602001807f4f3233000000000000000000000000000000000000000000000000000000000081525060200191505060405180910390fd5b600081806020019051602081101561321457600080fd5b81019080805190602001909291905050509050600061325c600a5460640261324e8a61012001518b606001516162ef90919063ffffffff16565b61637590919063ffffffff16565b90506000613277838a6060015161644790919063ffffffff16565b9050876132ec576040517f08c379a00000000000000000000000000000000000000000000000000000000081526004018080602001828103825260028152602001807f4f3300000000000000000000000000000000000000000000000000000000000081525060200191505060405180910390fd5b6133118161330384866163bf90919063ffffffff16565b6163bf90919063ffffffff16565b8960e00151101561338a576040517f08c379a00000000000000000000000000000000000000000000000000000000081526004018080602001828103825260038152602001807f4f3233000000000000000000000000000000000000000000000000000000000081525060200191505060405180910390fd5b8860e00151600160009054906101000a900473ffffffffffffffffffffffffffffffffffffffff1673ffffffffffffffffffffffffffffffffffffffff166370a08231306040518263ffffffff1660e01b8152600401808273ffffffffffffffffffffffffffffffffffffffff1673ffffffffffffffffffffffffffffffffffffffff16815260200191505060206040518083038186803b15801561342e57600080fd5b505afa158015613442573d6000803e3d6000fd5b505050506040513d602081101561345857600080fd5b810190808051906020019092919050505010156134dd576040517f08c379a00000000000000000000000000000000000000000000000000000000081526004018080602001828103825260038152602001807f4f3139000000000000000000000000000000000000000000000000000000000081525060200191505060405180910390fd5b600d60008c8152602001908152602001600020600501548a60405160240180838152602001828152602001925050506040516020818303038152906040527f4388a9c0000000000000000000000000000000000000000000000000000000007bffffffffffffffffffffffffffffffffffffffffffffffffffffffff19166020820180517bffffffffffffffffffffffffffffffffffffffffffffffffffffffff83818316178352505050509550600560009054906101000a900473ffffffffffffffffffffffffffffffffffffffff1673ffffffffffffffffffffffffffffffffffffffff16866040518082805190602001908083835b602083106135f857805182526020820191506020810190506020830392506135d5565b6001836020036101000a0380198251168184511680821785525050505050509050019150506000604051808303816000865af19150503d806000811461365a576040519150601f19603f3d011682016040523d82523d6000602084013e61365f565b606091505b505050600160009054906101000a900473ffffffffffffffffffffffffffffffffffffffff1673ffffffffffffffffffffffffffffffffffffffff1663a9059cbb600560009054906101000a900473ffffffffffffffffffffffffffffffffffffffff16856040518363ffffffff1660e01b8152600401808373ffffffffffffffffffffffffffffffffffffffff1673ffffffffffffffffffffffffffffffffffffffff16815260200182815260200192505050602060405180830381600087803b15801561372d57600080fd5b505af1158015613741573d6000803e3d6000fd5b505050506040513d602081101561375757600080fd5b810190808051906020019092919050505050600160009054906101000a900473ffffffffffffffffffffffffffffffffffffffff1673ffffffffffffffffffffffffffffffffffffffff1663a9059cbb600660009054906101000a900473ffffffffffffffffffffffffffffffffffffffff16846040518363ffffffff1660e01b8152600401808373ffffffffffffffffffffffffffffffffffffffff1673ffffffffffffffffffffffffffffffffffffffff16815260200182815260200192505050602060405180830381600087803b15801561383457600080fd5b505af1158015613848573d6000803e3d6000fd5b505050506040513d602081101561385e57600080fd5b810190808051906020019092919050505050600160009054906101000a900473ffffffffffffffffffffffffffffffffffffffff1673ffffffffffffffffffffffffffffffffffffffff1663a9059cbb600660009054906101000a900473ffffffffffffffffffffffffffffffffffffffff16836040518363ffffffff1660e01b8152600401808373ffffffffffffffffffffffffffffffffffffffff1673ffffffffffffffffffffffffffffffffffffffff16815260200182815260200192505050602060405180830381600087803b15801561393b57600080fd5b505af115801561394f573d6000803e3d6000fd5b505050506040513d602081101561396557600080fd5b8101908080519060200190929190505050505050505050505050505050565b61398c616697565b600d6000848152602001908152602001600020604051806101400160405290816000820160009054906101000a900473ffffffffffffffffffffffffffffffffffffffff1673ffffffffffffffffffffffffffffffffffffffff1673ffffffffffffffffffffffffffffffffffffffff1681526020016001820160009054906101000a900473ffffffffffffffffffffffffffffffffffffffff1673ffffffffffffffffffffffffffffffffffffffff1673ffffffffffffffffffffffffffffffffffffffff1681526020016002820154815260200160038201548152602001600482018054600181600116156101000203166002900480601f016020809104026020016040519081016040528092919081815260200182805460018160011615610100020316600290048015613b045780601f10613ad957610100808354040283529160200191613b04565b820191906000526020600020905b815481529060010190602001808311613ae757829003601f168201915b50505050508152602001600582015481526020016006820160009054906101000a900473ffffffffffffffffffffffffffffffffffffffff1673ffffffffffffffffffffffffffffffffffffffff1673ffffffffffffffffffffffffffffffffffffffff1681526020016007820154815260200160088201548152602001600982015481525050905060006060600360009054906101000a900473ffffffffffffffffffffffffffffffffffffffff1673ffffffffffffffffffffffffffffffffffffffff166370844249846080015160405180807f6578706972655472616465000000000000000000000000000000000000000000815250600b01905060405180910390206040518363ffffffff1660e01b81526004018080602001838152602001828103825284818151815260200191508051906020019080838360005b83811015613c5f578082015181840152602081019050613c44565b50505050905090810190601f168015613c8c5780820380516001836020036101000a031916815260200191505b50935050505060006040518083038186803b158015613caa57600080fd5b505afa158015613cbe573d6000803e3d6000fd5b505050506040513d6000823e3d601f19601f820116820180604052506040811015613ce857600080fd5b810190808051906020019092919080516040519392919084640100000000821115613d1257600080fd5b83820191506020820185811115613d2857600080fd5b8251866001820283011164010000000082111715613d4557600080fd5b8083526020830192505050908051906020019080838360005b83811015613d79578082015181840152602081019050613d5e565b50505050905090810190601f168015613da65780820380516001836020036101000a031916815260200191505b506040525050509150915081613e24576040517f08c379a00000000000000000000000000000000000000000000000000000000081526004018080602001828103825260038152602001807f4f3231000000000000000000000000000000000000000000000000000000000081525060200191505060405180910390fd5b6000613eba600d6000888152602001908152602001600020600b0185608001516040518082805190602001908083835b60208310613e775780518252602082019150602081019050602083039250613e54565b6001836020036101000a0380198251168184511680821785525050505050509050019150509081526020016040518091039020548661644790919063ffffffff16565b9050600c54613ef96018613eeb603c613edd603c8761637590919063ffffffff16565b61637590919063ffffffff16565b61637590919063ffffffff16565b11613f6c576040517f08c379a00000000000000000000000000000000000000000000000000000000081526004018080602001828103825260038152602001807f4f3232000000000000000000000000000000000000000000000000000000000081525060200191505060405180910390fd5b81600d60008881526020019081526020016000206004019080519060200190613f9692919061672c565b5084600d6000888152602001908152602001600020600b01836040518082805190602001908083835b60208310613fe25780518252602082019150602081019050602083039250613fbf565b6001836020036101000a0380198251168184511680821785525050505050509050019150509081526020016040518091039020819055506000600e60008660400151815260200190815260200160002060006101000a81548160ff0219169083151502179055507f1cffbf78721f1394874a2ca49635a3941549d1f17edb7aee215cb4f4d2daa4a886836140746162c3565b600d60008b815260200190815260200160002060070154896040518086815260200180602001806020018673ffffffffffffffffffffffffffffffffffffffff1673ffffffffffffffffffffffffffffffffffffffff1681526020018581526020018481526020018381038352600b8152602001807f6578706972655472616465000000000000000000000000000000000000000000815250602001838103825287818151815260200191508051906020019080838360005b8381101561414857808201518184015260208101905061412d565b50505050905090810190601f1680156141755780820380516001836020036101000a031916815260200191505b5097505050505050505060405180910390a1505050505050565b6000806000806060600080600460009054906101000a900473ffffffffffffffffffffffffffffffffffffffff1673ffffffffffffffffffffffffffffffffffffffff166376b071866141e06162c3565b6040518263ffffffff1660e01b8152600401808273ffffffffffffffffffffffffffffffffffffffff1673ffffffffffffffffffffffffffffffffffffffff16815260200191505060206040518083038186803b15801561424057600080fd5b505afa158015614254573d6000803e3d6000fd5b505050506040513d602081101561426a57600080fd5b81019080805190602001909291905050506142ed576040517f08c379a00000000000000000000000000000000000000000000000000000000081526004018080602001828103825260028152602001807f4f3100000000000000000000000000000000000000000000000000000000000081525060200191505060405180910390fd5b6142f5616697565b600d60008a8152602001908152602001600020604051806101400160405290816000820160009054906101000a900473ffffffffffffffffffffffffffffffffffffffff1673ffffffffffffffffffffffffffffffffffffffff1673ffffffffffffffffffffffffffffffffffffffff1681526020016001820160009054906101000a900473ffffffffffffffffffffffffffffffffffffffff1673ffffffffffffffffffffffffffffffffffffffff1673ffffffffffffffffffffffffffffffffffffffff1681526020016002820154815260200160038201548152602001600482018054600181600116156101000203166002900480601f01602080910402602001604051908101604052809291908181526020018280546001816001161561010002031660029004801561446d5780601f106144425761010080835404028352916020019161446d565b820191906000526020600020905b81548152906001019060200180831161445057829003601f168201915b50505050508152602001600582015481526020016006820160009054906101000a900473ffffffffffffffffffffffffffffffffffffffff1673ffffffffffffffffffffffffffffffffffffffff1673ffffffffffffffffffffffffffffffffffffffff1681526020016007820154815260200160088201548152602001600982015481525050905080600001518160c001518260400151836060015184608001518561010001518660e00151829250975097509750975097509750975050919395979092949650565b6000614541616697565b600d6000868152602001908152602001600020604051806101400160405290816000820160009054906101000a900473ffffffffffffffffffffffffffffffffffffffff1673ffffffffffffffffffffffffffffffffffffffff1673ffffffffffffffffffffffffffffffffffffffff1681526020016001820160009054906101000a900473ffffffffffffffffffffffffffffffffffffffff1673ffffffffffffffffffffffffffffffffffffffff1673ffffffffffffffffffffffffffffffffffffffff1681526020016002820154815260200160038201548152602001600482018054600181600116156101000203166002900480601f0160208091040260200160405190810160405280929190818152602001828054600181600116156101000203166002900480156146b95780601f1061468e576101008083540402835291602001916146b9565b820191906000526020600020905b81548152906001019060200180831161469c57829003601f168201915b50505050508152602001600582015481526020016006820160009054906101000a900473ffffffffffffffffffffffffffffffffffffffff1673ffffffffffffffffffffffffffffffffffffffff1673ffffffffffffffffffffffffffffffffffffffff1681526020016007820154815260200160088201548152602001600982015481525050905060006060600360009054906101000a900473ffffffffffffffffffffffffffffffffffffffff1673ffffffffffffffffffffffffffffffffffffffff166370844249846080015160405180807f6578656375746554726164650000000000000000000000000000000000000000815250600c01905060405180910390206040518363ffffffff1660e01b81526004018080602001838152602001828103825284818151815260200191508051906020019080838360005b838110156148145780820151818401526020810190506147f9565b50505050905090810190601f1680156148415780820380516001836020036101000a031916815260200191505b50935050505060006040518083038186803b15801561485f57600080fd5b505afa158015614873573d6000803e3d6000fd5b505050506040513d6000823e3d601f19601f82011682018060405250604081101561489d57600080fd5b8101908080519060200190929190805160405193929190846401000000008211156148c757600080fd5b838201915060208201858111156148dd57600080fd5b82518660018202830111640100000000821117156148fa57600080fd5b8083526020830192505050908051906020019080838360005b8381101561492e578082015181840152602081019050614913565b50505050905090810190601f16801561495b5780820380516001836020036101000a031916815260200191505b5060405250505091509150816149d9576040517f08c379a00000000000000000000000000000000000000000000000000000000081526004018080602001828103825260028152602001807f4f3300000000000000000000000000000000000000000000000000000000000081525060200191505060405180910390fd5b600160009054906101000a900473ffffffffffffffffffffffffffffffffffffffff1673ffffffffffffffffffffffffffffffffffffffff16614a1a6162c3565b73ffffffffffffffffffffffffffffffffffffffff1614614aa3576040517f08c379a00000000000000000000000000000000000000000000000000000000081526004018080602001828103825260038152602001807f4f3137000000000000000000000000000000000000000000000000000000000081525060200191505060405180910390fd5b6000614ae9600a54606402614adb600d60008c81526020019081526020016000206009015487606001516162ef90919063ffffffff16565b61637590919063ffffffff16565b90506000614b1682600d60008c8152602001908152602001600020600301546163bf90919063ffffffff16565b9050614b4188600d60008c8152602001908152602001600020600701546163bf90919063ffffffff16565b600d60008b81526020019081526020016000206007018190555080600d60008b81526020019081526020016000206007015410614eb757600260009054906101000a900473ffffffffffffffffffffffffffffffffffffffff1673ffffffffffffffffffffffffffffffffffffffff166323b872dd30600d60008d815260200190815260200160002060060160009054906101000a900473ffffffffffffffffffffffffffffffffffffffff1688604001516040518463ffffffff1660e01b8152600401808473ffffffffffffffffffffffffffffffffffffffff1673ffffffffffffffffffffffffffffffffffffffff1681526020018373ffffffffffffffffffffffffffffffffffffffff1673ffffffffffffffffffffffffffffffffffffffff1681526020018281526020019350505050600060405180830381600087803b158015614c8f57600080fd5b505af1158015614ca3573d6000803e3d6000fd5b505050506040518060400160405280600481526020017f4558454300000000000000000000000000000000000000000000000000000000815250600d60008b81526020019081526020016000206004019080519060200190614d0692919061672c565b5086600d60008b8152602001908152602001600020600b0160405180807f455845430000000000000000000000000000000000000000000000000000000081525060040190509081526020016040518091039020819055506000600e60008760400151815260200190815260200160002060006101000a81548160ff0219169083151502179055507f1cffbf78721f1394874a2ca49635a3941549d1f17edb7aee215cb4f4d2daa4a889614db86162c3565b8a8a6040518085815260200180602001806020018673ffffffffffffffffffffffffffffffffffffffff1673ffffffffffffffffffffffffffffffffffffffff1681526020018581526020018481526020018381038352600c8152602001807f6578656375746554726164650000000000000000000000000000000000000000815250602001838103825260048152602001807f4558454300000000000000000000000000000000000000000000000000000000815250602001965050505050505060405180910390a1614eab81600d60008c81526020019081526020016000206007015461644790919063ffffffff16565b955050505050506150bd565b82600d60008b81526020019081526020016000206004019080519060200190614ee192919061672c565b5086600d60008b8152602001908152602001600020600b01846040518082805190602001908083835b60208310614f2d5780518252602082019150602081019050602083039250614f0a565b6001836020036101000a0380198251168184511680821785525050505050509050019150509081526020016040518091039020819055507f1cffbf78721f1394874a2ca49635a3941549d1f17edb7aee215cb4f4d2daa4a88984614f8f6162c3565b8b8b6040518086815260200180602001806020018673ffffffffffffffffffffffffffffffffffffffff1673ffffffffffffffffffffffffffffffffffffffff1681526020018581526020018481526020018381038352600c8152602001807f6578656375746554726164650000000000000000000000000000000000000000815250602001838103825287818151815260200191508051906020019080838360005b8381101561504d578082015181840152602081019050615032565b50505050905090810190601f16801561507a5780820380516001836020036101000a031916815260200191505b5097505050505050505060405180910390a16150b5600d60008b8152602001908152602001600020600701548261644790919063ffffffff16565b955050505050505b9392505050565b6150cc6162c3565b73ffffffffffffffffffffffffffffffffffffffff166000809054906101000a900473ffffffffffffffffffffffffffffffffffffffff1673ffffffffffffffffffffffffffffffffffffffff161461518d576040517f08c379a00000000000000000000000000000000000000000000000000000000081526004018080602001828103825260208152602001807f4f776e61626c653a2063616c6c6572206973206e6f7420746865206f776e657281525060200191505060405180910390fd5b80600a8190555050565b6000600a54905090565b6151a96162c3565b73ffffffffffffffffffffffffffffffffffffffff166000809054906101000a900473ffffffffffffffffffffffffffffffffffffffff1673ffffffffffffffffffffffffffffffffffffffff161461526a576040517f08c379a00000000000000000000000000000000000000000000000000000000081526004018080602001828103825260208152602001807f4f776e61626c653a2063616c6c6572206973206e6f7420746865206f776e657281525060200191505060405180910390fd5b80600260006101000a81548173ffffffffffffffffffffffffffffffffffffffff021916908373ffffffffffffffffffffffffffffffffffffffff16021790555050565b6152b66162c3565b73ffffffffffffffffffffffffffffffffffffffff166000809054906101000a900473ffffffffffffffffffffffffffffffffffffffff1673ffffffffffffffffffffffffffffffffffffffff1614615377576040517f08c379a00000000000000000000000000000000000000000000000000000000081526004018080602001828103825260208152602001807f4f776e61626c653a2063616c6c6572206973206e6f7420746865206f776e657281525060200191505060405180910390fd5b80600360006101000a81548173ffffffffffffffffffffffffffffffffffffffff021916908373ffffffffffffffffffffffffffffffffffffffff16021790555050565b6000600b54905090565b6153cd6162c3565b73ffffffffffffffffffffffffffffffffffffffff166000809054906101000a900473ffffffffffffffffffffffffffffffffffffffff1673ffffffffffffffffffffffffffffffffffffffff161461548e576040517f08c379a00000000000000000000000000000000000000000000000000000000081526004018080602001828103825260208152602001807f4f776e61626c653a2063616c6c6572206973206e6f7420746865206f776e657281525060200191505060405180910390fd5b600073ffffffffffffffffffffffffffffffffffffffff166000809054906101000a900473ffffffffffffffffffffffffffffffffffffffff1673ffffffffffffffffffffffffffffffffffffffff167f8be0079c531659141344cd1fd0a4f28419497f9722a3daafe3b4186f6b6457e060405160405180910390a360008060006101000a81548173ffffffffffffffffffffffffffffffffffffffff021916908373ffffffffffffffffffffffffffffffffffffffff160217905550565b6155556162c3565b73ffffffffffffffffffffffffffffffffffffffff166000809054906101000a900473ffffffffffffffffffffffffffffffffffffffff1673ffffffffffffffffffffffffffffffffffffffff1614615616576040517f08c379a00000000000000000000000000000000000000000000000000000000081526004018080602001828103825260208152602001807f4f776e61626c653a2063616c6c6572206973206e6f7420746865206f776e657281525060200191505060405180910390fd5b600160009054906101000a900473ffffffffffffffffffffffffffffffffffffffff1673ffffffffffffffffffffffffffffffffffffffff1663095ea7b361565c615adf565b60006040518363ffffffff1660e01b8152600401808373ffffffffffffffffffffffffffffffffffffffff1673ffffffffffffffffffffffffffffffffffffffff16815260200182815260200192505050602060405180830381600087803b1580156156c757600080fd5b505af11580156156db573d6000803e3d6000fd5b505050506040513d60208110156156f157600080fd5b810190808051906020019092919050505050600160009054906101000a900473ffffffffffffffffffffffffffffffffffffffff1673ffffffffffffffffffffffffffffffffffffffff166339509351615749615adf565b836040518363ffffffff1660e01b8152600401808373ffffffffffffffffffffffffffffffffffffffff1673ffffffffffffffffffffffffffffffffffffffff16815260200182815260200192505050602060405180830381600087803b1580156157b357600080fd5b505af11580156157c7573d6000803e3d6000fd5b505050506040513d60208110156157dd57600080fd5b81019080805190602001909291905050505050565b6157fa6162c3565b73ffffffffffffffffffffffffffffffffffffffff166000809054906101000a900473ffffffffffffffffffffffffffffffffffffffff1673ffffffffffffffffffffffffffffffffffffffff16146158bb576040517f08c379a00000000000000000000000000000000000000000000000000000000081526004018080602001828103825260208152602001807f4f776e61626c653a2063616c6c6572206973206e6f7420746865206f776e657281525060200191505060405180910390fd5b80600160006101000a81548173ffffffffffffffffffffffffffffffffffffffff021916908373ffffffffffffffffffffffffffffffffffffffff16021790555050565b6159076162c3565b73ffffffffffffffffffffffffffffffffffffffff166000809054906101000a900473ffffffffffffffffffffffffffffffffffffffff1673ffffffffffffffffffffffffffffffffffffffff16146159c8576040517f08c379a00000000000000000000000000000000000000000000000000000000081526004018080602001828103825260208152602001807f4f776e61626c653a2063616c6c6572206973206e6f7420746865206f776e657281525060200191505060405180910390fd5b80600460006101000a81548173ffffffffffffffffffffffffffffffffffffffff021916908373ffffffffffffffffffffffffffffffffffffffff16021790555050565b615a146162c3565b73ffffffffffffffffffffffffffffffffffffffff166000809054906101000a900473ffffffffffffffffffffffffffffffffffffffff1673ffffffffffffffffffffffffffffffffffffffff1614615ad5576040517f08c379a00000000000000000000000000000000000000000000000000000000081526004018080602001828103825260208152602001807f4f776e61626c653a2063616c6c6572206973206e6f7420746865206f776e657281525060200191505060405180910390fd5b80600b8190555050565b60008060009054906101000a900473ffffffffffffffffffffffffffffffffffffffff16905090565b615b106162c3565b73ffffffffffffffffffffffffffffffffffffffff166000809054906101000a900473ffffffffffffffffffffffffffffffffffffffff1673ffffffffffffffffffffffffffffffffffffffff1614615bd1576040517f08c379a00000000000000000000000000000000000000000000000000000000081526004018080602001828103825260208152602001807f4f776e61626c653a2063616c6c6572206973206e6f7420746865206f776e657281525060200191505060405180910390fd5b3073ffffffffffffffffffffffffffffffffffffffff16600260009054906101000a900473ffffffffffffffffffffffffffffffffffffffff1673ffffffffffffffffffffffffffffffffffffffff16636352211e836040518263ffffffff1660e01b81526004018082815260200191505060206040518083038186803b158015615c5b57600080fd5b505afa158015615c6f573d6000803e3d6000fd5b505050506040513d6020811015615c8557600080fd5b810190808051906020019092919050505073ffffffffffffffffffffffffffffffffffffffff1614615d1f576040517f08c379a00000000000000000000000000000000000000000000000000000000081526004018080602001828103825260038152602001807f4f3135000000000000000000000000000000000000000000000000000000000081525060200191505060405180910390fd5b600260009054906101000a900473ffffffffffffffffffffffffffffffffffffffff1673ffffffffffffffffffffffffffffffffffffffff166323b872dd30615d666162c3565b846040518463ffffffff1660e01b8152600401808473ffffffffffffffffffffffffffffffffffffffff1673ffffffffffffffffffffffffffffffffffffffff1681526020018373ffffffffffffffffffffffffffffffffffffffff1673ffffffffffffffffffffffffffffffffffffffff1681526020018281526020019350505050600060405180830381600087803b158015615e0357600080fd5b505af1158015615e17573d6000803e3d6000fd5b5050505050565b60006001615e2c60076162e1565b03905090565b6000806000806000615e426162c3565b73ffffffffffffffffffffffffffffffffffffffff166000809054906101000a900473ffffffffffffffffffffffffffffffffffffffff1673ffffffffffffffffffffffffffffffffffffffff1614615f03576040517f08c379a00000000000000000000000000000000000000000000000000000000081526004018080602001828103825260208152602001807f4f776e61626c653a2063616c6c6572206973206e6f7420746865206f776e657281525060200191505060405180910390fd5b600160009054906101000a900473ffffffffffffffffffffffffffffffffffffffff16600260009054906101000a900473ffffffffffffffffffffffffffffffffffffffff16600460009054906101000a900473ffffffffffffffffffffffffffffffffffffffff16600360009054906101000a900473ffffffffffffffffffffffffffffffffffffffff16600560009054906101000a900473ffffffffffffffffffffffffffffffffffffffff16945094509450945094509091929394565b615fcb6162c3565b73ffffffffffffffffffffffffffffffffffffffff166000809054906101000a900473ffffffffffffffffffffffffffffffffffffffff1673ffffffffffffffffffffffffffffffffffffffff161461608c576040517f08c379a00000000000000000000000000000000000000000000000000000000081526004018080602001828103825260208152602001807f4f776e61626c653a2063616c6c6572206973206e6f7420746865206f776e657281525060200191505060405180910390fd5b8060098190555050565b600e6020528060005260406000206000915054906101000a900460ff1681565b6160be6162c3565b73ffffffffffffffffffffffffffffffffffffffff166000809054906101000a900473ffffffffffffffffffffffffffffffffffffffff1673ffffffffffffffffffffffffffffffffffffffff161461617f576040517f08c379a00000000000000000000000000000000000000000000000000000000081526004018080602001828103825260208152602001807f4f776e61626c653a2063616c6c6572206973206e6f7420746865206f776e657281525060200191505060405180910390fd5b600073ffffffffffffffffffffffffffffffffffffffff168173ffffffffffffffffffffffffffffffffffffffff161415616205576040517f08c379a00000000000000000000000000000000000000000000000000000000081526004018080602001828103825260268152602001806167d26026913960400191505060405180910390fd5b8073ffffffffffffffffffffffffffffffffffffffff166000809054906101000a900473ffffffffffffffffffffffffffffffffffffffff1673ffffffffffffffffffffffffffffffffffffffff167f8be0079c531659141344cd1fd0a4f28419497f9722a3daafe3b4186f6b6457e060405160405180910390a3806000806101000a81548173ffffffffffffffffffffffffffffffffffffffff021916908373ffffffffffffffffffffffffffffffffffffffff16021790555050565b600033905090565b6001816000016000828254019250508190555050565b600081600001549050919050565b600080831415616302576000905061636f565b600082840290508284828161631357fe5b041461636a576040517f08c379a00000000000000000000000000000000000000000000000000000000081526004018080602001828103825260218152602001806167f86021913960400191505060405180910390fd5b809150505b92915050565b60006163b783836040518060400160405280601a81526020017f536166654d6174683a206469766973696f6e206279207a65726f000000000000815250616491565b905092915050565b60008082840190508381101561643d576040517f08c379a000000000000000000000000000000000000000000000000000000000815260040180806020018281038252601b8152602001807f536166654d6174683a206164646974696f6e206f766572666c6f77000000000081525060200191505060405180910390fd5b8091505092915050565b600061648983836040518060400160405280601e81526020017f536166654d6174683a207375627472616374696f6e206f766572666c6f770000815250616557565b905092915050565b6000808311829061653d576040517f08c379a00000000000000000000000000000000000000000000000000000000081526004018080602001828103825283818151815260200191508051906020019080838360005b838110156165025780820151818401526020810190506164e7565b50505050905090810190601f16801561652f5780820380516001836020036101000a031916815260200191505b509250505060405180910390fd5b50600083858161654957fe5b049050809150509392505050565b6000838311158290616604576040517f08c379a00000000000000000000000000000000000000000000000000000000081526004018080602001828103825283818151815260200191508051906020019080838360005b838110156165c95780820151818401526020810190506165ae565b50505050905090810190601f1680156165f65780820380516001836020036101000a031916815260200191505b509250505060405180910390fd5b5060008385039050809150509392505050565b828054600181600116156101000203166002900490600052602060002090601f016020900481019282601f1061665857805160ff1916838001178555616686565b82800160010185558215616686579182015b8281111561668557825182559160200191906001019061666a565b5b50905061669391906167ac565b5090565b604051806101400160405280600073ffffffffffffffffffffffffffffffffffffffff168152602001600073ffffffffffffffffffffffffffffffffffffffff16815260200160008152602001600081526020016060815260200160008152602001600073ffffffffffffffffffffffffffffffffffffffff1681526020016000815260200160008152602001600081525090565b828054600181600116156101000203166002900490600052602060002090601f016020900481019282601f1061676d57805160ff191683800117855561679b565b8280016001018555821561679b579182015b8281111561679a57825182559160200191906001019061677f565b5b5090506167a891906167ac565b5090565b6167ce91905b808211156167ca5760008160009055506001016167b2565b5090565b9056fe4f776e61626c653a206e6577206f776e657220697320746865207a65726f2061646472657373536166654d6174683a206d756c7469706c69636174696f6e206f766572666c6f77a2646970667358221220dd9e29c7af4971904bb036081258fedb1b63cd7b4e17701d89b5a51847293d2f64736f6c63430006020033",
  "source": "pragma solidity ^0.6.0;\n//import \"https://github.com/OpenZeppelin/openzeppelin-contracts/blob/master/contracts/access/Ownable.sol\";\n//import \"https://github.com/OpenZeppelin/openzeppelin-contracts/blob/master/contracts/token/ERC721/ERC721.sol\";\n//import \"https://github.com/OpenZeppelin/openzeppelin-contracts/blob/master/contracts/token/ERC721/ERC721Holder.sol\";\n//import \"https://github.com/OpenZeppelin/openzeppelin-contracts/blob/master/contracts/token/ERC20/ERC20.sol\";\n//import \"https://github.com/OpenZeppelin/openzeppelin-contracts/blob/master/contracts/utils/Counters.sol\";\n//import \"https://github.com/OpenZeppelin/openzeppelin-contracts/blob/master/contracts/math/SafeMath.sol\";\n\n\nimport \"openzeppelin-solidity/contracts/access/Ownable.sol\";\nimport \"openzeppelin-solidity/contracts/token/ERC721/ERC721.sol\";\nimport \"openzeppelin-solidity/contracts/token/ERC721/ERC721Holder.sol\";\nimport \"openzeppelin-solidity/contracts/utils/Counters.sol\";\nimport \"openzeppelin-solidity/contracts/math/SafeMath.sol\";\n\n\nimport \"./compliance.sol\";\nimport \"./stateMachine.sol\";\nimport \"./paymentBook.sol\";\n\ncontract Orderbook is Ownable {\n    event TradeStatusChange(uint256 ad,string action,string status,address b,uint256 p,uint256 d);\n    event NewTrade(uint256 t, address seller, uint256 itemID,uint256 p,uint256 o,uint256 m,uint256 _datetime);\n    using Counters for Counters.Counter;\n    using SafeMath for uint256;\n    \n    PaymentBook paymentbook;\n    ERC721 diamondToken;\n    StateMachine statemachine;\n    Compliance compliance;\n    address expensebook;\n    address platform;\n    Counters.Counter private _tradeID;\n    Counters.Counter private _salesID;\n    uint256 fixdeposit=0;\n    uint256 feespercentage_decimal = 100;\n    uint256 depositpercentage = 3;\n    uint256 expiryday = 3;\n    \n    struct Trade{\n        \n        address seller;\n        address owner;\n        uint256 item;\n        uint256 price;\n        string status;\n        uint256 orderid;\n        address buyer;\n        uint256 payment;\n        uint256 mindeposit;\n        uint256 feespercentage;\n        mapping(uint256 => uint256) paymentbookid;\n        mapping(string => uint256) stateChange;\n        \n    }\n    \n   \n    \n    mapping(uint256 => Trade) private trades;\n    mapping(uint256 => bool) public isopen;\n    mapping(uint256 => uint256) private salesTrademap;\n    \n    constructor (address _paymentbook, address _itemTokenAddress,address _compliance , address _statemachine, address _platform) public virtual\n    {\n        \n        paymentbook = PaymentBook(_paymentbook);\n        diamondToken = ERC721(_itemTokenAddress);\n        compliance = Compliance(_compliance);\n        statemachine = StateMachine(_statemachine);\n        _tradeID.increment();\n        platform=_platform;\n        _salesID.increment();\n        if(_platform==address(0)){\n            platform=address(this);\n        }\n\n    }\n    \n    function setexpensebook(address _add) public onlyOwner\n    {\n        expensebook = _add;\n        diamondToken.setApprovalForAll(_add,true);\n    }\n    \n    function setfixdeposit(uint256 _amount) public onlyOwner\n    {\n        fixdeposit = _amount;\n    }\n    \n    function setpaymentbook(address _add) public onlyOwner\n    {\n        paymentbook = PaymentBook(_add);\n    }\n    \n    function setdiamondtoken(address _add) public onlyOwner\n    {\n        diamondToken = ERC721(_add);\n    }\n    \n    function setcompliance(address _add) public onlyOwner\n    {\n        compliance = Compliance(_add);\n    }\n    \n    function setstatemachine(address _add) public onlyOwner\n    {\n        statemachine = StateMachine(_add);  \n    }\n    \n    function getAllContractInfo() public onlyOwner view\n        returns(address, address , address , address , address )\n    {\n        return (address(paymentbook),address(diamondToken),address(compliance),address(statemachine),expensebook);\n    }\n    \n    function getTradeCount() public view \n        returns (uint256 c)\n    {\n        return _tradeID.current() - 1;\n    }\n    \n    function getTrade(uint256 _trade) public virtual view\n        returns(address, address, uint256, uint256, string memory,uint256, uint256)\n    {\n        require(compliance.isPass(_msgSender()), \"O1\");\n        Trade memory trade = trades[_trade];\n        return (trade.seller,trade.buyer, trade.item, trade.price, trade.status,trade.mindeposit,trade.payment);\n    }\n    \n    function setfeespercentage_decimal(uint256 u) public onlyOwner{\n            feespercentage_decimal=u;\n    }\n    \n    function getfeespercentage_decimal() public view\n    returns (uint256)\n    {\n        return feespercentage_decimal;\n    }\n        \n \n    function setindividualDeposit(uint256 _tradeid,uint256 _deposit) public{\n        require(_msgSender()==expensebook, \"O12\");\n        require(_deposit > trades[_tradeid].mindeposit && _deposit < trades[_tradeid].price,\"O13\");\n        trades[_tradeid].mindeposit = _deposit;\n    }\n\n    \n    function getdepositpercentage() public view\n    returns (uint256)\n    {\n        return depositpercentage;\n    }\n     \n    function setdepositpercentage(uint256 u) public onlyOwner{\n            depositpercentage = u;\n    }\n\n    \n    function openTrade(uint256 _itemID, address _owner, uint256 _price,uint256 _orderid, uint256 _datetime) public virtual\n        returns (uint256 tradeid)\n    {\n        require(_msgSender()==expensebook || _msgSender()==owner(), \"O2\");\n        require( _price > 0 , \"O14\" );\n        address source = diamondToken.ownerOf(_itemID);\n        require(source==expensebook || source==_owner,\"O18\");\n        isopen[_itemID]=true;\n        _tradeID.increment();\n        uint256 currentID = _tradeID.current()-1;\n        diamondToken.transferFrom(source, address(this), _itemID);\n        //uint256 newtrade = _tradeID.current();\n        uint256 _mindeposit = (fixdeposit>0)?fixdeposit:_price.mul(depositpercentage).div(100);\n        trades[currentID] = Trade({\n            seller: _msgSender(),\n            owner : _owner,\n            item: _itemID,\n            price: _price,\n            status: \"OPEN\",\n            orderid : _orderid,\n            buyer : address(0),\n            payment : 0,\n            mindeposit : _mindeposit,\n            feespercentage : 0\n        });\n        \n        trades[currentID].stateChange[\"OPEN\"]=_datetime;\n    \n        emit NewTrade(currentID,_msgSender(),_itemID,_price,_orderid,_mindeposit,_datetime);\n        return currentID;\n    }\n    \n    function markTrade(uint256 _trade,uint256 _feespercentage, uint256 _datetime,bool _fullpay,uint8 _paymenttype) public\n    returns(uint256 paymnentid,uint256 amount)\n    {\n        Trade memory trade = trades[_trade];\n        (bool exist,string memory nextstate) = statemachine.transitionExists(trade.status,bytes32(keccak256(\"markTrade\")));\n        //profile checking\n        require(exist , \"O3\");\n        require(compliance.isPass(_msgSender()), \"O4\");\n        require(trade.owner!=_msgSender(),\"O17\");\n        trades[_trade].status = nextstate;\n        trades[_trade].feespercentage = _feespercentage;\n        trades[_trade].stateChange[nextstate]=_datetime;\n        trades[_trade].buyer=_msgSender();\n        uint256 fees = (trade.price.mul( _feespercentage)).div(100*feespercentage_decimal);\n        emit TradeStatusChange(_trade,\"markTrade\", nextstate,_msgSender(),0,_datetime);\n  \n        \n        if(_fullpay){\n             trades[_trade].paymentbookid[0] = paymentbook.addpayment(_trade,fees.add(trade.price),_msgSender(),_paymenttype,0,_datetime);\n            return (trades[_trade].paymentbookid[0],fees.add(trade.price));\n        }else{\n           \n            trades[_trade].paymentbookid[0] = paymentbook.addpayment(_trade,fees.add(trade.mindeposit),_msgSender(),_paymenttype,0,_datetime);\n            trades[_trade].paymentbookid[1] = paymentbook.addpayment(_trade,trade.price.sub(trade.mindeposit),_msgSender(),0,1,_datetime);\n            return (trades[_trade].paymentbookid[0],fees.add(trade.mindeposit));\n        }\n    }\n    \n    function executeTrade(uint256 _trade, uint256 _payment, uint256 _datetime)\n        public\n        virtual\n        returns (uint256)\n    {\n        Trade memory trade = trades[_trade];\n        (bool exist,string memory nextstate) = statemachine.transitionExists(trade.status,bytes32(keccak256(\"executeTrade\")));\n        //profile checking\n        require(exist , \"O3\");\n        require(_msgSender()==address(paymentbook),\"O17\");\n        uint256 fees = (trade.price.mul(trades[_trade].feespercentage)).div(100*feespercentage_decimal);\n        uint256 totalamount = trades[_trade].price.add(fees);\n        trades[_trade].payment=trades[_trade].payment.add(_payment);\n        if(trades[_trade].payment>=totalamount){\n            diamondToken.transferFrom(address(this),trades[_trade].buyer, trade.item);\n            trades[_trade].status = \"EXEC\";  \n            trades[_trade].stateChange[\"EXEC\"]=_datetime;\n            isopen[trade.item]=false;\n            emit TradeStatusChange(_trade,\"executeTrade\",\"EXEC\",_msgSender(),_payment,_datetime);\n            return trades[_trade].payment.sub(totalamount);\n           \n        }else{\n            trades[_trade].status = nextstate;\n            trades[_trade].stateChange[nextstate]=_datetime;\n            emit TradeStatusChange(_trade,\"executeTrade\",nextstate,_msgSender(),_payment,_datetime);\n            return totalamount.sub(trades[_trade].payment);\n        }\n       \n    }\n    \n    function setAllowanceOwner(uint256 _amount) public onlyOwner{\n        paymentbook.approve(owner(),0);\n        paymentbook.increaseAllowance(owner(), _amount);\n        \n    }\n    \n    function executeExpensebook(uint256 _trade,uint256 _datetime) public onlyOwner\n    {\n        Trade memory trade = trades[_trade];\n        (bool exist,string memory nextstate) = statemachine.transitionExists(trade.status,bytes32(keccak256(\"executeExpensebook\")));\n        bytes memory payload = abi.encodeWithSignature(\"getOrderAmount(uint256)\",trades[_trade].orderid);\n        (bool success, bytes memory result) = expensebook.call(payload);\n        require(success,\"O23\");\n        uint256 payamount = abi.decode(result, (uint256));\n        uint256 fees = (trade.price.mul(trade.feespercentage)).div(100*feespercentage_decimal);\n        uint256 profit = trade.price.sub(payamount);\n        //profile checking\n        require(exist , \"O3\");\n        //require(_msgSender()==address(paymentbook),\"O20\");\n        require(trade.payment>=payamount.add(fees).add(profit),\"O23\");\n        require(paymentbook.balanceOf(address(this))>=trade.payment,\"O19\");\n\n        payload = abi.encodeWithSignature(\"fullFillTrade(uint256,uint256)\",trades[_trade].orderid,_datetime);\n        expensebook.call(payload);\n        paymentbook.transfer(expensebook,payamount);\n        paymentbook.transfer(platform,fees);\n        paymentbook.transfer(platform,profit);\n        \n    }\n\n    function cancelTrade(uint256 _trade,uint256 _datetime,bool return2owner)\n        public\n        virtual\n    {\n        Trade memory trade = trades[_trade];\n        require(_msgSender() == trade.seller || _msgSender() == trade.buyer,\"O10\");\n        (bool exist,string memory nextstate) = statemachine.transitionExists(trade.status,bytes32(keccak256(\"cancelTrade\")));\n        require(exist , \"O11\");\n        address destination = return2owner?trade.owner:trade.seller;\n        diamondToken.transferFrom(address(this), destination, trade.item);\n        trades[_trade].status = nextstate;\n        trades[_trade].stateChange[nextstate]=_datetime;\n        isopen[trade.item]=false;\n        emit TradeStatusChange(_trade,\"cancelTrade\",nextstate,_msgSender(),0,_datetime);\n    }\n    \n    \n    function expireTrade(uint256 _trade,uint256 _datetime) public{\n        Trade memory trade = trades[_trade];\n        (bool exist,string memory nextstate) = statemachine.transitionExists(trade.status,bytes32(keccak256(\"expireTrade\")));\n        require(exist , \"O21\");\n        uint256 diff = _datetime.sub(trades[_trade].stateChange[trade.status]);\n        require(diff.div(60).div(60).div(24)>expiryday,\"O22\");\n        trades[_trade].status = nextstate;\n        trades[_trade].stateChange[nextstate]=_datetime;\n        isopen[trade.item]=false;\n        emit TradeStatusChange(_trade,\"expireTrade\",nextstate,_msgSender(),trades[_trade].payment,_datetime);\n        \n    }\n    \n    \n    \n    function withdrawDiamonToken(uint256 _itemid) public onlyOwner {\n        require(diamondToken.ownerOf(_itemid)==address(this),\"O15\");\n        diamondToken.transferFrom(address(this),_msgSender(),_itemid);\n    }\n    \n    \n    \n    \n\n}\n",
  "sourcePath": "/home/dickchan/ERC721Marketplace/contracts/orderbook.sol",
  "compiler": {
    "name": "solc",
    "version": "0.6.2+commit.bacdbe57.Emscripten.clang"
  },
  "schemaVersion": "3.2.3",
  "updatedAt": "2020-10-28T06:06:48.739Z",
  "devdoc": {
    "methods": {
      "owner()": {
        "details": "Returns the address of the current owner."
      },
      "renounceOwnership()": {
        "details": "Leaves the contract without owner. It will not be possible to call `onlyOwner` functions anymore. Can only be called by the current owner.     * NOTE: Renouncing ownership will leave the contract without an owner, thereby removing any functionality that is only available to the owner."
      },
      "transferOwnership(address)": {
        "details": "Transfers ownership of the contract to a new account (`newOwner`). Can only be called by the current owner."
      }
    }
  },
  "userdoc": {
    "methods": {}
  }
}