{
  "contractName": "orderBookDS",
  "abi": [
    {
      "inputs": [
        {
          "internalType": "uint256",
          "name": "",
          "type": "uint256"
        }
      ],
      "name": "isopen",
      "outputs": [
        {
          "internalType": "bool",
          "name": "",
          "type": "bool"
        }
      ],
      "stateMutability": "view",
      "type": "function"
    }
  ],
  "bytecode": "0x6080604052348015600f57600080fd5b5060c68061001e6000396000f3fe6080604052348015600f57600080fd5b506004361060285760003560e01c8063c70acf7a14602d575b600080fd5b605660048036036020811015604157600080fd5b81019080803590602001909291905050506070565b604051808215151515815260200191505060405180910390f35b600f6020528060005260406000206000915054906101000a900460ff168156fea26469706673582212202d2c7c862c244072e9984ddcd784229bbd6bb9fa672781c443e69af8080be6c164736f6c63430006020033",
  "source": "pragma solidity ^0.6.0;\n\nimport \"openzeppelin-solidity/contracts/math/SafeMath.sol\";\nimport \"openzeppelin-solidity/contracts/utils/Address.sol\";\nimport \"openzeppelin-solidity/contracts/utils/Counters.sol\";\nimport \"./stateMachine.sol\";\nimport \"../utils/access.sol\";\nimport \"openzeppelin-solidity/contracts/token/ERC721/ERC721.sol\";\nimport \"../utils/erc721DirectoryLookup.sol\";\n\n\n//contract expenseBook is  AccessControl, GSNRecipient {\n\ncontract orderBookDS is Access{   \n    using Counters for Counters.Counter;\n    using SafeMath for uint256;\n    using Address for address;\n\n    address expensebook;\n    address bookkeepingtoken;\n    address contractfactory;\n    address account_receivable;\n    address platform;\n    address platformfees;\n    StateMachine statemachine;\n    erc721DirectoryService lookup;\n    uint256 fixdeposit;\n    uint256 percentage_decimal;\n    uint256 depositpercentage;\n    uint256 expiryday;\n    \n    Counters.Counter  _tradeID;\n    \n    mapping(uint256 => address)  trades;\n    mapping(uint256 => bool) public isopen;\n    mapping(uint256 => uint256)  salesTrademap;\n    \n    \n    \n   \n}\n",
  "sourcePath": "/home/dickchan/ERC721Marketplace/contracts/BookContract/orderBookDS.sol",
  "compiler": {
    "name": "solc",
    "version": "0.6.2+commit.bacdbe57.Emscripten.clang"
  },
  "schemaVersion": "3.2.3",
  "updatedAt": "2020-11-19T07:51:27.190Z",
  "devdoc": {
    "methods": {}
  },
  "userdoc": {
    "methods": {}
  }
}