{
  "contractName": "orderbookLibrary",
  "abi": [
    {
      "anonymous": false,
      "inputs": [
        {
          "indexed": false,
          "internalType": "uint256",
          "name": "t",
          "type": "uint256"
        },
        {
          "indexed": false,
          "internalType": "address",
          "name": "seller",
          "type": "address"
        },
        {
          "indexed": false,
          "internalType": "uint256",
          "name": "itemID",
          "type": "uint256"
        },
        {
          "indexed": false,
          "internalType": "uint256",
          "name": "p",
          "type": "uint256"
        },
        {
          "indexed": false,
          "internalType": "address",
          "name": "o",
          "type": "address"
        },
        {
          "indexed": false,
          "internalType": "uint256",
          "name": "m",
          "type": "uint256"
        },
        {
          "indexed": false,
          "internalType": "uint256",
          "name": "_datetime",
          "type": "uint256"
        }
      ],
      "name": "NewTrade",
      "type": "event"
    },
    {
      "anonymous": false,
      "inputs": [
        {
          "indexed": false,
          "internalType": "uint256",
          "name": "ad",
          "type": "uint256"
        },
        {
          "indexed": false,
          "internalType": "string",
          "name": "action",
          "type": "string"
        },
        {
          "indexed": false,
          "internalType": "string",
          "name": "status",
          "type": "string"
        },
        {
          "indexed": false,
          "internalType": "address",
          "name": "b",
          "type": "address"
        },
        {
          "indexed": false,
          "internalType": "uint256",
          "name": "p",
          "type": "uint256"
        },
        {
          "indexed": false,
          "internalType": "uint256",
          "name": "d",
          "type": "uint256"
        }
      ],
      "name": "TradeStatusChange",
      "type": "event"
    },
    {
      "inputs": [
        {
          "internalType": "uint256",
          "name": "",
          "type": "uint256"
        }
      ],
      "name": "isopen",
      "outputs": [
        {
          "internalType": "bool",
          "name": "",
          "type": "bool"
        }
      ],
      "stateMutability": "view",
      "type": "function"
    },
    {
      "inputs": [
        {
          "internalType": "uint256",
          "name": "_tradeid",
          "type": "uint256"
        },
        {
          "internalType": "uint256",
          "name": "_deposit",
          "type": "uint256"
        }
      ],
      "name": "setindividualDeposit",
      "outputs": [],
      "stateMutability": "nonpayable",
      "type": "function"
    },
    {
      "inputs": [
        {
          "internalType": "uint256",
          "name": "_itemID",
          "type": "uint256"
        },
        {
          "internalType": "address",
          "name": "_base",
          "type": "address"
        },
        {
          "internalType": "uint256",
          "name": "_price",
          "type": "uint256"
        },
        {
          "internalType": "address",
          "name": "_sellsideorder",
          "type": "address"
        },
        {
          "internalType": "uint256",
          "name": "_datetime",
          "type": "uint256"
        },
        {
          "internalType": "string",
          "name": "_currency",
          "type": "string"
        }
      ],
      "name": "openTrade",
      "outputs": [
        {
          "internalType": "uint256",
          "name": "tradeid",
          "type": "uint256"
        }
      ],
      "stateMutability": "nonpayable",
      "type": "function"
    },
    {
      "inputs": [
        {
          "internalType": "uint256",
          "name": "_trade",
          "type": "uint256"
        },
        {
          "internalType": "uint256",
          "name": "_feespercentage",
          "type": "uint256"
        },
        {
          "internalType": "uint256",
          "name": "_datetime",
          "type": "uint256"
        },
        {
          "internalType": "bool",
          "name": "_fullpay",
          "type": "bool"
        }
      ],
      "name": "markTrade",
      "outputs": [],
      "stateMutability": "nonpayable",
      "type": "function"
    },
    {
      "inputs": [
        {
          "internalType": "uint256",
          "name": "_trade",
          "type": "uint256"
        },
        {
          "internalType": "uint8",
          "name": "_paymenttype",
          "type": "uint8"
        },
        {
          "internalType": "uint256",
          "name": "_amount",
          "type": "uint256"
        },
        {
          "internalType": "string",
          "name": "_tx",
          "type": "string"
        },
        {
          "internalType": "uint256",
          "name": "_datetime",
          "type": "uint256"
        }
      ],
      "name": "executeTrade",
      "outputs": [],
      "stateMutability": "nonpayable",
      "type": "function"
    },
    {
      "inputs": [
        {
          "internalType": "uint256",
          "name": "_trade",
          "type": "uint256"
        },
        {
          "internalType": "uint256",
          "name": "_datetime",
          "type": "uint256"
        }
      ],
      "name": "executeExpensebook",
      "outputs": [],
      "stateMutability": "nonpayable",
      "type": "function"
    },
    {
      "inputs": [
        {
          "internalType": "uint256",
          "name": "_trade",
          "type": "uint256"
        },
        {
          "internalType": "uint256",
          "name": "_datetime",
          "type": "uint256"
        },
        {
          "internalType": "bool",
          "name": "return2owner",
          "type": "bool"
        }
      ],
      "name": "cancelTrade",
      "outputs": [],
      "stateMutability": "nonpayable",
      "type": "function"
    },
    {
      "inputs": [
        {
          "internalType": "uint256",
          "name": "_trade",
          "type": "uint256"
        },
        {
          "internalType": "uint256",
          "name": "_datetime",
          "type": "uint256"
        }
      ],
      "name": "expireTrade",
      "outputs": [],
      "stateMutability": "nonpayable",
      "type": "function"
    },
    {
      "inputs": [
        {
          "internalType": "address",
          "name": "_base",
          "type": "address"
        },
        {
          "internalType": "uint256",
          "name": "_id",
          "type": "uint256"
        }
      ],
      "name": "_ownerOf",
      "outputs": [
        {
          "internalType": "address",
          "name": "e",
          "type": "address"
        }
      ],
      "stateMutability": "view",
      "type": "function"
    }
  ],
  "bytecode": "0x608060405234801561001057600080fd5b50615c6080620000216000396000f3fe608060405234801561001057600080fd5b50600436106100935760003560e01c8063706e8c7311610066578063706e8c73146101845780638bcf79d1146101d2578063b5adc14a14610260578063c70acf7a14610346578063f1b61a6c1461038c57610093565b80630b8b1caf146100985780631148ba3e146100dc578063243f75871461011457806328ea77bd1461014c575b600080fd5b6100da600480360360608110156100ae57600080fd5b8101908080359060200190929190803590602001909291908035151590602001909291905050506104b9565b005b610112600480360360408110156100f257600080fd5b8101908080359060200190929190803590602001909291905050506107f8565b005b61014a6004803603604081101561012a57600080fd5b81019080803590602001909291908035906020019092919050505061095a565b005b6101826004803603604081101561016257600080fd5b810190808035906020019092919080359060200190929190505050610f8a565b005b6101d06004803603608081101561019a57600080fd5b81019080803590602001909291908035906020019092919080359060200190929190803515159060200190929190505050611338565b005b61021e600480360360408110156101e857600080fd5b81019080803573ffffffffffffffffffffffffffffffffffffffff16906020019092919080359060200190929190505050611873565b604051808273ffffffffffffffffffffffffffffffffffffffff1673ffffffffffffffffffffffffffffffffffffffff16815260200191505060405180910390f35b610344600480360360a081101561027657600080fd5b8101908080359060200190929190803560ff16906020019092919080359060200190929190803590602001906401000000008111156102b457600080fd5b8201836020820111156102c657600080fd5b803590602001918460018302840111640100000000831117156102e857600080fd5b91908080601f016020809104026020016040519081016040528093929190818152602001838380828437600081840152601f19601f8201169050808301925050505050505091929192908035906020019092919050505061190e565b005b6103726004803603602081101561035c57600080fd5b8101908080359060200190929190505050611f87565b604051808215151515815260200191505060405180910390f35b6104a3600480360360c08110156103a257600080fd5b8101908080359060200190929190803573ffffffffffffffffffffffffffffffffffffffff16906020019092919080359060200190929190803573ffffffffffffffffffffffffffffffffffffffff169060200190929190803590602001909291908035906020019064010000000081111561041d57600080fd5b82018360208201111561042f57600080fd5b8035906020019184600183028401116401000000008311171561045157600080fd5b91908080601f016020809104026020016040519081016040528093929190818152602001838380828437600081840152601f19601f820116905080830192505050505050509192919290505050611fa7565b6040518082815260200191505060405180910390f35b6000600e600085815260200190815260200160002060009054906101000a900473ffffffffffffffffffffffffffffffffffffffff169050600080606061053d610502856126b8565b6040518060400160405280600b81526020017f63616e63656c5472616465000000000000000000000000000000000000000000815250612948565b91509150816105b4576040517f08c379a00000000000000000000000000000000000000000000000000000000081526004018080602001828103825260038152602001807f4f3136000000000000000000000000000000000000000000000000000000000081525060200191505060405180910390fd5b60006105bf85612b4d565b905060006105cc86612d34565b90506105d733612f1b565b806105e757506105e6336130a6565b5b806105f757506105f633613231565b5b610669576040517f08c379a00000000000000000000000000000000000000000000000000000000081526004018080602001828103825260038152602001807f4f3137000000000000000000000000000000000000000000000000000000000081525060200191505060405180910390fd5b6000876106765782610678565b815b9050610683876133bc565b50809650506106938787836135b3565b61069e87858b6137ab565b6000600f600088815260200190815260200160002060006101000a81548160ff0219169083151502179055507f1cffbf78721f1394874a2ca49635a3941549d1f17edb7aee215cb4f4d2daa4a88a853360008d6040518086815260200180602001806020018673ffffffffffffffffffffffffffffffffffffffff1673ffffffffffffffffffffffffffffffffffffffff1681526020018581526020018481526020018381038352600b8152602001807f63616e63656c5472616465000000000000000000000000000000000000000000815250602001838103825287818151815260200191508051906020019080838360005b838110156107ad578082015181840152602081019050610792565b50505050905090810190601f1680156107da5780820380516001836020036101000a031916815260200191505b5097505050505050505060405180910390a150505050505050505050565b6000600e600084815260200190815260200160002060009054906101000a900473ffffffffffffffffffffffffffffffffffffffff16905061083933612f1b565b806108495750610848336139dc565b5b6108bb576040517f08c379a00000000000000000000000000000000000000000000000000000000081526004018080602001828103825260028152602001807f4f3100000000000000000000000000000000000000000000000000000000000081525060200191505060405180910390fd5b6108c481613b67565b821180156108d957506108d681613d4e565b82105b61094b576040517f08c379a00000000000000000000000000000000000000000000000000000000081526004018080602001828103825260028152602001807f4f3200000000000000000000000000000000000000000000000000000000000081525060200191505060405180910390fd5b6109558183613f35565b505050565b6000600e600084815260200190815260200160002060009054906101000a900473ffffffffffffffffffffffffffffffffffffffff169050600060606109dd6109a2846126b8565b6040518060400160405280601281526020017f65786563757465457870656e7365626f6f6b0000000000000000000000000000815250612948565b9150915081610a54576040517f08c379a00000000000000000000000000000000000000000000000000000000081526004018080602001828103825260038152602001807f4f3132000000000000000000000000000000000000000000000000000000000081525060200191505060405180910390fd5b610a5d33612f1b565b80610a6d5750610a6c336130a6565b5b610adf576040517f08c379a00000000000000000000000000000000000000000000000000000000081526004018080602001828103825260038152602001807f4f3133000000000000000000000000000000000000000000000000000000000081525060200191505060405180910390fd5b6000610aea84612b4d565b90506000610af782613d4e565b90506000610b0486613d4e565b905081811015610b7c576040517f08c379a00000000000000000000000000000000000000000000000000000000081526004018080602001828103825260038152602001807f4f3134000000000000000000000000000000000000000000000000000000000081525060200191505060405180910390fd5b6000610b87876140f8565b90506000610b9e84846142df90919063ffffffff16565b90506000600260009054906101000a900473ffffffffffffffffffffffffffffffffffffffff169050610bda838561432990919063ffffffff16565b8173ffffffffffffffffffffffffffffffffffffffff166370a082318b6040518263ffffffff1660e01b8152600401808273ffffffffffffffffffffffffffffffffffffffff1673ffffffffffffffffffffffffffffffffffffffff16815260200191505060206040518083038186803b158015610c5757600080fd5b505afa158015610c6b573d6000803e3d6000fd5b505050506040513d6020811015610c8157600080fd5b81019080805190602001909291905050501015610d06576040517f08c379a00000000000000000000000000000000000000000000000000000000081526004018080602001828103825260038152602001807f4f3135000000000000000000000000000000000000000000000000000000000081525060200191505060405180910390fd5b610d3489600260009054906101000a900473ffffffffffffffffffffffffffffffffffffffff1687896143b1565b610d8489600260009054906101000a900473ffffffffffffffffffffffffffffffffffffffff1685600660009054906101000a900473ffffffffffffffffffffffffffffffffffffffff166143b1565b610dd489600260009054906101000a900473ffffffffffffffffffffffffffffffffffffffff1684600560009054906101000a900473ffffffffffffffffffffffffffffffffffffffff166143b1565b6060868b604051602401808373ffffffffffffffffffffffffffffffffffffffff1673ffffffffffffffffffffffffffffffffffffffff168152602001828152602001925050506040516020818303038152906040527f4388a9c0000000000000000000000000000000000000000000000000000000007bffffffffffffffffffffffffffffffffffffffffffffffffffffffff19166020820180517bffffffffffffffffffffffffffffffffffffffffffffffffffffffff83818316178352505050509050600160009054906101000a900473ffffffffffffffffffffffffffffffffffffffff1673ffffffffffffffffffffffffffffffffffffffff16816040518082805190602001908083835b60208310610f075780518252602082019150602081019050602083039250610ee4565b6001836020036101000a0380198251168184511680821785525050505050509050019150506000604051808303816000865af19150503d8060008114610f69576040519150601f19603f3d011682016040523d82523d6000602084013e610f6e565b606091505b505050610f7c8a898d6137ab565b505050505050505050505050565b6000600e600084815260200190815260200160002060009054906101000a900473ffffffffffffffffffffffffffffffffffffffff1690506000606061100d610fd2846126b8565b6040518060400160405280600b81526020017f6578706972655472616465000000000000000000000000000000000000000000815250612948565b9150915081611084576040517f08c379a00000000000000000000000000000000000000000000000000000000081526004018080602001828103825260038152602001807f4f3138000000000000000000000000000000000000000000000000000000000081525060200191505060405180910390fd5b600061109884611093866126b8565b6145de565b905080851161110f576040517f08c379a00000000000000000000000000000000000000000000000000000000081526004018080602001828103825260038152602001807f4f3139000000000000000000000000000000000000000000000000000000000081525060200191505060405180910390fd5b61112281866142df90919063ffffffff16565b9050600c5461113d620151808361483690919063ffffffff16565b116111b0576040517f08c379a00000000000000000000000000000000000000000000000000000000081526004018080602001828103825260038152602001807f4f3230000000000000000000000000000000000000000000000000000000000081525060200191505060405180910390fd5b6111bb8483876137ab565b6111c4846133bc565b508091505060006111d485612b4d565b90506111e18583836135b3565b6000600f600084815260200190815260200160002060006101000a81548160ff0219169083151502179055507f1cffbf78721f1394874a2ca49635a3941549d1f17edb7aee215cb4f4d2daa4a887843360008a6040518086815260200180602001806020018673ffffffffffffffffffffffffffffffffffffffff1673ffffffffffffffffffffffffffffffffffffffff1681526020018581526020018481526020018381038352600b8152602001807f6578706972655472616465000000000000000000000000000000000000000000815250602001838103825287818151815260200191508051906020019080838360005b838110156112f05780820151818401526020810190506112d5565b50505050905090810190601f16801561131d5780820380516001836020036101000a031916815260200191505b5097505050505050505060405180910390a150505050505050565b6000600e600086815260200190815260200160002060009054906101000a900473ffffffffffffffffffffffffffffffffffffffff169050600060606113bb611380846126b8565b6040518060400160405280600981526020017f6d61726b54726164650000000000000000000000000000000000000000000000815250612948565b9150915081611432576040517f08c379a00000000000000000000000000000000000000000000000000000000081526004018080602001828103825260028152602001807f4f3700000000000000000000000000000000000000000000000000000000000081525060200191505060405180910390fd5b3373ffffffffffffffffffffffffffffffffffffffff1661145284614880565b73ffffffffffffffffffffffffffffffffffffffff1614156114dc576040517f08c379a00000000000000000000000000000000000000000000000000000000081526004018080602001828103825260028152602001807f4f3800000000000000000000000000000000000000000000000000000000000081525060200191505060405180910390fd5b6114e78382876137ab565b6114f18387614a67565b6114fb8333614c2a565b600061150684613d4e565b905060006115446115236064600a54614e1990919063ffffffff16565b6115368a85614e1990919063ffffffff16565b61483690919063ffffffff16565b90506115508582614e9f565b7f1cffbf78721f1394874a2ca49635a3941549d1f17edb7aee215cb4f4d2daa4a889843360008b6040518086815260200180602001806020018673ffffffffffffffffffffffffffffffffffffffff1673ffffffffffffffffffffffffffffffffffffffff168152602001858152602001848152602001838103835260098152602001807f6d61726b54726164650000000000000000000000000000000000000000000000815250602001838103825287818151815260200191508051906020019080838360005b83811015611633578082015181840152602081019050611618565b50505050905090810190601f1680156116605780820380516001836020036101000a031916815260200191505b5097505050505050505060405180910390a16000600260009054906101000a900473ffffffffffffffffffffffffffffffffffffffff1690508073ffffffffffffffffffffffffffffffffffffffff166340c10f19600460009054906101000a900473ffffffffffffffffffffffffffffffffffffffff166116eb868661432990919063ffffffff16565b6040518363ffffffff1660e01b8152600401808373ffffffffffffffffffffffffffffffffffffffff1673ffffffffffffffffffffffffffffffffffffffff16815260200182815260200192505050600060405180830381600087803b15801561175457600080fd5b505af1158015611768573d6000803e3d6000fd5b5050505086156117c0576117bb86611789858561432990919063ffffffff16565b6117b36117a462015180600c54614e1990919063ffffffff16565b8c61432990919063ffffffff16565b8b6001615062565b611867565b60006117cb87613b67565b905060006117f96117ea62015180600c54614e1990919063ffffffff16565b8b61432990919063ffffffff16565b905061181b88611812848761432990919063ffffffff16565b838d6001615062565b6118648861183284886142df90919063ffffffff16565b61185c61184d62015180600c54614e1990919063ffffffff16565b8561432990919063ffffffff16565b8d6001615062565b50505b50505050505050505050565b6000808390508073ffffffffffffffffffffffffffffffffffffffff16636352211e846040518263ffffffff1660e01b81526004018082815260200191505060206040518083038186803b1580156118ca57600080fd5b505afa1580156118de573d6000803e3d6000fd5b505050506040513d60208110156118f457600080fd5b810190808051906020019092919050505091505092915050565b6000600e600087815260200190815260200160002060009054906101000a900473ffffffffffffffffffffffffffffffffffffffff16905060006060611991611956846126b8565b6040518060400160405280600c81526020017f6578656375746554726164650000000000000000000000000000000000000000815250612948565b9150915081611a08576040517f08c379a00000000000000000000000000000000000000000000000000000000081526004018080602001828103825260028152602001807f4f3900000000000000000000000000000000000000000000000000000000000081525060200191505060405180910390fd5b611a1133612f1b565b80611a215750611a20336130a6565b5b611a93576040517f08c379a00000000000000000000000000000000000000000000000000000000081526004018080602001828103825260038152602001807f4f3130000000000000000000000000000000000000000000000000000000000081525060200191505060405180910390fd5b6000806000611aa186615244565b9250925092505b808910611b3a57611abc86848a8a8e615448565b611b0c600460009054906101000a900473ffffffffffffffffffffffffffffffffffffffff16600260009054906101000a900473ffffffffffffffffffffffffffffffffffffffff1683896143b1565b611b1f818a6142df90919063ffffffff16565b50611b2986615244565b809350819450829550505050611aa8565b6000600260009054906101000a900473ffffffffffffffffffffffffffffffffffffffff169050611b6a87613d4e565b9150611b75876140f8565b9250611b8a838361432990919063ffffffff16565b9150611b9587615691565b15611e4c57818173ffffffffffffffffffffffffffffffffffffffff166370a08231896040518263ffffffff1660e01b8152600401808273ffffffffffffffffffffffffffffffffffffffff1673ffffffffffffffffffffffffffffffffffffffff16815260200191505060206040518083038186803b158015611c1857600080fd5b505afa158015611c2c573d6000803e3d6000fd5b505050506040513d6020811015611c4257600080fd5b81019080805190602001909291905050501015611cc7576040517f08c379a00000000000000000000000000000000000000000000000000000000081526004018080602001828103825260038152602001807f4f3232000000000000000000000000000000000000000000000000000000000081525060200191505060405180910390fd5b6000611cd288615878565b9050611cdd886133bc565b5080935050611ced8884836135b3565b611d2d886040518060400160405280600481526020017f45584543000000000000000000000000000000000000000000000000000000008152508b6137ab565b6000600f600085815260200190815260200160002060006101000a81548160ff0219169083151502179055507f1cffbf78721f1394874a2ca49635a3941549d1f17edb7aee215cb4f4d2daa4a88d338d8c6040518085815260200180602001806020018673ffffffffffffffffffffffffffffffffffffffff1673ffffffffffffffffffffffffffffffffffffffff1681526020018581526020018481526020018381038352600c8152602001807f6578656375746554726164650000000000000000000000000000000000000000815250602001838103825260048152602001807f4558454300000000000000000000000000000000000000000000000000000000815250602001965050505050505060405180910390a150611f79565b611e5787868a6137ab565b7f1cffbf78721f1394874a2ca49635a3941549d1f17edb7aee215cb4f4d2daa4a88c86338d8c6040518086815260200180602001806020018673ffffffffffffffffffffffffffffffffffffffff1673ffffffffffffffffffffffffffffffffffffffff1681526020018581526020018481526020018381038352600c8152602001807f6578656375746554726164650000000000000000000000000000000000000000815250602001838103825287818151815260200191508051906020019080838360005b83811015611f39578082015181840152602081019050611f1e565b50505050905090810190601f168015611f665780820380516001836020036101000a031916815260200191505b5097505050505050505060405180910390a15b505050505050505050505050565b600f6020528060005260406000206000915054906101000a900460ff1681565b6000600860009054906101000a900473ffffffffffffffffffffffffffffffffffffffff1673ffffffffffffffffffffffffffffffffffffffff16633607a2aa886040518263ffffffff1660e01b81526004018082815260200191505060206040518083038186803b15801561201c57600080fd5b505afa158015612030573d6000803e3d6000fd5b505050506040513d602081101561204657600080fd5b8101908080519060200190929190505050955061206233613231565b80612072575061207133612f1b565b5b806120825750612081336139dc565b5b6120f4576040517f08c379a00000000000000000000000000000000000000000000000000000000081526004018080602001828103825260028152602001807f4f3300000000000000000000000000000000000000000000000000000000000081525060200191505060405180910390fd5b6000851161216a576040517f08c379a00000000000000000000000000000000000000000000000000000000081526004018080602001828103825260028152602001807f4f3400000000000000000000000000000000000000000000000000000000000081525060200191505060405180910390fd5b8373ffffffffffffffffffffffffffffffffffffffff1661218b8789611873565b73ffffffffffffffffffffffffffffffffffffffff1614612214576040517f08c379a00000000000000000000000000000000000000000000000000000000081526004018080602001828103825260028152602001807f4f3500000000000000000000000000000000000000000000000000000000000081525060200191505060405180910390fd5b60001515600f600089815260200190815260200160002060009054906101000a900460ff161515146122ae576040517f08c379a00000000000000000000000000000000000000000000000000000000081526004018080602001828103825260028152602001807f4f3600000000000000000000000000000000000000000000000000000000000081525060200191505060405180910390fd5b6122b8600d615a5f565b600060016122c6600d615a75565b03905060006122d486614880565b9050600080600954116123225761231d6122fa6064600a54614e1990919063ffffffff16565b61230f600b548b614e1990919063ffffffff16565b61483690919063ffffffff16565b612326565b6009545b90506000600360009054906101000a900473ffffffffffffffffffffffffffffffffffffffff1690508073ffffffffffffffffffffffffffffffffffffffff16637e71d95b8c8c8c8c8c8c6000809054906101000a900473ffffffffffffffffffffffffffffffffffffffff168b8d6040518a63ffffffff1660e01b8152600401808a81526020018973ffffffffffffffffffffffffffffffffffffffff1673ffffffffffffffffffffffffffffffffffffffff1681526020018881526020018773ffffffffffffffffffffffffffffffffffffffff1673ffffffffffffffffffffffffffffffffffffffff168152602001868152602001806020018573ffffffffffffffffffffffffffffffffffffffff1673ffffffffffffffffffffffffffffffffffffffff1681526020018473ffffffffffffffffffffffffffffffffffffffff1673ffffffffffffffffffffffffffffffffffffffff168152602001838152602001828103825286818151815260200191508051906020019080838360005b838110156124c45780820151818401526020810190506124a9565b50505050905090810190601f1680156124f15780820380516001836020036101000a031916815260200191505b509a5050505050505050505050602060405180830381600087803b15801561251857600080fd5b505af115801561252c573d6000803e3d6000fd5b505050506040513d602081101561254257600080fd5b8101908080519060200190929190505050995061255f8a83613f35565b89600e600086815260200190815260200160002060006101000a81548173ffffffffffffffffffffffffffffffffffffffff021916908373ffffffffffffffffffffffffffffffffffffffff1602179055506125bc888c8c6135b3565b6001600f60008d815260200190815260200160002060006101000a81548160ff0219169083151502179055507ff3f989afa13bb47ae1142ac327754d41591a126da44a45e996b279f2a84adffb84338d8c8c878d604051808881526020018773ffffffffffffffffffffffffffffffffffffffff1673ffffffffffffffffffffffffffffffffffffffff1681526020018681526020018581526020018473ffffffffffffffffffffffffffffffffffffffff1673ffffffffffffffffffffffffffffffffffffffff16815260200183815260200182815260200197505050505050505060405180910390a1839450505050509695505050505050565b6060806040516024016040516020818303038152906040527f1865c57d000000000000000000000000000000000000000000000000000000007bffffffffffffffffffffffffffffffffffffffffffffffffffffffff19166020820180517bffffffffffffffffffffffffffffffffffffffffffffffffffffffff83818316178352505050509050600060608473ffffffffffffffffffffffffffffffffffffffff16836040518082805190602001908083835b6020831061278f578051825260208201915060208101905060208303925061276c565b6001836020036101000a0380198251168184511680821785525050505050509050019150506000604051808303816000865af19150503d80600081146127f1576040519150601f19603f3d011682016040523d82523d6000602084013e6127f6565b606091505b50915091508161286e576040517f08c379a00000000000000000000000000000000000000000000000000000000081526004018080602001828103825260028152602001807f423100000000000000000000000000000000000000000000000000000000000081525060200191505060405180910390fd5b80806020019051602081101561288357600080fd5b81019080805160405193929190846401000000008211156128a357600080fd5b838201915060208201858111156128b957600080fd5b82518660018202830111640100000000821117156128d657600080fd5b8083526020830192505050908051906020019080838360005b8381101561290a5780820151818401526020810190506128ef565b50505050905090810190601f1680156129375780820380516001836020036101000a031916815260200191505b506040525050509350505050919050565b6000606060006060600760009054906101000a900473ffffffffffffffffffffffffffffffffffffffff1673ffffffffffffffffffffffffffffffffffffffff1663708442498787805190602001206040518363ffffffff1660e01b81526004018080602001838152602001828103825284818151815260200191508051906020019080838360005b838110156129ec5780820151818401526020810190506129d1565b50505050905090810190601f168015612a195780820380516001836020036101000a031916815260200191505b50935050505060006040518083038186803b158015612a3757600080fd5b505afa158015612a4b573d6000803e3d6000fd5b505050506040513d6000823e3d601f19601f820116820180604052506040811015612a7557600080fd5b810190808051906020019092919080516040519392919084640100000000821115612a9f57600080fd5b83820191506020820185811115612ab557600080fd5b8251866001820283011164010000000082111715612ad257600080fd5b8083526020830192505050908051906020019080838360005b83811015612b06578082015181840152602081019050612aeb565b50505050905090810190601f168015612b335780820380516001836020036101000a031916815260200191505b506040525050509150915081819350935050509250929050565b600060606040516024016040516020818303038152906040527f175106a2000000000000000000000000000000000000000000000000000000007bffffffffffffffffffffffffffffffffffffffffffffffffffffffff19166020820180517bffffffffffffffffffffffffffffffffffffffffffffffffffffffff83818316178352505050509050600060608473ffffffffffffffffffffffffffffffffffffffff16836040518082805190602001908083835b60208310612c255780518252602082019150602081019050602083039250612c02565b6001836020036101000a0380198251168184511680821785525050505050509050019150506000604051808303816000865af19150503d8060008114612c87576040519150601f19603f3d011682016040523d82523d6000602084013e612c8c565b606091505b509150915081612d04576040517f08c379a00000000000000000000000000000000000000000000000000000000081526004018080602001828103825260038152602001807f4f3231000000000000000000000000000000000000000000000000000000000081525060200191505060405180910390fd5b808060200190516020811015612d1957600080fd5b81019080805190602001909291905050509350505050919050565b600060606040516024016040516020818303038152906040527fdbd0e1b6000000000000000000000000000000000000000000000000000000007bffffffffffffffffffffffffffffffffffffffffffffffffffffffff19166020820180517bffffffffffffffffffffffffffffffffffffffffffffffffffffffff83818316178352505050509050600060608473ffffffffffffffffffffffffffffffffffffffff16836040518082805190602001908083835b60208310612e0c5780518252602082019150602081019050602083039250612de9565b6001836020036101000a0380198251168184511680821785525050505050509050019150506000604051808303816000865af19150503d8060008114612e6e576040519150601f19603f3d011682016040523d82523d6000602084013e612e73565b606091505b509150915081612eeb576040517f08c379a00000000000000000000000000000000000000000000000000000000081526004018080602001828103825260028152602001807f423900000000000000000000000000000000000000000000000000000000000081525060200191505060405180910390fd5b808060200190516020811015612f0057600080fd5b81019080805190602001909291905050509350505050919050565b60008060009054906101000a900473ffffffffffffffffffffffffffffffffffffffff1673ffffffffffffffffffffffffffffffffffffffff166391d148546000809054906101000a900473ffffffffffffffffffffffffffffffffffffffff1673ffffffffffffffffffffffffffffffffffffffff166375b238fc6040518163ffffffff1660e01b815260040160206040518083038186803b158015612fc157600080fd5b505afa158015612fd5573d6000803e3d6000fd5b505050506040513d6020811015612feb57600080fd5b8101908080519060200190929190505050846040518363ffffffff1660e01b8152600401808381526020018273ffffffffffffffffffffffffffffffffffffffff1673ffffffffffffffffffffffffffffffffffffffff1681526020019250505060206040518083038186803b15801561306457600080fd5b505afa158015613078573d6000803e3d6000fd5b505050506040513d602081101561308e57600080fd5b81019080805190602001909291905050509050919050565b60008060009054906101000a900473ffffffffffffffffffffffffffffffffffffffff1673ffffffffffffffffffffffffffffffffffffffff166391d148546000809054906101000a900473ffffffffffffffffffffffffffffffffffffffff1673ffffffffffffffffffffffffffffffffffffffff1663ef0fe2456040518163ffffffff1660e01b815260040160206040518083038186803b15801561314c57600080fd5b505afa158015613160573d6000803e3d6000fd5b505050506040513d602081101561317657600080fd5b8101908080519060200190929190505050846040518363ffffffff1660e01b8152600401808381526020018273ffffffffffffffffffffffffffffffffffffffff1673ffffffffffffffffffffffffffffffffffffffff1681526020019250505060206040518083038186803b1580156131ef57600080fd5b505afa158015613203573d6000803e3d6000fd5b505050506040513d602081101561321957600080fd5b81019080805190602001909291905050509050919050565b60008060009054906101000a900473ffffffffffffffffffffffffffffffffffffffff1673ffffffffffffffffffffffffffffffffffffffff166391d148546000809054906101000a900473ffffffffffffffffffffffffffffffffffffffff1673ffffffffffffffffffffffffffffffffffffffff166384138b9b6040518163ffffffff1660e01b815260040160206040518083038186803b1580156132d757600080fd5b505afa1580156132eb573d6000803e3d6000fd5b505050506040513d602081101561330157600080fd5b8101908080519060200190929190505050846040518363ffffffff1660e01b8152600401808381526020018273ffffffffffffffffffffffffffffffffffffffff1673ffffffffffffffffffffffffffffffffffffffff1681526020019250505060206040518083038186803b15801561337a57600080fd5b505afa15801561338e573d6000803e3d6000fd5b505050506040513d60208110156133a457600080fd5b81019080805190602001909291905050509050919050565b60008060606040516024016040516020818303038152906040527fc412eaba000000000000000000000000000000000000000000000000000000007bffffffffffffffffffffffffffffffffffffffffffffffffffffffff19166020820180517bffffffffffffffffffffffffffffffffffffffffffffffffffffffff83818316178352505050509050600060608573ffffffffffffffffffffffffffffffffffffffff16836040518082805190602001908083835b602083106134955780518252602082019150602081019050602083039250613472565b6001836020036101000a0380198251168184511680821785525050505050509050019150506000604051808303816000865af19150503d80600081146134f7576040519150601f19603f3d011682016040523d82523d6000602084013e6134fc565b606091505b509150915081613574576040517f08c379a00000000000000000000000000000000000000000000000000000000081526004018080602001828103825260028152602001807f423700000000000000000000000000000000000000000000000000000000000081525060200191505060405180910390fd5b80806020019051604081101561358957600080fd5b81019080805190602001909291908051906020019092919050505080905094509450505050915091565b60608282604051602401808381526020018273ffffffffffffffffffffffffffffffffffffffff1673ffffffffffffffffffffffffffffffffffffffff168152602001925050506040516020818303038152906040527f29596fa2000000000000000000000000000000000000000000000000000000007bffffffffffffffffffffffffffffffffffffffffffffffffffffffff19166020820180517bffffffffffffffffffffffffffffffffffffffffffffffffffffffff8381831617835250505050905060008473ffffffffffffffffffffffffffffffffffffffff16826040518082805190602001908083835b602083106136c657805182526020820191506020810190506020830392506136a3565b6001836020036101000a0380198251168184511680821785525050505050509050019150506000604051808303816000865af19150503d8060008114613728576040519150601f19603f3d011682016040523d82523d6000602084013e61372d565b606091505b50509050806137a4576040517f08c379a00000000000000000000000000000000000000000000000000000000081526004018080602001828103825260038152602001807f423232000000000000000000000000000000000000000000000000000000000081525060200191505060405180910390fd5b5050505050565b606082826040516024018080602001838152602001828103825284818151815260200191508051906020019080838360005b838110156137f85780820151818401526020810190506137dd565b50505050905090810190601f1680156138255780820380516001836020036101000a031916815260200191505b5093505050506040516020818303038152906040527f292d1fb9000000000000000000000000000000000000000000000000000000007bffffffffffffffffffffffffffffffffffffffffffffffffffffffff19166020820180517bffffffffffffffffffffffffffffffffffffffffffffffffffffffff8381831617835250505050905060008473ffffffffffffffffffffffffffffffffffffffff16826040518082805190602001908083835b602083106138f757805182526020820191506020810190506020830392506138d4565b6001836020036101000a0380198251168184511680821785525050505050509050019150506000604051808303816000865af19150503d8060008114613959576040519150601f19603f3d011682016040523d82523d6000602084013e61395e565b606091505b50509050806139d5576040517f08c379a00000000000000000000000000000000000000000000000000000000081526004018080602001828103825260038152602001807f423136000000000000000000000000000000000000000000000000000000000081525060200191505060405180910390fd5b5050505050565b60008060009054906101000a900473ffffffffffffffffffffffffffffffffffffffff1673ffffffffffffffffffffffffffffffffffffffff166391d148546000809054906101000a900473ffffffffffffffffffffffffffffffffffffffff1673ffffffffffffffffffffffffffffffffffffffff16634db08aea6040518163ffffffff1660e01b815260040160206040518083038186803b158015613a8257600080fd5b505afa158015613a96573d6000803e3d6000fd5b505050506040513d6020811015613aac57600080fd5b8101908080519060200190929190505050846040518363ffffffff1660e01b8152600401808381526020018273ffffffffffffffffffffffffffffffffffffffff1673ffffffffffffffffffffffffffffffffffffffff1681526020019250505060206040518083038186803b158015613b2557600080fd5b505afa158015613b39573d6000803e3d6000fd5b505050506040513d6020811015613b4f57600080fd5b81019080805190602001909291905050509050919050565b600060606040516024016040516020818303038152906040527f390cacdf000000000000000000000000000000000000000000000000000000007bffffffffffffffffffffffffffffffffffffffffffffffffffffffff19166020820180517bffffffffffffffffffffffffffffffffffffffffffffffffffffffff83818316178352505050509050600060608473ffffffffffffffffffffffffffffffffffffffff16836040518082805190602001908083835b60208310613c3f5780518252602082019150602081019050602083039250613c1c565b6001836020036101000a0380198251168184511680821785525050505050509050019150506000604051808303816000865af19150503d8060008114613ca1576040519150601f19603f3d011682016040523d82523d6000602084013e613ca6565b606091505b509150915081613d1e576040517f08c379a00000000000000000000000000000000000000000000000000000000081526004018080602001828103825260028152602001807f423500000000000000000000000000000000000000000000000000000000000081525060200191505060405180910390fd5b808060200190516020811015613d3357600080fd5b81019080805190602001909291905050509350505050919050565b600060606040516024016040516020818303038152906040527fc3c61f91000000000000000000000000000000000000000000000000000000007bffffffffffffffffffffffffffffffffffffffffffffffffffffffff19166020820180517bffffffffffffffffffffffffffffffffffffffffffffffffffffffff83818316178352505050509050600060608473ffffffffffffffffffffffffffffffffffffffff16836040518082805190602001908083835b60208310613e265780518252602082019150602081019050602083039250613e03565b6001836020036101000a0380198251168184511680821785525050505050509050019150506000604051808303816000865af19150503d8060008114613e88576040519150601f19603f3d011682016040523d82523d6000602084013e613e8d565b606091505b509150915081613f05576040517f08c379a00000000000000000000000000000000000000000000000000000000081526004018080602001828103825260028152602001807f423600000000000000000000000000000000000000000000000000000000000081525060200191505060405180910390fd5b808060200190516020811015613f1a57600080fd5b81019080805190602001909291905050509350505050919050565b606081604051602401808281526020019150506040516020818303038152906040527f66a9613d000000000000000000000000000000000000000000000000000000007bffffffffffffffffffffffffffffffffffffffffffffffffffffffff19166020820180517bffffffffffffffffffffffffffffffffffffffffffffffffffffffff8381831617835250505050905060008373ffffffffffffffffffffffffffffffffffffffff16826040518082805190602001908083835b602083106140145780518252602082019150602081019050602083039250613ff1565b6001836020036101000a0380198251168184511680821785525050505050509050019150506000604051808303816000865af19150503d8060008114614076576040519150601f19603f3d011682016040523d82523d6000602084013e61407b565b606091505b50509050806140f2576040517f08c379a00000000000000000000000000000000000000000000000000000000081526004018080602001828103825260038152602001807f423230000000000000000000000000000000000000000000000000000000000081525060200191505060405180910390fd5b50505050565b600060606040516024016040516020818303038152906040527fbf5c9822000000000000000000000000000000000000000000000000000000007bffffffffffffffffffffffffffffffffffffffffffffffffffffffff19166020820180517bffffffffffffffffffffffffffffffffffffffffffffffffffffffff83818316178352505050509050600060608473ffffffffffffffffffffffffffffffffffffffff16836040518082805190602001908083835b602083106141d057805182526020820191506020810190506020830392506141ad565b6001836020036101000a0380198251168184511680821785525050505050509050019150506000604051808303816000865af19150503d8060008114614232576040519150601f19603f3d011682016040523d82523d6000602084013e614237565b606091505b5091509150816142af576040517f08c379a00000000000000000000000000000000000000000000000000000000081526004018080602001828103825260028152602001807f423400000000000000000000000000000000000000000000000000000000000081525060200191505060405180910390fd5b8080602001905160208110156142c457600080fd5b81019080805190602001909291905050509350505050919050565b600061432183836040518060400160405280601e81526020017f536166654d6174683a207375627472616374696f6e206f766572666c6f770000815250615a83565b905092915050565b6000808284019050838110156143a7576040517f08c379a000000000000000000000000000000000000000000000000000000000815260040180806020018281038252601b8152602001807f536166654d6174683a206164646974696f6e206f766572666c6f77000000000081525060200191505060405180910390fd5b8091505092915050565b6060838383604051602401808473ffffffffffffffffffffffffffffffffffffffff1673ffffffffffffffffffffffffffffffffffffffff1681526020018381526020018273ffffffffffffffffffffffffffffffffffffffff1673ffffffffffffffffffffffffffffffffffffffff16815260200193505050506040516020818303038152906040527f9ad09310000000000000000000000000000000000000000000000000000000007bffffffffffffffffffffffffffffffffffffffffffffffffffffffff19166020820180517bffffffffffffffffffffffffffffffffffffffffffffffffffffffff8381831617835250505050905060008573ffffffffffffffffffffffffffffffffffffffff16826040518082805190602001908083835b602083106144f857805182526020820191506020810190506020830392506144d5565b6001836020036101000a0380198251168184511680821785525050505050509050019150506000604051808303816000865af19150503d806000811461455a576040519150601f19603f3d011682016040523d82523d6000602084013e61455f565b606091505b50509050806145d6576040517f08c379a00000000000000000000000000000000000000000000000000000000081526004018080602001828103825260038152602001807f423233000000000000000000000000000000000000000000000000000000000081525060200191505060405180910390fd5b505050505050565b60006060826040516024018080602001828103825283818151815260200191508051906020019080838360005b8381101561462657808201518184015260208101905061460b565b50505050905090810190601f1680156146535780820380516001836020036101000a031916815260200191505b50925050506040516020818303038152906040527f89ace75e000000000000000000000000000000000000000000000000000000007bffffffffffffffffffffffffffffffffffffffffffffffffffffffff19166020820180517bffffffffffffffffffffffffffffffffffffffffffffffffffffffff83818316178352505050509050600060608573ffffffffffffffffffffffffffffffffffffffff16836040518082805190602001908083835b602083106147265780518252602082019150602081019050602083039250614703565b6001836020036101000a0380198251168184511680821785525050505050509050019150506000604051808303816000865af19150503d8060008114614788576040519150601f19603f3d011682016040523d82523d6000602084013e61478d565b606091505b509150915081614805576040517f08c379a00000000000000000000000000000000000000000000000000000000081526004018080602001828103825260028152602001807f423200000000000000000000000000000000000000000000000000000000000081525060200191505060405180910390fd5b80806020019051602081101561481a57600080fd5b8101908080519060200190929190505050935050505092915050565b600061487883836040518060400160405280601a81526020017f536166654d6174683a206469766973696f6e206279207a65726f000000000000815250615b43565b905092915050565b600060606040516024016040516020818303038152906040527ff89d1ec0000000000000000000000000000000000000000000000000000000007bffffffffffffffffffffffffffffffffffffffffffffffffffffffff19166020820180517bffffffffffffffffffffffffffffffffffffffffffffffffffffffff83818316178352505050509050600060608473ffffffffffffffffffffffffffffffffffffffff16836040518082805190602001908083835b602083106149585780518252602082019150602081019050602083039250614935565b6001836020036101000a0380198251168184511680821785525050505050509050019150506000604051808303816000865af19150503d80600081146149ba576040519150601f19603f3d011682016040523d82523d6000602084013e6149bf565b606091505b509150915081614a37576040517f08c379a00000000000000000000000000000000000000000000000000000000081526004018080602001828103825260028152602001807f423800000000000000000000000000000000000000000000000000000000000081525060200191505060405180910390fd5b808060200190516020811015614a4c57600080fd5b81019080805190602001909291905050509350505050919050565b606081604051602401808281526020019150506040516020818303038152906040527f7ce3489b000000000000000000000000000000000000000000000000000000007bffffffffffffffffffffffffffffffffffffffffffffffffffffffff19166020820180517bffffffffffffffffffffffffffffffffffffffffffffffffffffffff8381831617835250505050905060008373ffffffffffffffffffffffffffffffffffffffff16826040518082805190602001908083835b60208310614b465780518252602082019150602081019050602083039250614b23565b6001836020036101000a0380198251168184511680821785525050505050509050019150506000604051808303816000865af19150503d8060008114614ba8576040519150601f19603f3d011682016040523d82523d6000602084013e614bad565b606091505b5050905080614c24576040517f08c379a00000000000000000000000000000000000000000000000000000000081526004018080602001828103825260038152602001807f423137000000000000000000000000000000000000000000000000000000000081525060200191505060405180910390fd5b50505050565b606081604051602401808273ffffffffffffffffffffffffffffffffffffffff1673ffffffffffffffffffffffffffffffffffffffff1681526020019150506040516020818303038152906040527fa8bc4ffa000000000000000000000000000000000000000000000000000000007bffffffffffffffffffffffffffffffffffffffffffffffffffffffff19166020820180517bffffffffffffffffffffffffffffffffffffffffffffffffffffffff8381831617835250505050905060008373ffffffffffffffffffffffffffffffffffffffff16826040518082805190602001908083835b60208310614d355780518252602082019150602081019050602083039250614d12565b6001836020036101000a0380198251168184511680821785525050505050509050019150506000604051808303816000865af19150503d8060008114614d97576040519150601f19603f3d011682016040523d82523d6000602084013e614d9c565b606091505b5050905080614e13576040517f08c379a00000000000000000000000000000000000000000000000000000000081526004018080602001828103825260038152602001807f423139000000000000000000000000000000000000000000000000000000000081525060200191505060405180910390fd5b50505050565b600080831415614e2c5760009050614e99565b6000828402905082848281614e3d57fe5b0414614e94576040517f08c379a0000000000000000000000000000000000000000000000000000000008152600401808060200182810382526021815260200180615c0a6021913960400191505060405180910390fd5b809150505b92915050565b606081604051602401808281526020019150506040516020818303038152906040527f6b392680000000000000000000000000000000000000000000000000000000007bffffffffffffffffffffffffffffffffffffffffffffffffffffffff19166020820180517bffffffffffffffffffffffffffffffffffffffffffffffffffffffff8381831617835250505050905060008373ffffffffffffffffffffffffffffffffffffffff16826040518082805190602001908083835b60208310614f7e5780518252602082019150602081019050602083039250614f5b565b6001836020036101000a0380198251168184511680821785525050505050509050019150506000604051808303816000865af19150503d8060008114614fe0576040519150601f19603f3d011682016040523d82523d6000602084013e614fe5565b606091505b505090508061505c576040517f08c379a00000000000000000000000000000000000000000000000000000000081526004018080602001828103825260038152602001807f423138000000000000000000000000000000000000000000000000000000000081525060200191505060405180910390fd5b50505050565b60608484848460405160240180858152602001848152602001838152602001821515151581526020019450505050506040516020818303038152906040527f080f8b9d000000000000000000000000000000000000000000000000000000007bffffffffffffffffffffffffffffffffffffffffffffffffffffffff19166020820180517bffffffffffffffffffffffffffffffffffffffffffffffffffffffff8381831617835250505050905060008673ffffffffffffffffffffffffffffffffffffffff16826040518082805190602001908083835b6020831061515d578051825260208201915060208101905060208303925061513a565b6001836020036101000a0380198251168184511680821785525050505050509050019150506000604051808303816000865af19150503d80600081146151bf576040519150601f19603f3d011682016040523d82523d6000602084013e6151c4565b606091505b505090508061523b576040517f08c379a00000000000000000000000000000000000000000000000000000000081526004018080602001828103825260038152602001807f423234000000000000000000000000000000000000000000000000000000000081525060200191505060405180910390fd5b50505050505050565b600080600060606040516024016040516020818303038152906040527f1b77f68d000000000000000000000000000000000000000000000000000000007bffffffffffffffffffffffffffffffffffffffffffffffffffffffff19166020820180517bffffffffffffffffffffffffffffffffffffffffffffffffffffffff83818316178352505050509050600060608673ffffffffffffffffffffffffffffffffffffffff16836040518082805190602001908083835b6020831061531f57805182526020820191506020810190506020830392506152fc565b6001836020036101000a0380198251168184511680821785525050505050509050019150506000604051808303816000865af19150503d8060008114615381576040519150601f19603f3d011682016040523d82523d6000602084013e615386565b606091505b5091509150816153fe576040517f08c379a00000000000000000000000000000000000000000000000000000000081526004018080602001828103825260038152602001807f423131000000000000000000000000000000000000000000000000000000000081525060200191505060405180910390fd5b80806020019051606081101561541357600080fd5b810190808051906020019092919080519060200190929190805190602001909291905050509550955095505050509193909250565b60608484848460405160240180858152602001806020018481526020018360ff1660ff168152602001828103825285818151815260200191508051906020019080838360005b838110156154a957808201518184015260208101905061548e565b50505050905090810190601f1680156154d65780820380516001836020036101000a031916815260200191505b50955050505050506040516020818303038152906040527fd924eb19000000000000000000000000000000000000000000000000000000007bffffffffffffffffffffffffffffffffffffffffffffffffffffffff19166020820180517bffffffffffffffffffffffffffffffffffffffffffffffffffffffff8381831617835250505050905060008673ffffffffffffffffffffffffffffffffffffffff16826040518082805190602001908083835b602083106155aa5780518252602082019150602081019050602083039250615587565b6001836020036101000a0380198251168184511680821785525050505050509050019150506000604051808303816000865af19150503d806000811461560c576040519150601f19603f3d011682016040523d82523d6000602084013e615611565b606091505b5050905080615688576040517f08c379a00000000000000000000000000000000000000000000000000000000081526004018080602001828103825260038152602001807f423235000000000000000000000000000000000000000000000000000000000081525060200191505060405180910390fd5b50505050505050565b600060606040516024016040516020818303038152906040527f3270bb5b000000000000000000000000000000000000000000000000000000007bffffffffffffffffffffffffffffffffffffffffffffffffffffffff19166020820180517bffffffffffffffffffffffffffffffffffffffffffffffffffffffff83818316178352505050509050600060608473ffffffffffffffffffffffffffffffffffffffff16836040518082805190602001908083835b602083106157695780518252602082019150602081019050602083039250615746565b6001836020036101000a0380198251168184511680821785525050505050509050019150506000604051808303816000865af19150503d80600081146157cb576040519150601f19603f3d011682016040523d82523d6000602084013e6157d0565b606091505b509150915081615848576040517f08c379a00000000000000000000000000000000000000000000000000000000081526004018080602001828103825260038152602001807f423237000000000000000000000000000000000000000000000000000000000081525060200191505060405180910390fd5b80806020019051602081101561585d57600080fd5b81019080805190602001909291905050509350505050919050565b600060606040516024016040516020818303038152906040527f7e78fdb9000000000000000000000000000000000000000000000000000000007bffffffffffffffffffffffffffffffffffffffffffffffffffffffff19166020820180517bffffffffffffffffffffffffffffffffffffffffffffffffffffffff83818316178352505050509050600060608473ffffffffffffffffffffffffffffffffffffffff16836040518082805190602001908083835b60208310615950578051825260208201915060208101905060208303925061592d565b6001836020036101000a0380198251168184511680821785525050505050509050019150506000604051808303816000865af19150503d80600081146159b2576040519150601f19603f3d011682016040523d82523d6000602084013e6159b7565b606091505b509150915081615a2f576040517f08c379a00000000000000000000000000000000000000000000000000000000081526004018080602001828103825260038152602001807f423130000000000000000000000000000000000000000000000000000000000081525060200191505060405180910390fd5b808060200190516020811015615a4457600080fd5b81019080805190602001909291905050509350505050919050565b6001816000016000828254019250508190555050565b600081600001549050919050565b6000838311158290615b30576040517f08c379a00000000000000000000000000000000000000000000000000000000081526004018080602001828103825283818151815260200191508051906020019080838360005b83811015615af5578082015181840152602081019050615ada565b50505050905090810190601f168015615b225780820380516001836020036101000a031916815260200191505b509250505060405180910390fd5b5060008385039050809150509392505050565b60008083118290615bef576040517f08c379a00000000000000000000000000000000000000000000000000000000081526004018080602001828103825283818151815260200191508051906020019080838360005b83811015615bb4578082015181840152602081019050615b99565b50505050905090810190601f168015615be15780820380516001836020036101000a031916815260200191505b509250505060405180910390fd5b506000838581615bfb57fe5b04905080915050939250505056fe536166654d6174683a206d756c7469706c69636174696f6e206f766572666c6f77a2646970667358221220a62ae9f586394871a298e0ebd636f4f9b3d684112f3f154395e172b69f2b03fe64736f6c63430006020033",
  "source": "pragma solidity ^0.6.0;\n\nimport \"../BuySellContract/SellSideContractFactory.sol\";\nimport \"../BuySellContract/baseContractAccesser.sol\";\nimport \"./orderBookDS.sol\";\n\n\n\ncontract orderbookLibrary is orderBookDS ,baseContractAccessor{\n    event TradeStatusChange(uint256 ad,string action,string status,address b,uint256 p,uint256 d);\n    event NewTrade(uint256 t, address seller, uint256 itemID,uint256 p,address o,uint256 m,uint256 _datetime);\n    \n \n    function setindividualDeposit(uint256 _tradeid,uint256 _deposit) public{\n        address order = trades[_tradeid];\n        require(_isAdmin(msg.sender) || _isSales(msg.sender), \"O1\");\n        require(_deposit > _getTradeMindeposit(order)&& _deposit < _getTotalAmount(order),\"O2\");\n        _setMindeposit(order,_deposit); \n    }\n    \n    function openTrade(uint256 _itemID,address _base,uint256 _price,address _sellsideorder, uint256 _datetime,string memory _currency) public virtual\n    returns (uint256 tradeid)\n    {\n        _base = lookup.getBaseAddress(_itemID);\n        require( _isExpense(msg.sender) || _isAdmin(msg.sender) || _isSales(msg.sender), \"O3\");\n        require( _price > 0 , \"O4\" );\n        require(_ownerOf(_base,_itemID)==_sellsideorder,\"O5\");\n        require(isopen[_itemID]==false,\"O6\");\n        _tradeID.increment();\n        uint256 currentID = _tradeID.current()-1;\n        address _seller = _getCreditor(_sellsideorder);\n        uint256 _mindeposit = (fixdeposit>0)?fixdeposit:_price.mul(depositpercentage).div(percentage_decimal.mul(100));\n        SellSideContractFactory c = SellSideContractFactory(contractfactory);\n        _base = c.createNewSellSideContract(_itemID,_base,_price, _sellsideorder, _datetime, _currency,address(access),_seller,currentID);\n        _setMindeposit(_base,_mindeposit);\n        trades[currentID] = _base;\n        _WithdrawERC721Token(_sellsideorder,_itemID,_base);\n        isopen[_itemID]=true;\n        emit NewTrade(currentID,msg.sender,_itemID,_price,_sellsideorder,_mindeposit,_datetime);\n        return currentID;\n        \n    }\n    \n    function markTrade(uint256 _trade,uint256 _feespercentage, uint256 _datetime,bool _fullpay) public\n    {   \n        address i = trades[_trade];\n        (bool exist,string memory nextstate) = _transitionExists(_getState(i),\"markTrade\");\n        //profile checking\n        require(exist , \"O7\");\n        require(_getCreditor(i)!=msg.sender,\"O8\");\n        _setState(i,nextstate,_datetime);\n        _setFeePercent(i,_feespercentage);\n        _setDebtor(i,msg.sender);\n        uint256 price = _getTotalAmount(i);\n        uint256 fees  = (price.mul( _feespercentage)).div(percentage_decimal.mul(100));\n        _setFeeAmount(i,fees);\n        emit TradeStatusChange(_trade,\"markTrade\", nextstate,msg.sender,0,_datetime);\n        ERC20PresetMinterPauser bookkeep = ERC20PresetMinterPauser(bookkeepingtoken);\n        bookkeep.mint(account_receivable,fees.add(price));\n        if(_fullpay){\n        \n             _addSettlementPlan(i, fees.add(price),_datetime.add(expiryday.mul(86400)),_datetime,true); \n             \n        }else{\n            \n            uint256 mindeposit = _getTradeMindeposit(i);\n            uint256 settledate = _datetime.add(expiryday.mul(86400));\n            _addSettlementPlan(i, fees.add(mindeposit),settledate,_datetime,true);\n            _addSettlementPlan(i, price.sub(mindeposit),settledate.add(expiryday.mul(86400)),_datetime,true);\n         \n        }\n    }\n    \n    function executeTrade(uint256 _trade,uint8 _paymenttype, uint256 _amount, string memory _tx,uint256 _datetime) public\n    {\n        address i = trades[_trade];\n        (bool exist,string memory nextstate) = _transitionExists(_getState(i),\"executeTrade\");\n        //profile checking\n        require(exist , \"O9\");\n        require( _isAdmin(msg.sender) || _isSettlement(msg.sender), \"O10\");\n        (uint256 _index,uint256 _d,uint256 _a)=_getActiveSettlementPlan(i);\n        while(_amount>=_a){\n            _completePayment(i,_index,_tx,_datetime,_paymenttype);\n            _WithdrawERC20Token(account_receivable,bookkeepingtoken,_a,i);\n            _amount.sub(_a);\n            (_index,_d,_a)=_getActiveSettlementPlan(i);\n        }\n        ERC20PresetMinterPauser token = ERC20PresetMinterPauser(bookkeepingtoken);\n        _a = _getTotalAmount(i);\n        _d = _getFeeAmount(i);\n        _a  = _a.add(_d);\n        if(_isSettled(i)){\n            require(token.balanceOf(i)>=_a,\"O22\");\n            address debtor = _getDebtor(i);\n            (_a,) = _getItem(i);\n            _WithdrawERC721Token(i,_a,debtor);\n            _setState(i,\"EXEC\",_datetime);\n            isopen[_a]=false;\n            emit TradeStatusChange(_trade,\"executeTrade\",\"EXEC\",msg.sender,_amount,_datetime);\n        }else{\n            _setState(i,nextstate,_datetime);\n            emit TradeStatusChange(_trade,\"executeTrade\",nextstate,msg.sender,_amount,_datetime);\n        }\n       \n    }\n    \n   \n    function executeExpensebook(uint256 _trade,uint256 _datetime) public \n    {\n        address i = trades[_trade];\n        (bool exist,string memory nextstate) = _transitionExists(_getState(i),\"executeExpensebook\");\n        require(exist , \"O12\");\n        require( _isAdmin(msg.sender) || _isSettlement(msg.sender), \"O13\");\n        address s = _getBuySideContract(i);\n        uint256 cost =_getTotalAmount(s);\n        uint256 sales = _getTotalAmount(i);\n        require(sales>=cost,\"O14\");\n        uint256 fees = _getFeeAmount(i);\n        uint256 profit = sales.sub(cost);\n        //profile checking\n        //require(_msgSender()==address(paymentbook),\"O20\");\n        ERC20PresetMinterPauser token = ERC20PresetMinterPauser(bookkeepingtoken);\n        require(token.balanceOf(i)>=sales.add(fees),\"O15\");\n        _WithdrawERC20Token(i,bookkeepingtoken,cost,s);\n        _WithdrawERC20Token(i,bookkeepingtoken,fees,platformfees);\n        _WithdrawERC20Token(i,bookkeepingtoken,profit,platform);\n        bytes memory payload = abi.encodeWithSignature(\"fullFillTrade(uint256,uint256)\",s,_datetime);\n        expensebook.call(payload);\n        _setState(i,nextstate,_datetime);\n        \n    }\n\n    function cancelTrade(uint256 _trade,uint256 _datetime,bool return2owner)\n        public\n    {\n        address i = trades[_trade];\n        uint256 _itemid;\n        (bool exist,string memory nextstate) = _transitionExists(_getState(i),\"cancelTrade\");\n        require(exist , \"O16\");\n        address c = _getBuySideContract(i);\n        address s = _getSeller(i);\n        require( _isAdmin(msg.sender) || _isSettlement(msg.sender) || _isExpense(msg.sender), \"O17\");\n        address d = return2owner?s:c;\n        (_itemid,) = _getItem(i);\n        _WithdrawERC721Token(i,_itemid,d);\n        _setState(i,nextstate,_datetime);\n        isopen[_itemid]=false;\n        emit TradeStatusChange(_trade,\"cancelTrade\",nextstate,msg.sender,0,_datetime);\n    }\n    \n    \n    function expireTrade(uint256 _trade,uint256 _datetime) public{\n        address i = trades[_trade];\n        (bool exist,string memory nextstate) = _transitionExists(_getState(i),\"expireTrade\");\n        require(exist , \"O18\");\n        uint256 _d =_getStateChange(i,_getState(i));\n        require(_datetime>_d,\"O19\");\n        _d = _datetime.sub(_d);\n        require(_d.div(86400)>expiryday,\"O20\");\n        _setState(i,nextstate,_datetime);\n        (_d,) =_getItem(i);\n        address _s =  _getBuySideContract(i);\n        _WithdrawERC721Token(i,_d,_s);\n        isopen[_d]=false;\n        emit TradeStatusChange(_trade,\"expireTrade\",nextstate,msg.sender,0,_datetime);\n        \n    }\n    \n\n    \n    function _transitionExists(string memory state,string memory funname) internal view\n    returns(bool e,string memory s)\n    {\n        (bool exist, string memory ns) = statemachine.transitionExists(state, keccak256(bytes(funname)));\n        return (exist,ns);\n    }\n    \n    function _getBuySideContract(address _a) internal \n    returns(address _c)\n    {\n        bytes memory payload = abi.encodeWithSignature(\"getSellSideContract()\");\n        (bool success, bytes memory result) = _a.call(payload);\n        require(success,\"O21\");\n        return abi.decode(result, (address));\n    }\n    \n    function _ownerOf(address _base,uint256 _id) public view\n    returns(address e)\n    {\n        ERC721 token = ERC721(_base);\n        return token.ownerOf(_id);\n        \n    }\n    \n\n}\n",
  "sourcePath": "/home/dickchan/ERC721Marketplace/contracts/BookContract/orderBookLibrary.sol",
  "compiler": {
    "name": "solc",
    "version": "0.6.2+commit.bacdbe57.Emscripten.clang"
  },
  "schemaVersion": "3.2.3",
  "updatedAt": "2020-11-19T07:51:27.199Z",
  "devdoc": {
    "methods": {}
  },
  "userdoc": {
    "methods": {}
  }
}