{
  "contractName": "orderBookProxy",
  "abi": [
    {
      "inputs": [
        {
          "internalType": "address",
          "name": "_statemachine",
          "type": "address"
        },
        {
          "internalType": "address",
          "name": "_access",
          "type": "address"
        }
      ],
      "stateMutability": "nonpayable",
      "type": "constructor"
    },
    {
      "anonymous": false,
      "inputs": [
        {
          "indexed": false,
          "internalType": "uint256",
          "name": "t",
          "type": "uint256"
        },
        {
          "indexed": false,
          "internalType": "address",
          "name": "seller",
          "type": "address"
        },
        {
          "indexed": false,
          "internalType": "uint256",
          "name": "itemID",
          "type": "uint256"
        },
        {
          "indexed": false,
          "internalType": "uint256",
          "name": "p",
          "type": "uint256"
        },
        {
          "indexed": false,
          "internalType": "address",
          "name": "o",
          "type": "address"
        },
        {
          "indexed": false,
          "internalType": "uint256",
          "name": "m",
          "type": "uint256"
        },
        {
          "indexed": false,
          "internalType": "uint256",
          "name": "_datetime",
          "type": "uint256"
        }
      ],
      "name": "NewTrade",
      "type": "event"
    },
    {
      "anonymous": false,
      "inputs": [
        {
          "indexed": false,
          "internalType": "uint256",
          "name": "ad",
          "type": "uint256"
        },
        {
          "indexed": false,
          "internalType": "string",
          "name": "action",
          "type": "string"
        },
        {
          "indexed": false,
          "internalType": "string",
          "name": "status",
          "type": "string"
        },
        {
          "indexed": false,
          "internalType": "address",
          "name": "b",
          "type": "address"
        },
        {
          "indexed": false,
          "internalType": "uint256",
          "name": "p",
          "type": "uint256"
        },
        {
          "indexed": false,
          "internalType": "uint256",
          "name": "d",
          "type": "uint256"
        }
      ],
      "name": "TradeStatusChange",
      "type": "event"
    },
    {
      "stateMutability": "payable",
      "type": "fallback"
    },
    {
      "inputs": [],
      "name": "implementation",
      "outputs": [
        {
          "internalType": "address",
          "name": "",
          "type": "address"
        }
      ],
      "stateMutability": "view",
      "type": "function"
    },
    {
      "inputs": [
        {
          "internalType": "uint256",
          "name": "",
          "type": "uint256"
        }
      ],
      "name": "isopen",
      "outputs": [
        {
          "internalType": "bool",
          "name": "",
          "type": "bool"
        }
      ],
      "stateMutability": "view",
      "type": "function"
    },
    {
      "inputs": [
        {
          "internalType": "address",
          "name": "_address",
          "type": "address"
        }
      ],
      "name": "upgradeTo",
      "outputs": [],
      "stateMutability": "nonpayable",
      "type": "function"
    },
    {
      "inputs": [
        {
          "internalType": "address",
          "name": "_expensebookproxy",
          "type": "address"
        }
      ],
      "name": "setexpenseProxy",
      "outputs": [],
      "stateMutability": "nonpayable",
      "type": "function"
    },
    {
      "inputs": [
        {
          "internalType": "address",
          "name": "_a",
          "type": "address"
        }
      ],
      "name": "setAccountReceivable",
      "outputs": [],
      "stateMutability": "nonpayable",
      "type": "function"
    },
    {
      "inputs": [
        {
          "internalType": "address",
          "name": "_bookkeep",
          "type": "address"
        }
      ],
      "name": "setbookkeep",
      "outputs": [],
      "stateMutability": "nonpayable",
      "type": "function"
    },
    {
      "inputs": [
        {
          "internalType": "address",
          "name": "_a",
          "type": "address"
        }
      ],
      "name": "setplatformfees",
      "outputs": [],
      "stateMutability": "nonpayable",
      "type": "function"
    },
    {
      "inputs": [
        {
          "internalType": "address",
          "name": "_a",
          "type": "address"
        }
      ],
      "name": "setplatform",
      "outputs": [],
      "stateMutability": "nonpayable",
      "type": "function"
    },
    {
      "inputs": [
        {
          "internalType": "address",
          "name": "_machine",
          "type": "address"
        }
      ],
      "name": "setStateMachine",
      "outputs": [],
      "stateMutability": "nonpayable",
      "type": "function"
    },
    {
      "inputs": [
        {
          "internalType": "address",
          "name": "_a",
          "type": "address"
        }
      ],
      "name": "setPermissionControl",
      "outputs": [],
      "stateMutability": "nonpayable",
      "type": "function"
    },
    {
      "inputs": [
        {
          "internalType": "address",
          "name": "_a",
          "type": "address"
        }
      ],
      "name": "setERC721Lookup",
      "outputs": [],
      "stateMutability": "nonpayable",
      "type": "function"
    },
    {
      "inputs": [
        {
          "internalType": "uint256",
          "name": "d",
          "type": "uint256"
        }
      ],
      "name": "setprecentage_decimal",
      "outputs": [],
      "stateMutability": "nonpayable",
      "type": "function"
    },
    {
      "inputs": [
        {
          "internalType": "uint256",
          "name": "d",
          "type": "uint256"
        }
      ],
      "name": "setfixdeposit",
      "outputs": [],
      "stateMutability": "nonpayable",
      "type": "function"
    },
    {
      "inputs": [
        {
          "internalType": "uint256",
          "name": "d",
          "type": "uint256"
        }
      ],
      "name": "setdepositPercentage",
      "outputs": [],
      "stateMutability": "nonpayable",
      "type": "function"
    },
    {
      "inputs": [
        {
          "internalType": "uint256",
          "name": "d",
          "type": "uint256"
        }
      ],
      "name": "setexpiryday",
      "outputs": [],
      "stateMutability": "nonpayable",
      "type": "function"
    },
    {
      "inputs": [
        {
          "internalType": "address",
          "name": "_cf",
          "type": "address"
        }
      ],
      "name": "setContractFactory",
      "outputs": [],
      "stateMutability": "nonpayable",
      "type": "function"
    },
    {
      "inputs": [],
      "name": "getAllContract",
      "outputs": [
        {
          "internalType": "address",
          "name": "",
          "type": "address"
        },
        {
          "internalType": "address",
          "name": "",
          "type": "address"
        },
        {
          "internalType": "address",
          "name": "",
          "type": "address"
        },
        {
          "internalType": "address",
          "name": "",
          "type": "address"
        },
        {
          "internalType": "address",
          "name": "",
          "type": "address"
        }
      ],
      "stateMutability": "view",
      "type": "function"
    },
    {
      "inputs": [],
      "name": "getTradeCount",
      "outputs": [
        {
          "internalType": "uint256",
          "name": "_c",
          "type": "uint256"
        }
      ],
      "stateMutability": "view",
      "type": "function"
    },
    {
      "inputs": [
        {
          "internalType": "uint256",
          "name": "_i",
          "type": "uint256"
        }
      ],
      "name": "getSellSideContractAddress",
      "outputs": [
        {
          "internalType": "address",
          "name": "_a",
          "type": "address"
        }
      ],
      "stateMutability": "view",
      "type": "function"
    },
    {
      "inputs": [],
      "name": "getprecentage_decimal",
      "outputs": [
        {
          "internalType": "uint256",
          "name": "",
          "type": "uint256"
        }
      ],
      "stateMutability": "view",
      "type": "function"
    },
    {
      "inputs": [],
      "name": "getfixdeposit",
      "outputs": [
        {
          "internalType": "uint256",
          "name": "",
          "type": "uint256"
        }
      ],
      "stateMutability": "view",
      "type": "function"
    },
    {
      "inputs": [],
      "name": "getdepositPercentage",
      "outputs": [
        {
          "internalType": "uint256",
          "name": "",
          "type": "uint256"
        }
      ],
      "stateMutability": "view",
      "type": "function"
    },
    {
      "inputs": [],
      "name": "getexpiryday",
      "outputs": [
        {
          "internalType": "uint256",
          "name": "",
          "type": "uint256"
        }
      ],
      "stateMutability": "view",
      "type": "function"
    }
  ],
  "bytecode": "0x608060405234801561001057600080fd5b506040516200227b3803806200227b8339818101604052604081101561003557600080fd5b810190808051906020019092919080519060200190929190505050806000806101000a81548173ffffffffffffffffffffffffffffffffffffffff021916908373ffffffffffffffffffffffffffffffffffffffff16021790555081600760006101000a81548173ffffffffffffffffffffffffffffffffffffffff021916908373ffffffffffffffffffffffffffffffffffffffff1602179055506064600a81905550600060098190555061012c600b819055506003600c81905550610106600d61010d60201b6120fc1760201c565b5050610123565b6001816000016000828254019250508190555050565b61214880620001336000396000f3fe6080604052600436106101445760003560e01c8063917473f9116100b6578063c0a58f351161006f578063c0a58f35146107f4578063c357700c1461081f578063c70acf7a1461084a578063d1bcfe791461089d578063f61bc33b146108ee578063fb55ce771461093f57610145565b8063917473f914610660578063a3031b77146106b1578063af3aedee146106dc578063b7ac089e1461072d578063bb039c0514610768578063bd94f431146107a357610145565b8063532e725b11610108578063532e725b146103b85780635c60da1b1461040957806366d0efce146104605780637186775b1461049b57806379822ede146104ec578063811fd2cb1461053d57610145565b806312b0842b1461023557806316d48475146102865780631dcb695f146102b157806322ec4f681461032c5780633659cfe61461036757610145565b5b6000601160009054906101000a900473ffffffffffffffffffffffffffffffffffffffff169050600073ffffffffffffffffffffffffffffffffffffffff168173ffffffffffffffffffffffffffffffffffffffff16141561020f576040517f08c379a00000000000000000000000000000000000000000000000000000000081526004018080602001828103825260048152602001807f4f5032330000000000000000000000000000000000000000000000000000000081525060200191505060405180910390fd5b3660008037600080366000845af43d6000803e8060008114610230573d6000f35b3d6000fd5b34801561024157600080fd5b506102846004803603602081101561025857600080fd5b81019080803573ffffffffffffffffffffffffffffffffffffffff16906020019092919050505061096a565b005b34801561029257600080fd5b5061029b610a29565b6040518082815260200191505060405180910390f35b3480156102bd57600080fd5b506102ea600480360360208110156102d457600080fd5b8101908080359060200190929190505050610ade565b604051808273ffffffffffffffffffffffffffffffffffffffff1673ffffffffffffffffffffffffffffffffffffffff16815260200191505060405180910390f35b34801561033857600080fd5b506103656004803603602081101561034f57600080fd5b8101908080359060200190929190505050610bc6565b005b34801561037357600080fd5b506103b66004803603602081101561038a57600080fd5b81019080803573ffffffffffffffffffffffffffffffffffffffff169060200190929190505050610c4b565b005b3480156103c457600080fd5b50610407600480360360208110156103db57600080fd5b81019080803573ffffffffffffffffffffffffffffffffffffffff169060200190929190505050610d1a565b005b34801561041557600080fd5b5061041e610dd9565b604051808273ffffffffffffffffffffffffffffffffffffffff1673ffffffffffffffffffffffffffffffffffffffff16815260200191505060405180910390f35b34801561046c57600080fd5b506104996004803603602081101561048357600080fd5b8101908080359060200190929190505050610dff565b005b3480156104a757600080fd5b506104ea600480360360208110156104be57600080fd5b81019080803573ffffffffffffffffffffffffffffffffffffffff169060200190929190505050610e84565b005b3480156104f857600080fd5b5061053b6004803603602081101561050f57600080fd5b81019080803573ffffffffffffffffffffffffffffffffffffffff169060200190929190505050610f43565b005b34801561054957600080fd5b50610552611002565b604051808673ffffffffffffffffffffffffffffffffffffffff1673ffffffffffffffffffffffffffffffffffffffff1681526020018573ffffffffffffffffffffffffffffffffffffffff1673ffffffffffffffffffffffffffffffffffffffff1681526020018473ffffffffffffffffffffffffffffffffffffffff1673ffffffffffffffffffffffffffffffffffffffff1681526020018373ffffffffffffffffffffffffffffffffffffffff1673ffffffffffffffffffffffffffffffffffffffff1681526020018273ffffffffffffffffffffffffffffffffffffffff1673ffffffffffffffffffffffffffffffffffffffff1681526020019550505050505060405180910390f35b34801561066c57600080fd5b506106af6004803603602081101561068357600080fd5b81019080803573ffffffffffffffffffffffffffffffffffffffff169060200190929190505050611175565b005b3480156106bd57600080fd5b506106c6611234565b6040518082815260200191505060405180910390f35b3480156106e857600080fd5b5061072b600480360360208110156106ff57600080fd5b81019080803573ffffffffffffffffffffffffffffffffffffffff1690602001909291905050506112f3565b005b34801561073957600080fd5b506107666004803603602081101561075057600080fd5b81019080803590602001909291905050506113b1565b005b34801561077457600080fd5b506107a16004803603602081101561078b57600080fd5b8101908080359060200190929190505050611436565b005b3480156107af57600080fd5b506107f2600480360360208110156107c657600080fd5b81019080803573ffffffffffffffffffffffffffffffffffffffff1690602001909291905050506114bb565b005b34801561080057600080fd5b5061080961157a565b6040518082815260200191505060405180910390f35b34801561082b57600080fd5b5061083461162f565b6040518082815260200191505060405180910390f35b34801561085657600080fd5b506108836004803603602081101561086d57600080fd5b81019080803590602001909291905050506116e4565b604051808215151515815260200191505060405180910390f35b3480156108a957600080fd5b506108ec600480360360208110156108c057600080fd5b81019080803573ffffffffffffffffffffffffffffffffffffffff169060200190929190505050611704565b005b3480156108fa57600080fd5b5061093d6004803603602081101561091157600080fd5b81019080803573ffffffffffffffffffffffffffffffffffffffff1690602001909291905050506117c3565b005b34801561094b57600080fd5b50610954611882565b6040518082815260200191505060405180910390f35b61097333611937565b6109e5576040517f08c379a00000000000000000000000000000000000000000000000000000000081526004018080602001828103825260048152602001807f4f5030390000000000000000000000000000000000000000000000000000000081525060200191505060405180910390fd5b80600860006101000a81548173ffffffffffffffffffffffffffffffffffffffff021916908373ffffffffffffffffffffffffffffffffffffffff16021790555050565b6000610a3433611ac2565b80610a445750610a4333611c4d565b5b80610a545750610a5333611dd8565b5b80610a645750610a6333611f63565b5b610ad6576040517f08c379a00000000000000000000000000000000000000000000000000000000081526004018080602001828103825260048152602001807f4f5031390000000000000000000000000000000000000000000000000000000081525060200191505060405180910390fd5b600954905090565b6000610ae933611ac2565b80610af95750610af833611c4d565b5b80610b095750610b0833611dd8565b5b80610b195750610b1833611f63565b5b610b8b576040517f08c379a00000000000000000000000000000000000000000000000000000000081526004018080602001828103825260048152602001807f4f5031370000000000000000000000000000000000000000000000000000000081525060200191505060405180910390fd5b600e600083815260200190815260200160002060009054906101000a900473ffffffffffffffffffffffffffffffffffffffff169050919050565b610bcf33611ac2565b610c41576040517f08c379a00000000000000000000000000000000000000000000000000000000081526004018080602001828103825260048152602001807f4f5031330000000000000000000000000000000000000000000000000000000081525060200191505060405180910390fd5b80600c8190555050565b610c5433611ac2565b80610c645750610c6333611937565b5b610cd6576040517f08c379a00000000000000000000000000000000000000000000000000000000081526004018080602001828103825260048152602001807f4f5030310000000000000000000000000000000000000000000000000000000081525060200191505060405180910390fd5b80601160006101000a81548173ffffffffffffffffffffffffffffffffffffffff021916908373ffffffffffffffffffffffffffffffffffffffff16021790555050565b610d2333611937565b610d95576040517f08c379a00000000000000000000000000000000000000000000000000000000081526004018080602001828103825260048152602001807f4f5030340000000000000000000000000000000000000000000000000000000081525060200191505060405180910390fd5b80600260006101000a81548173ffffffffffffffffffffffffffffffffffffffff021916908373ffffffffffffffffffffffffffffffffffffffff16021790555050565b601160009054906101000a900473ffffffffffffffffffffffffffffffffffffffff1681565b610e0833611ac2565b610e7a576040517f08c379a00000000000000000000000000000000000000000000000000000000081526004018080602001828103825260048152602001807f4f5031320000000000000000000000000000000000000000000000000000000081525060200191505060405180910390fd5b80600b8190555050565b610e8d33611ac2565b610eff576040517f08c379a00000000000000000000000000000000000000000000000000000000081526004018080602001828103825260048152602001807f4f5030370000000000000000000000000000000000000000000000000000000081525060200191505060405180910390fd5b80600760006101000a81548173ffffffffffffffffffffffffffffffffffffffff021916908373ffffffffffffffffffffffffffffffffffffffff16021790555050565b610f4c33611937565b610fbe576040517f08c379a00000000000000000000000000000000000000000000000000000000081526004018080602001828103825260048152602001807f4f5030350000000000000000000000000000000000000000000000000000000081525060200191505060405180910390fd5b80600660006101000a81548173ffffffffffffffffffffffffffffffffffffffff021916908373ffffffffffffffffffffffffffffffffffffffff16021790555050565b600080600080600061101333611ac2565b80611023575061102233611c4d565b5b80611033575061103233611dd8565b5b80611043575061104233611f63565b5b6110b5576040517f08c379a00000000000000000000000000000000000000000000000000000000081526004018080602001828103825260048152602001807f4f5031340000000000000000000000000000000000000000000000000000000081525060200191505060405180910390fd5b600160009054906101000a900473ffffffffffffffffffffffffffffffffffffffff16600260009054906101000a900473ffffffffffffffffffffffffffffffffffffffff16600760009054906101000a900473ffffffffffffffffffffffffffffffffffffffff16600360009054906101000a900473ffffffffffffffffffffffffffffffffffffffff16601160009054906101000a900473ffffffffffffffffffffffffffffffffffffffff16945094509450945094509091929394565b61117e33611937565b6111f0576040517f08c379a00000000000000000000000000000000000000000000000000000000081526004018080602001828103825260048152602001807f4f5030330000000000000000000000000000000000000000000000000000000081525060200191505060405180910390fd5b80600460006101000a81548173ffffffffffffffffffffffffffffffffffffffff021916908373ffffffffffffffffffffffffffffffffffffffff16021790555050565b600061123f33611ac2565b8061124f575061124e33611c4d565b5b8061125f575061125e33611dd8565b5b8061126f575061126e33611f63565b5b6112e1576040517f08c379a00000000000000000000000000000000000000000000000000000000081526004018080602001828103825260048152602001807f4f5031350000000000000000000000000000000000000000000000000000000081525060200191505060405180910390fd5b60016112ed600d6120ee565b03905090565b6112fc33611937565b61136e576040517f08c379a00000000000000000000000000000000000000000000000000000000081526004018080602001828103825260048152602001807f4f5030380000000000000000000000000000000000000000000000000000000081525060200191505060405180910390fd5b806000806101000a81548173ffffffffffffffffffffffffffffffffffffffff021916908373ffffffffffffffffffffffffffffffffffffffff16021790555050565b6113ba33611ac2565b61142c576040517f08c379a00000000000000000000000000000000000000000000000000000000081526004018080602001828103825260048152602001807f4f5031300000000000000000000000000000000000000000000000000000000081525060200191505060405180910390fd5b80600a8190555050565b61143f33611ac2565b6114b1576040517f08c379a00000000000000000000000000000000000000000000000000000000081526004018080602001828103825260048152602001807f4f5031310000000000000000000000000000000000000000000000000000000081525060200191505060405180910390fd5b8060098190555050565b6114c433611937565b611536576040517f08c379a00000000000000000000000000000000000000000000000000000000081526004018080602001828103825260048152602001807f4f5032320000000000000000000000000000000000000000000000000000000081525060200191505060405180910390fd5b80600360006101000a81548173ffffffffffffffffffffffffffffffffffffffff021916908373ffffffffffffffffffffffffffffffffffffffff16021790555050565b600061158533611ac2565b80611595575061159433611c4d565b5b806115a557506115a433611dd8565b5b806115b557506115b433611f63565b5b611627576040517f08c379a00000000000000000000000000000000000000000000000000000000081526004018080602001828103825260048152602001807f4f5032300000000000000000000000000000000000000000000000000000000081525060200191505060405180910390fd5b600b54905090565b600061163a33611ac2565b8061164a575061164933611c4d565b5b8061165a575061165933611dd8565b5b8061166a575061166933611f63565b5b6116dc576040517f08c379a00000000000000000000000000000000000000000000000000000000081526004018080602001828103825260048152602001807f4f5032310000000000000000000000000000000000000000000000000000000081525060200191505060405180910390fd5b600c54905090565b600f6020528060005260406000206000915054906101000a900460ff1681565b61170d33611937565b61177f576040517f08c379a00000000000000000000000000000000000000000000000000000000081526004018080602001828103825260048152602001807f4f5030360000000000000000000000000000000000000000000000000000000081525060200191505060405180910390fd5b80600560006101000a81548173ffffffffffffffffffffffffffffffffffffffff021916908373ffffffffffffffffffffffffffffffffffffffff16021790555050565b6117cc33611937565b61183e576040517f08c379a00000000000000000000000000000000000000000000000000000000081526004018080602001828103825260048152602001807f4f5030320000000000000000000000000000000000000000000000000000000081525060200191505060405180910390fd5b80600160006101000a81548173ffffffffffffffffffffffffffffffffffffffff021916908373ffffffffffffffffffffffffffffffffffffffff16021790555050565b600061188d33611ac2565b8061189d575061189c33611c4d565b5b806118ad57506118ac33611dd8565b5b806118bd57506118bc33611f63565b5b61192f576040517f08c379a00000000000000000000000000000000000000000000000000000000081526004018080602001828103825260048152602001807f4f5031380000000000000000000000000000000000000000000000000000000081525060200191505060405180910390fd5b600a54905090565b60008060009054906101000a900473ffffffffffffffffffffffffffffffffffffffff1673ffffffffffffffffffffffffffffffffffffffff166391d148546000809054906101000a900473ffffffffffffffffffffffffffffffffffffffff1673ffffffffffffffffffffffffffffffffffffffff166348f029896040518163ffffffff1660e01b815260040160206040518083038186803b1580156119dd57600080fd5b505afa1580156119f1573d6000803e3d6000fd5b505050506040513d6020811015611a0757600080fd5b8101908080519060200190929190505050846040518363ffffffff1660e01b8152600401808381526020018273ffffffffffffffffffffffffffffffffffffffff1673ffffffffffffffffffffffffffffffffffffffff1681526020019250505060206040518083038186803b158015611a8057600080fd5b505afa158015611a94573d6000803e3d6000fd5b505050506040513d6020811015611aaa57600080fd5b81019080805190602001909291905050509050919050565b60008060009054906101000a900473ffffffffffffffffffffffffffffffffffffffff1673ffffffffffffffffffffffffffffffffffffffff166391d148546000809054906101000a900473ffffffffffffffffffffffffffffffffffffffff1673ffffffffffffffffffffffffffffffffffffffff166375b238fc6040518163ffffffff1660e01b815260040160206040518083038186803b158015611b6857600080fd5b505afa158015611b7c573d6000803e3d6000fd5b505050506040513d6020811015611b9257600080fd5b8101908080519060200190929190505050846040518363ffffffff1660e01b8152600401808381526020018273ffffffffffffffffffffffffffffffffffffffff1673ffffffffffffffffffffffffffffffffffffffff1681526020019250505060206040518083038186803b158015611c0b57600080fd5b505afa158015611c1f573d6000803e3d6000fd5b505050506040513d6020811015611c3557600080fd5b81019080805190602001909291905050509050919050565b60008060009054906101000a900473ffffffffffffffffffffffffffffffffffffffff1673ffffffffffffffffffffffffffffffffffffffff166391d148546000809054906101000a900473ffffffffffffffffffffffffffffffffffffffff1673ffffffffffffffffffffffffffffffffffffffff16634db08aea6040518163ffffffff1660e01b815260040160206040518083038186803b158015611cf357600080fd5b505afa158015611d07573d6000803e3d6000fd5b505050506040513d6020811015611d1d57600080fd5b8101908080519060200190929190505050846040518363ffffffff1660e01b8152600401808381526020018273ffffffffffffffffffffffffffffffffffffffff1673ffffffffffffffffffffffffffffffffffffffff1681526020019250505060206040518083038186803b158015611d9657600080fd5b505afa158015611daa573d6000803e3d6000fd5b505050506040513d6020811015611dc057600080fd5b81019080805190602001909291905050509050919050565b60008060009054906101000a900473ffffffffffffffffffffffffffffffffffffffff1673ffffffffffffffffffffffffffffffffffffffff166391d148546000809054906101000a900473ffffffffffffffffffffffffffffffffffffffff1673ffffffffffffffffffffffffffffffffffffffff1663e90524f26040518163ffffffff1660e01b815260040160206040518083038186803b158015611e7e57600080fd5b505afa158015611e92573d6000803e3d6000fd5b505050506040513d6020811015611ea857600080fd5b8101908080519060200190929190505050846040518363ffffffff1660e01b8152600401808381526020018273ffffffffffffffffffffffffffffffffffffffff1673ffffffffffffffffffffffffffffffffffffffff1681526020019250505060206040518083038186803b158015611f2157600080fd5b505afa158015611f35573d6000803e3d6000fd5b505050506040513d6020811015611f4b57600080fd5b81019080805190602001909291905050509050919050565b60008060009054906101000a900473ffffffffffffffffffffffffffffffffffffffff1673ffffffffffffffffffffffffffffffffffffffff166391d148546000809054906101000a900473ffffffffffffffffffffffffffffffffffffffff1673ffffffffffffffffffffffffffffffffffffffff1663ef0fe2456040518163ffffffff1660e01b815260040160206040518083038186803b15801561200957600080fd5b505afa15801561201d573d6000803e3d6000fd5b505050506040513d602081101561203357600080fd5b8101908080519060200190929190505050846040518363ffffffff1660e01b8152600401808381526020018273ffffffffffffffffffffffffffffffffffffffff1673ffffffffffffffffffffffffffffffffffffffff1681526020019250505060206040518083038186803b1580156120ac57600080fd5b505afa1580156120c0573d6000803e3d6000fd5b505050506040513d60208110156120d657600080fd5b81019080805190602001909291905050509050919050565b600081600001549050919050565b600181600001600082825401925050819055505056fea26469706673582212203e6e445125c56270bf887540509b1f35e2353567ba6983a06d3c3d27a09922f464736f6c63430006020033",
  "source": "pragma solidity ^0.6.0;\n\nimport \"./orderBookDS.sol\";\n\ncontract orderBookProxy is orderBookDS {\n    \n    \n    event TradeStatusChange(uint256 ad,string action,string status,address b,uint256 p,uint256 d);\n    event NewTrade(uint256 t, address seller, uint256 itemID,uint256 p,address o,uint256 m,uint256 _datetime);\n    address public implementation;\n  \n\n    constructor (address _statemachine, address _access) public virtual\n    {\n        access = PermissionControl(_access);\n        statemachine = StateMachine(_statemachine);\n        //_setupRole(DEFAULT_ADMIN_ROLE, msg.sender);\n        percentage_decimal = 100;\n        fixdeposit=0;\n        depositpercentage = 300;\n        expiryday = 3;\n        _tradeID.increment();\n    }\n    \n\n    function upgradeTo(address _address) public {\n        require( _isAdmin(msg.sender) || _isCR(msg.sender) , \"OP01\");\n        implementation = _address;\n    }\n    \n    function setexpenseProxy(address _expensebookproxy) public {\n        require( _isCR(msg.sender) , \"OP02\");\n        expensebook=_expensebookproxy;\n    }\n\n    function setAccountReceivable(address _a) public {\n        require( _isCR(msg.sender),\"OP03\");\n        account_receivable = _a;\n    }\n    \n    function setbookkeep(address _bookkeep) public {\n        require( _isCR(msg.sender) , \"OP04\");\n        bookkeepingtoken=_bookkeep;\n    }\n    \n    function setplatformfees(address _a) public {\n        require( _isCR(msg.sender) , \"OP05\");\n        platformfees=_a;\n    }\n    \n    function setplatform(address _a) public {\n        require( _isCR(msg.sender) , \"OP06\");\n        platform=_a;\n    }\n    \n    function setStateMachine(address _machine) public  {\n        require( _isAdmin(msg.sender) , \"OP07\");\n        statemachine=StateMachine(_machine);\n    }\n    \n    function setPermissionControl(address _a)public {\n        require(_isCR(msg.sender),\"OP08\");\n        access = PermissionControl(_a);\n    }\n    \n    function setERC721Lookup(address _a)public {\n        require(_isCR(msg.sender),\"OP09\");\n        lookup = erc721DirectoryService(_a);\n    }\n    \n    \n    function setprecentage_decimal(uint256 d) public {\n        require( _isAdmin(msg.sender) , \"OP10\");\n        percentage_decimal=d;\n\n    }\n    \n    function setfixdeposit(uint256 d) public {\n        require( _isAdmin(msg.sender) , \"OP11\");\n        fixdeposit=d;\n\n    }\n    \n    function setdepositPercentage(uint256 d) public {\n        require( _isAdmin(msg.sender) , \"OP12\");\n        depositpercentage=d;\n    }\n    \n    function setexpiryday(uint256 d) public {\n        require( _isAdmin(msg.sender) , \"OP13\");\n        expiryday=d;\n    }\n    \n    function setContractFactory(address _cf) public {\n        require( _isCR(msg.sender) , \"OP22\");\n        contractfactory=_cf;\n    }\n    \n    function getAllContract() public view\n    returns(address,address,address,address,address)\n    {\n        require( _isAdmin(msg.sender) || _isSales(msg.sender) || _isAccount(msg.sender) || _isSettlement(msg.sender) , \"OP14\");\n        return(address(expensebook),address(bookkeepingtoken),address(statemachine),contractfactory,implementation);\n    }\n    \n    function getTradeCount() public view\n    returns(uint256 _c)\n    {\n        require( _isAdmin(msg.sender) || _isSales(msg.sender) || _isAccount(msg.sender) || _isSettlement(msg.sender) , \"OP15\");\n        return _tradeID.current()-1;\n    }\n    \n    function getSellSideContractAddress(uint256 _i) public view\n    returns(address _a)\n    {\n        require( _isAdmin(msg.sender) || _isSales(msg.sender) || _isAccount(msg.sender) || _isSettlement(msg.sender) , \"OP17\");\n        return trades[_i];\n    }\n    \n    function getprecentage_decimal() public view\n    returns(uint256)\n    {\n        require( _isAdmin(msg.sender) || _isSales(msg.sender) || _isAccount(msg.sender) || _isSettlement(msg.sender) , \"OP18\");\n        \n        return percentage_decimal;\n    }\n    \n    function getfixdeposit() public view\n    returns(uint256)\n    {\n        require( _isAdmin(msg.sender) || _isSales(msg.sender) || _isAccount(msg.sender) || _isSettlement(msg.sender) , \"OP19\");\n        \n        return fixdeposit;\n    }\n    \n    function getdepositPercentage() public view\n    returns(uint256)\n    {\n        require( _isAdmin(msg.sender) || _isSales(msg.sender) || _isAccount(msg.sender) || _isSettlement(msg.sender) , \"OP20\");\n        \n        return depositpercentage;\n    }\n    \n    function getexpiryday() public view\n    returns(uint256)\n    {\n        require( _isAdmin(msg.sender) || _isSales(msg.sender) || _isAccount(msg.sender) || _isSettlement(msg.sender) , \"OP21\");\n        \n        return expiryday;\n    }\n    \n    \n\n\n/**\n* @dev Fallback function allowing to perform a delegatecall to the given implementation.\n* This function will return whatever the implementation call returns\n*/\n    fallback() external payable  {\n        address _impl = implementation;\n        require(_impl != address(0),\"OP23\");\n        \n       assembly {\n                calldatacopy(0, 0, calldatasize())\n                let result := delegatecall(gas(), _impl, 0, calldatasize(), 0, 0)\n                returndatacopy(0, 0, returndatasize())\n                switch result\n                case 0 { revert(0, returndatasize()) }\n                default { return(0, returndatasize()) }\n            }\n    }\n\n} ",
  "sourcePath": "/home/dickchan/ERC721Marketplace/contracts/BookContract/orderBookProxy.sol",
  "compiler": {
    "name": "solc",
    "version": "0.6.2+commit.bacdbe57.Emscripten.clang"
  },
  "schemaVersion": "3.2.3",
  "updatedAt": "2020-11-19T07:51:27.220Z",
  "devdoc": {
    "methods": {}
  },
  "userdoc": {
    "methods": {}
  }
}