{
  "contractName": "PaymentBook",
  "abi": [
    {
      "inputs": [
        {
          "internalType": "uint256",
          "name": "initialSupply",
          "type": "uint256"
        },
        {
          "internalType": "uint8",
          "name": "decimal",
          "type": "uint8"
        }
      ],
      "stateMutability": "nonpayable",
      "type": "constructor"
    },
    {
      "anonymous": false,
      "inputs": [
        {
          "indexed": true,
          "internalType": "address",
          "name": "owner",
          "type": "address"
        },
        {
          "indexed": true,
          "internalType": "address",
          "name": "spender",
          "type": "address"
        },
        {
          "indexed": false,
          "internalType": "uint256",
          "name": "value",
          "type": "uint256"
        }
      ],
      "name": "Approval",
      "type": "event"
    },
    {
      "anonymous": false,
      "inputs": [
        {
          "indexed": false,
          "internalType": "address",
          "name": "p",
          "type": "address"
        },
        {
          "indexed": false,
          "internalType": "uint256",
          "name": "a",
          "type": "uint256"
        },
        {
          "indexed": false,
          "internalType": "uint256",
          "name": "s",
          "type": "uint256"
        },
        {
          "indexed": false,
          "internalType": "uint256",
          "name": "pid",
          "type": "uint256"
        },
        {
          "indexed": false,
          "internalType": "string",
          "name": "state",
          "type": "string"
        },
        {
          "indexed": false,
          "internalType": "uint8",
          "name": "ptype",
          "type": "uint8"
        },
        {
          "indexed": false,
          "internalType": "uint256",
          "name": "_datetime",
          "type": "uint256"
        },
        {
          "indexed": false,
          "internalType": "uint256",
          "name": "_seq",
          "type": "uint256"
        }
      ],
      "name": "NewPayment",
      "type": "event"
    },
    {
      "anonymous": false,
      "inputs": [
        {
          "indexed": false,
          "internalType": "address",
          "name": "account",
          "type": "address"
        }
      ],
      "name": "Paused",
      "type": "event"
    },
    {
      "anonymous": false,
      "inputs": [
        {
          "indexed": false,
          "internalType": "uint256",
          "name": "ad",
          "type": "uint256"
        },
        {
          "indexed": false,
          "internalType": "string",
          "name": "status",
          "type": "string"
        },
        {
          "indexed": false,
          "internalType": "string",
          "name": "tx",
          "type": "string"
        },
        {
          "indexed": false,
          "internalType": "string",
          "name": "br",
          "type": "string"
        },
        {
          "indexed": false,
          "internalType": "uint256",
          "name": "s",
          "type": "uint256"
        },
        {
          "indexed": false,
          "internalType": "uint256",
          "name": "_datetime",
          "type": "uint256"
        },
        {
          "indexed": false,
          "internalType": "uint8",
          "name": "ptype",
          "type": "uint8"
        }
      ],
      "name": "PaymentStatusChange",
      "type": "event"
    },
    {
      "anonymous": false,
      "inputs": [
        {
          "indexed": true,
          "internalType": "bytes32",
          "name": "role",
          "type": "bytes32"
        },
        {
          "indexed": true,
          "internalType": "bytes32",
          "name": "previousAdminRole",
          "type": "bytes32"
        },
        {
          "indexed": true,
          "internalType": "bytes32",
          "name": "newAdminRole",
          "type": "bytes32"
        }
      ],
      "name": "RoleAdminChanged",
      "type": "event"
    },
    {
      "anonymous": false,
      "inputs": [
        {
          "indexed": true,
          "internalType": "bytes32",
          "name": "role",
          "type": "bytes32"
        },
        {
          "indexed": true,
          "internalType": "address",
          "name": "account",
          "type": "address"
        },
        {
          "indexed": true,
          "internalType": "address",
          "name": "sender",
          "type": "address"
        }
      ],
      "name": "RoleGranted",
      "type": "event"
    },
    {
      "anonymous": false,
      "inputs": [
        {
          "indexed": true,
          "internalType": "bytes32",
          "name": "role",
          "type": "bytes32"
        },
        {
          "indexed": true,
          "internalType": "address",
          "name": "account",
          "type": "address"
        },
        {
          "indexed": true,
          "internalType": "address",
          "name": "sender",
          "type": "address"
        }
      ],
      "name": "RoleRevoked",
      "type": "event"
    },
    {
      "anonymous": false,
      "inputs": [
        {
          "indexed": true,
          "internalType": "address",
          "name": "from",
          "type": "address"
        },
        {
          "indexed": true,
          "internalType": "address",
          "name": "to",
          "type": "address"
        },
        {
          "indexed": false,
          "internalType": "uint256",
          "name": "value",
          "type": "uint256"
        }
      ],
      "name": "Transfer",
      "type": "event"
    },
    {
      "anonymous": false,
      "inputs": [
        {
          "indexed": false,
          "internalType": "address",
          "name": "account",
          "type": "address"
        }
      ],
      "name": "Unpaused",
      "type": "event"
    },
    {
      "inputs": [],
      "name": "DEFAULT_ADMIN_ROLE",
      "outputs": [
        {
          "internalType": "bytes32",
          "name": "",
          "type": "bytes32"
        }
      ],
      "stateMutability": "view",
      "type": "function"
    },
    {
      "inputs": [],
      "name": "MINTER_ROLE",
      "outputs": [
        {
          "internalType": "bytes32",
          "name": "",
          "type": "bytes32"
        }
      ],
      "stateMutability": "view",
      "type": "function"
    },
    {
      "inputs": [],
      "name": "PAUSER_ROLE",
      "outputs": [
        {
          "internalType": "bytes32",
          "name": "",
          "type": "bytes32"
        }
      ],
      "stateMutability": "view",
      "type": "function"
    },
    {
      "inputs": [
        {
          "internalType": "address",
          "name": "owner",
          "type": "address"
        },
        {
          "internalType": "address",
          "name": "spender",
          "type": "address"
        }
      ],
      "name": "allowance",
      "outputs": [
        {
          "internalType": "uint256",
          "name": "",
          "type": "uint256"
        }
      ],
      "stateMutability": "view",
      "type": "function"
    },
    {
      "inputs": [
        {
          "internalType": "address",
          "name": "spender",
          "type": "address"
        },
        {
          "internalType": "uint256",
          "name": "amount",
          "type": "uint256"
        }
      ],
      "name": "approve",
      "outputs": [
        {
          "internalType": "bool",
          "name": "",
          "type": "bool"
        }
      ],
      "stateMutability": "nonpayable",
      "type": "function"
    },
    {
      "inputs": [
        {
          "internalType": "address",
          "name": "account",
          "type": "address"
        }
      ],
      "name": "balanceOf",
      "outputs": [
        {
          "internalType": "uint256",
          "name": "",
          "type": "uint256"
        }
      ],
      "stateMutability": "view",
      "type": "function"
    },
    {
      "inputs": [
        {
          "internalType": "uint256",
          "name": "amount",
          "type": "uint256"
        }
      ],
      "name": "burn",
      "outputs": [],
      "stateMutability": "nonpayable",
      "type": "function"
    },
    {
      "inputs": [
        {
          "internalType": "address",
          "name": "account",
          "type": "address"
        },
        {
          "internalType": "uint256",
          "name": "amount",
          "type": "uint256"
        }
      ],
      "name": "burnFrom",
      "outputs": [],
      "stateMutability": "nonpayable",
      "type": "function"
    },
    {
      "inputs": [],
      "name": "decimals",
      "outputs": [
        {
          "internalType": "uint8",
          "name": "",
          "type": "uint8"
        }
      ],
      "stateMutability": "view",
      "type": "function"
    },
    {
      "inputs": [
        {
          "internalType": "address",
          "name": "spender",
          "type": "address"
        },
        {
          "internalType": "uint256",
          "name": "subtractedValue",
          "type": "uint256"
        }
      ],
      "name": "decreaseAllowance",
      "outputs": [
        {
          "internalType": "bool",
          "name": "",
          "type": "bool"
        }
      ],
      "stateMutability": "nonpayable",
      "type": "function"
    },
    {
      "inputs": [
        {
          "internalType": "bytes32",
          "name": "role",
          "type": "bytes32"
        }
      ],
      "name": "getRoleAdmin",
      "outputs": [
        {
          "internalType": "bytes32",
          "name": "",
          "type": "bytes32"
        }
      ],
      "stateMutability": "view",
      "type": "function"
    },
    {
      "inputs": [
        {
          "internalType": "bytes32",
          "name": "role",
          "type": "bytes32"
        },
        {
          "internalType": "uint256",
          "name": "index",
          "type": "uint256"
        }
      ],
      "name": "getRoleMember",
      "outputs": [
        {
          "internalType": "address",
          "name": "",
          "type": "address"
        }
      ],
      "stateMutability": "view",
      "type": "function"
    },
    {
      "inputs": [
        {
          "internalType": "bytes32",
          "name": "role",
          "type": "bytes32"
        }
      ],
      "name": "getRoleMemberCount",
      "outputs": [
        {
          "internalType": "uint256",
          "name": "",
          "type": "uint256"
        }
      ],
      "stateMutability": "view",
      "type": "function"
    },
    {
      "inputs": [
        {
          "internalType": "bytes32",
          "name": "role",
          "type": "bytes32"
        },
        {
          "internalType": "address",
          "name": "account",
          "type": "address"
        }
      ],
      "name": "grantRole",
      "outputs": [],
      "stateMutability": "nonpayable",
      "type": "function"
    },
    {
      "inputs": [
        {
          "internalType": "bytes32",
          "name": "role",
          "type": "bytes32"
        },
        {
          "internalType": "address",
          "name": "account",
          "type": "address"
        }
      ],
      "name": "hasRole",
      "outputs": [
        {
          "internalType": "bool",
          "name": "",
          "type": "bool"
        }
      ],
      "stateMutability": "view",
      "type": "function"
    },
    {
      "inputs": [
        {
          "internalType": "address",
          "name": "spender",
          "type": "address"
        },
        {
          "internalType": "uint256",
          "name": "addedValue",
          "type": "uint256"
        }
      ],
      "name": "increaseAllowance",
      "outputs": [
        {
          "internalType": "bool",
          "name": "",
          "type": "bool"
        }
      ],
      "stateMutability": "nonpayable",
      "type": "function"
    },
    {
      "inputs": [
        {
          "internalType": "address",
          "name": "to",
          "type": "address"
        },
        {
          "internalType": "uint256",
          "name": "amount",
          "type": "uint256"
        }
      ],
      "name": "mint",
      "outputs": [],
      "stateMutability": "nonpayable",
      "type": "function"
    },
    {
      "inputs": [],
      "name": "name",
      "outputs": [
        {
          "internalType": "string",
          "name": "",
          "type": "string"
        }
      ],
      "stateMutability": "view",
      "type": "function"
    },
    {
      "inputs": [],
      "name": "pause",
      "outputs": [],
      "stateMutability": "nonpayable",
      "type": "function"
    },
    {
      "inputs": [],
      "name": "paused",
      "outputs": [
        {
          "internalType": "bool",
          "name": "",
          "type": "bool"
        }
      ],
      "stateMutability": "view",
      "type": "function"
    },
    {
      "inputs": [
        {
          "internalType": "bytes32",
          "name": "role",
          "type": "bytes32"
        },
        {
          "internalType": "address",
          "name": "account",
          "type": "address"
        }
      ],
      "name": "renounceRole",
      "outputs": [],
      "stateMutability": "nonpayable",
      "type": "function"
    },
    {
      "inputs": [
        {
          "internalType": "bytes32",
          "name": "role",
          "type": "bytes32"
        },
        {
          "internalType": "address",
          "name": "account",
          "type": "address"
        }
      ],
      "name": "revokeRole",
      "outputs": [],
      "stateMutability": "nonpayable",
      "type": "function"
    },
    {
      "inputs": [],
      "name": "symbol",
      "outputs": [
        {
          "internalType": "string",
          "name": "",
          "type": "string"
        }
      ],
      "stateMutability": "view",
      "type": "function"
    },
    {
      "inputs": [],
      "name": "totalSupply",
      "outputs": [
        {
          "internalType": "uint256",
          "name": "",
          "type": "uint256"
        }
      ],
      "stateMutability": "view",
      "type": "function"
    },
    {
      "inputs": [
        {
          "internalType": "address",
          "name": "recipient",
          "type": "address"
        },
        {
          "internalType": "uint256",
          "name": "amount",
          "type": "uint256"
        }
      ],
      "name": "transfer",
      "outputs": [
        {
          "internalType": "bool",
          "name": "",
          "type": "bool"
        }
      ],
      "stateMutability": "nonpayable",
      "type": "function"
    },
    {
      "inputs": [
        {
          "internalType": "address",
          "name": "sender",
          "type": "address"
        },
        {
          "internalType": "address",
          "name": "recipient",
          "type": "address"
        },
        {
          "internalType": "uint256",
          "name": "amount",
          "type": "uint256"
        }
      ],
      "name": "transferFrom",
      "outputs": [
        {
          "internalType": "bool",
          "name": "",
          "type": "bool"
        }
      ],
      "stateMutability": "nonpayable",
      "type": "function"
    },
    {
      "inputs": [],
      "name": "unpause",
      "outputs": [],
      "stateMutability": "nonpayable",
      "type": "function"
    },
    {
      "inputs": [
        {
          "internalType": "address",
          "name": "_ordbook",
          "type": "address"
        }
      ],
      "name": "setOrdBoook",
      "outputs": [],
      "stateMutability": "nonpayable",
      "type": "function"
    },
    {
      "inputs": [],
      "name": "getpaymentcount",
      "outputs": [
        {
          "internalType": "uint256",
          "name": "",
          "type": "uint256"
        }
      ],
      "stateMutability": "view",
      "type": "function"
    },
    {
      "inputs": [
        {
          "internalType": "uint256",
          "name": "_salesID",
          "type": "uint256"
        },
        {
          "internalType": "uint256",
          "name": "_seq",
          "type": "uint256"
        }
      ],
      "name": "getpaymentIDbySale",
      "outputs": [
        {
          "internalType": "uint256",
          "name": "id",
          "type": "uint256"
        }
      ],
      "stateMutability": "view",
      "type": "function"
    },
    {
      "inputs": [
        {
          "internalType": "uint256",
          "name": "_salesID",
          "type": "uint256"
        },
        {
          "internalType": "uint256",
          "name": "_amount",
          "type": "uint256"
        },
        {
          "internalType": "address",
          "name": "_payer",
          "type": "address"
        },
        {
          "internalType": "uint8",
          "name": "_paymenttype",
          "type": "uint8"
        },
        {
          "internalType": "uint256",
          "name": "_seq",
          "type": "uint256"
        },
        {
          "internalType": "uint256",
          "name": "_datetime",
          "type": "uint256"
        }
      ],
      "name": "addpayment",
      "outputs": [
        {
          "internalType": "uint256",
          "name": "",
          "type": "uint256"
        }
      ],
      "stateMutability": "nonpayable",
      "type": "function"
    },
    {
      "inputs": [
        {
          "internalType": "uint256",
          "name": "_paymentid",
          "type": "uint256"
        }
      ],
      "name": "getPaymentdetail",
      "outputs": [
        {
          "internalType": "address",
          "name": "",
          "type": "address"
        },
        {
          "internalType": "uint256",
          "name": "",
          "type": "uint256"
        },
        {
          "internalType": "uint256",
          "name": "",
          "type": "uint256"
        },
        {
          "internalType": "string",
          "name": "",
          "type": "string"
        },
        {
          "internalType": "string",
          "name": "",
          "type": "string"
        },
        {
          "internalType": "uint8",
          "name": "",
          "type": "uint8"
        },
        {
          "internalType": "string",
          "name": "",
          "type": "string"
        },
        {
          "internalType": "uint256",
          "name": "",
          "type": "uint256"
        },
        {
          "internalType": "uint256",
          "name": "",
          "type": "uint256"
        }
      ],
      "stateMutability": "view",
      "type": "function"
    },
    {
      "inputs": [
        {
          "internalType": "uint256",
          "name": "_paymentid",
          "type": "uint256"
        },
        {
          "internalType": "uint256",
          "name": "_datetime",
          "type": "uint256"
        }
      ],
      "name": "cancelPayment",
      "outputs": [],
      "stateMutability": "nonpayable",
      "type": "function"
    },
    {
      "inputs": [
        {
          "internalType": "uint256",
          "name": "_paymentid",
          "type": "uint256"
        },
        {
          "internalType": "string",
          "name": "_bankrectx",
          "type": "string"
        },
        {
          "internalType": "uint256",
          "name": "_settledate",
          "type": "uint256"
        },
        {
          "internalType": "bool",
          "name": "_accept",
          "type": "bool"
        },
        {
          "internalType": "uint256",
          "name": "_datetime",
          "type": "uint256"
        },
        {
          "internalType": "uint8",
          "name": "_paymenttpye",
          "type": "uint8"
        }
      ],
      "name": "bankrec",
      "outputs": [
        {
          "internalType": "uint256",
          "name": "",
          "type": "uint256"
        }
      ],
      "stateMutability": "nonpayable",
      "type": "function"
    }
  ],
  "bytecode": "0x60806040523480156200001157600080fd5b5060405162004f7a38038062004f7a833981810160405260408110156200003757600080fd5b8101908080519060200190929190805190602001909291905050506040518060400160405280600881526020017f414f43436f696e730000000000000000000000000000000000000000000000008152506040518060400160405280600381526020017f414f43000000000000000000000000000000000000000000000000000000000081525081818160049080519060200190620000d892919062000863565b508060059080519060200190620000f192919062000863565b506012600660006101000a81548160ff021916908360ff16021790555050506000600660016101000a81548160ff0219169083151502179055506200014f6000801b620001436200023f60201b60201c565b6200024760201b60201c565b620001a560405180807f4d494e5445525f524f4c45000000000000000000000000000000000000000000815250600b0190506040518091039020620001996200023f60201b60201c565b6200024760201b60201c565b620001fb60405180807f5041555345525f524f4c45000000000000000000000000000000000000000000815250600b0190506040518091039020620001ef6200023f60201b60201c565b6200024760201b60201c565b50506200020e816200025d60201b60201c565b6200022033836200027b60201b60201c565b6200023760076200033e60201b62003dfe1760201c565b505062000912565b600033905090565b6200025982826200035460201b60201c565b5050565b80600660006101000a81548160ff021916908360ff16021790555050565b620002d160405180807f4d494e5445525f524f4c45000000000000000000000000000000000000000000815250600b0190506040518091039020620002c56200023f60201b60201c565b620003f760201b60201c565b62000328576040517f08c379a000000000000000000000000000000000000000000000000000000000815260040180806020018281038252603681526020018062004f1a6036913960400191505060405180910390fd5b6200033a82826200042f60201b60201c565b5050565b6001816000016000828254019250508190555050565b62000382816000808581526020019081526020016000206000016200060f60201b62003e241790919060201c565b15620003f357620003986200023f60201b60201c565b73ffffffffffffffffffffffffffffffffffffffff168173ffffffffffffffffffffffffffffffffffffffff16837f2f8788117e7eff1d82e926ec794901d17c78024a50270940304540a733656f0d60405160405180910390a45b5050565b600062000427826000808681526020019081526020016000206000016200064760201b62003db91790919060201c565b905092915050565b600073ffffffffffffffffffffffffffffffffffffffff168273ffffffffffffffffffffffffffffffffffffffff161415620004d3576040517f08c379a000000000000000000000000000000000000000000000000000000000815260040180806020018281038252601f8152602001807f45524332303a206d696e7420746f20746865207a65726f20616464726573730081525060200191505060405180910390fd5b620004e7600083836200067f60201b60201c565b62000503816003546200069c60201b620037671790919060201c565b6003819055506200056281600160008573ffffffffffffffffffffffffffffffffffffffff1673ffffffffffffffffffffffffffffffffffffffff168152602001908152602001600020546200069c60201b620037671790919060201c565b600160008473ffffffffffffffffffffffffffffffffffffffff1673ffffffffffffffffffffffffffffffffffffffff168152602001908152602001600020819055508173ffffffffffffffffffffffffffffffffffffffff16600073ffffffffffffffffffffffffffffffffffffffff167fddf252ad1be2c89b69c2b068fc378daa952ba7f163c4a11628f55a4df523b3ef836040518082815260200191505060405180910390a35050565b60006200063f836000018373ffffffffffffffffffffffffffffffffffffffff1660001b6200072560201b60201c565b905092915050565b600062000677836000018373ffffffffffffffffffffffffffffffffffffffff1660001b6200079f60201b60201c565b905092915050565b62000697838383620007c260201b62003f851760201c565b505050565b6000808284019050838110156200071b576040517f08c379a000000000000000000000000000000000000000000000000000000000815260040180806020018281038252601b8152602001807f536166654d6174683a206164646974696f6e206f766572666c6f77000000000081525060200191505060405180910390fd5b8091505092915050565b60006200073983836200079f60201b60201c565b6200079457826000018290806001815401808255809150506001900390600052602060002001600090919091909150558260000180549050836001016000848152602001908152602001600020819055506001905062000799565b600090505b92915050565b600080836001016000848152602001908152602001600020541415905092915050565b620007da8383836200084760201b6200414b1760201c565b620007ea6200084c60201b60201c565b1562000842576040517f08c379a000000000000000000000000000000000000000000000000000000000815260040180806020018281038252602a81526020018062004f50602a913960400191505060405180910390fd5b505050565b505050565b6000600660019054906101000a900460ff16905090565b828054600181600116156101000203166002900490600052602060002090601f016020900481019282601f10620008a657805160ff1916838001178555620008d7565b82800160010185558215620008d7579182015b82811115620008d6578251825591602001919060010190620008b9565b5b509050620008e69190620008ea565b5090565b6200090f91905b808211156200090b576000816000905550600101620008f1565b5090565b90565b6145f880620009226000396000f3fe608060405234801561001057600080fd5b50600436106102065760003560e01c806379cc67901161011a578063ae8ca088116100ad578063d547741f1161007c578063d547741f14610c86578063dd62ed3e14610cd4578063e63ab1e914610d4c578063eef8f1be14610d6a578063f9300bc414610dae57610206565b8063ae8ca08814610ae8578063c2e8697214610bee578063ca15c87314610c26578063d539139314610c6857610206565b806395d89b41116100e957806395d89b411461097b578063a217fddf146109fe578063a457c2d714610a1c578063a9059cbb14610a8257610206565b806379cc6790146108455780638456cb59146108935780639010d07c1461089d57806391d148541461091557610206565b806336568abe1161019d57806342966c681161016c57806342966c68146105a457806351896d97146105d25780635c975abb146105f0578063680600e51461061257806370a08231146107ed57610206565b806336568abe1461049857806339509351146104e65780633f4ba83a1461054c57806340c10f191461055657610206565b8063248a9ca3116101d9578063248a9ca314610398578063279b0834146103da5780632f2ff15d14610426578063313ce5671461047457610206565b806306fdde031461020b578063095ea7b31461028e57806318160ddd146102f457806323b872dd14610312575b600080fd5b610213610e3b565b6040518080602001828103825283818151815260200191508051906020019080838360005b83811015610253578082015181840152602081019050610238565b50505050905090810190601f1680156102805780820380516001836020036101000a031916815260200191505b509250505060405180910390f35b6102da600480360360408110156102a457600080fd5b81019080803573ffffffffffffffffffffffffffffffffffffffff16906020019092919080359060200190929190505050610edd565b604051808215151515815260200191505060405180910390f35b6102fc610efb565b6040518082815260200191505060405180910390f35b61037e6004803603606081101561032857600080fd5b81019080803573ffffffffffffffffffffffffffffffffffffffff169060200190929190803573ffffffffffffffffffffffffffffffffffffffff16906020019092919080359060200190929190505050610f05565b604051808215151515815260200191505060405180910390f35b6103c4600480360360208110156103ae57600080fd5b8101908080359060200190929190505050610fde565b6040518082815260200191505060405180910390f35b610410600480360360408110156103f057600080fd5b810190808035906020019092919080359060200190929190505050610ffd565b6040518082815260200191505060405180910390f35b6104726004803603604081101561043c57600080fd5b8101908080359060200190929190803573ffffffffffffffffffffffffffffffffffffffff16906020019092919050505061102c565b005b61047c6110b5565b604051808260ff1660ff16815260200191505060405180910390f35b6104e4600480360360408110156104ae57600080fd5b8101908080359060200190929190803573ffffffffffffffffffffffffffffffffffffffff1690602001909291905050506110cc565b005b610532600480360360408110156104fc57600080fd5b81019080803573ffffffffffffffffffffffffffffffffffffffff16906020019092919080359060200190929190505050611165565b604051808215151515815260200191505060405180910390f35b610554611218565b005b6105a26004803603604081101561056c57600080fd5b81019080803573ffffffffffffffffffffffffffffffffffffffff169060200190929190803590602001909291905050506112bd565b005b6105d0600480360360208110156105ba57600080fd5b8101908080359060200190929190505050611366565b005b6105da61137a565b6040518082815260200191505060405180910390f35b6105f861138e565b604051808215151515815260200191505060405180910390f35b61063e6004803603602081101561062857600080fd5b81019080803590602001909291905050506113a5565b604051808a73ffffffffffffffffffffffffffffffffffffffff1673ffffffffffffffffffffffffffffffffffffffff16815260200189815260200188815260200180602001806020018760ff1660ff1681526020018060200186815260200185815260200184810384528a818151815260200191508051906020019080838360005b838110156106dc5780820151818401526020810190506106c1565b50505050905090810190601f1680156107095780820380516001836020036101000a031916815260200191505b50848103835289818151815260200191508051906020019080838360005b83811015610742578082015181840152602081019050610727565b50505050905090810190601f16801561076f5780820380516001836020036101000a031916815260200191505b50848103825287818151815260200191508051906020019080838360005b838110156107a857808201518184015260208101905061078d565b50505050905090810190601f1680156107d55780820380516001836020036101000a031916815260200191505b509c5050505050505050505050505060405180910390f35b61082f6004803603602081101561080357600080fd5b81019080803573ffffffffffffffffffffffffffffffffffffffff16906020019092919050505061176d565b6040518082815260200191505060405180910390f35b6108916004803603604081101561085b57600080fd5b81019080803573ffffffffffffffffffffffffffffffffffffffff169060200190929190803590602001909291905050506117b6565b005b61089b611818565b005b6108d3600480360360408110156108b357600080fd5b8101908080359060200190929190803590602001909291905050506118bd565b604051808273ffffffffffffffffffffffffffffffffffffffff1673ffffffffffffffffffffffffffffffffffffffff16815260200191505060405180910390f35b6109616004803603604081101561092b57600080fd5b8101908080359060200190929190803573ffffffffffffffffffffffffffffffffffffffff1690602001909291905050506118ee565b604051808215151515815260200191505060405180910390f35b61098361191f565b6040518080602001828103825283818151815260200191508051906020019080838360005b838110156109c35780820151818401526020810190506109a8565b50505050905090810190601f1680156109f05780820380516001836020036101000a031916815260200191505b509250505060405180910390f35b610a066119c1565b6040518082815260200191505060405180910390f35b610a6860048036036040811015610a3257600080fd5b81019080803573ffffffffffffffffffffffffffffffffffffffff169060200190929190803590602001909291905050506119c8565b604051808215151515815260200191505060405180910390f35b610ace60048036036040811015610a9857600080fd5b81019080803573ffffffffffffffffffffffffffffffffffffffff16906020019092919080359060200190929190505050611a95565b604051808215151515815260200191505060405180910390f35b610bd8600480360360c0811015610afe57600080fd5b810190808035906020019092919080359060200190640100000000811115610b2557600080fd5b820183602082011115610b3757600080fd5b80359060200191846001830284011164010000000083111715610b5957600080fd5b91908080601f016020809104026020016040519081016040528093929190818152602001838380828437600081840152601f19601f8201169050808301925050505050505091929192908035906020019092919080351515906020019092919080359060200190929190803560ff169060200190929190505050611ab3565b6040518082815260200191505060405180910390f35b610c2460048036036040811015610c0457600080fd5b810190808035906020019092919080359060200190929190505050612454565b005b610c5260048036036020811015610c3c57600080fd5b81019080803590602001909291905050506128ca565b6040518082815260200191505060405180910390f35b610c706128f0565b6040518082815260200191505060405180910390f35b610cd260048036036040811015610c9c57600080fd5b8101908080359060200190929190803573ffffffffffffffffffffffffffffffffffffffff169060200190929190505050612929565b005b610d3660048036036040811015610cea57600080fd5b81019080803573ffffffffffffffffffffffffffffffffffffffff169060200190929190803573ffffffffffffffffffffffffffffffffffffffff1690602001909291905050506129b2565b6040518082815260200191505060405180910390f35b610d54612a39565b6040518082815260200191505060405180910390f35b610dac60048036036020811015610d8057600080fd5b81019080803573ffffffffffffffffffffffffffffffffffffffff169060200190929190505050612a72565b005b610e25600480360360c0811015610dc457600080fd5b810190808035906020019092919080359060200190929190803573ffffffffffffffffffffffffffffffffffffffff169060200190929190803560ff1690602001909291908035906020019092919080359060200190929190505050612b6e565b6040518082815260200191505060405180910390f35b606060048054600181600116156101000203166002900480601f016020809104026020016040519081016040528092919081815260200182805460018160011615610100020316600290048015610ed35780601f10610ea857610100808354040283529160200191610ed3565b820191906000526020600020905b815481529060010190602001808311610eb657829003601f168201915b5050505050905090565b6000610ef1610eea6130bd565b84846130c5565b6001905092915050565b6000600354905090565b6000610f128484846132bc565b610fd384610f1e6130bd565b610fce8560405180606001604052806028815260200161442260289139600260008b73ffffffffffffffffffffffffffffffffffffffff1673ffffffffffffffffffffffffffffffffffffffff1681526020019081526020016000206000610f846130bd565b73ffffffffffffffffffffffffffffffffffffffff1673ffffffffffffffffffffffffffffffffffffffff168152602001908152602001600020546135819092919063ffffffff16565b6130c5565b600190509392505050565b6000806000838152602001908152602001600020600201549050919050565b600060096000848152602001908152602001600020600083815260200190815260200160002054905092915050565b6110526000808481526020019081526020016000206002015461104d6130bd565b6118ee565b6110a7576040517f08c379a000000000000000000000000000000000000000000000000000000000815260040180806020018281038252602f815260200180614320602f913960400191505060405180910390fd5b6110b18282613641565b5050565b6000600660009054906101000a900460ff16905090565b6110d46130bd565b73ffffffffffffffffffffffffffffffffffffffff168173ffffffffffffffffffffffffffffffffffffffff1614611157576040517f08c379a000000000000000000000000000000000000000000000000000000000815260040180806020018281038252602f81526020018061456a602f913960400191505060405180910390fd5b61116182826136d4565b5050565b600061120e6111726130bd565b8461120985600260006111836130bd565b73ffffffffffffffffffffffffffffffffffffffff1673ffffffffffffffffffffffffffffffffffffffff16815260200190815260200160002060008973ffffffffffffffffffffffffffffffffffffffff1673ffffffffffffffffffffffffffffffffffffffff1681526020019081526020016000205461376790919063ffffffff16565b6130c5565b6001905092915050565b61125e60405180807f5041555345525f524f4c45000000000000000000000000000000000000000000815250600b01905060405180910390206112596130bd565b6118ee565b6112b3576040517f08c379a00000000000000000000000000000000000000000000000000000000081526004018080602001828103825260398152602001806143716039913960400191505060405180910390fd5b6112bb6137ef565b565b61130360405180807f4d494e5445525f524f4c45000000000000000000000000000000000000000000815250600b01905060405180910390206112fe6130bd565b6118ee565b611358576040517f08c379a000000000000000000000000000000000000000000000000000000000815260040180806020018281038252603681526020018061444a6036913960400191505060405180910390fd5b61136282826138f8565b5050565b6113776113716130bd565b82613ac1565b50565b600060016113886007613c87565b03905090565b6000600660019054906101000a900460ff16905090565b6000806000606080600060606000806113fa60405180807f4d494e5445525f524f4c45000000000000000000000000000000000000000000815250600b01905060405180910390206113f56130bd565b6118ee565b61146c576040517f08c379a00000000000000000000000000000000000000000000000000000000081526004018080602001828103825260028152602001807f503600000000000000000000000000000000000000000000000000000000000081525060200191505060405180910390fd5b611474614150565b600860008c8152602001908152602001600020604051806101200160405290816000820160009054906101000a900473ffffffffffffffffffffffffffffffffffffffff1673ffffffffffffffffffffffffffffffffffffffff1673ffffffffffffffffffffffffffffffffffffffff1681526020016001820154815260200160028201548152602001600382018054600181600116156101000203166002900480601f0160208091040260200160405190810160405280929190818152602001828054600181600116156101000203166002900480156115965780601f1061156b57610100808354040283529160200191611596565b820191906000526020600020905b81548152906001019060200180831161157957829003601f168201915b50505050508152602001600482018054600181600116156101000203166002900480601f0160208091040260200160405190810160405280929190818152602001828054600181600116156101000203166002900480156116385780601f1061160d57610100808354040283529160200191611638565b820191906000526020600020905b81548152906001019060200180831161161b57829003601f168201915b505050505081526020016005820160009054906101000a900460ff1660ff1660ff168152602001600682018054600181600116156101000203166002900480601f0160208091040260200160405190810160405280929190818152602001828054600181600116156101000203166002900480156116f75780601f106116cc576101008083540402835291602001916116f7565b820191906000526020600020905b8154815290600101906020018083116116da57829003601f168201915b50505050508152602001600782015481526020016008820154815250509050806000015181602001518260400151836060015184608001518560a001518660c001518760e00151886101000151859550849450829250995099509950995099509950995099509950509193959799909294969850565b6000600160008373ffffffffffffffffffffffffffffffffffffffff1673ffffffffffffffffffffffffffffffffffffffff168152602001908152602001600020549050919050565b60006117f582604051806060016040528060248152602001614480602491396117e6866117e16130bd565b6129b2565b6135819092919063ffffffff16565b9050611809836118036130bd565b836130c5565b6118138383613ac1565b505050565b61185e60405180807f5041555345525f524f4c45000000000000000000000000000000000000000000815250600b01905060405180910390206118596130bd565b6118ee565b6118b3576040517f08c379a000000000000000000000000000000000000000000000000000000000815260040180806020018281038252603781526020018061450e6037913960400191505060405180910390fd5b6118bb613c95565b565b60006118e682600080868152602001908152602001600020600001613d9f90919063ffffffff16565b905092915050565b600061191782600080868152602001908152602001600020600001613db990919063ffffffff16565b905092915050565b606060058054600181600116156101000203166002900480601f0160208091040260200160405190810160405280929190818152602001828054600181600116156101000203166002900480156119b75780601f1061198c576101008083540402835291602001916119b7565b820191906000526020600020905b81548152906001019060200180831161199a57829003601f168201915b5050505050905090565b6000801b81565b6000611a8b6119d56130bd565b84611a868560405180606001604052806025815260200161454560259139600260006119ff6130bd565b73ffffffffffffffffffffffffffffffffffffffff1673ffffffffffffffffffffffffffffffffffffffff16815260200190815260200160002060008a73ffffffffffffffffffffffffffffffffffffffff1673ffffffffffffffffffffffffffffffffffffffff168152602001908152602001600020546135819092919063ffffffff16565b6130c5565b6001905092915050565b6000611aa9611aa26130bd565b84846132bc565b6001905092915050565b6000611afb60405180807f4d494e5445525f524f4c45000000000000000000000000000000000000000000815250600b0190506040518091039020611af66130bd565b6118ee565b611b6d576040517f08c379a00000000000000000000000000000000000000000000000000000000081526004018080602001828103825260028152602001807f503400000000000000000000000000000000000000000000000000000000000081525060200191505060405180910390fd5b600060086000898152602001908152602001600020600201549050600660029054906101000a900473ffffffffffffffffffffffffffffffffffffffff1673ffffffffffffffffffffffffffffffffffffffff1663c70acf7a826040518263ffffffff1660e01b81526004018082815260200191505060206040518083038186803b158015611bfb57600080fd5b505afa158015611c0f573d6000803e3d6000fd5b505050506040513d6020811015611c2557600080fd5b8101908080519060200190929190505050611ca8576040517f08c379a00000000000000000000000000000000000000000000000000000000081526004018080602001828103825260028152602001807f503600000000000000000000000000000000000000000000000000000000000081525060200191505060405180910390fd5b6040518060400160405280600881526020017f502d534554544c4500000000000000000000000000000000000000000000000081525080519060200120600860008a81526020019081526020016000206003016040518082805460018160011615610100020316600290048015611d565780601f10611d34576101008083540402835291820191611d56565b820191906000526020600020905b815481529060010190602001808311611d42575b5050915050604051809103902014611dd6576040517f08c379a00000000000000000000000000000000000000000000000000000000081526004018080602001828103825260028152602001807f503500000000000000000000000000000000000000000000000000000000000081525060200191505060405180910390fd5b84156121de576040518060400160405280600681526020017f534554544c450000000000000000000000000000000000000000000000000000815250600860008a81526020019081526020016000206003019080519060200190611e3b9291906141b5565b5086600860008a81526020019081526020016000206006019080519060200190611e669291906141b5565b5085600860008a81526020019081526020016000206007018190555082600860008a815260200190815260200160002060050160006101000a81548160ff021916908360ff160217905550611ef3600660029054906101000a900473ffffffffffffffffffffffffffffffffffffffff16600860008b8152602001908152602001600020600101546138f8565b83600860008a815260200190815260200160002060090160405180807f534554544c45000000000000000000000000000000000000000000000000000081525060060190509081526020016040518091039020819055506000600660029054906101000a900473ffffffffffffffffffffffffffffffffffffffff1673ffffffffffffffffffffffffffffffffffffffff166335cd4a21600860008c815260200190815260200160002060020154600860008d8152602001908152602001600020600101548a6040518463ffffffff1660e01b8152600401808481526020018381526020018281526020019350505050602060405180830381600087803b158015611ffd57600080fd5b505af1158015612011573d6000803e3d6000fd5b505050506040513d602081101561202757600080fd5b810190808051906020019092919050505090507ff0d340fc4adda45d6b253fd9a94016d8806050a61b5c0010ffdae95e8241358089600860008c81526020019081526020016000206004018a8a8989604051808781526020018060200180602001806020018781526020018681526020018560ff1660ff168152602001848103845260068152602001807f534554544c4500000000000000000000000000000000000000000000000000008152506020018481038352898181546001816001161561010002031660029004815260200191508054600181600116156101000203166002900480156121595780601f1061212e57610100808354040283529160200191612159565b820191906000526020600020905b81548152906001019060200180831161213c57829003601f168201915b5050848103825288818151815260200191508051906020019080838360005b83811015612193578082015181840152602081019050612178565b50505050905090810190601f1680156121c05780820380516001836020036101000a031916815260200191505b50995050505050505050505060405180910390a1809250505061244a565b6040518060400160405280600681526020017f52454a4543540000000000000000000000000000000000000000000000000000815250600860008a8152602001908152602001600020600301908051906020019061223d9291906141b5565b5085600860008a81526020019081526020016000206007018190555083600860008a815260200190815260200160002060090160405180807f52454a454354000000000000000000000000000000000000000000000000000081525060060190509081526020016040518091039020819055507ff0d340fc4adda45d6b253fd9a94016d8806050a61b5c0010ffdae95e8241358088600860008b81526020019081526020016000206004018989886000604051808781526020018060200180602001806020018781526020018681526020018560ff168152602001848103845260068152602001807f52454a45435400000000000000000000000000000000000000000000000000008152506020018481038352898181546001816001161561010002031660029004815260200191508054600181600116156101000203166002900480156123cd5780601f106123a2576101008083540402835291602001916123cd565b820191906000526020600020905b8154815290600101906020018083116123b057829003601f168201915b5050848103825288818151815260200191508051906020019080838360005b838110156124075780820151818401526020810190506123ec565b50505050905090810190601f1680156124345780820380516001836020036101000a031916815260200191505b50995050505050505050505060405180910390a1505b9695505050505050565b61249a60405180807f4d494e5445525f524f4c45000000000000000000000000000000000000000000815250600b01905060405180910390206124956130bd565b6118ee565b61250c576040517f08c379a00000000000000000000000000000000000000000000000000000000081526004018080602001828103825260028152602001807f503700000000000000000000000000000000000000000000000000000000000081525060200191505060405180910390fd5b6040518060400160405280600881526020017f502d534554544c45000000000000000000000000000000000000000000000000815250805190602001206008600084815260200190815260200160002060030160405180828054600181600116156101000203166002900480156125ba5780601f106125985761010080835404028352918201916125ba565b820191906000526020600020905b8154815290600101906020018083116125a6575b505091505060405180910390201461263a576040517f08c379a00000000000000000000000000000000000000000000000000000000081526004018080602001828103825260028152602001807f503500000000000000000000000000000000000000000000000000000000000081525060200191505060405180910390fd5b6040518060400160405280600681526020017f43414e43454c00000000000000000000000000000000000000000000000000008152506008600084815260200190815260200160002060030190805190602001906126999291906141b5565b50806008600084815260200190815260200160002060070181905550806008600084815260200190815260200160002060090160405180807f43414e43454c0000000000000000000000000000000000000000000000000000815250600601905090815260200160405180910390208190555060006009600060086000868152602001908152602001600020600201548152602001908152602001600020600060086000868152602001908152602001600020600801548152602001908152602001600020819055507ff0d340fc4adda45d6b253fd9a94016d8806050a61b5c0010ffdae95e82413580826008600085815260200190815260200160002060040183846000604051808681526020018060200180602001806020018781526020018681526020018560ff168152602001848103845260068152602001807f43414e43454c000000000000000000000000000000000000000000000000000081525060200184810383528881815460018160011615610100020316600290048152602001915080546001816001161561010002031660029004801561287e5780601f106128535761010080835404028352916020019161287e565b820191906000526020600020905b81548152906001019060200180831161286157829003601f168201915b5050848103825260068152602001807f43414e43454c00000000000000000000000000000000000000000000000000008152506020019850505050505050505060405180910390a15050565b60006128e9600080848152602001908152602001600020600001613de9565b9050919050565b60405180807f4d494e5445525f524f4c45000000000000000000000000000000000000000000815250600b019050604051809103902081565b61294f6000808481526020019081526020016000206002015461294a6130bd565b6118ee565b6129a4576040517f08c379a00000000000000000000000000000000000000000000000000000000081526004018080602001828103825260308152602001806143f26030913960400191505060405180910390fd5b6129ae82826136d4565b5050565b6000600260008473ffffffffffffffffffffffffffffffffffffffff1673ffffffffffffffffffffffffffffffffffffffff16815260200190815260200160002060008373ffffffffffffffffffffffffffffffffffffffff1673ffffffffffffffffffffffffffffffffffffffff16815260200190815260200160002054905092915050565b60405180807f5041555345525f524f4c45000000000000000000000000000000000000000000815250600b019050604051809103902081565b612ab860405180807f4d494e5445525f524f4c45000000000000000000000000000000000000000000815250600b0190506040518091039020612ab36130bd565b6118ee565b612b2a576040517f08c379a00000000000000000000000000000000000000000000000000000000081526004018080602001828103825260028152602001807f503100000000000000000000000000000000000000000000000000000000000081525060200191505060405180910390fd5b80600660026101000a81548173ffffffffffffffffffffffffffffffffffffffff021916908373ffffffffffffffffffffffffffffffffffffffff16021790555050565b6000600660029054906101000a900473ffffffffffffffffffffffffffffffffffffffff1673ffffffffffffffffffffffffffffffffffffffff16612bb16130bd565b73ffffffffffffffffffffffffffffffffffffffff161480612c155750612c1460405180807f4d494e5445525f524f4c45000000000000000000000000000000000000000000815250600b0190506040518091039020612c0f6130bd565b6118ee565b5b612c87576040517f08c379a00000000000000000000000000000000000000000000000000000000081526004018080602001828103825260028152602001807f503100000000000000000000000000000000000000000000000000000000000081525060200191505060405180910390fd5b60006009600089815260200190815260200160002060008581526020019081526020016000205414612d21576040517f08c379a00000000000000000000000000000000000000000000000000000000081526004018080602001828103825260028152602001807f503200000000000000000000000000000000000000000000000000000000000081525060200191505060405180910390fd5b60008611612d97576040517f08c379a00000000000000000000000000000000000000000000000000000000081526004018080602001828103825260028152602001807f503300000000000000000000000000000000000000000000000000000000000081525060200191505060405180910390fd5b612da16007613dfe565b60006001612daf6007613c87565b03905080600960008a81526020019081526020016000206000868152602001908152602001600020819055506040518061012001604052808773ffffffffffffffffffffffffffffffffffffffff1681526020018881526020018981526020016040518060400160405280600881526020017f502d534554544c4500000000000000000000000000000000000000000000000081525081526020016040518060200160405280600081525081526020018660ff16815260200160405180602001604052806000815250815260200160008152602001858152506008600083815260200190815260200160002060008201518160000160006101000a81548173ffffffffffffffffffffffffffffffffffffffff021916908373ffffffffffffffffffffffffffffffffffffffff16021790555060208201518160010155604082015181600201556060820151816003019080519060200190612f12929190614235565b506080820151816004019080519060200190612f2f929190614235565b5060a08201518160050160006101000a81548160ff021916908360ff16021790555060c0820151816006019080519060200190612f6d929190614235565b5060e082015181600701556101008201518160080155905050826008600083815260200190815260200160002060090160405180807f502d534554544c4500000000000000000000000000000000000000000000000081525060080190509081526020016040518091039020819055507f8d794f3206c39a72f656444daebc25ce9c948f93533fb8426cd0270e76fed08886888a8489888a604051808873ffffffffffffffffffffffffffffffffffffffff1673ffffffffffffffffffffffffffffffffffffffff168152602001878152602001868152602001858152602001806020018560ff1660ff168152602001848152602001838152602001828103825260088152602001807f502d534554544c450000000000000000000000000000000000000000000000008152506020019850505050505050505060405180910390a1809150509695505050505050565b600033905090565b600073ffffffffffffffffffffffffffffffffffffffff168373ffffffffffffffffffffffffffffffffffffffff16141561314b576040517f08c379a00000000000000000000000000000000000000000000000000000000081526004018080602001828103825260248152602001806144ea6024913960400191505060405180910390fd5b600073ffffffffffffffffffffffffffffffffffffffff168273ffffffffffffffffffffffffffffffffffffffff1614156131d1576040517f08c379a00000000000000000000000000000000000000000000000000000000081526004018080602001828103825260228152602001806143aa6022913960400191505060405180910390fd5b80600260008573ffffffffffffffffffffffffffffffffffffffff1673ffffffffffffffffffffffffffffffffffffffff16815260200190815260200160002060008473ffffffffffffffffffffffffffffffffffffffff1673ffffffffffffffffffffffffffffffffffffffff168152602001908152602001600020819055508173ffffffffffffffffffffffffffffffffffffffff168373ffffffffffffffffffffffffffffffffffffffff167f8c5be1e5ebec7d5bd14f71427d1e84f3dd0314c0f7b2291e5b200ac8c7c3b925836040518082815260200191505060405180910390a3505050565b600073ffffffffffffffffffffffffffffffffffffffff168373ffffffffffffffffffffffffffffffffffffffff161415613342576040517f08c379a00000000000000000000000000000000000000000000000000000000081526004018080602001828103825260258152602001806144c56025913960400191505060405180910390fd5b600073ffffffffffffffffffffffffffffffffffffffff168273ffffffffffffffffffffffffffffffffffffffff1614156133c8576040517f08c379a00000000000000000000000000000000000000000000000000000000081526004018080602001828103825260238152602001806142fd6023913960400191505060405180910390fd5b6133d3838383613e14565b61343f816040518060600160405280602681526020016143cc60269139600160008773ffffffffffffffffffffffffffffffffffffffff1673ffffffffffffffffffffffffffffffffffffffff168152602001908152602001600020546135819092919063ffffffff16565b600160008573ffffffffffffffffffffffffffffffffffffffff1673ffffffffffffffffffffffffffffffffffffffff168152602001908152602001600020819055506134d481600160008573ffffffffffffffffffffffffffffffffffffffff1673ffffffffffffffffffffffffffffffffffffffff1681526020019081526020016000205461376790919063ffffffff16565b600160008473ffffffffffffffffffffffffffffffffffffffff1673ffffffffffffffffffffffffffffffffffffffff168152602001908152602001600020819055508173ffffffffffffffffffffffffffffffffffffffff168373ffffffffffffffffffffffffffffffffffffffff167fddf252ad1be2c89b69c2b068fc378daa952ba7f163c4a11628f55a4df523b3ef836040518082815260200191505060405180910390a3505050565b600083831115829061362e576040517f08c379a00000000000000000000000000000000000000000000000000000000081526004018080602001828103825283818151815260200191508051906020019080838360005b838110156135f35780820151818401526020810190506135d8565b50505050905090810190601f1680156136205780820380516001836020036101000a031916815260200191505b509250505060405180910390fd5b5060008385039050809150509392505050565b61366881600080858152602001908152602001600020600001613e2490919063ffffffff16565b156136d0576136756130bd565b73ffffffffffffffffffffffffffffffffffffffff168173ffffffffffffffffffffffffffffffffffffffff16837f2f8788117e7eff1d82e926ec794901d17c78024a50270940304540a733656f0d60405160405180910390a45b5050565b6136fb81600080858152602001908152602001600020600001613e5490919063ffffffff16565b15613763576137086130bd565b73ffffffffffffffffffffffffffffffffffffffff168173ffffffffffffffffffffffffffffffffffffffff16837ff6391f5c32d9c69d2a47ea670b442974b53935d1edc7fd64eb21e047a839171b60405160405180910390a45b5050565b6000808284019050838110156137e5576040517f08c379a000000000000000000000000000000000000000000000000000000000815260040180806020018281038252601b8152602001807f536166654d6174683a206164646974696f6e206f766572666c6f77000000000081525060200191505060405180910390fd5b8091505092915050565b600660019054906101000a900460ff16613871576040517f08c379a00000000000000000000000000000000000000000000000000000000081526004018080602001828103825260148152602001807f5061757361626c653a206e6f742070617573656400000000000000000000000081525060200191505060405180910390fd5b6000600660016101000a81548160ff0219169083151502179055507f5db9ee0a495bf2e6ff9c91a7834c1ba4fdd244a5e8aa4e537bd38aeae4b073aa6138b56130bd565b604051808273ffffffffffffffffffffffffffffffffffffffff1673ffffffffffffffffffffffffffffffffffffffff16815260200191505060405180910390a1565b600073ffffffffffffffffffffffffffffffffffffffff168273ffffffffffffffffffffffffffffffffffffffff16141561399b576040517f08c379a000000000000000000000000000000000000000000000000000000000815260040180806020018281038252601f8152602001807f45524332303a206d696e7420746f20746865207a65726f20616464726573730081525060200191505060405180910390fd5b6139a760008383613e14565b6139bc8160035461376790919063ffffffff16565b600381905550613a1481600160008573ffffffffffffffffffffffffffffffffffffffff1673ffffffffffffffffffffffffffffffffffffffff1681526020019081526020016000205461376790919063ffffffff16565b600160008473ffffffffffffffffffffffffffffffffffffffff1673ffffffffffffffffffffffffffffffffffffffff168152602001908152602001600020819055508173ffffffffffffffffffffffffffffffffffffffff16600073ffffffffffffffffffffffffffffffffffffffff167fddf252ad1be2c89b69c2b068fc378daa952ba7f163c4a11628f55a4df523b3ef836040518082815260200191505060405180910390a35050565b600073ffffffffffffffffffffffffffffffffffffffff168273ffffffffffffffffffffffffffffffffffffffff161415613b47576040517f08c379a00000000000000000000000000000000000000000000000000000000081526004018080602001828103825260218152602001806144a46021913960400191505060405180910390fd5b613b5382600083613e14565b613bbf8160405180606001604052806022815260200161434f60229139600160008673ffffffffffffffffffffffffffffffffffffffff1673ffffffffffffffffffffffffffffffffffffffff168152602001908152602001600020546135819092919063ffffffff16565b600160008473ffffffffffffffffffffffffffffffffffffffff1673ffffffffffffffffffffffffffffffffffffffff16815260200190815260200160002081905550613c1781600354613e8490919063ffffffff16565b600381905550600073ffffffffffffffffffffffffffffffffffffffff168273ffffffffffffffffffffffffffffffffffffffff167fddf252ad1be2c89b69c2b068fc378daa952ba7f163c4a11628f55a4df523b3ef836040518082815260200191505060405180910390a35050565b600081600001549050919050565b600660019054906101000a900460ff1615613d18576040517f08c379a00000000000000000000000000000000000000000000000000000000081526004018080602001828103825260108152602001807f5061757361626c653a207061757365640000000000000000000000000000000081525060200191505060405180910390fd5b6001600660016101000a81548160ff0219169083151502179055507f62e78cea01bee320cd4e420270b5ea74000d11b0c9f74754ebdbfc544b05a258613d5c6130bd565b604051808273ffffffffffffffffffffffffffffffffffffffff1673ffffffffffffffffffffffffffffffffffffffff16815260200191505060405180910390a1565b6000613dae8360000183613ece565b60001c905092915050565b6000613de1836000018373ffffffffffffffffffffffffffffffffffffffff1660001b613f51565b905092915050565b6000613df782600001613f74565b9050919050565b6001816000016000828254019250508190555050565b613e1f838383613f85565b505050565b6000613e4c836000018373ffffffffffffffffffffffffffffffffffffffff1660001b613ff3565b905092915050565b6000613e7c836000018373ffffffffffffffffffffffffffffffffffffffff1660001b614063565b905092915050565b6000613ec683836040518060400160405280601e81526020017f536166654d6174683a207375627472616374696f6e206f766572666c6f770000815250613581565b905092915050565b600081836000018054905011613f2f576040517f08c379a00000000000000000000000000000000000000000000000000000000081526004018080602001828103825260228152602001806142db6022913960400191505060405180910390fd5b826000018281548110613f3e57fe5b9060005260206000200154905092915050565b600080836001016000848152602001908152602001600020541415905092915050565b600081600001805490509050919050565b613f9083838361414b565b613f9861138e565b15613fee576040517f08c379a000000000000000000000000000000000000000000000000000000000815260040180806020018281038252602a815260200180614599602a913960400191505060405180910390fd5b505050565b6000613fff8383613f51565b61405857826000018290806001815401808255809150506001900390600052602060002001600090919091909150558260000180549050836001016000848152602001908152602001600020819055506001905061405d565b600090505b92915050565b6000808360010160008481526020019081526020016000205490506000811461413f57600060018203905060006001866000018054905003905060008660000182815481106140ae57fe5b90600052602060002001549050808760000184815481106140cb57fe5b906000526020600020018190555060018301876001016000838152602001908152602001600020819055508660000180548061410357fe5b60019003818190600052602060002001600090559055866001016000878152602001908152602001600020600090556001945050505050614145565b60009150505b92915050565b505050565b604051806101200160405280600073ffffffffffffffffffffffffffffffffffffffff16815260200160008152602001600081526020016060815260200160608152602001600060ff1681526020016060815260200160008152602001600081525090565b828054600181600116156101000203166002900490600052602060002090601f016020900481019282601f106141f657805160ff1916838001178555614224565b82800160010185558215614224579182015b82811115614223578251825591602001919060010190614208565b5b50905061423191906142b5565b5090565b828054600181600116156101000203166002900490600052602060002090601f016020900481019282601f1061427657805160ff19168380011785556142a4565b828001600101855582156142a4579182015b828111156142a3578251825591602001919060010190614288565b5b5090506142b191906142b5565b5090565b6142d791905b808211156142d35760008160009055506001016142bb565b5090565b9056fe456e756d657261626c655365743a20696e646578206f7574206f6620626f756e647345524332303a207472616e7366657220746f20746865207a65726f2061646472657373416363657373436f6e74726f6c3a2073656e646572206d75737420626520616e2061646d696e20746f206772616e7445524332303a206275726e20616d6f756e7420657863656564732062616c616e636545524332305072657365744d696e7465725061757365723a206d75737420686176652070617573657220726f6c6520746f20756e706175736545524332303a20617070726f766520746f20746865207a65726f206164647265737345524332303a207472616e7366657220616d6f756e7420657863656564732062616c616e6365416363657373436f6e74726f6c3a2073656e646572206d75737420626520616e2061646d696e20746f207265766f6b6545524332303a207472616e7366657220616d6f756e74206578636565647320616c6c6f77616e636545524332305072657365744d696e7465725061757365723a206d7573742068617665206d696e74657220726f6c6520746f206d696e7445524332303a206275726e20616d6f756e74206578636565647320616c6c6f77616e636545524332303a206275726e2066726f6d20746865207a65726f206164647265737345524332303a207472616e736665722066726f6d20746865207a65726f206164647265737345524332303a20617070726f76652066726f6d20746865207a65726f206164647265737345524332305072657365744d696e7465725061757365723a206d75737420686176652070617573657220726f6c6520746f20706175736545524332303a2064656372656173656420616c6c6f77616e63652062656c6f77207a65726f416363657373436f6e74726f6c3a2063616e206f6e6c792072656e6f756e636520726f6c657320666f722073656c6645524332305061757361626c653a20746f6b656e207472616e73666572207768696c6520706175736564a2646970667358221220520b0cd62a1c66246afceea8aa4a8b1e9be8a9d6b2a6490b4268372fd061a40764736f6c6343000602003345524332305072657365744d696e7465725061757365723a206d7573742068617665206d696e74657220726f6c6520746f206d696e7445524332305061757361626c653a20746f6b656e207472616e73666572207768696c6520706175736564",
  "source": "pragma solidity ^0.6.0;\n\n//import \"openzeppelin-solidity/contracts/presets/ERC20PresetMinterPauser.sol\";\nimport \"openzeppelin-solidity/contracts/presets/ERC20PresetMinterPauser.sol\";\nimport \"openzeppelin-solidity/contracts/utils/Counters.sol\";\nimport \"./orderbook.sol\";\nimport \"openzeppelin-solidity/contracts/math/SafeMath.sol\";\n\n\ncontract PaymentBook is ERC20PresetMinterPauser {\n  \n    using Counters for Counters.Counter;\n    using SafeMath for uint256;\n    event PaymentStatusChange(uint256 ad, string status,string tx ,string br,uint256 s,uint256 _datetime,uint8 ptype);\n    event NewPayment(address p,uint256 a,uint256 s,uint256 pid,string state,uint8 ptype,uint256 _datetime,uint256 _seq);\n\n    \n    Orderbook ordbook;\n    struct Payment{\n        address payer;\n        uint256 amount;\n        uint256 salesID;\n        string state;\n        string tx;\n        uint8 paymenttype;\n        string bankrectx;\n        uint256 settledate;\n        uint256 seq;\n        mapping(string => uint256) stateChange;\n        \n    }\n    \n    Counters.Counter private _paymentID;\n    mapping(uint256 => Payment) private payments;\n    mapping(uint256 => mapping(uint256 => uint256)) private payment2sales;\n    \n    function setOrdBoook(address _ordbook) public {\n        require(hasRole(MINTER_ROLE,_msgSender()),\"P1\");\n        ordbook = Orderbook(_ordbook); \n    }\n    \n    function getpaymentcount() public view\n    returns(uint256)\n    {\n        return _paymentID.current()-1;\n    }\n    \n    function getpaymentIDbySale(uint256 _salesID, uint256 _seq) public view\n    returns(uint256 id)\n    {\n        return payment2sales[_salesID][_seq];    \n    }\n    \n    function addpayment(uint256 _salesID,uint256 _amount,address _payer,uint8 _paymenttype,uint256 _seq,uint256 _datetime) public \n    returns(uint256)    \n    {\n        require(_msgSender()==address(ordbook)|| hasRole(MINTER_ROLE,_msgSender()),\"P1\");\n        require(payment2sales[_salesID][_seq]==0,\"P2\");\n        require(_amount>0,\"P3\");\n        _paymentID.increment();\n        uint256 currentid = _paymentID.current()-1;\n        payment2sales[_salesID][_seq]=currentid;\n        payments[currentid] = Payment({\n           payer : _payer,\n           amount : _amount,\n           salesID : _salesID,\n           state : \"P-SETTLE\",\n           tx : \"\",\n           paymenttype : _paymenttype,\n           bankrectx : \"\",\n           settledate : 0,\n           seq : _seq\n           \n        });\n        payments[currentid].stateChange[\"P-SETTLE\"]=_datetime;\n        emit NewPayment(_payer,_amount,_salesID,currentid,\"P-SETTLE\",_paymenttype,_datetime,_seq);\n        return currentid;\n    }\n    \n    \n    function getPaymentdetail(uint256 _paymentid) public view\n    returns(address,uint256,uint256,string memory,string memory ,uint8,string memory,uint256,uint256)\n    {\n        require(hasRole(MINTER_ROLE,_msgSender()),\"P6\");\n        Payment memory p = payments[_paymentid];\n        \n        return(p.payer,p.amount,p.salesID,p.state,p.tx,p.paymenttype,p.bankrectx,p.settledate,p.seq);\n        \n        \n    }\n    \n    function cancelPayment(uint256 _paymentid,uint256 _datetime) public {\n        require(hasRole(MINTER_ROLE,_msgSender()),\"P7\");\n        require(keccak256(bytes(payments[_paymentid].state))==keccak256(bytes(\"P-SETTLE\")),\"P5\");\n        payments[_paymentid].state=\"CANCEL\";\n        payments[_paymentid].settledate=_datetime;\n        payments[_paymentid].stateChange[\"CANCEL\"]=_datetime;\n        payment2sales[payments[_paymentid].salesID][payments[_paymentid].seq]=0;\n        emit PaymentStatusChange(_paymentid, \"CANCEL\",payments[_paymentid].tx,\"CANCEL\",_datetime,_datetime,0);\n    }\n    \n    \n    function bankrec(uint256 _paymentid, string memory _bankrectx, uint256 _settledate,bool _accept,uint256 _datetime,uint8 _paymenttpye) public \n    returns(uint256)\n    {\n        require(hasRole(MINTER_ROLE,_msgSender()),\"P4\");\n        uint256 ordid=payments[_paymentid].salesID;\n        require(ordbook.isopen(ordid),\"P6\");\n        require(keccak256(bytes(payments[_paymentid].state))==keccak256(bytes(\"P-SETTLE\")),\"P5\");\n        if(_accept){\n                payments[_paymentid].state=\"SETTLE\";\n                payments[_paymentid].bankrectx=_bankrectx;\n                payments[_paymentid].settledate=_settledate;\n                payments[_paymentid].paymenttype=_paymenttpye;\n                _mint(address(ordbook),payments[_paymentid].amount);\n                payments[_paymentid].stateChange[\"SETTLE\"]=_datetime;\n                \n                uint256 balance = ordbook.executeTrade(payments[_paymentid].salesID,payments[_paymentid].amount, _settledate);\n                emit PaymentStatusChange(_paymentid, \"SETTLE\",payments[_paymentid].tx,_bankrectx,_settledate,_datetime,_paymenttpye);\n                return balance;\n        }else{\n             payments[_paymentid].state=\"REJECT\";\n             payments[_paymentid].settledate=_settledate;\n             payments[_paymentid].stateChange[\"REJECT\"]=_datetime;\n             emit PaymentStatusChange(_paymentid, \"REJECT\",payments[_paymentid].tx,_bankrectx,_settledate,_datetime,0);\n        }\n        \n    }\n    \n    constructor(uint256 initialSupply, uint8 decimal) public ERC20PresetMinterPauser(\"AOCCoins\", \"AOC\") {\n        _setupDecimals(decimal);\n        mint(msg.sender, initialSupply);\n        _paymentID.increment();\n    }\n}\n\n\n",
  "sourcePath": "/home/dickchan/ERC721Marketplace/contracts/paymentBook.sol",
  "compiler": {
    "name": "solc",
    "version": "0.6.2+commit.bacdbe57.Emscripten.clang"
  },
  "schemaVersion": "3.2.3",
  "updatedAt": "2020-10-28T06:06:48.762Z",
  "devdoc": {
    "methods": {
      "allowance(address,address)": {
        "details": "See {IERC20-allowance}."
      },
      "approve(address,uint256)": {
        "details": "See {IERC20-approve}.     * Requirements:     * - `spender` cannot be the zero address."
      },
      "balanceOf(address)": {
        "details": "See {IERC20-balanceOf}."
      },
      "burn(uint256)": {
        "details": "Destroys `amount` tokens from the caller.     * See {ERC20-_burn}."
      },
      "burnFrom(address,uint256)": {
        "details": "Destroys `amount` tokens from `account`, deducting from the caller's allowance.     * See {ERC20-_burn} and {ERC20-allowance}.     * Requirements:     * - the caller must have allowance for ``accounts``'s tokens of at least `amount`."
      },
      "decimals()": {
        "details": "Returns the number of decimals used to get its user representation. For example, if `decimals` equals `2`, a balance of `505` tokens should be displayed to a user as `5,05` (`505 / 10 ** 2`).     * Tokens usually opt for a value of 18, imitating the relationship between Ether and Wei. This is the value {ERC20} uses, unless {_setupDecimals} is called.     * NOTE: This information is only used for _display_ purposes: it in no way affects any of the arithmetic of the contract, including {IERC20-balanceOf} and {IERC20-transfer}."
      },
      "decreaseAllowance(address,uint256)": {
        "details": "Atomically decreases the allowance granted to `spender` by the caller.     * This is an alternative to {approve} that can be used as a mitigation for problems described in {IERC20-approve}.     * Emits an {Approval} event indicating the updated allowance.     * Requirements:     * - `spender` cannot be the zero address. - `spender` must have allowance for the caller of at least `subtractedValue`."
      },
      "getRoleAdmin(bytes32)": {
        "details": "Returns the admin role that controls `role`. See {grantRole} and {revokeRole}.     * To change a role's admin, use {_setRoleAdmin}."
      },
      "getRoleMember(bytes32,uint256)": {
        "details": "Returns one of the accounts that have `role`. `index` must be a value between 0 and {getRoleMemberCount}, non-inclusive.     * Role bearers are not sorted in any particular way, and their ordering may change at any point.     * WARNING: When using {getRoleMember} and {getRoleMemberCount}, make sure you perform all queries on the same block. See the following https://forum.openzeppelin.com/t/iterating-over-elements-on-enumerableset-in-openzeppelin-contracts/2296[forum post] for more information."
      },
      "getRoleMemberCount(bytes32)": {
        "details": "Returns the number of accounts that have `role`. Can be used together with {getRoleMember} to enumerate all bearers of a role."
      },
      "grantRole(bytes32,address)": {
        "details": "Grants `role` to `account`.     * If `account` had not been already granted `role`, emits a {RoleGranted} event.     * Requirements:     * - the caller must have ``role``'s admin role."
      },
      "hasRole(bytes32,address)": {
        "details": "Returns `true` if `account` has been granted `role`."
      },
      "increaseAllowance(address,uint256)": {
        "details": "Atomically increases the allowance granted to `spender` by the caller.     * This is an alternative to {approve} that can be used as a mitigation for problems described in {IERC20-approve}.     * Emits an {Approval} event indicating the updated allowance.     * Requirements:     * - `spender` cannot be the zero address."
      },
      "mint(address,uint256)": {
        "details": "Creates `amount` new tokens for `to`.     * See {ERC20-_mint}.     * Requirements:     * - the caller must have the `MINTER_ROLE`."
      },
      "name()": {
        "details": "Returns the name of the token."
      },
      "pause()": {
        "details": "Pauses all token transfers.     * See {ERC20Pausable} and {Pausable-_pause}.     * Requirements:     * - the caller must have the `PAUSER_ROLE`."
      },
      "paused()": {
        "details": "Returns true if the contract is paused, and false otherwise."
      },
      "renounceRole(bytes32,address)": {
        "details": "Revokes `role` from the calling account.     * Roles are often managed via {grantRole} and {revokeRole}: this function's purpose is to provide a mechanism for accounts to lose their privileges if they are compromised (such as when a trusted device is misplaced).     * If the calling account had been granted `role`, emits a {RoleRevoked} event.     * Requirements:     * - the caller must be `account`."
      },
      "revokeRole(bytes32,address)": {
        "details": "Revokes `role` from `account`.     * If `account` had been granted `role`, emits a {RoleRevoked} event.     * Requirements:     * - the caller must have ``role``'s admin role."
      },
      "symbol()": {
        "details": "Returns the symbol of the token, usually a shorter version of the name."
      },
      "totalSupply()": {
        "details": "See {IERC20-totalSupply}."
      },
      "transfer(address,uint256)": {
        "details": "See {IERC20-transfer}.     * Requirements:     * - `recipient` cannot be the zero address. - the caller must have a balance of at least `amount`."
      },
      "transferFrom(address,address,uint256)": {
        "details": "See {IERC20-transferFrom}.     * Emits an {Approval} event indicating the updated allowance. This is not required by the EIP. See the note at the beginning of {ERC20};     * Requirements: - `sender` and `recipient` cannot be the zero address. - `sender` must have a balance of at least `amount`. - the caller must have allowance for ``sender``'s tokens of at least `amount`."
      },
      "unpause()": {
        "details": "Unpauses all token transfers.     * See {ERC20Pausable} and {Pausable-_unpause}.     * Requirements:     * - the caller must have the `PAUSER_ROLE`."
      }
    }
  },
  "userdoc": {
    "methods": {}
  }
}