{
  "contractName": "SellSideContract",
  "abi": [
    {
      "inputs": [
        {
          "internalType": "uint256",
          "name": "_itemid",
          "type": "uint256"
        },
        {
          "internalType": "address",
          "name": "_base",
          "type": "address"
        },
        {
          "internalType": "uint256",
          "name": "_price",
          "type": "uint256"
        },
        {
          "internalType": "string",
          "name": "_currency",
          "type": "string"
        },
        {
          "internalType": "uint256",
          "name": "_createdatetime",
          "type": "uint256"
        },
        {
          "internalType": "address",
          "name": "_access",
          "type": "address"
        },
        {
          "internalType": "address",
          "name": "_seller",
          "type": "address"
        },
        {
          "internalType": "uint256",
          "name": "_tradeID",
          "type": "uint256"
        },
        {
          "internalType": "address",
          "name": "_sellsidecontract",
          "type": "address"
        }
      ],
      "stateMutability": "nonpayable",
      "type": "constructor"
    },
    {
      "inputs": [
        {
          "internalType": "uint256",
          "name": "_amount",
          "type": "uint256"
        },
        {
          "internalType": "uint256",
          "name": "_settlementdate",
          "type": "uint256"
        },
        {
          "internalType": "uint256",
          "name": "_datetime",
          "type": "uint256"
        },
        {
          "internalType": "bool",
          "name": "_active",
          "type": "bool"
        }
      ],
      "name": "addSettlementPlan",
      "outputs": [],
      "stateMutability": "nonpayable",
      "type": "function"
    },
    {
      "inputs": [
        {
          "internalType": "uint256",
          "name": "_id",
          "type": "uint256"
        },
        {
          "internalType": "string",
          "name": "_tx",
          "type": "string"
        },
        {
          "internalType": "uint256",
          "name": "_date",
          "type": "uint256"
        },
        {
          "internalType": "uint8",
          "name": "_paymenttype",
          "type": "uint8"
        }
      ],
      "name": "completePayment",
      "outputs": [],
      "stateMutability": "nonpayable",
      "type": "function"
    },
    {
      "inputs": [
        {
          "internalType": "uint256",
          "name": "_id",
          "type": "uint256"
        },
        {
          "internalType": "uint256",
          "name": "_datetime",
          "type": "uint256"
        }
      ],
      "name": "disableSettlementPlan",
      "outputs": [],
      "stateMutability": "nonpayable",
      "type": "function"
    },
    {
      "inputs": [],
      "name": "getActiveSettlementPlan",
      "outputs": [
        {
          "internalType": "uint256",
          "name": "_i",
          "type": "uint256"
        },
        {
          "internalType": "uint256",
          "name": "_d",
          "type": "uint256"
        },
        {
          "internalType": "uint256",
          "name": "_a",
          "type": "uint256"
        }
      ],
      "stateMutability": "view",
      "type": "function"
    },
    {
      "inputs": [],
      "name": "getCreditor",
      "outputs": [
        {
          "internalType": "address",
          "name": "a",
          "type": "address"
        }
      ],
      "stateMutability": "view",
      "type": "function"
    },
    {
      "inputs": [],
      "name": "getDebtor",
      "outputs": [
        {
          "internalType": "address",
          "name": "a",
          "type": "address"
        }
      ],
      "stateMutability": "view",
      "type": "function"
    },
    {
      "inputs": [],
      "name": "getFeeAmount",
      "outputs": [
        {
          "internalType": "uint256",
          "name": "_d",
          "type": "uint256"
        }
      ],
      "stateMutability": "view",
      "type": "function"
    },
    {
      "inputs": [],
      "name": "getFeePercent",
      "outputs": [
        {
          "internalType": "uint256",
          "name": "_d",
          "type": "uint256"
        }
      ],
      "stateMutability": "view",
      "type": "function"
    },
    {
      "inputs": [],
      "name": "getItem",
      "outputs": [
        {
          "internalType": "uint256",
          "name": "_d",
          "type": "uint256"
        },
        {
          "internalType": "address",
          "name": "",
          "type": "address"
        }
      ],
      "stateMutability": "view",
      "type": "function"
    },
    {
      "inputs": [
        {
          "internalType": "uint64",
          "name": "_key",
          "type": "uint64"
        }
      ],
      "name": "getMeta",
      "outputs": [
        {
          "internalType": "string",
          "name": "s",
          "type": "string"
        }
      ],
      "stateMutability": "view",
      "type": "function"
    },
    {
      "inputs": [],
      "name": "getMindeposit",
      "outputs": [
        {
          "internalType": "uint256",
          "name": "_d",
          "type": "uint256"
        }
      ],
      "stateMutability": "view",
      "type": "function"
    },
    {
      "inputs": [],
      "name": "getOrderPrice",
      "outputs": [
        {
          "internalType": "uint256",
          "name": "p",
          "type": "uint256"
        }
      ],
      "stateMutability": "view",
      "type": "function"
    },
    {
      "inputs": [],
      "name": "getSeller",
      "outputs": [
        {
          "internalType": "address",
          "name": "a",
          "type": "address"
        }
      ],
      "stateMutability": "view",
      "type": "function"
    },
    {
      "inputs": [],
      "name": "getSettlementCount",
      "outputs": [
        {
          "internalType": "uint256",
          "name": "i",
          "type": "uint256"
        }
      ],
      "stateMutability": "view",
      "type": "function"
    },
    {
      "inputs": [
        {
          "internalType": "uint256",
          "name": "_i",
          "type": "uint256"
        }
      ],
      "name": "getSettlementPlan",
      "outputs": [
        {
          "internalType": "uint256",
          "name": "_sd",
          "type": "uint256"
        },
        {
          "internalType": "uint256",
          "name": "_sa",
          "type": "uint256"
        },
        {
          "internalType": "uint256",
          "name": "_cd",
          "type": "uint256"
        },
        {
          "internalType": "uint8",
          "name": "_p",
          "type": "uint8"
        },
        {
          "internalType": "bool",
          "name": "_a",
          "type": "bool"
        },
        {
          "internalType": "bool",
          "name": "_s",
          "type": "bool"
        },
        {
          "internalType": "uint256",
          "name": "_pd",
          "type": "uint256"
        },
        {
          "internalType": "string",
          "name": "_tx",
          "type": "string"
        }
      ],
      "stateMutability": "view",
      "type": "function"
    },
    {
      "inputs": [],
      "name": "getState",
      "outputs": [
        {
          "internalType": "string",
          "name": "s",
          "type": "string"
        }
      ],
      "stateMutability": "view",
      "type": "function"
    },
    {
      "inputs": [
        {
          "internalType": "string",
          "name": "_state",
          "type": "string"
        }
      ],
      "name": "getStateChange",
      "outputs": [
        {
          "internalType": "uint256",
          "name": "_d",
          "type": "uint256"
        }
      ],
      "stateMutability": "view",
      "type": "function"
    },
    {
      "inputs": [],
      "name": "isSettled",
      "outputs": [
        {
          "internalType": "bool",
          "name": "t",
          "type": "bool"
        }
      ],
      "stateMutability": "view",
      "type": "function"
    },
    {
      "inputs": [
        {
          "internalType": "address",
          "name": "_d",
          "type": "address"
        }
      ],
      "name": "setDebtor",
      "outputs": [],
      "stateMutability": "nonpayable",
      "type": "function"
    },
    {
      "inputs": [
        {
          "internalType": "uint256",
          "name": "_d",
          "type": "uint256"
        }
      ],
      "name": "setFeeAmount",
      "outputs": [],
      "stateMutability": "nonpayable",
      "type": "function"
    },
    {
      "inputs": [
        {
          "internalType": "uint256",
          "name": "_d",
          "type": "uint256"
        }
      ],
      "name": "setFeePercent",
      "outputs": [],
      "stateMutability": "nonpayable",
      "type": "function"
    },
    {
      "inputs": [
        {
          "internalType": "uint64",
          "name": "_key",
          "type": "uint64"
        },
        {
          "internalType": "string",
          "name": "_d",
          "type": "string"
        }
      ],
      "name": "setMeta",
      "outputs": [],
      "stateMutability": "nonpayable",
      "type": "function"
    },
    {
      "inputs": [
        {
          "internalType": "uint256",
          "name": "_a",
          "type": "uint256"
        }
      ],
      "name": "setMindeposit",
      "outputs": [],
      "stateMutability": "nonpayable",
      "type": "function"
    },
    {
      "inputs": [
        {
          "internalType": "address",
          "name": "_d",
          "type": "address"
        }
      ],
      "name": "setSeller",
      "outputs": [],
      "stateMutability": "nonpayable",
      "type": "function"
    },
    {
      "inputs": [
        {
          "internalType": "string",
          "name": "_s",
          "type": "string"
        },
        {
          "internalType": "uint256",
          "name": "_d",
          "type": "uint256"
        }
      ],
      "name": "setState",
      "outputs": [],
      "stateMutability": "nonpayable",
      "type": "function"
    },
    {
      "inputs": [
        {
          "internalType": "address",
          "name": "base",
          "type": "address"
        },
        {
          "internalType": "uint256",
          "name": "_amount",
          "type": "uint256"
        },
        {
          "internalType": "address",
          "name": "_dest",
          "type": "address"
        }
      ],
      "name": "withdrawalERC20Token",
      "outputs": [],
      "stateMutability": "nonpayable",
      "type": "function"
    },
    {
      "inputs": [
        {
          "internalType": "uint256",
          "name": "_id",
          "type": "uint256"
        },
        {
          "internalType": "address",
          "name": "_dest",
          "type": "address"
        }
      ],
      "name": "withdrawalERC721Token",
      "outputs": [],
      "stateMutability": "nonpayable",
      "type": "function"
    },
    {
      "inputs": [],
      "name": "getOrderDetail",
      "outputs": [
        {
          "internalType": "uint256",
          "name": "",
          "type": "uint256"
        },
        {
          "internalType": "uint256",
          "name": "",
          "type": "uint256"
        },
        {
          "internalType": "address",
          "name": "",
          "type": "address"
        },
        {
          "internalType": "uint256",
          "name": "",
          "type": "uint256"
        },
        {
          "internalType": "uint256",
          "name": "",
          "type": "uint256"
        },
        {
          "internalType": "string",
          "name": "",
          "type": "string"
        },
        {
          "internalType": "uint256",
          "name": "",
          "type": "uint256"
        },
        {
          "internalType": "address",
          "name": "",
          "type": "address"
        },
        {
          "internalType": "address",
          "name": "",
          "type": "address"
        },
        {
          "internalType": "string",
          "name": "",
          "type": "string"
        },
        {
          "internalType": "uint256",
          "name": "",
          "type": "uint256"
        }
      ],
      "stateMutability": "view",
      "type": "function"
    },
    {
      "inputs": [],
      "name": "getSellSideContract",
      "outputs": [
        {
          "internalType": "address",
          "name": "_a",
          "type": "address"
        }
      ],
      "stateMutability": "view",
      "type": "function"
    },
    {
      "inputs": [],
      "name": "getTradeID",
      "outputs": [
        {
          "internalType": "uint256",
          "name": "_d",
          "type": "uint256"
        }
      ],
      "stateMutability": "view",
      "type": "function"
    },
    {
      "inputs": [
        {
          "internalType": "uint256",
          "name": "_id",
          "type": "uint256"
        }
      ],
      "name": "setTrade",
      "outputs": [],
      "stateMutability": "nonpayable",
      "type": "function"
    }
  ],
  "bytecode": "0x60806040523480156200001157600080fd5b50604051620047743803806200477483398181016040526101208110156200003857600080fd5b81019080805190602001909291908051906020019092919080519060200190929190805160405193929190846401000000008211156200007757600080fd5b838201915060208201858111156200008e57600080fd5b8251866001820283011164010000000082111715620000ac57600080fd5b8083526020830192505050908051906020019080838360005b83811015620000e2578082015181840152602081019050620000c5565b50505050905090810190601f168015620001105780820380516001836020036101000a031916815260200191505b506040526020018051906020019092919080519060200190929190805190602001909291908051906020019092919080519060200190929190505050888888888888806000806101000a81548173ffffffffffffffffffffffffffffffffffffffff021916908373ffffffffffffffffffffffffffffffffffffffff160217905550620001a3336200053760201b60201c565b80620001bc5750620001bb33620006c860201b60201c565b5b80620001d55750620001d4336200085960201b60201c565b5b80620001ee5750620001ed33620009ea60201b60201c565b5b80620002075750620002063362000b7b60201b60201c565b5b6200027a576040517f08c379a00000000000000000000000000000000000000000000000000000000081526004018080602001828103825260028152602001807f473100000000000000000000000000000000000000000000000000000000000081525060200191505060405180910390fd5b8585600a6000600c60008491906101000a81548173ffffffffffffffffffffffffffffffffffffffff021916908373ffffffffffffffffffffffffffffffffffffffff1602179055508391905055505060006006819055508260089080519060200190620002ea92919062000d22565b506040518060400160405280600481526020017f4f50454e00000000000000000000000000000000000000000000000000000000815250600590805190602001906200033892919062000d22565b5081600d60405180807f4f50454e000000000000000000000000000000000000000000000000000000008152506004019050908152602001604051809103902081905550600060098190555083600b81905550620003a2600162000d0c60201b62002f7f1760201c565b505050505050620003b9336200053760201b60201c565b80620003d25750620003d133620006c860201b60201c565b5b80620003eb5750620003ea336200085960201b60201c565b5b6200045e576040517f08c379a00000000000000000000000000000000000000000000000000000000081526004018080602001828103825260028152602001807f453000000000000000000000000000000000000000000000000000000000000081525060200191505060405180910390fd5b33600360006101000a81548173ffffffffffffffffffffffffffffffffffffffff021916908373ffffffffffffffffffffffffffffffffffffffff16021790555082600460006101000a81548173ffffffffffffffffffffffffffffffffffffffff021916908373ffffffffffffffffffffffffffffffffffffffff16021790555080601060006101000a81548173ffffffffffffffffffffffffffffffffffffffff021916908373ffffffffffffffffffffffffffffffffffffffff1602179055508160118190555050505050505050505062000dd1565b60008060009054906101000a900473ffffffffffffffffffffffffffffffffffffffff1673ffffffffffffffffffffffffffffffffffffffff166391d148546000809054906101000a900473ffffffffffffffffffffffffffffffffffffffff1673ffffffffffffffffffffffffffffffffffffffff166375b238fc6040518163ffffffff1660e01b815260040160206040518083038186803b158015620005de57600080fd5b505afa158015620005f3573d6000803e3d6000fd5b505050506040513d60208110156200060a57600080fd5b8101908080519060200190929190505050846040518363ffffffff1660e01b8152600401808381526020018273ffffffffffffffffffffffffffffffffffffffff1673ffffffffffffffffffffffffffffffffffffffff1681526020019250505060206040518083038186803b1580156200068457600080fd5b505afa15801562000699573d6000803e3d6000fd5b505050506040513d6020811015620006b057600080fd5b81019080805190602001909291905050509050919050565b60008060009054906101000a900473ffffffffffffffffffffffffffffffffffffffff1673ffffffffffffffffffffffffffffffffffffffff166391d148546000809054906101000a900473ffffffffffffffffffffffffffffffffffffffff1673ffffffffffffffffffffffffffffffffffffffff16634db08aea6040518163ffffffff1660e01b815260040160206040518083038186803b1580156200076f57600080fd5b505afa15801562000784573d6000803e3d6000fd5b505050506040513d60208110156200079b57600080fd5b8101908080519060200190929190505050846040518363ffffffff1660e01b8152600401808381526020018273ffffffffffffffffffffffffffffffffffffffff1673ffffffffffffffffffffffffffffffffffffffff1681526020019250505060206040518083038186803b1580156200081557600080fd5b505afa1580156200082a573d6000803e3d6000fd5b505050506040513d60208110156200084157600080fd5b81019080805190602001909291905050509050919050565b60008060009054906101000a900473ffffffffffffffffffffffffffffffffffffffff1673ffffffffffffffffffffffffffffffffffffffff166391d148546000809054906101000a900473ffffffffffffffffffffffffffffffffffffffff1673ffffffffffffffffffffffffffffffffffffffff166384138b9b6040518163ffffffff1660e01b815260040160206040518083038186803b1580156200090057600080fd5b505afa15801562000915573d6000803e3d6000fd5b505050506040513d60208110156200092c57600080fd5b8101908080519060200190929190505050846040518363ffffffff1660e01b8152600401808381526020018273ffffffffffffffffffffffffffffffffffffffff1673ffffffffffffffffffffffffffffffffffffffff1681526020019250505060206040518083038186803b158015620009a657600080fd5b505afa158015620009bb573d6000803e3d6000fd5b505050506040513d6020811015620009d257600080fd5b81019080805190602001909291905050509050919050565b60008060009054906101000a900473ffffffffffffffffffffffffffffffffffffffff1673ffffffffffffffffffffffffffffffffffffffff166391d148546000809054906101000a900473ffffffffffffffffffffffffffffffffffffffff1673ffffffffffffffffffffffffffffffffffffffff1663e926eb966040518163ffffffff1660e01b815260040160206040518083038186803b15801562000a9157600080fd5b505afa15801562000aa6573d6000803e3d6000fd5b505050506040513d602081101562000abd57600080fd5b8101908080519060200190929190505050846040518363ffffffff1660e01b8152600401808381526020018273ffffffffffffffffffffffffffffffffffffffff1673ffffffffffffffffffffffffffffffffffffffff1681526020019250505060206040518083038186803b15801562000b3757600080fd5b505afa15801562000b4c573d6000803e3d6000fd5b505050506040513d602081101562000b6357600080fd5b81019080805190602001909291905050509050919050565b60008060009054906101000a900473ffffffffffffffffffffffffffffffffffffffff1673ffffffffffffffffffffffffffffffffffffffff166391d148546000809054906101000a900473ffffffffffffffffffffffffffffffffffffffff1673ffffffffffffffffffffffffffffffffffffffff16634d5e07fb6040518163ffffffff1660e01b815260040160206040518083038186803b15801562000c2257600080fd5b505afa15801562000c37573d6000803e3d6000fd5b505050506040513d602081101562000c4e57600080fd5b8101908080519060200190929190505050846040518363ffffffff1660e01b8152600401808381526020018273ffffffffffffffffffffffffffffffffffffffff1673ffffffffffffffffffffffffffffffffffffffff1681526020019250505060206040518083038186803b15801562000cc857600080fd5b505afa15801562000cdd573d6000803e3d6000fd5b505050506040513d602081101562000cf457600080fd5b81019080805190602001909291905050509050919050565b6001816000016000828254019250508190555050565b828054600181600116156101000203166002900490600052602060002090601f016020900481019282601f1062000d6557805160ff191683800117855562000d96565b8280016001018555821562000d96579182015b8281111562000d9557825182559160200191906001019062000d78565b5b50905062000da5919062000da9565b5090565b62000dce91905b8082111562000dca57600081600090555060010162000db0565b5090565b90565b6139938062000de16000396000f3fe608060405234801561001057600080fd5b50600436106101e55760003560e01c80636b3926801161010f578063c3c61f91116100a2578063e9f748d411610071578063e9f748d414610ca1578063ea6d0d8614610cbf578063f008695614610d70578063f89d1ec014610da8576101e5565b8063c3c61f9114610ba4578063c412eaba14610bc2578063dbd0e1b614610c13578063e99d286614610c5d576101e5565b80639ad09310116100de5780639ad0931014610ab6578063a8bc4ffa14610b24578063be74264d14610b68578063bf5c982214610b86576101e5565b80636b392680146109415780637ce3489b1461096f5780637e78fdb91461099d57806389ace75e146109e7576101e5565b80633270bb5b116101875780635f34e434116101565780635f34e434146107f8578063605df8001461081657806366a9613d14610844578063677ab32d14610872576101e5565b80633270bb5b14610520578063390cacdf146105425780633c9782ff146105605780634f2f129114610646576101e5565b80631865c57d116101c35780631865c57d1461035e5780631b77f68d146103e1578063292d1fb91461040d57806329596fa2146104d2576101e5565b806307d27fab146101ea578063080f8b9d146102c6578063175106a214610314575b600080fd5b6102c46004803603608081101561020057600080fd5b81019080803590602001909291908035906020019064010000000081111561022757600080fd5b82018360208201111561023957600080fd5b8035906020019184600183028401116401000000008311171561025b57600080fd5b91908080601f016020809104026020016040519081016040528093929190818152602001838380828437600081840152601f19601f82011690508083019250505050505050919291929080359060200190929190803560ff169060200190929190505050610df2565b005b610312600480360360808110156102dc57600080fd5b81019080803590602001909291908035906020019092919080359060200190929190803515159060200190929190505050610f56565b005b61031c6110b1565b604051808273ffffffffffffffffffffffffffffffffffffffff1673ffffffffffffffffffffffffffffffffffffffff16815260200191505060405180910390f35b610366611156565b6040518080602001828103825283818151815260200191508051906020019080838360005b838110156103a657808201518184015260208101905061038b565b50505050905090810190601f1680156103d35780820380516001836020036101000a031916815260200191505b509250505060405180910390f35b6103e9611273565b60405180848152602001838152602001828152602001935050505060405180910390f35b6104d06004803603604081101561042357600080fd5b810190808035906020019064010000000081111561044057600080fd5b82018360208201111561045257600080fd5b8035906020019184600183028401116401000000008311171561047457600080fd5b91908080601f016020809104026020016040519081016040528093929190818152602001838380828437600081840152601f19601f82011690508083019250505050505050919291929080359060200190929190505050611498565b005b61051e600480360360408110156104e857600080fd5b8101908080359060200190929190803573ffffffffffffffffffffffffffffffffffffffff16906020019092919050505061159c565b005b610528611856565b604051808215151515815260200191505060405180910390f35b61054a61198a565b6040518082815260200191505060405180910390f35b61058c6004803603602081101561057657600080fd5b8101908080359060200190929190505050611a0f565b604051808981526020018881526020018781526020018660ff1660ff168152602001851515151581526020018415151515815260200183815260200180602001828103825283818151815260200191508051906020019080838360005b838110156106045780820151818401526020810190506105e9565b50505050905090810190601f1680156106315780820380516001836020036101000a031916815260200191505b50995050505050505050505060405180910390f35b61064e611c24565b604051808c81526020018b81526020018a73ffffffffffffffffffffffffffffffffffffffff1673ffffffffffffffffffffffffffffffffffffffff168152602001898152602001888152602001806020018781526020018673ffffffffffffffffffffffffffffffffffffffff1673ffffffffffffffffffffffffffffffffffffffff1681526020018573ffffffffffffffffffffffffffffffffffffffff1673ffffffffffffffffffffffffffffffffffffffff16815260200180602001848152602001838103835289818151815260200191508051906020019080838360005b8381101561074c578082015181840152602081019050610731565b50505050905090810190601f1680156107795780820380516001836020036101000a031916815260200191505b50838103825285818151815260200191508051906020019080838360005b838110156107b2578082015181840152602081019050610797565b50505050905090810190601f1680156107df5780820380516001836020036101000a031916815260200191505b509d505050505050505050505050505060405180910390f35b610800611e93565b6040518082815260200191505060405180910390f35b6108426004803603602081101561082c57600080fd5b8101908080359060200190929190505050611f22565b005b6108706004803603602081101561085a57600080fd5b8101908080359060200190929190505050611fb7565b005b61093f6004803603604081101561088857600080fd5b81019080803567ffffffffffffffff169060200190929190803590602001906401000000008111156108b957600080fd5b8201836020820111156108cb57600080fd5b803590602001918460018302840111640100000000831117156108ed57600080fd5b91908080601f016020809104026020016040519081016040528093929190818152602001838380828437600081840152601f19601f82011690508083019250505050505050919291929050505061204c565b005b61096d6004803603602081101561095757600080fd5b8101908080359060200190929190505050612137565b005b61099b6004803603602081101561098557600080fd5b81019080803590602001909291905050506121cc565b005b6109a5612261565b604051808273ffffffffffffffffffffffffffffffffffffffff1673ffffffffffffffffffffffffffffffffffffffff16815260200191505060405180910390f35b610aa0600480360360208110156109fd57600080fd5b8101908080359060200190640100000000811115610a1a57600080fd5b820183602082011115610a2c57600080fd5b80359060200191846001830284011164010000000083111715610a4e57600080fd5b91908080601f016020809104026020016040519081016040528093929190818152602001838380828437600081840152601f19601f820116905080830192505050505050509192919290505050612306565b6040518082815260200191505060405180910390f35b610b2260048036036060811015610acc57600080fd5b81019080803573ffffffffffffffffffffffffffffffffffffffff16906020019092919080359060200190929190803573ffffffffffffffffffffffffffffffffffffffff1690602001909291905050506123f4565b005b610b6660048036036020811015610b3a57600080fd5b81019080803573ffffffffffffffffffffffffffffffffffffffff16906020019092919050505061253d565b005b610b706125fc565b6040518082815260200191505060405180910390f35b610b8e612681565b6040518082815260200191505060405180910390f35b610bac612706565b6040518082815260200191505060405180910390f35b610bca61278b565b604051808381526020018273ffffffffffffffffffffffffffffffffffffffff1673ffffffffffffffffffffffffffffffffffffffff1681526020019250505060405180910390f35b610c1b612837565b604051808273ffffffffffffffffffffffffffffffffffffffff1673ffffffffffffffffffffffffffffffffffffffff16815260200191505060405180910390f35b610c9f60048036036020811015610c7357600080fd5b81019080803573ffffffffffffffffffffffffffffffffffffffff1690602001909291905050506128dc565b005b610ca961299b565b6040518082815260200191505060405180910390f35b610cf560048036036020811015610cd557600080fd5b81019080803567ffffffffffffffff1690602001909291905050506129a5565b6040518080602001828103825283818151815260200191508051906020019080838360005b83811015610d35578082015181840152602081019050610d1a565b50505050905090810190601f168015610d625780820380516001836020036101000a031916815260200191505b509250505060405180910390f35b610da660048036036040811015610d8657600080fd5b810190808035906020019092919080359060200190929190505050612ae9565b005b610db0612d1d565b604051808273ffffffffffffffffffffffffffffffffffffffff1673ffffffffffffffffffffffffffffffffffffffff16815260200191505060405180910390f35b610dfb33612dc2565b80610e0b5750610e0a33612df4565b5b610e7d576040517f08c379a00000000000000000000000000000000000000000000000000000000081526004018080602001828103825260038152602001807f473234000000000000000000000000000000000000000000000000000000000081525060200191505060405180910390fd5b6001600e600086815260200190815260200160002060030160026101000a81548160ff0219169083151502179055506000600e600086815260200190815260200160002060030160016101000a81548160ff02191690831515021790555082600e60008681526020019081526020016000206005019080519060200190610f0592919061386c565b5080600e600086815260200190815260200160002060030160006101000a81548160ff021916908360ff16021790555081600e60008681526020019081526020016000206004018190555050505050565b610f5f33612dc2565b80610f6f5750610f6e33612df4565b5b610fe1576040517f08c379a00000000000000000000000000000000000000000000000000000000081526004018080602001828103825260038152602001807f473230000000000000000000000000000000000000000000000000000000000081525060200191505060405180910390fd5b610feb6001612f7f565b60006001610ff96001612f95565b03905084600e60008381526020019081526020016000206001018190555083600e60008381526020019081526020016000206000018190555082600e60008381526020019081526020016000206002018190555081600e600083815260200190815260200160002060030160016101000a81548160ff0219169083151502179055506000600e600083815260200190815260200160002060030160026101000a81548160ff0219169083151502179055505050505050565b60006110bc33612fa3565b61112e576040517f08c379a00000000000000000000000000000000000000000000000000000000081526004018080602001828103825260028152602001807f453000000000000000000000000000000000000000000000000000000000000081525060200191505060405180910390fd5b601060009054906101000a900473ffffffffffffffffffffffffffffffffffffffff16905090565b606061116133612fa3565b6111d3576040517f08c379a00000000000000000000000000000000000000000000000000000000081526004018080602001828103825260038152602001807f473233000000000000000000000000000000000000000000000000000000000081525060200191505060405180910390fd5b60058054600181600116156101000203166002900480601f0160208091040260200160405190810160405280929190818152602001828054600181600116156101000203166002900480156112695780601f1061123e57610100808354040283529160200191611269565b820191906000526020600020905b81548152906001019060200180831161124c57829003601f168201915b5050505050905090565b6000806000611281336130b5565b80611291575061129033612fa3565b5b611303576040517f08c379a00000000000000000000000000000000000000000000000000000000081526004018080602001828103825260028152602001807f473800000000000000000000000000000000000000000000000000000000000081525060200191505060405180910390fd5b60008090506000806001905060008090505b61131f6001612f95565b8110156114705760011515600e600083815260200190815260200160002060030160019054906101000a900460ff161515148015611384575060001515600e600083815260200190815260200160002060030160029054906101000a900460ff161515145b8015611394575060011515821515145b156113be57809350600e600085815260200190815260200160002060000154925060009150611463565b60011515600e600083815260200190815260200160002060030160019054906101000a900460ff16151514801561141c575060001515600e600083815260200190815260200160002060030160029054906101000a900460ff161515145b156114625782600e600083815260200190815260200160002060000154106114445783611446565b805b9350600e60008581526020019081526020016000206000015492505b5b8080600101915050611315565b508282600e600086815260200190815260200160002060010154955095509550505050909192565b6114a133612dc2565b611513576040517f08c379a00000000000000000000000000000000000000000000000000000000081526004018080602001828103825260038152602001807f473131000000000000000000000000000000000000000000000000000000000081525060200191505060405180910390fd5b816005908051906020019061152992919061386c565b5080600d836040518082805190602001908083835b60208310611561578051825260208201915060208101905060208303925061153e565b6001836020036101000a0380198251168184511680821785525050505050509050019150509081526020016040518091039020819055505050565b6115a533612dc2565b611617576040517f08c379a00000000000000000000000000000000000000000000000000000000081526004018080602001828103825260038152602001807f473138000000000000000000000000000000000000000000000000000000000081525060200191505060405180910390fd5b6000600c60009054906101000a900473ffffffffffffffffffffffffffffffffffffffff1690506000831461164c5782611650565b600a545b92503073ffffffffffffffffffffffffffffffffffffffff168173ffffffffffffffffffffffffffffffffffffffff16636352211e856040518263ffffffff1660e01b81526004018082815260200191505060206040518083038186803b1580156116ba57600080fd5b505afa1580156116ce573d6000803e3d6000fd5b505050506040513d60208110156116e457600080fd5b810190808051906020019092919050505073ffffffffffffffffffffffffffffffffffffffff161461177e576040517f08c379a00000000000000000000000000000000000000000000000000000000081526004018080602001828103825260038152602001807f473235000000000000000000000000000000000000000000000000000000000081525060200191505060405180910390fd5b8073ffffffffffffffffffffffffffffffffffffffff166323b872dd3084866040518463ffffffff1660e01b8152600401808473ffffffffffffffffffffffffffffffffffffffff1673ffffffffffffffffffffffffffffffffffffffff1681526020018373ffffffffffffffffffffffffffffffffffffffff1673ffffffffffffffffffffffffffffffffffffffff1681526020018281526020019350505050600060405180830381600087803b15801561183957600080fd5b505af115801561184d573d6000803e3d6000fd5b50505050505050565b600061186133612fa3565b80611871575061187033613240565b5b806118815750611880336130b5565b5b6118f3576040517f08c379a00000000000000000000000000000000000000000000000000000000081526004018080602001828103825260038152602001807f473235000000000000000000000000000000000000000000000000000000000081525060200191505060405180910390fd5b60006001905060008090505b6119096001612f95565b811015611982578180156119695750600e600082815260200190815260200160002060030160019054906101000a900460ff1680156119685750600e600082815260200190815260200160002060030160029054906101000a900460ff165b5b91508161197557611982565b80806001019150506118ff565b508091505090565b600061199533612fa3565b611a07576040517f08c379a00000000000000000000000000000000000000000000000000000000081526004018080602001828103825260038152602001807f473237000000000000000000000000000000000000000000000000000000000081525060200191505060405180910390fd5b600954905090565b60008060008060008060006060611a2533612fa3565b611a97576040517f08c379a00000000000000000000000000000000000000000000000000000000081526004018080602001828103825260038152602001807f473239000000000000000000000000000000000000000000000000000000000081525060200191505060405180910390fd5b611a9f6138ec565b600e60008b8152602001908152602001600020604051806101000160405290816000820154815260200160018201548152602001600282015481526020016003820160009054906101000a900460ff1660ff1660ff1681526020016003820160019054906101000a900460ff161515151581526020016003820160029054906101000a900460ff1615151515815260200160048201548152602001600582018054600181600116156101000203166002900480601f016020809104026020016040519081016040528092919081815260200182805460018160011615610100020316600290048015611bd25780601f10611ba757610100808354040283529160200191611bd2565b820191906000526020600020905b815481529060010190602001808311611bb557829003601f168201915b5050505050815250509050806000015181602001518260400151836060015184608001518560a001518660c001518760e001518090509850985098509850985098509850985050919395975091939597565b60008060008060006060600080600060606000611c4033612fa3565b611cb2576040517f08c379a00000000000000000000000000000000000000000000000000000000081526004018080602001828103825260028152602001807f453000000000000000000000000000000000000000000000000000000000000081525060200191505060405180910390fd5b601154600a54600c60009054906101000a900473ffffffffffffffffffffffffffffffffffffffff16600b546006546008600954600360009054906101000a900473ffffffffffffffffffffffffffffffffffffffff16600260009054906101000a900473ffffffffffffffffffffffffffffffffffffffff166005611d386001612f95565b858054600181600116156101000203166002900480601f016020809104026020016040519081016040528092919081815260200182805460018160011615610100020316600290048015611dcd5780601f10611da257610100808354040283529160200191611dcd565b820191906000526020600020905b815481529060010190602001808311611db057829003601f168201915b50505050509550818054600181600116156101000203166002900480601f016020809104026020016040519081016040528092919081815260200182805460018160011615610100020316600290048015611e695780601f10611e3e57610100808354040283529160200191611e69565b820191906000526020600020905b815481529060010190602001808311611e4c57829003601f168201915b505050505091509a509a509a509a509a509a509a509a509a509a509a50909192939495969798999a565b6000611e9e33612fa3565b611f10576040517f08c379a00000000000000000000000000000000000000000000000000000000081526004018080602001828103825260038152602001807f473234000000000000000000000000000000000000000000000000000000000081525060200191505060405180910390fd5b6001611f1c6001612f95565b03905090565b611f2b336133cb565b80611f3b5750611f3a336130b5565b5b611fad576040517f08c379a00000000000000000000000000000000000000000000000000000000081526004018080602001828103825260028152602001807f453000000000000000000000000000000000000000000000000000000000000081525060200191505060405180910390fd5b8060118190555050565b611fc033612dc2565b80611fd05750611fcf33613556565b5b612042576040517f08c379a00000000000000000000000000000000000000000000000000000000081526004018080602001828103825260038152602001807f473136000000000000000000000000000000000000000000000000000000000081525060200191505060405180910390fd5b8060098190555050565b61205533612dc2565b80612065575061206433613556565b5b806120755750612074336136e1565b5b80612085575061208433612df4565b5b6120f7576040517f08c379a00000000000000000000000000000000000000000000000000000000081526004018080602001828103825260038152602001807f473137000000000000000000000000000000000000000000000000000000000081525060200191505060405180910390fd5b80600f60008467ffffffffffffffff1667ffffffffffffffff168152602001908152602001600020908051906020019061213292919061386c565b505050565b61214033612dc2565b80612150575061214f33613556565b5b6121c2576040517f08c379a00000000000000000000000000000000000000000000000000000000081526004018080602001828103825260038152602001807f473133000000000000000000000000000000000000000000000000000000000081525060200191505060405180910390fd5b8060078190555050565b6121d533612dc2565b806121e557506121e433613556565b5b612257576040517f08c379a00000000000000000000000000000000000000000000000000000000081526004018080602001828103825260038152602001807f473132000000000000000000000000000000000000000000000000000000000081525060200191505060405180910390fd5b8060068190555050565b600061226c33612fa3565b6122de576040517f08c379a00000000000000000000000000000000000000000000000000000000081526004018080602001828103825260028152602001807f473500000000000000000000000000000000000000000000000000000000000081525060200191505060405180910390fd5b600260009054906101000a900473ffffffffffffffffffffffffffffffffffffffff16905090565b600061231133612fa3565b612383576040517f08c379a00000000000000000000000000000000000000000000000000000000081526004018080602001828103825260038152602001807f473238000000000000000000000000000000000000000000000000000000000081525060200191505060405180910390fd5b600d826040518082805190602001908083835b602083106123b95780518252602082019150602081019050602083039250612396565b6001836020036101000a0380198251168184511680821785525050505050509050019150509081526020016040518091039020549050919050565b6123fd33612dc2565b61246f576040517f08c379a00000000000000000000000000000000000000000000000000000000081526004018080602001828103825260038152602001807f473139000000000000000000000000000000000000000000000000000000000081525060200191505060405180910390fd5b60008390508073ffffffffffffffffffffffffffffffffffffffff1663a9059cbb83856040518363ffffffff1660e01b8152600401808373ffffffffffffffffffffffffffffffffffffffff1673ffffffffffffffffffffffffffffffffffffffff16815260200182815260200192505050602060405180830381600087803b1580156124fb57600080fd5b505af115801561250f573d6000803e3d6000fd5b505050506040513d602081101561252557600080fd5b81019080805190602001909291905050505050505050565b61254633612dc2565b6125b8576040517f08c379a00000000000000000000000000000000000000000000000000000000081526004018080602001828103825260038152602001807f473134000000000000000000000000000000000000000000000000000000000081525060200191505060405180910390fd5b80600260006101000a81548173ffffffffffffffffffffffffffffffffffffffff021916908373ffffffffffffffffffffffffffffffffffffffff16021790555050565b600061260733612fa3565b612679576040517f08c379a00000000000000000000000000000000000000000000000000000000081526004018080602001828103825260038152602001807f473235000000000000000000000000000000000000000000000000000000000081525060200191505060405180910390fd5b600654905090565b600061268c33612fa3565b6126fe576040517f08c379a00000000000000000000000000000000000000000000000000000000081526004018080602001828103825260038152602001807f473236000000000000000000000000000000000000000000000000000000000081525060200191505060405180910390fd5b600754905090565b600061271133612fa3565b612783576040517f08c379a00000000000000000000000000000000000000000000000000000000081526004018080602001828103825260028152602001807f473300000000000000000000000000000000000000000000000000000000000081525060200191505060405180910390fd5b600b54905090565b60008061279733612fa3565b612809576040517f08c379a00000000000000000000000000000000000000000000000000000000081526004018080602001828103825260028152602001807f473200000000000000000000000000000000000000000000000000000000000081525060200191505060405180910390fd5b600a54600c60009054906101000a900473ffffffffffffffffffffffffffffffffffffffff16915091509091565b600061284233612fa3565b6128b4576040517f08c379a00000000000000000000000000000000000000000000000000000000081526004018080602001828103825260028152602001807f473600000000000000000000000000000000000000000000000000000000000081525060200191505060405180910390fd5b600460009054906101000a900473ffffffffffffffffffffffffffffffffffffffff16905090565b6128e533612dc2565b612957576040517f08c379a00000000000000000000000000000000000000000000000000000000081526004018080602001828103825260038152602001807f473135000000000000000000000000000000000000000000000000000000000081525060200191505060405180910390fd5b80600460006101000a81548173ffffffffffffffffffffffffffffffffffffffff021916908373ffffffffffffffffffffffffffffffffffffffff16021790555050565b6000601154905090565b60606129b033612fa3565b612a22576040517f08c379a00000000000000000000000000000000000000000000000000000000081526004018080602001828103825260028152602001807f473700000000000000000000000000000000000000000000000000000000000081525060200191505060405180910390fd5b600f60008367ffffffffffffffff1667ffffffffffffffff1681526020019081526020016000208054600181600116156101000203166002900480601f016020809104026020016040519081016040528092919081815260200182805460018160011615610100020316600290048015612add5780601f10612ab257610100808354040283529160200191612add565b820191906000526020600020905b815481529060010190602001808311612ac057829003601f168201915b50505050509050919050565b612af233612dc2565b80612b025750612b0133612df4565b5b612b74576040517f08c379a00000000000000000000000000000000000000000000000000000000081526004018080602001828103825260038152602001807f473231000000000000000000000000000000000000000000000000000000000081525060200191505060405180910390fd5b60008210158015612b8d5750612b8a6001612f95565b82105b612bff576040517f08c379a00000000000000000000000000000000000000000000000000000000081526004018080602001828103825260038152602001807f473232000000000000000000000000000000000000000000000000000000000081525060200191505060405180910390fd5b60001515600e600084815260200190815260200160002060030160029054906101000a900460ff161515148015612c5d575060011515600e600084815260200190815260200160002060030160019054906101000a900460ff161515145b612ccf576040517f08c379a00000000000000000000000000000000000000000000000000000000081526004018080602001828103825260038152602001807f473233000000000000000000000000000000000000000000000000000000000081525060200191505060405180910390fd5b6000600e600084815260200190815260200160002060030160016101000a81548160ff02191690831515021790555080600e6000848152602001908152602001600020600401819055505050565b6000612d2833612fa3565b612d9a576040517f08c379a00000000000000000000000000000000000000000000000000000000081526004018080602001828103825260028152602001807f473400000000000000000000000000000000000000000000000000000000000081525060200191505060405180910390fd5b600360009054906101000a900473ffffffffffffffffffffffffffffffffffffffff16905090565b6000612dcd826133cb565b80612ddd5750612ddc826130b5565b5b80612ded5750612dec82613240565b5b9050919050565b60008060009054906101000a900473ffffffffffffffffffffffffffffffffffffffff1673ffffffffffffffffffffffffffffffffffffffff166391d148546000809054906101000a900473ffffffffffffffffffffffffffffffffffffffff1673ffffffffffffffffffffffffffffffffffffffff1663ef0fe2456040518163ffffffff1660e01b815260040160206040518083038186803b158015612e9a57600080fd5b505afa158015612eae573d6000803e3d6000fd5b505050506040513d6020811015612ec457600080fd5b8101908080519060200190929190505050846040518363ffffffff1660e01b8152600401808381526020018273ffffffffffffffffffffffffffffffffffffffff1673ffffffffffffffffffffffffffffffffffffffff1681526020019250505060206040518083038186803b158015612f3d57600080fd5b505afa158015612f51573d6000803e3d6000fd5b505050506040513d6020811015612f6757600080fd5b81019080805190602001909291905050509050919050565b6001816000016000828254019250508190555050565b600081600001549050919050565b6000600360009054906101000a900473ffffffffffffffffffffffffffffffffffffffff1673ffffffffffffffffffffffffffffffffffffffff168273ffffffffffffffffffffffffffffffffffffffff16148061304e5750600260009054906101000a900473ffffffffffffffffffffffffffffffffffffffff1673ffffffffffffffffffffffffffffffffffffffff168273ffffffffffffffffffffffffffffffffffffffff16145b8061305e575061305d826133cb565b5b8061306e575061306d82613556565b5b8061307e575061307d82612df4565b5b8061308e575061308d826136e1565b5b8061309e575061309d82613240565b5b806130ae57506130ad826130b5565b5b9050919050565b60008060009054906101000a900473ffffffffffffffffffffffffffffffffffffffff1673ffffffffffffffffffffffffffffffffffffffff166391d148546000809054906101000a900473ffffffffffffffffffffffffffffffffffffffff1673ffffffffffffffffffffffffffffffffffffffff16634d5e07fb6040518163ffffffff1660e01b815260040160206040518083038186803b15801561315b57600080fd5b505afa15801561316f573d6000803e3d6000fd5b505050506040513d602081101561318557600080fd5b8101908080519060200190929190505050846040518363ffffffff1660e01b8152600401808381526020018273ffffffffffffffffffffffffffffffffffffffff1673ffffffffffffffffffffffffffffffffffffffff1681526020019250505060206040518083038186803b1580156131fe57600080fd5b505afa158015613212573d6000803e3d6000fd5b505050506040513d602081101561322857600080fd5b81019080805190602001909291905050509050919050565b60008060009054906101000a900473ffffffffffffffffffffffffffffffffffffffff1673ffffffffffffffffffffffffffffffffffffffff166391d148546000809054906101000a900473ffffffffffffffffffffffffffffffffffffffff1673ffffffffffffffffffffffffffffffffffffffff166384138b9b6040518163ffffffff1660e01b815260040160206040518083038186803b1580156132e657600080fd5b505afa1580156132fa573d6000803e3d6000fd5b505050506040513d602081101561331057600080fd5b8101908080519060200190929190505050846040518363ffffffff1660e01b8152600401808381526020018273ffffffffffffffffffffffffffffffffffffffff1673ffffffffffffffffffffffffffffffffffffffff1681526020019250505060206040518083038186803b15801561338957600080fd5b505afa15801561339d573d6000803e3d6000fd5b505050506040513d60208110156133b357600080fd5b81019080805190602001909291905050509050919050565b60008060009054906101000a900473ffffffffffffffffffffffffffffffffffffffff1673ffffffffffffffffffffffffffffffffffffffff166391d148546000809054906101000a900473ffffffffffffffffffffffffffffffffffffffff1673ffffffffffffffffffffffffffffffffffffffff166375b238fc6040518163ffffffff1660e01b815260040160206040518083038186803b15801561347157600080fd5b505afa158015613485573d6000803e3d6000fd5b505050506040513d602081101561349b57600080fd5b8101908080519060200190929190505050846040518363ffffffff1660e01b8152600401808381526020018273ffffffffffffffffffffffffffffffffffffffff1673ffffffffffffffffffffffffffffffffffffffff1681526020019250505060206040518083038186803b15801561351457600080fd5b505afa158015613528573d6000803e3d6000fd5b505050506040513d602081101561353e57600080fd5b81019080805190602001909291905050509050919050565b60008060009054906101000a900473ffffffffffffffffffffffffffffffffffffffff1673ffffffffffffffffffffffffffffffffffffffff166391d148546000809054906101000a900473ffffffffffffffffffffffffffffffffffffffff1673ffffffffffffffffffffffffffffffffffffffff16634db08aea6040518163ffffffff1660e01b815260040160206040518083038186803b1580156135fc57600080fd5b505afa158015613610573d6000803e3d6000fd5b505050506040513d602081101561362657600080fd5b8101908080519060200190929190505050846040518363ffffffff1660e01b8152600401808381526020018273ffffffffffffffffffffffffffffffffffffffff1673ffffffffffffffffffffffffffffffffffffffff1681526020019250505060206040518083038186803b15801561369f57600080fd5b505afa1580156136b3573d6000803e3d6000fd5b505050506040513d60208110156136c957600080fd5b81019080805190602001909291905050509050919050565b60008060009054906101000a900473ffffffffffffffffffffffffffffffffffffffff1673ffffffffffffffffffffffffffffffffffffffff166391d148546000809054906101000a900473ffffffffffffffffffffffffffffffffffffffff1673ffffffffffffffffffffffffffffffffffffffff1663e90524f26040518163ffffffff1660e01b815260040160206040518083038186803b15801561378757600080fd5b505afa15801561379b573d6000803e3d6000fd5b505050506040513d60208110156137b157600080fd5b8101908080519060200190929190505050846040518363ffffffff1660e01b8152600401808381526020018273ffffffffffffffffffffffffffffffffffffffff1673ffffffffffffffffffffffffffffffffffffffff1681526020019250505060206040518083038186803b15801561382a57600080fd5b505afa15801561383e573d6000803e3d6000fd5b505050506040513d602081101561385457600080fd5b81019080805190602001909291905050509050919050565b828054600181600116156101000203166002900490600052602060002090601f016020900481019282601f106138ad57805160ff19168380011785556138db565b828001600101855582156138db579182015b828111156138da5782518255916020019190600101906138bf565b5b5090506138e89190613938565b5090565b604051806101000160405280600081526020016000815260200160008152602001600060ff16815260200160001515815260200160001515815260200160008152602001606081525090565b61395a91905b8082111561395657600081600090555060010161393e565b5090565b9056fea264697066735822122083f0571ecf952005da443b01926cfb55e3a3bb57349695b33f63936f4fdd591a64736f6c63430006020033",
  "source": "pragma solidity ^0.6.0;\n\nimport \"./baseContract.sol\";\n\ncontract SellSideContract is BaseContract {\n\n     address sellsidecontract;\n     uint256 tradeID;\n     \n     constructor (uint256 _itemid, address _base,uint256  _price, string memory _currency,\n                    uint256 _createdatetime,address _access, address _seller,uint256 _tradeID,address _sellsidecontract) \n                public BaseContract( _itemid,  _base,  _price, _currency,_createdatetime, _access) \n    {\n        require(_isAdmin(msg.sender) || _isSales(msg.sender) || _isExpense(msg.sender),\"E0\");\n        creditor = msg.sender;\n        seller = _seller;\n        sellsidecontract = _sellsidecontract;\n        tradeID = _tradeID;\n        \n        \n    } \n    \n    \n    function getOrderDetail() public override view\n    returns (uint256, uint256, address,uint256 ,uint256, string memory ,uint256,address,address,string memory,uint256)\n    {\n        require( _isOrderViewer(msg.sender), \"E0\");\n        \n        return (tradeID,ERC721ID,ERC721baseaddress,unit_price,feesprecentage,currency,mindeposit,creditor,debtor,state,_settlementcount.current());\n    }         \n    \n    function getSellSideContract() public view\n    returns(address _a)\n    {\n        require( _isOrderViewer(msg.sender), \"E0\");\n        \n        return (sellsidecontract);\n    }\n\n    function getTradeID() override public view\n    returns(uint256 _d)\n    {\n        return tradeID;\n    }\n    \n    function setTrade(uint256 _id) public \n    {\n         require( _isAdmin(msg.sender) || _isOrder(msg.sender), \"E0\");\n         tradeID = _id;\n\n    }\n    \n     \n\n  \n  \n}",
  "sourcePath": "/home/dickchan/ERC721Marketplace/contracts/BuySellContract/SellSideContract.sol",
  "compiler": {
    "name": "solc",
    "version": "0.6.2+commit.bacdbe57.Emscripten.clang"
  },
  "schemaVersion": "3.2.3",
  "updatedAt": "2020-11-19T07:51:27.241Z",
  "devdoc": {
    "methods": {}
  },
  "userdoc": {
    "methods": {}
  }
}