{
  "contractName": "StateMachine",
  "abi": [
    {
      "inputs": [],
      "stateMutability": "nonpayable",
      "type": "constructor"
    },
    {
      "anonymous": false,
      "inputs": [
        {
          "indexed": false,
          "internalType": "bytes32",
          "name": "state",
          "type": "bytes32"
        }
      ],
      "name": "CurrentState",
      "type": "event"
    },
    {
      "anonymous": false,
      "inputs": [
        {
          "indexed": true,
          "internalType": "address",
          "name": "previousOwner",
          "type": "address"
        },
        {
          "indexed": true,
          "internalType": "address",
          "name": "newOwner",
          "type": "address"
        }
      ],
      "name": "OwnershipTransferred",
      "type": "event"
    },
    {
      "anonymous": false,
      "inputs": [
        {
          "indexed": false,
          "internalType": "string",
          "name": "originState",
          "type": "string"
        },
        {
          "indexed": false,
          "internalType": "bytes32",
          "name": "functionhash",
          "type": "bytes32"
        },
        {
          "indexed": false,
          "internalType": "string",
          "name": "targetState",
          "type": "string"
        }
      ],
      "name": "TransitionCreated",
      "type": "event"
    },
    {
      "inputs": [],
      "name": "owner",
      "outputs": [
        {
          "internalType": "address",
          "name": "",
          "type": "address"
        }
      ],
      "stateMutability": "view",
      "type": "function"
    },
    {
      "inputs": [],
      "name": "renounceOwnership",
      "outputs": [],
      "stateMutability": "nonpayable",
      "type": "function"
    },
    {
      "inputs": [
        {
          "internalType": "address",
          "name": "newOwner",
          "type": "address"
        }
      ],
      "name": "transferOwnership",
      "outputs": [],
      "stateMutability": "nonpayable",
      "type": "function"
    },
    {
      "inputs": [
        {
          "internalType": "string",
          "name": "originState",
          "type": "string"
        },
        {
          "internalType": "bytes32",
          "name": "functionhash",
          "type": "bytes32"
        }
      ],
      "name": "transitionExists",
      "outputs": [
        {
          "internalType": "bool",
          "name": "",
          "type": "bool"
        },
        {
          "internalType": "string",
          "name": "",
          "type": "string"
        }
      ],
      "stateMutability": "view",
      "type": "function"
    },
    {
      "inputs": [
        {
          "internalType": "string",
          "name": "originState",
          "type": "string"
        },
        {
          "internalType": "bytes32",
          "name": "functionhash",
          "type": "bytes32"
        },
        {
          "internalType": "string",
          "name": "targetState",
          "type": "string"
        }
      ],
      "name": "createTransition",
      "outputs": [],
      "stateMutability": "nonpayable",
      "type": "function"
    }
  ],
  "bytecode": "0x608060405234801561001057600080fd5b5060006100216100c460201b60201c565b9050806000806101000a81548173ffffffffffffffffffffffffffffffffffffffff021916908373ffffffffffffffffffffffffffffffffffffffff1602179055508073ffffffffffffffffffffffffffffffffffffffff16600073ffffffffffffffffffffffffffffffffffffffff167f8be0079c531659141344cd1fd0a4f28419497f9722a3daafe3b4186f6b6457e060405160405180910390a3506100cc565b600033905090565b610d9d806100db6000396000f3fe608060405234801561001057600080fd5b50600436106100575760003560e01c8063708442491461005c578063715018a6146101a55780638da5cb5b146101af578063f1cea450146101f9578063f2fde38b14610355575b600080fd5b61011f6004803603604081101561007257600080fd5b810190808035906020019064010000000081111561008f57600080fd5b8201836020820111156100a157600080fd5b803590602001918460018302840111640100000000831117156100c357600080fd5b91908080601f016020809104026020016040519081016040528093929190818152602001838380828437600081840152601f19601f82011690508083019250505050505050919291929080359060200190929190505050610399565b604051808315151515815260200180602001828103825283818151815260200191508051906020019080838360005b8381101561016957808201518184015260208101905061014e565b50505050905090810190601f1680156101965780820380516001836020036101000a031916815260200191505b50935050505060405180910390f35b6101ad61054c565b005b6101b76106d4565b604051808273ffffffffffffffffffffffffffffffffffffffff1673ffffffffffffffffffffffffffffffffffffffff16815260200191505060405180910390f35b6103536004803603606081101561020f57600080fd5b810190808035906020019064010000000081111561022c57600080fd5b82018360208201111561023e57600080fd5b8035906020019184600183028401116401000000008311171561026057600080fd5b91908080601f016020809104026020016040519081016040528093929190818152602001838380828437600081840152601f19601f82011690508083019250505050505050919291929080359060200190929190803590602001906401000000008111156102cd57600080fd5b8201836020820111156102df57600080fd5b8035906020019184600183028401116401000000008311171561030157600080fd5b91908080601f016020809104026020016040519081016040528093929190818152602001838380828437600081840152601f19601f8201169050808301925050505050505091929192905050506106fd565b005b6103976004803603602081101561036b57600080fd5b81019080803573ffffffffffffffffffffffffffffffffffffffff169060200190929190505050610a87565b005b600060606001846040518082805190602001908083835b602083106103d357805182526020820191506020810190506020830392506103b0565b6001836020036101000a0380198251168184511680821785525050505050509050019150509081526020016040518091039020600084815260200190815260200160002060000160009054906101000a900460ff166001856040518082805190602001908083835b6020831061045e578051825260208201915060208101905060208303925061043b565b6001836020036101000a03801982511681845116808217855250505050505090500191505090815260200160405180910390206000858152602001908152602001600020600101808054600181600116156101000203166002900480601f01602080910402602001604051908101604052809291908181526020018280546001816001161561010002031660029004801561053a5780601f1061050f5761010080835404028352916020019161053a565b820191906000526020600020905b81548152906001019060200180831161051d57829003601f168201915b50505050509050915091509250929050565b610554610c94565b73ffffffffffffffffffffffffffffffffffffffff166000809054906101000a900473ffffffffffffffffffffffffffffffffffffffff1673ffffffffffffffffffffffffffffffffffffffff1614610615576040517f08c379a00000000000000000000000000000000000000000000000000000000081526004018080602001828103825260208152602001807f4f776e61626c653a2063616c6c6572206973206e6f7420746865206f776e657281525060200191505060405180910390fd5b600073ffffffffffffffffffffffffffffffffffffffff166000809054906101000a900473ffffffffffffffffffffffffffffffffffffffff1673ffffffffffffffffffffffffffffffffffffffff167f8be0079c531659141344cd1fd0a4f28419497f9722a3daafe3b4186f6b6457e060405160405180910390a360008060006101000a81548173ffffffffffffffffffffffffffffffffffffffff021916908373ffffffffffffffffffffffffffffffffffffffff160217905550565b60008060009054906101000a900473ffffffffffffffffffffffffffffffffffffffff16905090565b610705610c94565b73ffffffffffffffffffffffffffffffffffffffff166000809054906101000a900473ffffffffffffffffffffffffffffffffffffffff1673ffffffffffffffffffffffffffffffffffffffff16146107c6576040517f08c379a00000000000000000000000000000000000000000000000000000000081526004018080602001828103825260208152602001807f4f776e61626c653a2063616c6c6572206973206e6f7420746865206f776e657281525060200191505060405180910390fd5b60006107d28484610399565b5090508015610849576040517f08c379a000000000000000000000000000000000000000000000000000000000815260040180806020018281038252601a8152602001807f5472616e736974696f6e20616c7265616479206578697374732e00000000000081525060200191505060405180910390fd5b600180856040518082805190602001908083835b60208310610880578051825260208201915060208101905060208303925061085d565b6001836020036101000a0380198251168184511680821785525050505050509050019150509081526020016040518091039020600085815260200190815260200160002060000160006101000a81548160ff021916908315150217905550816001856040518082805190602001908083835b6020831061091557805182526020820191506020810190506020830392506108f2565b6001836020036101000a03801982511681845116808217855250505050505090500191505090815260200160405180910390206000858152602001908152602001600020600101908051906020019061096f929190610c9c565b507f44757f62a336bbffca31478c6dbc87f38ae7804816b8c6e4a79df10305a4b27f848484604051808060200184815260200180602001838103835286818151815260200191508051906020019080838360005b838110156109de5780820151818401526020810190506109c3565b50505050905090810190601f168015610a0b5780820380516001836020036101000a031916815260200191505b50838103825284818151815260200191508051906020019080838360005b83811015610a44578082015181840152602081019050610a29565b50505050905090810190601f168015610a715780820380516001836020036101000a031916815260200191505b509550505050505060405180910390a150505050565b610a8f610c94565b73ffffffffffffffffffffffffffffffffffffffff166000809054906101000a900473ffffffffffffffffffffffffffffffffffffffff1673ffffffffffffffffffffffffffffffffffffffff1614610b50576040517f08c379a00000000000000000000000000000000000000000000000000000000081526004018080602001828103825260208152602001807f4f776e61626c653a2063616c6c6572206973206e6f7420746865206f776e657281525060200191505060405180910390fd5b600073ffffffffffffffffffffffffffffffffffffffff168173ffffffffffffffffffffffffffffffffffffffff161415610bd6576040517f08c379a0000000000000000000000000000000000000000000000000000000008152600401808060200182810382526026815260200180610d426026913960400191505060405180910390fd5b8073ffffffffffffffffffffffffffffffffffffffff166000809054906101000a900473ffffffffffffffffffffffffffffffffffffffff1673ffffffffffffffffffffffffffffffffffffffff167f8be0079c531659141344cd1fd0a4f28419497f9722a3daafe3b4186f6b6457e060405160405180910390a3806000806101000a81548173ffffffffffffffffffffffffffffffffffffffff021916908373ffffffffffffffffffffffffffffffffffffffff16021790555050565b600033905090565b828054600181600116156101000203166002900490600052602060002090601f016020900481019282601f10610cdd57805160ff1916838001178555610d0b565b82800160010185558215610d0b579182015b82811115610d0a578251825591602001919060010190610cef565b5b509050610d189190610d1c565b5090565b610d3e91905b80821115610d3a576000816000905550600101610d22565b5090565b9056fe4f776e61626c653a206e6577206f776e657220697320746865207a65726f2061646472657373a264697066735822122042d0a00169c92d6720c69be5dae58fa303e554ebd56445e38e12d2f0eaa49d4664736f6c63430006020033",
  "source": "pragma solidity ^0.6.0;\n//import \"https://github.com/OpenZeppelin/openzeppelin-contracts/blob/master/contracts/access/Ownable.sol\";\nimport \"openzeppelin-solidity/contracts/access/Ownable.sol\";\n/**\n * @title StateMachine\n * @author Alberto Cuesta Canada\n * @dev Implements a simple state machine:\n *  - All states exist by default.\n *  - No transitions exist by default.\n *  - The state machine starts at \"SETUP\".\n *  - New transitions can be created while in the \"SETUP state\".\n */\n \n\n \ncontract StateMachine is Ownable{\n    \n    struct rule{\n        bool exists;\n        string nextState;\n    }\n \n \n    event TransitionCreated(string originState, bytes32 functionhash, string targetState);\n    event CurrentState(bytes32 state);\n\n \n\n    mapping (string => mapping(bytes32 => rule)) internal _transitions;\n\n  \n    constructor()\n        public\n    {\n      \n    }\n\n\n    function transitionExists(string memory originState, bytes32 functionhash)\n        public\n        virtual\n        view\n        returns(bool,string memory)\n    {\n        return (_transitions[originState][functionhash].exists, _transitions[originState][functionhash].nextState);\n    }\n\n    /**\n     * @dev Create a transition between two states.\n     */\n    function createTransition (string memory originState, bytes32 functionhash, string memory targetState)\n       public  onlyOwner\n    {\n        (bool exist, ) = transitionExists(originState, functionhash);\n        require(\n            (!exist) ,\n            \"Transition already exists.\"\n        );\n\n        _transitions[originState][functionhash].exists=true;\n        _transitions[originState][functionhash].nextState=targetState;\n        emit TransitionCreated(originState, functionhash , targetState);\n    }\n    \n}\n",
  "sourcePath": "/home/dickchan/ERC721Marketplace/contracts/stateMachine.sol",
  "compiler": {
    "name": "solc",
    "version": "0.6.2+commit.bacdbe57.Emscripten.clang"
  },
  "schemaVersion": "3.2.3",
  "updatedAt": "2020-10-28T06:06:48.771Z",
  "devdoc": {
    "author": "Alberto Cuesta Canada",
    "details": "Implements a simple state machine: - All states exist by default. - No transitions exist by default. - The state machine starts at \"SETUP\". - New transitions can be created while in the \"SETUP state\".",
    "methods": {
      "createTransition(string,bytes32,string)": {
        "details": "Create a transition between two states."
      },
      "owner()": {
        "details": "Returns the address of the current owner."
      },
      "renounceOwnership()": {
        "details": "Leaves the contract without owner. It will not be possible to call `onlyOwner` functions anymore. Can only be called by the current owner.     * NOTE: Renouncing ownership will leave the contract without an owner, thereby removing any functionality that is only available to the owner."
      },
      "transferOwnership(address)": {
        "details": "Transfers ownership of the contract to a new account (`newOwner`). Can only be called by the current owner."
      }
    },
    "title": "StateMachine"
  },
  "userdoc": {
    "methods": {}
  }
}