{
  "contractName": "StateMachine",
  "abi": [
    {
      "inputs": [
        {
          "internalType": "address",
          "name": "_a",
          "type": "address"
        }
      ],
      "stateMutability": "nonpayable",
      "type": "constructor"
    },
    {
      "anonymous": false,
      "inputs": [
        {
          "indexed": false,
          "internalType": "bytes32",
          "name": "state",
          "type": "bytes32"
        }
      ],
      "name": "CurrentState",
      "type": "event"
    },
    {
      "anonymous": false,
      "inputs": [
        {
          "indexed": false,
          "internalType": "string",
          "name": "originState",
          "type": "string"
        },
        {
          "indexed": false,
          "internalType": "bytes32",
          "name": "functionhash",
          "type": "bytes32"
        },
        {
          "indexed": false,
          "internalType": "string",
          "name": "targetState",
          "type": "string"
        }
      ],
      "name": "TransitionCreated",
      "type": "event"
    },
    {
      "inputs": [
        {
          "internalType": "string",
          "name": "originState",
          "type": "string"
        },
        {
          "internalType": "bytes32",
          "name": "functionhash",
          "type": "bytes32"
        }
      ],
      "name": "transitionExists",
      "outputs": [
        {
          "internalType": "bool",
          "name": "",
          "type": "bool"
        },
        {
          "internalType": "string",
          "name": "",
          "type": "string"
        }
      ],
      "stateMutability": "view",
      "type": "function"
    },
    {
      "inputs": [
        {
          "internalType": "string",
          "name": "originState",
          "type": "string"
        },
        {
          "internalType": "bytes32",
          "name": "functionhash",
          "type": "bytes32"
        },
        {
          "internalType": "string",
          "name": "targetState",
          "type": "string"
        }
      ],
      "name": "createTransition",
      "outputs": [],
      "stateMutability": "nonpayable",
      "type": "function"
    }
  ],
  "bytecode": "0x608060405234801561001057600080fd5b50604051610ac9380380610ac98339818101604052602081101561003357600080fd5b8101908080519060200190929190505050806000806101000a81548173ffffffffffffffffffffffffffffffffffffffff021916908373ffffffffffffffffffffffffffffffffffffffff16021790555050610a35806100946000396000f3fe608060405234801561001057600080fd5b50600436106100365760003560e01c8063708442491461003b578063f1cea45014610184575b600080fd5b6100fe6004803603604081101561005157600080fd5b810190808035906020019064010000000081111561006e57600080fd5b82018360208201111561008057600080fd5b803590602001918460018302840111640100000000831117156100a257600080fd5b91908080601f016020809104026020016040519081016040528093929190818152602001838380828437600081840152601f19601f820116905080830192505050505050509192919290803590602001909291905050506102e0565b604051808315151515815260200180602001828103825283818151815260200191508051906020019080838360005b8381101561014857808201518184015260208101905061012d565b50505050905090810190601f1680156101755780820380516001836020036101000a031916815260200191505b50935050505060405180910390f35b6102de6004803603606081101561019a57600080fd5b81019080803590602001906401000000008111156101b757600080fd5b8201836020820111156101c957600080fd5b803590602001918460018302840111640100000000831117156101eb57600080fd5b91908080601f016020809104026020016040519081016040528093929190818152602001838380828437600081840152601f19601f820116905080830192505050505050509192919290803590602001909291908035906020019064010000000081111561025857600080fd5b82018360208201111561026a57600080fd5b8035906020019184600183028401116401000000008311171561028c57600080fd5b91908080601f016020809104026020016040519081016040528093929190818152602001838380828437600081840152601f19601f820116905080830192505050505050509192919290505050610493565b005b600060606001846040518082805190602001908083835b6020831061031a57805182526020820191506020810190506020830392506102f7565b6001836020036101000a0380198251168184511680821785525050505050509050019150509081526020016040518091039020600084815260200190815260200160002060000160009054906101000a900460ff166001856040518082805190602001908083835b602083106103a55780518252602082019150602081019050602083039250610382565b6001836020036101000a03801982511681845116808217855250505050505090500191505090815260200160405180910390206000858152602001908152602001600020600101808054600181600116156101000203166002900480601f0160208091040260200160405190810160405280929190818152602001828054600181600116156101000203166002900480156104815780601f1061045657610100808354040283529160200191610481565b820191906000526020600020905b81548152906001019060200180831161046457829003601f168201915b50505050509050915091509250929050565b61049c336107cf565b61050e576040517f08c379a00000000000000000000000000000000000000000000000000000000081526004018080602001828103825260038152602001807f543031000000000000000000000000000000000000000000000000000000000081525060200191505060405180910390fd5b600061051a84846102e0565b5090508015610591576040517f08c379a000000000000000000000000000000000000000000000000000000000815260040180806020018281038252601a8152602001807f5472616e736974696f6e20616c7265616479206578697374732e00000000000081525060200191505060405180910390fd5b600180856040518082805190602001908083835b602083106105c857805182526020820191506020810190506020830392506105a5565b6001836020036101000a0380198251168184511680821785525050505050509050019150509081526020016040518091039020600085815260200190815260200160002060000160006101000a81548160ff021916908315150217905550816001856040518082805190602001908083835b6020831061065d578051825260208201915060208101905060208303925061063a565b6001836020036101000a0380198251168184511680821785525050505050509050019150509081526020016040518091039020600085815260200190815260200160002060010190805190602001906106b792919061095a565b507f44757f62a336bbffca31478c6dbc87f38ae7804816b8c6e4a79df10305a4b27f848484604051808060200184815260200180602001838103835286818151815260200191508051906020019080838360005b8381101561072657808201518184015260208101905061070b565b50505050905090810190601f1680156107535780820380516001836020036101000a031916815260200191505b50838103825284818151815260200191508051906020019080838360005b8381101561078c578082015181840152602081019050610771565b50505050905090810190601f1680156107b95780820380516001836020036101000a031916815260200191505b509550505050505060405180910390a150505050565b60008060009054906101000a900473ffffffffffffffffffffffffffffffffffffffff1673ffffffffffffffffffffffffffffffffffffffff166391d148546000809054906101000a900473ffffffffffffffffffffffffffffffffffffffff1673ffffffffffffffffffffffffffffffffffffffff166375b238fc6040518163ffffffff1660e01b815260040160206040518083038186803b15801561087557600080fd5b505afa158015610889573d6000803e3d6000fd5b505050506040513d602081101561089f57600080fd5b8101908080519060200190929190505050846040518363ffffffff1660e01b8152600401808381526020018273ffffffffffffffffffffffffffffffffffffffff1673ffffffffffffffffffffffffffffffffffffffff1681526020019250505060206040518083038186803b15801561091857600080fd5b505afa15801561092c573d6000803e3d6000fd5b505050506040513d602081101561094257600080fd5b81019080805190602001909291905050509050919050565b828054600181600116156101000203166002900490600052602060002090601f016020900481019282601f1061099b57805160ff19168380011785556109c9565b828001600101855582156109c9579182015b828111156109c85782518255916020019190600101906109ad565b5b5090506109d691906109da565b5090565b6109fc91905b808211156109f85760008160009055506001016109e0565b5090565b9056fea2646970667358221220d1e22820913a6964614897c46173c7ab085c6e2e7271772c2e439fefaff27ee664736f6c63430006020033",
  "source": "pragma solidity ^0.6.0;\nimport \"../utils/access.sol\";\n\n  contract StateMachine is Access{\n    \n    struct rule{\n        bool exists;\n        string nextState;\n    }\n    \n \n    event TransitionCreated(string originState, bytes32 functionhash, string targetState);\n    event CurrentState(bytes32 state);\n\n    \n\n    mapping (string => mapping(bytes32 => rule)) internal _transitions;\n\n  \n    constructor(address _a)\n        public\n    {\n        access = PermissionControl(_a);\n    }\n\n\n    function transitionExists(string memory originState, bytes32 functionhash)\n        public\n        virtual\n        view\n        returns(bool,string memory)\n    {\n        return (_transitions[originState][functionhash].exists, _transitions[originState][functionhash].nextState);\n    }\n\n    /**\n     * @dev Create a transition between two states.\n     */\n    function createTransition (string memory originState, bytes32 functionhash, string memory targetState) public \n    {\n        require(_isAdmin(msg.sender),\"T01\");\n        (bool exist, ) = transitionExists(originState, functionhash);\n        require(\n            (!exist) ,\n            \"Transition already exists.\"\n        );\n\n        _transitions[originState][functionhash].exists=true;\n        _transitions[originState][functionhash].nextState=targetState;\n        emit TransitionCreated(originState, functionhash , targetState);\n    }\n    \n}\n",
  "sourcePath": "/home/dickchan/ERC721Marketplace/contracts/BookContract/stateMachine.sol",
  "compiler": {
    "name": "solc",
    "version": "0.6.2+commit.bacdbe57.Emscripten.clang"
  },
  "schemaVersion": "3.2.3",
  "updatedAt": "2020-11-19T07:51:27.229Z",
  "devdoc": {
    "methods": {
      "createTransition(string,bytes32,string)": {
        "details": "Create a transition between two states."
      }
    }
  },
  "userdoc": {
    "methods": {}
  }
}