{
  "contractName": "TestingERC721",
  "abi": [
    {
      "inputs": [
        {
          "internalType": "string",
          "name": "_symbolname",
          "type": "string"
        },
        {
          "internalType": "string",
          "name": "_symbol",
          "type": "string"
        },
        {
          "internalType": "string",
          "name": "_baseURI",
          "type": "string"
        },
        {
          "internalType": "address",
          "name": "_access",
          "type": "address"
        },
        {
          "internalType": "address",
          "name": "_lookup",
          "type": "address"
        }
      ],
      "stateMutability": "nonpayable",
      "type": "constructor"
    },
    {
      "anonymous": false,
      "inputs": [
        {
          "indexed": true,
          "internalType": "address",
          "name": "owner",
          "type": "address"
        },
        {
          "indexed": true,
          "internalType": "address",
          "name": "approved",
          "type": "address"
        },
        {
          "indexed": true,
          "internalType": "uint256",
          "name": "tokenId",
          "type": "uint256"
        }
      ],
      "name": "Approval",
      "type": "event"
    },
    {
      "anonymous": false,
      "inputs": [
        {
          "indexed": true,
          "internalType": "address",
          "name": "owner",
          "type": "address"
        },
        {
          "indexed": true,
          "internalType": "address",
          "name": "operator",
          "type": "address"
        },
        {
          "indexed": false,
          "internalType": "bool",
          "name": "approved",
          "type": "bool"
        }
      ],
      "name": "ApprovalForAll",
      "type": "event"
    },
    {
      "anonymous": false,
      "inputs": [
        {
          "indexed": false,
          "internalType": "uint256",
          "name": "itemid",
          "type": "uint256"
        },
        {
          "indexed": false,
          "internalType": "address",
          "name": "owner",
          "type": "address"
        },
        {
          "indexed": false,
          "internalType": "string",
          "name": "url",
          "type": "string"
        }
      ],
      "name": "NewToken",
      "type": "event"
    },
    {
      "anonymous": false,
      "inputs": [
        {
          "indexed": false,
          "internalType": "address",
          "name": "account",
          "type": "address"
        }
      ],
      "name": "Paused",
      "type": "event"
    },
    {
      "anonymous": false,
      "inputs": [
        {
          "indexed": true,
          "internalType": "address",
          "name": "from",
          "type": "address"
        },
        {
          "indexed": true,
          "internalType": "address",
          "name": "to",
          "type": "address"
        },
        {
          "indexed": true,
          "internalType": "uint256",
          "name": "tokenId",
          "type": "uint256"
        }
      ],
      "name": "Transfer",
      "type": "event"
    },
    {
      "anonymous": false,
      "inputs": [
        {
          "indexed": false,
          "internalType": "address",
          "name": "account",
          "type": "address"
        }
      ],
      "name": "Unpaused",
      "type": "event"
    },
    {
      "inputs": [
        {
          "internalType": "address",
          "name": "to",
          "type": "address"
        },
        {
          "internalType": "uint256",
          "name": "tokenId",
          "type": "uint256"
        }
      ],
      "name": "approve",
      "outputs": [],
      "stateMutability": "nonpayable",
      "type": "function"
    },
    {
      "inputs": [
        {
          "internalType": "address",
          "name": "owner",
          "type": "address"
        }
      ],
      "name": "balanceOf",
      "outputs": [
        {
          "internalType": "uint256",
          "name": "",
          "type": "uint256"
        }
      ],
      "stateMutability": "view",
      "type": "function"
    },
    {
      "inputs": [],
      "name": "baseURI",
      "outputs": [
        {
          "internalType": "string",
          "name": "",
          "type": "string"
        }
      ],
      "stateMutability": "view",
      "type": "function"
    },
    {
      "inputs": [
        {
          "internalType": "uint256",
          "name": "tokenId",
          "type": "uint256"
        }
      ],
      "name": "burn",
      "outputs": [],
      "stateMutability": "nonpayable",
      "type": "function"
    },
    {
      "inputs": [],
      "name": "diamond",
      "outputs": [
        {
          "internalType": "contract DiamondContract",
          "name": "",
          "type": "address"
        }
      ],
      "stateMutability": "view",
      "type": "function"
    },
    {
      "inputs": [
        {
          "internalType": "uint256",
          "name": "tokenId",
          "type": "uint256"
        }
      ],
      "name": "getApproved",
      "outputs": [
        {
          "internalType": "address",
          "name": "",
          "type": "address"
        }
      ],
      "stateMutability": "view",
      "type": "function"
    },
    {
      "inputs": [
        {
          "internalType": "address",
          "name": "owner",
          "type": "address"
        },
        {
          "internalType": "address",
          "name": "operator",
          "type": "address"
        }
      ],
      "name": "isApprovedForAll",
      "outputs": [
        {
          "internalType": "bool",
          "name": "",
          "type": "bool"
        }
      ],
      "stateMutability": "view",
      "type": "function"
    },
    {
      "inputs": [],
      "name": "name",
      "outputs": [
        {
          "internalType": "string",
          "name": "",
          "type": "string"
        }
      ],
      "stateMutability": "view",
      "type": "function"
    },
    {
      "inputs": [
        {
          "internalType": "uint256",
          "name": "tokenId",
          "type": "uint256"
        }
      ],
      "name": "ownerOf",
      "outputs": [
        {
          "internalType": "address",
          "name": "",
          "type": "address"
        }
      ],
      "stateMutability": "view",
      "type": "function"
    },
    {
      "inputs": [],
      "name": "paused",
      "outputs": [
        {
          "internalType": "bool",
          "name": "",
          "type": "bool"
        }
      ],
      "stateMutability": "view",
      "type": "function"
    },
    {
      "inputs": [
        {
          "internalType": "address",
          "name": "from",
          "type": "address"
        },
        {
          "internalType": "address",
          "name": "to",
          "type": "address"
        },
        {
          "internalType": "uint256",
          "name": "tokenId",
          "type": "uint256"
        }
      ],
      "name": "safeTransferFrom",
      "outputs": [],
      "stateMutability": "nonpayable",
      "type": "function"
    },
    {
      "inputs": [
        {
          "internalType": "address",
          "name": "from",
          "type": "address"
        },
        {
          "internalType": "address",
          "name": "to",
          "type": "address"
        },
        {
          "internalType": "uint256",
          "name": "tokenId",
          "type": "uint256"
        },
        {
          "internalType": "bytes",
          "name": "_data",
          "type": "bytes"
        }
      ],
      "name": "safeTransferFrom",
      "outputs": [],
      "stateMutability": "nonpayable",
      "type": "function"
    },
    {
      "inputs": [
        {
          "internalType": "address",
          "name": "operator",
          "type": "address"
        },
        {
          "internalType": "bool",
          "name": "approved",
          "type": "bool"
        }
      ],
      "name": "setApprovalForAll",
      "outputs": [],
      "stateMutability": "nonpayable",
      "type": "function"
    },
    {
      "inputs": [
        {
          "internalType": "bytes4",
          "name": "interfaceId",
          "type": "bytes4"
        }
      ],
      "name": "supportsInterface",
      "outputs": [
        {
          "internalType": "bool",
          "name": "",
          "type": "bool"
        }
      ],
      "stateMutability": "view",
      "type": "function"
    },
    {
      "inputs": [],
      "name": "symbol",
      "outputs": [
        {
          "internalType": "string",
          "name": "",
          "type": "string"
        }
      ],
      "stateMutability": "view",
      "type": "function"
    },
    {
      "inputs": [
        {
          "internalType": "uint256",
          "name": "index",
          "type": "uint256"
        }
      ],
      "name": "tokenByIndex",
      "outputs": [
        {
          "internalType": "uint256",
          "name": "",
          "type": "uint256"
        }
      ],
      "stateMutability": "view",
      "type": "function"
    },
    {
      "inputs": [
        {
          "internalType": "address",
          "name": "owner",
          "type": "address"
        },
        {
          "internalType": "uint256",
          "name": "index",
          "type": "uint256"
        }
      ],
      "name": "tokenOfOwnerByIndex",
      "outputs": [
        {
          "internalType": "uint256",
          "name": "",
          "type": "uint256"
        }
      ],
      "stateMutability": "view",
      "type": "function"
    },
    {
      "inputs": [
        {
          "internalType": "uint256",
          "name": "tokenId",
          "type": "uint256"
        }
      ],
      "name": "tokenURI",
      "outputs": [
        {
          "internalType": "string",
          "name": "",
          "type": "string"
        }
      ],
      "stateMutability": "view",
      "type": "function"
    },
    {
      "inputs": [],
      "name": "totalSupply",
      "outputs": [
        {
          "internalType": "uint256",
          "name": "",
          "type": "uint256"
        }
      ],
      "stateMutability": "view",
      "type": "function"
    },
    {
      "inputs": [
        {
          "internalType": "address",
          "name": "from",
          "type": "address"
        },
        {
          "internalType": "address",
          "name": "to",
          "type": "address"
        },
        {
          "internalType": "uint256",
          "name": "tokenId",
          "type": "uint256"
        }
      ],
      "name": "transferFrom",
      "outputs": [],
      "stateMutability": "nonpayable",
      "type": "function"
    },
    {
      "inputs": [
        {
          "internalType": "address",
          "name": "player",
          "type": "address"
        },
        {
          "internalType": "string",
          "name": "tokenURI",
          "type": "string"
        },
        {
          "internalType": "address",
          "name": "supplier",
          "type": "address"
        },
        {
          "internalType": "string",
          "name": "gia",
          "type": "string"
        },
        {
          "internalType": "string",
          "name": "color",
          "type": "string"
        },
        {
          "internalType": "string",
          "name": "threeEX",
          "type": "string"
        },
        {
          "internalType": "string",
          "name": "clarity",
          "type": "string"
        },
        {
          "internalType": "string",
          "name": "carat",
          "type": "string"
        }
      ],
      "name": "listDiamond",
      "outputs": [
        {
          "internalType": "uint256",
          "name": "",
          "type": "uint256"
        }
      ],
      "stateMutability": "nonpayable",
      "type": "function"
    },
    {
      "inputs": [
        {
          "internalType": "address",
          "name": "to",
          "type": "address"
        }
      ],
      "name": "mint",
      "outputs": [],
      "stateMutability": "nonpayable",
      "type": "function"
    },
    {
      "inputs": [
        {
          "internalType": "address",
          "name": "_a",
          "type": "address"
        }
      ],
      "name": "setAccess",
      "outputs": [],
      "stateMutability": "nonpayable",
      "type": "function"
    },
    {
      "inputs": [
        {
          "internalType": "address",
          "name": "_a",
          "type": "address"
        }
      ],
      "name": "setLookup",
      "outputs": [],
      "stateMutability": "nonpayable",
      "type": "function"
    }
  ],
  "bytecode": "0x60806040523480156200001157600080fd5b5060405162005af838038062005af8833981810160405260a08110156200003757600080fd5b81019080805160405193929190846401000000008211156200005857600080fd5b838201915060208201858111156200006f57600080fd5b82518660018202830111640100000000821117156200008d57600080fd5b8083526020830192505050908051906020019080838360005b83811015620000c3578082015181840152602081019050620000a6565b50505050905090810190601f168015620000f15780820380516001836020036101000a031916815260200191505b50604052602001805160405193929190846401000000008211156200011557600080fd5b838201915060208201858111156200012c57600080fd5b82518660018202830111640100000000821117156200014a57600080fd5b8083526020830192505050908051906020019080838360005b838110156200018057808201518184015260208101905062000163565b50505050905090810190601f168015620001ae5780820380516001836020036101000a031916815260200191505b5060405260200180516040519392919084640100000000821115620001d257600080fd5b83820191506020820185811115620001e957600080fd5b82518660018202830111640100000000821117156200020757600080fd5b8083526020830192505050908051906020019080838360005b838110156200023d57808201518184015260208101905062000220565b50505050905090810190601f1680156200026b5780820380516001836020036101000a031916815260200191505b5060405260200180519060200190929190805190602001909291905050508484620002a36301ffc9a760e01b620003d860201b60201c565b8160069080519060200190620002bb929190620004fd565b508060079080519060200190620002d4929190620004fd565b50620002ed6380ac58cd60e01b620003d860201b60201c565b62000305635b5e139f60e01b620003d860201b60201c565b6200031d63780e9d6360e01b620003d860201b60201c565b50506000600a60006101000a81548160ff02191690831515021790555081600a60016101000a81548173ffffffffffffffffffffffffffffffffffffffff021916908373ffffffffffffffffffffffffffffffffffffffff16021790555080600c60006101000a81548173ffffffffffffffffffffffffffffffffffffffff021916908373ffffffffffffffffffffffffffffffffffffffff160217905550620003cd83620004e160201b60201c565b5050505050620005ac565b63ffffffff60e01b817bffffffffffffffffffffffffffffffffffffffffffffffffffffffff1916141562000475576040517f08c379a000000000000000000000000000000000000000000000000000000000815260040180806020018281038252601c8152602001807f4552433136353a20696e76616c696420696e746572666163652069640000000081525060200191505060405180910390fd5b6001600080837bffffffffffffffffffffffffffffffffffffffffffffffffffffffff19167bffffffffffffffffffffffffffffffffffffffffffffffffffffffff1916815260200190815260200160002060006101000a81548160ff02191690831515021790555050565b8060099080519060200190620004f9929190620004fd565b5050565b828054600181600116156101000203166002900490600052602060002090601f016020900481019282601f106200054057805160ff191683800117855562000571565b8280016001018555821562000571579182015b828111156200057057825182559160200191906001019062000553565b5b50905062000580919062000584565b5090565b620005a991905b80821115620005a55760008160009055506001016200058b565b5090565b90565b61553c80620005bc6000396000f3fe60806040523480156200001157600080fd5b5060043610620001785760003560e01c80635c975abb11620000d557806395d89b41116200008757806395d89b411462000b71578063a22cb4651462000bf9578063b88d4fde1462000c4c578063c87b56dd1462000d57578063e985e9c51462000e04578063f0b7db4e1462000e835762000178565b80635c975abb146200096b5780636352211e146200098f5780636a6278421462000a005780636c0360eb1462000a4757806370a082311462000acf5780637d713ac21462000b2a5762000178565b806323b872dd116200012f57806323b872dd14620007675780632f745c5914620007d857806342842e0e146200083d57806342966c6814620008ae57806349bedf4214620008df5780634f6ccce714620009265762000178565b806301ffc9a7146200017d57806303635c8014620001e557806306fdde0314620005fd578063081812fc1462000685578063095ea7b314620006f657806318160ddd1462000747575b600080fd5b620001cb600480360360208110156200019557600080fd5b8101908080357bffffffffffffffffffffffffffffffffffffffffffffffffffffffff1916906020019092919050505062000ecf565b604051808215151515815260200191505060405180910390f35b620005e76004803603610100811015620001fe57600080fd5b81019080803573ffffffffffffffffffffffffffffffffffffffff169060200190929190803590602001906401000000008111156200023c57600080fd5b8201836020820111156200024f57600080fd5b803590602001918460018302840111640100000000831117156200027257600080fd5b91908080601f016020809104026020016040519081016040528093929190818152602001838380828437600081840152601f19601f820116905080830192505050505050509192919290803573ffffffffffffffffffffffffffffffffffffffff16906020019092919080359060200190640100000000811115620002f657600080fd5b8201836020820111156200030957600080fd5b803590602001918460018302840111640100000000831117156200032c57600080fd5b91908080601f016020809104026020016040519081016040528093929190818152602001838380828437600081840152601f19601f820116905080830192505050505050509192919290803590602001906401000000008111156200039057600080fd5b820183602082011115620003a357600080fd5b80359060200191846001830284011164010000000083111715620003c657600080fd5b91908080601f016020809104026020016040519081016040528093929190818152602001838380828437600081840152601f19601f820116905080830192505050505050509192919290803590602001906401000000008111156200042a57600080fd5b8201836020820111156200043d57600080fd5b803590602001918460018302840111640100000000831117156200046057600080fd5b91908080601f016020809104026020016040519081016040528093929190818152602001838380828437600081840152601f19601f82011690508083019250505050505050919291929080359060200190640100000000811115620004c457600080fd5b820183602082011115620004d757600080fd5b80359060200191846001830284011164010000000083111715620004fa57600080fd5b91908080601f016020809104026020016040519081016040528093929190818152602001838380828437600081840152601f19601f820116905080830192505050505050509192919290803590602001906401000000008111156200055e57600080fd5b8201836020820111156200057157600080fd5b803590602001918460018302840111640100000000831117156200059457600080fd5b91908080601f016020809104026020016040519081016040528093929190818152602001838380828437600081840152601f19601f82011690508083019250505050505050919291929050505062000f36565b6040518082815260200191505060405180910390f35b62000607620015ef565b6040518080602001828103825283818151815260200191508051906020019080838360005b83811015620006495780820151818401526020810190506200062c565b50505050905090810190601f168015620006775780820380516001836020036101000a031916815260200191505b509250505060405180910390f35b620006b4600480360360208110156200069d57600080fd5b810190808035906020019092919050505062001695565b604051808273ffffffffffffffffffffffffffffffffffffffff1673ffffffffffffffffffffffffffffffffffffffff16815260200191505060405180910390f35b62000745600480360360408110156200070e57600080fd5b81019080803573ffffffffffffffffffffffffffffffffffffffff1690602001909291908035906020019092919050505062001734565b005b6200075162001887565b6040518082815260200191505060405180910390f35b620007d6600480360360608110156200077f57600080fd5b81019080803573ffffffffffffffffffffffffffffffffffffffff169060200190929190803573ffffffffffffffffffffffffffffffffffffffff169060200190929190803590602001909291905050506200189a565b005b6200082760048036036040811015620007f057600080fd5b81019080803573ffffffffffffffffffffffffffffffffffffffff1690602001909291908035906020019092919050505062001918565b6040518082815260200191505060405180910390f35b620008ac600480360360608110156200085557600080fd5b81019080803573ffffffffffffffffffffffffffffffffffffffff169060200190929190803573ffffffffffffffffffffffffffffffffffffffff1690602001909291908035906020019092919050505062001975565b005b620008dd60048036036020811015620008c657600080fd5b810190808035906020019092919050505062001997565b005b6200092460048036036020811015620008f757600080fd5b81019080803573ffffffffffffffffffffffffffffffffffffffff16906020019092919050505062001a11565b005b62000955600480360360208110156200093e57600080fd5b810190808035906020019092919050505062001c52565b6040518082815260200191505060405180910390f35b6200097562001c77565b604051808215151515815260200191505060405180910390f35b620009be60048036036020811015620009a757600080fd5b810190808035906020019092919050505062001c8e565b604051808273ffffffffffffffffffffffffffffffffffffffff1673ffffffffffffffffffffffffffffffffffffffff16815260200191505060405180910390f35b62000a456004803603602081101562000a1857600080fd5b81019080803573ffffffffffffffffffffffffffffffffffffffff16906020019092919050505062001cc8565b005b62000a5162001eac565b6040518080602001828103825283818151815260200191508051906020019080838360005b8381101562000a9357808201518184015260208101905062000a76565b50505050905090810190601f16801562000ac15780820380516001836020036101000a031916815260200191505b509250505060405180910390f35b62000b146004803603602081101562000ae757600080fd5b81019080803573ffffffffffffffffffffffffffffffffffffffff16906020019092919050505062001f52565b6040518082815260200191505060405180910390f35b62000b6f6004803603602081101562000b4257600080fd5b81019080803573ffffffffffffffffffffffffffffffffffffffff1690602001909291905050506200202b565b005b62000b7b6200226c565b6040518080602001828103825283818151815260200191508051906020019080838360005b8381101562000bbd57808201518184015260208101905062000ba0565b50505050905090810190601f16801562000beb5780820380516001836020036101000a031916815260200191505b509250505060405180910390f35b62000c4a6004803603604081101562000c1157600080fd5b81019080803573ffffffffffffffffffffffffffffffffffffffff16906020019092919080351515906020019092919050505062002312565b005b62000d556004803603608081101562000c6457600080fd5b81019080803573ffffffffffffffffffffffffffffffffffffffff169060200190929190803573ffffffffffffffffffffffffffffffffffffffff169060200190929190803590602001909291908035906020019064010000000081111562000ccc57600080fd5b82018360208201111562000cdf57600080fd5b8035906020019184600183028401116401000000008311171562000d0257600080fd5b91908080601f016020809104026020016040519081016040528093929190818152602001838380828437600081840152601f19601f820116905080830192505050505050509192919290505050620024d1565b005b62000d866004803603602081101562000d6f57600080fd5b810190808035906020019092919050505062002551565b6040518080602001828103825283818151815260200191508051906020019080838360005b8381101562000dc857808201518184015260208101905062000dab565b50505050905090810190601f16801562000df65780820380516001836020036101000a031916815260200191505b509250505060405180910390f35b62000e696004803603604081101562000e1c57600080fd5b81019080803573ffffffffffffffffffffffffffffffffffffffff169060200190929190803573ffffffffffffffffffffffffffffffffffffffff16906020019092919050505062002854565b604051808215151515815260200191505060405180910390f35b62000e8d620028e8565b604051808273ffffffffffffffffffffffffffffffffffffffff1673ffffffffffffffffffffffffffffffffffffffff16815260200191505060405180910390f35b6000806000837bffffffffffffffffffffffffffffffffffffffffffffffffffffffff19167bffffffffffffffffffffffffffffffffffffffffffffffffffffffff1916815260200190815260200160002060009054906101000a900460ff169050919050565b6000600a60019054906101000a900473ffffffffffffffffffffffffffffffffffffffff1673ffffffffffffffffffffffffffffffffffffffff166391d14854600a60019054906101000a900473ffffffffffffffffffffffffffffffffffffffff1673ffffffffffffffffffffffffffffffffffffffff166375b238fc6040518163ffffffff1660e01b815260040160206040518083038186803b15801562000fdf57600080fd5b505afa15801562000ff4573d6000803e3d6000fd5b505050506040513d60208110156200100b57600080fd5b8101908080519060200190929190505050336040518363ffffffff1660e01b8152600401808381526020018273ffffffffffffffffffffffffffffffffffffffff1673ffffffffffffffffffffffffffffffffffffffff1681526020019250505060206040518083038186803b1580156200108557600080fd5b505afa1580156200109a573d6000803e3d6000fd5b505050506040513d6020811015620010b157600080fd5b810190808051906020019092919050505062001119576040517f08c379a000000000000000000000000000000000000000000000000000000000815260040180806020018281038252602d8152602001806200546d602d913960400191505060405180910390fd5b86858585858a6040516200112d9062003f47565b808773ffffffffffffffffffffffffffffffffffffffff1673ffffffffffffffffffffffffffffffffffffffff168152602001806020018060200180602001806020018060200186810386528b818151815260200191508051906020019080838360005b83811015620011ae57808201518184015260208101905062001191565b50505050905090810190601f168015620011dc5780820380516001836020036101000a031916815260200191505b5086810385528a818151815260200191508051906020019080838360005b8381101562001217578082015181840152602081019050620011fa565b50505050905090810190601f168015620012455780820380516001836020036101000a031916815260200191505b50868103845289818151815260200191508051906020019080838360005b838110156200128057808201518184015260208101905062001263565b50505050905090810190601f168015620012ae5780820380516001836020036101000a031916815260200191505b50868103835288818151815260200191508051906020019080838360005b83811015620012e9578082015181840152602081019050620012cc565b50505050905090810190601f168015620013175780820380516001836020036101000a031916815260200191505b50868103825287818151815260200191508051906020019080838360005b838110156200135257808201518184015260208101905062001335565b50505050905090810190601f168015620013805780820380516001836020036101000a031916815260200191505b509b505050505050505050505050604051809103906000f080158015620013ab573d6000803e3d6000fd5b50600b60006101000a81548173ffffffffffffffffffffffffffffffffffffffff021916908373ffffffffffffffffffffffffffffffffffffffff1602179055506000600b60009054906101000a900473ffffffffffffffffffffffffffffffffffffffff1673ffffffffffffffffffffffffffffffffffffffff169050620014358a826200290e565b62001441818a62002b0c565b600c60009054906101000a900473ffffffffffffffffffffffffffffffffffffffff1673ffffffffffffffffffffffffffffffffffffffff1663aba4754082306040518363ffffffff1660e01b8152600401808381526020018273ffffffffffffffffffffffffffffffffffffffff1673ffffffffffffffffffffffffffffffffffffffff16815260200192505050600060405180830381600087803b158015620014eb57600080fd5b505af115801562001500573d6000803e3d6000fd5b505050507ff031a088aa7b1646f284daae9871f10581d991a0d4dcfe07f7834d04201680c5818b8b604051808481526020018373ffffffffffffffffffffffffffffffffffffffff1673ffffffffffffffffffffffffffffffffffffffff16815260200180602001828103825283818151815260200191508051906020019080838360005b83811015620015a257808201518184015260208101905062001585565b50505050905090810190601f168015620015d05780820380516001836020036101000a031916815260200191505b5094505050505060405180910390a18091505098975050505050505050565b606060068054600181600116156101000203166002900480601f0160208091040260200160405190810160405280929190818152602001828054600181600116156101000203166002900480156200168b5780601f106200165f576101008083540402835291602001916200168b565b820191906000526020600020905b8154815290600101906020018083116200166d57829003601f168201915b5050505050905090565b6000620016a28262002b9c565b620016f9576040517f08c379a000000000000000000000000000000000000000000000000000000000815260040180806020018281038252602c8152602001806200536b602c913960400191505060405180910390fd5b6004600083815260200190815260200160002060009054906101000a900473ffffffffffffffffffffffffffffffffffffffff169050919050565b6000620017418262001c8e565b90508073ffffffffffffffffffffffffffffffffffffffff168373ffffffffffffffffffffffffffffffffffffffff161415620017ca576040517f08c379a00000000000000000000000000000000000000000000000000000000081526004018080602001828103825260218152602001806200541b6021913960400191505060405180910390fd5b8073ffffffffffffffffffffffffffffffffffffffff16620017eb62002bbb565b73ffffffffffffffffffffffffffffffffffffffff1614806200181f57506200181e816200181862002bbb565b62002854565b5b62001876576040517f08c379a0000000000000000000000000000000000000000000000000000000008152600401808060200182810382526038815260200180620052be6038913960400191505060405180910390fd5b62001882838362002bc3565b505050565b600062001895600262002c7e565b905090565b620018af620018a862002bbb565b8262002c95565b62001906576040517f08c379a00000000000000000000000000000000000000000000000000000000081526004018080602001828103825260318152602001806200543c6031913960400191505060405180910390fd5b6200191383838362002d95565b505050565b60006200196d82600160008673ffffffffffffffffffffffffffffffffffffffff1673ffffffffffffffffffffffffffffffffffffffff16815260200190815260200160002062002fe890919063ffffffff16565b905092915050565b6200199283838360405180602001604052806000815250620024d1565b505050565b620019ac620019a562002bbb565b8262002c95565b62001a03576040517f08c379a0000000000000000000000000000000000000000000000000000000008152600401808060200182810382526030815260200180620054d76030913960400191505060405180910390fd5b62001a0e8162003004565b50565b600a60019054906101000a900473ffffffffffffffffffffffffffffffffffffffff1673ffffffffffffffffffffffffffffffffffffffff166391d14854600a60019054906101000a900473ffffffffffffffffffffffffffffffffffffffff1673ffffffffffffffffffffffffffffffffffffffff166375b238fc6040518163ffffffff1660e01b815260040160206040518083038186803b15801562001ab857600080fd5b505afa15801562001acd573d6000803e3d6000fd5b505050506040513d602081101562001ae457600080fd5b8101908080519060200190929190505050336040518363ffffffff1660e01b8152600401808381526020018273ffffffffffffffffffffffffffffffffffffffff1673ffffffffffffffffffffffffffffffffffffffff1681526020019250505060206040518083038186803b15801562001b5e57600080fd5b505afa15801562001b73573d6000803e3d6000fd5b505050506040513d602081101562001b8a57600080fd5b810190808051906020019092919050505062001c0e576040517f08c379a00000000000000000000000000000000000000000000000000000000081526004018080602001828103825260088152602001807f4552433732315f3100000000000000000000000000000000000000000000000081525060200191505060405180910390fd5b80600c60006101000a81548173ffffffffffffffffffffffffffffffffffffffff021916908373ffffffffffffffffffffffffffffffffffffffff16021790555050565b60008062001c6b8360026200314b90919063ffffffff16565b50905080915050919050565b6000600a60009054906101000a900460ff16905090565b600062001cc182604051806060016040528060298152602001620053206029913960026200317c9092919063ffffffff16565b9050919050565b600a60019054906101000a900473ffffffffffffffffffffffffffffffffffffffff1673ffffffffffffffffffffffffffffffffffffffff166391d14854600a60019054906101000a900473ffffffffffffffffffffffffffffffffffffffff1673ffffffffffffffffffffffffffffffffffffffff166375b238fc6040518163ffffffff1660e01b815260040160206040518083038186803b15801562001d6f57600080fd5b505afa15801562001d84573d6000803e3d6000fd5b505050506040513d602081101562001d9b57600080fd5b8101908080519060200190929190505050336040518363ffffffff1660e01b8152600401808381526020018273ffffffffffffffffffffffffffffffffffffffff1673ffffffffffffffffffffffffffffffffffffffff1681526020019250505060206040518083038186803b15801562001e1557600080fd5b505afa15801562001e2a573d6000803e3d6000fd5b505050506040513d602081101562001e4157600080fd5b810190808051906020019092919050505062001ea9576040517f08c379a000000000000000000000000000000000000000000000000000000000815260040180806020018281038252603d8152602001806200549a603d913960400191505060405180910390fd5b50565b606060098054600181600116156101000203166002900480601f01602080910402602001604051908101604052809291908181526020018280546001816001161561010002031660029004801562001f485780601f1062001f1c5761010080835404028352916020019162001f48565b820191906000526020600020905b81548152906001019060200180831162001f2a57829003601f168201915b5050505050905090565b60008073ffffffffffffffffffffffffffffffffffffffff168273ffffffffffffffffffffffffffffffffffffffff16141562001fdb576040517f08c379a000000000000000000000000000000000000000000000000000000000815260040180806020018281038252602a815260200180620052f6602a913960400191505060405180910390fd5b62002024600160008473ffffffffffffffffffffffffffffffffffffffff1673ffffffffffffffffffffffffffffffffffffffff1681526020019081526020016000206200319d565b9050919050565b600a60019054906101000a900473ffffffffffffffffffffffffffffffffffffffff1673ffffffffffffffffffffffffffffffffffffffff166391d14854600a60019054906101000a900473ffffffffffffffffffffffffffffffffffffffff1673ffffffffffffffffffffffffffffffffffffffff166375b238fc6040518163ffffffff1660e01b815260040160206040518083038186803b158015620020d257600080fd5b505afa158015620020e7573d6000803e3d6000fd5b505050506040513d6020811015620020fe57600080fd5b8101908080519060200190929190505050336040518363ffffffff1660e01b8152600401808381526020018273ffffffffffffffffffffffffffffffffffffffff1673ffffffffffffffffffffffffffffffffffffffff1681526020019250505060206040518083038186803b1580156200217857600080fd5b505afa1580156200218d573d6000803e3d6000fd5b505050506040513d6020811015620021a457600080fd5b810190808051906020019092919050505062002228576040517f08c379a00000000000000000000000000000000000000000000000000000000081526004018080602001828103825260088152602001807f4552433732315f3100000000000000000000000000000000000000000000000081525060200191505060405180910390fd5b80600a60016101000a81548173ffffffffffffffffffffffffffffffffffffffff021916908373ffffffffffffffffffffffffffffffffffffffff16021790555050565b606060078054600181600116156101000203166002900480601f016020809104026020016040519081016040528092919081815260200182805460018160011615610100020316600290048015620023085780601f10620022dc5761010080835404028352916020019162002308565b820191906000526020600020905b815481529060010190602001808311620022ea57829003601f168201915b5050505050905090565b6200231c62002bbb565b73ffffffffffffffffffffffffffffffffffffffff168273ffffffffffffffffffffffffffffffffffffffff161415620023be576040517f08c379a00000000000000000000000000000000000000000000000000000000081526004018080602001828103825260198152602001807f4552433732313a20617070726f766520746f2063616c6c65720000000000000081525060200191505060405180910390fd5b8060056000620023cd62002bbb565b73ffffffffffffffffffffffffffffffffffffffff1673ffffffffffffffffffffffffffffffffffffffff16815260200190815260200160002060008473ffffffffffffffffffffffffffffffffffffffff1673ffffffffffffffffffffffffffffffffffffffff16815260200190815260200160002060006101000a81548160ff0219169083151502179055508173ffffffffffffffffffffffffffffffffffffffff166200247c62002bbb565b73ffffffffffffffffffffffffffffffffffffffff167f17307eab39ab6107e8899845ad3d59bd9653f200f220920489ca2b5937696c3183604051808215151515815260200191505060405180910390a35050565b620024e6620024df62002bbb565b8362002c95565b6200253d576040517f08c379a00000000000000000000000000000000000000000000000000000000081526004018080602001828103825260318152602001806200543c6031913960400191505060405180910390fd5b6200254b84848484620031b4565b50505050565b60606200255e8262002b9c565b620025b5576040517f08c379a000000000000000000000000000000000000000000000000000000000815260040180806020018281038252602f815260200180620053ec602f913960400191505060405180910390fd5b6060600860008481526020019081526020016000208054600181600116156101000203166002900480601f016020809104026020016040519081016040528092919081815260200182805460018160011615610100020316600290048015620026625780601f10620026365761010080835404028352916020019162002662565b820191906000526020600020905b8154815290600101906020018083116200264457829003601f168201915b505050505090506000600980546001816001161561010002031660029004905014156200269357809150506200284f565b60008151111562002774576009816040516020018083805460018160011615610100020316600290048015620027035780601f10620026e057610100808354040283529182019162002703565b820191906000526020600020905b815481529060010190602001808311620026ee575b505082805190602001908083835b6020831062002736578051825260208201915060208101905060208303925062002711565b6001836020036101000a038019825116818451168082178552505050505050905001925050506040516020818303038152906040529150506200284f565b600962002781846200322c565b6040516020018083805460018160011615610100020316600290048015620027e35780601f10620027c0576101008083540402835291820191620027e3565b820191906000526020600020905b815481529060010190602001808311620027ce575b505082805190602001908083835b60208310620028165780518252602082019150602081019050602083039250620027f1565b6001836020036101000a038019825116818451168082178552505050505050905001925050506040516020818303038152906040529150505b919050565b6000600560008473ffffffffffffffffffffffffffffffffffffffff1673ffffffffffffffffffffffffffffffffffffffff16815260200190815260200160002060008373ffffffffffffffffffffffffffffffffffffffff1673ffffffffffffffffffffffffffffffffffffffff16815260200190815260200160002060009054906101000a900460ff16905092915050565b600b60009054906101000a900473ffffffffffffffffffffffffffffffffffffffff1681565b600073ffffffffffffffffffffffffffffffffffffffff168273ffffffffffffffffffffffffffffffffffffffff161415620029b2576040517f08c379a00000000000000000000000000000000000000000000000000000000081526004018080602001828103825260208152602001807f4552433732313a206d696e7420746f20746865207a65726f206164647265737381525060200191505060405180910390fd5b620029bd8162002b9c565b1562002a31576040517f08c379a000000000000000000000000000000000000000000000000000000000815260040180806020018281038252601c8152602001807f4552433732313a20746f6b656e20616c7265616479206d696e7465640000000081525060200191505060405180910390fd5b62002a3f6000838362003367565b62002a9281600160008573ffffffffffffffffffffffffffffffffffffffff1673ffffffffffffffffffffffffffffffffffffffff1681526020019081526020016000206200337990919063ffffffff16565b5062002aab81836002620033959092919063ffffffff16565b50808273ffffffffffffffffffffffffffffffffffffffff16600073ffffffffffffffffffffffffffffffffffffffff167fddf252ad1be2c89b69c2b068fc378daa952ba7f163c4a11628f55a4df523b3ef60405160405180910390a45050565b62002b178262002b9c565b62002b6e576040517f08c379a000000000000000000000000000000000000000000000000000000000815260040180806020018281038252602c81526020018062005397602c913960400191505060405180910390fd5b8060086000848152602001908152602001600020908051906020019062002b9792919062003f55565b505050565b600062002bb4826002620033cc90919063ffffffff16565b9050919050565b600033905090565b816004600083815260200190815260200160002060006101000a81548173ffffffffffffffffffffffffffffffffffffffff021916908373ffffffffffffffffffffffffffffffffffffffff160217905550808273ffffffffffffffffffffffffffffffffffffffff1662002c388362001c8e565b73ffffffffffffffffffffffffffffffffffffffff167f8c5be1e5ebec7d5bd14f71427d1e84f3dd0314c0f7b2291e5b200ac8c7c3b92560405160405180910390a45050565b600062002c8e82600001620033e8565b9050919050565b600062002ca28262002b9c565b62002cf9576040517f08c379a000000000000000000000000000000000000000000000000000000000815260040180806020018281038252602c81526020018062005292602c913960400191505060405180910390fd5b600062002d068362001c8e565b90508073ffffffffffffffffffffffffffffffffffffffff168473ffffffffffffffffffffffffffffffffffffffff16148062002d7857508373ffffffffffffffffffffffffffffffffffffffff1662002d608462001695565b73ffffffffffffffffffffffffffffffffffffffff16145b8062002d8c575062002d8b818562002854565b5b91505092915050565b8273ffffffffffffffffffffffffffffffffffffffff1662002db78262001c8e565b73ffffffffffffffffffffffffffffffffffffffff161462002e25576040517f08c379a0000000000000000000000000000000000000000000000000000000008152600401808060200182810382526029815260200180620053c36029913960400191505060405180910390fd5b600073ffffffffffffffffffffffffffffffffffffffff168273ffffffffffffffffffffffffffffffffffffffff16141562002ead576040517f08c379a00000000000000000000000000000000000000000000000000000000081526004018080602001828103825260248152602001806200526e6024913960400191505060405180910390fd5b62002eba83838362003367565b62002ec760008262002bc3565b62002f1a81600160008673ffffffffffffffffffffffffffffffffffffffff1673ffffffffffffffffffffffffffffffffffffffff168152602001908152602001600020620033f990919063ffffffff16565b5062002f6e81600160008573ffffffffffffffffffffffffffffffffffffffff1673ffffffffffffffffffffffffffffffffffffffff1681526020019081526020016000206200337990919063ffffffff16565b5062002f8781836002620033959092919063ffffffff16565b50808273ffffffffffffffffffffffffffffffffffffffff168473ffffffffffffffffffffffffffffffffffffffff167fddf252ad1be2c89b69c2b068fc378daa952ba7f163c4a11628f55a4df523b3ef60405160405180910390a4505050565b600062002ff9836000018362003415565b60001c905092915050565b6000620030118262001c8e565b9050620030218160008462003367565b6200302e60008362002bc3565b6000600860008481526020019081526020016000208054600181600116156101000203166002900490501462003080576008600083815260200190815260200160002060006200307f919062003fdc565b5b620030d382600160008473ffffffffffffffffffffffffffffffffffffffff1673ffffffffffffffffffffffffffffffffffffffff168152602001908152602001600020620033f990919063ffffffff16565b50620030ea8260026200349b90919063ffffffff16565b5081600073ffffffffffffffffffffffffffffffffffffffff168273ffffffffffffffffffffffffffffffffffffffff167fddf252ad1be2c89b69c2b068fc378daa952ba7f163c4a11628f55a4df523b3ef60405160405180910390a45050565b600080600080620031608660000186620034b7565b915091508160001c8160001c8090509350935050509250929050565b600062003191846000018460001b8462003553565b60001c90509392505050565b6000620031ad826000016200364e565b9050919050565b620031c184848462002d95565b620031cf848484846200365f565b62003226576040517f08c379a00000000000000000000000000000000000000000000000000000000081526004018080602001828103825260328152602001806200523c6032913960400191505060405180910390fd5b50505050565b6060600082141562003276576040518060400160405280600181526020017f3000000000000000000000000000000000000000000000000000000000000000815250905062003362565b600082905060005b60008214620032a3578080600101915050600a82816200329a57fe5b0491506200327e565b6060816040519080825280601f01601f191660200182016040528015620032d95781602001600182028038833980820191505090505b50905060006001830390508593505b600084146200335a57600a8481620032fc57fe5b0660300160f81b828280600190039350815181106200331757fe5b60200101907effffffffffffffffffffffffffffffffffffffffffffffffffffffffffffff1916908160001a905350600a84816200335157fe5b049350620032e8565b819450505050505b919050565b62003374838383620038b1565b505050565b60006200338d836000018360001b62003925565b905092915050565b6000620033c3846000018460001b8473ffffffffffffffffffffffffffffffffffffffff1660001b62003999565b90509392505050565b6000620033e0836000018360001b62003a78565b905092915050565b600081600001805490509050919050565b60006200340d836000018360001b62003a9b565b905092915050565b60008183600001805490501162003478576040517f08c379a0000000000000000000000000000000000000000000000000000000008152600401808060200182810382526022815260200180620051ef6022913960400191505060405180910390fd5b8260000182815481106200348857fe5b9060005260206000200154905092915050565b6000620034af836000018360001b62003b88565b905092915050565b600080828460000180549050116200351b576040517f08c379a0000000000000000000000000000000000000000000000000000000008152600401808060200182810382526022815260200180620053496022913960400191505060405180910390fd5b60008460000184815481106200352d57fe5b906000526020600020906002020190508060000154816001015492509250509250929050565b600080846001016000858152602001908152602001600020549050600081141583906200361e576040517f08c379a00000000000000000000000000000000000000000000000000000000081526004018080602001828103825283818151815260200191508051906020019080838360005b83811015620035e2578082015181840152602081019050620035c5565b50505050905090810190601f168015620036105780820380516001836020036101000a031916815260200191505b509250505060405180910390fd5b508460000160018203815481106200363257fe5b9060005260206000209060020201600101549150509392505050565b600081600001805490509050919050565b6000620036828473ffffffffffffffffffffffffffffffffffffffff1662003ca6565b620036915760019050620038a9565b60606200382f63150b7a0260e01b620036a962002bbb565b888787604051602401808573ffffffffffffffffffffffffffffffffffffffff1673ffffffffffffffffffffffffffffffffffffffff1681526020018473ffffffffffffffffffffffffffffffffffffffff1673ffffffffffffffffffffffffffffffffffffffff16815260200183815260200180602001828103825283818151815260200191508051906020019080838360005b838110156200375b5780820151818401526020810190506200373e565b50505050905090810190601f168015620037895780820380516001836020036101000a031916815260200191505b5095505050505050604051602081830303815290604052907bffffffffffffffffffffffffffffffffffffffffffffffffffffffff19166020820180517bffffffffffffffffffffffffffffffffffffffffffffffffffffffff83818316178352505050506040518060600160405280603281526020016200523c603291398773ffffffffffffffffffffffffffffffffffffffff1662003cf29092919063ffffffff16565b905060008180602001905160208110156200384957600080fd5b8101908080519060200190929190505050905063150b7a0260e01b7bffffffffffffffffffffffffffffffffffffffffffffffffffffffff1916817bffffffffffffffffffffffffffffffffffffffffffffffffffffffff191614925050505b949350505050565b620038be83838362003d0c565b620038c862001c77565b1562003920576040517f08c379a000000000000000000000000000000000000000000000000000000000815260040180806020018281038252602b81526020018062005211602b913960400191505060405180910390fd5b505050565b600062003933838362003d11565b6200398e57826000018290806001815401808255809150506001900390600052602060002001600090919091909150558260000180549050836001016000848152602001908152602001600020819055506001905062003993565b600090505b92915050565b600080846001016000858152602001908152602001600020549050600081141562003a425784600001604051806040016040528086815260200185815250908060018154018082558091505060019003906000526020600020906002020160009091909190915060008201518160000155602082015181600101555050846000018054905085600101600086815260200190815260200160002081905550600191505062003a71565b8285600001600183038154811062003a5657fe5b90600052602060002090600202016001018190555060009150505b9392505050565b600080836001016000848152602001908152602001600020541415905092915050565b6000808360010160008481526020019081526020016000205490506000811462003b7c576000600182039050600060018660000180549050039050600086600001828154811062003ae857fe5b906000526020600020015490508087600001848154811062003b0657fe5b906000526020600020018190555060018301876001016000838152602001908152602001600020819055508660000180548062003b3f57fe5b6001900381819060005260206000200160009055905586600101600087815260200190815260200160002060009055600194505050505062003b82565b60009150505b92915050565b6000808360010160008481526020019081526020016000205490506000811462003c9a576000600182039050600060018660000180549050039050600086600001828154811062003bd557fe5b906000526020600020906002020190508087600001848154811062003bf657fe5b906000526020600020906002020160008201548160000155600182015481600101559050506001830187600101600083600001548152602001908152602001600020819055508660000180548062003c4a57fe5b600190038181906000526020600020906002020160008082016000905560018201600090555050905586600101600087815260200190815260200160002060009055600194505050505062003ca0565b60009150505b92915050565b60008060007fc5d2460186f7233c927e7db2dcc703c0e500b653ca82273b7bfad8045d85a47060001b9050833f915080821415801562003ce957506000801b8214155b92505050919050565b606062003d03848460008562003d34565b90509392505050565b505050565b600080836001016000848152602001908152602001600020541415905092915050565b606062003d418562003ca6565b62003db4576040517f08c379a000000000000000000000000000000000000000000000000000000000815260040180806020018281038252601d8152602001807f416464726573733a2063616c6c20746f206e6f6e2d636f6e747261637400000081525060200191505060405180910390fd5b600060608673ffffffffffffffffffffffffffffffffffffffff1685876040518082805190602001908083835b6020831062003e06578051825260208201915060208101905060208303925062003de1565b6001836020036101000a03801982511681845116808217855250505050505090500191505060006040518083038185875af1925050503d806000811462003e6a576040519150601f19603f3d011682016040523d82523d6000602084013e62003e6f565b606091505b5091509150811562003e8657809250505062003f3f565b60008151111562003e9a5780518082602001fd5b836040517f08c379a00000000000000000000000000000000000000000000000000000000081526004018080602001828103825283818151815260200191508051906020019080838360005b8381101562003f0357808201518184015260208101905062003ee6565b50505050905090810190601f16801562003f315780820380516001836020036101000a031916815260200191505b509250505060405180910390fd5b949350505050565b61119e806200405183390190565b828054600181600116156101000203166002900490600052602060002090601f016020900481019282601f1062003f9857805160ff191683800117855562003fc9565b8280016001018555821562003fc9579182015b8281111562003fc857825182559160200191906001019062003fab565b5b50905062003fd8919062004028565b5090565b50805460018160011615610100020316600290046000825580601f1062004004575062004025565b601f01602090049060005260206000209081019062004024919062004028565b5b50565b6200404d91905b80821115620040495760008160009055506001016200402f565b5090565b9056fe60806040523480156200001157600080fd5b506040516200119e3803806200119e833981810160405260c08110156200003757600080fd5b8101908080519060200190929190805160405193929190846401000000008211156200006257600080fd5b838201915060208201858111156200007957600080fd5b82518660018202830111640100000000821117156200009757600080fd5b8083526020830192505050908051906020019080838360005b83811015620000cd578082015181840152602081019050620000b0565b50505050905090810190601f168015620000fb5780820380516001836020036101000a031916815260200191505b50604052602001805160405193929190846401000000008211156200011f57600080fd5b838201915060208201858111156200013657600080fd5b82518660018202830111640100000000821117156200015457600080fd5b8083526020830192505050908051906020019080838360005b838110156200018a5780820151818401526020810190506200016d565b50505050905090810190601f168015620001b85780820380516001836020036101000a031916815260200191505b5060405260200180516040519392919084640100000000821115620001dc57600080fd5b83820191506020820185811115620001f357600080fd5b82518660018202830111640100000000821117156200021157600080fd5b8083526020830192505050908051906020019080838360005b83811015620002475780820151818401526020810190506200022a565b50505050905090810190601f168015620002755780820380516001836020036101000a031916815260200191505b50604052602001805160405193929190846401000000008211156200029957600080fd5b83820191506020820185811115620002b057600080fd5b8251866001820283011164010000000082111715620002ce57600080fd5b8083526020830192505050908051906020019080838360005b8381101562000304578082015181840152602081019050620002e7565b50505050905090810190601f168015620003325780820380516001836020036101000a031916815260200191505b50604052602001805160405193929190846401000000008211156200035657600080fd5b838201915060208201858111156200036d57600080fd5b82518660018202830111640100000000821117156200038b57600080fd5b8083526020830192505050908051906020019080838360005b83811015620003c1578082015181840152602081019050620003a4565b50505050905090810190601f168015620003ef5780820380516001836020036101000a031916815260200191505b506040525050506000620004086200057060201b60201c565b9050806000806101000a81548173ffffffffffffffffffffffffffffffffffffffff021916908373ffffffffffffffffffffffffffffffffffffffff1602179055508073ffffffffffffffffffffffffffffffffffffffff16600073ffffffffffffffffffffffffffffffffffffffff167f8be0079c531659141344cd1fd0a4f28419497f9722a3daafe3b4186f6b6457e060405160405180910390a35085600160006101000a81548173ffffffffffffffffffffffffffffffffffffffff021916908373ffffffffffffffffffffffffffffffffffffffff1602179055508060029080519060200190620004ff92919062000578565b5084600390805190602001906200051892919062000578565b5083600490805190602001906200053192919062000578565b5082600590805190602001906200054a92919062000578565b5081600690805190602001906200056392919062000578565b5050505050505062000627565b600033905090565b828054600181600116156101000203166002900490600052602060002090601f016020900481019282601f10620005bb57805160ff1916838001178555620005ec565b82800160010185558215620005ec579182015b82811115620005eb578251825591602001919060010190620005ce565b5b509050620005fb9190620005ff565b5090565b6200062491905b808211156200062057600081600090555060010162000606565b5090565b90565b610b6780620006376000396000f3fe608060405234801561001057600080fd5b50600436106100935760003560e01c80638da5cb5b116100665780638da5cb5b146101f2578063c99feee41461023c578063cf08fed5146102bf578063f0738b4814610342578063f2fde38b146103c557610093565b80632cdd597a146100985780633839e5531461011b578063522a7e8b1461019e578063715018a6146101e8575b600080fd5b6100a0610409565b6040518080602001828103825283818151815260200191508051906020019080838360005b838110156100e05780820151818401526020810190506100c5565b50505050905090810190601f16801561010d5780820380516001836020036101000a031916815260200191505b509250505060405180910390f35b6101236104a7565b6040518080602001828103825283818151815260200191508051906020019080838360005b83811015610163578082015181840152602081019050610148565b50505050905090810190601f1680156101905780820380516001836020036101000a031916815260200191505b509250505060405180910390f35b6101a6610545565b604051808273ffffffffffffffffffffffffffffffffffffffff1673ffffffffffffffffffffffffffffffffffffffff16815260200191505060405180910390f35b6101f061056b565b005b6101fa6106f3565b604051808273ffffffffffffffffffffffffffffffffffffffff1673ffffffffffffffffffffffffffffffffffffffff16815260200191505060405180910390f35b61024461071c565b6040518080602001828103825283818151815260200191508051906020019080838360005b83811015610284578082015181840152602081019050610269565b50505050905090810190601f1680156102b15780820380516001836020036101000a031916815260200191505b509250505060405180910390f35b6102c76107ba565b6040518080602001828103825283818151815260200191508051906020019080838360005b838110156103075780820151818401526020810190506102ec565b50505050905090810190601f1680156103345780820380516001836020036101000a031916815260200191505b509250505060405180910390f35b61034a610858565b6040518080602001828103825283818151815260200191508051906020019080838360005b8381101561038a57808201518184015260208101905061036f565b50505050905090810190601f1680156103b75780820380516001836020036101000a031916815260200191505b509250505060405180910390f35b610407600480360360208110156103db57600080fd5b81019080803573ffffffffffffffffffffffffffffffffffffffff1690602001909291905050506108f6565b005b60048054600181600116156101000203166002900480601f01602080910402602001604051908101604052809291908181526020018280546001816001161561010002031660029004801561049f5780601f106104745761010080835404028352916020019161049f565b820191906000526020600020905b81548152906001019060200180831161048257829003601f168201915b505050505081565b60058054600181600116156101000203166002900480601f01602080910402602001604051908101604052809291908181526020018280546001816001161561010002031660029004801561053d5780601f106105125761010080835404028352916020019161053d565b820191906000526020600020905b81548152906001019060200180831161052057829003601f168201915b505050505081565b600160009054906101000a900473ffffffffffffffffffffffffffffffffffffffff1681565b610573610b03565b73ffffffffffffffffffffffffffffffffffffffff166000809054906101000a900473ffffffffffffffffffffffffffffffffffffffff1673ffffffffffffffffffffffffffffffffffffffff1614610634576040517f08c379a00000000000000000000000000000000000000000000000000000000081526004018080602001828103825260208152602001807f4f776e61626c653a2063616c6c6572206973206e6f7420746865206f776e657281525060200191505060405180910390fd5b600073ffffffffffffffffffffffffffffffffffffffff166000809054906101000a900473ffffffffffffffffffffffffffffffffffffffff1673ffffffffffffffffffffffffffffffffffffffff167f8be0079c531659141344cd1fd0a4f28419497f9722a3daafe3b4186f6b6457e060405160405180910390a360008060006101000a81548173ffffffffffffffffffffffffffffffffffffffff021916908373ffffffffffffffffffffffffffffffffffffffff160217905550565b60008060009054906101000a900473ffffffffffffffffffffffffffffffffffffffff16905090565b60068054600181600116156101000203166002900480601f0160208091040260200160405190810160405280929190818152602001828054600181600116156101000203166002900480156107b25780601f10610787576101008083540402835291602001916107b2565b820191906000526020600020905b81548152906001019060200180831161079557829003601f168201915b505050505081565b60038054600181600116156101000203166002900480601f0160208091040260200160405190810160405280929190818152602001828054600181600116156101000203166002900480156108505780601f1061082557610100808354040283529160200191610850565b820191906000526020600020905b81548152906001019060200180831161083357829003601f168201915b505050505081565b60028054600181600116156101000203166002900480601f0160208091040260200160405190810160405280929190818152602001828054600181600116156101000203166002900480156108ee5780601f106108c3576101008083540402835291602001916108ee565b820191906000526020600020905b8154815290600101906020018083116108d157829003601f168201915b505050505081565b6108fe610b03565b73ffffffffffffffffffffffffffffffffffffffff166000809054906101000a900473ffffffffffffffffffffffffffffffffffffffff1673ffffffffffffffffffffffffffffffffffffffff16146109bf576040517f08c379a00000000000000000000000000000000000000000000000000000000081526004018080602001828103825260208152602001807f4f776e61626c653a2063616c6c6572206973206e6f7420746865206f776e657281525060200191505060405180910390fd5b600073ffffffffffffffffffffffffffffffffffffffff168173ffffffffffffffffffffffffffffffffffffffff161415610a45576040517f08c379a0000000000000000000000000000000000000000000000000000000008152600401808060200182810382526026815260200180610b0c6026913960400191505060405180910390fd5b8073ffffffffffffffffffffffffffffffffffffffff166000809054906101000a900473ffffffffffffffffffffffffffffffffffffffff1673ffffffffffffffffffffffffffffffffffffffff167f8be0079c531659141344cd1fd0a4f28419497f9722a3daafe3b4186f6b6457e060405160405180910390a3806000806101000a81548173ffffffffffffffffffffffffffffffffffffffff021916908373ffffffffffffffffffffffffffffffffffffffff16021790555050565b60003390509056fe4f776e61626c653a206e6577206f776e657220697320746865207a65726f2061646472657373a26469706673582212200c3d7f9fe5c3f5c69a89783d5ed1f14410e7814f63f100175b6fd0a1be4205c064736f6c63430006020033456e756d657261626c655365743a20696e646578206f7574206f6620626f756e64734552433732315061757361626c653a20746f6b656e207472616e73666572207768696c65207061757365644552433732313a207472616e7366657220746f206e6f6e20455243373231526563656976657220696d706c656d656e7465724552433732313a207472616e7366657220746f20746865207a65726f20616464726573734552433732313a206f70657261746f7220717565727920666f72206e6f6e6578697374656e7420746f6b656e4552433732313a20617070726f76652063616c6c6572206973206e6f74206f776e6572206e6f7220617070726f76656420666f7220616c6c4552433732313a2062616c616e636520717565727920666f7220746865207a65726f20616464726573734552433732313a206f776e657220717565727920666f72206e6f6e6578697374656e7420746f6b656e456e756d657261626c654d61703a20696e646578206f7574206f6620626f756e64734552433732313a20617070726f76656420717565727920666f72206e6f6e6578697374656e7420746f6b656e4552433732314d657461646174613a2055524920736574206f66206e6f6e6578697374656e7420746f6b656e4552433732313a207472616e73666572206f6620746f6b656e2074686174206973206e6f74206f776e4552433732314d657461646174613a2055524920717565727920666f72206e6f6e6578697374656e7420746f6b656e4552433732313a20617070726f76616c20746f2063757272656e74206f776e65724552433732313a207472616e736665722063616c6c6572206973206e6f74206f776e6572206e6f7220617070726f76656454657374696e67455243373231203a206d7573742068617665206d696e74657220726f6c6520746f206d696e744552433732315072657365744d696e7465725061757365724175746f49643a206d7573742068617665206d696e74657220726f6c6520746f206d696e744552433732314275726e61626c653a2063616c6c6572206973206e6f74206f776e6572206e6f7220617070726f766564a2646970667358221220bee811377fb530eb0bb2b9db6a2ffa166d26c061e4179810a1762b78a976295264736f6c63430006020033",
  "source": "pragma solidity ^0.6.0;\n\n//import \"https://github.com/OpenZeppelin/openzeppelin-contracts/blob/master/contracts/token/ERC721/ERC721.sol\";\n//import \"https://github.com/OpenZeppelin/openzeppelin-contracts/blob/master/contracts/token/ERC721/ERC721Burnable.sol\";\n//import \"https://github.com/OpenZeppelin/openzeppelin-contracts/blob/master/contracts/token/ERC721/ERC721Pausable.sol\";\n//import \"https://github.com/OpenZeppelin/openzeppelin-contracts/blob/master/contracts/access/AccessControl.sol\";\n//import \"https://github.com/OpenZeppelin/openzeppelin-contracts/blob/master/contracts/math/SafeMath.sol\";\n//import \"https://github.com/OpenZeppelin/openzeppelin-contracts/blob/master/contracts/utils/Address.sol\";\n\n\nimport \"openzeppelin-solidity/contracts/token/ERC721/ERC721.sol\";\nimport \"openzeppelin-solidity/contracts/token/ERC721/ERC721Burnable.sol\";\nimport \"openzeppelin-solidity/contracts/token/ERC721/ERC721Pausable.sol\";\nimport \"openzeppelin-solidity/contracts/math/SafeMath.sol\";\nimport \"openzeppelin-solidity/contracts/utils/Address.sol\";\nimport \"./DiamondContract.sol\";\nimport \"../utils/erc721DirectoryLookup.sol\";\nimport \"../utils/access.sol\";\ncontract TestingERC721 is ERC721Burnable, ERC721Pausable, Access {\n    event NewToken(uint256 itemid,address owner,string url);\n    using SafeMath for uint256;\n    using Address for address;\n    DiamondContract public diamond;\n    erc721DirectoryService lookup;\n    \n\tconstructor(string memory _symbolname,string memory _symbol,string memory _baseURI, address _access,address _lookup) public ERC721(_symbolname, _symbol) {\n\t\t \n\t\t access = PermissionControl(_access);\n\t\t lookup = erc721DirectoryService(_lookup);\n        _setBaseURI(_baseURI);\n\n\t}\n\n    function listDiamond (address player, string memory tokenURI, address supplier,string memory gia,string memory color, string memory threeEX, string memory clarity, string memory carat)\n        public\n        returns (uint256)\n    {\n\t\trequire(access.hasRole(access.ADMIN_ROLE(),msg.sender), \"TestingERC721 : must have minter role to mint\");\n\t\tdiamond = new DiamondContract(supplier,color,threeEX,clarity,carat,gia);\n\t\tuint256 tokenID = uint256(address(diamond));\n        _mint(player, tokenID);\n        _setTokenURI(tokenID, tokenURI);\n        lookup.setBaseAddress(tokenID,address(this));\n        emit  NewToken(tokenID,player,tokenURI);\n        return tokenID;\n    }\n\n\tfunction mint(address to) public virtual {\n        require(access.hasRole(access.ADMIN_ROLE(), msg.sender), \"ERC721PresetMinterPauserAutoId: must have minter role to mint\");\n\n    }\n    \n    function _beforeTokenTransfer(address from, address to, uint256 tokenId) internal virtual override(ERC721, ERC721Pausable) {\n        super._beforeTokenTransfer(from, to, tokenId);\n    }\n    \n    function setAccess(address _a) public \n    {\n        require(access.hasRole(access.ADMIN_ROLE(),msg.sender),\"ERC721_1\");\n        access = PermissionControl(_a);\n        \n    }\n    \n    function setLookup(address _a) public\n    {\n        require(access.hasRole(access.ADMIN_ROLE(),msg.sender),\"ERC721_1\");\n        lookup = erc721DirectoryService(_a);\n    }\n\t\n}\n",
  "sourcePath": "/home/dickchan/ERC721Marketplace/contracts/AssetToken/ERC721DiamondToken.sol",
  "compiler": {
    "name": "solc",
    "version": "0.6.2+commit.bacdbe57.Emscripten.clang"
  },
  "schemaVersion": "3.2.3",
  "updatedAt": "2020-11-19T07:51:27.132Z",
  "devdoc": {
    "methods": {
      "approve(address,uint256)": {
        "details": "See {IERC721-approve}."
      },
      "balanceOf(address)": {
        "details": "See {IERC721-balanceOf}."
      },
      "baseURI()": {
        "details": "Returns the base URI set via {_setBaseURI}. This will be automatically added as a prefix in {tokenURI} to each token's URI, or to the token ID if no specific URI is set for that token ID."
      },
      "burn(uint256)": {
        "details": "Burns `tokenId`. See {ERC721-_burn}.     * Requirements:     * - The caller must own `tokenId` or be an approved operator."
      },
      "getApproved(uint256)": {
        "details": "See {IERC721-getApproved}."
      },
      "isApprovedForAll(address,address)": {
        "details": "See {IERC721-isApprovedForAll}."
      },
      "name()": {
        "details": "See {IERC721Metadata-name}."
      },
      "ownerOf(uint256)": {
        "details": "See {IERC721-ownerOf}."
      },
      "paused()": {
        "details": "Returns true if the contract is paused, and false otherwise."
      },
      "safeTransferFrom(address,address,uint256)": {
        "details": "See {IERC721-safeTransferFrom}."
      },
      "safeTransferFrom(address,address,uint256,bytes)": {
        "details": "See {IERC721-safeTransferFrom}."
      },
      "setApprovalForAll(address,bool)": {
        "details": "See {IERC721-setApprovalForAll}."
      },
      "supportsInterface(bytes4)": {
        "details": "See {IERC165-supportsInterface}.     * Time complexity O(1), guaranteed to always use less than 30 000 gas."
      },
      "symbol()": {
        "details": "See {IERC721Metadata-symbol}."
      },
      "tokenByIndex(uint256)": {
        "details": "See {IERC721Enumerable-tokenByIndex}."
      },
      "tokenOfOwnerByIndex(address,uint256)": {
        "details": "See {IERC721Enumerable-tokenOfOwnerByIndex}."
      },
      "tokenURI(uint256)": {
        "details": "See {IERC721Metadata-tokenURI}."
      },
      "totalSupply()": {
        "details": "See {IERC721Enumerable-totalSupply}."
      },
      "transferFrom(address,address,uint256)": {
        "details": "See {IERC721-transferFrom}."
      }
    }
  },
  "userdoc": {
    "methods": {}
  }
}